{
	"contracts/final/ProposelContract.sol": {
		"ProposelContract": {
			"abi": [
				{
					"inputs": [],
					"stateMutability": "nonpayable",
					"type": "constructor"
				},
				{
					"inputs": [
						{
							"internalType": "address",
							"name": "owner",
							"type": "address"
						}
					],
					"name": "OwnableInvalidOwner",
					"type": "error"
				},
				{
					"inputs": [
						{
							"internalType": "address",
							"name": "account",
							"type": "address"
						}
					],
					"name": "OwnableUnauthorizedAccount",
					"type": "error"
				},
				{
					"anonymous": false,
					"inputs": [
						{
							"indexed": true,
							"internalType": "address",
							"name": "previousOwner",
							"type": "address"
						},
						{
							"indexed": true,
							"internalType": "address",
							"name": "newOwner",
							"type": "address"
						}
					],
					"name": "OwnershipTransferred",
					"type": "event"
				},
				{
					"inputs": [
						{
							"internalType": "string",
							"name": "name",
							"type": "string"
						},
						{
							"internalType": "string",
							"name": "url",
							"type": "string"
						}
					],
					"name": "addProposel",
					"outputs": [
						{
							"components": [
								{
									"internalType": "address",
									"name": "owner",
									"type": "address"
								},
								{
									"internalType": "string",
									"name": "name",
									"type": "string"
								},
								{
									"internalType": "string",
									"name": "url",
									"type": "string"
								},
								{
									"internalType": "uint256",
									"name": "timestamp",
									"type": "uint256"
								},
								{
									"internalType": "uint256",
									"name": "votes",
									"type": "uint256"
								},
								{
									"internalType": "uint256",
									"name": "id",
									"type": "uint256"
								},
								{
									"internalType": "bytes32",
									"name": "uniqueHash",
									"type": "bytes32"
								}
							],
							"internalType": "struct Proposel",
							"name": "",
							"type": "tuple"
						}
					],
					"stateMutability": "nonpayable",
					"type": "function"
				},
				{
					"inputs": [
						{
							"internalType": "uint256",
							"name": "proposel_id",
							"type": "uint256"
						}
					],
					"name": "decreaseVotes",
					"outputs": [],
					"stateMutability": "nonpayable",
					"type": "function"
				},
				{
					"inputs": [],
					"name": "getWinningProposel",
					"outputs": [
						{
							"components": [
								{
									"internalType": "address",
									"name": "owner",
									"type": "address"
								},
								{
									"internalType": "string",
									"name": "name",
									"type": "string"
								},
								{
									"internalType": "string",
									"name": "url",
									"type": "string"
								},
								{
									"internalType": "uint256",
									"name": "timestamp",
									"type": "uint256"
								},
								{
									"internalType": "uint256",
									"name": "votes",
									"type": "uint256"
								},
								{
									"internalType": "uint256",
									"name": "id",
									"type": "uint256"
								},
								{
									"internalType": "bytes32",
									"name": "uniqueHash",
									"type": "bytes32"
								}
							],
							"internalType": "struct Proposel",
							"name": "",
							"type": "tuple"
						}
					],
					"stateMutability": "view",
					"type": "function"
				},
				{
					"inputs": [
						{
							"internalType": "uint256",
							"name": "proposel_id",
							"type": "uint256"
						}
					],
					"name": "increaseVotes",
					"outputs": [],
					"stateMutability": "nonpayable",
					"type": "function"
				},
				{
					"inputs": [],
					"name": "listProposels",
					"outputs": [
						{
							"components": [
								{
									"internalType": "address",
									"name": "owner",
									"type": "address"
								},
								{
									"internalType": "string",
									"name": "name",
									"type": "string"
								},
								{
									"internalType": "string",
									"name": "url",
									"type": "string"
								},
								{
									"internalType": "uint256",
									"name": "timestamp",
									"type": "uint256"
								},
								{
									"internalType": "uint256",
									"name": "votes",
									"type": "uint256"
								},
								{
									"internalType": "uint256",
									"name": "id",
									"type": "uint256"
								},
								{
									"internalType": "bytes32",
									"name": "uniqueHash",
									"type": "bytes32"
								}
							],
							"internalType": "struct Proposel[]",
							"name": "",
							"type": "tuple[]"
						}
					],
					"stateMutability": "view",
					"type": "function"
				},
				{
					"inputs": [],
					"name": "owner",
					"outputs": [
						{
							"internalType": "address",
							"name": "",
							"type": "address"
						}
					],
					"stateMutability": "view",
					"type": "function"
				},
				{
					"inputs": [],
					"name": "removeWinningPropsel",
					"outputs": [
						{
							"components": [
								{
									"internalType": "address",
									"name": "owner",
									"type": "address"
								},
								{
									"internalType": "string",
									"name": "name",
									"type": "string"
								},
								{
									"internalType": "string",
									"name": "url",
									"type": "string"
								},
								{
									"internalType": "uint256",
									"name": "timestamp",
									"type": "uint256"
								},
								{
									"internalType": "uint256",
									"name": "votes",
									"type": "uint256"
								},
								{
									"internalType": "uint256",
									"name": "id",
									"type": "uint256"
								},
								{
									"internalType": "bytes32",
									"name": "uniqueHash",
									"type": "bytes32"
								}
							],
							"internalType": "struct Proposel",
							"name": "",
							"type": "tuple"
						}
					],
					"stateMutability": "nonpayable",
					"type": "function"
				},
				{
					"inputs": [],
					"name": "renounceOwnership",
					"outputs": [],
					"stateMutability": "nonpayable",
					"type": "function"
				},
				{
					"inputs": [
						{
							"internalType": "address",
							"name": "newOwner",
							"type": "address"
						}
					],
					"name": "transferOwnership",
					"outputs": [],
					"stateMutability": "nonpayable",
					"type": "function"
				}
			],
			"devdoc": {
				"errors": {
					"OwnableInvalidOwner(address)": [
						{
							"details": "The owner is not a valid owner account. (eg. `address(0)`)"
						}
					],
					"OwnableUnauthorizedAccount(address)": [
						{
							"details": "The caller account is not authorized to perform an operation."
						}
					]
				},
				"kind": "dev",
				"methods": {
					"owner()": {
						"details": "Returns the address of the current owner."
					},
					"renounceOwnership()": {
						"details": "Leaves the contract without owner. It will not be possible to call `onlyOwner` functions. Can only be called by the current owner. NOTE: Renouncing ownership will leave the contract without an owner, thereby disabling any functionality that is only available to the owner."
					},
					"transferOwnership(address)": {
						"details": "Transfers ownership of the contract to a new account (`newOwner`). Can only be called by the current owner."
					}
				},
				"version": 1
			},
			"evm": {
				"assembly": "    /* \"contracts/final/ProposelContract.sol\":219:2659  contract ProposelContract is  Ownable,  IProposelContract {... */\n  mstore(0x40, 0x80)\n    /* \"contracts/final/ProposelContract.sol\":365:431  constructor() Ownable(msg.sender) {... */\n  callvalue\n  dup1\n  iszero\n  tag_1\n  jumpi\n  0x00\n  dup1\n  revert\ntag_1:\n  pop\n    /* \"contracts/final/ProposelContract.sol\":387:397  msg.sender */\n  caller\n    /* \"@openzeppelin/contracts/access/Ownable.sol\":1297:1298  0 */\n  0x00\n    /* \"@openzeppelin/contracts/access/Ownable.sol\":1273:1299  initialOwner == address(0) */\n  0xffffffffffffffffffffffffffffffffffffffff\n  and\n    /* \"@openzeppelin/contracts/access/Ownable.sol\":1273:1285  initialOwner */\n  dup2\n    /* \"@openzeppelin/contracts/access/Ownable.sol\":1273:1299  initialOwner == address(0) */\n  0xffffffffffffffffffffffffffffffffffffffff\n  and\n  sub\n    /* \"@openzeppelin/contracts/access/Ownable.sol\":1269:1364  if (initialOwner == address(0)) {... */\n  tag_5\n  jumpi\n    /* \"@openzeppelin/contracts/access/Ownable.sol\":1350:1351  0 */\n  0x00\n    /* \"@openzeppelin/contracts/access/Ownable.sol\":1322:1353  OwnableInvalidOwner(address(0)) */\n  mload(0x40)\n  0x1e4fbdf700000000000000000000000000000000000000000000000000000000\n  dup2\n  mstore\n  0x04\n  add\n  tag_6\n  swap2\n  swap1\n  tag_7\n  jump\t// in\ntag_6:\n  mload(0x40)\n  dup1\n  swap2\n  sub\n  swap1\n  revert\n    /* \"@openzeppelin/contracts/access/Ownable.sol\":1269:1364  if (initialOwner == address(0)) {... */\ntag_5:\n    /* \"@openzeppelin/contracts/access/Ownable.sol\":1373:1405  _transferOwnership(initialOwner) */\n  tag_8\n    /* \"@openzeppelin/contracts/access/Ownable.sol\":1392:1404  initialOwner */\n  dup2\n    /* \"@openzeppelin/contracts/access/Ownable.sol\":1373:1391  _transferOwnership */\n  shl(0x20, tag_9)\n    /* \"@openzeppelin/contracts/access/Ownable.sol\":1373:1405  _transferOwnership(initialOwner) */\n  0x20\n  shr\n  jump\t// in\ntag_8:\n    /* \"@openzeppelin/contracts/access/Ownable.sol\":1225:1412  constructor(address initialOwner) {... */\n  pop\n    /* \"contracts/final/ProposelContract.sol\":422:423  1 */\n  0x01\n    /* \"contracts/final/ProposelContract.sol\":410:419  idCounter */\n  0x03\n    /* \"contracts/final/ProposelContract.sol\":410:423  idCounter = 1 */\n  dup2\n  swap1\n  sstore\n  pop\n    /* \"contracts/final/ProposelContract.sol\":219:2659  contract ProposelContract is  Ownable,  IProposelContract {... */\n  jump(tag_11)\n    /* \"@openzeppelin/contracts/access/Ownable.sol\":2912:3099  function _transferOwnership(address newOwner) internal virtual {... */\ntag_9:\n    /* \"@openzeppelin/contracts/access/Ownable.sol\":2985:3001  address oldOwner */\n  0x00\n    /* \"@openzeppelin/contracts/access/Ownable.sol\":3004:3010  _owner */\n  dup1\n  0x00\n  swap1\n  sload\n  swap1\n  0x0100\n  exp\n  swap1\n  div\n  0xffffffffffffffffffffffffffffffffffffffff\n  and\n    /* \"@openzeppelin/contracts/access/Ownable.sol\":2985:3010  address oldOwner = _owner */\n  swap1\n  pop\n    /* \"@openzeppelin/contracts/access/Ownable.sol\":3029:3037  newOwner */\n  dup2\n    /* \"@openzeppelin/contracts/access/Ownable.sol\":3020:3026  _owner */\n  0x00\n  dup1\n    /* \"@openzeppelin/contracts/access/Ownable.sol\":3020:3037  _owner = newOwner */\n  0x0100\n  exp\n  dup2\n  sload\n  dup2\n  0xffffffffffffffffffffffffffffffffffffffff\n  mul\n  not\n  and\n  swap1\n  dup4\n  0xffffffffffffffffffffffffffffffffffffffff\n  and\n  mul\n  or\n  swap1\n  sstore\n  pop\n    /* \"@openzeppelin/contracts/access/Ownable.sol\":3083:3091  newOwner */\n  dup2\n    /* \"@openzeppelin/contracts/access/Ownable.sol\":3052:3092  OwnershipTransferred(oldOwner, newOwner) */\n  0xffffffffffffffffffffffffffffffffffffffff\n  and\n    /* \"@openzeppelin/contracts/access/Ownable.sol\":3073:3081  oldOwner */\n  dup2\n    /* \"@openzeppelin/contracts/access/Ownable.sol\":3052:3092  OwnershipTransferred(oldOwner, newOwner) */\n  0xffffffffffffffffffffffffffffffffffffffff\n  and\n  0x8be0079c531659141344cd1fd0a4f28419497f9722a3daafe3b4186f6b6457e0\n  mload(0x40)\n  mload(0x40)\n  dup1\n  swap2\n  sub\n  swap1\n  log3\n    /* \"@openzeppelin/contracts/access/Ownable.sol\":2975:3099  {... */\n  pop\n    /* \"@openzeppelin/contracts/access/Ownable.sol\":2912:3099  function _transferOwnership(address newOwner) internal virtual {... */\n  pop\n  jump\t// out\n    /* \"#utility.yul\":7:133   */\ntag_13:\n    /* \"#utility.yul\":44:51   */\n  0x00\n    /* \"#utility.yul\":84:126   */\n  0xffffffffffffffffffffffffffffffffffffffff\n    /* \"#utility.yul\":77:82   */\n  dup3\n    /* \"#utility.yul\":73:127   */\n  and\n    /* \"#utility.yul\":62:127   */\n  swap1\n  pop\n    /* \"#utility.yul\":7:133   */\n  swap2\n  swap1\n  pop\n  jump\t// out\n    /* \"#utility.yul\":139:235   */\ntag_14:\n    /* \"#utility.yul\":176:183   */\n  0x00\n    /* \"#utility.yul\":205:229   */\n  tag_19\n    /* \"#utility.yul\":223:228   */\n  dup3\n    /* \"#utility.yul\":205:229   */\n  tag_13\n  jump\t// in\ntag_19:\n    /* \"#utility.yul\":194:229   */\n  swap1\n  pop\n    /* \"#utility.yul\":139:235   */\n  swap2\n  swap1\n  pop\n  jump\t// out\n    /* \"#utility.yul\":241:359   */\ntag_15:\n    /* \"#utility.yul\":328:352   */\n  tag_21\n    /* \"#utility.yul\":346:351   */\n  dup2\n    /* \"#utility.yul\":328:352   */\n  tag_14\n  jump\t// in\ntag_21:\n    /* \"#utility.yul\":323:326   */\n  dup3\n    /* \"#utility.yul\":316:353   */\n  mstore\n    /* \"#utility.yul\":241:359   */\n  pop\n  pop\n  jump\t// out\n    /* \"#utility.yul\":365:587   */\ntag_7:\n    /* \"#utility.yul\":458:462   */\n  0x00\n    /* \"#utility.yul\":496:498   */\n  0x20\n    /* \"#utility.yul\":485:494   */\n  dup3\n    /* \"#utility.yul\":481:499   */\n  add\n    /* \"#utility.yul\":473:499   */\n  swap1\n  pop\n    /* \"#utility.yul\":509:580   */\n  tag_23\n    /* \"#utility.yul\":577:578   */\n  0x00\n    /* \"#utility.yul\":566:575   */\n  dup4\n    /* \"#utility.yul\":562:579   */\n  add\n    /* \"#utility.yul\":553:559   */\n  dup5\n    /* \"#utility.yul\":509:580   */\n  tag_15\n  jump\t// in\ntag_23:\n    /* \"#utility.yul\":365:587   */\n  swap3\n  swap2\n  pop\n  pop\n  jump\t// out\n    /* \"contracts/final/ProposelContract.sol\":219:2659  contract ProposelContract is  Ownable,  IProposelContract {... */\ntag_11:\n  dataSize(sub_0)\n  dup1\n  dataOffset(sub_0)\n  0x00\n  codecopy\n  0x00\n  return\nstop\n\nsub_0: assembly {\n        /* \"contracts/final/ProposelContract.sol\":219:2659  contract ProposelContract is  Ownable,  IProposelContract {... */\n      mstore(0x40, 0x80)\n      callvalue\n      dup1\n      iszero\n      tag_1\n      jumpi\n      0x00\n      dup1\n      revert\n    tag_1:\n      pop\n      jumpi(tag_2, lt(calldatasize, 0x04))\n      shr(0xe0, calldataload(0x00))\n      dup1\n      0x8da5cb5b\n      gt\n      tag_12\n      jumpi\n      dup1\n      0x8da5cb5b\n      eq\n      tag_7\n      jumpi\n      dup1\n      0x94964edf\n      eq\n      tag_8\n      jumpi\n      dup1\n      0x9b757a2c\n      eq\n      tag_9\n      jumpi\n      dup1\n      0xef46a75d\n      eq\n      tag_10\n      jumpi\n      dup1\n      0xf2fde38b\n      eq\n      tag_11\n      jumpi\n      jump(tag_2)\n    tag_12:\n      dup1\n      0x6c9a5fa4\n      eq\n      tag_3\n      jumpi\n      dup1\n      0x6f7789a1\n      eq\n      tag_4\n      jumpi\n      dup1\n      0x715018a6\n      eq\n      tag_5\n      jumpi\n      dup1\n      0x7cdbf25c\n      eq\n      tag_6\n      jumpi\n    tag_2:\n      0x00\n      dup1\n      revert\n        /* \"contracts/final/ProposelContract.sol\":2457:2653  function getWinningProposel() public atleastOneProposel view returns (Proposel memory) {... */\n    tag_3:\n      tag_13\n      tag_14\n      jump\t// in\n    tag_13:\n      mload(0x40)\n      tag_15\n      swap2\n      swap1\n      tag_16\n      jump\t// in\n    tag_15:\n      mload(0x40)\n      dup1\n      swap2\n      sub\n      swap1\n      return\n        /* \"contracts/final/ProposelContract.sol\":1717:2337  function addProposel(... */\n    tag_4:\n      tag_17\n      0x04\n      dup1\n      calldatasize\n      sub\n      dup2\n      add\n      swap1\n      tag_18\n      swap2\n      swap1\n      tag_19\n      jump\t// in\n    tag_18:\n      tag_20\n      jump\t// in\n    tag_17:\n      mload(0x40)\n      tag_21\n      swap2\n      swap1\n      tag_16\n      jump\t// in\n    tag_21:\n      mload(0x40)\n      dup1\n      swap2\n      sub\n      swap1\n      return\n        /* \"@openzeppelin/contracts/access/Ownable.sol\":2293:2394  function renounceOwnership() public virtual onlyOwner {... */\n    tag_5:\n      tag_22\n      tag_23\n      jump\t// in\n    tag_22:\n      stop\n        /* \"contracts/final/ProposelContract.sol\":1205:1709  function removeWinningPropsel() public atleastOneProposel returns (Proposel memory){... */\n    tag_6:\n      tag_24\n      tag_25\n      jump\t// in\n    tag_24:\n      mload(0x40)\n      tag_26\n      swap2\n      swap1\n      tag_16\n      jump\t// in\n    tag_26:\n      mload(0x40)\n      dup1\n      swap2\n      sub\n      swap1\n      return\n        /* \"@openzeppelin/contracts/access/Ownable.sol\":1638:1723  function owner() public view virtual returns (address) {... */\n    tag_7:\n      tag_27\n      tag_28\n      jump\t// in\n    tag_27:\n      mload(0x40)\n      tag_29\n      swap2\n      swap1\n      tag_30\n      jump\t// in\n    tag_29:\n      mload(0x40)\n      dup1\n      swap2\n      sub\n      swap1\n      return\n        /* \"contracts/final/ProposelContract.sol\":2349:2449  function listProposels() public view returns (Proposel[] memory) {... */\n    tag_8:\n      tag_31\n      tag_32\n      jump\t// in\n    tag_31:\n      mload(0x40)\n      tag_33\n      swap2\n      swap1\n      tag_34\n      jump\t// in\n    tag_33:\n      mload(0x40)\n      dup1\n      swap2\n      sub\n      swap1\n      return\n        /* \"contracts/final/ProposelContract.sol\":1011:1197  function decreaseVotes(uint proposel_id) public proposelIdExists(proposel_id){... */\n    tag_9:\n      tag_35\n      0x04\n      dup1\n      calldatasize\n      sub\n      dup2\n      add\n      swap1\n      tag_36\n      swap2\n      swap1\n      tag_37\n      jump\t// in\n    tag_36:\n      tag_38\n      jump\t// in\n    tag_35:\n      stop\n        /* \"contracts/final/ProposelContract.sol\":814:1003  function increaseVotes(uint proposel_id) public proposelIdExists(proposel_id) {... */\n    tag_10:\n      tag_39\n      0x04\n      dup1\n      calldatasize\n      sub\n      dup2\n      add\n      swap1\n      tag_40\n      swap2\n      swap1\n      tag_37\n      jump\t// in\n    tag_40:\n      tag_41\n      jump\t// in\n    tag_39:\n      stop\n        /* \"@openzeppelin/contracts/access/Ownable.sol\":2543:2758  function transferOwnership(address newOwner) public virtual onlyOwner {... */\n    tag_11:\n      tag_42\n      0x04\n      dup1\n      calldatasize\n      sub\n      dup2\n      add\n      swap1\n      tag_43\n      swap2\n      swap1\n      tag_44\n      jump\t// in\n    tag_43:\n      tag_45\n      jump\t// in\n    tag_42:\n      stop\n        /* \"contracts/final/ProposelContract.sol\":2457:2653  function getWinningProposel() public atleastOneProposel view returns (Proposel memory) {... */\n    tag_14:\n        /* \"contracts/final/ProposelContract.sol\":2527:2542  Proposel memory */\n      tag_46\n      tag_47\n      jump\t// in\n    tag_46:\n        /* \"contracts/final/ProposelContract.sol\":758:759  0 */\n      0x00\n        /* \"contracts/final/ProposelContract.sol\":739:748  proposels */\n      0x02\n        /* \"contracts/final/ProposelContract.sol\":739:755  proposels.length */\n      dup1\n      sload\n      swap1\n      pop\n        /* \"contracts/final/ProposelContract.sol\":739:759  proposels.length > 0 */\n      gt\n        /* \"contracts/final/ProposelContract.sol\":731:786  require(proposels.length > 0, \"No proposels availabel\") */\n      tag_49\n      jumpi\n      mload(0x40)\n      0x08c379a000000000000000000000000000000000000000000000000000000000\n      dup2\n      mstore\n      0x04\n      add\n      tag_50\n      swap1\n      tag_51\n      jump\t// in\n    tag_50:\n      mload(0x40)\n      dup1\n      swap2\n      sub\n      swap1\n      revert\n    tag_49:\n        /* \"contracts/final/ProposelContract.sol\":2555:2565  uint index */\n      0x00\n        /* \"contracts/final/ProposelContract.sol\":2568:2579  UtilLibrary */\n      linkerSymbol(\"82b61f054658045e23d532ad3e00111aa20030a55f4c440044bec39bab26389d\")\n        /* \"contracts/final/ProposelContract.sol\":2568:2600  UtilLibrary.getIndexWithMaxVotes */\n      0x4cde5371\n        /* \"contracts/final/ProposelContract.sol\":2601:2610  proposels */\n      0x02\n        /* \"contracts/final/ProposelContract.sol\":2568:2611  UtilLibrary.getIndexWithMaxVotes(proposels) */\n      mload(0x40)\n      dup3\n      0xffffffff\n      and\n      0xe0\n      shl\n      dup2\n      mstore\n      0x04\n      add\n      tag_53\n      swap2\n      swap1\n      tag_54\n      jump\t// in\n    tag_53:\n      0x20\n      mload(0x40)\n      dup1\n      dup4\n      sub\n      dup2\n      dup7\n      gas\n      delegatecall\n      iszero\n      dup1\n      iszero\n      tag_56\n      jumpi\n      returndatasize\n      0x00\n      dup1\n      returndatacopy\n      revert(0x00, returndatasize)\n    tag_56:\n      pop\n      pop\n      pop\n      pop\n      mload(0x40)\n      returndatasize\n      not(0x1f)\n      0x1f\n      dup3\n      add\n      and\n      dup3\n      add\n      dup1\n      0x40\n      mstore\n      pop\n      dup2\n      add\n      swap1\n      tag_57\n      swap2\n      swap1\n      tag_58\n      jump\t// in\n    tag_57:\n        /* \"contracts/final/ProposelContract.sol\":2555:2611  uint index = UtilLibrary.getIndexWithMaxVotes(proposels) */\n      swap1\n      pop\n        /* \"contracts/final/ProposelContract.sol\":2629:2638  proposels */\n      0x02\n        /* \"contracts/final/ProposelContract.sol\":2639:2644  index */\n      dup2\n        /* \"contracts/final/ProposelContract.sol\":2629:2645  proposels[index] */\n      dup2\n      sload\n      dup2\n      lt\n      tag_59\n      jumpi\n      tag_60\n      tag_61\n      jump\t// in\n    tag_60:\n    tag_59:\n      swap1\n      0x00\n      mstore\n      keccak256(0x00, 0x20)\n      swap1\n      0x07\n      mul\n      add\n        /* \"contracts/final/ProposelContract.sol\":2622:2645  return proposels[index] */\n      mload(0x40)\n      dup1\n      0xe0\n      add\n      0x40\n      mstore\n      swap1\n      dup2\n      0x00\n      dup3\n      add\n      0x00\n      swap1\n      sload\n      swap1\n      0x0100\n      exp\n      swap1\n      div\n      0xffffffffffffffffffffffffffffffffffffffff\n      and\n      0xffffffffffffffffffffffffffffffffffffffff\n      and\n      0xffffffffffffffffffffffffffffffffffffffff\n      and\n      dup2\n      mstore\n      0x20\n      add\n      0x01\n      dup3\n      add\n      dup1\n      sload\n      tag_63\n      swap1\n      tag_64\n      jump\t// in\n    tag_63:\n      dup1\n      0x1f\n      add\n      0x20\n      dup1\n      swap2\n      div\n      mul\n      0x20\n      add\n      mload(0x40)\n      swap1\n      dup2\n      add\n      0x40\n      mstore\n      dup1\n      swap3\n      swap2\n      swap1\n      dup2\n      dup2\n      mstore\n      0x20\n      add\n      dup3\n      dup1\n      sload\n      tag_65\n      swap1\n      tag_64\n      jump\t// in\n    tag_65:\n      dup1\n      iszero\n      tag_66\n      jumpi\n      dup1\n      0x1f\n      lt\n      tag_67\n      jumpi\n      0x0100\n      dup1\n      dup4\n      sload\n      div\n      mul\n      dup4\n      mstore\n      swap2\n      0x20\n      add\n      swap2\n      jump(tag_66)\n    tag_67:\n      dup3\n      add\n      swap2\n      swap1\n      0x00\n      mstore\n      keccak256(0x00, 0x20)\n      swap1\n    tag_68:\n      dup2\n      sload\n      dup2\n      mstore\n      swap1\n      0x01\n      add\n      swap1\n      0x20\n      add\n      dup1\n      dup4\n      gt\n      tag_68\n      jumpi\n      dup3\n      swap1\n      sub\n      0x1f\n      and\n      dup3\n      add\n      swap2\n    tag_66:\n      pop\n      pop\n      pop\n      pop\n      pop\n      dup2\n      mstore\n      0x20\n      add\n      0x02\n      dup3\n      add\n      dup1\n      sload\n      tag_69\n      swap1\n      tag_64\n      jump\t// in\n    tag_69:\n      dup1\n      0x1f\n      add\n      0x20\n      dup1\n      swap2\n      div\n      mul\n      0x20\n      add\n      mload(0x40)\n      swap1\n      dup2\n      add\n      0x40\n      mstore\n      dup1\n      swap3\n      swap2\n      swap1\n      dup2\n      dup2\n      mstore\n      0x20\n      add\n      dup3\n      dup1\n      sload\n      tag_70\n      swap1\n      tag_64\n      jump\t// in\n    tag_70:\n      dup1\n      iszero\n      tag_71\n      jumpi\n      dup1\n      0x1f\n      lt\n      tag_72\n      jumpi\n      0x0100\n      dup1\n      dup4\n      sload\n      div\n      mul\n      dup4\n      mstore\n      swap2\n      0x20\n      add\n      swap2\n      jump(tag_71)\n    tag_72:\n      dup3\n      add\n      swap2\n      swap1\n      0x00\n      mstore\n      keccak256(0x00, 0x20)\n      swap1\n    tag_73:\n      dup2\n      sload\n      dup2\n      mstore\n      swap1\n      0x01\n      add\n      swap1\n      0x20\n      add\n      dup1\n      dup4\n      gt\n      tag_73\n      jumpi\n      dup3\n      swap1\n      sub\n      0x1f\n      and\n      dup3\n      add\n      swap2\n    tag_71:\n      pop\n      pop\n      pop\n      pop\n      pop\n      dup2\n      mstore\n      0x20\n      add\n      0x03\n      dup3\n      add\n      sload\n      dup2\n      mstore\n      0x20\n      add\n      0x04\n      dup3\n      add\n      sload\n      dup2\n      mstore\n      0x20\n      add\n      0x05\n      dup3\n      add\n      sload\n      dup2\n      mstore\n      0x20\n      add\n      0x06\n      dup3\n      add\n      sload\n      dup2\n      mstore\n      pop\n      pop\n      swap2\n      pop\n      pop\n        /* \"contracts/final/ProposelContract.sol\":2457:2653  function getWinningProposel() public atleastOneProposel view returns (Proposel memory) {... */\n      swap1\n      jump\t// out\n        /* \"contracts/final/ProposelContract.sol\":1717:2337  function addProposel(... */\n    tag_20:\n        /* \"contracts/final/ProposelContract.sol\":1818:1833  Proposel memory */\n      tag_74\n      tag_47\n      jump\t// in\n    tag_74:\n        /* \"contracts/final/ProposelContract.sol\":1847:1854  uint id */\n      0x00\n        /* \"contracts/final/ProposelContract.sol\":1857:1867  getNexId() */\n      tag_76\n        /* \"contracts/final/ProposelContract.sol\":1857:1865  getNexId */\n      tag_77\n        /* \"contracts/final/ProposelContract.sol\":1857:1867  getNexId() */\n      jump\t// in\n    tag_76:\n        /* \"contracts/final/ProposelContract.sol\":1847:1867  uint id = getNexId() */\n      swap1\n      pop\n        /* \"contracts/final/ProposelContract.sol\":1937:1964  Proposel memory newProposel */\n      0x00\n        /* \"contracts/final/ProposelContract.sol\":1967:2260  Proposel({... */\n      mload(0x40)\n      dup1\n      0xe0\n      add\n      0x40\n      mstore\n      dup1\n        /* \"contracts/final/ProposelContract.sol\":2131:2141  msg.sender */\n      caller\n        /* \"contracts/final/ProposelContract.sol\":1967:2260  Proposel({... */\n      0xffffffffffffffffffffffffffffffffffffffff\n      and\n      dup2\n      mstore\n      0x20\n      add\n        /* \"contracts/final/ProposelContract.sol\":1997:2001  name */\n      dup7\n        /* \"contracts/final/ProposelContract.sol\":1967:2260  Proposel({... */\n      dup2\n      mstore\n      0x20\n      add\n        /* \"contracts/final/ProposelContract.sol\":2021:2024  url */\n      dup6\n        /* \"contracts/final/ProposelContract.sol\":1967:2260  Proposel({... */\n      dup2\n      mstore\n      0x20\n      add\n        /* \"contracts/final/ProposelContract.sol\":2050:2065  block.timestamp */\n      timestamp\n        /* \"contracts/final/ProposelContract.sol\":1967:2260  Proposel({... */\n      dup2\n      mstore\n      0x20\n      add\n        /* \"contracts/final/ProposelContract.sol\":2087:2088  0 */\n      0x00\n        /* \"contracts/final/ProposelContract.sol\":1967:2260  Proposel({... */\n      dup2\n      mstore\n      0x20\n      add\n        /* \"contracts/final/ProposelContract.sol\":2107:2109  id */\n      dup4\n        /* \"contracts/final/ProposelContract.sol\":1967:2260  Proposel({... */\n      dup2\n      mstore\n      0x20\n      add\n        /* \"contracts/final/ProposelContract.sol\":2168:2179  UtilLibrary */\n      linkerSymbol(\"82b61f054658045e23d532ad3e00111aa20030a55f4c440044bec39bab26389d\")\n        /* \"contracts/final/ProposelContract.sol\":2168:2187  UtilLibrary.gethash */\n      0x61494538\n        /* \"contracts/final/ProposelContract.sol\":2188:2199  UtilLibrary */\n      linkerSymbol(\"82b61f054658045e23d532ad3e00111aa20030a55f4c440044bec39bab26389d\")\n        /* \"contracts/final/ProposelContract.sol\":2188:2215  UtilLibrary.combineElemnets */\n      0xf608ab78\n        /* \"contracts/final/ProposelContract.sol\":2216:2220  name */\n      dup11\n        /* \"contracts/final/ProposelContract.sol\":2222:2225  url */\n      dup11\n        /* \"contracts/final/ProposelContract.sol\":2227:2242  block.timestamp */\n      timestamp\n        /* \"contracts/final/ProposelContract.sol\":2244:2246  id */\n      dup11\n        /* \"contracts/final/ProposelContract.sol\":2188:2247  UtilLibrary.combineElemnets(name, url, block.timestamp, id) */\n      mload(0x40)\n      dup6\n      0xffffffff\n      and\n      0xe0\n      shl\n      dup2\n      mstore\n      0x04\n      add\n      tag_78\n      swap5\n      swap4\n      swap3\n      swap2\n      swap1\n      tag_79\n      jump\t// in\n    tag_78:\n      0x00\n      mload(0x40)\n      dup1\n      dup4\n      sub\n      dup2\n      dup7\n      gas\n      delegatecall\n      iszero\n      dup1\n      iszero\n      tag_81\n      jumpi\n      returndatasize\n      0x00\n      dup1\n      returndatacopy\n      revert(0x00, returndatasize)\n    tag_81:\n      pop\n      pop\n      pop\n      pop\n      mload(0x40)\n      returndatasize\n      0x00\n      dup3\n      returndatacopy\n      returndatasize\n      not(0x1f)\n      0x1f\n      dup3\n      add\n      and\n      dup3\n      add\n      dup1\n      0x40\n      mstore\n      pop\n      dup2\n      add\n      swap1\n      tag_82\n      swap2\n      swap1\n      tag_83\n      jump\t// in\n    tag_82:\n        /* \"contracts/final/ProposelContract.sol\":2168:2248  UtilLibrary.gethash(UtilLibrary.combineElemnets(name, url, block.timestamp, id)) */\n      mload(0x40)\n      dup3\n      0xffffffff\n      and\n      0xe0\n      shl\n      dup2\n      mstore\n      0x04\n      add\n      tag_84\n      swap2\n      swap1\n      tag_85\n      jump\t// in\n    tag_84:\n      0x20\n      mload(0x40)\n      dup1\n      dup4\n      sub\n      dup2\n      dup7\n      gas\n      delegatecall\n      iszero\n      dup1\n      iszero\n      tag_87\n      jumpi\n      returndatasize\n      0x00\n      dup1\n      returndatacopy\n      revert(0x00, returndatasize)\n    tag_87:\n      pop\n      pop\n      pop\n      pop\n      mload(0x40)\n      returndatasize\n      not(0x1f)\n      0x1f\n      dup3\n      add\n      and\n      dup3\n      add\n      dup1\n      0x40\n      mstore\n      pop\n      dup2\n      add\n      swap1\n      tag_88\n      swap2\n      swap1\n      tag_89\n      jump\t// in\n    tag_88:\n        /* \"contracts/final/ProposelContract.sol\":1967:2260  Proposel({... */\n      dup2\n      mstore\n      pop\n        /* \"contracts/final/ProposelContract.sol\":1937:2260  Proposel memory newProposel = Proposel({... */\n      swap1\n      pop\n        /* \"contracts/final/ProposelContract.sol\":2273:2282  proposels */\n      0x02\n        /* \"contracts/final/ProposelContract.sol\":2288:2299  newProposel */\n      dup2\n        /* \"contracts/final/ProposelContract.sol\":2273:2300  proposels.push(newProposel) */\n      swap1\n      dup1\n      0x01\n      dup2\n      sload\n      add\n      dup1\n      dup3\n      sstore\n      dup1\n      swap2\n      pop\n      pop\n      0x01\n      swap1\n      sub\n      swap1\n      0x00\n      mstore\n      keccak256(0x00, 0x20)\n      swap1\n      0x07\n      mul\n      add\n      0x00\n      swap1\n      swap2\n      swap1\n      swap2\n      swap1\n      swap2\n      pop\n      0x00\n      dup3\n      add\n      mload\n      dup2\n      0x00\n      add\n      exp(0x0100, 0x00)\n      dup2\n      sload\n      dup2\n      0xffffffffffffffffffffffffffffffffffffffff\n      mul\n      not\n      and\n      swap1\n      dup4\n      0xffffffffffffffffffffffffffffffffffffffff\n      and\n      mul\n      or\n      swap1\n      sstore\n      pop\n      0x20\n      dup3\n      add\n      mload\n      dup2\n      0x01\n      add\n      swap1\n      dup2\n      tag_91\n      swap2\n      swap1\n      tag_92\n      jump\t// in\n    tag_91:\n      pop\n      0x40\n      dup3\n      add\n      mload\n      dup2\n      0x02\n      add\n      swap1\n      dup2\n      tag_93\n      swap2\n      swap1\n      tag_92\n      jump\t// in\n    tag_93:\n      pop\n      0x60\n      dup3\n      add\n      mload\n      dup2\n      0x03\n      add\n      sstore\n      0x80\n      dup3\n      add\n      mload\n      dup2\n      0x04\n      add\n      sstore\n      0xa0\n      dup3\n      add\n      mload\n      dup2\n      0x05\n      add\n      sstore\n      0xc0\n      dup3\n      add\n      mload\n      dup2\n      0x06\n      add\n      sstore\n      pop\n      pop\n        /* \"contracts/final/ProposelContract.sol\":2318:2329  newProposel */\n      dup1\n        /* \"contracts/final/ProposelContract.sol\":2311:2329  return newProposel */\n      swap3\n      pop\n      pop\n      pop\n        /* \"contracts/final/ProposelContract.sol\":1717:2337  function addProposel(... */\n      swap3\n      swap2\n      pop\n      pop\n      jump\t// out\n        /* \"@openzeppelin/contracts/access/Ownable.sol\":2293:2394  function renounceOwnership() public virtual onlyOwner {... */\n    tag_23:\n        /* \"@openzeppelin/contracts/access/Ownable.sol\":1531:1544  _checkOwner() */\n      tag_95\n        /* \"@openzeppelin/contracts/access/Ownable.sol\":1531:1542  _checkOwner */\n      tag_96\n        /* \"@openzeppelin/contracts/access/Ownable.sol\":1531:1544  _checkOwner() */\n      jump\t// in\n    tag_95:\n        /* \"@openzeppelin/contracts/access/Ownable.sol\":2357:2387  _transferOwnership(address(0)) */\n      tag_98\n        /* \"@openzeppelin/contracts/access/Ownable.sol\":2384:2385  0 */\n      0x00\n        /* \"@openzeppelin/contracts/access/Ownable.sol\":2357:2375  _transferOwnership */\n      tag_99\n        /* \"@openzeppelin/contracts/access/Ownable.sol\":2357:2387  _transferOwnership(address(0)) */\n      jump\t// in\n    tag_98:\n        /* \"@openzeppelin/contracts/access/Ownable.sol\":2293:2394  function renounceOwnership() public virtual onlyOwner {... */\n      jump\t// out\n        /* \"contracts/final/ProposelContract.sol\":1205:1709  function removeWinningPropsel() public atleastOneProposel returns (Proposel memory){... */\n    tag_25:\n        /* \"contracts/final/ProposelContract.sol\":1272:1287  Proposel memory */\n      tag_100\n      tag_47\n      jump\t// in\n    tag_100:\n        /* \"contracts/final/ProposelContract.sol\":758:759  0 */\n      0x00\n        /* \"contracts/final/ProposelContract.sol\":739:748  proposels */\n      0x02\n        /* \"contracts/final/ProposelContract.sol\":739:755  proposels.length */\n      dup1\n      sload\n      swap1\n      pop\n        /* \"contracts/final/ProposelContract.sol\":739:759  proposels.length > 0 */\n      gt\n        /* \"contracts/final/ProposelContract.sol\":731:786  require(proposels.length > 0, \"No proposels availabel\") */\n      tag_102\n      jumpi\n      mload(0x40)\n      0x08c379a000000000000000000000000000000000000000000000000000000000\n      dup2\n      mstore\n      0x04\n      add\n      tag_103\n      swap1\n      tag_51\n      jump\t// in\n    tag_103:\n      mload(0x40)\n      dup1\n      swap2\n      sub\n      swap1\n      revert\n    tag_102:\n        /* \"contracts/final/ProposelContract.sol\":1299:1309  uint index */\n      0x00\n        /* \"contracts/final/ProposelContract.sol\":1312:1323  UtilLibrary */\n      linkerSymbol(\"82b61f054658045e23d532ad3e00111aa20030a55f4c440044bec39bab26389d\")\n        /* \"contracts/final/ProposelContract.sol\":1312:1344  UtilLibrary.getIndexWithMaxVotes */\n      0x4cde5371\n        /* \"contracts/final/ProposelContract.sol\":1345:1354  proposels */\n      0x02\n        /* \"contracts/final/ProposelContract.sol\":1312:1355  UtilLibrary.getIndexWithMaxVotes(proposels) */\n      mload(0x40)\n      dup3\n      0xffffffff\n      and\n      0xe0\n      shl\n      dup2\n      mstore\n      0x04\n      add\n      tag_105\n      swap2\n      swap1\n      tag_54\n      jump\t// in\n    tag_105:\n      0x20\n      mload(0x40)\n      dup1\n      dup4\n      sub\n      dup2\n      dup7\n      gas\n      delegatecall\n      iszero\n      dup1\n      iszero\n      tag_107\n      jumpi\n      returndatasize\n      0x00\n      dup1\n      returndatacopy\n      revert(0x00, returndatasize)\n    tag_107:\n      pop\n      pop\n      pop\n      pop\n      mload(0x40)\n      returndatasize\n      not(0x1f)\n      0x1f\n      dup3\n      add\n      and\n      dup3\n      add\n      dup1\n      0x40\n      mstore\n      pop\n      dup2\n      add\n      swap1\n      tag_108\n      swap2\n      swap1\n      tag_58\n      jump\t// in\n    tag_108:\n        /* \"contracts/final/ProposelContract.sol\":1299:1355  uint index = UtilLibrary.getIndexWithMaxVotes(proposels) */\n      swap1\n      pop\n        /* \"contracts/final/ProposelContract.sol\":1366:1397  Proposel memory removedProposel */\n      0x00\n        /* \"contracts/final/ProposelContract.sol\":1400:1409  proposels */\n      0x02\n        /* \"contracts/final/ProposelContract.sol\":1410:1415  index */\n      dup3\n        /* \"contracts/final/ProposelContract.sol\":1400:1416  proposels[index] */\n      dup2\n      sload\n      dup2\n      lt\n      tag_109\n      jumpi\n      tag_110\n      tag_61\n      jump\t// in\n    tag_110:\n    tag_109:\n      swap1\n      0x00\n      mstore\n      keccak256(0x00, 0x20)\n      swap1\n      0x07\n      mul\n      add\n        /* \"contracts/final/ProposelContract.sol\":1366:1416  Proposel memory removedProposel = proposels[index] */\n      mload(0x40)\n      dup1\n      0xe0\n      add\n      0x40\n      mstore\n      swap1\n      dup2\n      0x00\n      dup3\n      add\n      0x00\n      swap1\n      sload\n      swap1\n      0x0100\n      exp\n      swap1\n      div\n      0xffffffffffffffffffffffffffffffffffffffff\n      and\n      0xffffffffffffffffffffffffffffffffffffffff\n      and\n      0xffffffffffffffffffffffffffffffffffffffff\n      and\n      dup2\n      mstore\n      0x20\n      add\n      0x01\n      dup3\n      add\n      dup1\n      sload\n      tag_112\n      swap1\n      tag_64\n      jump\t// in\n    tag_112:\n      dup1\n      0x1f\n      add\n      0x20\n      dup1\n      swap2\n      div\n      mul\n      0x20\n      add\n      mload(0x40)\n      swap1\n      dup2\n      add\n      0x40\n      mstore\n      dup1\n      swap3\n      swap2\n      swap1\n      dup2\n      dup2\n      mstore\n      0x20\n      add\n      dup3\n      dup1\n      sload\n      tag_113\n      swap1\n      tag_64\n      jump\t// in\n    tag_113:\n      dup1\n      iszero\n      tag_114\n      jumpi\n      dup1\n      0x1f\n      lt\n      tag_115\n      jumpi\n      0x0100\n      dup1\n      dup4\n      sload\n      div\n      mul\n      dup4\n      mstore\n      swap2\n      0x20\n      add\n      swap2\n      jump(tag_114)\n    tag_115:\n      dup3\n      add\n      swap2\n      swap1\n      0x00\n      mstore\n      keccak256(0x00, 0x20)\n      swap1\n    tag_116:\n      dup2\n      sload\n      dup2\n      mstore\n      swap1\n      0x01\n      add\n      swap1\n      0x20\n      add\n      dup1\n      dup4\n      gt\n      tag_116\n      jumpi\n      dup3\n      swap1\n      sub\n      0x1f\n      and\n      dup3\n      add\n      swap2\n    tag_114:\n      pop\n      pop\n      pop\n      pop\n      pop\n      dup2\n      mstore\n      0x20\n      add\n      0x02\n      dup3\n      add\n      dup1\n      sload\n      tag_117\n      swap1\n      tag_64\n      jump\t// in\n    tag_117:\n      dup1\n      0x1f\n      add\n      0x20\n      dup1\n      swap2\n      div\n      mul\n      0x20\n      add\n      mload(0x40)\n      swap1\n      dup2\n      add\n      0x40\n      mstore\n      dup1\n      swap3\n      swap2\n      swap1\n      dup2\n      dup2\n      mstore\n      0x20\n      add\n      dup3\n      dup1\n      sload\n      tag_118\n      swap1\n      tag_64\n      jump\t// in\n    tag_118:\n      dup1\n      iszero\n      tag_119\n      jumpi\n      dup1\n      0x1f\n      lt\n      tag_120\n      jumpi\n      0x0100\n      dup1\n      dup4\n      sload\n      div\n      mul\n      dup4\n      mstore\n      swap2\n      0x20\n      add\n      swap2\n      jump(tag_119)\n    tag_120:\n      dup3\n      add\n      swap2\n      swap1\n      0x00\n      mstore\n      keccak256(0x00, 0x20)\n      swap1\n    tag_121:\n      dup2\n      sload\n      dup2\n      mstore\n      swap1\n      0x01\n      add\n      swap1\n      0x20\n      add\n      dup1\n      dup4\n      gt\n      tag_121\n      jumpi\n      dup3\n      swap1\n      sub\n      0x1f\n      and\n      dup3\n      add\n      swap2\n    tag_119:\n      pop\n      pop\n      pop\n      pop\n      pop\n      dup2\n      mstore\n      0x20\n      add\n      0x03\n      dup3\n      add\n      sload\n      dup2\n      mstore\n      0x20\n      add\n      0x04\n      dup3\n      add\n      sload\n      dup2\n      mstore\n      0x20\n      add\n      0x05\n      dup3\n      add\n      sload\n      dup2\n      mstore\n      0x20\n      add\n      0x06\n      dup3\n      add\n      sload\n      dup2\n      mstore\n      pop\n      pop\n      swap1\n      pop\n        /* \"contracts/final/ProposelContract.sol\":1432:1441  uint256 i */\n      0x00\n        /* \"contracts/final/ProposelContract.sol\":1444:1449  index */\n      dup3\n        /* \"contracts/final/ProposelContract.sol\":1432:1449  uint256 i = index */\n      swap1\n      pop\n        /* \"contracts/final/ProposelContract.sol\":1427:1540  for (uint256 i = index; i < proposels.length - 1; i++) {... */\n    tag_122:\n        /* \"contracts/final/ProposelContract.sol\":1474:1475  1 */\n      0x01\n        /* \"contracts/final/ProposelContract.sol\":1455:1464  proposels */\n      0x02\n        /* \"contracts/final/ProposelContract.sol\":1455:1471  proposels.length */\n      dup1\n      sload\n      swap1\n      pop\n        /* \"contracts/final/ProposelContract.sol\":1455:1475  proposels.length - 1 */\n      tag_125\n      swap2\n      swap1\n      tag_126\n      jump\t// in\n    tag_125:\n        /* \"contracts/final/ProposelContract.sol\":1451:1452  i */\n      dup2\n        /* \"contracts/final/ProposelContract.sol\":1451:1475  i < proposels.length - 1 */\n      lt\n        /* \"contracts/final/ProposelContract.sol\":1427:1540  for (uint256 i = index; i < proposels.length - 1; i++) {... */\n      iszero\n      tag_123\n      jumpi\n        /* \"contracts/final/ProposelContract.sol\":1512:1521  proposels */\n      0x02\n        /* \"contracts/final/ProposelContract.sol\":1526:1527  1 */\n      0x01\n        /* \"contracts/final/ProposelContract.sol\":1522:1523  i */\n      dup3\n        /* \"contracts/final/ProposelContract.sol\":1522:1527  i + 1 */\n      tag_127\n      swap2\n      swap1\n      tag_128\n      jump\t// in\n    tag_127:\n        /* \"contracts/final/ProposelContract.sol\":1512:1528  proposels[i + 1] */\n      dup2\n      sload\n      dup2\n      lt\n      tag_129\n      jumpi\n      tag_130\n      tag_61\n      jump\t// in\n    tag_130:\n    tag_129:\n      swap1\n      0x00\n      mstore\n      keccak256(0x00, 0x20)\n      swap1\n      0x07\n      mul\n      add\n        /* \"contracts/final/ProposelContract.sol\":1497:1506  proposels */\n      0x02\n        /* \"contracts/final/ProposelContract.sol\":1507:1508  i */\n      dup3\n        /* \"contracts/final/ProposelContract.sol\":1497:1509  proposels[i] */\n      dup2\n      sload\n      dup2\n      lt\n      tag_132\n      jumpi\n      tag_133\n      tag_61\n      jump\t// in\n    tag_133:\n    tag_132:\n      swap1\n      0x00\n      mstore\n      keccak256(0x00, 0x20)\n      swap1\n      0x07\n      mul\n      add\n        /* \"contracts/final/ProposelContract.sol\":1497:1528  proposels[i] = proposels[i + 1] */\n      0x00\n      dup3\n      add\n      0x00\n      swap1\n      sload\n      swap1\n      0x0100\n      exp\n      swap1\n      div\n      0xffffffffffffffffffffffffffffffffffffffff\n      and\n      dup2\n      0x00\n      add\n      exp(0x0100, 0x00)\n      dup2\n      sload\n      dup2\n      0xffffffffffffffffffffffffffffffffffffffff\n      mul\n      not\n      and\n      swap1\n      dup4\n      0xffffffffffffffffffffffffffffffffffffffff\n      and\n      mul\n      or\n      swap1\n      sstore\n      pop\n      0x01\n      dup3\n      add\n      dup2\n      0x01\n      add\n      swap1\n      dup2\n      tag_135\n      swap2\n      swap1\n      tag_136\n      jump\t// in\n    tag_135:\n      pop\n      0x02\n      dup3\n      add\n      dup2\n      0x02\n      add\n      swap1\n      dup2\n      tag_137\n      swap2\n      swap1\n      tag_136\n      jump\t// in\n    tag_137:\n      pop\n      0x03\n      dup3\n      add\n      sload\n      dup2\n      0x03\n      add\n      sstore\n      0x04\n      dup3\n      add\n      sload\n      dup2\n      0x04\n      add\n      sstore\n      0x05\n      dup3\n      add\n      sload\n      dup2\n      0x05\n      add\n      sstore\n      0x06\n      dup3\n      add\n      sload\n      dup2\n      0x06\n      add\n      sstore\n      swap1\n      pop\n      pop\n        /* \"contracts/final/ProposelContract.sol\":1477:1480  i++ */\n      dup1\n      dup1\n      0x01\n      add\n      swap2\n      pop\n      pop\n        /* \"contracts/final/ProposelContract.sol\":1427:1540  for (uint256 i = index; i < proposels.length - 1; i++) {... */\n      jump(tag_122)\n    tag_123:\n      pop\n        /* \"contracts/final/ProposelContract.sol\":1550:1559  proposels */\n      0x02\n        /* \"contracts/final/ProposelContract.sol\":1550:1565  proposels.pop() */\n      dup1\n      sload\n      dup1\n      tag_138\n      jumpi\n      tag_139\n      tag_140\n      jump\t// in\n    tag_139:\n    tag_138:\n      0x01\n      swap1\n      sub\n      dup2\n      dup2\n      swap1\n      0x00\n      mstore\n      keccak256(0x00, 0x20)\n      swap1\n      0x07\n      mul\n      add\n      0x00\n      dup1\n      dup3\n      add\n      exp(0x0100, 0x00)\n      dup2\n      sload\n      swap1\n      0xffffffffffffffffffffffffffffffffffffffff\n      mul\n      not\n      and\n      swap1\n      sstore\n      0x01\n      dup3\n      add\n      0x00\n      tag_142\n      swap2\n      swap1\n      tag_143\n      jump\t// in\n    tag_142:\n      0x02\n      dup3\n      add\n      0x00\n      tag_144\n      swap2\n      swap1\n      tag_143\n      jump\t// in\n    tag_144:\n      0x03\n      dup3\n      add\n      0x00\n      swap1\n      sstore\n      0x04\n      dup3\n      add\n      0x00\n      swap1\n      sstore\n      0x05\n      dup3\n      add\n      0x00\n      swap1\n      sstore\n      0x06\n      dup3\n      add\n      0x00\n      swap1\n      sstore\n      pop\n      pop\n      swap1\n      sstore\n        /* \"contracts/final/ProposelContract.sol\":1581:1587  uint i */\n      0x00\n        /* \"contracts/final/ProposelContract.sol\":1576:1669  for (uint i = 0; i < proposels.length; i++) {... */\n    tag_145:\n        /* \"contracts/final/ProposelContract.sol\":1597:1606  proposels */\n      0x02\n        /* \"contracts/final/ProposelContract.sol\":1597:1613  proposels.length */\n      dup1\n      sload\n      swap1\n      pop\n        /* \"contracts/final/ProposelContract.sol\":1593:1594  i */\n      dup2\n        /* \"contracts/final/ProposelContract.sol\":1593:1613  i < proposels.length */\n      lt\n        /* \"contracts/final/ProposelContract.sol\":1576:1669  for (uint i = 0; i < proposels.length; i++) {... */\n      iszero\n      tag_146\n      jumpi\n        /* \"contracts/final/ProposelContract.sol\":1656:1657  0 */\n      0x00\n        /* \"contracts/final/ProposelContract.sol\":1635:1644  proposels */\n      0x02\n        /* \"contracts/final/ProposelContract.sol\":1645:1646  i */\n      dup3\n        /* \"contracts/final/ProposelContract.sol\":1635:1647  proposels[i] */\n      dup2\n      sload\n      dup2\n      lt\n      tag_148\n      jumpi\n      tag_149\n      tag_61\n      jump\t// in\n    tag_149:\n    tag_148:\n      swap1\n      0x00\n      mstore\n      keccak256(0x00, 0x20)\n      swap1\n      0x07\n      mul\n      add\n        /* \"contracts/final/ProposelContract.sol\":1635:1653  proposels[i].votes */\n      0x04\n      add\n        /* \"contracts/final/ProposelContract.sol\":1635:1657  proposels[i].votes = 0 */\n      dup2\n      swap1\n      sstore\n      pop\n        /* \"contracts/final/ProposelContract.sol\":1615:1618  i++ */\n      dup1\n      dup1\n      0x01\n      add\n      swap2\n      pop\n      pop\n        /* \"contracts/final/ProposelContract.sol\":1576:1669  for (uint i = 0; i < proposels.length; i++) {... */\n      jump(tag_145)\n    tag_146:\n      pop\n        /* \"contracts/final/ProposelContract.sol\":1686:1701  removedProposel */\n      dup1\n        /* \"contracts/final/ProposelContract.sol\":1679:1701  return removedProposel */\n      swap3\n      pop\n      pop\n      pop\n        /* \"contracts/final/ProposelContract.sol\":1205:1709  function removeWinningPropsel() public atleastOneProposel returns (Proposel memory){... */\n      swap1\n      jump\t// out\n        /* \"@openzeppelin/contracts/access/Ownable.sol\":1638:1723  function owner() public view virtual returns (address) {... */\n    tag_28:\n        /* \"@openzeppelin/contracts/access/Ownable.sol\":1684:1691  address */\n      0x00\n        /* \"@openzeppelin/contracts/access/Ownable.sol\":1710:1716  _owner */\n      dup1\n      0x00\n      swap1\n      sload\n      swap1\n      0x0100\n      exp\n      swap1\n      div\n      0xffffffffffffffffffffffffffffffffffffffff\n      and\n        /* \"@openzeppelin/contracts/access/Ownable.sol\":1703:1716  return _owner */\n      swap1\n      pop\n        /* \"@openzeppelin/contracts/access/Ownable.sol\":1638:1723  function owner() public view virtual returns (address) {... */\n      swap1\n      jump\t// out\n        /* \"contracts/final/ProposelContract.sol\":2349:2449  function listProposels() public view returns (Proposel[] memory) {... */\n    tag_32:\n        /* \"contracts/final/ProposelContract.sol\":2395:2412  Proposel[] memory */\n      0x60\n        /* \"contracts/final/ProposelContract.sol\":2432:2441  proposels */\n      0x02\n        /* \"contracts/final/ProposelContract.sol\":2425:2441  return proposels */\n      dup1\n      sload\n      dup1\n      0x20\n      mul\n      0x20\n      add\n      mload(0x40)\n      swap1\n      dup2\n      add\n      0x40\n      mstore\n      dup1\n      swap3\n      swap2\n      swap1\n      dup2\n      dup2\n      mstore\n      0x20\n      add\n      0x00\n      swap1\n    tag_153:\n      dup3\n      dup3\n      lt\n      iszero\n      tag_154\n      jumpi\n      dup4\n      dup3\n      swap1\n      0x00\n      mstore\n      keccak256(0x00, 0x20)\n      swap1\n      0x07\n      mul\n      add\n      mload(0x40)\n      dup1\n      0xe0\n      add\n      0x40\n      mstore\n      swap1\n      dup2\n      0x00\n      dup3\n      add\n      0x00\n      swap1\n      sload\n      swap1\n      0x0100\n      exp\n      swap1\n      div\n      0xffffffffffffffffffffffffffffffffffffffff\n      and\n      0xffffffffffffffffffffffffffffffffffffffff\n      and\n      0xffffffffffffffffffffffffffffffffffffffff\n      and\n      dup2\n      mstore\n      0x20\n      add\n      0x01\n      dup3\n      add\n      dup1\n      sload\n      tag_156\n      swap1\n      tag_64\n      jump\t// in\n    tag_156:\n      dup1\n      0x1f\n      add\n      0x20\n      dup1\n      swap2\n      div\n      mul\n      0x20\n      add\n      mload(0x40)\n      swap1\n      dup2\n      add\n      0x40\n      mstore\n      dup1\n      swap3\n      swap2\n      swap1\n      dup2\n      dup2\n      mstore\n      0x20\n      add\n      dup3\n      dup1\n      sload\n      tag_157\n      swap1\n      tag_64\n      jump\t// in\n    tag_157:\n      dup1\n      iszero\n      tag_158\n      jumpi\n      dup1\n      0x1f\n      lt\n      tag_159\n      jumpi\n      0x0100\n      dup1\n      dup4\n      sload\n      div\n      mul\n      dup4\n      mstore\n      swap2\n      0x20\n      add\n      swap2\n      jump(tag_158)\n    tag_159:\n      dup3\n      add\n      swap2\n      swap1\n      0x00\n      mstore\n      keccak256(0x00, 0x20)\n      swap1\n    tag_160:\n      dup2\n      sload\n      dup2\n      mstore\n      swap1\n      0x01\n      add\n      swap1\n      0x20\n      add\n      dup1\n      dup4\n      gt\n      tag_160\n      jumpi\n      dup3\n      swap1\n      sub\n      0x1f\n      and\n      dup3\n      add\n      swap2\n    tag_158:\n      pop\n      pop\n      pop\n      pop\n      pop\n      dup2\n      mstore\n      0x20\n      add\n      0x02\n      dup3\n      add\n      dup1\n      sload\n      tag_161\n      swap1\n      tag_64\n      jump\t// in\n    tag_161:\n      dup1\n      0x1f\n      add\n      0x20\n      dup1\n      swap2\n      div\n      mul\n      0x20\n      add\n      mload(0x40)\n      swap1\n      dup2\n      add\n      0x40\n      mstore\n      dup1\n      swap3\n      swap2\n      swap1\n      dup2\n      dup2\n      mstore\n      0x20\n      add\n      dup3\n      dup1\n      sload\n      tag_162\n      swap1\n      tag_64\n      jump\t// in\n    tag_162:\n      dup1\n      iszero\n      tag_163\n      jumpi\n      dup1\n      0x1f\n      lt\n      tag_164\n      jumpi\n      0x0100\n      dup1\n      dup4\n      sload\n      div\n      mul\n      dup4\n      mstore\n      swap2\n      0x20\n      add\n      swap2\n      jump(tag_163)\n    tag_164:\n      dup3\n      add\n      swap2\n      swap1\n      0x00\n      mstore\n      keccak256(0x00, 0x20)\n      swap1\n    tag_165:\n      dup2\n      sload\n      dup2\n      mstore\n      swap1\n      0x01\n      add\n      swap1\n      0x20\n      add\n      dup1\n      dup4\n      gt\n      tag_165\n      jumpi\n      dup3\n      swap1\n      sub\n      0x1f\n      and\n      dup3\n      add\n      swap2\n    tag_163:\n      pop\n      pop\n      pop\n      pop\n      pop\n      dup2\n      mstore\n      0x20\n      add\n      0x03\n      dup3\n      add\n      sload\n      dup2\n      mstore\n      0x20\n      add\n      0x04\n      dup3\n      add\n      sload\n      dup2\n      mstore\n      0x20\n      add\n      0x05\n      dup3\n      add\n      sload\n      dup2\n      mstore\n      0x20\n      add\n      0x06\n      dup3\n      add\n      sload\n      dup2\n      mstore\n      pop\n      pop\n      dup2\n      mstore\n      0x20\n      add\n      swap1\n      0x01\n      add\n      swap1\n      jump(tag_153)\n    tag_154:\n      pop\n      pop\n      pop\n      pop\n      swap1\n      pop\n        /* \"contracts/final/ProposelContract.sol\":2349:2449  function listProposels() public view returns (Proposel[] memory) {... */\n      swap1\n      jump\t// out\n        /* \"contracts/final/ProposelContract.sol\":1011:1197  function decreaseVotes(uint proposel_id) public proposelIdExists(proposel_id){... */\n    tag_38:\n        /* \"contracts/final/ProposelContract.sol\":1076:1087  proposel_id */\n      dup1\n        /* \"contracts/final/ProposelContract.sol\":589:600  UtilLibrary */\n      linkerSymbol(\"82b61f054658045e23d532ad3e00111aa20030a55f4c440044bec39bab26389d\")\n        /* \"contracts/final/ProposelContract.sol\":589:611  UtilLibrary.checkIndex */\n      0xebb596ce\n        /* \"contracts/final/ProposelContract.sol\":612:621  proposels */\n      0x02\n        /* \"contracts/final/ProposelContract.sol\":623:633  proposelId */\n      dup4\n        /* \"contracts/final/ProposelContract.sol\":589:634  UtilLibrary.checkIndex(proposels, proposelId) */\n      mload(0x40)\n      dup4\n      0xffffffff\n      and\n      0xe0\n      shl\n      dup2\n      mstore\n      0x04\n      add\n      tag_167\n      swap3\n      swap2\n      swap1\n      tag_168\n      jump\t// in\n    tag_167:\n      0x20\n      mload(0x40)\n      dup1\n      dup4\n      sub\n      dup2\n      dup7\n      gas\n      delegatecall\n      iszero\n      dup1\n      iszero\n      tag_170\n      jumpi\n      returndatasize\n      0x00\n      dup1\n      returndatacopy\n      revert(0x00, returndatasize)\n    tag_170:\n      pop\n      pop\n      pop\n      pop\n      mload(0x40)\n      returndatasize\n      not(0x1f)\n      0x1f\n      dup3\n      add\n      and\n      dup3\n      add\n      dup1\n      0x40\n      mstore\n      pop\n      dup2\n      add\n      swap1\n      tag_171\n      swap2\n      swap1\n      tag_172\n      jump\t// in\n    tag_171:\n        /* \"contracts/final/ProposelContract.sol\":581:662  require(UtilLibrary.checkIndex(proposels, proposelId), \"Proposel does not exist\") */\n      tag_173\n      jumpi\n      mload(0x40)\n      0x08c379a000000000000000000000000000000000000000000000000000000000\n      dup2\n      mstore\n      0x04\n      add\n      tag_174\n      swap1\n      tag_175\n      jump\t// in\n    tag_174:\n      mload(0x40)\n      dup1\n      swap2\n      sub\n      swap1\n      revert\n    tag_173:\n        /* \"contracts/final/ProposelContract.sol\":1099:1105  uint i */\n      0x00\n        /* \"contracts/final/ProposelContract.sol\":1108:1119  UtilLibrary */\n      linkerSymbol(\"82b61f054658045e23d532ad3e00111aa20030a55f4c440044bec39bab26389d\")\n        /* \"contracts/final/ProposelContract.sol\":1108:1134  UtilLibrary.getIndexInList */\n      0x8f863f\n        /* \"contracts/final/ProposelContract.sol\":1135:1144  proposels */\n      0x02\n        /* \"contracts/final/ProposelContract.sol\":1146:1157  proposel_id */\n      dup6\n        /* \"contracts/final/ProposelContract.sol\":1108:1158  UtilLibrary.getIndexInList(proposels, proposel_id) */\n      mload(0x40)\n      dup4\n      0xffffffff\n      and\n      0xe0\n      shl\n      dup2\n      mstore\n      0x04\n      add\n      tag_177\n      swap3\n      swap2\n      swap1\n      tag_168\n      jump\t// in\n    tag_177:\n      0x20\n      mload(0x40)\n      dup1\n      dup4\n      sub\n      dup2\n      dup7\n      gas\n      delegatecall\n      iszero\n      dup1\n      iszero\n      tag_179\n      jumpi\n      returndatasize\n      0x00\n      dup1\n      returndatacopy\n      revert(0x00, returndatasize)\n    tag_179:\n      pop\n      pop\n      pop\n      pop\n      mload(0x40)\n      returndatasize\n      not(0x1f)\n      0x1f\n      dup3\n      add\n      and\n      dup3\n      add\n      dup1\n      0x40\n      mstore\n      pop\n      dup2\n      add\n      swap1\n      tag_180\n      swap2\n      swap1\n      tag_58\n      jump\t// in\n    tag_180:\n        /* \"contracts/final/ProposelContract.sol\":1099:1158  uint i = UtilLibrary.getIndexInList(proposels, proposel_id) */\n      swap1\n      pop\n        /* \"contracts/final/ProposelContract.sol\":1169:1178  proposels */\n      0x02\n        /* \"contracts/final/ProposelContract.sol\":1179:1180  i */\n      dup2\n        /* \"contracts/final/ProposelContract.sol\":1169:1181  proposels[i] */\n      dup2\n      sload\n      dup2\n      lt\n      tag_181\n      jumpi\n      tag_182\n      tag_61\n      jump\t// in\n    tag_182:\n    tag_181:\n      swap1\n      0x00\n      mstore\n      keccak256(0x00, 0x20)\n      swap1\n      0x07\n      mul\n      add\n        /* \"contracts/final/ProposelContract.sol\":1169:1187  proposels[i].votes */\n      0x04\n      add\n      0x00\n        /* \"contracts/final/ProposelContract.sol\":1169:1189  proposels[i].votes-- */\n      dup2\n      sload\n      dup1\n      swap3\n      swap2\n      swap1\n      tag_184\n      swap1\n      tag_185\n      jump\t// in\n    tag_184:\n      swap2\n      swap1\n      pop\n      sstore\n      pop\n        /* \"contracts/final/ProposelContract.sol\":1088:1197  {... */\n      pop\n        /* \"contracts/final/ProposelContract.sol\":1011:1197  function decreaseVotes(uint proposel_id) public proposelIdExists(proposel_id){... */\n      pop\n      pop\n      jump\t// out\n        /* \"contracts/final/ProposelContract.sol\":814:1003  function increaseVotes(uint proposel_id) public proposelIdExists(proposel_id) {... */\n    tag_41:\n        /* \"contracts/final/ProposelContract.sol\":879:890  proposel_id */\n      dup1\n        /* \"contracts/final/ProposelContract.sol\":589:600  UtilLibrary */\n      linkerSymbol(\"82b61f054658045e23d532ad3e00111aa20030a55f4c440044bec39bab26389d\")\n        /* \"contracts/final/ProposelContract.sol\":589:611  UtilLibrary.checkIndex */\n      0xebb596ce\n        /* \"contracts/final/ProposelContract.sol\":612:621  proposels */\n      0x02\n        /* \"contracts/final/ProposelContract.sol\":623:633  proposelId */\n      dup4\n        /* \"contracts/final/ProposelContract.sol\":589:634  UtilLibrary.checkIndex(proposels, proposelId) */\n      mload(0x40)\n      dup4\n      0xffffffff\n      and\n      0xe0\n      shl\n      dup2\n      mstore\n      0x04\n      add\n      tag_187\n      swap3\n      swap2\n      swap1\n      tag_168\n      jump\t// in\n    tag_187:\n      0x20\n      mload(0x40)\n      dup1\n      dup4\n      sub\n      dup2\n      dup7\n      gas\n      delegatecall\n      iszero\n      dup1\n      iszero\n      tag_189\n      jumpi\n      returndatasize\n      0x00\n      dup1\n      returndatacopy\n      revert(0x00, returndatasize)\n    tag_189:\n      pop\n      pop\n      pop\n      pop\n      mload(0x40)\n      returndatasize\n      not(0x1f)\n      0x1f\n      dup3\n      add\n      and\n      dup3\n      add\n      dup1\n      0x40\n      mstore\n      pop\n      dup2\n      add\n      swap1\n      tag_190\n      swap2\n      swap1\n      tag_172\n      jump\t// in\n    tag_190:\n        /* \"contracts/final/ProposelContract.sol\":581:662  require(UtilLibrary.checkIndex(proposels, proposelId), \"Proposel does not exist\") */\n      tag_191\n      jumpi\n      mload(0x40)\n      0x08c379a000000000000000000000000000000000000000000000000000000000\n      dup2\n      mstore\n      0x04\n      add\n      tag_192\n      swap1\n      tag_175\n      jump\t// in\n    tag_192:\n      mload(0x40)\n      dup1\n      swap2\n      sub\n      swap1\n      revert\n    tag_191:\n        /* \"contracts/final/ProposelContract.sol\":903:909  uint i */\n      0x00\n        /* \"contracts/final/ProposelContract.sol\":912:923  UtilLibrary */\n      linkerSymbol(\"82b61f054658045e23d532ad3e00111aa20030a55f4c440044bec39bab26389d\")\n        /* \"contracts/final/ProposelContract.sol\":912:938  UtilLibrary.getIndexInList */\n      0x8f863f\n        /* \"contracts/final/ProposelContract.sol\":939:948  proposels */\n      0x02\n        /* \"contracts/final/ProposelContract.sol\":950:961  proposel_id */\n      dup6\n        /* \"contracts/final/ProposelContract.sol\":912:962  UtilLibrary.getIndexInList(proposels, proposel_id) */\n      mload(0x40)\n      dup4\n      0xffffffff\n      and\n      0xe0\n      shl\n      dup2\n      mstore\n      0x04\n      add\n      tag_194\n      swap3\n      swap2\n      swap1\n      tag_168\n      jump\t// in\n    tag_194:\n      0x20\n      mload(0x40)\n      dup1\n      dup4\n      sub\n      dup2\n      dup7\n      gas\n      delegatecall\n      iszero\n      dup1\n      iszero\n      tag_196\n      jumpi\n      returndatasize\n      0x00\n      dup1\n      returndatacopy\n      revert(0x00, returndatasize)\n    tag_196:\n      pop\n      pop\n      pop\n      pop\n      mload(0x40)\n      returndatasize\n      not(0x1f)\n      0x1f\n      dup3\n      add\n      and\n      dup3\n      add\n      dup1\n      0x40\n      mstore\n      pop\n      dup2\n      add\n      swap1\n      tag_197\n      swap2\n      swap1\n      tag_58\n      jump\t// in\n    tag_197:\n        /* \"contracts/final/ProposelContract.sol\":903:962  uint i = UtilLibrary.getIndexInList(proposels, proposel_id) */\n      swap1\n      pop\n        /* \"contracts/final/ProposelContract.sol\":973:982  proposels */\n      0x02\n        /* \"contracts/final/ProposelContract.sol\":983:984  i */\n      dup2\n        /* \"contracts/final/ProposelContract.sol\":973:985  proposels[i] */\n      dup2\n      sload\n      dup2\n      lt\n      tag_198\n      jumpi\n      tag_199\n      tag_61\n      jump\t// in\n    tag_199:\n    tag_198:\n      swap1\n      0x00\n      mstore\n      keccak256(0x00, 0x20)\n      swap1\n      0x07\n      mul\n      add\n        /* \"contracts/final/ProposelContract.sol\":973:991  proposels[i].votes */\n      0x04\n      add\n      0x00\n        /* \"contracts/final/ProposelContract.sol\":973:993  proposels[i].votes++ */\n      dup2\n      sload\n      dup1\n      swap3\n      swap2\n      swap1\n      tag_201\n      swap1\n      tag_202\n      jump\t// in\n    tag_201:\n      swap2\n      swap1\n      pop\n      sstore\n      pop\n        /* \"contracts/final/ProposelContract.sol\":892:1003  {... */\n      pop\n        /* \"contracts/final/ProposelContract.sol\":814:1003  function increaseVotes(uint proposel_id) public proposelIdExists(proposel_id) {... */\n      pop\n      pop\n      jump\t// out\n        /* \"@openzeppelin/contracts/access/Ownable.sol\":2543:2758  function transferOwnership(address newOwner) public virtual onlyOwner {... */\n    tag_45:\n        /* \"@openzeppelin/contracts/access/Ownable.sol\":1531:1544  _checkOwner() */\n      tag_204\n        /* \"@openzeppelin/contracts/access/Ownable.sol\":1531:1542  _checkOwner */\n      tag_96\n        /* \"@openzeppelin/contracts/access/Ownable.sol\":1531:1544  _checkOwner() */\n      jump\t// in\n    tag_204:\n        /* \"@openzeppelin/contracts/access/Ownable.sol\":2647:2648  0 */\n      0x00\n        /* \"@openzeppelin/contracts/access/Ownable.sol\":2627:2649  newOwner == address(0) */\n      0xffffffffffffffffffffffffffffffffffffffff\n      and\n        /* \"@openzeppelin/contracts/access/Ownable.sol\":2627:2635  newOwner */\n      dup2\n        /* \"@openzeppelin/contracts/access/Ownable.sol\":2627:2649  newOwner == address(0) */\n      0xffffffffffffffffffffffffffffffffffffffff\n      and\n      sub\n        /* \"@openzeppelin/contracts/access/Ownable.sol\":2623:2714  if (newOwner == address(0)) {... */\n      tag_206\n      jumpi\n        /* \"@openzeppelin/contracts/access/Ownable.sol\":2700:2701  0 */\n      0x00\n        /* \"@openzeppelin/contracts/access/Ownable.sol\":2672:2703  OwnableInvalidOwner(address(0)) */\n      mload(0x40)\n      0x1e4fbdf700000000000000000000000000000000000000000000000000000000\n      dup2\n      mstore\n      0x04\n      add\n      tag_207\n      swap2\n      swap1\n      tag_30\n      jump\t// in\n    tag_207:\n      mload(0x40)\n      dup1\n      swap2\n      sub\n      swap1\n      revert\n        /* \"@openzeppelin/contracts/access/Ownable.sol\":2623:2714  if (newOwner == address(0)) {... */\n    tag_206:\n        /* \"@openzeppelin/contracts/access/Ownable.sol\":2723:2751  _transferOwnership(newOwner) */\n      tag_208\n        /* \"@openzeppelin/contracts/access/Ownable.sol\":2742:2750  newOwner */\n      dup2\n        /* \"@openzeppelin/contracts/access/Ownable.sol\":2723:2741  _transferOwnership */\n      tag_99\n        /* \"@openzeppelin/contracts/access/Ownable.sol\":2723:2751  _transferOwnership(newOwner) */\n      jump\t// in\n    tag_208:\n        /* \"@openzeppelin/contracts/access/Ownable.sol\":2543:2758  function transferOwnership(address newOwner) public virtual onlyOwner {... */\n      pop\n      jump\t// out\n        /* \"contracts/final/ProposelContract.sol\":439:519  function getNexId() private returns (uint) {... */\n    tag_77:\n        /* \"contracts/final/ProposelContract.sol\":476:480  uint */\n      0x00\n        /* \"contracts/final/ProposelContract.sol\":500:509  idCounter */\n      0x03\n      0x00\n        /* \"contracts/final/ProposelContract.sol\":500:511  idCounter++ */\n      dup2\n      sload\n      dup1\n      swap3\n      swap2\n      swap1\n      tag_210\n      swap1\n      tag_202\n      jump\t// in\n    tag_210:\n      swap2\n      swap1\n      pop\n      sstore\n        /* \"contracts/final/ProposelContract.sol\":493:511  return idCounter++ */\n      swap1\n      pop\n        /* \"contracts/final/ProposelContract.sol\":439:519  function getNexId() private returns (uint) {... */\n      swap1\n      jump\t// out\n        /* \"@openzeppelin/contracts/access/Ownable.sol\":1796:1958  function _checkOwner() internal view virtual {... */\n    tag_96:\n        /* \"@openzeppelin/contracts/access/Ownable.sol\":1866:1878  _msgSender() */\n      tag_212\n        /* \"@openzeppelin/contracts/access/Ownable.sol\":1866:1876  _msgSender */\n      tag_213\n        /* \"@openzeppelin/contracts/access/Ownable.sol\":1866:1878  _msgSender() */\n      jump\t// in\n    tag_212:\n        /* \"@openzeppelin/contracts/access/Ownable.sol\":1855:1878  owner() != _msgSender() */\n      0xffffffffffffffffffffffffffffffffffffffff\n      and\n        /* \"@openzeppelin/contracts/access/Ownable.sol\":1855:1862  owner() */\n      tag_214\n        /* \"@openzeppelin/contracts/access/Ownable.sol\":1855:1860  owner */\n      tag_28\n        /* \"@openzeppelin/contracts/access/Ownable.sol\":1855:1862  owner() */\n      jump\t// in\n    tag_214:\n        /* \"@openzeppelin/contracts/access/Ownable.sol\":1855:1878  owner() != _msgSender() */\n      0xffffffffffffffffffffffffffffffffffffffff\n      and\n      eq\n        /* \"@openzeppelin/contracts/access/Ownable.sol\":1851:1952  if (owner() != _msgSender()) {... */\n      tag_215\n      jumpi\n        /* \"@openzeppelin/contracts/access/Ownable.sol\":1928:1940  _msgSender() */\n      tag_216\n        /* \"@openzeppelin/contracts/access/Ownable.sol\":1928:1938  _msgSender */\n      tag_213\n        /* \"@openzeppelin/contracts/access/Ownable.sol\":1928:1940  _msgSender() */\n      jump\t// in\n    tag_216:\n        /* \"@openzeppelin/contracts/access/Ownable.sol\":1901:1941  OwnableUnauthorizedAccount(_msgSender()) */\n      mload(0x40)\n      0x118cdaa700000000000000000000000000000000000000000000000000000000\n      dup2\n      mstore\n      0x04\n      add\n      tag_217\n      swap2\n      swap1\n      tag_30\n      jump\t// in\n    tag_217:\n      mload(0x40)\n      dup1\n      swap2\n      sub\n      swap1\n      revert\n        /* \"@openzeppelin/contracts/access/Ownable.sol\":1851:1952  if (owner() != _msgSender()) {... */\n    tag_215:\n        /* \"@openzeppelin/contracts/access/Ownable.sol\":1796:1958  function _checkOwner() internal view virtual {... */\n      jump\t// out\n        /* \"@openzeppelin/contracts/access/Ownable.sol\":2912:3099  function _transferOwnership(address newOwner) internal virtual {... */\n    tag_99:\n        /* \"@openzeppelin/contracts/access/Ownable.sol\":2985:3001  address oldOwner */\n      0x00\n        /* \"@openzeppelin/contracts/access/Ownable.sol\":3004:3010  _owner */\n      dup1\n      0x00\n      swap1\n      sload\n      swap1\n      0x0100\n      exp\n      swap1\n      div\n      0xffffffffffffffffffffffffffffffffffffffff\n      and\n        /* \"@openzeppelin/contracts/access/Ownable.sol\":2985:3010  address oldOwner = _owner */\n      swap1\n      pop\n        /* \"@openzeppelin/contracts/access/Ownable.sol\":3029:3037  newOwner */\n      dup2\n        /* \"@openzeppelin/contracts/access/Ownable.sol\":3020:3026  _owner */\n      0x00\n      dup1\n        /* \"@openzeppelin/contracts/access/Ownable.sol\":3020:3037  _owner = newOwner */\n      0x0100\n      exp\n      dup2\n      sload\n      dup2\n      0xffffffffffffffffffffffffffffffffffffffff\n      mul\n      not\n      and\n      swap1\n      dup4\n      0xffffffffffffffffffffffffffffffffffffffff\n      and\n      mul\n      or\n      swap1\n      sstore\n      pop\n        /* \"@openzeppelin/contracts/access/Ownable.sol\":3083:3091  newOwner */\n      dup2\n        /* \"@openzeppelin/contracts/access/Ownable.sol\":3052:3092  OwnershipTransferred(oldOwner, newOwner) */\n      0xffffffffffffffffffffffffffffffffffffffff\n      and\n        /* \"@openzeppelin/contracts/access/Ownable.sol\":3073:3081  oldOwner */\n      dup2\n        /* \"@openzeppelin/contracts/access/Ownable.sol\":3052:3092  OwnershipTransferred(oldOwner, newOwner) */\n      0xffffffffffffffffffffffffffffffffffffffff\n      and\n      0x8be0079c531659141344cd1fd0a4f28419497f9722a3daafe3b4186f6b6457e0\n      mload(0x40)\n      mload(0x40)\n      dup1\n      swap2\n      sub\n      swap1\n      log3\n        /* \"@openzeppelin/contracts/access/Ownable.sol\":2975:3099  {... */\n      pop\n        /* \"@openzeppelin/contracts/access/Ownable.sol\":2912:3099  function _transferOwnership(address newOwner) internal virtual {... */\n      pop\n      jump\t// out\n        /* \"@openzeppelin/contracts/utils/Context.sol\":656:752  function _msgSender() internal view virtual returns (address) {... */\n    tag_213:\n        /* \"@openzeppelin/contracts/utils/Context.sol\":709:716  address */\n      0x00\n        /* \"@openzeppelin/contracts/utils/Context.sol\":735:745  msg.sender */\n      caller\n        /* \"@openzeppelin/contracts/utils/Context.sol\":728:745  return msg.sender */\n      swap1\n      pop\n        /* \"@openzeppelin/contracts/utils/Context.sol\":656:752  function _msgSender() internal view virtual returns (address) {... */\n      swap1\n      jump\t// out\n    tag_47:\n      mload(0x40)\n      dup1\n      0xe0\n      add\n      0x40\n      mstore\n      dup1\n      and(0xffffffffffffffffffffffffffffffffffffffff, 0x00)\n      dup2\n      mstore\n      0x20\n      add\n      0x60\n      dup2\n      mstore\n      0x20\n      add\n      0x60\n      dup2\n      mstore\n      0x20\n      add\n      0x00\n      dup2\n      mstore\n      0x20\n      add\n      0x00\n      dup2\n      mstore\n      0x20\n      add\n      0x00\n      dup2\n      mstore\n      0x20\n      add\n      0x00\n      dup1\n      not\n      and\n      dup2\n      mstore\n      pop\n      swap1\n      jump\t// out\n    tag_143:\n      pop\n      dup1\n      sload\n      tag_220\n      swap1\n      tag_64\n      jump\t// in\n    tag_220:\n      0x00\n      dup3\n      sstore\n      dup1\n      0x1f\n      lt\n      tag_222\n      jumpi\n      pop\n      jump(tag_221)\n    tag_222:\n      0x1f\n      add\n      0x20\n      swap1\n      div\n      swap1\n      0x00\n      mstore\n      keccak256(0x00, 0x20)\n      swap1\n      dup2\n      add\n      swap1\n      tag_223\n      swap2\n      swap1\n      tag_224\n      jump\t// in\n    tag_223:\n    tag_221:\n      pop\n      jump\t// out\n    tag_224:\n    tag_225:\n      dup1\n      dup3\n      gt\n      iszero\n      tag_226\n      jumpi\n      0x00\n      dup2\n      0x00\n      swap1\n      sstore\n      pop\n      0x01\n      add\n      jump(tag_225)\n    tag_226:\n      pop\n      swap1\n      jump\t// out\n        /* \"#utility.yul\":7:133   */\n    tag_227:\n        /* \"#utility.yul\":44:51   */\n      0x00\n        /* \"#utility.yul\":84:126   */\n      0xffffffffffffffffffffffffffffffffffffffff\n        /* \"#utility.yul\":77:82   */\n      dup3\n        /* \"#utility.yul\":73:127   */\n      and\n        /* \"#utility.yul\":62:127   */\n      swap1\n      pop\n        /* \"#utility.yul\":7:133   */\n      swap2\n      swap1\n      pop\n      jump\t// out\n        /* \"#utility.yul\":139:235   */\n    tag_228:\n        /* \"#utility.yul\":176:183   */\n      0x00\n        /* \"#utility.yul\":205:229   */\n      tag_320\n        /* \"#utility.yul\":223:228   */\n      dup3\n        /* \"#utility.yul\":205:229   */\n      tag_227\n      jump\t// in\n    tag_320:\n        /* \"#utility.yul\":194:229   */\n      swap1\n      pop\n        /* \"#utility.yul\":139:235   */\n      swap2\n      swap1\n      pop\n      jump\t// out\n        /* \"#utility.yul\":241:349   */\n    tag_229:\n        /* \"#utility.yul\":318:342   */\n      tag_322\n        /* \"#utility.yul\":336:341   */\n      dup2\n        /* \"#utility.yul\":318:342   */\n      tag_228\n      jump\t// in\n    tag_322:\n        /* \"#utility.yul\":313:316   */\n      dup3\n        /* \"#utility.yul\":306:343   */\n      mstore\n        /* \"#utility.yul\":241:349   */\n      pop\n      pop\n      jump\t// out\n        /* \"#utility.yul\":355:454   */\n    tag_230:\n        /* \"#utility.yul\":407:413   */\n      0x00\n        /* \"#utility.yul\":441:446   */\n      dup2\n        /* \"#utility.yul\":435:447   */\n      mload\n        /* \"#utility.yul\":425:447   */\n      swap1\n      pop\n        /* \"#utility.yul\":355:454   */\n      swap2\n      swap1\n      pop\n      jump\t// out\n        /* \"#utility.yul\":460:619   */\n    tag_231:\n        /* \"#utility.yul\":534:545   */\n      0x00\n        /* \"#utility.yul\":568:574   */\n      dup3\n        /* \"#utility.yul\":563:566   */\n      dup3\n        /* \"#utility.yul\":556:575   */\n      mstore\n        /* \"#utility.yul\":608:612   */\n      0x20\n        /* \"#utility.yul\":603:606   */\n      dup3\n        /* \"#utility.yul\":599:613   */\n      add\n        /* \"#utility.yul\":584:613   */\n      swap1\n      pop\n        /* \"#utility.yul\":460:619   */\n      swap3\n      swap2\n      pop\n      pop\n      jump\t// out\n        /* \"#utility.yul\":625:764   */\n    tag_232:\n        /* \"#utility.yul\":714:720   */\n      dup3\n        /* \"#utility.yul\":709:712   */\n      dup2\n        /* \"#utility.yul\":704:707   */\n      dup4\n        /* \"#utility.yul\":698:721   */\n      mcopy\n        /* \"#utility.yul\":755:756   */\n      0x00\n        /* \"#utility.yul\":746:752   */\n      dup4\n        /* \"#utility.yul\":741:744   */\n      dup4\n        /* \"#utility.yul\":737:753   */\n      add\n        /* \"#utility.yul\":730:757   */\n      mstore\n        /* \"#utility.yul\":625:764   */\n      pop\n      pop\n      pop\n      jump\t// out\n        /* \"#utility.yul\":770:872   */\n    tag_233:\n        /* \"#utility.yul\":811:817   */\n      0x00\n        /* \"#utility.yul\":862:864   */\n      0x1f\n        /* \"#utility.yul\":858:865   */\n      not\n        /* \"#utility.yul\":853:855   */\n      0x1f\n        /* \"#utility.yul\":846:851   */\n      dup4\n        /* \"#utility.yul\":842:856   */\n      add\n        /* \"#utility.yul\":838:866   */\n      and\n        /* \"#utility.yul\":828:866   */\n      swap1\n      pop\n        /* \"#utility.yul\":770:872   */\n      swap2\n      swap1\n      pop\n      jump\t// out\n        /* \"#utility.yul\":878:1235   */\n    tag_234:\n        /* \"#utility.yul\":956:959   */\n      0x00\n        /* \"#utility.yul\":984:1023   */\n      tag_328\n        /* \"#utility.yul\":1017:1022   */\n      dup3\n        /* \"#utility.yul\":984:1023   */\n      tag_230\n      jump\t// in\n    tag_328:\n        /* \"#utility.yul\":1039:1100   */\n      tag_329\n        /* \"#utility.yul\":1093:1099   */\n      dup2\n        /* \"#utility.yul\":1088:1091   */\n      dup6\n        /* \"#utility.yul\":1039:1100   */\n      tag_231\n      jump\t// in\n    tag_329:\n        /* \"#utility.yul\":1032:1100   */\n      swap4\n      pop\n        /* \"#utility.yul\":1109:1174   */\n      tag_330\n        /* \"#utility.yul\":1167:1173   */\n      dup2\n        /* \"#utility.yul\":1162:1165   */\n      dup6\n        /* \"#utility.yul\":1155:1159   */\n      0x20\n        /* \"#utility.yul\":1148:1153   */\n      dup7\n        /* \"#utility.yul\":1144:1160   */\n      add\n        /* \"#utility.yul\":1109:1174   */\n      tag_232\n      jump\t// in\n    tag_330:\n        /* \"#utility.yul\":1199:1228   */\n      tag_331\n        /* \"#utility.yul\":1221:1227   */\n      dup2\n        /* \"#utility.yul\":1199:1228   */\n      tag_233\n      jump\t// in\n    tag_331:\n        /* \"#utility.yul\":1194:1197   */\n      dup5\n        /* \"#utility.yul\":1190:1229   */\n      add\n        /* \"#utility.yul\":1183:1229   */\n      swap2\n      pop\n        /* \"#utility.yul\":960:1235   */\n      pop\n        /* \"#utility.yul\":878:1235   */\n      swap3\n      swap2\n      pop\n      pop\n      jump\t// out\n        /* \"#utility.yul\":1241:1318   */\n    tag_235:\n        /* \"#utility.yul\":1278:1285   */\n      0x00\n        /* \"#utility.yul\":1307:1312   */\n      dup2\n        /* \"#utility.yul\":1296:1312   */\n      swap1\n      pop\n        /* \"#utility.yul\":1241:1318   */\n      swap2\n      swap1\n      pop\n      jump\t// out\n        /* \"#utility.yul\":1324:1432   */\n    tag_236:\n        /* \"#utility.yul\":1401:1425   */\n      tag_334\n        /* \"#utility.yul\":1419:1424   */\n      dup2\n        /* \"#utility.yul\":1401:1425   */\n      tag_235\n      jump\t// in\n    tag_334:\n        /* \"#utility.yul\":1396:1399   */\n      dup3\n        /* \"#utility.yul\":1389:1426   */\n      mstore\n        /* \"#utility.yul\":1324:1432   */\n      pop\n      pop\n      jump\t// out\n        /* \"#utility.yul\":1438:1515   */\n    tag_237:\n        /* \"#utility.yul\":1475:1482   */\n      0x00\n        /* \"#utility.yul\":1504:1509   */\n      dup2\n        /* \"#utility.yul\":1493:1509   */\n      swap1\n      pop\n        /* \"#utility.yul\":1438:1515   */\n      swap2\n      swap1\n      pop\n      jump\t// out\n        /* \"#utility.yul\":1521:1629   */\n    tag_238:\n        /* \"#utility.yul\":1598:1622   */\n      tag_337\n        /* \"#utility.yul\":1616:1621   */\n      dup2\n        /* \"#utility.yul\":1598:1622   */\n      tag_237\n      jump\t// in\n    tag_337:\n        /* \"#utility.yul\":1593:1596   */\n      dup3\n        /* \"#utility.yul\":1586:1623   */\n      mstore\n        /* \"#utility.yul\":1521:1629   */\n      pop\n      pop\n      jump\t// out\n        /* \"#utility.yul\":1677:3234   */\n    tag_239:\n        /* \"#utility.yul\":1796:1799   */\n      0x00\n        /* \"#utility.yul\":1832:1836   */\n      0xe0\n        /* \"#utility.yul\":1827:1830   */\n      dup4\n        /* \"#utility.yul\":1823:1837   */\n      add\n        /* \"#utility.yul\":1920:1924   */\n      0x00\n        /* \"#utility.yul\":1913:1918   */\n      dup4\n        /* \"#utility.yul\":1909:1925   */\n      add\n        /* \"#utility.yul\":1903:1926   */\n      mload\n        /* \"#utility.yul\":1939:2002   */\n      tag_339\n        /* \"#utility.yul\":1996:2000   */\n      0x00\n        /* \"#utility.yul\":1991:1994   */\n      dup7\n        /* \"#utility.yul\":1987:2001   */\n      add\n        /* \"#utility.yul\":1973:1985   */\n      dup3\n        /* \"#utility.yul\":1939:2002   */\n      tag_229\n      jump\t// in\n    tag_339:\n        /* \"#utility.yul\":1847:2012   */\n      pop\n        /* \"#utility.yul\":2094:2098   */\n      0x20\n        /* \"#utility.yul\":2087:2092   */\n      dup4\n        /* \"#utility.yul\":2083:2099   */\n      add\n        /* \"#utility.yul\":2077:2100   */\n      mload\n        /* \"#utility.yul\":2147:2150   */\n      dup5\n        /* \"#utility.yul\":2141:2145   */\n      dup3\n        /* \"#utility.yul\":2137:2151   */\n      sub\n        /* \"#utility.yul\":2130:2134   */\n      0x20\n        /* \"#utility.yul\":2125:2128   */\n      dup7\n        /* \"#utility.yul\":2121:2135   */\n      add\n        /* \"#utility.yul\":2114:2152   */\n      mstore\n        /* \"#utility.yul\":2173:2246   */\n      tag_340\n        /* \"#utility.yul\":2241:2245   */\n      dup3\n        /* \"#utility.yul\":2227:2239   */\n      dup3\n        /* \"#utility.yul\":2173:2246   */\n      tag_234\n      jump\t// in\n    tag_340:\n        /* \"#utility.yul\":2165:2246   */\n      swap2\n      pop\n        /* \"#utility.yul\":2022:2257   */\n      pop\n        /* \"#utility.yul\":2338:2342   */\n      0x40\n        /* \"#utility.yul\":2331:2336   */\n      dup4\n        /* \"#utility.yul\":2327:2343   */\n      add\n        /* \"#utility.yul\":2321:2344   */\n      mload\n        /* \"#utility.yul\":2391:2394   */\n      dup5\n        /* \"#utility.yul\":2385:2389   */\n      dup3\n        /* \"#utility.yul\":2381:2395   */\n      sub\n        /* \"#utility.yul\":2374:2378   */\n      0x40\n        /* \"#utility.yul\":2369:2372   */\n      dup7\n        /* \"#utility.yul\":2365:2379   */\n      add\n        /* \"#utility.yul\":2358:2396   */\n      mstore\n        /* \"#utility.yul\":2417:2490   */\n      tag_341\n        /* \"#utility.yul\":2485:2489   */\n      dup3\n        /* \"#utility.yul\":2471:2483   */\n      dup3\n        /* \"#utility.yul\":2417:2490   */\n      tag_234\n      jump\t// in\n    tag_341:\n        /* \"#utility.yul\":2409:2490   */\n      swap2\n      pop\n        /* \"#utility.yul\":2267:2501   */\n      pop\n        /* \"#utility.yul\":2588:2592   */\n      0x60\n        /* \"#utility.yul\":2581:2586   */\n      dup4\n        /* \"#utility.yul\":2577:2593   */\n      add\n        /* \"#utility.yul\":2571:2594   */\n      mload\n        /* \"#utility.yul\":2607:2670   */\n      tag_342\n        /* \"#utility.yul\":2664:2668   */\n      0x60\n        /* \"#utility.yul\":2659:2662   */\n      dup7\n        /* \"#utility.yul\":2655:2669   */\n      add\n        /* \"#utility.yul\":2641:2653   */\n      dup3\n        /* \"#utility.yul\":2607:2670   */\n      tag_236\n      jump\t// in\n    tag_342:\n        /* \"#utility.yul\":2511:2680   */\n      pop\n        /* \"#utility.yul\":2763:2767   */\n      0x80\n        /* \"#utility.yul\":2756:2761   */\n      dup4\n        /* \"#utility.yul\":2752:2768   */\n      add\n        /* \"#utility.yul\":2746:2769   */\n      mload\n        /* \"#utility.yul\":2782:2845   */\n      tag_343\n        /* \"#utility.yul\":2839:2843   */\n      0x80\n        /* \"#utility.yul\":2834:2837   */\n      dup7\n        /* \"#utility.yul\":2830:2844   */\n      add\n        /* \"#utility.yul\":2816:2828   */\n      dup3\n        /* \"#utility.yul\":2782:2845   */\n      tag_236\n      jump\t// in\n    tag_343:\n        /* \"#utility.yul\":2690:2855   */\n      pop\n        /* \"#utility.yul\":2935:2939   */\n      0xa0\n        /* \"#utility.yul\":2928:2933   */\n      dup4\n        /* \"#utility.yul\":2924:2940   */\n      add\n        /* \"#utility.yul\":2918:2941   */\n      mload\n        /* \"#utility.yul\":2954:3017   */\n      tag_344\n        /* \"#utility.yul\":3011:3015   */\n      0xa0\n        /* \"#utility.yul\":3006:3009   */\n      dup7\n        /* \"#utility.yul\":3002:3016   */\n      add\n        /* \"#utility.yul\":2988:3000   */\n      dup3\n        /* \"#utility.yul\":2954:3017   */\n      tag_236\n      jump\t// in\n    tag_344:\n        /* \"#utility.yul\":2865:3027   */\n      pop\n        /* \"#utility.yul\":3115:3119   */\n      0xc0\n        /* \"#utility.yul\":3108:3113   */\n      dup4\n        /* \"#utility.yul\":3104:3120   */\n      add\n        /* \"#utility.yul\":3098:3121   */\n      mload\n        /* \"#utility.yul\":3134:3197   */\n      tag_345\n        /* \"#utility.yul\":3191:3195   */\n      0xc0\n        /* \"#utility.yul\":3186:3189   */\n      dup7\n        /* \"#utility.yul\":3182:3196   */\n      add\n        /* \"#utility.yul\":3168:3180   */\n      dup3\n        /* \"#utility.yul\":3134:3197   */\n      tag_238\n      jump\t// in\n    tag_345:\n        /* \"#utility.yul\":3037:3207   */\n      pop\n        /* \"#utility.yul\":3224:3228   */\n      dup1\n        /* \"#utility.yul\":3217:3228   */\n      swap2\n      pop\n        /* \"#utility.yul\":1801:3234   */\n      pop\n        /* \"#utility.yul\":1677:3234   */\n      swap3\n      swap2\n      pop\n      pop\n      jump\t// out\n        /* \"#utility.yul\":3240:3613   */\n    tag_16:\n        /* \"#utility.yul\":3383:3387   */\n      0x00\n        /* \"#utility.yul\":3421:3423   */\n      0x20\n        /* \"#utility.yul\":3410:3419   */\n      dup3\n        /* \"#utility.yul\":3406:3424   */\n      add\n        /* \"#utility.yul\":3398:3424   */\n      swap1\n      pop\n        /* \"#utility.yul\":3470:3479   */\n      dup2\n        /* \"#utility.yul\":3464:3468   */\n      dup2\n        /* \"#utility.yul\":3460:3480   */\n      sub\n        /* \"#utility.yul\":3456:3457   */\n      0x00\n        /* \"#utility.yul\":3445:3454   */\n      dup4\n        /* \"#utility.yul\":3441:3458   */\n      add\n        /* \"#utility.yul\":3434:3481   */\n      mstore\n        /* \"#utility.yul\":3498:3606   */\n      tag_347\n        /* \"#utility.yul\":3601:3605   */\n      dup2\n        /* \"#utility.yul\":3592:3598   */\n      dup5\n        /* \"#utility.yul\":3498:3606   */\n      tag_239\n      jump\t// in\n    tag_347:\n        /* \"#utility.yul\":3490:3606   */\n      swap1\n      pop\n        /* \"#utility.yul\":3240:3613   */\n      swap3\n      swap2\n      pop\n      pop\n      jump\t// out\n        /* \"#utility.yul\":3619:3694   */\n    tag_240:\n        /* \"#utility.yul\":3652:3658   */\n      0x00\n        /* \"#utility.yul\":3685:3687   */\n      0x40\n        /* \"#utility.yul\":3679:3688   */\n      mload\n        /* \"#utility.yul\":3669:3688   */\n      swap1\n      pop\n        /* \"#utility.yul\":3619:3694   */\n      swap1\n      jump\t// out\n        /* \"#utility.yul\":3700:3817   */\n    tag_241:\n        /* \"#utility.yul\":3809:3810   */\n      0x00\n        /* \"#utility.yul\":3806:3807   */\n      dup1\n        /* \"#utility.yul\":3799:3811   */\n      revert\n        /* \"#utility.yul\":3823:3940   */\n    tag_242:\n        /* \"#utility.yul\":3932:3933   */\n      0x00\n        /* \"#utility.yul\":3929:3930   */\n      dup1\n        /* \"#utility.yul\":3922:3934   */\n      revert\n        /* \"#utility.yul\":3946:4063   */\n    tag_243:\n        /* \"#utility.yul\":4055:4056   */\n      0x00\n        /* \"#utility.yul\":4052:4053   */\n      dup1\n        /* \"#utility.yul\":4045:4057   */\n      revert\n        /* \"#utility.yul\":4069:4186   */\n    tag_244:\n        /* \"#utility.yul\":4178:4179   */\n      0x00\n        /* \"#utility.yul\":4175:4176   */\n      dup1\n        /* \"#utility.yul\":4168:4180   */\n      revert\n        /* \"#utility.yul\":4192:4372   */\n    tag_245:\n        /* \"#utility.yul\":4240:4317   */\n      0x4e487b7100000000000000000000000000000000000000000000000000000000\n        /* \"#utility.yul\":4237:4238   */\n      0x00\n        /* \"#utility.yul\":4230:4318   */\n      mstore\n        /* \"#utility.yul\":4337:4341   */\n      0x41\n        /* \"#utility.yul\":4334:4335   */\n      0x04\n        /* \"#utility.yul\":4327:4342   */\n      mstore\n        /* \"#utility.yul\":4361:4365   */\n      0x24\n        /* \"#utility.yul\":4358:4359   */\n      0x00\n        /* \"#utility.yul\":4351:4366   */\n      revert\n        /* \"#utility.yul\":4378:4659   */\n    tag_246:\n        /* \"#utility.yul\":4461:4488   */\n      tag_355\n        /* \"#utility.yul\":4483:4487   */\n      dup3\n        /* \"#utility.yul\":4461:4488   */\n      tag_233\n      jump\t// in\n    tag_355:\n        /* \"#utility.yul\":4453:4459   */\n      dup2\n        /* \"#utility.yul\":4449:4489   */\n      add\n        /* \"#utility.yul\":4591:4597   */\n      dup2\n        /* \"#utility.yul\":4579:4589   */\n      dup2\n        /* \"#utility.yul\":4576:4598   */\n      lt\n        /* \"#utility.yul\":4555:4573   */\n      0xffffffffffffffff\n        /* \"#utility.yul\":4543:4553   */\n      dup3\n        /* \"#utility.yul\":4540:4574   */\n      gt\n        /* \"#utility.yul\":4537:4599   */\n      or\n        /* \"#utility.yul\":4534:4622   */\n      iszero\n      tag_356\n      jumpi\n        /* \"#utility.yul\":4602:4620   */\n      tag_357\n      tag_245\n      jump\t// in\n    tag_357:\n        /* \"#utility.yul\":4534:4622   */\n    tag_356:\n        /* \"#utility.yul\":4642:4652   */\n      dup1\n        /* \"#utility.yul\":4638:4640   */\n      0x40\n        /* \"#utility.yul\":4631:4653   */\n      mstore\n        /* \"#utility.yul\":4421:4659   */\n      pop\n        /* \"#utility.yul\":4378:4659   */\n      pop\n      pop\n      jump\t// out\n        /* \"#utility.yul\":4665:4794   */\n    tag_247:\n        /* \"#utility.yul\":4699:4705   */\n      0x00\n        /* \"#utility.yul\":4726:4746   */\n      tag_359\n      tag_240\n      jump\t// in\n    tag_359:\n        /* \"#utility.yul\":4716:4746   */\n      swap1\n      pop\n        /* \"#utility.yul\":4755:4788   */\n      tag_360\n        /* \"#utility.yul\":4783:4787   */\n      dup3\n        /* \"#utility.yul\":4775:4781   */\n      dup3\n        /* \"#utility.yul\":4755:4788   */\n      tag_246\n      jump\t// in\n    tag_360:\n        /* \"#utility.yul\":4665:4794   */\n      swap2\n      swap1\n      pop\n      jump\t// out\n        /* \"#utility.yul\":4800:5108   */\n    tag_248:\n        /* \"#utility.yul\":4862:4866   */\n      0x00\n        /* \"#utility.yul\":4952:4970   */\n      0xffffffffffffffff\n        /* \"#utility.yul\":4944:4950   */\n      dup3\n        /* \"#utility.yul\":4941:4971   */\n      gt\n        /* \"#utility.yul\":4938:4994   */\n      iszero\n      tag_362\n      jumpi\n        /* \"#utility.yul\":4974:4992   */\n      tag_363\n      tag_245\n      jump\t// in\n    tag_363:\n        /* \"#utility.yul\":4938:4994   */\n    tag_362:\n        /* \"#utility.yul\":5012:5041   */\n      tag_364\n        /* \"#utility.yul\":5034:5040   */\n      dup3\n        /* \"#utility.yul\":5012:5041   */\n      tag_233\n      jump\t// in\n    tag_364:\n        /* \"#utility.yul\":5004:5041   */\n      swap1\n      pop\n        /* \"#utility.yul\":5096:5100   */\n      0x20\n        /* \"#utility.yul\":5090:5094   */\n      dup2\n        /* \"#utility.yul\":5086:5101   */\n      add\n        /* \"#utility.yul\":5078:5101   */\n      swap1\n      pop\n        /* \"#utility.yul\":4800:5108   */\n      swap2\n      swap1\n      pop\n      jump\t// out\n        /* \"#utility.yul\":5114:5262   */\n    tag_249:\n        /* \"#utility.yul\":5212:5218   */\n      dup3\n        /* \"#utility.yul\":5207:5210   */\n      dup2\n        /* \"#utility.yul\":5202:5205   */\n      dup4\n        /* \"#utility.yul\":5189:5219   */\n      calldatacopy\n        /* \"#utility.yul\":5253:5254   */\n      0x00\n        /* \"#utility.yul\":5244:5250   */\n      dup4\n        /* \"#utility.yul\":5239:5242   */\n      dup4\n        /* \"#utility.yul\":5235:5251   */\n      add\n        /* \"#utility.yul\":5228:5255   */\n      mstore\n        /* \"#utility.yul\":5114:5262   */\n      pop\n      pop\n      pop\n      jump\t// out\n        /* \"#utility.yul\":5268:5693   */\n    tag_250:\n        /* \"#utility.yul\":5346:5351   */\n      0x00\n        /* \"#utility.yul\":5371:5437   */\n      tag_367\n        /* \"#utility.yul\":5387:5436   */\n      tag_368\n        /* \"#utility.yul\":5429:5435   */\n      dup5\n        /* \"#utility.yul\":5387:5436   */\n      tag_248\n      jump\t// in\n    tag_368:\n        /* \"#utility.yul\":5371:5437   */\n      tag_247\n      jump\t// in\n    tag_367:\n        /* \"#utility.yul\":5362:5437   */\n      swap1\n      pop\n        /* \"#utility.yul\":5460:5466   */\n      dup3\n        /* \"#utility.yul\":5453:5458   */\n      dup2\n        /* \"#utility.yul\":5446:5467   */\n      mstore\n        /* \"#utility.yul\":5498:5502   */\n      0x20\n        /* \"#utility.yul\":5491:5496   */\n      dup2\n        /* \"#utility.yul\":5487:5503   */\n      add\n        /* \"#utility.yul\":5536:5539   */\n      dup5\n        /* \"#utility.yul\":5527:5533   */\n      dup5\n        /* \"#utility.yul\":5522:5525   */\n      dup5\n        /* \"#utility.yul\":5518:5534   */\n      add\n        /* \"#utility.yul\":5515:5540   */\n      gt\n        /* \"#utility.yul\":5512:5624   */\n      iszero\n      tag_369\n      jumpi\n        /* \"#utility.yul\":5543:5622   */\n      tag_370\n      tag_244\n      jump\t// in\n    tag_370:\n        /* \"#utility.yul\":5512:5624   */\n    tag_369:\n        /* \"#utility.yul\":5633:5687   */\n      tag_371\n        /* \"#utility.yul\":5680:5686   */\n      dup5\n        /* \"#utility.yul\":5675:5678   */\n      dup3\n        /* \"#utility.yul\":5670:5673   */\n      dup6\n        /* \"#utility.yul\":5633:5687   */\n      tag_249\n      jump\t// in\n    tag_371:\n        /* \"#utility.yul\":5352:5693   */\n      pop\n        /* \"#utility.yul\":5268:5693   */\n      swap4\n      swap3\n      pop\n      pop\n      pop\n      jump\t// out\n        /* \"#utility.yul\":5713:6053   */\n    tag_251:\n        /* \"#utility.yul\":5769:5774   */\n      0x00\n        /* \"#utility.yul\":5818:5821   */\n      dup3\n        /* \"#utility.yul\":5811:5815   */\n      0x1f\n        /* \"#utility.yul\":5803:5809   */\n      dup4\n        /* \"#utility.yul\":5799:5816   */\n      add\n        /* \"#utility.yul\":5795:5822   */\n      slt\n        /* \"#utility.yul\":5785:5907   */\n      tag_373\n      jumpi\n        /* \"#utility.yul\":5826:5905   */\n      tag_374\n      tag_243\n      jump\t// in\n    tag_374:\n        /* \"#utility.yul\":5785:5907   */\n    tag_373:\n        /* \"#utility.yul\":5943:5949   */\n      dup2\n        /* \"#utility.yul\":5930:5950   */\n      calldataload\n        /* \"#utility.yul\":5968:6047   */\n      tag_375\n        /* \"#utility.yul\":6043:6046   */\n      dup5\n        /* \"#utility.yul\":6035:6041   */\n      dup3\n        /* \"#utility.yul\":6028:6032   */\n      0x20\n        /* \"#utility.yul\":6020:6026   */\n      dup7\n        /* \"#utility.yul\":6016:6033   */\n      add\n        /* \"#utility.yul\":5968:6047   */\n      tag_250\n      jump\t// in\n    tag_375:\n        /* \"#utility.yul\":5959:6047   */\n      swap2\n      pop\n        /* \"#utility.yul\":5775:6053   */\n      pop\n        /* \"#utility.yul\":5713:6053   */\n      swap3\n      swap2\n      pop\n      pop\n      jump\t// out\n        /* \"#utility.yul\":6059:6893   */\n    tag_19:\n        /* \"#utility.yul\":6147:6153   */\n      0x00\n        /* \"#utility.yul\":6155:6161   */\n      dup1\n        /* \"#utility.yul\":6204:6206   */\n      0x40\n        /* \"#utility.yul\":6192:6201   */\n      dup4\n        /* \"#utility.yul\":6183:6190   */\n      dup6\n        /* \"#utility.yul\":6179:6202   */\n      sub\n        /* \"#utility.yul\":6175:6207   */\n      slt\n        /* \"#utility.yul\":6172:6291   */\n      iszero\n      tag_377\n      jumpi\n        /* \"#utility.yul\":6210:6289   */\n      tag_378\n      tag_241\n      jump\t// in\n    tag_378:\n        /* \"#utility.yul\":6172:6291   */\n    tag_377:\n        /* \"#utility.yul\":6358:6359   */\n      0x00\n        /* \"#utility.yul\":6347:6356   */\n      dup4\n        /* \"#utility.yul\":6343:6360   */\n      add\n        /* \"#utility.yul\":6330:6361   */\n      calldataload\n        /* \"#utility.yul\":6388:6406   */\n      0xffffffffffffffff\n        /* \"#utility.yul\":6380:6386   */\n      dup2\n        /* \"#utility.yul\":6377:6407   */\n      gt\n        /* \"#utility.yul\":6374:6491   */\n      iszero\n      tag_379\n      jumpi\n        /* \"#utility.yul\":6410:6489   */\n      tag_380\n      tag_242\n      jump\t// in\n    tag_380:\n        /* \"#utility.yul\":6374:6491   */\n    tag_379:\n        /* \"#utility.yul\":6515:6578   */\n      tag_381\n        /* \"#utility.yul\":6570:6577   */\n      dup6\n        /* \"#utility.yul\":6561:6567   */\n      dup3\n        /* \"#utility.yul\":6550:6559   */\n      dup7\n        /* \"#utility.yul\":6546:6568   */\n      add\n        /* \"#utility.yul\":6515:6578   */\n      tag_251\n      jump\t// in\n    tag_381:\n        /* \"#utility.yul\":6505:6578   */\n      swap3\n      pop\n        /* \"#utility.yul\":6301:6588   */\n      pop\n        /* \"#utility.yul\":6655:6657   */\n      0x20\n        /* \"#utility.yul\":6644:6653   */\n      dup4\n        /* \"#utility.yul\":6640:6658   */\n      add\n        /* \"#utility.yul\":6627:6659   */\n      calldataload\n        /* \"#utility.yul\":6686:6704   */\n      0xffffffffffffffff\n        /* \"#utility.yul\":6678:6684   */\n      dup2\n        /* \"#utility.yul\":6675:6705   */\n      gt\n        /* \"#utility.yul\":6672:6789   */\n      iszero\n      tag_382\n      jumpi\n        /* \"#utility.yul\":6708:6787   */\n      tag_383\n      tag_242\n      jump\t// in\n    tag_383:\n        /* \"#utility.yul\":6672:6789   */\n    tag_382:\n        /* \"#utility.yul\":6813:6876   */\n      tag_384\n        /* \"#utility.yul\":6868:6875   */\n      dup6\n        /* \"#utility.yul\":6859:6865   */\n      dup3\n        /* \"#utility.yul\":6848:6857   */\n      dup7\n        /* \"#utility.yul\":6844:6866   */\n      add\n        /* \"#utility.yul\":6813:6876   */\n      tag_251\n      jump\t// in\n    tag_384:\n        /* \"#utility.yul\":6803:6876   */\n      swap2\n      pop\n        /* \"#utility.yul\":6598:6886   */\n      pop\n        /* \"#utility.yul\":6059:6893   */\n      swap3\n      pop\n      swap3\n      swap1\n      pop\n      jump\t// out\n        /* \"#utility.yul\":6899:7017   */\n    tag_252:\n        /* \"#utility.yul\":6986:7010   */\n      tag_386\n        /* \"#utility.yul\":7004:7009   */\n      dup2\n        /* \"#utility.yul\":6986:7010   */\n      tag_228\n      jump\t// in\n    tag_386:\n        /* \"#utility.yul\":6981:6984   */\n      dup3\n        /* \"#utility.yul\":6974:7011   */\n      mstore\n        /* \"#utility.yul\":6899:7017   */\n      pop\n      pop\n      jump\t// out\n        /* \"#utility.yul\":7023:7245   */\n    tag_30:\n        /* \"#utility.yul\":7116:7120   */\n      0x00\n        /* \"#utility.yul\":7154:7156   */\n      0x20\n        /* \"#utility.yul\":7143:7152   */\n      dup3\n        /* \"#utility.yul\":7139:7157   */\n      add\n        /* \"#utility.yul\":7131:7157   */\n      swap1\n      pop\n        /* \"#utility.yul\":7167:7238   */\n      tag_388\n        /* \"#utility.yul\":7235:7236   */\n      0x00\n        /* \"#utility.yul\":7224:7233   */\n      dup4\n        /* \"#utility.yul\":7220:7237   */\n      add\n        /* \"#utility.yul\":7211:7217   */\n      dup5\n        /* \"#utility.yul\":7167:7238   */\n      tag_252\n      jump\t// in\n    tag_388:\n        /* \"#utility.yul\":7023:7245   */\n      swap3\n      swap2\n      pop\n      pop\n      jump\t// out\n        /* \"#utility.yul\":7251:7390   */\n    tag_253:\n        /* \"#utility.yul\":7343:7349   */\n      0x00\n        /* \"#utility.yul\":7377:7382   */\n      dup2\n        /* \"#utility.yul\":7371:7383   */\n      mload\n        /* \"#utility.yul\":7361:7383   */\n      swap1\n      pop\n        /* \"#utility.yul\":7251:7390   */\n      swap2\n      swap1\n      pop\n      jump\t// out\n        /* \"#utility.yul\":7396:7605   */\n    tag_254:\n        /* \"#utility.yul\":7520:7531   */\n      0x00\n        /* \"#utility.yul\":7554:7560   */\n      dup3\n        /* \"#utility.yul\":7549:7552   */\n      dup3\n        /* \"#utility.yul\":7542:7561   */\n      mstore\n        /* \"#utility.yul\":7594:7598   */\n      0x20\n        /* \"#utility.yul\":7589:7592   */\n      dup3\n        /* \"#utility.yul\":7585:7599   */\n      add\n        /* \"#utility.yul\":7570:7599   */\n      swap1\n      pop\n        /* \"#utility.yul\":7396:7605   */\n      swap3\n      swap2\n      pop\n      pop\n      jump\t// out\n        /* \"#utility.yul\":7611:7768   */\n    tag_255:\n        /* \"#utility.yul\":7703:7707   */\n      0x00\n        /* \"#utility.yul\":7726:7729   */\n      dup2\n        /* \"#utility.yul\":7718:7729   */\n      swap1\n      pop\n        /* \"#utility.yul\":7756:7760   */\n      0x20\n        /* \"#utility.yul\":7751:7754   */\n      dup3\n        /* \"#utility.yul\":7747:7761   */\n      add\n        /* \"#utility.yul\":7739:7761   */\n      swap1\n      pop\n        /* \"#utility.yul\":7611:7768   */\n      swap2\n      swap1\n      pop\n      jump\t// out\n        /* \"#utility.yul\":7816:9363   */\n    tag_256:\n        /* \"#utility.yul\":7925:7928   */\n      0x00\n        /* \"#utility.yul\":7961:7965   */\n      0xe0\n        /* \"#utility.yul\":7956:7959   */\n      dup4\n        /* \"#utility.yul\":7952:7966   */\n      add\n        /* \"#utility.yul\":8049:8053   */\n      0x00\n        /* \"#utility.yul\":8042:8047   */\n      dup4\n        /* \"#utility.yul\":8038:8054   */\n      add\n        /* \"#utility.yul\":8032:8055   */\n      mload\n        /* \"#utility.yul\":8068:8131   */\n      tag_393\n        /* \"#utility.yul\":8125:8129   */\n      0x00\n        /* \"#utility.yul\":8120:8123   */\n      dup7\n        /* \"#utility.yul\":8116:8130   */\n      add\n        /* \"#utility.yul\":8102:8114   */\n      dup3\n        /* \"#utility.yul\":8068:8131   */\n      tag_229\n      jump\t// in\n    tag_393:\n        /* \"#utility.yul\":7976:8141   */\n      pop\n        /* \"#utility.yul\":8223:8227   */\n      0x20\n        /* \"#utility.yul\":8216:8221   */\n      dup4\n        /* \"#utility.yul\":8212:8228   */\n      add\n        /* \"#utility.yul\":8206:8229   */\n      mload\n        /* \"#utility.yul\":8276:8279   */\n      dup5\n        /* \"#utility.yul\":8270:8274   */\n      dup3\n        /* \"#utility.yul\":8266:8280   */\n      sub\n        /* \"#utility.yul\":8259:8263   */\n      0x20\n        /* \"#utility.yul\":8254:8257   */\n      dup7\n        /* \"#utility.yul\":8250:8264   */\n      add\n        /* \"#utility.yul\":8243:8281   */\n      mstore\n        /* \"#utility.yul\":8302:8375   */\n      tag_394\n        /* \"#utility.yul\":8370:8374   */\n      dup3\n        /* \"#utility.yul\":8356:8368   */\n      dup3\n        /* \"#utility.yul\":8302:8375   */\n      tag_234\n      jump\t// in\n    tag_394:\n        /* \"#utility.yul\":8294:8375   */\n      swap2\n      pop\n        /* \"#utility.yul\":8151:8386   */\n      pop\n        /* \"#utility.yul\":8467:8471   */\n      0x40\n        /* \"#utility.yul\":8460:8465   */\n      dup4\n        /* \"#utility.yul\":8456:8472   */\n      add\n        /* \"#utility.yul\":8450:8473   */\n      mload\n        /* \"#utility.yul\":8520:8523   */\n      dup5\n        /* \"#utility.yul\":8514:8518   */\n      dup3\n        /* \"#utility.yul\":8510:8524   */\n      sub\n        /* \"#utility.yul\":8503:8507   */\n      0x40\n        /* \"#utility.yul\":8498:8501   */\n      dup7\n        /* \"#utility.yul\":8494:8508   */\n      add\n        /* \"#utility.yul\":8487:8525   */\n      mstore\n        /* \"#utility.yul\":8546:8619   */\n      tag_395\n        /* \"#utility.yul\":8614:8618   */\n      dup3\n        /* \"#utility.yul\":8600:8612   */\n      dup3\n        /* \"#utility.yul\":8546:8619   */\n      tag_234\n      jump\t// in\n    tag_395:\n        /* \"#utility.yul\":8538:8619   */\n      swap2\n      pop\n        /* \"#utility.yul\":8396:8630   */\n      pop\n        /* \"#utility.yul\":8717:8721   */\n      0x60\n        /* \"#utility.yul\":8710:8715   */\n      dup4\n        /* \"#utility.yul\":8706:8722   */\n      add\n        /* \"#utility.yul\":8700:8723   */\n      mload\n        /* \"#utility.yul\":8736:8799   */\n      tag_396\n        /* \"#utility.yul\":8793:8797   */\n      0x60\n        /* \"#utility.yul\":8788:8791   */\n      dup7\n        /* \"#utility.yul\":8784:8798   */\n      add\n        /* \"#utility.yul\":8770:8782   */\n      dup3\n        /* \"#utility.yul\":8736:8799   */\n      tag_236\n      jump\t// in\n    tag_396:\n        /* \"#utility.yul\":8640:8809   */\n      pop\n        /* \"#utility.yul\":8892:8896   */\n      0x80\n        /* \"#utility.yul\":8885:8890   */\n      dup4\n        /* \"#utility.yul\":8881:8897   */\n      add\n        /* \"#utility.yul\":8875:8898   */\n      mload\n        /* \"#utility.yul\":8911:8974   */\n      tag_397\n        /* \"#utility.yul\":8968:8972   */\n      0x80\n        /* \"#utility.yul\":8963:8966   */\n      dup7\n        /* \"#utility.yul\":8959:8973   */\n      add\n        /* \"#utility.yul\":8945:8957   */\n      dup3\n        /* \"#utility.yul\":8911:8974   */\n      tag_236\n      jump\t// in\n    tag_397:\n        /* \"#utility.yul\":8819:8984   */\n      pop\n        /* \"#utility.yul\":9064:9068   */\n      0xa0\n        /* \"#utility.yul\":9057:9062   */\n      dup4\n        /* \"#utility.yul\":9053:9069   */\n      add\n        /* \"#utility.yul\":9047:9070   */\n      mload\n        /* \"#utility.yul\":9083:9146   */\n      tag_398\n        /* \"#utility.yul\":9140:9144   */\n      0xa0\n        /* \"#utility.yul\":9135:9138   */\n      dup7\n        /* \"#utility.yul\":9131:9145   */\n      add\n        /* \"#utility.yul\":9117:9129   */\n      dup3\n        /* \"#utility.yul\":9083:9146   */\n      tag_236\n      jump\t// in\n    tag_398:\n        /* \"#utility.yul\":8994:9156   */\n      pop\n        /* \"#utility.yul\":9244:9248   */\n      0xc0\n        /* \"#utility.yul\":9237:9242   */\n      dup4\n        /* \"#utility.yul\":9233:9249   */\n      add\n        /* \"#utility.yul\":9227:9250   */\n      mload\n        /* \"#utility.yul\":9263:9326   */\n      tag_399\n        /* \"#utility.yul\":9320:9324   */\n      0xc0\n        /* \"#utility.yul\":9315:9318   */\n      dup7\n        /* \"#utility.yul\":9311:9325   */\n      add\n        /* \"#utility.yul\":9297:9309   */\n      dup3\n        /* \"#utility.yul\":9263:9326   */\n      tag_238\n      jump\t// in\n    tag_399:\n        /* \"#utility.yul\":9166:9336   */\n      pop\n        /* \"#utility.yul\":9353:9357   */\n      dup1\n        /* \"#utility.yul\":9346:9357   */\n      swap2\n      pop\n        /* \"#utility.yul\":7930:9363   */\n      pop\n        /* \"#utility.yul\":7816:9363   */\n      swap3\n      swap2\n      pop\n      pop\n      jump\t// out\n        /* \"#utility.yul\":9369:9625   */\n    tag_257:\n        /* \"#utility.yul\":9488:9498   */\n      0x00\n        /* \"#utility.yul\":9523:9619   */\n      tag_401\n        /* \"#utility.yul\":9615:9618   */\n      dup4\n        /* \"#utility.yul\":9607:9613   */\n      dup4\n        /* \"#utility.yul\":9523:9619   */\n      tag_256\n      jump\t// in\n    tag_401:\n        /* \"#utility.yul\":9509:9619   */\n      swap1\n      pop\n        /* \"#utility.yul\":9369:9625   */\n      swap3\n      swap2\n      pop\n      pop\n      jump\t// out\n        /* \"#utility.yul\":9631:9769   */\n    tag_258:\n        /* \"#utility.yul\":9726:9730   */\n      0x00\n        /* \"#utility.yul\":9758:9762   */\n      0x20\n        /* \"#utility.yul\":9753:9756   */\n      dup3\n        /* \"#utility.yul\":9749:9763   */\n      add\n        /* \"#utility.yul\":9741:9763   */\n      swap1\n      pop\n        /* \"#utility.yul\":9631:9769   */\n      swap2\n      swap1\n      pop\n      jump\t// out\n        /* \"#utility.yul\":9821:10932   */\n    tag_259:\n        /* \"#utility.yul\":9990:9993   */\n      0x00\n        /* \"#utility.yul\":10019:10098   */\n      tag_404\n        /* \"#utility.yul\":10092:10097   */\n      dup3\n        /* \"#utility.yul\":10019:10098   */\n      tag_253\n      jump\t// in\n    tag_404:\n        /* \"#utility.yul\":10114:10225   */\n      tag_405\n        /* \"#utility.yul\":10218:10224   */\n      dup2\n        /* \"#utility.yul\":10213:10216   */\n      dup6\n        /* \"#utility.yul\":10114:10225   */\n      tag_254\n      jump\t// in\n    tag_405:\n        /* \"#utility.yul\":10107:10225   */\n      swap4\n      pop\n        /* \"#utility.yul\":10251:10254   */\n      dup4\n        /* \"#utility.yul\":10296:10300   */\n      0x20\n        /* \"#utility.yul\":10288:10294   */\n      dup3\n        /* \"#utility.yul\":10284:10301   */\n      mul\n        /* \"#utility.yul\":10279:10282   */\n      dup6\n        /* \"#utility.yul\":10275:10302   */\n      add\n        /* \"#utility.yul\":10326:10407   */\n      tag_406\n        /* \"#utility.yul\":10401:10406   */\n      dup6\n        /* \"#utility.yul\":10326:10407   */\n      tag_255\n      jump\t// in\n    tag_406:\n        /* \"#utility.yul\":10430:10437   */\n      dup1\n        /* \"#utility.yul\":10461:10462   */\n      0x00\n        /* \"#utility.yul\":10446:10887   */\n    tag_407:\n        /* \"#utility.yul\":10471:10477   */\n      dup6\n        /* \"#utility.yul\":10468:10469   */\n      dup2\n        /* \"#utility.yul\":10465:10478   */\n      lt\n        /* \"#utility.yul\":10446:10887   */\n      iszero\n      tag_409\n      jumpi\n        /* \"#utility.yul\":10542:10551   */\n      dup5\n        /* \"#utility.yul\":10536:10540   */\n      dup5\n        /* \"#utility.yul\":10532:10552   */\n      sub\n        /* \"#utility.yul\":10527:10530   */\n      dup10\n        /* \"#utility.yul\":10520:10553   */\n      mstore\n        /* \"#utility.yul\":10593:10599   */\n      dup2\n        /* \"#utility.yul\":10587:10600   */\n      mload\n        /* \"#utility.yul\":10621:10735   */\n      tag_410\n        /* \"#utility.yul\":10730:10734   */\n      dup6\n        /* \"#utility.yul\":10715:10728   */\n      dup3\n        /* \"#utility.yul\":10621:10735   */\n      tag_257\n      jump\t// in\n    tag_410:\n        /* \"#utility.yul\":10613:10735   */\n      swap5\n      pop\n        /* \"#utility.yul\":10758:10843   */\n      tag_411\n        /* \"#utility.yul\":10836:10842   */\n      dup4\n        /* \"#utility.yul\":10758:10843   */\n      tag_258\n      jump\t// in\n    tag_411:\n        /* \"#utility.yul\":10748:10843   */\n      swap3\n      pop\n        /* \"#utility.yul\":10872:10876   */\n      0x20\n        /* \"#utility.yul\":10867:10870   */\n      dup11\n        /* \"#utility.yul\":10863:10877   */\n      add\n        /* \"#utility.yul\":10856:10877   */\n      swap10\n      pop\n        /* \"#utility.yul\":10506:10887   */\n      pop\n        /* \"#utility.yul\":10493:10494   */\n      0x01\n        /* \"#utility.yul\":10490:10491   */\n      dup2\n        /* \"#utility.yul\":10486:10495   */\n      add\n        /* \"#utility.yul\":10481:10495   */\n      swap1\n      pop\n        /* \"#utility.yul\":10446:10887   */\n      jump(tag_407)\n    tag_409:\n        /* \"#utility.yul\":10450:10464   */\n      pop\n        /* \"#utility.yul\":10903:10907   */\n      dup3\n        /* \"#utility.yul\":10896:10907   */\n      swap8\n      pop\n        /* \"#utility.yul\":10923:10926   */\n      dup8\n        /* \"#utility.yul\":10916:10926   */\n      swap6\n      pop\n        /* \"#utility.yul\":9995:10932   */\n      pop\n      pop\n      pop\n      pop\n      pop\n        /* \"#utility.yul\":9821:10932   */\n      swap3\n      swap2\n      pop\n      pop\n      jump\t// out\n        /* \"#utility.yul\":10938:11411   */\n    tag_34:\n        /* \"#utility.yul\":11131:11135   */\n      0x00\n        /* \"#utility.yul\":11169:11171   */\n      0x20\n        /* \"#utility.yul\":11158:11167   */\n      dup3\n        /* \"#utility.yul\":11154:11172   */\n      add\n        /* \"#utility.yul\":11146:11172   */\n      swap1\n      pop\n        /* \"#utility.yul\":11218:11227   */\n      dup2\n        /* \"#utility.yul\":11212:11216   */\n      dup2\n        /* \"#utility.yul\":11208:11228   */\n      sub\n        /* \"#utility.yul\":11204:11205   */\n      0x00\n        /* \"#utility.yul\":11193:11202   */\n      dup4\n        /* \"#utility.yul\":11189:11206   */\n      add\n        /* \"#utility.yul\":11182:11229   */\n      mstore\n        /* \"#utility.yul\":11246:11404   */\n      tag_413\n        /* \"#utility.yul\":11399:11403   */\n      dup2\n        /* \"#utility.yul\":11390:11396   */\n      dup5\n        /* \"#utility.yul\":11246:11404   */\n      tag_259\n      jump\t// in\n    tag_413:\n        /* \"#utility.yul\":11238:11404   */\n      swap1\n      pop\n        /* \"#utility.yul\":10938:11411   */\n      swap3\n      swap2\n      pop\n      pop\n      jump\t// out\n        /* \"#utility.yul\":11417:11539   */\n    tag_260:\n        /* \"#utility.yul\":11490:11514   */\n      tag_415\n        /* \"#utility.yul\":11508:11513   */\n      dup2\n        /* \"#utility.yul\":11490:11514   */\n      tag_235\n      jump\t// in\n    tag_415:\n        /* \"#utility.yul\":11483:11488   */\n      dup2\n        /* \"#utility.yul\":11480:11515   */\n      eq\n        /* \"#utility.yul\":11470:11533   */\n      tag_416\n      jumpi\n        /* \"#utility.yul\":11529:11530   */\n      0x00\n        /* \"#utility.yul\":11526:11527   */\n      dup1\n        /* \"#utility.yul\":11519:11531   */\n      revert\n        /* \"#utility.yul\":11470:11533   */\n    tag_416:\n        /* \"#utility.yul\":11417:11539   */\n      pop\n      jump\t// out\n        /* \"#utility.yul\":11545:11684   */\n    tag_261:\n        /* \"#utility.yul\":11591:11596   */\n      0x00\n        /* \"#utility.yul\":11629:11635   */\n      dup2\n        /* \"#utility.yul\":11616:11636   */\n      calldataload\n        /* \"#utility.yul\":11607:11636   */\n      swap1\n      pop\n        /* \"#utility.yul\":11645:11678   */\n      tag_418\n        /* \"#utility.yul\":11672:11677   */\n      dup2\n        /* \"#utility.yul\":11645:11678   */\n      tag_260\n      jump\t// in\n    tag_418:\n        /* \"#utility.yul\":11545:11684   */\n      swap3\n      swap2\n      pop\n      pop\n      jump\t// out\n        /* \"#utility.yul\":11690:12019   */\n    tag_37:\n        /* \"#utility.yul\":11749:11755   */\n      0x00\n        /* \"#utility.yul\":11798:11800   */\n      0x20\n        /* \"#utility.yul\":11786:11795   */\n      dup3\n        /* \"#utility.yul\":11777:11784   */\n      dup5\n        /* \"#utility.yul\":11773:11796   */\n      sub\n        /* \"#utility.yul\":11769:11801   */\n      slt\n        /* \"#utility.yul\":11766:11885   */\n      iszero\n      tag_420\n      jumpi\n        /* \"#utility.yul\":11804:11883   */\n      tag_421\n      tag_241\n      jump\t// in\n    tag_421:\n        /* \"#utility.yul\":11766:11885   */\n    tag_420:\n        /* \"#utility.yul\":11924:11925   */\n      0x00\n        /* \"#utility.yul\":11949:12002   */\n      tag_422\n        /* \"#utility.yul\":11994:12001   */\n      dup5\n        /* \"#utility.yul\":11985:11991   */\n      dup3\n        /* \"#utility.yul\":11974:11983   */\n      dup6\n        /* \"#utility.yul\":11970:11992   */\n      add\n        /* \"#utility.yul\":11949:12002   */\n      tag_261\n      jump\t// in\n    tag_422:\n        /* \"#utility.yul\":11939:12002   */\n      swap2\n      pop\n        /* \"#utility.yul\":11895:12012   */\n      pop\n        /* \"#utility.yul\":11690:12019   */\n      swap3\n      swap2\n      pop\n      pop\n      jump\t// out\n        /* \"#utility.yul\":12025:12147   */\n    tag_262:\n        /* \"#utility.yul\":12098:12122   */\n      tag_424\n        /* \"#utility.yul\":12116:12121   */\n      dup2\n        /* \"#utility.yul\":12098:12122   */\n      tag_228\n      jump\t// in\n    tag_424:\n        /* \"#utility.yul\":12091:12096   */\n      dup2\n        /* \"#utility.yul\":12088:12123   */\n      eq\n        /* \"#utility.yul\":12078:12141   */\n      tag_425\n      jumpi\n        /* \"#utility.yul\":12137:12138   */\n      0x00\n        /* \"#utility.yul\":12134:12135   */\n      dup1\n        /* \"#utility.yul\":12127:12139   */\n      revert\n        /* \"#utility.yul\":12078:12141   */\n    tag_425:\n        /* \"#utility.yul\":12025:12147   */\n      pop\n      jump\t// out\n        /* \"#utility.yul\":12153:12292   */\n    tag_263:\n        /* \"#utility.yul\":12199:12204   */\n      0x00\n        /* \"#utility.yul\":12237:12243   */\n      dup2\n        /* \"#utility.yul\":12224:12244   */\n      calldataload\n        /* \"#utility.yul\":12215:12244   */\n      swap1\n      pop\n        /* \"#utility.yul\":12253:12286   */\n      tag_427\n        /* \"#utility.yul\":12280:12285   */\n      dup2\n        /* \"#utility.yul\":12253:12286   */\n      tag_262\n      jump\t// in\n    tag_427:\n        /* \"#utility.yul\":12153:12292   */\n      swap3\n      swap2\n      pop\n      pop\n      jump\t// out\n        /* \"#utility.yul\":12298:12627   */\n    tag_44:\n        /* \"#utility.yul\":12357:12363   */\n      0x00\n        /* \"#utility.yul\":12406:12408   */\n      0x20\n        /* \"#utility.yul\":12394:12403   */\n      dup3\n        /* \"#utility.yul\":12385:12392   */\n      dup5\n        /* \"#utility.yul\":12381:12404   */\n      sub\n        /* \"#utility.yul\":12377:12409   */\n      slt\n        /* \"#utility.yul\":12374:12493   */\n      iszero\n      tag_429\n      jumpi\n        /* \"#utility.yul\":12412:12491   */\n      tag_430\n      tag_241\n      jump\t// in\n    tag_430:\n        /* \"#utility.yul\":12374:12493   */\n    tag_429:\n        /* \"#utility.yul\":12532:12533   */\n      0x00\n        /* \"#utility.yul\":12557:12610   */\n      tag_431\n        /* \"#utility.yul\":12602:12609   */\n      dup5\n        /* \"#utility.yul\":12593:12599   */\n      dup3\n        /* \"#utility.yul\":12582:12591   */\n      dup6\n        /* \"#utility.yul\":12578:12600   */\n      add\n        /* \"#utility.yul\":12557:12610   */\n      tag_263\n      jump\t// in\n    tag_431:\n        /* \"#utility.yul\":12547:12610   */\n      swap2\n      pop\n        /* \"#utility.yul\":12503:12620   */\n      pop\n        /* \"#utility.yul\":12298:12627   */\n      swap3\n      swap2\n      pop\n      pop\n      jump\t// out\n        /* \"#utility.yul\":12633:12802   */\n    tag_264:\n        /* \"#utility.yul\":12717:12728   */\n      0x00\n        /* \"#utility.yul\":12751:12757   */\n      dup3\n        /* \"#utility.yul\":12746:12749   */\n      dup3\n        /* \"#utility.yul\":12739:12758   */\n      mstore\n        /* \"#utility.yul\":12791:12795   */\n      0x20\n        /* \"#utility.yul\":12786:12789   */\n      dup3\n        /* \"#utility.yul\":12782:12796   */\n      add\n        /* \"#utility.yul\":12767:12796   */\n      swap1\n      pop\n        /* \"#utility.yul\":12633:12802   */\n      swap3\n      swap2\n      pop\n      pop\n      jump\t// out\n        /* \"#utility.yul\":12808:12980   */\n    tag_265:\n        /* \"#utility.yul\":12948:12972   */\n      0x4e6f2070726f706f73656c7320617661696c6162656c00000000000000000000\n        /* \"#utility.yul\":12944:12945   */\n      0x00\n        /* \"#utility.yul\":12936:12942   */\n      dup3\n        /* \"#utility.yul\":12932:12946   */\n      add\n        /* \"#utility.yul\":12925:12973   */\n      mstore\n        /* \"#utility.yul\":12808:12980   */\n      pop\n      jump\t// out\n        /* \"#utility.yul\":12986:13352   */\n    tag_266:\n        /* \"#utility.yul\":13128:13131   */\n      0x00\n        /* \"#utility.yul\":13149:13216   */\n      tag_435\n        /* \"#utility.yul\":13213:13215   */\n      0x16\n        /* \"#utility.yul\":13208:13211   */\n      dup4\n        /* \"#utility.yul\":13149:13216   */\n      tag_264\n      jump\t// in\n    tag_435:\n        /* \"#utility.yul\":13142:13216   */\n      swap2\n      pop\n        /* \"#utility.yul\":13225:13318   */\n      tag_436\n        /* \"#utility.yul\":13314:13317   */\n      dup3\n        /* \"#utility.yul\":13225:13318   */\n      tag_265\n      jump\t// in\n    tag_436:\n        /* \"#utility.yul\":13343:13345   */\n      0x20\n        /* \"#utility.yul\":13338:13341   */\n      dup3\n        /* \"#utility.yul\":13334:13346   */\n      add\n        /* \"#utility.yul\":13327:13346   */\n      swap1\n      pop\n        /* \"#utility.yul\":12986:13352   */\n      swap2\n      swap1\n      pop\n      jump\t// out\n        /* \"#utility.yul\":13358:13777   */\n    tag_51:\n        /* \"#utility.yul\":13524:13528   */\n      0x00\n        /* \"#utility.yul\":13562:13564   */\n      0x20\n        /* \"#utility.yul\":13551:13560   */\n      dup3\n        /* \"#utility.yul\":13547:13565   */\n      add\n        /* \"#utility.yul\":13539:13565   */\n      swap1\n      pop\n        /* \"#utility.yul\":13611:13620   */\n      dup2\n        /* \"#utility.yul\":13605:13609   */\n      dup2\n        /* \"#utility.yul\":13601:13621   */\n      sub\n        /* \"#utility.yul\":13597:13598   */\n      0x00\n        /* \"#utility.yul\":13586:13595   */\n      dup4\n        /* \"#utility.yul\":13582:13599   */\n      add\n        /* \"#utility.yul\":13575:13622   */\n      mstore\n        /* \"#utility.yul\":13639:13770   */\n      tag_438\n        /* \"#utility.yul\":13765:13769   */\n      dup2\n        /* \"#utility.yul\":13639:13770   */\n      tag_266\n      jump\t// in\n    tag_438:\n        /* \"#utility.yul\":13631:13770   */\n      swap1\n      pop\n        /* \"#utility.yul\":13358:13777   */\n      swap2\n      swap1\n      pop\n      jump\t// out\n        /* \"#utility.yul\":13783:13916   */\n    tag_267:\n        /* \"#utility.yul\":13869:13875   */\n      0x00\n        /* \"#utility.yul\":13903:13908   */\n      dup2\n        /* \"#utility.yul\":13897:13909   */\n      sload\n        /* \"#utility.yul\":13887:13909   */\n      swap1\n      pop\n        /* \"#utility.yul\":13783:13916   */\n      swap2\n      swap1\n      pop\n      jump\t// out\n        /* \"#utility.yul\":13922:14139   */\n    tag_268:\n        /* \"#utility.yul\":14054:14065   */\n      0x00\n        /* \"#utility.yul\":14088:14094   */\n      dup3\n        /* \"#utility.yul\":14083:14086   */\n      dup3\n        /* \"#utility.yul\":14076:14095   */\n      mstore\n        /* \"#utility.yul\":14128:14132   */\n      0x20\n        /* \"#utility.yul\":14123:14126   */\n      dup3\n        /* \"#utility.yul\":14119:14133   */\n      add\n        /* \"#utility.yul\":14104:14133   */\n      swap1\n      pop\n        /* \"#utility.yul\":13922:14139   */\n      swap3\n      swap2\n      pop\n      pop\n      jump\t// out\n        /* \"#utility.yul\":14145:14323   */\n    tag_269:\n        /* \"#utility.yul\":14231:14235   */\n      0x00\n        /* \"#utility.yul\":14254:14257   */\n      dup2\n        /* \"#utility.yul\":14246:14257   */\n      swap1\n      pop\n        /* \"#utility.yul\":14277:14280   */\n      dup2\n        /* \"#utility.yul\":14274:14275   */\n      0x00\n        /* \"#utility.yul\":14267:14281   */\n      mstore\n        /* \"#utility.yul\":14311:14315   */\n      0x20\n        /* \"#utility.yul\":14308:14309   */\n      0x00\n        /* \"#utility.yul\":14298:14316   */\n      keccak256\n        /* \"#utility.yul\":14290:14316   */\n      swap1\n      pop\n        /* \"#utility.yul\":14145:14323   */\n      swap2\n      swap1\n      pop\n      jump\t// out\n        /* \"#utility.yul\":14329:14431   */\n    tag_270:\n        /* \"#utility.yul\":14371:14379   */\n      0x00\n        /* \"#utility.yul\":14418:14423   */\n      dup2\n        /* \"#utility.yul\":14415:14416   */\n      0x00\n        /* \"#utility.yul\":14411:14424   */\n      shr\n        /* \"#utility.yul\":14390:14424   */\n      swap1\n      pop\n        /* \"#utility.yul\":14329:14431   */\n      swap2\n      swap1\n      pop\n      jump\t// out\n        /* \"#utility.yul\":14437:14576   */\n    tag_271:\n        /* \"#utility.yul\":14487:14494   */\n      0x00\n        /* \"#utility.yul\":14527:14569   */\n      0xffffffffffffffffffffffffffffffffffffffff\n        /* \"#utility.yul\":14520:14525   */\n      dup3\n        /* \"#utility.yul\":14516:14570   */\n      and\n        /* \"#utility.yul\":14505:14570   */\n      swap1\n      pop\n        /* \"#utility.yul\":14437:14576   */\n      swap2\n      swap1\n      pop\n      jump\t// out\n        /* \"#utility.yul\":14582:14748   */\n    tag_272:\n        /* \"#utility.yul\":14651:14656   */\n      0x00\n        /* \"#utility.yul\":14676:14742   */\n      tag_445\n        /* \"#utility.yul\":14707:14741   */\n      tag_446\n        /* \"#utility.yul\":14730:14740   */\n      dup4\n        /* \"#utility.yul\":14707:14741   */\n      tag_270\n      jump\t// in\n    tag_446:\n        /* \"#utility.yul\":14676:14742   */\n      tag_271\n      jump\t// in\n    tag_445:\n        /* \"#utility.yul\":14667:14742   */\n      swap1\n      pop\n        /* \"#utility.yul\":14582:14748   */\n      swap2\n      swap1\n      pop\n      jump\t// out\n        /* \"#utility.yul\":14754:14870   */\n    tag_273:\n        /* \"#utility.yul\":14839:14863   */\n      tag_448\n        /* \"#utility.yul\":14857:14862   */\n      dup2\n        /* \"#utility.yul\":14839:14863   */\n      tag_228\n      jump\t// in\n    tag_448:\n        /* \"#utility.yul\":14834:14837   */\n      dup3\n        /* \"#utility.yul\":14827:14864   */\n      mstore\n        /* \"#utility.yul\":14754:14870   */\n      pop\n      pop\n      jump\t// out\n        /* \"#utility.yul\":14876:15056   */\n    tag_274:\n        /* \"#utility.yul\":14924:15001   */\n      0x4e487b7100000000000000000000000000000000000000000000000000000000\n        /* \"#utility.yul\":14921:14922   */\n      0x00\n        /* \"#utility.yul\":14914:15002   */\n      mstore\n        /* \"#utility.yul\":15021:15025   */\n      0x22\n        /* \"#utility.yul\":15018:15019   */\n      0x04\n        /* \"#utility.yul\":15011:15026   */\n      mstore\n        /* \"#utility.yul\":15045:15049   */\n      0x24\n        /* \"#utility.yul\":15042:15043   */\n      0x00\n        /* \"#utility.yul\":15035:15050   */\n      revert\n        /* \"#utility.yul\":15062:15382   */\n    tag_64:\n        /* \"#utility.yul\":15106:15112   */\n      0x00\n        /* \"#utility.yul\":15143:15144   */\n      0x02\n        /* \"#utility.yul\":15137:15141   */\n      dup3\n        /* \"#utility.yul\":15133:15145   */\n      div\n        /* \"#utility.yul\":15123:15145   */\n      swap1\n      pop\n        /* \"#utility.yul\":15190:15191   */\n      0x01\n        /* \"#utility.yul\":15184:15188   */\n      dup3\n        /* \"#utility.yul\":15180:15192   */\n      and\n        /* \"#utility.yul\":15211:15229   */\n      dup1\n        /* \"#utility.yul\":15201:15282   */\n      tag_451\n      jumpi\n        /* \"#utility.yul\":15267:15271   */\n      0x7f\n        /* \"#utility.yul\":15259:15265   */\n      dup3\n        /* \"#utility.yul\":15255:15272   */\n      and\n        /* \"#utility.yul\":15245:15272   */\n      swap2\n      pop\n        /* \"#utility.yul\":15201:15282   */\n    tag_451:\n        /* \"#utility.yul\":15329:15331   */\n      0x20\n        /* \"#utility.yul\":15321:15327   */\n      dup3\n        /* \"#utility.yul\":15318:15332   */\n      lt\n        /* \"#utility.yul\":15298:15316   */\n      dup2\n        /* \"#utility.yul\":15295:15333   */\n      sub\n        /* \"#utility.yul\":15292:15376   */\n      tag_452\n      jumpi\n        /* \"#utility.yul\":15348:15366   */\n      tag_453\n      tag_274\n      jump\t// in\n    tag_453:\n        /* \"#utility.yul\":15292:15376   */\n    tag_452:\n        /* \"#utility.yul\":15113:15382   */\n      pop\n        /* \"#utility.yul\":15062:15382   */\n      swap2\n      swap1\n      pop\n      jump\t// out\n        /* \"#utility.yul\":15388:15555   */\n    tag_275:\n        /* \"#utility.yul\":15470:15481   */\n      0x00\n        /* \"#utility.yul\":15504:15510   */\n      dup3\n        /* \"#utility.yul\":15499:15502   */\n      dup3\n        /* \"#utility.yul\":15492:15511   */\n      mstore\n        /* \"#utility.yul\":15544:15548   */\n      0x20\n        /* \"#utility.yul\":15539:15542   */\n      dup3\n        /* \"#utility.yul\":15535:15549   */\n      add\n        /* \"#utility.yul\":15520:15549   */\n      swap1\n      pop\n        /* \"#utility.yul\":15388:15555   */\n      swap3\n      swap2\n      pop\n      pop\n      jump\t// out\n        /* \"#utility.yul\":15561:15702   */\n    tag_276:\n        /* \"#utility.yul\":15610:15614   */\n      0x00\n        /* \"#utility.yul\":15633:15636   */\n      dup2\n        /* \"#utility.yul\":15625:15636   */\n      swap1\n      pop\n        /* \"#utility.yul\":15656:15659   */\n      dup2\n        /* \"#utility.yul\":15653:15654   */\n      0x00\n        /* \"#utility.yul\":15646:15660   */\n      mstore\n        /* \"#utility.yul\":15690:15694   */\n      0x20\n        /* \"#utility.yul\":15687:15688   */\n      0x00\n        /* \"#utility.yul\":15677:15695   */\n      keccak256\n        /* \"#utility.yul\":15669:15695   */\n      swap1\n      pop\n        /* \"#utility.yul\":15561:15702   */\n      swap2\n      swap1\n      pop\n      jump\t// out\n        /* \"#utility.yul\":15732:16559   */\n    tag_277:\n        /* \"#utility.yul\":15815:15818   */\n      0x00\n        /* \"#utility.yul\":15852:15857   */\n      dup2\n        /* \"#utility.yul\":15846:15858   */\n      sload\n        /* \"#utility.yul\":15881:15917   */\n      tag_457\n        /* \"#utility.yul\":15907:15916   */\n      dup2\n        /* \"#utility.yul\":15881:15917   */\n      tag_64\n      jump\t// in\n    tag_457:\n        /* \"#utility.yul\":15933:16002   */\n      tag_458\n        /* \"#utility.yul\":15995:16001   */\n      dup2\n        /* \"#utility.yul\":15990:15993   */\n      dup7\n        /* \"#utility.yul\":15933:16002   */\n      tag_275\n      jump\t// in\n    tag_458:\n        /* \"#utility.yul\":15926:16002   */\n      swap5\n      pop\n        /* \"#utility.yul\":16033:16034   */\n      0x01\n        /* \"#utility.yul\":16022:16031   */\n      dup3\n        /* \"#utility.yul\":16018:16035   */\n      and\n        /* \"#utility.yul\":16049:16050   */\n      0x00\n        /* \"#utility.yul\":16044:16208   */\n      dup2\n      eq\n      tag_460\n      jumpi\n        /* \"#utility.yul\":16222:16223   */\n      0x01\n        /* \"#utility.yul\":16217:16553   */\n      dup2\n      eq\n      tag_461\n      jumpi\n        /* \"#utility.yul\":16011:16553   */\n      jump(tag_459)\n        /* \"#utility.yul\":16044:16208   */\n    tag_460:\n        /* \"#utility.yul\":16128:16132   */\n      0xff\n        /* \"#utility.yul\":16124:16133   */\n      not\n        /* \"#utility.yul\":16113:16122   */\n      dup4\n        /* \"#utility.yul\":16109:16134   */\n      and\n        /* \"#utility.yul\":16104:16107   */\n      dup7\n        /* \"#utility.yul\":16097:16135   */\n      mstore\n        /* \"#utility.yul\":16188:16194   */\n      dup2\n        /* \"#utility.yul\":16181:16195   */\n      iszero\n        /* \"#utility.yul\":16174:16196   */\n      iszero\n        /* \"#utility.yul\":16168:16172   */\n      0x20\n        /* \"#utility.yul\":16164:16197   */\n      mul\n        /* \"#utility.yul\":16159:16162   */\n      dup7\n        /* \"#utility.yul\":16155:16198   */\n      add\n        /* \"#utility.yul\":16148:16198   */\n      swap4\n      pop\n        /* \"#utility.yul\":16044:16208   */\n      jump(tag_459)\n        /* \"#utility.yul\":16217:16553   */\n    tag_461:\n        /* \"#utility.yul\":16284:16322   */\n      tag_462\n        /* \"#utility.yul\":16316:16321   */\n      dup6\n        /* \"#utility.yul\":16284:16322   */\n      tag_276\n      jump\t// in\n    tag_462:\n        /* \"#utility.yul\":16344:16345   */\n      0x00\n        /* \"#utility.yul\":16358:16512   */\n    tag_463:\n        /* \"#utility.yul\":16372:16378   */\n      dup4\n        /* \"#utility.yul\":16369:16370   */\n      dup2\n        /* \"#utility.yul\":16366:16379   */\n      lt\n        /* \"#utility.yul\":16358:16512   */\n      iszero\n      tag_465\n      jumpi\n        /* \"#utility.yul\":16446:16453   */\n      dup2\n        /* \"#utility.yul\":16440:16454   */\n      sload\n        /* \"#utility.yul\":16436:16437   */\n      dup2\n        /* \"#utility.yul\":16431:16434   */\n      dup10\n        /* \"#utility.yul\":16427:16438   */\n      add\n        /* \"#utility.yul\":16420:16455   */\n      mstore\n        /* \"#utility.yul\":16496:16497   */\n      0x01\n        /* \"#utility.yul\":16487:16494   */\n      dup3\n        /* \"#utility.yul\":16483:16498   */\n      add\n        /* \"#utility.yul\":16472:16498   */\n      swap2\n      pop\n        /* \"#utility.yul\":16394:16398   */\n      0x20\n        /* \"#utility.yul\":16391:16392   */\n      dup2\n        /* \"#utility.yul\":16387:16399   */\n      add\n        /* \"#utility.yul\":16382:16399   */\n      swap1\n      pop\n        /* \"#utility.yul\":16358:16512   */\n      jump(tag_463)\n    tag_465:\n        /* \"#utility.yul\":16541:16542   */\n      dup1\n        /* \"#utility.yul\":16536:16539   */\n      dup9\n        /* \"#utility.yul\":16532:16543   */\n      add\n        /* \"#utility.yul\":16525:16543   */\n      swap6\n      pop\n        /* \"#utility.yul\":16224:16553   */\n      pop\n      pop\n        /* \"#utility.yul\":16011:16553   */\n    tag_459:\n      pop\n        /* \"#utility.yul\":15819:16559   */\n      pop\n      pop\n        /* \"#utility.yul\":15732:16559   */\n      swap3\n      swap2\n      pop\n      pop\n      jump\t// out\n        /* \"#utility.yul\":16565:16655   */\n    tag_278:\n        /* \"#utility.yul\":16615:16622   */\n      0x00\n        /* \"#utility.yul\":16644:16649   */\n      dup2\n        /* \"#utility.yul\":16633:16649   */\n      swap1\n      pop\n        /* \"#utility.yul\":16565:16655   */\n      swap2\n      swap1\n      pop\n      jump\t// out\n        /* \"#utility.yul\":16661:16827   */\n    tag_279:\n        /* \"#utility.yul\":16730:16735   */\n      0x00\n        /* \"#utility.yul\":16755:16821   */\n      tag_468\n        /* \"#utility.yul\":16786:16820   */\n      tag_469\n        /* \"#utility.yul\":16809:16819   */\n      dup4\n        /* \"#utility.yul\":16786:16820   */\n      tag_270\n      jump\t// in\n    tag_469:\n        /* \"#utility.yul\":16755:16821   */\n      tag_278\n      jump\t// in\n    tag_468:\n        /* \"#utility.yul\":16746:16821   */\n      swap1\n      pop\n        /* \"#utility.yul\":16661:16827   */\n      swap2\n      swap1\n      pop\n      jump\t// out\n        /* \"#utility.yul\":16833:16949   */\n    tag_280:\n        /* \"#utility.yul\":16918:16942   */\n      tag_471\n        /* \"#utility.yul\":16936:16941   */\n      dup2\n        /* \"#utility.yul\":16918:16942   */\n      tag_235\n      jump\t// in\n    tag_471:\n        /* \"#utility.yul\":16913:16916   */\n      dup3\n        /* \"#utility.yul\":16906:16943   */\n      mstore\n        /* \"#utility.yul\":16833:16949   */\n      pop\n      pop\n      jump\t// out\n        /* \"#utility.yul\":16955:17045   */\n    tag_281:\n        /* \"#utility.yul\":17005:17012   */\n      0x00\n        /* \"#utility.yul\":17034:17039   */\n      dup2\n        /* \"#utility.yul\":17023:17039   */\n      swap1\n      pop\n        /* \"#utility.yul\":16955:17045   */\n      swap2\n      swap1\n      pop\n      jump\t// out\n        /* \"#utility.yul\":17051:17217   */\n    tag_282:\n        /* \"#utility.yul\":17120:17125   */\n      0x00\n        /* \"#utility.yul\":17145:17211   */\n      tag_474\n        /* \"#utility.yul\":17176:17210   */\n      tag_475\n        /* \"#utility.yul\":17199:17209   */\n      dup4\n        /* \"#utility.yul\":17176:17210   */\n      tag_270\n      jump\t// in\n    tag_475:\n        /* \"#utility.yul\":17145:17211   */\n      tag_281\n      jump\t// in\n    tag_474:\n        /* \"#utility.yul\":17136:17211   */\n      swap1\n      pop\n        /* \"#utility.yul\":17051:17217   */\n      swap2\n      swap1\n      pop\n      jump\t// out\n        /* \"#utility.yul\":17223:17339   */\n    tag_283:\n        /* \"#utility.yul\":17308:17332   */\n      tag_477\n        /* \"#utility.yul\":17326:17331   */\n      dup2\n        /* \"#utility.yul\":17308:17332   */\n      tag_237\n      jump\t// in\n    tag_477:\n        /* \"#utility.yul\":17303:17306   */\n      dup3\n        /* \"#utility.yul\":17296:17333   */\n      mstore\n        /* \"#utility.yul\":17223:17339   */\n      pop\n      pop\n      jump\t// out\n        /* \"#utility.yul\":17387:19402   */\n    tag_284:\n        /* \"#utility.yul\":17501:17504   */\n      0x00\n        /* \"#utility.yul\":17537:17541   */\n      0xe0\n        /* \"#utility.yul\":17532:17535   */\n      dup4\n        /* \"#utility.yul\":17528:17542   */\n      add\n        /* \"#utility.yul\":17568:17569   */\n      0x00\n        /* \"#utility.yul\":17644:17648   */\n      dup1\n        /* \"#utility.yul\":17637:17642   */\n      dup5\n        /* \"#utility.yul\":17633:17649   */\n      add\n        /* \"#utility.yul\":17627:17650   */\n      sload\n        /* \"#utility.yul\":17614:17650   */\n      swap1\n      pop\n        /* \"#utility.yul\":17683:17738   */\n      tag_479\n        /* \"#utility.yul\":17728:17737   */\n      dup2\n        /* \"#utility.yul\":17683:17738   */\n      tag_272\n      jump\t// in\n    tag_479:\n        /* \"#utility.yul\":17751:17822   */\n      tag_480\n        /* \"#utility.yul\":17816:17820   */\n      0x00\n        /* \"#utility.yul\":17811:17814   */\n      dup8\n        /* \"#utility.yul\":17807:17821   */\n      add\n        /* \"#utility.yul\":17793:17805   */\n      dup3\n        /* \"#utility.yul\":17751:17822   */\n      tag_273\n      jump\t// in\n    tag_480:\n        /* \"#utility.yul\":17579:17832   */\n      pop\n        /* \"#utility.yul\":17908:17912   */\n      0x01\n        /* \"#utility.yul\":17901:17906   */\n      dup5\n        /* \"#utility.yul\":17897:17913   */\n      add\n        /* \"#utility.yul\":17960:17963   */\n      dup6\n        /* \"#utility.yul\":17954:17958   */\n      dup4\n        /* \"#utility.yul\":17950:17964   */\n      sub\n        /* \"#utility.yul\":17943:17947   */\n      0x20\n        /* \"#utility.yul\":17938:17941   */\n      dup8\n        /* \"#utility.yul\":17934:17948   */\n      add\n        /* \"#utility.yul\":17927:17965   */\n      mstore\n        /* \"#utility.yul\":17986:18064   */\n      tag_481\n        /* \"#utility.yul\":18059:18063   */\n      dup4\n        /* \"#utility.yul\":18045:18057   */\n      dup3\n        /* \"#utility.yul\":17986:18064   */\n      tag_277\n      jump\t// in\n    tag_481:\n        /* \"#utility.yul\":17978:18064   */\n      swap3\n      pop\n        /* \"#utility.yul\":17842:18075   */\n      pop\n        /* \"#utility.yul\":18150:18154   */\n      0x02\n        /* \"#utility.yul\":18143:18148   */\n      dup5\n        /* \"#utility.yul\":18139:18155   */\n      add\n        /* \"#utility.yul\":18202:18205   */\n      dup6\n        /* \"#utility.yul\":18196:18200   */\n      dup4\n        /* \"#utility.yul\":18192:18206   */\n      sub\n        /* \"#utility.yul\":18185:18189   */\n      0x40\n        /* \"#utility.yul\":18180:18183   */\n      dup8\n        /* \"#utility.yul\":18176:18190   */\n      add\n        /* \"#utility.yul\":18169:18207   */\n      mstore\n        /* \"#utility.yul\":18228:18306   */\n      tag_482\n        /* \"#utility.yul\":18301:18305   */\n      dup4\n        /* \"#utility.yul\":18287:18299   */\n      dup3\n        /* \"#utility.yul\":18228:18306   */\n      tag_277\n      jump\t// in\n    tag_482:\n        /* \"#utility.yul\":18220:18306   */\n      swap3\n      pop\n        /* \"#utility.yul\":18085:18317   */\n      pop\n        /* \"#utility.yul\":18396:18400   */\n      0x03\n        /* \"#utility.yul\":18389:18394   */\n      dup5\n        /* \"#utility.yul\":18385:18401   */\n      add\n        /* \"#utility.yul\":18379:18402   */\n      sload\n        /* \"#utility.yul\":18366:18402   */\n      swap1\n      pop\n        /* \"#utility.yul\":18435:18490   */\n      tag_483\n        /* \"#utility.yul\":18480:18489   */\n      dup2\n        /* \"#utility.yul\":18435:18490   */\n      tag_279\n      jump\t// in\n    tag_483:\n        /* \"#utility.yul\":18503:18574   */\n      tag_484\n        /* \"#utility.yul\":18568:18572   */\n      0x60\n        /* \"#utility.yul\":18563:18566   */\n      dup8\n        /* \"#utility.yul\":18559:18573   */\n      add\n        /* \"#utility.yul\":18545:18557   */\n      dup3\n        /* \"#utility.yul\":18503:18574   */\n      tag_280\n      jump\t// in\n    tag_484:\n        /* \"#utility.yul\":18327:18584   */\n      pop\n        /* \"#utility.yul\":18659:18663   */\n      0x04\n        /* \"#utility.yul\":18652:18657   */\n      dup5\n        /* \"#utility.yul\":18648:18664   */\n      add\n        /* \"#utility.yul\":18642:18665   */\n      sload\n        /* \"#utility.yul\":18629:18665   */\n      swap1\n      pop\n        /* \"#utility.yul\":18698:18753   */\n      tag_485\n        /* \"#utility.yul\":18743:18752   */\n      dup2\n        /* \"#utility.yul\":18698:18753   */\n      tag_279\n      jump\t// in\n    tag_485:\n        /* \"#utility.yul\":18766:18837   */\n      tag_486\n        /* \"#utility.yul\":18831:18835   */\n      0x80\n        /* \"#utility.yul\":18826:18829   */\n      dup8\n        /* \"#utility.yul\":18822:18836   */\n      add\n        /* \"#utility.yul\":18808:18820   */\n      dup3\n        /* \"#utility.yul\":18766:18837   */\n      tag_280\n      jump\t// in\n    tag_486:\n        /* \"#utility.yul\":18594:18847   */\n      pop\n        /* \"#utility.yul\":18919:18923   */\n      0x05\n        /* \"#utility.yul\":18912:18917   */\n      dup5\n        /* \"#utility.yul\":18908:18924   */\n      add\n        /* \"#utility.yul\":18902:18925   */\n      sload\n        /* \"#utility.yul\":18889:18925   */\n      swap1\n      pop\n        /* \"#utility.yul\":18958:19013   */\n      tag_487\n        /* \"#utility.yul\":19003:19012   */\n      dup2\n        /* \"#utility.yul\":18958:19013   */\n      tag_279\n      jump\t// in\n    tag_487:\n        /* \"#utility.yul\":19026:19097   */\n      tag_488\n        /* \"#utility.yul\":19091:19095   */\n      0xa0\n        /* \"#utility.yul\":19086:19089   */\n      dup8\n        /* \"#utility.yul\":19082:19096   */\n      add\n        /* \"#utility.yul\":19068:19080   */\n      dup3\n        /* \"#utility.yul\":19026:19097   */\n      tag_280\n      jump\t// in\n    tag_488:\n        /* \"#utility.yul\":18857:19107   */\n      pop\n        /* \"#utility.yul\":19187:19191   */\n      0x06\n        /* \"#utility.yul\":19180:19185   */\n      dup5\n        /* \"#utility.yul\":19176:19192   */\n      add\n        /* \"#utility.yul\":19170:19193   */\n      sload\n        /* \"#utility.yul\":19157:19193   */\n      swap1\n      pop\n        /* \"#utility.yul\":19226:19281   */\n      tag_489\n        /* \"#utility.yul\":19271:19280   */\n      dup2\n        /* \"#utility.yul\":19226:19281   */\n      tag_282\n      jump\t// in\n    tag_489:\n        /* \"#utility.yul\":19294:19365   */\n      tag_490\n        /* \"#utility.yul\":19359:19363   */\n      0xc0\n        /* \"#utility.yul\":19354:19357   */\n      dup8\n        /* \"#utility.yul\":19350:19364   */\n      add\n        /* \"#utility.yul\":19336:19348   */\n      dup3\n        /* \"#utility.yul\":19294:19365   */\n      tag_283\n      jump\t// in\n    tag_490:\n        /* \"#utility.yul\":19117:19375   */\n      pop\n        /* \"#utility.yul\":19392:19396   */\n      dup2\n        /* \"#utility.yul\":19385:19396   */\n      swap3\n      pop\n        /* \"#utility.yul\":17506:19402   */\n      pop\n      pop\n        /* \"#utility.yul\":17387:19402   */\n      swap3\n      swap2\n      pop\n      pop\n      jump\t// out\n        /* \"#utility.yul\":19408:19674   */\n    tag_285:\n        /* \"#utility.yul\":19532:19542   */\n      0x00\n        /* \"#utility.yul\":19567:19668   */\n      tag_492\n        /* \"#utility.yul\":19664:19667   */\n      dup4\n        /* \"#utility.yul\":19656:19662   */\n      dup4\n        /* \"#utility.yul\":19567:19668   */\n      tag_284\n      jump\t// in\n    tag_492:\n        /* \"#utility.yul\":19553:19668   */\n      swap1\n      pop\n        /* \"#utility.yul\":19408:19674   */\n      swap3\n      swap2\n      pop\n      pop\n      jump\t// out\n        /* \"#utility.yul\":19680:19812   */\n    tag_286:\n        /* \"#utility.yul\":19769:19773   */\n      0x00\n        /* \"#utility.yul\":19801:19805   */\n      0x07\n        /* \"#utility.yul\":19796:19799   */\n      dup3\n        /* \"#utility.yul\":19792:19806   */\n      add\n        /* \"#utility.yul\":19784:19806   */\n      swap1\n      pop\n        /* \"#utility.yul\":19680:19812   */\n      swap2\n      swap1\n      pop\n      jump\t// out\n        /* \"#utility.yul\":19864:20965   */\n    tag_287:\n        /* \"#utility.yul\":20035:20038   */\n      0x00\n        /* \"#utility.yul\":20064:20137   */\n      tag_495\n        /* \"#utility.yul\":20131:20136   */\n      dup3\n        /* \"#utility.yul\":20064:20137   */\n      tag_267\n      jump\t// in\n    tag_495:\n        /* \"#utility.yul\":20153:20272   */\n      tag_496\n        /* \"#utility.yul\":20265:20271   */\n      dup2\n        /* \"#utility.yul\":20260:20263   */\n      dup6\n        /* \"#utility.yul\":20153:20272   */\n      tag_268\n      jump\t// in\n    tag_496:\n        /* \"#utility.yul\":20146:20272   */\n      swap4\n      pop\n        /* \"#utility.yul\":20298:20301   */\n      dup4\n        /* \"#utility.yul\":20343:20347   */\n      0x20\n        /* \"#utility.yul\":20335:20341   */\n      dup3\n        /* \"#utility.yul\":20331:20348   */\n      mul\n        /* \"#utility.yul\":20326:20329   */\n      dup6\n        /* \"#utility.yul\":20322:20349   */\n      add\n        /* \"#utility.yul\":20373:20448   */\n      tag_497\n        /* \"#utility.yul\":20442:20447   */\n      dup6\n        /* \"#utility.yul\":20373:20448   */\n      tag_269\n      jump\t// in\n    tag_497:\n        /* \"#utility.yul\":20471:20478   */\n      dup1\n        /* \"#utility.yul\":20502:20503   */\n      0x00\n        /* \"#utility.yul\":20487:20920   */\n    tag_498:\n        /* \"#utility.yul\":20512:20518   */\n      dup6\n        /* \"#utility.yul\":20509:20510   */\n      dup2\n        /* \"#utility.yul\":20506:20519   */\n      lt\n        /* \"#utility.yul\":20487:20920   */\n      iszero\n      tag_500\n      jumpi\n        /* \"#utility.yul\":20583:20592   */\n      dup5\n        /* \"#utility.yul\":20577:20581   */\n      dup5\n        /* \"#utility.yul\":20573:20593   */\n      sub\n        /* \"#utility.yul\":20568:20571   */\n      dup10\n        /* \"#utility.yul\":20561:20594   */\n      mstore\n        /* \"#utility.yul\":20628:20634   */\n      dup2\n        /* \"#utility.yul\":20655:20774   */\n      tag_501\n        /* \"#utility.yul\":20769:20773   */\n      dup6\n        /* \"#utility.yul\":20754:20767   */\n      dup3\n        /* \"#utility.yul\":20655:20774   */\n      tag_285\n      jump\t// in\n    tag_501:\n        /* \"#utility.yul\":20647:20774   */\n      swap5\n      pop\n        /* \"#utility.yul\":20797:20876   */\n      tag_502\n        /* \"#utility.yul\":20869:20875   */\n      dup4\n        /* \"#utility.yul\":20797:20876   */\n      tag_286\n      jump\t// in\n    tag_502:\n        /* \"#utility.yul\":20787:20876   */\n      swap3\n      pop\n        /* \"#utility.yul\":20905:20909   */\n      0x20\n        /* \"#utility.yul\":20900:20903   */\n      dup11\n        /* \"#utility.yul\":20896:20910   */\n      add\n        /* \"#utility.yul\":20889:20910   */\n      swap10\n      pop\n        /* \"#utility.yul\":20547:20920   */\n      pop\n        /* \"#utility.yul\":20534:20535   */\n      0x01\n        /* \"#utility.yul\":20531:20532   */\n      dup2\n        /* \"#utility.yul\":20527:20536   */\n      add\n        /* \"#utility.yul\":20522:20536   */\n      swap1\n      pop\n        /* \"#utility.yul\":20487:20920   */\n      jump(tag_498)\n    tag_500:\n        /* \"#utility.yul\":20491:20505   */\n      pop\n        /* \"#utility.yul\":20936:20940   */\n      dup3\n        /* \"#utility.yul\":20929:20940   */\n      swap8\n      pop\n        /* \"#utility.yul\":20956:20959   */\n      dup8\n        /* \"#utility.yul\":20949:20959   */\n      swap6\n      pop\n        /* \"#utility.yul\":20040:20965   */\n      pop\n      pop\n      pop\n      pop\n      pop\n        /* \"#utility.yul\":19864:20965   */\n      swap3\n      swap2\n      pop\n      pop\n      jump\t// out\n        /* \"#utility.yul\":20971:21448   */\n    tag_54:\n        /* \"#utility.yul\":21166:21170   */\n      0x00\n        /* \"#utility.yul\":21204:21206   */\n      0x20\n        /* \"#utility.yul\":21193:21202   */\n      dup3\n        /* \"#utility.yul\":21189:21207   */\n      add\n        /* \"#utility.yul\":21181:21207   */\n      swap1\n      pop\n        /* \"#utility.yul\":21253:21262   */\n      dup2\n        /* \"#utility.yul\":21247:21251   */\n      dup2\n        /* \"#utility.yul\":21243:21263   */\n      sub\n        /* \"#utility.yul\":21239:21240   */\n      0x00\n        /* \"#utility.yul\":21228:21237   */\n      dup4\n        /* \"#utility.yul\":21224:21241   */\n      add\n        /* \"#utility.yul\":21217:21264   */\n      mstore\n        /* \"#utility.yul\":21281:21441   */\n      tag_504\n        /* \"#utility.yul\":21436:21440   */\n      dup2\n        /* \"#utility.yul\":21427:21433   */\n      dup5\n        /* \"#utility.yul\":21281:21441   */\n      tag_287\n      jump\t// in\n    tag_504:\n        /* \"#utility.yul\":21273:21441   */\n      swap1\n      pop\n        /* \"#utility.yul\":20971:21448   */\n      swap3\n      swap2\n      pop\n      pop\n      jump\t// out\n        /* \"#utility.yul\":21454:21597   */\n    tag_288:\n        /* \"#utility.yul\":21511:21516   */\n      0x00\n        /* \"#utility.yul\":21542:21548   */\n      dup2\n        /* \"#utility.yul\":21536:21549   */\n      mload\n        /* \"#utility.yul\":21527:21549   */\n      swap1\n      pop\n        /* \"#utility.yul\":21558:21591   */\n      tag_506\n        /* \"#utility.yul\":21585:21590   */\n      dup2\n        /* \"#utility.yul\":21558:21591   */\n      tag_260\n      jump\t// in\n    tag_506:\n        /* \"#utility.yul\":21454:21597   */\n      swap3\n      swap2\n      pop\n      pop\n      jump\t// out\n        /* \"#utility.yul\":21603:21954   */\n    tag_58:\n        /* \"#utility.yul\":21673:21679   */\n      0x00\n        /* \"#utility.yul\":21722:21724   */\n      0x20\n        /* \"#utility.yul\":21710:21719   */\n      dup3\n        /* \"#utility.yul\":21701:21708   */\n      dup5\n        /* \"#utility.yul\":21697:21720   */\n      sub\n        /* \"#utility.yul\":21693:21725   */\n      slt\n        /* \"#utility.yul\":21690:21809   */\n      iszero\n      tag_508\n      jumpi\n        /* \"#utility.yul\":21728:21807   */\n      tag_509\n      tag_241\n      jump\t// in\n    tag_509:\n        /* \"#utility.yul\":21690:21809   */\n    tag_508:\n        /* \"#utility.yul\":21848:21849   */\n      0x00\n        /* \"#utility.yul\":21873:21937   */\n      tag_510\n        /* \"#utility.yul\":21929:21936   */\n      dup5\n        /* \"#utility.yul\":21920:21926   */\n      dup3\n        /* \"#utility.yul\":21909:21918   */\n      dup6\n        /* \"#utility.yul\":21905:21927   */\n      add\n        /* \"#utility.yul\":21873:21937   */\n      tag_288\n      jump\t// in\n    tag_510:\n        /* \"#utility.yul\":21863:21937   */\n      swap2\n      pop\n        /* \"#utility.yul\":21819:21947   */\n      pop\n        /* \"#utility.yul\":21603:21954   */\n      swap3\n      swap2\n      pop\n      pop\n      jump\t// out\n        /* \"#utility.yul\":21960:22140   */\n    tag_61:\n        /* \"#utility.yul\":22008:22085   */\n      0x4e487b7100000000000000000000000000000000000000000000000000000000\n        /* \"#utility.yul\":22005:22006   */\n      0x00\n        /* \"#utility.yul\":21998:22086   */\n      mstore\n        /* \"#utility.yul\":22105:22109   */\n      0x32\n        /* \"#utility.yul\":22102:22103   */\n      0x04\n        /* \"#utility.yul\":22095:22110   */\n      mstore\n        /* \"#utility.yul\":22129:22133   */\n      0x24\n        /* \"#utility.yul\":22126:22127   */\n      0x00\n        /* \"#utility.yul\":22119:22134   */\n      revert\n        /* \"#utility.yul\":22146:22323   */\n    tag_289:\n        /* \"#utility.yul\":22238:22249   */\n      0x00\n        /* \"#utility.yul\":22272:22278   */\n      dup3\n        /* \"#utility.yul\":22267:22270   */\n      dup3\n        /* \"#utility.yul\":22260:22279   */\n      mstore\n        /* \"#utility.yul\":22312:22316   */\n      0x20\n        /* \"#utility.yul\":22307:22310   */\n      dup3\n        /* \"#utility.yul\":22303:22317   */\n      add\n        /* \"#utility.yul\":22288:22317   */\n      swap1\n      pop\n        /* \"#utility.yul\":22146:22323   */\n      swap3\n      swap2\n      pop\n      pop\n      jump\t// out\n        /* \"#utility.yul\":22329:22722   */\n    tag_290:\n        /* \"#utility.yul\":22425:22428   */\n      0x00\n        /* \"#utility.yul\":22453:22492   */\n      tag_514\n        /* \"#utility.yul\":22486:22491   */\n      dup3\n        /* \"#utility.yul\":22453:22492   */\n      tag_230\n      jump\t// in\n    tag_514:\n        /* \"#utility.yul\":22508:22587   */\n      tag_515\n        /* \"#utility.yul\":22580:22586   */\n      dup2\n        /* \"#utility.yul\":22575:22578   */\n      dup6\n        /* \"#utility.yul\":22508:22587   */\n      tag_289\n      jump\t// in\n    tag_515:\n        /* \"#utility.yul\":22501:22587   */\n      swap4\n      pop\n        /* \"#utility.yul\":22596:22661   */\n      tag_516\n        /* \"#utility.yul\":22654:22660   */\n      dup2\n        /* \"#utility.yul\":22649:22652   */\n      dup6\n        /* \"#utility.yul\":22642:22646   */\n      0x20\n        /* \"#utility.yul\":22635:22640   */\n      dup7\n        /* \"#utility.yul\":22631:22647   */\n      add\n        /* \"#utility.yul\":22596:22661   */\n      tag_232\n      jump\t// in\n    tag_516:\n        /* \"#utility.yul\":22686:22715   */\n      tag_517\n        /* \"#utility.yul\":22708:22714   */\n      dup2\n        /* \"#utility.yul\":22686:22715   */\n      tag_233\n      jump\t// in\n    tag_517:\n        /* \"#utility.yul\":22681:22684   */\n      dup5\n        /* \"#utility.yul\":22677:22716   */\n      add\n        /* \"#utility.yul\":22670:22716   */\n      swap2\n      pop\n        /* \"#utility.yul\":22429:22722   */\n      pop\n        /* \"#utility.yul\":22329:22722   */\n      swap3\n      swap2\n      pop\n      pop\n      jump\t// out\n        /* \"#utility.yul\":22728:22854   */\n    tag_291:\n        /* \"#utility.yul\":22823:22847   */\n      tag_519\n        /* \"#utility.yul\":22841:22846   */\n      dup2\n        /* \"#utility.yul\":22823:22847   */\n      tag_235\n      jump\t// in\n    tag_519:\n        /* \"#utility.yul\":22818:22821   */\n      dup3\n        /* \"#utility.yul\":22811:22848   */\n      mstore\n        /* \"#utility.yul\":22728:22854   */\n      pop\n      pop\n      jump\t// out\n        /* \"#utility.yul\":22860:23635   */\n    tag_79:\n        /* \"#utility.yul\":23085:23089   */\n      0x00\n        /* \"#utility.yul\":23123:23126   */\n      0x80\n        /* \"#utility.yul\":23112:23121   */\n      dup3\n        /* \"#utility.yul\":23108:23127   */\n      add\n        /* \"#utility.yul\":23100:23127   */\n      swap1\n      pop\n        /* \"#utility.yul\":23173:23182   */\n      dup2\n        /* \"#utility.yul\":23167:23171   */\n      dup2\n        /* \"#utility.yul\":23163:23183   */\n      sub\n        /* \"#utility.yul\":23159:23160   */\n      0x00\n        /* \"#utility.yul\":23148:23157   */\n      dup4\n        /* \"#utility.yul\":23144:23161   */\n      add\n        /* \"#utility.yul\":23137:23184   */\n      mstore\n        /* \"#utility.yul\":23201:23287   */\n      tag_521\n        /* \"#utility.yul\":23282:23286   */\n      dup2\n        /* \"#utility.yul\":23273:23279   */\n      dup8\n        /* \"#utility.yul\":23201:23287   */\n      tag_290\n      jump\t// in\n    tag_521:\n        /* \"#utility.yul\":23193:23287   */\n      swap1\n      pop\n        /* \"#utility.yul\":23334:23343   */\n      dup2\n        /* \"#utility.yul\":23328:23332   */\n      dup2\n        /* \"#utility.yul\":23324:23344   */\n      sub\n        /* \"#utility.yul\":23319:23321   */\n      0x20\n        /* \"#utility.yul\":23308:23317   */\n      dup4\n        /* \"#utility.yul\":23304:23322   */\n      add\n        /* \"#utility.yul\":23297:23345   */\n      mstore\n        /* \"#utility.yul\":23362:23448   */\n      tag_522\n        /* \"#utility.yul\":23443:23447   */\n      dup2\n        /* \"#utility.yul\":23434:23440   */\n      dup7\n        /* \"#utility.yul\":23362:23448   */\n      tag_290\n      jump\t// in\n    tag_522:\n        /* \"#utility.yul\":23354:23448   */\n      swap1\n      pop\n        /* \"#utility.yul\":23458:23538   */\n      tag_523\n        /* \"#utility.yul\":23534:23536   */\n      0x40\n        /* \"#utility.yul\":23523:23532   */\n      dup4\n        /* \"#utility.yul\":23519:23537   */\n      add\n        /* \"#utility.yul\":23510:23516   */\n      dup6\n        /* \"#utility.yul\":23458:23538   */\n      tag_291\n      jump\t// in\n    tag_523:\n        /* \"#utility.yul\":23548:23628   */\n      tag_524\n        /* \"#utility.yul\":23624:23626   */\n      0x60\n        /* \"#utility.yul\":23613:23622   */\n      dup4\n        /* \"#utility.yul\":23609:23627   */\n      add\n        /* \"#utility.yul\":23600:23606   */\n      dup5\n        /* \"#utility.yul\":23548:23628   */\n      tag_291\n      jump\t// in\n    tag_524:\n        /* \"#utility.yul\":22860:23635   */\n      swap6\n      swap5\n      pop\n      pop\n      pop\n      pop\n      pop\n      jump\t// out\n        /* \"#utility.yul\":23641:24075   */\n    tag_292:\n        /* \"#utility.yul\":23730:23735   */\n      0x00\n        /* \"#utility.yul\":23755:23821   */\n      tag_526\n        /* \"#utility.yul\":23771:23820   */\n      tag_527\n        /* \"#utility.yul\":23813:23819   */\n      dup5\n        /* \"#utility.yul\":23771:23820   */\n      tag_248\n      jump\t// in\n    tag_527:\n        /* \"#utility.yul\":23755:23821   */\n      tag_247\n      jump\t// in\n    tag_526:\n        /* \"#utility.yul\":23746:23821   */\n      swap1\n      pop\n        /* \"#utility.yul\":23844:23850   */\n      dup3\n        /* \"#utility.yul\":23837:23842   */\n      dup2\n        /* \"#utility.yul\":23830:23851   */\n      mstore\n        /* \"#utility.yul\":23882:23886   */\n      0x20\n        /* \"#utility.yul\":23875:23880   */\n      dup2\n        /* \"#utility.yul\":23871:23887   */\n      add\n        /* \"#utility.yul\":23920:23923   */\n      dup5\n        /* \"#utility.yul\":23911:23917   */\n      dup5\n        /* \"#utility.yul\":23906:23909   */\n      dup5\n        /* \"#utility.yul\":23902:23918   */\n      add\n        /* \"#utility.yul\":23899:23924   */\n      gt\n        /* \"#utility.yul\":23896:24008   */\n      iszero\n      tag_528\n      jumpi\n        /* \"#utility.yul\":23927:24006   */\n      tag_529\n      tag_244\n      jump\t// in\n    tag_529:\n        /* \"#utility.yul\":23896:24008   */\n    tag_528:\n        /* \"#utility.yul\":24017:24069   */\n      tag_530\n        /* \"#utility.yul\":24062:24068   */\n      dup5\n        /* \"#utility.yul\":24057:24060   */\n      dup3\n        /* \"#utility.yul\":24052:24055   */\n      dup6\n        /* \"#utility.yul\":24017:24069   */\n      tag_232\n      jump\t// in\n    tag_530:\n        /* \"#utility.yul\":23736:24075   */\n      pop\n        /* \"#utility.yul\":23641:24075   */\n      swap4\n      swap3\n      pop\n      pop\n      pop\n      jump\t// out\n        /* \"#utility.yul\":24095:24450   */\n    tag_293:\n        /* \"#utility.yul\":24162:24167   */\n      0x00\n        /* \"#utility.yul\":24211:24214   */\n      dup3\n        /* \"#utility.yul\":24204:24208   */\n      0x1f\n        /* \"#utility.yul\":24196:24202   */\n      dup4\n        /* \"#utility.yul\":24192:24209   */\n      add\n        /* \"#utility.yul\":24188:24215   */\n      slt\n        /* \"#utility.yul\":24178:24300   */\n      tag_532\n      jumpi\n        /* \"#utility.yul\":24219:24298   */\n      tag_533\n      tag_243\n      jump\t// in\n    tag_533:\n        /* \"#utility.yul\":24178:24300   */\n    tag_532:\n        /* \"#utility.yul\":24329:24335   */\n      dup2\n        /* \"#utility.yul\":24323:24336   */\n      mload\n        /* \"#utility.yul\":24354:24444   */\n      tag_534\n        /* \"#utility.yul\":24440:24443   */\n      dup5\n        /* \"#utility.yul\":24432:24438   */\n      dup3\n        /* \"#utility.yul\":24425:24429   */\n      0x20\n        /* \"#utility.yul\":24417:24423   */\n      dup7\n        /* \"#utility.yul\":24413:24430   */\n      add\n        /* \"#utility.yul\":24354:24444   */\n      tag_292\n      jump\t// in\n    tag_534:\n        /* \"#utility.yul\":24345:24444   */\n      swap2\n      pop\n        /* \"#utility.yul\":24168:24450   */\n      pop\n        /* \"#utility.yul\":24095:24450   */\n      swap3\n      swap2\n      pop\n      pop\n      jump\t// out\n        /* \"#utility.yul\":24456:24980   */\n    tag_83:\n        /* \"#utility.yul\":24536:24542   */\n      0x00\n        /* \"#utility.yul\":24585:24587   */\n      0x20\n        /* \"#utility.yul\":24573:24582   */\n      dup3\n        /* \"#utility.yul\":24564:24571   */\n      dup5\n        /* \"#utility.yul\":24560:24583   */\n      sub\n        /* \"#utility.yul\":24556:24588   */\n      slt\n        /* \"#utility.yul\":24553:24672   */\n      iszero\n      tag_536\n      jumpi\n        /* \"#utility.yul\":24591:24670   */\n      tag_537\n      tag_241\n      jump\t// in\n    tag_537:\n        /* \"#utility.yul\":24553:24672   */\n    tag_536:\n        /* \"#utility.yul\":24732:24733   */\n      0x00\n        /* \"#utility.yul\":24721:24730   */\n      dup3\n        /* \"#utility.yul\":24717:24734   */\n      add\n        /* \"#utility.yul\":24711:24735   */\n      mload\n        /* \"#utility.yul\":24762:24780   */\n      0xffffffffffffffff\n        /* \"#utility.yul\":24754:24760   */\n      dup2\n        /* \"#utility.yul\":24751:24781   */\n      gt\n        /* \"#utility.yul\":24748:24865   */\n      iszero\n      tag_538\n      jumpi\n        /* \"#utility.yul\":24784:24863   */\n      tag_539\n      tag_242\n      jump\t// in\n    tag_539:\n        /* \"#utility.yul\":24748:24865   */\n    tag_538:\n        /* \"#utility.yul\":24889:24963   */\n      tag_540\n        /* \"#utility.yul\":24955:24962   */\n      dup5\n        /* \"#utility.yul\":24946:24952   */\n      dup3\n        /* \"#utility.yul\":24935:24944   */\n      dup6\n        /* \"#utility.yul\":24931:24953   */\n      add\n        /* \"#utility.yul\":24889:24963   */\n      tag_293\n      jump\t// in\n    tag_540:\n        /* \"#utility.yul\":24879:24963   */\n      swap2\n      pop\n        /* \"#utility.yul\":24682:24973   */\n      pop\n        /* \"#utility.yul\":24456:24980   */\n      swap3\n      swap2\n      pop\n      pop\n      jump\t// out\n        /* \"#utility.yul\":24986:25315   */\n    tag_85:\n        /* \"#utility.yul\":25107:25111   */\n      0x00\n        /* \"#utility.yul\":25145:25147   */\n      0x20\n        /* \"#utility.yul\":25134:25143   */\n      dup3\n        /* \"#utility.yul\":25130:25148   */\n      add\n        /* \"#utility.yul\":25122:25148   */\n      swap1\n      pop\n        /* \"#utility.yul\":25194:25203   */\n      dup2\n        /* \"#utility.yul\":25188:25192   */\n      dup2\n        /* \"#utility.yul\":25184:25204   */\n      sub\n        /* \"#utility.yul\":25180:25181   */\n      0x00\n        /* \"#utility.yul\":25169:25178   */\n      dup4\n        /* \"#utility.yul\":25165:25182   */\n      add\n        /* \"#utility.yul\":25158:25205   */\n      mstore\n        /* \"#utility.yul\":25222:25308   */\n      tag_542\n        /* \"#utility.yul\":25303:25307   */\n      dup2\n        /* \"#utility.yul\":25294:25300   */\n      dup5\n        /* \"#utility.yul\":25222:25308   */\n      tag_290\n      jump\t// in\n    tag_542:\n        /* \"#utility.yul\":25214:25308   */\n      swap1\n      pop\n        /* \"#utility.yul\":24986:25315   */\n      swap3\n      swap2\n      pop\n      pop\n      jump\t// out\n        /* \"#utility.yul\":25321:25443   */\n    tag_294:\n        /* \"#utility.yul\":25394:25418   */\n      tag_544\n        /* \"#utility.yul\":25412:25417   */\n      dup2\n        /* \"#utility.yul\":25394:25418   */\n      tag_237\n      jump\t// in\n    tag_544:\n        /* \"#utility.yul\":25387:25392   */\n      dup2\n        /* \"#utility.yul\":25384:25419   */\n      eq\n        /* \"#utility.yul\":25374:25437   */\n      tag_545\n      jumpi\n        /* \"#utility.yul\":25433:25434   */\n      0x00\n        /* \"#utility.yul\":25430:25431   */\n      dup1\n        /* \"#utility.yul\":25423:25435   */\n      revert\n        /* \"#utility.yul\":25374:25437   */\n    tag_545:\n        /* \"#utility.yul\":25321:25443   */\n      pop\n      jump\t// out\n        /* \"#utility.yul\":25449:25592   */\n    tag_295:\n        /* \"#utility.yul\":25506:25511   */\n      0x00\n        /* \"#utility.yul\":25537:25543   */\n      dup2\n        /* \"#utility.yul\":25531:25544   */\n      mload\n        /* \"#utility.yul\":25522:25544   */\n      swap1\n      pop\n        /* \"#utility.yul\":25553:25586   */\n      tag_547\n        /* \"#utility.yul\":25580:25585   */\n      dup2\n        /* \"#utility.yul\":25553:25586   */\n      tag_294\n      jump\t// in\n    tag_547:\n        /* \"#utility.yul\":25449:25592   */\n      swap3\n      swap2\n      pop\n      pop\n      jump\t// out\n        /* \"#utility.yul\":25598:25949   */\n    tag_89:\n        /* \"#utility.yul\":25668:25674   */\n      0x00\n        /* \"#utility.yul\":25717:25719   */\n      0x20\n        /* \"#utility.yul\":25705:25714   */\n      dup3\n        /* \"#utility.yul\":25696:25703   */\n      dup5\n        /* \"#utility.yul\":25692:25715   */\n      sub\n        /* \"#utility.yul\":25688:25720   */\n      slt\n        /* \"#utility.yul\":25685:25804   */\n      iszero\n      tag_549\n      jumpi\n        /* \"#utility.yul\":25723:25802   */\n      tag_550\n      tag_241\n      jump\t// in\n    tag_550:\n        /* \"#utility.yul\":25685:25804   */\n    tag_549:\n        /* \"#utility.yul\":25843:25844   */\n      0x00\n        /* \"#utility.yul\":25868:25932   */\n      tag_551\n        /* \"#utility.yul\":25924:25931   */\n      dup5\n        /* \"#utility.yul\":25915:25921   */\n      dup3\n        /* \"#utility.yul\":25904:25913   */\n      dup6\n        /* \"#utility.yul\":25900:25922   */\n      add\n        /* \"#utility.yul\":25868:25932   */\n      tag_295\n      jump\t// in\n    tag_551:\n        /* \"#utility.yul\":25858:25932   */\n      swap2\n      pop\n        /* \"#utility.yul\":25814:25942   */\n      pop\n        /* \"#utility.yul\":25598:25949   */\n      swap3\n      swap2\n      pop\n      pop\n      jump\t// out\n        /* \"#utility.yul\":25955:26048   */\n    tag_296:\n        /* \"#utility.yul\":25992:25998   */\n      0x00\n        /* \"#utility.yul\":26039:26041   */\n      0x20\n        /* \"#utility.yul\":26034:26036   */\n      0x1f\n        /* \"#utility.yul\":26027:26032   */\n      dup4\n        /* \"#utility.yul\":26023:26037   */\n      add\n        /* \"#utility.yul\":26019:26042   */\n      div\n        /* \"#utility.yul\":26009:26042   */\n      swap1\n      pop\n        /* \"#utility.yul\":25955:26048   */\n      swap2\n      swap1\n      pop\n      jump\t// out\n        /* \"#utility.yul\":26054:26161   */\n    tag_297:\n        /* \"#utility.yul\":26098:26106   */\n      0x00\n        /* \"#utility.yul\":26148:26153   */\n      dup3\n        /* \"#utility.yul\":26142:26146   */\n      dup3\n        /* \"#utility.yul\":26138:26154   */\n      shl\n        /* \"#utility.yul\":26117:26154   */\n      swap1\n      pop\n        /* \"#utility.yul\":26054:26161   */\n      swap3\n      swap2\n      pop\n      pop\n      jump\t// out\n        /* \"#utility.yul\":26167:26560   */\n    tag_298:\n        /* \"#utility.yul\":26236:26242   */\n      0x00\n        /* \"#utility.yul\":26286:26287   */\n      0x08\n        /* \"#utility.yul\":26274:26284   */\n      dup4\n        /* \"#utility.yul\":26270:26288   */\n      mul\n        /* \"#utility.yul\":26309:26406   */\n      tag_555\n        /* \"#utility.yul\":26339:26405   */\n      0xffffffffffffffffffffffffffffffffffffffffffffffffffffffffffffffff\n        /* \"#utility.yul\":26328:26337   */\n      dup3\n        /* \"#utility.yul\":26309:26406   */\n      tag_297\n      jump\t// in\n    tag_555:\n        /* \"#utility.yul\":26427:26466   */\n      tag_556\n        /* \"#utility.yul\":26457:26465   */\n      dup7\n        /* \"#utility.yul\":26446:26455   */\n      dup4\n        /* \"#utility.yul\":26427:26466   */\n      tag_297\n      jump\t// in\n    tag_556:\n        /* \"#utility.yul\":26415:26466   */\n      swap6\n      pop\n        /* \"#utility.yul\":26499:26503   */\n      dup1\n        /* \"#utility.yul\":26495:26504   */\n      not\n        /* \"#utility.yul\":26488:26493   */\n      dup5\n        /* \"#utility.yul\":26484:26505   */\n      and\n        /* \"#utility.yul\":26475:26505   */\n      swap4\n      pop\n        /* \"#utility.yul\":26548:26552   */\n      dup1\n        /* \"#utility.yul\":26538:26546   */\n      dup7\n        /* \"#utility.yul\":26534:26553   */\n      and\n        /* \"#utility.yul\":26527:26532   */\n      dup5\n        /* \"#utility.yul\":26524:26554   */\n      or\n        /* \"#utility.yul\":26514:26554   */\n      swap3\n      pop\n        /* \"#utility.yul\":26243:26560   */\n      pop\n      pop\n        /* \"#utility.yul\":26167:26560   */\n      swap4\n      swap3\n      pop\n      pop\n      pop\n      jump\t// out\n        /* \"#utility.yul\":26566:26626   */\n    tag_299:\n        /* \"#utility.yul\":26594:26597   */\n      0x00\n        /* \"#utility.yul\":26615:26620   */\n      dup2\n        /* \"#utility.yul\":26608:26620   */\n      swap1\n      pop\n        /* \"#utility.yul\":26566:26626   */\n      swap2\n      swap1\n      pop\n      jump\t// out\n        /* \"#utility.yul\":26632:26774   */\n    tag_300:\n        /* \"#utility.yul\":26682:26691   */\n      0x00\n        /* \"#utility.yul\":26715:26768   */\n      tag_559\n        /* \"#utility.yul\":26733:26767   */\n      tag_560\n        /* \"#utility.yul\":26742:26766   */\n      tag_561\n        /* \"#utility.yul\":26760:26765   */\n      dup5\n        /* \"#utility.yul\":26742:26766   */\n      tag_235\n      jump\t// in\n    tag_561:\n        /* \"#utility.yul\":26733:26767   */\n      tag_299\n      jump\t// in\n    tag_560:\n        /* \"#utility.yul\":26715:26768   */\n      tag_235\n      jump\t// in\n    tag_559:\n        /* \"#utility.yul\":26702:26768   */\n      swap1\n      pop\n        /* \"#utility.yul\":26632:26774   */\n      swap2\n      swap1\n      pop\n      jump\t// out\n        /* \"#utility.yul\":26780:26855   */\n    tag_301:\n        /* \"#utility.yul\":26823:26826   */\n      0x00\n        /* \"#utility.yul\":26844:26849   */\n      dup2\n        /* \"#utility.yul\":26837:26849   */\n      swap1\n      pop\n        /* \"#utility.yul\":26780:26855   */\n      swap2\n      swap1\n      pop\n      jump\t// out\n        /* \"#utility.yul\":26861:27130   */\n    tag_302:\n        /* \"#utility.yul\":26971:27010   */\n      tag_564\n        /* \"#utility.yul\":27002:27009   */\n      dup4\n        /* \"#utility.yul\":26971:27010   */\n      tag_300\n      jump\t// in\n    tag_564:\n        /* \"#utility.yul\":27032:27123   */\n      tag_565\n        /* \"#utility.yul\":27081:27122   */\n      tag_566\n        /* \"#utility.yul\":27105:27121   */\n      dup3\n        /* \"#utility.yul\":27081:27122   */\n      tag_301\n      jump\t// in\n    tag_566:\n        /* \"#utility.yul\":27073:27079   */\n      dup5\n        /* \"#utility.yul\":27066:27070   */\n      dup5\n        /* \"#utility.yul\":27060:27071   */\n      sload\n        /* \"#utility.yul\":27032:27123   */\n      tag_298\n      jump\t// in\n    tag_565:\n        /* \"#utility.yul\":27026:27030   */\n      dup3\n        /* \"#utility.yul\":27019:27124   */\n      sstore\n        /* \"#utility.yul\":26937:27130   */\n      pop\n        /* \"#utility.yul\":26861:27130   */\n      pop\n      pop\n      pop\n      jump\t// out\n        /* \"#utility.yul\":27136:27209   */\n    tag_303:\n        /* \"#utility.yul\":27181:27184   */\n      0x00\n        /* \"#utility.yul\":27136:27209   */\n      swap1\n      jump\t// out\n        /* \"#utility.yul\":27215:27404   */\n    tag_304:\n        /* \"#utility.yul\":27292:27324   */\n      tag_569\n      tag_303\n      jump\t// in\n    tag_569:\n        /* \"#utility.yul\":27333:27398   */\n      tag_570\n        /* \"#utility.yul\":27391:27397   */\n      dup2\n        /* \"#utility.yul\":27383:27389   */\n      dup5\n        /* \"#utility.yul\":27377:27381   */\n      dup5\n        /* \"#utility.yul\":27333:27398   */\n      tag_302\n      jump\t// in\n    tag_570:\n        /* \"#utility.yul\":27268:27404   */\n      pop\n        /* \"#utility.yul\":27215:27404   */\n      pop\n      pop\n      jump\t// out\n        /* \"#utility.yul\":27410:27596   */\n    tag_305:\n        /* \"#utility.yul\":27470:27590   */\n    tag_572:\n        /* \"#utility.yul\":27487:27490   */\n      dup2\n        /* \"#utility.yul\":27480:27485   */\n      dup2\n        /* \"#utility.yul\":27477:27491   */\n      lt\n        /* \"#utility.yul\":27470:27590   */\n      iszero\n      tag_574\n      jumpi\n        /* \"#utility.yul\":27541:27580   */\n      tag_575\n        /* \"#utility.yul\":27578:27579   */\n      0x00\n        /* \"#utility.yul\":27571:27576   */\n      dup3\n        /* \"#utility.yul\":27541:27580   */\n      tag_304\n      jump\t// in\n    tag_575:\n        /* \"#utility.yul\":27514:27515   */\n      0x01\n        /* \"#utility.yul\":27507:27512   */\n      dup2\n        /* \"#utility.yul\":27503:27516   */\n      add\n        /* \"#utility.yul\":27494:27516   */\n      swap1\n      pop\n        /* \"#utility.yul\":27470:27590   */\n      jump(tag_572)\n    tag_574:\n        /* \"#utility.yul\":27410:27596   */\n      pop\n      pop\n      jump\t// out\n        /* \"#utility.yul\":27602:28145   */\n    tag_306:\n        /* \"#utility.yul\":27703:27705   */\n      0x1f\n        /* \"#utility.yul\":27698:27701   */\n      dup3\n        /* \"#utility.yul\":27695:27706   */\n      gt\n        /* \"#utility.yul\":27692:28138   */\n      iszero\n      tag_577\n      jumpi\n        /* \"#utility.yul\":27737:27775   */\n      tag_578\n        /* \"#utility.yul\":27769:27774   */\n      dup2\n        /* \"#utility.yul\":27737:27775   */\n      tag_276\n      jump\t// in\n    tag_578:\n        /* \"#utility.yul\":27821:27850   */\n      tag_579\n        /* \"#utility.yul\":27839:27849   */\n      dup5\n        /* \"#utility.yul\":27821:27850   */\n      tag_296\n      jump\t// in\n    tag_579:\n        /* \"#utility.yul\":27811:27819   */\n      dup2\n        /* \"#utility.yul\":27807:27851   */\n      add\n        /* \"#utility.yul\":28004:28006   */\n      0x20\n        /* \"#utility.yul\":27992:28002   */\n      dup6\n        /* \"#utility.yul\":27989:28007   */\n      lt\n        /* \"#utility.yul\":27986:28035   */\n      iszero\n      tag_580\n      jumpi\n        /* \"#utility.yul\":28025:28033   */\n      dup2\n        /* \"#utility.yul\":28010:28033   */\n      swap1\n      pop\n        /* \"#utility.yul\":27986:28035   */\n    tag_580:\n        /* \"#utility.yul\":28048:28128   */\n      tag_581\n        /* \"#utility.yul\":28104:28126   */\n      tag_582\n        /* \"#utility.yul\":28122:28125   */\n      dup6\n        /* \"#utility.yul\":28104:28126   */\n      tag_296\n      jump\t// in\n    tag_582:\n        /* \"#utility.yul\":28094:28102   */\n      dup4\n        /* \"#utility.yul\":28090:28127   */\n      add\n        /* \"#utility.yul\":28077:28088   */\n      dup3\n        /* \"#utility.yul\":28048:28128   */\n      tag_305\n      jump\t// in\n    tag_581:\n        /* \"#utility.yul\":27707:28138   */\n      pop\n      pop\n        /* \"#utility.yul\":27692:28138   */\n    tag_577:\n        /* \"#utility.yul\":27602:28145   */\n      pop\n      pop\n      pop\n      jump\t// out\n        /* \"#utility.yul\":28151:28268   */\n    tag_307:\n        /* \"#utility.yul\":28205:28213   */\n      0x00\n        /* \"#utility.yul\":28255:28260   */\n      dup3\n        /* \"#utility.yul\":28249:28253   */\n      dup3\n        /* \"#utility.yul\":28245:28261   */\n      shr\n        /* \"#utility.yul\":28224:28261   */\n      swap1\n      pop\n        /* \"#utility.yul\":28151:28268   */\n      swap3\n      swap2\n      pop\n      pop\n      jump\t// out\n        /* \"#utility.yul\":28274:28443   */\n    tag_308:\n        /* \"#utility.yul\":28318:28324   */\n      0x00\n        /* \"#utility.yul\":28351:28402   */\n      tag_585\n        /* \"#utility.yul\":28399:28400   */\n      0x00\n        /* \"#utility.yul\":28395:28401   */\n      not\n        /* \"#utility.yul\":28387:28392   */\n      dup5\n        /* \"#utility.yul\":28384:28385   */\n      0x08\n        /* \"#utility.yul\":28380:28393   */\n      mul\n        /* \"#utility.yul\":28351:28402   */\n      tag_307\n      jump\t// in\n    tag_585:\n        /* \"#utility.yul\":28347:28403   */\n      not\n        /* \"#utility.yul\":28432:28436   */\n      dup1\n        /* \"#utility.yul\":28426:28430   */\n      dup4\n        /* \"#utility.yul\":28422:28437   */\n      and\n        /* \"#utility.yul\":28412:28437   */\n      swap2\n      pop\n        /* \"#utility.yul\":28325:28443   */\n      pop\n        /* \"#utility.yul\":28274:28443   */\n      swap3\n      swap2\n      pop\n      pop\n      jump\t// out\n        /* \"#utility.yul\":28448:28743   */\n    tag_309:\n        /* \"#utility.yul\":28524:28528   */\n      0x00\n        /* \"#utility.yul\":28670:28699   */\n      tag_587\n        /* \"#utility.yul\":28695:28698   */\n      dup4\n        /* \"#utility.yul\":28689:28693   */\n      dup4\n        /* \"#utility.yul\":28670:28699   */\n      tag_308\n      jump\t// in\n    tag_587:\n        /* \"#utility.yul\":28662:28699   */\n      swap2\n      pop\n        /* \"#utility.yul\":28732:28735   */\n      dup3\n        /* \"#utility.yul\":28729:28730   */\n      0x02\n        /* \"#utility.yul\":28725:28736   */\n      mul\n        /* \"#utility.yul\":28719:28723   */\n      dup3\n        /* \"#utility.yul\":28716:28737   */\n      or\n        /* \"#utility.yul\":28708:28737   */\n      swap1\n      pop\n        /* \"#utility.yul\":28448:28743   */\n      swap3\n      swap2\n      pop\n      pop\n      jump\t// out\n        /* \"#utility.yul\":28748:30143   */\n    tag_92:\n        /* \"#utility.yul\":28865:28902   */\n      tag_589\n        /* \"#utility.yul\":28898:28901   */\n      dup3\n        /* \"#utility.yul\":28865:28902   */\n      tag_230\n      jump\t// in\n    tag_589:\n        /* \"#utility.yul\":28967:28985   */\n      0xffffffffffffffff\n        /* \"#utility.yul\":28959:28965   */\n      dup2\n        /* \"#utility.yul\":28956:28986   */\n      gt\n        /* \"#utility.yul\":28953:29009   */\n      iszero\n      tag_590\n      jumpi\n        /* \"#utility.yul\":28989:29007   */\n      tag_591\n      tag_245\n      jump\t// in\n    tag_591:\n        /* \"#utility.yul\":28953:29009   */\n    tag_590:\n        /* \"#utility.yul\":29033:29071   */\n      tag_592\n        /* \"#utility.yul\":29065:29069   */\n      dup3\n        /* \"#utility.yul\":29059:29070   */\n      sload\n        /* \"#utility.yul\":29033:29071   */\n      tag_64\n      jump\t// in\n    tag_592:\n        /* \"#utility.yul\":29118:29185   */\n      tag_593\n        /* \"#utility.yul\":29178:29184   */\n      dup3\n        /* \"#utility.yul\":29170:29176   */\n      dup3\n        /* \"#utility.yul\":29164:29168   */\n      dup6\n        /* \"#utility.yul\":29118:29185   */\n      tag_306\n      jump\t// in\n    tag_593:\n        /* \"#utility.yul\":29212:29213   */\n      0x00\n        /* \"#utility.yul\":29236:29240   */\n      0x20\n        /* \"#utility.yul\":29223:29240   */\n      swap1\n      pop\n        /* \"#utility.yul\":29268:29270   */\n      0x1f\n        /* \"#utility.yul\":29260:29266   */\n      dup4\n        /* \"#utility.yul\":29257:29271   */\n      gt\n        /* \"#utility.yul\":29285:29286   */\n      0x01\n        /* \"#utility.yul\":29280:29898   */\n      dup2\n      eq\n      tag_595\n      jumpi\n        /* \"#utility.yul\":29942:29943   */\n      0x00\n        /* \"#utility.yul\":29959:29965   */\n      dup5\n        /* \"#utility.yul\":29956:30033   */\n      iszero\n      tag_596\n      jumpi\n        /* \"#utility.yul\":30008:30017   */\n      dup3\n        /* \"#utility.yul\":30003:30006   */\n      dup8\n        /* \"#utility.yul\":29999:30018   */\n      add\n        /* \"#utility.yul\":29993:30019   */\n      mload\n        /* \"#utility.yul\":29984:30019   */\n      swap1\n      pop\n        /* \"#utility.yul\":29956:30033   */\n    tag_596:\n        /* \"#utility.yul\":30059:30126   */\n      tag_597\n        /* \"#utility.yul\":30119:30125   */\n      dup6\n        /* \"#utility.yul\":30112:30117   */\n      dup3\n        /* \"#utility.yul\":30059:30126   */\n      tag_309\n      jump\t// in\n    tag_597:\n        /* \"#utility.yul\":30053:30057   */\n      dup7\n        /* \"#utility.yul\":30046:30127   */\n      sstore\n        /* \"#utility.yul\":29915:30137   */\n      pop\n        /* \"#utility.yul\":29250:30137   */\n      jump(tag_594)\n        /* \"#utility.yul\":29280:29898   */\n    tag_595:\n        /* \"#utility.yul\":29332:29336   */\n      0x1f\n        /* \"#utility.yul\":29328:29337   */\n      not\n        /* \"#utility.yul\":29320:29326   */\n      dup5\n        /* \"#utility.yul\":29316:29338   */\n      and\n        /* \"#utility.yul\":29366:29403   */\n      tag_598\n        /* \"#utility.yul\":29398:29402   */\n      dup7\n        /* \"#utility.yul\":29366:29403   */\n      tag_276\n      jump\t// in\n    tag_598:\n        /* \"#utility.yul\":29425:29426   */\n      0x00\n        /* \"#utility.yul\":29439:29647   */\n    tag_599:\n        /* \"#utility.yul\":29453:29460   */\n      dup3\n        /* \"#utility.yul\":29450:29451   */\n      dup2\n        /* \"#utility.yul\":29447:29461   */\n      lt\n        /* \"#utility.yul\":29439:29647   */\n      iszero\n      tag_601\n      jumpi\n        /* \"#utility.yul\":29532:29541   */\n      dup5\n        /* \"#utility.yul\":29527:29530   */\n      dup10\n        /* \"#utility.yul\":29523:29542   */\n      add\n        /* \"#utility.yul\":29517:29543   */\n      mload\n        /* \"#utility.yul\":29509:29515   */\n      dup3\n        /* \"#utility.yul\":29502:29544   */\n      sstore\n        /* \"#utility.yul\":29583:29584   */\n      0x01\n        /* \"#utility.yul\":29575:29581   */\n      dup3\n        /* \"#utility.yul\":29571:29585   */\n      add\n        /* \"#utility.yul\":29561:29585   */\n      swap2\n      pop\n        /* \"#utility.yul\":29630:29632   */\n      0x20\n        /* \"#utility.yul\":29619:29628   */\n      dup6\n        /* \"#utility.yul\":29615:29633   */\n      add\n        /* \"#utility.yul\":29602:29633   */\n      swap5\n      pop\n        /* \"#utility.yul\":29476:29480   */\n      0x20\n        /* \"#utility.yul\":29473:29474   */\n      dup2\n        /* \"#utility.yul\":29469:29481   */\n      add\n        /* \"#utility.yul\":29464:29481   */\n      swap1\n      pop\n        /* \"#utility.yul\":29439:29647   */\n      jump(tag_599)\n    tag_601:\n        /* \"#utility.yul\":29675:29681   */\n      dup7\n        /* \"#utility.yul\":29666:29673   */\n      dup4\n        /* \"#utility.yul\":29663:29682   */\n      lt\n        /* \"#utility.yul\":29660:29839   */\n      iszero\n      tag_602\n      jumpi\n        /* \"#utility.yul\":29733:29742   */\n      dup5\n        /* \"#utility.yul\":29728:29731   */\n      dup10\n        /* \"#utility.yul\":29724:29743   */\n      add\n        /* \"#utility.yul\":29718:29744   */\n      mload\n        /* \"#utility.yul\":29776:29824   */\n      tag_603\n        /* \"#utility.yul\":29818:29822   */\n      0x1f\n        /* \"#utility.yul\":29810:29816   */\n      dup10\n        /* \"#utility.yul\":29806:29823   */\n      and\n        /* \"#utility.yul\":29795:29804   */\n      dup3\n        /* \"#utility.yul\":29776:29824   */\n      tag_308\n      jump\t// in\n    tag_603:\n        /* \"#utility.yul\":29768:29774   */\n      dup4\n        /* \"#utility.yul\":29761:29825   */\n      sstore\n        /* \"#utility.yul\":29683:29839   */\n      pop\n        /* \"#utility.yul\":29660:29839   */\n    tag_602:\n        /* \"#utility.yul\":29885:29886   */\n      0x01\n        /* \"#utility.yul\":29881:29882   */\n      0x02\n        /* \"#utility.yul\":29873:29879   */\n      dup9\n        /* \"#utility.yul\":29869:29883   */\n      mul\n        /* \"#utility.yul\":29865:29887   */\n      add\n        /* \"#utility.yul\":29859:29863   */\n      dup9\n        /* \"#utility.yul\":29852:29888   */\n      sstore\n        /* \"#utility.yul\":29287:29898   */\n      pop\n      pop\n      pop\n        /* \"#utility.yul\":29250:30137   */\n    tag_594:\n      pop\n        /* \"#utility.yul\":28840:30143   */\n      pop\n      pop\n      pop\n        /* \"#utility.yul\":28748:30143   */\n      pop\n      pop\n      jump\t// out\n        /* \"#utility.yul\":30149:30329   */\n    tag_310:\n        /* \"#utility.yul\":30197:30274   */\n      0x4e487b7100000000000000000000000000000000000000000000000000000000\n        /* \"#utility.yul\":30194:30195   */\n      0x00\n        /* \"#utility.yul\":30187:30275   */\n      mstore\n        /* \"#utility.yul\":30294:30298   */\n      0x11\n        /* \"#utility.yul\":30291:30292   */\n      0x04\n        /* \"#utility.yul\":30284:30299   */\n      mstore\n        /* \"#utility.yul\":30318:30322   */\n      0x24\n        /* \"#utility.yul\":30315:30316   */\n      0x00\n        /* \"#utility.yul\":30308:30323   */\n      revert\n        /* \"#utility.yul\":30335:30529   */\n    tag_126:\n        /* \"#utility.yul\":30375:30379   */\n      0x00\n        /* \"#utility.yul\":30395:30415   */\n      tag_606\n        /* \"#utility.yul\":30413:30414   */\n      dup3\n        /* \"#utility.yul\":30395:30415   */\n      tag_235\n      jump\t// in\n    tag_606:\n        /* \"#utility.yul\":30390:30415   */\n      swap2\n      pop\n        /* \"#utility.yul\":30429:30449   */\n      tag_607\n        /* \"#utility.yul\":30447:30448   */\n      dup4\n        /* \"#utility.yul\":30429:30449   */\n      tag_235\n      jump\t// in\n    tag_607:\n        /* \"#utility.yul\":30424:30449   */\n      swap3\n      pop\n        /* \"#utility.yul\":30473:30474   */\n      dup3\n        /* \"#utility.yul\":30470:30471   */\n      dup3\n        /* \"#utility.yul\":30466:30475   */\n      sub\n        /* \"#utility.yul\":30458:30475   */\n      swap1\n      pop\n        /* \"#utility.yul\":30497:30498   */\n      dup2\n        /* \"#utility.yul\":30491:30495   */\n      dup2\n        /* \"#utility.yul\":30488:30499   */\n      gt\n        /* \"#utility.yul\":30485:30522   */\n      iszero\n      tag_608\n      jumpi\n        /* \"#utility.yul\":30502:30520   */\n      tag_609\n      tag_310\n      jump\t// in\n    tag_609:\n        /* \"#utility.yul\":30485:30522   */\n    tag_608:\n        /* \"#utility.yul\":30335:30529   */\n      swap3\n      swap2\n      pop\n      pop\n      jump\t// out\n        /* \"#utility.yul\":30535:30726   */\n    tag_128:\n        /* \"#utility.yul\":30575:30578   */\n      0x00\n        /* \"#utility.yul\":30594:30614   */\n      tag_611\n        /* \"#utility.yul\":30612:30613   */\n      dup3\n        /* \"#utility.yul\":30594:30614   */\n      tag_235\n      jump\t// in\n    tag_611:\n        /* \"#utility.yul\":30589:30614   */\n      swap2\n      pop\n        /* \"#utility.yul\":30628:30648   */\n      tag_612\n        /* \"#utility.yul\":30646:30647   */\n      dup4\n        /* \"#utility.yul\":30628:30648   */\n      tag_235\n      jump\t// in\n    tag_612:\n        /* \"#utility.yul\":30623:30648   */\n      swap3\n      pop\n        /* \"#utility.yul\":30671:30672   */\n      dup3\n        /* \"#utility.yul\":30668:30669   */\n      dup3\n        /* \"#utility.yul\":30664:30673   */\n      add\n        /* \"#utility.yul\":30657:30673   */\n      swap1\n      pop\n        /* \"#utility.yul\":30692:30695   */\n      dup1\n        /* \"#utility.yul\":30689:30690   */\n      dup3\n        /* \"#utility.yul\":30686:30696   */\n      gt\n        /* \"#utility.yul\":30683:30719   */\n      iszero\n      tag_613\n      jumpi\n        /* \"#utility.yul\":30699:30717   */\n      tag_614\n      tag_310\n      jump\t// in\n    tag_614:\n        /* \"#utility.yul\":30683:30719   */\n    tag_613:\n        /* \"#utility.yul\":30535:30726   */\n      swap3\n      swap2\n      pop\n      pop\n      jump\t// out\n        /* \"#utility.yul\":30732:30881   */\n    tag_311:\n        /* \"#utility.yul\":30781:30787   */\n      0x00\n        /* \"#utility.yul\":30815:30820   */\n      dup2\n        /* \"#utility.yul\":30809:30821   */\n      sload\n        /* \"#utility.yul\":30799:30821   */\n      swap1\n      pop\n        /* \"#utility.yul\":30841:30874   */\n      tag_616\n        /* \"#utility.yul\":30867:30873   */\n      dup2\n        /* \"#utility.yul\":30841:30874   */\n      tag_64\n      jump\t// in\n    tag_616:\n        /* \"#utility.yul\":30831:30874   */\n      swap1\n      pop\n        /* \"#utility.yul\":30732:30881   */\n      swap2\n      swap1\n      pop\n      jump\t// out\n        /* \"#utility.yul\":30887:32338   */\n    tag_136:\n        /* \"#utility.yul\":30998:31001   */\n      dup2\n        /* \"#utility.yul\":30992:30996   */\n      dup2\n        /* \"#utility.yul\":30989:31002   */\n      sub\n        /* \"#utility.yul\":30986:31012   */\n      tag_618\n      jumpi\n        /* \"#utility.yul\":31005:31010   */\n      pop\n      pop\n      jump(tag_617)\n        /* \"#utility.yul\":30986:31012   */\n    tag_618:\n        /* \"#utility.yul\":31036:31070   */\n      tag_619\n        /* \"#utility.yul\":31066:31069   */\n      dup3\n        /* \"#utility.yul\":31036:31070   */\n      tag_311\n      jump\t// in\n    tag_619:\n        /* \"#utility.yul\":31135:31153   */\n      0xffffffffffffffff\n        /* \"#utility.yul\":31127:31133   */\n      dup2\n        /* \"#utility.yul\":31124:31154   */\n      gt\n        /* \"#utility.yul\":31121:31177   */\n      iszero\n      tag_620\n      jumpi\n        /* \"#utility.yul\":31157:31175   */\n      tag_621\n      tag_245\n      jump\t// in\n    tag_621:\n        /* \"#utility.yul\":31121:31177   */\n    tag_620:\n        /* \"#utility.yul\":31201:31239   */\n      tag_622\n        /* \"#utility.yul\":31233:31237   */\n      dup3\n        /* \"#utility.yul\":31227:31238   */\n      sload\n        /* \"#utility.yul\":31201:31239   */\n      tag_64\n      jump\t// in\n    tag_622:\n        /* \"#utility.yul\":31286:31353   */\n      tag_623\n        /* \"#utility.yul\":31346:31352   */\n      dup3\n        /* \"#utility.yul\":31338:31344   */\n      dup3\n        /* \"#utility.yul\":31332:31336   */\n      dup6\n        /* \"#utility.yul\":31286:31353   */\n      tag_306\n      jump\t// in\n    tag_623:\n        /* \"#utility.yul\":31380:31381   */\n      0x00\n        /* \"#utility.yul\":31409:31411   */\n      0x1f\n        /* \"#utility.yul\":31401:31407   */\n      dup4\n        /* \"#utility.yul\":31398:31412   */\n      gt\n        /* \"#utility.yul\":31426:31427   */\n      0x01\n        /* \"#utility.yul\":31421:32093   */\n      dup2\n      eq\n      tag_625\n      jumpi\n        /* \"#utility.yul\":32137:32138   */\n      0x00\n        /* \"#utility.yul\":32154:32160   */\n      dup5\n        /* \"#utility.yul\":32151:32228   */\n      iszero\n      tag_626\n      jumpi\n        /* \"#utility.yul\":32203:32212   */\n      dup3\n        /* \"#utility.yul\":32198:32201   */\n      dup8\n        /* \"#utility.yul\":32194:32213   */\n      add\n        /* \"#utility.yul\":32188:32214   */\n      sload\n        /* \"#utility.yul\":32179:32214   */\n      swap1\n      pop\n        /* \"#utility.yul\":32151:32228   */\n    tag_626:\n        /* \"#utility.yul\":32254:32321   */\n      tag_627\n        /* \"#utility.yul\":32314:32320   */\n      dup6\n        /* \"#utility.yul\":32307:32312   */\n      dup3\n        /* \"#utility.yul\":32254:32321   */\n      tag_309\n      jump\t// in\n    tag_627:\n        /* \"#utility.yul\":32248:32252   */\n      dup7\n        /* \"#utility.yul\":32241:32322   */\n      sstore\n        /* \"#utility.yul\":32110:32332   */\n      pop\n        /* \"#utility.yul\":31391:32332   */\n      jump(tag_624)\n        /* \"#utility.yul\":31421:32093   */\n    tag_625:\n        /* \"#utility.yul\":31473:31477   */\n      0x1f\n        /* \"#utility.yul\":31469:31478   */\n      not\n        /* \"#utility.yul\":31461:31467   */\n      dup5\n        /* \"#utility.yul\":31457:31479   */\n      and\n        /* \"#utility.yul\":31499:31535   */\n      tag_628\n        /* \"#utility.yul\":31531:31534   */\n      dup8\n        /* \"#utility.yul\":31499:31535   */\n      tag_276\n      jump\t// in\n    tag_628:\n        /* \"#utility.yul\":31492:31535   */\n      swap7\n      pop\n        /* \"#utility.yul\":31562:31599   */\n      tag_629\n        /* \"#utility.yul\":31594:31598   */\n      dup7\n        /* \"#utility.yul\":31562:31599   */\n      tag_276\n      jump\t// in\n    tag_629:\n        /* \"#utility.yul\":31621:31622   */\n      0x00\n        /* \"#utility.yul\":31635:31842   */\n    tag_630:\n        /* \"#utility.yul\":31649:31656   */\n      dup3\n        /* \"#utility.yul\":31646:31647   */\n      dup2\n        /* \"#utility.yul\":31643:31657   */\n      lt\n        /* \"#utility.yul\":31635:31842   */\n      iszero\n      tag_632\n      jumpi\n        /* \"#utility.yul\":31728:31737   */\n      dup5\n        /* \"#utility.yul\":31723:31726   */\n      dup10\n        /* \"#utility.yul\":31719:31738   */\n      add\n        /* \"#utility.yul\":31713:31739   */\n      sload\n        /* \"#utility.yul\":31705:31711   */\n      dup3\n        /* \"#utility.yul\":31698:31740   */\n      sstore\n        /* \"#utility.yul\":31779:31780   */\n      0x01\n        /* \"#utility.yul\":31771:31777   */\n      dup3\n        /* \"#utility.yul\":31767:31781   */\n      add\n        /* \"#utility.yul\":31757:31781   */\n      swap2\n      pop\n        /* \"#utility.yul\":31826:31827   */\n      0x01\n        /* \"#utility.yul\":31815:31824   */\n      dup6\n        /* \"#utility.yul\":31811:31828   */\n      add\n        /* \"#utility.yul\":31798:31828   */\n      swap5\n      pop\n        /* \"#utility.yul\":31672:31676   */\n      0x20\n        /* \"#utility.yul\":31669:31670   */\n      dup2\n        /* \"#utility.yul\":31665:31677   */\n      add\n        /* \"#utility.yul\":31660:31677   */\n      swap1\n      pop\n        /* \"#utility.yul\":31635:31842   */\n      jump(tag_630)\n    tag_632:\n        /* \"#utility.yul\":31870:31876   */\n      dup7\n        /* \"#utility.yul\":31861:31868   */\n      dup4\n        /* \"#utility.yul\":31858:31877   */\n      lt\n        /* \"#utility.yul\":31855:32034   */\n      iszero\n      tag_633\n      jumpi\n        /* \"#utility.yul\":31928:31937   */\n      dup5\n        /* \"#utility.yul\":31923:31926   */\n      dup10\n        /* \"#utility.yul\":31919:31938   */\n      add\n        /* \"#utility.yul\":31913:31939   */\n      sload\n        /* \"#utility.yul\":31971:32019   */\n      tag_634\n        /* \"#utility.yul\":32013:32017   */\n      0x1f\n        /* \"#utility.yul\":32005:32011   */\n      dup10\n        /* \"#utility.yul\":32001:32018   */\n      and\n        /* \"#utility.yul\":31990:31999   */\n      dup3\n        /* \"#utility.yul\":31971:32019   */\n      tag_308\n      jump\t// in\n    tag_634:\n        /* \"#utility.yul\":31963:31969   */\n      dup4\n        /* \"#utility.yul\":31956:32020   */\n      sstore\n        /* \"#utility.yul\":31878:32034   */\n      pop\n        /* \"#utility.yul\":31855:32034   */\n    tag_633:\n        /* \"#utility.yul\":32080:32081   */\n      0x01\n        /* \"#utility.yul\":32076:32077   */\n      0x02\n        /* \"#utility.yul\":32068:32074   */\n      dup9\n        /* \"#utility.yul\":32064:32078   */\n      mul\n        /* \"#utility.yul\":32060:32082   */\n      add\n        /* \"#utility.yul\":32054:32058   */\n      dup9\n        /* \"#utility.yul\":32047:32083   */\n      sstore\n        /* \"#utility.yul\":31428:32093   */\n      pop\n      pop\n      pop\n        /* \"#utility.yul\":31391:32332   */\n    tag_624:\n      pop\n        /* \"#utility.yul\":30976:32338   */\n      pop\n      pop\n      pop\n        /* \"#utility.yul\":30887:32338   */\n      pop\n      pop\n    tag_617:\n      jump\t// out\n        /* \"#utility.yul\":32344:32524   */\n    tag_140:\n        /* \"#utility.yul\":32392:32469   */\n      0x4e487b7100000000000000000000000000000000000000000000000000000000\n        /* \"#utility.yul\":32389:32390   */\n      0x00\n        /* \"#utility.yul\":32382:32470   */\n      mstore\n        /* \"#utility.yul\":32489:32493   */\n      0x31\n        /* \"#utility.yul\":32486:32487   */\n      0x04\n        /* \"#utility.yul\":32479:32494   */\n      mstore\n        /* \"#utility.yul\":32513:32517   */\n      0x24\n        /* \"#utility.yul\":32510:32511   */\n      0x00\n        /* \"#utility.yul\":32503:32518   */\n      revert\n        /* \"#utility.yul\":32530:33125   */\n    tag_168:\n        /* \"#utility.yul\":32753:32757   */\n      0x00\n        /* \"#utility.yul\":32791:32793   */\n      0x40\n        /* \"#utility.yul\":32780:32789   */\n      dup3\n        /* \"#utility.yul\":32776:32794   */\n      add\n        /* \"#utility.yul\":32768:32794   */\n      swap1\n      pop\n        /* \"#utility.yul\":32840:32849   */\n      dup2\n        /* \"#utility.yul\":32834:32838   */\n      dup2\n        /* \"#utility.yul\":32830:32850   */\n      sub\n        /* \"#utility.yul\":32826:32827   */\n      0x00\n        /* \"#utility.yul\":32815:32824   */\n      dup4\n        /* \"#utility.yul\":32811:32828   */\n      add\n        /* \"#utility.yul\":32804:32851   */\n      mstore\n        /* \"#utility.yul\":32868:33028   */\n      tag_637\n        /* \"#utility.yul\":33023:33027   */\n      dup2\n        /* \"#utility.yul\":33014:33020   */\n      dup6\n        /* \"#utility.yul\":32868:33028   */\n      tag_287\n      jump\t// in\n    tag_637:\n        /* \"#utility.yul\":32860:33028   */\n      swap1\n      pop\n        /* \"#utility.yul\":33038:33118   */\n      tag_638\n        /* \"#utility.yul\":33114:33116   */\n      0x20\n        /* \"#utility.yul\":33103:33112   */\n      dup4\n        /* \"#utility.yul\":33099:33117   */\n      add\n        /* \"#utility.yul\":33090:33096   */\n      dup5\n        /* \"#utility.yul\":33038:33118   */\n      tag_291\n      jump\t// in\n    tag_638:\n        /* \"#utility.yul\":32530:33125   */\n      swap4\n      swap3\n      pop\n      pop\n      pop\n      jump\t// out\n        /* \"#utility.yul\":33131:33221   */\n    tag_312:\n        /* \"#utility.yul\":33165:33172   */\n      0x00\n        /* \"#utility.yul\":33208:33213   */\n      dup2\n        /* \"#utility.yul\":33201:33214   */\n      iszero\n        /* \"#utility.yul\":33194:33215   */\n      iszero\n        /* \"#utility.yul\":33183:33215   */\n      swap1\n      pop\n        /* \"#utility.yul\":33131:33221   */\n      swap2\n      swap1\n      pop\n      jump\t// out\n        /* \"#utility.yul\":33227:33343   */\n    tag_313:\n        /* \"#utility.yul\":33297:33318   */\n      tag_641\n        /* \"#utility.yul\":33312:33317   */\n      dup2\n        /* \"#utility.yul\":33297:33318   */\n      tag_312\n      jump\t// in\n    tag_641:\n        /* \"#utility.yul\":33290:33295   */\n      dup2\n        /* \"#utility.yul\":33287:33319   */\n      eq\n        /* \"#utility.yul\":33277:33337   */\n      tag_642\n      jumpi\n        /* \"#utility.yul\":33333:33334   */\n      0x00\n        /* \"#utility.yul\":33330:33331   */\n      dup1\n        /* \"#utility.yul\":33323:33335   */\n      revert\n        /* \"#utility.yul\":33277:33337   */\n    tag_642:\n        /* \"#utility.yul\":33227:33343   */\n      pop\n      jump\t// out\n        /* \"#utility.yul\":33349:33486   */\n    tag_314:\n        /* \"#utility.yul\":33403:33408   */\n      0x00\n        /* \"#utility.yul\":33434:33440   */\n      dup2\n        /* \"#utility.yul\":33428:33441   */\n      mload\n        /* \"#utility.yul\":33419:33441   */\n      swap1\n      pop\n        /* \"#utility.yul\":33450:33480   */\n      tag_644\n        /* \"#utility.yul\":33474:33479   */\n      dup2\n        /* \"#utility.yul\":33450:33480   */\n      tag_313\n      jump\t// in\n    tag_644:\n        /* \"#utility.yul\":33349:33486   */\n      swap3\n      swap2\n      pop\n      pop\n      jump\t// out\n        /* \"#utility.yul\":33492:33837   */\n    tag_172:\n        /* \"#utility.yul\":33559:33565   */\n      0x00\n        /* \"#utility.yul\":33608:33610   */\n      0x20\n        /* \"#utility.yul\":33596:33605   */\n      dup3\n        /* \"#utility.yul\":33587:33594   */\n      dup5\n        /* \"#utility.yul\":33583:33606   */\n      sub\n        /* \"#utility.yul\":33579:33611   */\n      slt\n        /* \"#utility.yul\":33576:33695   */\n      iszero\n      tag_646\n      jumpi\n        /* \"#utility.yul\":33614:33693   */\n      tag_647\n      tag_241\n      jump\t// in\n    tag_647:\n        /* \"#utility.yul\":33576:33695   */\n    tag_646:\n        /* \"#utility.yul\":33734:33735   */\n      0x00\n        /* \"#utility.yul\":33759:33820   */\n      tag_648\n        /* \"#utility.yul\":33812:33819   */\n      dup5\n        /* \"#utility.yul\":33803:33809   */\n      dup3\n        /* \"#utility.yul\":33792:33801   */\n      dup6\n        /* \"#utility.yul\":33788:33810   */\n      add\n        /* \"#utility.yul\":33759:33820   */\n      tag_314\n      jump\t// in\n    tag_648:\n        /* \"#utility.yul\":33749:33820   */\n      swap2\n      pop\n        /* \"#utility.yul\":33705:33830   */\n      pop\n        /* \"#utility.yul\":33492:33837   */\n      swap3\n      swap2\n      pop\n      pop\n      jump\t// out\n        /* \"#utility.yul\":33843:34016   */\n    tag_315:\n        /* \"#utility.yul\":33983:34008   */\n      0x50726f706f73656c20646f6573206e6f74206578697374000000000000000000\n        /* \"#utility.yul\":33979:33980   */\n      0x00\n        /* \"#utility.yul\":33971:33977   */\n      dup3\n        /* \"#utility.yul\":33967:33981   */\n      add\n        /* \"#utility.yul\":33960:34009   */\n      mstore\n        /* \"#utility.yul\":33843:34016   */\n      pop\n      jump\t// out\n        /* \"#utility.yul\":34022:34388   */\n    tag_316:\n        /* \"#utility.yul\":34164:34167   */\n      0x00\n        /* \"#utility.yul\":34185:34252   */\n      tag_651\n        /* \"#utility.yul\":34249:34251   */\n      0x17\n        /* \"#utility.yul\":34244:34247   */\n      dup4\n        /* \"#utility.yul\":34185:34252   */\n      tag_264\n      jump\t// in\n    tag_651:\n        /* \"#utility.yul\":34178:34252   */\n      swap2\n      pop\n        /* \"#utility.yul\":34261:34354   */\n      tag_652\n        /* \"#utility.yul\":34350:34353   */\n      dup3\n        /* \"#utility.yul\":34261:34354   */\n      tag_315\n      jump\t// in\n    tag_652:\n        /* \"#utility.yul\":34379:34381   */\n      0x20\n        /* \"#utility.yul\":34374:34377   */\n      dup3\n        /* \"#utility.yul\":34370:34382   */\n      add\n        /* \"#utility.yul\":34363:34382   */\n      swap1\n      pop\n        /* \"#utility.yul\":34022:34388   */\n      swap2\n      swap1\n      pop\n      jump\t// out\n        /* \"#utility.yul\":34394:34813   */\n    tag_175:\n        /* \"#utility.yul\":34560:34564   */\n      0x00\n        /* \"#utility.yul\":34598:34600   */\n      0x20\n        /* \"#utility.yul\":34587:34596   */\n      dup3\n        /* \"#utility.yul\":34583:34601   */\n      add\n        /* \"#utility.yul\":34575:34601   */\n      swap1\n      pop\n        /* \"#utility.yul\":34647:34656   */\n      dup2\n        /* \"#utility.yul\":34641:34645   */\n      dup2\n        /* \"#utility.yul\":34637:34657   */\n      sub\n        /* \"#utility.yul\":34633:34634   */\n      0x00\n        /* \"#utility.yul\":34622:34631   */\n      dup4\n        /* \"#utility.yul\":34618:34635   */\n      add\n        /* \"#utility.yul\":34611:34658   */\n      mstore\n        /* \"#utility.yul\":34675:34806   */\n      tag_654\n        /* \"#utility.yul\":34801:34805   */\n      dup2\n        /* \"#utility.yul\":34675:34806   */\n      tag_316\n      jump\t// in\n    tag_654:\n        /* \"#utility.yul\":34667:34806   */\n      swap1\n      pop\n        /* \"#utility.yul\":34394:34813   */\n      swap2\n      swap1\n      pop\n      jump\t// out\n        /* \"#utility.yul\":34819:34990   */\n    tag_185:\n        /* \"#utility.yul\":34858:34861   */\n      0x00\n        /* \"#utility.yul\":34881:34905   */\n      tag_656\n        /* \"#utility.yul\":34899:34904   */\n      dup3\n        /* \"#utility.yul\":34881:34905   */\n      tag_235\n      jump\t// in\n    tag_656:\n        /* \"#utility.yul\":34872:34905   */\n      swap2\n      pop\n        /* \"#utility.yul\":34927:34931   */\n      0x00\n        /* \"#utility.yul\":34920:34925   */\n      dup3\n        /* \"#utility.yul\":34917:34932   */\n      sub\n        /* \"#utility.yul\":34914:34955   */\n      tag_657\n      jumpi\n        /* \"#utility.yul\":34935:34953   */\n      tag_658\n      tag_310\n      jump\t// in\n    tag_658:\n        /* \"#utility.yul\":34914:34955   */\n    tag_657:\n        /* \"#utility.yul\":34982:34983   */\n      0x01\n        /* \"#utility.yul\":34975:34980   */\n      dup3\n        /* \"#utility.yul\":34971:34984   */\n      sub\n        /* \"#utility.yul\":34964:34984   */\n      swap1\n      pop\n        /* \"#utility.yul\":34819:34990   */\n      swap2\n      swap1\n      pop\n      jump\t// out\n        /* \"#utility.yul\":34996:35229   */\n    tag_202:\n        /* \"#utility.yul\":35035:35038   */\n      0x00\n        /* \"#utility.yul\":35058:35082   */\n      tag_660\n        /* \"#utility.yul\":35076:35081   */\n      dup3\n        /* \"#utility.yul\":35058:35082   */\n      tag_235\n      jump\t// in\n    tag_660:\n        /* \"#utility.yul\":35049:35082   */\n      swap2\n      pop\n        /* \"#utility.yul\":35104:35170   */\n      0xffffffffffffffffffffffffffffffffffffffffffffffffffffffffffffffff\n        /* \"#utility.yul\":35097:35102   */\n      dup3\n        /* \"#utility.yul\":35094:35171   */\n      sub\n        /* \"#utility.yul\":35091:35194   */\n      tag_661\n      jumpi\n        /* \"#utility.yul\":35174:35192   */\n      tag_662\n      tag_310\n      jump\t// in\n    tag_662:\n        /* \"#utility.yul\":35091:35194   */\n    tag_661:\n        /* \"#utility.yul\":35221:35222   */\n      0x01\n        /* \"#utility.yul\":35214:35219   */\n      dup3\n        /* \"#utility.yul\":35210:35223   */\n      add\n        /* \"#utility.yul\":35203:35223   */\n      swap1\n      pop\n        /* \"#utility.yul\":34996:35229   */\n      swap2\n      swap1\n      pop\n      jump\t// out\n\n    auxdata: 0xa2646970667358221220c34215b9dcb6db5c117037c734eedcd4eab4cccc2b09832ad4e0eb6570750df464736f6c63430008190033\n}\n",
				"bytecode": {
					"linkReferences": {
						"contracts/final/LibraryProposel.sol": {
							"UtilLibrary": [
								{
									"length": 20,
									"start": 945
								},
								{
									"length": 20,
									"start": 1616
								},
								{
									"length": 20,
									"start": 1642
								},
								{
									"length": 20,
									"start": 2170
								},
								{
									"length": 20,
									"start": 3810
								},
								{
									"length": 20,
									"start": 3995
								},
								{
									"length": 20,
									"start": 4179
								},
								{
									"length": 20,
									"start": 4364
								}
							]
						}
					},
					"object": "608060405234801561000f575f80fd5b50335f73ffffffffffffffffffffffffffffffffffffffff168173ffffffffffffffffffffffffffffffffffffffff1603610081575f6040517f1e4fbdf7000000000000000000000000000000000000000000000000000000008152600401610078919061019e565b60405180910390fd5b6100908161009e60201b60201c565b5060016003819055506101b7565b5f805f9054906101000a900473ffffffffffffffffffffffffffffffffffffffff169050815f806101000a81548173ffffffffffffffffffffffffffffffffffffffff021916908373ffffffffffffffffffffffffffffffffffffffff1602179055508173ffffffffffffffffffffffffffffffffffffffff168173ffffffffffffffffffffffffffffffffffffffff167f8be0079c531659141344cd1fd0a4f28419497f9722a3daafe3b4186f6b6457e060405160405180910390a35050565b5f73ffffffffffffffffffffffffffffffffffffffff82169050919050565b5f6101888261015f565b9050919050565b6101988161017e565b82525050565b5f6020820190506101b15f83018461018f565b92915050565b612400806101c45f395ff3fe608060405234801561000f575f80fd5b5060043610610091575f3560e01c80638da5cb5b116100645780638da5cb5b1461010b57806394964edf146101295780639b757a2c14610147578063ef46a75d14610163578063f2fde38b1461017f57610091565b80636c9a5fa4146100955780636f7789a1146100b3578063715018a6146100e35780637cdbf25c146100ed575b5f80fd5b61009d61019b565b6040516100aa9190611414565b60405180910390f35b6100cd60048036038101906100c89190611571565b610431565b6040516100da9190611414565b60405180910390f35b6100eb610651565b005b6100f5610664565b6040516101029190611414565b60405180910390f35b610113610afc565b60405161012091906115f6565b60405180910390f35b610131610b23565b60405161013e919061176a565b60405180910390f35b610161600480360381019061015c91906117b4565b610d1b565b005b61017d600480360381019061017891906117b4565b610e8c565b005b61019960048036038101906101949190611809565b610ffd565b005b6101a36111ec565b5f600280549050116101ea576040517f08c379a00000000000000000000000000000000000000000000000000000000081526004016101e19061188e565b60405180910390fd5b5f73__$82b61f054658045e23d532ad3e00111aa2$__634cde537160026040518263ffffffff1660e01b81526004016102239190611bf4565b602060405180830381865af415801561023e573d5f803e3d5ffd5b505050506040513d601f19601f820116820180604052508101906102629190611c28565b90506002818154811061027857610277611c53565b5b905f5260205f2090600702016040518060e00160405290815f82015f9054906101000a900473ffffffffffffffffffffffffffffffffffffffff1673ffffffffffffffffffffffffffffffffffffffff1673ffffffffffffffffffffffffffffffffffffffff1681526020016001820180546102f390611957565b80601f016020809104026020016040519081016040528092919081815260200182805461031f90611957565b801561036a5780601f106103415761010080835404028352916020019161036a565b820191905f5260205f20905b81548152906001019060200180831161034d57829003601f168201915b5050505050815260200160028201805461038390611957565b80601f01602080910402602001604051908101604052809291908181526020018280546103af90611957565b80156103fa5780601f106103d1576101008083540402835291602001916103fa565b820191905f5260205f20905b8154815290600101906020018083116103dd57829003601f168201915b5050505050815260200160038201548152602001600482015481526020016005820154815260200160068201548152505091505090565b6104396111ec565b5f610442611081565b90505f6040518060e001604052803373ffffffffffffffffffffffffffffffffffffffff1681526020018681526020018581526020014281526020015f815260200183815260200173__$82b61f054658045e23d532ad3e00111aa2$__636149453873__$82b61f054658045e23d532ad3e00111aa2$__63f608ab788a8a428a6040518563ffffffff1660e01b81526004016104e19493929190611cd7565b5f60405180830381865af41580156104fb573d5f803e3d5ffd5b505050506040513d5f823e3d601f19601f820116820180604052508101906105239190611d96565b6040518263ffffffff1660e01b815260040161053f9190611ddd565b602060405180830381865af415801561055a573d5f803e3d5ffd5b505050506040513d601f19601f8201168201806040525081019061057e9190611e27565b8152509050600281908060018154018082558091505060019003905f5260205f2090600702015f909190919091505f820151815f015f6101000a81548173ffffffffffffffffffffffffffffffffffffffff021916908373ffffffffffffffffffffffffffffffffffffffff16021790555060208201518160010190816106059190611fdd565b50604082015181600201908161061b9190611fdd565b50606082015181600301556080820151816004015560a0820151816005015560c082015181600601555050809250505092915050565b61065961109d565b6106625f611124565b565b61066c6111ec565b5f600280549050116106b3576040517f08c379a00000000000000000000000000000000000000000000000000000000081526004016106aa9061188e565b60405180910390fd5b5f73__$82b61f054658045e23d532ad3e00111aa2$__634cde537160026040518263ffffffff1660e01b81526004016106ec9190611bf4565b602060405180830381865af4158015610707573d5f803e3d5ffd5b505050506040513d601f19601f8201168201806040525081019061072b9190611c28565b90505f6002828154811061074257610741611c53565b5b905f5260205f2090600702016040518060e00160405290815f82015f9054906101000a900473ffffffffffffffffffffffffffffffffffffffff1673ffffffffffffffffffffffffffffffffffffffff1673ffffffffffffffffffffffffffffffffffffffff1681526020016001820180546107bd90611957565b80601f01602080910402602001604051908101604052809291908181526020018280546107e990611957565b80156108345780601f1061080b57610100808354040283529160200191610834565b820191905f5260205f20905b81548152906001019060200180831161081757829003601f168201915b5050505050815260200160028201805461084d90611957565b80601f016020809104026020016040519081016040528092919081815260200182805461087990611957565b80156108c45780601f1061089b576101008083540402835291602001916108c4565b820191905f5260205f20905b8154815290600101906020018083116108a757829003601f168201915b5050505050815260200160038201548152602001600482015481526020016005820154815260200160068201548152505090505f8290505b600160028054905061090e91906120d9565b811015610a26576002600182610924919061210c565b8154811061093557610934611c53565b5b905f5260205f2090600702016002828154811061095557610954611c53565b5b905f5260205f2090600702015f82015f9054906101000a900473ffffffffffffffffffffffffffffffffffffffff16815f015f6101000a81548173ffffffffffffffffffffffffffffffffffffffff021916908373ffffffffffffffffffffffffffffffffffffffff160217905550600182018160010190816109d89190612154565b50600282018160020190816109ed9190612154565b506003820154816003015560048201548160040155600582015481600501556006820154816006015590505080806001019150506108fc565b506002805480610a3957610a38612239565b5b600190038181905f5260205f2090600702015f8082015f6101000a81549073ffffffffffffffffffffffffffffffffffffffff0219169055600182015f610a80919061123d565b600282015f610a8f919061123d565b600382015f9055600482015f9055600582015f9055600682015f9055505090555f5b600280549050811015610af3575f60028281548110610ad357610ad2611c53565b5b905f5260205f209060070201600401819055508080600101915050610ab1565b50809250505090565b5f805f9054906101000a900473ffffffffffffffffffffffffffffffffffffffff16905090565b60606002805480602002602001604051908101604052809291908181526020015f905b82821015610d12578382905f5260205f2090600702016040518060e00160405290815f82015f9054906101000a900473ffffffffffffffffffffffffffffffffffffffff1673ffffffffffffffffffffffffffffffffffffffff1673ffffffffffffffffffffffffffffffffffffffff168152602001600182018054610bcb90611957565b80601f0160208091040260200160405190810160405280929190818152602001828054610bf790611957565b8015610c425780601f10610c1957610100808354040283529160200191610c42565b820191905f5260205f20905b815481529060010190602001808311610c2557829003601f168201915b50505050508152602001600282018054610c5b90611957565b80601f0160208091040260200160405190810160405280929190818152602001828054610c8790611957565b8015610cd25780601f10610ca957610100808354040283529160200191610cd2565b820191905f5260205f20905b815481529060010190602001808311610cb557829003601f168201915b5050505050815260200160038201548152602001600482015481526020016005820154815260200160068201548152505081526020019060010190610b46565b50505050905090565b8073__$82b61f054658045e23d532ad3e00111aa2$__63ebb596ce6002836040518363ffffffff1660e01b8152600401610d56929190612266565b602060405180830381865af4158015610d71573d5f803e3d5ffd5b505050506040513d601f19601f82011682018060405250810190610d9591906122c9565b610dd4576040517f08c379a0000000000000000000000000000000000000000000000000000000008152600401610dcb9061233e565b60405180910390fd5b5f73__$82b61f054658045e23d532ad3e00111aa2$__628f863f6002856040518363ffffffff1660e01b8152600401610e0e929190612266565b602060405180830381865af4158015610e29573d5f803e3d5ffd5b505050506040513d601f19601f82011682018060405250810190610e4d9190611c28565b905060028181548110610e6357610e62611c53565b5b905f5260205f2090600702016004015f815480929190610e829061235c565b9190505550505050565b8073__$82b61f054658045e23d532ad3e00111aa2$__63ebb596ce6002836040518363ffffffff1660e01b8152600401610ec7929190612266565b602060405180830381865af4158015610ee2573d5f803e3d5ffd5b505050506040513d601f19601f82011682018060405250810190610f0691906122c9565b610f45576040517f08c379a0000000000000000000000000000000000000000000000000000000008152600401610f3c9061233e565b60405180910390fd5b5f73__$82b61f054658045e23d532ad3e00111aa2$__628f863f6002856040518363ffffffff1660e01b8152600401610f7f929190612266565b602060405180830381865af4158015610f9a573d5f803e3d5ffd5b505050506040513d601f19601f82011682018060405250810190610fbe9190611c28565b905060028181548110610fd457610fd3611c53565b5b905f5260205f2090600702016004015f815480929190610ff390612383565b9190505550505050565b61100561109d565b5f73ffffffffffffffffffffffffffffffffffffffff168173ffffffffffffffffffffffffffffffffffffffff1603611075575f6040517f1e4fbdf700000000000000000000000000000000000000000000000000000000815260040161106c91906115f6565b60405180910390fd5b61107e81611124565b50565b5f60035f81548092919061109490612383565b91905055905090565b6110a56111e5565b73ffffffffffffffffffffffffffffffffffffffff166110c3610afc565b73ffffffffffffffffffffffffffffffffffffffff1614611122576110e66111e5565b6040517f118cdaa700000000000000000000000000000000000000000000000000000000815260040161111991906115f6565b60405180910390fd5b565b5f805f9054906101000a900473ffffffffffffffffffffffffffffffffffffffff169050815f806101000a81548173ffffffffffffffffffffffffffffffffffffffff021916908373ffffffffffffffffffffffffffffffffffffffff1602179055508173ffffffffffffffffffffffffffffffffffffffff168173ffffffffffffffffffffffffffffffffffffffff167f8be0079c531659141344cd1fd0a4f28419497f9722a3daafe3b4186f6b6457e060405160405180910390a35050565b5f33905090565b6040518060e001604052805f73ffffffffffffffffffffffffffffffffffffffff16815260200160608152602001606081526020015f81526020015f81526020015f81526020015f80191681525090565b50805461124990611957565b5f825580601f1061125a5750611277565b601f0160209004905f5260205f2090810190611276919061127a565b5b50565b5b80821115611291575f815f90555060010161127b565b5090565b5f73ffffffffffffffffffffffffffffffffffffffff82169050919050565b5f6112be82611295565b9050919050565b6112ce816112b4565b82525050565b5f81519050919050565b5f82825260208201905092915050565b8281835e5f83830152505050565b5f601f19601f8301169050919050565b5f611316826112d4565b61132081856112de565b93506113308185602086016112ee565b611339816112fc565b840191505092915050565b5f819050919050565b61135681611344565b82525050565b5f819050919050565b61136e8161135c565b82525050565b5f60e083015f8301516113895f8601826112c5565b50602083015184820360208601526113a1828261130c565b915050604083015184820360408601526113bb828261130c565b91505060608301516113d0606086018261134d565b5060808301516113e3608086018261134d565b5060a08301516113f660a086018261134d565b5060c083015161140960c0860182611365565b508091505092915050565b5f6020820190508181035f83015261142c8184611374565b905092915050565b5f604051905090565b5f80fd5b5f80fd5b5f80fd5b5f80fd5b7f4e487b71000000000000000000000000000000000000000000000000000000005f52604160045260245ffd5b611483826112fc565b810181811067ffffffffffffffff821117156114a2576114a161144d565b5b80604052505050565b5f6114b4611434565b90506114c0828261147a565b919050565b5f67ffffffffffffffff8211156114df576114de61144d565b5b6114e8826112fc565b9050602081019050919050565b828183375f83830152505050565b5f611515611510846114c5565b6114ab565b90508281526020810184848401111561153157611530611449565b5b61153c8482856114f5565b509392505050565b5f82601f83011261155857611557611445565b5b8135611568848260208601611503565b91505092915050565b5f80604083850312156115875761158661143d565b5b5f83013567ffffffffffffffff8111156115a4576115a3611441565b5b6115b085828601611544565b925050602083013567ffffffffffffffff8111156115d1576115d0611441565b5b6115dd85828601611544565b9150509250929050565b6115f0816112b4565b82525050565b5f6020820190506116095f8301846115e7565b92915050565b5f81519050919050565b5f82825260208201905092915050565b5f819050602082019050919050565b5f60e083015f83015161164d5f8601826112c5565b5060208301518482036020860152611665828261130c565b9150506040830151848203604086015261167f828261130c565b9150506060830151611694606086018261134d565b5060808301516116a7608086018261134d565b5060a08301516116ba60a086018261134d565b5060c08301516116cd60c0860182611365565b508091505092915050565b5f6116e38383611638565b905092915050565b5f602082019050919050565b5f6117018261160f565b61170b8185611619565b93508360208202850161171d85611629565b805f5b85811015611758578484038952815161173985826116d8565b9450611744836116eb565b925060208a01995050600181019050611720565b50829750879550505050505092915050565b5f6020820190508181035f83015261178281846116f7565b905092915050565b61179381611344565b811461179d575f80fd5b50565b5f813590506117ae8161178a565b92915050565b5f602082840312156117c9576117c861143d565b5b5f6117d6848285016117a0565b91505092915050565b6117e8816112b4565b81146117f2575f80fd5b50565b5f81359050611803816117df565b92915050565b5f6020828403121561181e5761181d61143d565b5b5f61182b848285016117f5565b91505092915050565b5f82825260208201905092915050565b7f4e6f2070726f706f73656c7320617661696c6162656c000000000000000000005f82015250565b5f611878601683611834565b915061188382611844565b602082019050919050565b5f6020820190508181035f8301526118a58161186c565b9050919050565b5f81549050919050565b5f82825260208201905092915050565b5f819050815f5260205f209050919050565b5f815f1c9050919050565b5f73ffffffffffffffffffffffffffffffffffffffff82169050919050565b5f61191461190f836118d8565b6118e3565b9050919050565b611924816112b4565b82525050565b7f4e487b71000000000000000000000000000000000000000000000000000000005f52602260045260245ffd5b5f600282049050600182168061196e57607f821691505b6020821081036119815761198061192a565b5b50919050565b5f82825260208201905092915050565b5f819050815f5260205f209050919050565b5f81546119b581611957565b6119bf8186611987565b9450600182165f81146119d957600181146119ef57611a21565b60ff198316865281151560200286019350611a21565b6119f885611997565b5f5b83811015611a19578154818901526001820191506020810190506119fa565b808801955050505b50505092915050565b5f819050919050565b5f611a45611a40836118d8565b611a2a565b9050919050565b611a5581611344565b82525050565b5f819050919050565b5f611a76611a71836118d8565b611a5b565b9050919050565b611a868161135c565b82525050565b5f60e083015f808401549050611aa181611902565b611aad5f87018261191b565b50600184018583036020870152611ac483826119a9565b925050600284018583036040870152611add83826119a9565b92505060038401549050611af081611a33565b611afd6060870182611a4c565b5060048401549050611b0e81611a33565b611b1b6080870182611a4c565b5060058401549050611b2c81611a33565b611b3960a0870182611a4c565b5060068401549050611b4a81611a64565b611b5760c0870182611a7d565b50819250505092915050565b5f611b6e8383611a8c565b905092915050565b5f600782019050919050565b5f611b8c826118ac565b611b9681856118b6565b935083602082028501611ba8856118c6565b805f5b85811015611be257848403895281611bc38582611b63565b9450611bce83611b76565b925060208a01995050600181019050611bab565b50829750879550505050505092915050565b5f6020820190508181035f830152611c0c8184611b82565b905092915050565b5f81519050611c228161178a565b92915050565b5f60208284031215611c3d57611c3c61143d565b5b5f611c4a84828501611c14565b91505092915050565b7f4e487b71000000000000000000000000000000000000000000000000000000005f52603260045260245ffd5b5f82825260208201905092915050565b5f611c9a826112d4565b611ca48185611c80565b9350611cb48185602086016112ee565b611cbd816112fc565b840191505092915050565b611cd181611344565b82525050565b5f6080820190508181035f830152611cef8187611c90565b90508181036020830152611d038186611c90565b9050611d126040830185611cc8565b611d1f6060830184611cc8565b95945050505050565b5f611d3a611d35846114c5565b6114ab565b905082815260208101848484011115611d5657611d55611449565b5b611d618482856112ee565b509392505050565b5f82601f830112611d7d57611d7c611445565b5b8151611d8d848260208601611d28565b91505092915050565b5f60208284031215611dab57611daa61143d565b5b5f82015167ffffffffffffffff811115611dc857611dc7611441565b5b611dd484828501611d69565b91505092915050565b5f6020820190508181035f830152611df58184611c90565b905092915050565b611e068161135c565b8114611e10575f80fd5b50565b5f81519050611e2181611dfd565b92915050565b5f60208284031215611e3c57611e3b61143d565b5b5f611e4984828501611e13565b91505092915050565b5f6020601f8301049050919050565b5f82821b905092915050565b5f60088302611e9c7fffffffffffffffffffffffffffffffffffffffffffffffffffffffffffffffff82611e61565b611ea68683611e61565b95508019841693508086168417925050509392505050565b5f819050919050565b5f611ee1611edc611ed784611344565b611ebe565b611344565b9050919050565b5f819050919050565b611efa83611ec7565b611f0e611f0682611ee8565b848454611e6d565b825550505050565b5f90565b611f22611f16565b611f2d818484611ef1565b505050565b5b81811015611f5057611f455f82611f1a565b600181019050611f33565b5050565b601f821115611f9557611f6681611997565b611f6f84611e52565b81016020851015611f7e578190505b611f92611f8a85611e52565b830182611f32565b50505b505050565b5f82821c905092915050565b5f611fb55f1984600802611f9a565b1980831691505092915050565b5f611fcd8383611fa6565b9150826002028217905092915050565b611fe6826112d4565b67ffffffffffffffff811115611fff57611ffe61144d565b5b6120098254611957565b612014828285611f54565b5f60209050601f831160018114612045575f8415612033578287015190505b61203d8582611fc2565b8655506120a4565b601f19841661205386611997565b5f5b8281101561207a57848901518255600182019150602085019450602081019050612055565b868310156120975784890151612093601f891682611fa6565b8355505b6001600288020188555050505b505050505050565b7f4e487b71000000000000000000000000000000000000000000000000000000005f52601160045260245ffd5b5f6120e382611344565b91506120ee83611344565b9250828203905081811115612106576121056120ac565b5b92915050565b5f61211682611344565b915061212183611344565b9250828201905080821115612139576121386120ac565b5b92915050565b5f8154905061214d81611957565b9050919050565b818103612162575050612237565b61216b8261213f565b67ffffffffffffffff8111156121845761218361144d565b5b61218e8254611957565b612199828285611f54565b5f601f8311600181146121c6575f84156121b4578287015490505b6121be8582611fc2565b865550612230565b601f1984166121d487611997565b96506121df86611997565b5f5b82811015612206578489015482556001820191506001850194506020810190506121e1565b86831015612223578489015461221f601f891682611fa6565b8355505b6001600288020188555050505b5050505050505b565b7f4e487b71000000000000000000000000000000000000000000000000000000005f52603160045260245ffd5b5f6040820190508181035f83015261227e8185611b82565b905061228d6020830184611cc8565b9392505050565b5f8115159050919050565b6122a881612294565b81146122b2575f80fd5b50565b5f815190506122c38161229f565b92915050565b5f602082840312156122de576122dd61143d565b5b5f6122eb848285016122b5565b91505092915050565b7f50726f706f73656c20646f6573206e6f742065786973740000000000000000005f82015250565b5f612328601783611834565b9150612333826122f4565b602082019050919050565b5f6020820190508181035f8301526123558161231c565b9050919050565b5f61236682611344565b91505f8203612378576123776120ac565b5b600182039050919050565b5f61238d82611344565b91507fffffffffffffffffffffffffffffffffffffffffffffffffffffffffffffffff82036123bf576123be6120ac565b5b60018201905091905056fea2646970667358221220c34215b9dcb6db5c117037c734eedcd4eab4cccc2b09832ad4e0eb6570750df464736f6c63430008190033",
					"opcodes": "PUSH1 0x80 PUSH1 0x40 MSTORE CALLVALUE DUP1 ISZERO PUSH2 0xF JUMPI PUSH0 DUP1 REVERT JUMPDEST POP CALLER PUSH0 PUSH20 0xFFFFFFFFFFFFFFFFFFFFFFFFFFFFFFFFFFFFFFFF AND DUP2 PUSH20 0xFFFFFFFFFFFFFFFFFFFFFFFFFFFFFFFFFFFFFFFF AND SUB PUSH2 0x81 JUMPI PUSH0 PUSH1 0x40 MLOAD PUSH32 0x1E4FBDF700000000000000000000000000000000000000000000000000000000 DUP2 MSTORE PUSH1 0x4 ADD PUSH2 0x78 SWAP2 SWAP1 PUSH2 0x19E JUMP JUMPDEST PUSH1 0x40 MLOAD DUP1 SWAP2 SUB SWAP1 REVERT JUMPDEST PUSH2 0x90 DUP2 PUSH2 0x9E PUSH1 0x20 SHL PUSH1 0x20 SHR JUMP JUMPDEST POP PUSH1 0x1 PUSH1 0x3 DUP2 SWAP1 SSTORE POP PUSH2 0x1B7 JUMP JUMPDEST PUSH0 DUP1 PUSH0 SWAP1 SLOAD SWAP1 PUSH2 0x100 EXP SWAP1 DIV PUSH20 0xFFFFFFFFFFFFFFFFFFFFFFFFFFFFFFFFFFFFFFFF AND SWAP1 POP DUP2 PUSH0 DUP1 PUSH2 0x100 EXP DUP2 SLOAD DUP2 PUSH20 0xFFFFFFFFFFFFFFFFFFFFFFFFFFFFFFFFFFFFFFFF MUL NOT AND SWAP1 DUP4 PUSH20 0xFFFFFFFFFFFFFFFFFFFFFFFFFFFFFFFFFFFFFFFF AND MUL OR SWAP1 SSTORE POP DUP2 PUSH20 0xFFFFFFFFFFFFFFFFFFFFFFFFFFFFFFFFFFFFFFFF AND DUP2 PUSH20 0xFFFFFFFFFFFFFFFFFFFFFFFFFFFFFFFFFFFFFFFF AND PUSH32 0x8BE0079C531659141344CD1FD0A4F28419497F9722A3DAAFE3B4186F6B6457E0 PUSH1 0x40 MLOAD PUSH1 0x40 MLOAD DUP1 SWAP2 SUB SWAP1 LOG3 POP POP JUMP JUMPDEST PUSH0 PUSH20 0xFFFFFFFFFFFFFFFFFFFFFFFFFFFFFFFFFFFFFFFF DUP3 AND SWAP1 POP SWAP2 SWAP1 POP JUMP JUMPDEST PUSH0 PUSH2 0x188 DUP3 PUSH2 0x15F JUMP JUMPDEST SWAP1 POP SWAP2 SWAP1 POP JUMP JUMPDEST PUSH2 0x198 DUP2 PUSH2 0x17E JUMP JUMPDEST DUP3 MSTORE POP POP JUMP JUMPDEST PUSH0 PUSH1 0x20 DUP3 ADD SWAP1 POP PUSH2 0x1B1 PUSH0 DUP4 ADD DUP5 PUSH2 0x18F JUMP JUMPDEST SWAP3 SWAP2 POP POP JUMP JUMPDEST PUSH2 0x2400 DUP1 PUSH2 0x1C4 PUSH0 CODECOPY PUSH0 RETURN INVALID PUSH1 0x80 PUSH1 0x40 MSTORE CALLVALUE DUP1 ISZERO PUSH2 0xF JUMPI PUSH0 DUP1 REVERT JUMPDEST POP PUSH1 0x4 CALLDATASIZE LT PUSH2 0x91 JUMPI PUSH0 CALLDATALOAD PUSH1 0xE0 SHR DUP1 PUSH4 0x8DA5CB5B GT PUSH2 0x64 JUMPI DUP1 PUSH4 0x8DA5CB5B EQ PUSH2 0x10B JUMPI DUP1 PUSH4 0x94964EDF EQ PUSH2 0x129 JUMPI DUP1 PUSH4 0x9B757A2C EQ PUSH2 0x147 JUMPI DUP1 PUSH4 0xEF46A75D EQ PUSH2 0x163 JUMPI DUP1 PUSH4 0xF2FDE38B EQ PUSH2 0x17F JUMPI PUSH2 0x91 JUMP JUMPDEST DUP1 PUSH4 0x6C9A5FA4 EQ PUSH2 0x95 JUMPI DUP1 PUSH4 0x6F7789A1 EQ PUSH2 0xB3 JUMPI DUP1 PUSH4 0x715018A6 EQ PUSH2 0xE3 JUMPI DUP1 PUSH4 0x7CDBF25C EQ PUSH2 0xED JUMPI JUMPDEST PUSH0 DUP1 REVERT JUMPDEST PUSH2 0x9D PUSH2 0x19B JUMP JUMPDEST PUSH1 0x40 MLOAD PUSH2 0xAA SWAP2 SWAP1 PUSH2 0x1414 JUMP JUMPDEST PUSH1 0x40 MLOAD DUP1 SWAP2 SUB SWAP1 RETURN JUMPDEST PUSH2 0xCD PUSH1 0x4 DUP1 CALLDATASIZE SUB DUP2 ADD SWAP1 PUSH2 0xC8 SWAP2 SWAP1 PUSH2 0x1571 JUMP JUMPDEST PUSH2 0x431 JUMP JUMPDEST PUSH1 0x40 MLOAD PUSH2 0xDA SWAP2 SWAP1 PUSH2 0x1414 JUMP JUMPDEST PUSH1 0x40 MLOAD DUP1 SWAP2 SUB SWAP1 RETURN JUMPDEST PUSH2 0xEB PUSH2 0x651 JUMP JUMPDEST STOP JUMPDEST PUSH2 0xF5 PUSH2 0x664 JUMP JUMPDEST PUSH1 0x40 MLOAD PUSH2 0x102 SWAP2 SWAP1 PUSH2 0x1414 JUMP JUMPDEST PUSH1 0x40 MLOAD DUP1 SWAP2 SUB SWAP1 RETURN JUMPDEST PUSH2 0x113 PUSH2 0xAFC JUMP JUMPDEST PUSH1 0x40 MLOAD PUSH2 0x120 SWAP2 SWAP1 PUSH2 0x15F6 JUMP JUMPDEST PUSH1 0x40 MLOAD DUP1 SWAP2 SUB SWAP1 RETURN JUMPDEST PUSH2 0x131 PUSH2 0xB23 JUMP JUMPDEST PUSH1 0x40 MLOAD PUSH2 0x13E SWAP2 SWAP1 PUSH2 0x176A JUMP JUMPDEST PUSH1 0x40 MLOAD DUP1 SWAP2 SUB SWAP1 RETURN JUMPDEST PUSH2 0x161 PUSH1 0x4 DUP1 CALLDATASIZE SUB DUP2 ADD SWAP1 PUSH2 0x15C SWAP2 SWAP1 PUSH2 0x17B4 JUMP JUMPDEST PUSH2 0xD1B JUMP JUMPDEST STOP JUMPDEST PUSH2 0x17D PUSH1 0x4 DUP1 CALLDATASIZE SUB DUP2 ADD SWAP1 PUSH2 0x178 SWAP2 SWAP1 PUSH2 0x17B4 JUMP JUMPDEST PUSH2 0xE8C JUMP JUMPDEST STOP JUMPDEST PUSH2 0x199 PUSH1 0x4 DUP1 CALLDATASIZE SUB DUP2 ADD SWAP1 PUSH2 0x194 SWAP2 SWAP1 PUSH2 0x1809 JUMP JUMPDEST PUSH2 0xFFD JUMP JUMPDEST STOP JUMPDEST PUSH2 0x1A3 PUSH2 0x11EC JUMP JUMPDEST PUSH0 PUSH1 0x2 DUP1 SLOAD SWAP1 POP GT PUSH2 0x1EA JUMPI PUSH1 0x40 MLOAD PUSH32 0x8C379A000000000000000000000000000000000000000000000000000000000 DUP2 MSTORE PUSH1 0x4 ADD PUSH2 0x1E1 SWAP1 PUSH2 0x188E JUMP JUMPDEST PUSH1 0x40 MLOAD DUP1 SWAP2 SUB SWAP1 REVERT JUMPDEST PUSH0 PUSH20 0x0 PUSH4 0x4CDE5371 PUSH1 0x2 PUSH1 0x40 MLOAD DUP3 PUSH4 0xFFFFFFFF AND PUSH1 0xE0 SHL DUP2 MSTORE PUSH1 0x4 ADD PUSH2 0x223 SWAP2 SWAP1 PUSH2 0x1BF4 JUMP JUMPDEST PUSH1 0x20 PUSH1 0x40 MLOAD DUP1 DUP4 SUB DUP2 DUP7 GAS DELEGATECALL ISZERO DUP1 ISZERO PUSH2 0x23E JUMPI RETURNDATASIZE PUSH0 DUP1 RETURNDATACOPY RETURNDATASIZE PUSH0 REVERT JUMPDEST POP POP POP POP PUSH1 0x40 MLOAD RETURNDATASIZE PUSH1 0x1F NOT PUSH1 0x1F DUP3 ADD AND DUP3 ADD DUP1 PUSH1 0x40 MSTORE POP DUP2 ADD SWAP1 PUSH2 0x262 SWAP2 SWAP1 PUSH2 0x1C28 JUMP JUMPDEST SWAP1 POP PUSH1 0x2 DUP2 DUP2 SLOAD DUP2 LT PUSH2 0x278 JUMPI PUSH2 0x277 PUSH2 0x1C53 JUMP JUMPDEST JUMPDEST SWAP1 PUSH0 MSTORE PUSH1 0x20 PUSH0 KECCAK256 SWAP1 PUSH1 0x7 MUL ADD PUSH1 0x40 MLOAD DUP1 PUSH1 0xE0 ADD PUSH1 0x40 MSTORE SWAP1 DUP2 PUSH0 DUP3 ADD PUSH0 SWAP1 SLOAD SWAP1 PUSH2 0x100 EXP SWAP1 DIV PUSH20 0xFFFFFFFFFFFFFFFFFFFFFFFFFFFFFFFFFFFFFFFF AND PUSH20 0xFFFFFFFFFFFFFFFFFFFFFFFFFFFFFFFFFFFFFFFF AND PUSH20 0xFFFFFFFFFFFFFFFFFFFFFFFFFFFFFFFFFFFFFFFF AND DUP2 MSTORE PUSH1 0x20 ADD PUSH1 0x1 DUP3 ADD DUP1 SLOAD PUSH2 0x2F3 SWAP1 PUSH2 0x1957 JUMP JUMPDEST DUP1 PUSH1 0x1F ADD PUSH1 0x20 DUP1 SWAP2 DIV MUL PUSH1 0x20 ADD PUSH1 0x40 MLOAD SWAP1 DUP2 ADD PUSH1 0x40 MSTORE DUP1 SWAP3 SWAP2 SWAP1 DUP2 DUP2 MSTORE PUSH1 0x20 ADD DUP3 DUP1 SLOAD PUSH2 0x31F SWAP1 PUSH2 0x1957 JUMP JUMPDEST DUP1 ISZERO PUSH2 0x36A JUMPI DUP1 PUSH1 0x1F LT PUSH2 0x341 JUMPI PUSH2 0x100 DUP1 DUP4 SLOAD DIV MUL DUP4 MSTORE SWAP2 PUSH1 0x20 ADD SWAP2 PUSH2 0x36A JUMP JUMPDEST DUP3 ADD SWAP2 SWAP1 PUSH0 MSTORE PUSH1 0x20 PUSH0 KECCAK256 SWAP1 JUMPDEST DUP2 SLOAD DUP2 MSTORE SWAP1 PUSH1 0x1 ADD SWAP1 PUSH1 0x20 ADD DUP1 DUP4 GT PUSH2 0x34D JUMPI DUP3 SWAP1 SUB PUSH1 0x1F AND DUP3 ADD SWAP2 JUMPDEST POP POP POP POP POP DUP2 MSTORE PUSH1 0x20 ADD PUSH1 0x2 DUP3 ADD DUP1 SLOAD PUSH2 0x383 SWAP1 PUSH2 0x1957 JUMP JUMPDEST DUP1 PUSH1 0x1F ADD PUSH1 0x20 DUP1 SWAP2 DIV MUL PUSH1 0x20 ADD PUSH1 0x40 MLOAD SWAP1 DUP2 ADD PUSH1 0x40 MSTORE DUP1 SWAP3 SWAP2 SWAP1 DUP2 DUP2 MSTORE PUSH1 0x20 ADD DUP3 DUP1 SLOAD PUSH2 0x3AF SWAP1 PUSH2 0x1957 JUMP JUMPDEST DUP1 ISZERO PUSH2 0x3FA JUMPI DUP1 PUSH1 0x1F LT PUSH2 0x3D1 JUMPI PUSH2 0x100 DUP1 DUP4 SLOAD DIV MUL DUP4 MSTORE SWAP2 PUSH1 0x20 ADD SWAP2 PUSH2 0x3FA JUMP JUMPDEST DUP3 ADD SWAP2 SWAP1 PUSH0 MSTORE PUSH1 0x20 PUSH0 KECCAK256 SWAP1 JUMPDEST DUP2 SLOAD DUP2 MSTORE SWAP1 PUSH1 0x1 ADD SWAP1 PUSH1 0x20 ADD DUP1 DUP4 GT PUSH2 0x3DD JUMPI DUP3 SWAP1 SUB PUSH1 0x1F AND DUP3 ADD SWAP2 JUMPDEST POP POP POP POP POP DUP2 MSTORE PUSH1 0x20 ADD PUSH1 0x3 DUP3 ADD SLOAD DUP2 MSTORE PUSH1 0x20 ADD PUSH1 0x4 DUP3 ADD SLOAD DUP2 MSTORE PUSH1 0x20 ADD PUSH1 0x5 DUP3 ADD SLOAD DUP2 MSTORE PUSH1 0x20 ADD PUSH1 0x6 DUP3 ADD SLOAD DUP2 MSTORE POP POP SWAP2 POP POP SWAP1 JUMP JUMPDEST PUSH2 0x439 PUSH2 0x11EC JUMP JUMPDEST PUSH0 PUSH2 0x442 PUSH2 0x1081 JUMP JUMPDEST SWAP1 POP PUSH0 PUSH1 0x40 MLOAD DUP1 PUSH1 0xE0 ADD PUSH1 0x40 MSTORE DUP1 CALLER PUSH20 0xFFFFFFFFFFFFFFFFFFFFFFFFFFFFFFFFFFFFFFFF AND DUP2 MSTORE PUSH1 0x20 ADD DUP7 DUP2 MSTORE PUSH1 0x20 ADD DUP6 DUP2 MSTORE PUSH1 0x20 ADD TIMESTAMP DUP2 MSTORE PUSH1 0x20 ADD PUSH0 DUP2 MSTORE PUSH1 0x20 ADD DUP4 DUP2 MSTORE PUSH1 0x20 ADD PUSH20 0x0 PUSH4 0x61494538 PUSH20 0x0 PUSH4 0xF608AB78 DUP11 DUP11 TIMESTAMP DUP11 PUSH1 0x40 MLOAD DUP6 PUSH4 0xFFFFFFFF AND PUSH1 0xE0 SHL DUP2 MSTORE PUSH1 0x4 ADD PUSH2 0x4E1 SWAP5 SWAP4 SWAP3 SWAP2 SWAP1 PUSH2 0x1CD7 JUMP JUMPDEST PUSH0 PUSH1 0x40 MLOAD DUP1 DUP4 SUB DUP2 DUP7 GAS DELEGATECALL ISZERO DUP1 ISZERO PUSH2 0x4FB JUMPI RETURNDATASIZE PUSH0 DUP1 RETURNDATACOPY RETURNDATASIZE PUSH0 REVERT JUMPDEST POP POP POP POP PUSH1 0x40 MLOAD RETURNDATASIZE PUSH0 DUP3 RETURNDATACOPY RETURNDATASIZE PUSH1 0x1F NOT PUSH1 0x1F DUP3 ADD AND DUP3 ADD DUP1 PUSH1 0x40 MSTORE POP DUP2 ADD SWAP1 PUSH2 0x523 SWAP2 SWAP1 PUSH2 0x1D96 JUMP JUMPDEST PUSH1 0x40 MLOAD DUP3 PUSH4 0xFFFFFFFF AND PUSH1 0xE0 SHL DUP2 MSTORE PUSH1 0x4 ADD PUSH2 0x53F SWAP2 SWAP1 PUSH2 0x1DDD JUMP JUMPDEST PUSH1 0x20 PUSH1 0x40 MLOAD DUP1 DUP4 SUB DUP2 DUP7 GAS DELEGATECALL ISZERO DUP1 ISZERO PUSH2 0x55A JUMPI RETURNDATASIZE PUSH0 DUP1 RETURNDATACOPY RETURNDATASIZE PUSH0 REVERT JUMPDEST POP POP POP POP PUSH1 0x40 MLOAD RETURNDATASIZE PUSH1 0x1F NOT PUSH1 0x1F DUP3 ADD AND DUP3 ADD DUP1 PUSH1 0x40 MSTORE POP DUP2 ADD SWAP1 PUSH2 0x57E SWAP2 SWAP1 PUSH2 0x1E27 JUMP JUMPDEST DUP2 MSTORE POP SWAP1 POP PUSH1 0x2 DUP2 SWAP1 DUP1 PUSH1 0x1 DUP2 SLOAD ADD DUP1 DUP3 SSTORE DUP1 SWAP2 POP POP PUSH1 0x1 SWAP1 SUB SWAP1 PUSH0 MSTORE PUSH1 0x20 PUSH0 KECCAK256 SWAP1 PUSH1 0x7 MUL ADD PUSH0 SWAP1 SWAP2 SWAP1 SWAP2 SWAP1 SWAP2 POP PUSH0 DUP3 ADD MLOAD DUP2 PUSH0 ADD PUSH0 PUSH2 0x100 EXP DUP2 SLOAD DUP2 PUSH20 0xFFFFFFFFFFFFFFFFFFFFFFFFFFFFFFFFFFFFFFFF MUL NOT AND SWAP1 DUP4 PUSH20 0xFFFFFFFFFFFFFFFFFFFFFFFFFFFFFFFFFFFFFFFF AND MUL OR SWAP1 SSTORE POP PUSH1 0x20 DUP3 ADD MLOAD DUP2 PUSH1 0x1 ADD SWAP1 DUP2 PUSH2 0x605 SWAP2 SWAP1 PUSH2 0x1FDD JUMP JUMPDEST POP PUSH1 0x40 DUP3 ADD MLOAD DUP2 PUSH1 0x2 ADD SWAP1 DUP2 PUSH2 0x61B SWAP2 SWAP1 PUSH2 0x1FDD JUMP JUMPDEST POP PUSH1 0x60 DUP3 ADD MLOAD DUP2 PUSH1 0x3 ADD SSTORE PUSH1 0x80 DUP3 ADD MLOAD DUP2 PUSH1 0x4 ADD SSTORE PUSH1 0xA0 DUP3 ADD MLOAD DUP2 PUSH1 0x5 ADD SSTORE PUSH1 0xC0 DUP3 ADD MLOAD DUP2 PUSH1 0x6 ADD SSTORE POP POP DUP1 SWAP3 POP POP POP SWAP3 SWAP2 POP POP JUMP JUMPDEST PUSH2 0x659 PUSH2 0x109D JUMP JUMPDEST PUSH2 0x662 PUSH0 PUSH2 0x1124 JUMP JUMPDEST JUMP JUMPDEST PUSH2 0x66C PUSH2 0x11EC JUMP JUMPDEST PUSH0 PUSH1 0x2 DUP1 SLOAD SWAP1 POP GT PUSH2 0x6B3 JUMPI PUSH1 0x40 MLOAD PUSH32 0x8C379A000000000000000000000000000000000000000000000000000000000 DUP2 MSTORE PUSH1 0x4 ADD PUSH2 0x6AA SWAP1 PUSH2 0x188E JUMP JUMPDEST PUSH1 0x40 MLOAD DUP1 SWAP2 SUB SWAP1 REVERT JUMPDEST PUSH0 PUSH20 0x0 PUSH4 0x4CDE5371 PUSH1 0x2 PUSH1 0x40 MLOAD DUP3 PUSH4 0xFFFFFFFF AND PUSH1 0xE0 SHL DUP2 MSTORE PUSH1 0x4 ADD PUSH2 0x6EC SWAP2 SWAP1 PUSH2 0x1BF4 JUMP JUMPDEST PUSH1 0x20 PUSH1 0x40 MLOAD DUP1 DUP4 SUB DUP2 DUP7 GAS DELEGATECALL ISZERO DUP1 ISZERO PUSH2 0x707 JUMPI RETURNDATASIZE PUSH0 DUP1 RETURNDATACOPY RETURNDATASIZE PUSH0 REVERT JUMPDEST POP POP POP POP PUSH1 0x40 MLOAD RETURNDATASIZE PUSH1 0x1F NOT PUSH1 0x1F DUP3 ADD AND DUP3 ADD DUP1 PUSH1 0x40 MSTORE POP DUP2 ADD SWAP1 PUSH2 0x72B SWAP2 SWAP1 PUSH2 0x1C28 JUMP JUMPDEST SWAP1 POP PUSH0 PUSH1 0x2 DUP3 DUP2 SLOAD DUP2 LT PUSH2 0x742 JUMPI PUSH2 0x741 PUSH2 0x1C53 JUMP JUMPDEST JUMPDEST SWAP1 PUSH0 MSTORE PUSH1 0x20 PUSH0 KECCAK256 SWAP1 PUSH1 0x7 MUL ADD PUSH1 0x40 MLOAD DUP1 PUSH1 0xE0 ADD PUSH1 0x40 MSTORE SWAP1 DUP2 PUSH0 DUP3 ADD PUSH0 SWAP1 SLOAD SWAP1 PUSH2 0x100 EXP SWAP1 DIV PUSH20 0xFFFFFFFFFFFFFFFFFFFFFFFFFFFFFFFFFFFFFFFF AND PUSH20 0xFFFFFFFFFFFFFFFFFFFFFFFFFFFFFFFFFFFFFFFF AND PUSH20 0xFFFFFFFFFFFFFFFFFFFFFFFFFFFFFFFFFFFFFFFF AND DUP2 MSTORE PUSH1 0x20 ADD PUSH1 0x1 DUP3 ADD DUP1 SLOAD PUSH2 0x7BD SWAP1 PUSH2 0x1957 JUMP JUMPDEST DUP1 PUSH1 0x1F ADD PUSH1 0x20 DUP1 SWAP2 DIV MUL PUSH1 0x20 ADD PUSH1 0x40 MLOAD SWAP1 DUP2 ADD PUSH1 0x40 MSTORE DUP1 SWAP3 SWAP2 SWAP1 DUP2 DUP2 MSTORE PUSH1 0x20 ADD DUP3 DUP1 SLOAD PUSH2 0x7E9 SWAP1 PUSH2 0x1957 JUMP JUMPDEST DUP1 ISZERO PUSH2 0x834 JUMPI DUP1 PUSH1 0x1F LT PUSH2 0x80B JUMPI PUSH2 0x100 DUP1 DUP4 SLOAD DIV MUL DUP4 MSTORE SWAP2 PUSH1 0x20 ADD SWAP2 PUSH2 0x834 JUMP JUMPDEST DUP3 ADD SWAP2 SWAP1 PUSH0 MSTORE PUSH1 0x20 PUSH0 KECCAK256 SWAP1 JUMPDEST DUP2 SLOAD DUP2 MSTORE SWAP1 PUSH1 0x1 ADD SWAP1 PUSH1 0x20 ADD DUP1 DUP4 GT PUSH2 0x817 JUMPI DUP3 SWAP1 SUB PUSH1 0x1F AND DUP3 ADD SWAP2 JUMPDEST POP POP POP POP POP DUP2 MSTORE PUSH1 0x20 ADD PUSH1 0x2 DUP3 ADD DUP1 SLOAD PUSH2 0x84D SWAP1 PUSH2 0x1957 JUMP JUMPDEST DUP1 PUSH1 0x1F ADD PUSH1 0x20 DUP1 SWAP2 DIV MUL PUSH1 0x20 ADD PUSH1 0x40 MLOAD SWAP1 DUP2 ADD PUSH1 0x40 MSTORE DUP1 SWAP3 SWAP2 SWAP1 DUP2 DUP2 MSTORE PUSH1 0x20 ADD DUP3 DUP1 SLOAD PUSH2 0x879 SWAP1 PUSH2 0x1957 JUMP JUMPDEST DUP1 ISZERO PUSH2 0x8C4 JUMPI DUP1 PUSH1 0x1F LT PUSH2 0x89B JUMPI PUSH2 0x100 DUP1 DUP4 SLOAD DIV MUL DUP4 MSTORE SWAP2 PUSH1 0x20 ADD SWAP2 PUSH2 0x8C4 JUMP JUMPDEST DUP3 ADD SWAP2 SWAP1 PUSH0 MSTORE PUSH1 0x20 PUSH0 KECCAK256 SWAP1 JUMPDEST DUP2 SLOAD DUP2 MSTORE SWAP1 PUSH1 0x1 ADD SWAP1 PUSH1 0x20 ADD DUP1 DUP4 GT PUSH2 0x8A7 JUMPI DUP3 SWAP1 SUB PUSH1 0x1F AND DUP3 ADD SWAP2 JUMPDEST POP POP POP POP POP DUP2 MSTORE PUSH1 0x20 ADD PUSH1 0x3 DUP3 ADD SLOAD DUP2 MSTORE PUSH1 0x20 ADD PUSH1 0x4 DUP3 ADD SLOAD DUP2 MSTORE PUSH1 0x20 ADD PUSH1 0x5 DUP3 ADD SLOAD DUP2 MSTORE PUSH1 0x20 ADD PUSH1 0x6 DUP3 ADD SLOAD DUP2 MSTORE POP POP SWAP1 POP PUSH0 DUP3 SWAP1 POP JUMPDEST PUSH1 0x1 PUSH1 0x2 DUP1 SLOAD SWAP1 POP PUSH2 0x90E SWAP2 SWAP1 PUSH2 0x20D9 JUMP JUMPDEST DUP2 LT ISZERO PUSH2 0xA26 JUMPI PUSH1 0x2 PUSH1 0x1 DUP3 PUSH2 0x924 SWAP2 SWAP1 PUSH2 0x210C JUMP JUMPDEST DUP2 SLOAD DUP2 LT PUSH2 0x935 JUMPI PUSH2 0x934 PUSH2 0x1C53 JUMP JUMPDEST JUMPDEST SWAP1 PUSH0 MSTORE PUSH1 0x20 PUSH0 KECCAK256 SWAP1 PUSH1 0x7 MUL ADD PUSH1 0x2 DUP3 DUP2 SLOAD DUP2 LT PUSH2 0x955 JUMPI PUSH2 0x954 PUSH2 0x1C53 JUMP JUMPDEST JUMPDEST SWAP1 PUSH0 MSTORE PUSH1 0x20 PUSH0 KECCAK256 SWAP1 PUSH1 0x7 MUL ADD PUSH0 DUP3 ADD PUSH0 SWAP1 SLOAD SWAP1 PUSH2 0x100 EXP SWAP1 DIV PUSH20 0xFFFFFFFFFFFFFFFFFFFFFFFFFFFFFFFFFFFFFFFF AND DUP2 PUSH0 ADD PUSH0 PUSH2 0x100 EXP DUP2 SLOAD DUP2 PUSH20 0xFFFFFFFFFFFFFFFFFFFFFFFFFFFFFFFFFFFFFFFF MUL NOT AND SWAP1 DUP4 PUSH20 0xFFFFFFFFFFFFFFFFFFFFFFFFFFFFFFFFFFFFFFFF AND MUL OR SWAP1 SSTORE POP PUSH1 0x1 DUP3 ADD DUP2 PUSH1 0x1 ADD SWAP1 DUP2 PUSH2 0x9D8 SWAP2 SWAP1 PUSH2 0x2154 JUMP JUMPDEST POP PUSH1 0x2 DUP3 ADD DUP2 PUSH1 0x2 ADD SWAP1 DUP2 PUSH2 0x9ED SWAP2 SWAP1 PUSH2 0x2154 JUMP JUMPDEST POP PUSH1 0x3 DUP3 ADD SLOAD DUP2 PUSH1 0x3 ADD SSTORE PUSH1 0x4 DUP3 ADD SLOAD DUP2 PUSH1 0x4 ADD SSTORE PUSH1 0x5 DUP3 ADD SLOAD DUP2 PUSH1 0x5 ADD SSTORE PUSH1 0x6 DUP3 ADD SLOAD DUP2 PUSH1 0x6 ADD SSTORE SWAP1 POP POP DUP1 DUP1 PUSH1 0x1 ADD SWAP2 POP POP PUSH2 0x8FC JUMP JUMPDEST POP PUSH1 0x2 DUP1 SLOAD DUP1 PUSH2 0xA39 JUMPI PUSH2 0xA38 PUSH2 0x2239 JUMP JUMPDEST JUMPDEST PUSH1 0x1 SWAP1 SUB DUP2 DUP2 SWAP1 PUSH0 MSTORE PUSH1 0x20 PUSH0 KECCAK256 SWAP1 PUSH1 0x7 MUL ADD PUSH0 DUP1 DUP3 ADD PUSH0 PUSH2 0x100 EXP DUP2 SLOAD SWAP1 PUSH20 0xFFFFFFFFFFFFFFFFFFFFFFFFFFFFFFFFFFFFFFFF MUL NOT AND SWAP1 SSTORE PUSH1 0x1 DUP3 ADD PUSH0 PUSH2 0xA80 SWAP2 SWAP1 PUSH2 0x123D JUMP JUMPDEST PUSH1 0x2 DUP3 ADD PUSH0 PUSH2 0xA8F SWAP2 SWAP1 PUSH2 0x123D JUMP JUMPDEST PUSH1 0x3 DUP3 ADD PUSH0 SWAP1 SSTORE PUSH1 0x4 DUP3 ADD PUSH0 SWAP1 SSTORE PUSH1 0x5 DUP3 ADD PUSH0 SWAP1 SSTORE PUSH1 0x6 DUP3 ADD PUSH0 SWAP1 SSTORE POP POP SWAP1 SSTORE PUSH0 JUMPDEST PUSH1 0x2 DUP1 SLOAD SWAP1 POP DUP2 LT ISZERO PUSH2 0xAF3 JUMPI PUSH0 PUSH1 0x2 DUP3 DUP2 SLOAD DUP2 LT PUSH2 0xAD3 JUMPI PUSH2 0xAD2 PUSH2 0x1C53 JUMP JUMPDEST JUMPDEST SWAP1 PUSH0 MSTORE PUSH1 0x20 PUSH0 KECCAK256 SWAP1 PUSH1 0x7 MUL ADD PUSH1 0x4 ADD DUP2 SWAP1 SSTORE POP DUP1 DUP1 PUSH1 0x1 ADD SWAP2 POP POP PUSH2 0xAB1 JUMP JUMPDEST POP DUP1 SWAP3 POP POP POP SWAP1 JUMP JUMPDEST PUSH0 DUP1 PUSH0 SWAP1 SLOAD SWAP1 PUSH2 0x100 EXP SWAP1 DIV PUSH20 0xFFFFFFFFFFFFFFFFFFFFFFFFFFFFFFFFFFFFFFFF AND SWAP1 POP SWAP1 JUMP JUMPDEST PUSH1 0x60 PUSH1 0x2 DUP1 SLOAD DUP1 PUSH1 0x20 MUL PUSH1 0x20 ADD PUSH1 0x40 MLOAD SWAP1 DUP2 ADD PUSH1 0x40 MSTORE DUP1 SWAP3 SWAP2 SWAP1 DUP2 DUP2 MSTORE PUSH1 0x20 ADD PUSH0 SWAP1 JUMPDEST DUP3 DUP3 LT ISZERO PUSH2 0xD12 JUMPI DUP4 DUP3 SWAP1 PUSH0 MSTORE PUSH1 0x20 PUSH0 KECCAK256 SWAP1 PUSH1 0x7 MUL ADD PUSH1 0x40 MLOAD DUP1 PUSH1 0xE0 ADD PUSH1 0x40 MSTORE SWAP1 DUP2 PUSH0 DUP3 ADD PUSH0 SWAP1 SLOAD SWAP1 PUSH2 0x100 EXP SWAP1 DIV PUSH20 0xFFFFFFFFFFFFFFFFFFFFFFFFFFFFFFFFFFFFFFFF AND PUSH20 0xFFFFFFFFFFFFFFFFFFFFFFFFFFFFFFFFFFFFFFFF AND PUSH20 0xFFFFFFFFFFFFFFFFFFFFFFFFFFFFFFFFFFFFFFFF AND DUP2 MSTORE PUSH1 0x20 ADD PUSH1 0x1 DUP3 ADD DUP1 SLOAD PUSH2 0xBCB SWAP1 PUSH2 0x1957 JUMP JUMPDEST DUP1 PUSH1 0x1F ADD PUSH1 0x20 DUP1 SWAP2 DIV MUL PUSH1 0x20 ADD PUSH1 0x40 MLOAD SWAP1 DUP2 ADD PUSH1 0x40 MSTORE DUP1 SWAP3 SWAP2 SWAP1 DUP2 DUP2 MSTORE PUSH1 0x20 ADD DUP3 DUP1 SLOAD PUSH2 0xBF7 SWAP1 PUSH2 0x1957 JUMP JUMPDEST DUP1 ISZERO PUSH2 0xC42 JUMPI DUP1 PUSH1 0x1F LT PUSH2 0xC19 JUMPI PUSH2 0x100 DUP1 DUP4 SLOAD DIV MUL DUP4 MSTORE SWAP2 PUSH1 0x20 ADD SWAP2 PUSH2 0xC42 JUMP JUMPDEST DUP3 ADD SWAP2 SWAP1 PUSH0 MSTORE PUSH1 0x20 PUSH0 KECCAK256 SWAP1 JUMPDEST DUP2 SLOAD DUP2 MSTORE SWAP1 PUSH1 0x1 ADD SWAP1 PUSH1 0x20 ADD DUP1 DUP4 GT PUSH2 0xC25 JUMPI DUP3 SWAP1 SUB PUSH1 0x1F AND DUP3 ADD SWAP2 JUMPDEST POP POP POP POP POP DUP2 MSTORE PUSH1 0x20 ADD PUSH1 0x2 DUP3 ADD DUP1 SLOAD PUSH2 0xC5B SWAP1 PUSH2 0x1957 JUMP JUMPDEST DUP1 PUSH1 0x1F ADD PUSH1 0x20 DUP1 SWAP2 DIV MUL PUSH1 0x20 ADD PUSH1 0x40 MLOAD SWAP1 DUP2 ADD PUSH1 0x40 MSTORE DUP1 SWAP3 SWAP2 SWAP1 DUP2 DUP2 MSTORE PUSH1 0x20 ADD DUP3 DUP1 SLOAD PUSH2 0xC87 SWAP1 PUSH2 0x1957 JUMP JUMPDEST DUP1 ISZERO PUSH2 0xCD2 JUMPI DUP1 PUSH1 0x1F LT PUSH2 0xCA9 JUMPI PUSH2 0x100 DUP1 DUP4 SLOAD DIV MUL DUP4 MSTORE SWAP2 PUSH1 0x20 ADD SWAP2 PUSH2 0xCD2 JUMP JUMPDEST DUP3 ADD SWAP2 SWAP1 PUSH0 MSTORE PUSH1 0x20 PUSH0 KECCAK256 SWAP1 JUMPDEST DUP2 SLOAD DUP2 MSTORE SWAP1 PUSH1 0x1 ADD SWAP1 PUSH1 0x20 ADD DUP1 DUP4 GT PUSH2 0xCB5 JUMPI DUP3 SWAP1 SUB PUSH1 0x1F AND DUP3 ADD SWAP2 JUMPDEST POP POP POP POP POP DUP2 MSTORE PUSH1 0x20 ADD PUSH1 0x3 DUP3 ADD SLOAD DUP2 MSTORE PUSH1 0x20 ADD PUSH1 0x4 DUP3 ADD SLOAD DUP2 MSTORE PUSH1 0x20 ADD PUSH1 0x5 DUP3 ADD SLOAD DUP2 MSTORE PUSH1 0x20 ADD PUSH1 0x6 DUP3 ADD SLOAD DUP2 MSTORE POP POP DUP2 MSTORE PUSH1 0x20 ADD SWAP1 PUSH1 0x1 ADD SWAP1 PUSH2 0xB46 JUMP JUMPDEST POP POP POP POP SWAP1 POP SWAP1 JUMP JUMPDEST DUP1 PUSH20 0x0 PUSH4 0xEBB596CE PUSH1 0x2 DUP4 PUSH1 0x40 MLOAD DUP4 PUSH4 0xFFFFFFFF AND PUSH1 0xE0 SHL DUP2 MSTORE PUSH1 0x4 ADD PUSH2 0xD56 SWAP3 SWAP2 SWAP1 PUSH2 0x2266 JUMP JUMPDEST PUSH1 0x20 PUSH1 0x40 MLOAD DUP1 DUP4 SUB DUP2 DUP7 GAS DELEGATECALL ISZERO DUP1 ISZERO PUSH2 0xD71 JUMPI RETURNDATASIZE PUSH0 DUP1 RETURNDATACOPY RETURNDATASIZE PUSH0 REVERT JUMPDEST POP POP POP POP PUSH1 0x40 MLOAD RETURNDATASIZE PUSH1 0x1F NOT PUSH1 0x1F DUP3 ADD AND DUP3 ADD DUP1 PUSH1 0x40 MSTORE POP DUP2 ADD SWAP1 PUSH2 0xD95 SWAP2 SWAP1 PUSH2 0x22C9 JUMP JUMPDEST PUSH2 0xDD4 JUMPI PUSH1 0x40 MLOAD PUSH32 0x8C379A000000000000000000000000000000000000000000000000000000000 DUP2 MSTORE PUSH1 0x4 ADD PUSH2 0xDCB SWAP1 PUSH2 0x233E JUMP JUMPDEST PUSH1 0x40 MLOAD DUP1 SWAP2 SUB SWAP1 REVERT JUMPDEST PUSH0 PUSH20 0x0 PUSH3 0x8F863F PUSH1 0x2 DUP6 PUSH1 0x40 MLOAD DUP4 PUSH4 0xFFFFFFFF AND PUSH1 0xE0 SHL DUP2 MSTORE PUSH1 0x4 ADD PUSH2 0xE0E SWAP3 SWAP2 SWAP1 PUSH2 0x2266 JUMP JUMPDEST PUSH1 0x20 PUSH1 0x40 MLOAD DUP1 DUP4 SUB DUP2 DUP7 GAS DELEGATECALL ISZERO DUP1 ISZERO PUSH2 0xE29 JUMPI RETURNDATASIZE PUSH0 DUP1 RETURNDATACOPY RETURNDATASIZE PUSH0 REVERT JUMPDEST POP POP POP POP PUSH1 0x40 MLOAD RETURNDATASIZE PUSH1 0x1F NOT PUSH1 0x1F DUP3 ADD AND DUP3 ADD DUP1 PUSH1 0x40 MSTORE POP DUP2 ADD SWAP1 PUSH2 0xE4D SWAP2 SWAP1 PUSH2 0x1C28 JUMP JUMPDEST SWAP1 POP PUSH1 0x2 DUP2 DUP2 SLOAD DUP2 LT PUSH2 0xE63 JUMPI PUSH2 0xE62 PUSH2 0x1C53 JUMP JUMPDEST JUMPDEST SWAP1 PUSH0 MSTORE PUSH1 0x20 PUSH0 KECCAK256 SWAP1 PUSH1 0x7 MUL ADD PUSH1 0x4 ADD PUSH0 DUP2 SLOAD DUP1 SWAP3 SWAP2 SWAP1 PUSH2 0xE82 SWAP1 PUSH2 0x235C JUMP JUMPDEST SWAP2 SWAP1 POP SSTORE POP POP POP POP JUMP JUMPDEST DUP1 PUSH20 0x0 PUSH4 0xEBB596CE PUSH1 0x2 DUP4 PUSH1 0x40 MLOAD DUP4 PUSH4 0xFFFFFFFF AND PUSH1 0xE0 SHL DUP2 MSTORE PUSH1 0x4 ADD PUSH2 0xEC7 SWAP3 SWAP2 SWAP1 PUSH2 0x2266 JUMP JUMPDEST PUSH1 0x20 PUSH1 0x40 MLOAD DUP1 DUP4 SUB DUP2 DUP7 GAS DELEGATECALL ISZERO DUP1 ISZERO PUSH2 0xEE2 JUMPI RETURNDATASIZE PUSH0 DUP1 RETURNDATACOPY RETURNDATASIZE PUSH0 REVERT JUMPDEST POP POP POP POP PUSH1 0x40 MLOAD RETURNDATASIZE PUSH1 0x1F NOT PUSH1 0x1F DUP3 ADD AND DUP3 ADD DUP1 PUSH1 0x40 MSTORE POP DUP2 ADD SWAP1 PUSH2 0xF06 SWAP2 SWAP1 PUSH2 0x22C9 JUMP JUMPDEST PUSH2 0xF45 JUMPI PUSH1 0x40 MLOAD PUSH32 0x8C379A000000000000000000000000000000000000000000000000000000000 DUP2 MSTORE PUSH1 0x4 ADD PUSH2 0xF3C SWAP1 PUSH2 0x233E JUMP JUMPDEST PUSH1 0x40 MLOAD DUP1 SWAP2 SUB SWAP1 REVERT JUMPDEST PUSH0 PUSH20 0x0 PUSH3 0x8F863F PUSH1 0x2 DUP6 PUSH1 0x40 MLOAD DUP4 PUSH4 0xFFFFFFFF AND PUSH1 0xE0 SHL DUP2 MSTORE PUSH1 0x4 ADD PUSH2 0xF7F SWAP3 SWAP2 SWAP1 PUSH2 0x2266 JUMP JUMPDEST PUSH1 0x20 PUSH1 0x40 MLOAD DUP1 DUP4 SUB DUP2 DUP7 GAS DELEGATECALL ISZERO DUP1 ISZERO PUSH2 0xF9A JUMPI RETURNDATASIZE PUSH0 DUP1 RETURNDATACOPY RETURNDATASIZE PUSH0 REVERT JUMPDEST POP POP POP POP PUSH1 0x40 MLOAD RETURNDATASIZE PUSH1 0x1F NOT PUSH1 0x1F DUP3 ADD AND DUP3 ADD DUP1 PUSH1 0x40 MSTORE POP DUP2 ADD SWAP1 PUSH2 0xFBE SWAP2 SWAP1 PUSH2 0x1C28 JUMP JUMPDEST SWAP1 POP PUSH1 0x2 DUP2 DUP2 SLOAD DUP2 LT PUSH2 0xFD4 JUMPI PUSH2 0xFD3 PUSH2 0x1C53 JUMP JUMPDEST JUMPDEST SWAP1 PUSH0 MSTORE PUSH1 0x20 PUSH0 KECCAK256 SWAP1 PUSH1 0x7 MUL ADD PUSH1 0x4 ADD PUSH0 DUP2 SLOAD DUP1 SWAP3 SWAP2 SWAP1 PUSH2 0xFF3 SWAP1 PUSH2 0x2383 JUMP JUMPDEST SWAP2 SWAP1 POP SSTORE POP POP POP POP JUMP JUMPDEST PUSH2 0x1005 PUSH2 0x109D JUMP JUMPDEST PUSH0 PUSH20 0xFFFFFFFFFFFFFFFFFFFFFFFFFFFFFFFFFFFFFFFF AND DUP2 PUSH20 0xFFFFFFFFFFFFFFFFFFFFFFFFFFFFFFFFFFFFFFFF AND SUB PUSH2 0x1075 JUMPI PUSH0 PUSH1 0x40 MLOAD PUSH32 0x1E4FBDF700000000000000000000000000000000000000000000000000000000 DUP2 MSTORE PUSH1 0x4 ADD PUSH2 0x106C SWAP2 SWAP1 PUSH2 0x15F6 JUMP JUMPDEST PUSH1 0x40 MLOAD DUP1 SWAP2 SUB SWAP1 REVERT JUMPDEST PUSH2 0x107E DUP2 PUSH2 0x1124 JUMP JUMPDEST POP JUMP JUMPDEST PUSH0 PUSH1 0x3 PUSH0 DUP2 SLOAD DUP1 SWAP3 SWAP2 SWAP1 PUSH2 0x1094 SWAP1 PUSH2 0x2383 JUMP JUMPDEST SWAP2 SWAP1 POP SSTORE SWAP1 POP SWAP1 JUMP JUMPDEST PUSH2 0x10A5 PUSH2 0x11E5 JUMP JUMPDEST PUSH20 0xFFFFFFFFFFFFFFFFFFFFFFFFFFFFFFFFFFFFFFFF AND PUSH2 0x10C3 PUSH2 0xAFC JUMP JUMPDEST PUSH20 0xFFFFFFFFFFFFFFFFFFFFFFFFFFFFFFFFFFFFFFFF AND EQ PUSH2 0x1122 JUMPI PUSH2 0x10E6 PUSH2 0x11E5 JUMP JUMPDEST PUSH1 0x40 MLOAD PUSH32 0x118CDAA700000000000000000000000000000000000000000000000000000000 DUP2 MSTORE PUSH1 0x4 ADD PUSH2 0x1119 SWAP2 SWAP1 PUSH2 0x15F6 JUMP JUMPDEST PUSH1 0x40 MLOAD DUP1 SWAP2 SUB SWAP1 REVERT JUMPDEST JUMP JUMPDEST PUSH0 DUP1 PUSH0 SWAP1 SLOAD SWAP1 PUSH2 0x100 EXP SWAP1 DIV PUSH20 0xFFFFFFFFFFFFFFFFFFFFFFFFFFFFFFFFFFFFFFFF AND SWAP1 POP DUP2 PUSH0 DUP1 PUSH2 0x100 EXP DUP2 SLOAD DUP2 PUSH20 0xFFFFFFFFFFFFFFFFFFFFFFFFFFFFFFFFFFFFFFFF MUL NOT AND SWAP1 DUP4 PUSH20 0xFFFFFFFFFFFFFFFFFFFFFFFFFFFFFFFFFFFFFFFF AND MUL OR SWAP1 SSTORE POP DUP2 PUSH20 0xFFFFFFFFFFFFFFFFFFFFFFFFFFFFFFFFFFFFFFFF AND DUP2 PUSH20 0xFFFFFFFFFFFFFFFFFFFFFFFFFFFFFFFFFFFFFFFF AND PUSH32 0x8BE0079C531659141344CD1FD0A4F28419497F9722A3DAAFE3B4186F6B6457E0 PUSH1 0x40 MLOAD PUSH1 0x40 MLOAD DUP1 SWAP2 SUB SWAP1 LOG3 POP POP JUMP JUMPDEST PUSH0 CALLER SWAP1 POP SWAP1 JUMP JUMPDEST PUSH1 0x40 MLOAD DUP1 PUSH1 0xE0 ADD PUSH1 0x40 MSTORE DUP1 PUSH0 PUSH20 0xFFFFFFFFFFFFFFFFFFFFFFFFFFFFFFFFFFFFFFFF AND DUP2 MSTORE PUSH1 0x20 ADD PUSH1 0x60 DUP2 MSTORE PUSH1 0x20 ADD PUSH1 0x60 DUP2 MSTORE PUSH1 0x20 ADD PUSH0 DUP2 MSTORE PUSH1 0x20 ADD PUSH0 DUP2 MSTORE PUSH1 0x20 ADD PUSH0 DUP2 MSTORE PUSH1 0x20 ADD PUSH0 DUP1 NOT AND DUP2 MSTORE POP SWAP1 JUMP JUMPDEST POP DUP1 SLOAD PUSH2 0x1249 SWAP1 PUSH2 0x1957 JUMP JUMPDEST PUSH0 DUP3 SSTORE DUP1 PUSH1 0x1F LT PUSH2 0x125A JUMPI POP PUSH2 0x1277 JUMP JUMPDEST PUSH1 0x1F ADD PUSH1 0x20 SWAP1 DIV SWAP1 PUSH0 MSTORE PUSH1 0x20 PUSH0 KECCAK256 SWAP1 DUP2 ADD SWAP1 PUSH2 0x1276 SWAP2 SWAP1 PUSH2 0x127A JUMP JUMPDEST JUMPDEST POP JUMP JUMPDEST JUMPDEST DUP1 DUP3 GT ISZERO PUSH2 0x1291 JUMPI PUSH0 DUP2 PUSH0 SWAP1 SSTORE POP PUSH1 0x1 ADD PUSH2 0x127B JUMP JUMPDEST POP SWAP1 JUMP JUMPDEST PUSH0 PUSH20 0xFFFFFFFFFFFFFFFFFFFFFFFFFFFFFFFFFFFFFFFF DUP3 AND SWAP1 POP SWAP2 SWAP1 POP JUMP JUMPDEST PUSH0 PUSH2 0x12BE DUP3 PUSH2 0x1295 JUMP JUMPDEST SWAP1 POP SWAP2 SWAP1 POP JUMP JUMPDEST PUSH2 0x12CE DUP2 PUSH2 0x12B4 JUMP JUMPDEST DUP3 MSTORE POP POP JUMP JUMPDEST PUSH0 DUP2 MLOAD SWAP1 POP SWAP2 SWAP1 POP JUMP JUMPDEST PUSH0 DUP3 DUP3 MSTORE PUSH1 0x20 DUP3 ADD SWAP1 POP SWAP3 SWAP2 POP POP JUMP JUMPDEST DUP3 DUP2 DUP4 MCOPY PUSH0 DUP4 DUP4 ADD MSTORE POP POP POP JUMP JUMPDEST PUSH0 PUSH1 0x1F NOT PUSH1 0x1F DUP4 ADD AND SWAP1 POP SWAP2 SWAP1 POP JUMP JUMPDEST PUSH0 PUSH2 0x1316 DUP3 PUSH2 0x12D4 JUMP JUMPDEST PUSH2 0x1320 DUP2 DUP6 PUSH2 0x12DE JUMP JUMPDEST SWAP4 POP PUSH2 0x1330 DUP2 DUP6 PUSH1 0x20 DUP7 ADD PUSH2 0x12EE JUMP JUMPDEST PUSH2 0x1339 DUP2 PUSH2 0x12FC JUMP JUMPDEST DUP5 ADD SWAP2 POP POP SWAP3 SWAP2 POP POP JUMP JUMPDEST PUSH0 DUP2 SWAP1 POP SWAP2 SWAP1 POP JUMP JUMPDEST PUSH2 0x1356 DUP2 PUSH2 0x1344 JUMP JUMPDEST DUP3 MSTORE POP POP JUMP JUMPDEST PUSH0 DUP2 SWAP1 POP SWAP2 SWAP1 POP JUMP JUMPDEST PUSH2 0x136E DUP2 PUSH2 0x135C JUMP JUMPDEST DUP3 MSTORE POP POP JUMP JUMPDEST PUSH0 PUSH1 0xE0 DUP4 ADD PUSH0 DUP4 ADD MLOAD PUSH2 0x1389 PUSH0 DUP7 ADD DUP3 PUSH2 0x12C5 JUMP JUMPDEST POP PUSH1 0x20 DUP4 ADD MLOAD DUP5 DUP3 SUB PUSH1 0x20 DUP7 ADD MSTORE PUSH2 0x13A1 DUP3 DUP3 PUSH2 0x130C JUMP JUMPDEST SWAP2 POP POP PUSH1 0x40 DUP4 ADD MLOAD DUP5 DUP3 SUB PUSH1 0x40 DUP7 ADD MSTORE PUSH2 0x13BB DUP3 DUP3 PUSH2 0x130C JUMP JUMPDEST SWAP2 POP POP PUSH1 0x60 DUP4 ADD MLOAD PUSH2 0x13D0 PUSH1 0x60 DUP7 ADD DUP3 PUSH2 0x134D JUMP JUMPDEST POP PUSH1 0x80 DUP4 ADD MLOAD PUSH2 0x13E3 PUSH1 0x80 DUP7 ADD DUP3 PUSH2 0x134D JUMP JUMPDEST POP PUSH1 0xA0 DUP4 ADD MLOAD PUSH2 0x13F6 PUSH1 0xA0 DUP7 ADD DUP3 PUSH2 0x134D JUMP JUMPDEST POP PUSH1 0xC0 DUP4 ADD MLOAD PUSH2 0x1409 PUSH1 0xC0 DUP7 ADD DUP3 PUSH2 0x1365 JUMP JUMPDEST POP DUP1 SWAP2 POP POP SWAP3 SWAP2 POP POP JUMP JUMPDEST PUSH0 PUSH1 0x20 DUP3 ADD SWAP1 POP DUP2 DUP2 SUB PUSH0 DUP4 ADD MSTORE PUSH2 0x142C DUP2 DUP5 PUSH2 0x1374 JUMP JUMPDEST SWAP1 POP SWAP3 SWAP2 POP POP JUMP JUMPDEST PUSH0 PUSH1 0x40 MLOAD SWAP1 POP SWAP1 JUMP JUMPDEST PUSH0 DUP1 REVERT JUMPDEST PUSH0 DUP1 REVERT JUMPDEST PUSH0 DUP1 REVERT JUMPDEST PUSH0 DUP1 REVERT JUMPDEST PUSH32 0x4E487B7100000000000000000000000000000000000000000000000000000000 PUSH0 MSTORE PUSH1 0x41 PUSH1 0x4 MSTORE PUSH1 0x24 PUSH0 REVERT JUMPDEST PUSH2 0x1483 DUP3 PUSH2 0x12FC JUMP JUMPDEST DUP2 ADD DUP2 DUP2 LT PUSH8 0xFFFFFFFFFFFFFFFF DUP3 GT OR ISZERO PUSH2 0x14A2 JUMPI PUSH2 0x14A1 PUSH2 0x144D JUMP JUMPDEST JUMPDEST DUP1 PUSH1 0x40 MSTORE POP POP POP JUMP JUMPDEST PUSH0 PUSH2 0x14B4 PUSH2 0x1434 JUMP JUMPDEST SWAP1 POP PUSH2 0x14C0 DUP3 DUP3 PUSH2 0x147A JUMP JUMPDEST SWAP2 SWAP1 POP JUMP JUMPDEST PUSH0 PUSH8 0xFFFFFFFFFFFFFFFF DUP3 GT ISZERO PUSH2 0x14DF JUMPI PUSH2 0x14DE PUSH2 0x144D JUMP JUMPDEST JUMPDEST PUSH2 0x14E8 DUP3 PUSH2 0x12FC JUMP JUMPDEST SWAP1 POP PUSH1 0x20 DUP2 ADD SWAP1 POP SWAP2 SWAP1 POP JUMP JUMPDEST DUP3 DUP2 DUP4 CALLDATACOPY PUSH0 DUP4 DUP4 ADD MSTORE POP POP POP JUMP JUMPDEST PUSH0 PUSH2 0x1515 PUSH2 0x1510 DUP5 PUSH2 0x14C5 JUMP JUMPDEST PUSH2 0x14AB JUMP JUMPDEST SWAP1 POP DUP3 DUP2 MSTORE PUSH1 0x20 DUP2 ADD DUP5 DUP5 DUP5 ADD GT ISZERO PUSH2 0x1531 JUMPI PUSH2 0x1530 PUSH2 0x1449 JUMP JUMPDEST JUMPDEST PUSH2 0x153C DUP5 DUP3 DUP6 PUSH2 0x14F5 JUMP JUMPDEST POP SWAP4 SWAP3 POP POP POP JUMP JUMPDEST PUSH0 DUP3 PUSH1 0x1F DUP4 ADD SLT PUSH2 0x1558 JUMPI PUSH2 0x1557 PUSH2 0x1445 JUMP JUMPDEST JUMPDEST DUP2 CALLDATALOAD PUSH2 0x1568 DUP5 DUP3 PUSH1 0x20 DUP7 ADD PUSH2 0x1503 JUMP JUMPDEST SWAP2 POP POP SWAP3 SWAP2 POP POP JUMP JUMPDEST PUSH0 DUP1 PUSH1 0x40 DUP4 DUP6 SUB SLT ISZERO PUSH2 0x1587 JUMPI PUSH2 0x1586 PUSH2 0x143D JUMP JUMPDEST JUMPDEST PUSH0 DUP4 ADD CALLDATALOAD PUSH8 0xFFFFFFFFFFFFFFFF DUP2 GT ISZERO PUSH2 0x15A4 JUMPI PUSH2 0x15A3 PUSH2 0x1441 JUMP JUMPDEST JUMPDEST PUSH2 0x15B0 DUP6 DUP3 DUP7 ADD PUSH2 0x1544 JUMP JUMPDEST SWAP3 POP POP PUSH1 0x20 DUP4 ADD CALLDATALOAD PUSH8 0xFFFFFFFFFFFFFFFF DUP2 GT ISZERO PUSH2 0x15D1 JUMPI PUSH2 0x15D0 PUSH2 0x1441 JUMP JUMPDEST JUMPDEST PUSH2 0x15DD DUP6 DUP3 DUP7 ADD PUSH2 0x1544 JUMP JUMPDEST SWAP2 POP POP SWAP3 POP SWAP3 SWAP1 POP JUMP JUMPDEST PUSH2 0x15F0 DUP2 PUSH2 0x12B4 JUMP JUMPDEST DUP3 MSTORE POP POP JUMP JUMPDEST PUSH0 PUSH1 0x20 DUP3 ADD SWAP1 POP PUSH2 0x1609 PUSH0 DUP4 ADD DUP5 PUSH2 0x15E7 JUMP JUMPDEST SWAP3 SWAP2 POP POP JUMP JUMPDEST PUSH0 DUP2 MLOAD SWAP1 POP SWAP2 SWAP1 POP JUMP JUMPDEST PUSH0 DUP3 DUP3 MSTORE PUSH1 0x20 DUP3 ADD SWAP1 POP SWAP3 SWAP2 POP POP JUMP JUMPDEST PUSH0 DUP2 SWAP1 POP PUSH1 0x20 DUP3 ADD SWAP1 POP SWAP2 SWAP1 POP JUMP JUMPDEST PUSH0 PUSH1 0xE0 DUP4 ADD PUSH0 DUP4 ADD MLOAD PUSH2 0x164D PUSH0 DUP7 ADD DUP3 PUSH2 0x12C5 JUMP JUMPDEST POP PUSH1 0x20 DUP4 ADD MLOAD DUP5 DUP3 SUB PUSH1 0x20 DUP7 ADD MSTORE PUSH2 0x1665 DUP3 DUP3 PUSH2 0x130C JUMP JUMPDEST SWAP2 POP POP PUSH1 0x40 DUP4 ADD MLOAD DUP5 DUP3 SUB PUSH1 0x40 DUP7 ADD MSTORE PUSH2 0x167F DUP3 DUP3 PUSH2 0x130C JUMP JUMPDEST SWAP2 POP POP PUSH1 0x60 DUP4 ADD MLOAD PUSH2 0x1694 PUSH1 0x60 DUP7 ADD DUP3 PUSH2 0x134D JUMP JUMPDEST POP PUSH1 0x80 DUP4 ADD MLOAD PUSH2 0x16A7 PUSH1 0x80 DUP7 ADD DUP3 PUSH2 0x134D JUMP JUMPDEST POP PUSH1 0xA0 DUP4 ADD MLOAD PUSH2 0x16BA PUSH1 0xA0 DUP7 ADD DUP3 PUSH2 0x134D JUMP JUMPDEST POP PUSH1 0xC0 DUP4 ADD MLOAD PUSH2 0x16CD PUSH1 0xC0 DUP7 ADD DUP3 PUSH2 0x1365 JUMP JUMPDEST POP DUP1 SWAP2 POP POP SWAP3 SWAP2 POP POP JUMP JUMPDEST PUSH0 PUSH2 0x16E3 DUP4 DUP4 PUSH2 0x1638 JUMP JUMPDEST SWAP1 POP SWAP3 SWAP2 POP POP JUMP JUMPDEST PUSH0 PUSH1 0x20 DUP3 ADD SWAP1 POP SWAP2 SWAP1 POP JUMP JUMPDEST PUSH0 PUSH2 0x1701 DUP3 PUSH2 0x160F JUMP JUMPDEST PUSH2 0x170B DUP2 DUP6 PUSH2 0x1619 JUMP JUMPDEST SWAP4 POP DUP4 PUSH1 0x20 DUP3 MUL DUP6 ADD PUSH2 0x171D DUP6 PUSH2 0x1629 JUMP JUMPDEST DUP1 PUSH0 JUMPDEST DUP6 DUP2 LT ISZERO PUSH2 0x1758 JUMPI DUP5 DUP5 SUB DUP10 MSTORE DUP2 MLOAD PUSH2 0x1739 DUP6 DUP3 PUSH2 0x16D8 JUMP JUMPDEST SWAP5 POP PUSH2 0x1744 DUP4 PUSH2 0x16EB JUMP JUMPDEST SWAP3 POP PUSH1 0x20 DUP11 ADD SWAP10 POP POP PUSH1 0x1 DUP2 ADD SWAP1 POP PUSH2 0x1720 JUMP JUMPDEST POP DUP3 SWAP8 POP DUP8 SWAP6 POP POP POP POP POP POP SWAP3 SWAP2 POP POP JUMP JUMPDEST PUSH0 PUSH1 0x20 DUP3 ADD SWAP1 POP DUP2 DUP2 SUB PUSH0 DUP4 ADD MSTORE PUSH2 0x1782 DUP2 DUP5 PUSH2 0x16F7 JUMP JUMPDEST SWAP1 POP SWAP3 SWAP2 POP POP JUMP JUMPDEST PUSH2 0x1793 DUP2 PUSH2 0x1344 JUMP JUMPDEST DUP2 EQ PUSH2 0x179D JUMPI PUSH0 DUP1 REVERT JUMPDEST POP JUMP JUMPDEST PUSH0 DUP2 CALLDATALOAD SWAP1 POP PUSH2 0x17AE DUP2 PUSH2 0x178A JUMP JUMPDEST SWAP3 SWAP2 POP POP JUMP JUMPDEST PUSH0 PUSH1 0x20 DUP3 DUP5 SUB SLT ISZERO PUSH2 0x17C9 JUMPI PUSH2 0x17C8 PUSH2 0x143D JUMP JUMPDEST JUMPDEST PUSH0 PUSH2 0x17D6 DUP5 DUP3 DUP6 ADD PUSH2 0x17A0 JUMP JUMPDEST SWAP2 POP POP SWAP3 SWAP2 POP POP JUMP JUMPDEST PUSH2 0x17E8 DUP2 PUSH2 0x12B4 JUMP JUMPDEST DUP2 EQ PUSH2 0x17F2 JUMPI PUSH0 DUP1 REVERT JUMPDEST POP JUMP JUMPDEST PUSH0 DUP2 CALLDATALOAD SWAP1 POP PUSH2 0x1803 DUP2 PUSH2 0x17DF JUMP JUMPDEST SWAP3 SWAP2 POP POP JUMP JUMPDEST PUSH0 PUSH1 0x20 DUP3 DUP5 SUB SLT ISZERO PUSH2 0x181E JUMPI PUSH2 0x181D PUSH2 0x143D JUMP JUMPDEST JUMPDEST PUSH0 PUSH2 0x182B DUP5 DUP3 DUP6 ADD PUSH2 0x17F5 JUMP JUMPDEST SWAP2 POP POP SWAP3 SWAP2 POP POP JUMP JUMPDEST PUSH0 DUP3 DUP3 MSTORE PUSH1 0x20 DUP3 ADD SWAP1 POP SWAP3 SWAP2 POP POP JUMP JUMPDEST PUSH32 0x4E6F2070726F706F73656C7320617661696C6162656C00000000000000000000 PUSH0 DUP3 ADD MSTORE POP JUMP JUMPDEST PUSH0 PUSH2 0x1878 PUSH1 0x16 DUP4 PUSH2 0x1834 JUMP JUMPDEST SWAP2 POP PUSH2 0x1883 DUP3 PUSH2 0x1844 JUMP JUMPDEST PUSH1 0x20 DUP3 ADD SWAP1 POP SWAP2 SWAP1 POP JUMP JUMPDEST PUSH0 PUSH1 0x20 DUP3 ADD SWAP1 POP DUP2 DUP2 SUB PUSH0 DUP4 ADD MSTORE PUSH2 0x18A5 DUP2 PUSH2 0x186C JUMP JUMPDEST SWAP1 POP SWAP2 SWAP1 POP JUMP JUMPDEST PUSH0 DUP2 SLOAD SWAP1 POP SWAP2 SWAP1 POP JUMP JUMPDEST PUSH0 DUP3 DUP3 MSTORE PUSH1 0x20 DUP3 ADD SWAP1 POP SWAP3 SWAP2 POP POP JUMP JUMPDEST PUSH0 DUP2 SWAP1 POP DUP2 PUSH0 MSTORE PUSH1 0x20 PUSH0 KECCAK256 SWAP1 POP SWAP2 SWAP1 POP JUMP JUMPDEST PUSH0 DUP2 PUSH0 SHR SWAP1 POP SWAP2 SWAP1 POP JUMP JUMPDEST PUSH0 PUSH20 0xFFFFFFFFFFFFFFFFFFFFFFFFFFFFFFFFFFFFFFFF DUP3 AND SWAP1 POP SWAP2 SWAP1 POP JUMP JUMPDEST PUSH0 PUSH2 0x1914 PUSH2 0x190F DUP4 PUSH2 0x18D8 JUMP JUMPDEST PUSH2 0x18E3 JUMP JUMPDEST SWAP1 POP SWAP2 SWAP1 POP JUMP JUMPDEST PUSH2 0x1924 DUP2 PUSH2 0x12B4 JUMP JUMPDEST DUP3 MSTORE POP POP JUMP JUMPDEST PUSH32 0x4E487B7100000000000000000000000000000000000000000000000000000000 PUSH0 MSTORE PUSH1 0x22 PUSH1 0x4 MSTORE PUSH1 0x24 PUSH0 REVERT JUMPDEST PUSH0 PUSH1 0x2 DUP3 DIV SWAP1 POP PUSH1 0x1 DUP3 AND DUP1 PUSH2 0x196E JUMPI PUSH1 0x7F DUP3 AND SWAP2 POP JUMPDEST PUSH1 0x20 DUP3 LT DUP2 SUB PUSH2 0x1981 JUMPI PUSH2 0x1980 PUSH2 0x192A JUMP JUMPDEST JUMPDEST POP SWAP2 SWAP1 POP JUMP JUMPDEST PUSH0 DUP3 DUP3 MSTORE PUSH1 0x20 DUP3 ADD SWAP1 POP SWAP3 SWAP2 POP POP JUMP JUMPDEST PUSH0 DUP2 SWAP1 POP DUP2 PUSH0 MSTORE PUSH1 0x20 PUSH0 KECCAK256 SWAP1 POP SWAP2 SWAP1 POP JUMP JUMPDEST PUSH0 DUP2 SLOAD PUSH2 0x19B5 DUP2 PUSH2 0x1957 JUMP JUMPDEST PUSH2 0x19BF DUP2 DUP7 PUSH2 0x1987 JUMP JUMPDEST SWAP5 POP PUSH1 0x1 DUP3 AND PUSH0 DUP2 EQ PUSH2 0x19D9 JUMPI PUSH1 0x1 DUP2 EQ PUSH2 0x19EF JUMPI PUSH2 0x1A21 JUMP JUMPDEST PUSH1 0xFF NOT DUP4 AND DUP7 MSTORE DUP2 ISZERO ISZERO PUSH1 0x20 MUL DUP7 ADD SWAP4 POP PUSH2 0x1A21 JUMP JUMPDEST PUSH2 0x19F8 DUP6 PUSH2 0x1997 JUMP JUMPDEST PUSH0 JUMPDEST DUP4 DUP2 LT ISZERO PUSH2 0x1A19 JUMPI DUP2 SLOAD DUP2 DUP10 ADD MSTORE PUSH1 0x1 DUP3 ADD SWAP2 POP PUSH1 0x20 DUP2 ADD SWAP1 POP PUSH2 0x19FA JUMP JUMPDEST DUP1 DUP9 ADD SWAP6 POP POP POP JUMPDEST POP POP POP SWAP3 SWAP2 POP POP JUMP JUMPDEST PUSH0 DUP2 SWAP1 POP SWAP2 SWAP1 POP JUMP JUMPDEST PUSH0 PUSH2 0x1A45 PUSH2 0x1A40 DUP4 PUSH2 0x18D8 JUMP JUMPDEST PUSH2 0x1A2A JUMP JUMPDEST SWAP1 POP SWAP2 SWAP1 POP JUMP JUMPDEST PUSH2 0x1A55 DUP2 PUSH2 0x1344 JUMP JUMPDEST DUP3 MSTORE POP POP JUMP JUMPDEST PUSH0 DUP2 SWAP1 POP SWAP2 SWAP1 POP JUMP JUMPDEST PUSH0 PUSH2 0x1A76 PUSH2 0x1A71 DUP4 PUSH2 0x18D8 JUMP JUMPDEST PUSH2 0x1A5B JUMP JUMPDEST SWAP1 POP SWAP2 SWAP1 POP JUMP JUMPDEST PUSH2 0x1A86 DUP2 PUSH2 0x135C JUMP JUMPDEST DUP3 MSTORE POP POP JUMP JUMPDEST PUSH0 PUSH1 0xE0 DUP4 ADD PUSH0 DUP1 DUP5 ADD SLOAD SWAP1 POP PUSH2 0x1AA1 DUP2 PUSH2 0x1902 JUMP JUMPDEST PUSH2 0x1AAD PUSH0 DUP8 ADD DUP3 PUSH2 0x191B JUMP JUMPDEST POP PUSH1 0x1 DUP5 ADD DUP6 DUP4 SUB PUSH1 0x20 DUP8 ADD MSTORE PUSH2 0x1AC4 DUP4 DUP3 PUSH2 0x19A9 JUMP JUMPDEST SWAP3 POP POP PUSH1 0x2 DUP5 ADD DUP6 DUP4 SUB PUSH1 0x40 DUP8 ADD MSTORE PUSH2 0x1ADD DUP4 DUP3 PUSH2 0x19A9 JUMP JUMPDEST SWAP3 POP POP PUSH1 0x3 DUP5 ADD SLOAD SWAP1 POP PUSH2 0x1AF0 DUP2 PUSH2 0x1A33 JUMP JUMPDEST PUSH2 0x1AFD PUSH1 0x60 DUP8 ADD DUP3 PUSH2 0x1A4C JUMP JUMPDEST POP PUSH1 0x4 DUP5 ADD SLOAD SWAP1 POP PUSH2 0x1B0E DUP2 PUSH2 0x1A33 JUMP JUMPDEST PUSH2 0x1B1B PUSH1 0x80 DUP8 ADD DUP3 PUSH2 0x1A4C JUMP JUMPDEST POP PUSH1 0x5 DUP5 ADD SLOAD SWAP1 POP PUSH2 0x1B2C DUP2 PUSH2 0x1A33 JUMP JUMPDEST PUSH2 0x1B39 PUSH1 0xA0 DUP8 ADD DUP3 PUSH2 0x1A4C JUMP JUMPDEST POP PUSH1 0x6 DUP5 ADD SLOAD SWAP1 POP PUSH2 0x1B4A DUP2 PUSH2 0x1A64 JUMP JUMPDEST PUSH2 0x1B57 PUSH1 0xC0 DUP8 ADD DUP3 PUSH2 0x1A7D JUMP JUMPDEST POP DUP2 SWAP3 POP POP POP SWAP3 SWAP2 POP POP JUMP JUMPDEST PUSH0 PUSH2 0x1B6E DUP4 DUP4 PUSH2 0x1A8C JUMP JUMPDEST SWAP1 POP SWAP3 SWAP2 POP POP JUMP JUMPDEST PUSH0 PUSH1 0x7 DUP3 ADD SWAP1 POP SWAP2 SWAP1 POP JUMP JUMPDEST PUSH0 PUSH2 0x1B8C DUP3 PUSH2 0x18AC JUMP JUMPDEST PUSH2 0x1B96 DUP2 DUP6 PUSH2 0x18B6 JUMP JUMPDEST SWAP4 POP DUP4 PUSH1 0x20 DUP3 MUL DUP6 ADD PUSH2 0x1BA8 DUP6 PUSH2 0x18C6 JUMP JUMPDEST DUP1 PUSH0 JUMPDEST DUP6 DUP2 LT ISZERO PUSH2 0x1BE2 JUMPI DUP5 DUP5 SUB DUP10 MSTORE DUP2 PUSH2 0x1BC3 DUP6 DUP3 PUSH2 0x1B63 JUMP JUMPDEST SWAP5 POP PUSH2 0x1BCE DUP4 PUSH2 0x1B76 JUMP JUMPDEST SWAP3 POP PUSH1 0x20 DUP11 ADD SWAP10 POP POP PUSH1 0x1 DUP2 ADD SWAP1 POP PUSH2 0x1BAB JUMP JUMPDEST POP DUP3 SWAP8 POP DUP8 SWAP6 POP POP POP POP POP POP SWAP3 SWAP2 POP POP JUMP JUMPDEST PUSH0 PUSH1 0x20 DUP3 ADD SWAP1 POP DUP2 DUP2 SUB PUSH0 DUP4 ADD MSTORE PUSH2 0x1C0C DUP2 DUP5 PUSH2 0x1B82 JUMP JUMPDEST SWAP1 POP SWAP3 SWAP2 POP POP JUMP JUMPDEST PUSH0 DUP2 MLOAD SWAP1 POP PUSH2 0x1C22 DUP2 PUSH2 0x178A JUMP JUMPDEST SWAP3 SWAP2 POP POP JUMP JUMPDEST PUSH0 PUSH1 0x20 DUP3 DUP5 SUB SLT ISZERO PUSH2 0x1C3D JUMPI PUSH2 0x1C3C PUSH2 0x143D JUMP JUMPDEST JUMPDEST PUSH0 PUSH2 0x1C4A DUP5 DUP3 DUP6 ADD PUSH2 0x1C14 JUMP JUMPDEST SWAP2 POP POP SWAP3 SWAP2 POP POP JUMP JUMPDEST PUSH32 0x4E487B7100000000000000000000000000000000000000000000000000000000 PUSH0 MSTORE PUSH1 0x32 PUSH1 0x4 MSTORE PUSH1 0x24 PUSH0 REVERT JUMPDEST PUSH0 DUP3 DUP3 MSTORE PUSH1 0x20 DUP3 ADD SWAP1 POP SWAP3 SWAP2 POP POP JUMP JUMPDEST PUSH0 PUSH2 0x1C9A DUP3 PUSH2 0x12D4 JUMP JUMPDEST PUSH2 0x1CA4 DUP2 DUP6 PUSH2 0x1C80 JUMP JUMPDEST SWAP4 POP PUSH2 0x1CB4 DUP2 DUP6 PUSH1 0x20 DUP7 ADD PUSH2 0x12EE JUMP JUMPDEST PUSH2 0x1CBD DUP2 PUSH2 0x12FC JUMP JUMPDEST DUP5 ADD SWAP2 POP POP SWAP3 SWAP2 POP POP JUMP JUMPDEST PUSH2 0x1CD1 DUP2 PUSH2 0x1344 JUMP JUMPDEST DUP3 MSTORE POP POP JUMP JUMPDEST PUSH0 PUSH1 0x80 DUP3 ADD SWAP1 POP DUP2 DUP2 SUB PUSH0 DUP4 ADD MSTORE PUSH2 0x1CEF DUP2 DUP8 PUSH2 0x1C90 JUMP JUMPDEST SWAP1 POP DUP2 DUP2 SUB PUSH1 0x20 DUP4 ADD MSTORE PUSH2 0x1D03 DUP2 DUP7 PUSH2 0x1C90 JUMP JUMPDEST SWAP1 POP PUSH2 0x1D12 PUSH1 0x40 DUP4 ADD DUP6 PUSH2 0x1CC8 JUMP JUMPDEST PUSH2 0x1D1F PUSH1 0x60 DUP4 ADD DUP5 PUSH2 0x1CC8 JUMP JUMPDEST SWAP6 SWAP5 POP POP POP POP POP JUMP JUMPDEST PUSH0 PUSH2 0x1D3A PUSH2 0x1D35 DUP5 PUSH2 0x14C5 JUMP JUMPDEST PUSH2 0x14AB JUMP JUMPDEST SWAP1 POP DUP3 DUP2 MSTORE PUSH1 0x20 DUP2 ADD DUP5 DUP5 DUP5 ADD GT ISZERO PUSH2 0x1D56 JUMPI PUSH2 0x1D55 PUSH2 0x1449 JUMP JUMPDEST JUMPDEST PUSH2 0x1D61 DUP5 DUP3 DUP6 PUSH2 0x12EE JUMP JUMPDEST POP SWAP4 SWAP3 POP POP POP JUMP JUMPDEST PUSH0 DUP3 PUSH1 0x1F DUP4 ADD SLT PUSH2 0x1D7D JUMPI PUSH2 0x1D7C PUSH2 0x1445 JUMP JUMPDEST JUMPDEST DUP2 MLOAD PUSH2 0x1D8D DUP5 DUP3 PUSH1 0x20 DUP7 ADD PUSH2 0x1D28 JUMP JUMPDEST SWAP2 POP POP SWAP3 SWAP2 POP POP JUMP JUMPDEST PUSH0 PUSH1 0x20 DUP3 DUP5 SUB SLT ISZERO PUSH2 0x1DAB JUMPI PUSH2 0x1DAA PUSH2 0x143D JUMP JUMPDEST JUMPDEST PUSH0 DUP3 ADD MLOAD PUSH8 0xFFFFFFFFFFFFFFFF DUP2 GT ISZERO PUSH2 0x1DC8 JUMPI PUSH2 0x1DC7 PUSH2 0x1441 JUMP JUMPDEST JUMPDEST PUSH2 0x1DD4 DUP5 DUP3 DUP6 ADD PUSH2 0x1D69 JUMP JUMPDEST SWAP2 POP POP SWAP3 SWAP2 POP POP JUMP JUMPDEST PUSH0 PUSH1 0x20 DUP3 ADD SWAP1 POP DUP2 DUP2 SUB PUSH0 DUP4 ADD MSTORE PUSH2 0x1DF5 DUP2 DUP5 PUSH2 0x1C90 JUMP JUMPDEST SWAP1 POP SWAP3 SWAP2 POP POP JUMP JUMPDEST PUSH2 0x1E06 DUP2 PUSH2 0x135C JUMP JUMPDEST DUP2 EQ PUSH2 0x1E10 JUMPI PUSH0 DUP1 REVERT JUMPDEST POP JUMP JUMPDEST PUSH0 DUP2 MLOAD SWAP1 POP PUSH2 0x1E21 DUP2 PUSH2 0x1DFD JUMP JUMPDEST SWAP3 SWAP2 POP POP JUMP JUMPDEST PUSH0 PUSH1 0x20 DUP3 DUP5 SUB SLT ISZERO PUSH2 0x1E3C JUMPI PUSH2 0x1E3B PUSH2 0x143D JUMP JUMPDEST JUMPDEST PUSH0 PUSH2 0x1E49 DUP5 DUP3 DUP6 ADD PUSH2 0x1E13 JUMP JUMPDEST SWAP2 POP POP SWAP3 SWAP2 POP POP JUMP JUMPDEST PUSH0 PUSH1 0x20 PUSH1 0x1F DUP4 ADD DIV SWAP1 POP SWAP2 SWAP1 POP JUMP JUMPDEST PUSH0 DUP3 DUP3 SHL SWAP1 POP SWAP3 SWAP2 POP POP JUMP JUMPDEST PUSH0 PUSH1 0x8 DUP4 MUL PUSH2 0x1E9C PUSH32 0xFFFFFFFFFFFFFFFFFFFFFFFFFFFFFFFFFFFFFFFFFFFFFFFFFFFFFFFFFFFFFFFF DUP3 PUSH2 0x1E61 JUMP JUMPDEST PUSH2 0x1EA6 DUP7 DUP4 PUSH2 0x1E61 JUMP JUMPDEST SWAP6 POP DUP1 NOT DUP5 AND SWAP4 POP DUP1 DUP7 AND DUP5 OR SWAP3 POP POP POP SWAP4 SWAP3 POP POP POP JUMP JUMPDEST PUSH0 DUP2 SWAP1 POP SWAP2 SWAP1 POP JUMP JUMPDEST PUSH0 PUSH2 0x1EE1 PUSH2 0x1EDC PUSH2 0x1ED7 DUP5 PUSH2 0x1344 JUMP JUMPDEST PUSH2 0x1EBE JUMP JUMPDEST PUSH2 0x1344 JUMP JUMPDEST SWAP1 POP SWAP2 SWAP1 POP JUMP JUMPDEST PUSH0 DUP2 SWAP1 POP SWAP2 SWAP1 POP JUMP JUMPDEST PUSH2 0x1EFA DUP4 PUSH2 0x1EC7 JUMP JUMPDEST PUSH2 0x1F0E PUSH2 0x1F06 DUP3 PUSH2 0x1EE8 JUMP JUMPDEST DUP5 DUP5 SLOAD PUSH2 0x1E6D JUMP JUMPDEST DUP3 SSTORE POP POP POP POP JUMP JUMPDEST PUSH0 SWAP1 JUMP JUMPDEST PUSH2 0x1F22 PUSH2 0x1F16 JUMP JUMPDEST PUSH2 0x1F2D DUP2 DUP5 DUP5 PUSH2 0x1EF1 JUMP JUMPDEST POP POP POP JUMP JUMPDEST JUMPDEST DUP2 DUP2 LT ISZERO PUSH2 0x1F50 JUMPI PUSH2 0x1F45 PUSH0 DUP3 PUSH2 0x1F1A JUMP JUMPDEST PUSH1 0x1 DUP2 ADD SWAP1 POP PUSH2 0x1F33 JUMP JUMPDEST POP POP JUMP JUMPDEST PUSH1 0x1F DUP3 GT ISZERO PUSH2 0x1F95 JUMPI PUSH2 0x1F66 DUP2 PUSH2 0x1997 JUMP JUMPDEST PUSH2 0x1F6F DUP5 PUSH2 0x1E52 JUMP JUMPDEST DUP2 ADD PUSH1 0x20 DUP6 LT ISZERO PUSH2 0x1F7E JUMPI DUP2 SWAP1 POP JUMPDEST PUSH2 0x1F92 PUSH2 0x1F8A DUP6 PUSH2 0x1E52 JUMP JUMPDEST DUP4 ADD DUP3 PUSH2 0x1F32 JUMP JUMPDEST POP POP JUMPDEST POP POP POP JUMP JUMPDEST PUSH0 DUP3 DUP3 SHR SWAP1 POP SWAP3 SWAP2 POP POP JUMP JUMPDEST PUSH0 PUSH2 0x1FB5 PUSH0 NOT DUP5 PUSH1 0x8 MUL PUSH2 0x1F9A JUMP JUMPDEST NOT DUP1 DUP4 AND SWAP2 POP POP SWAP3 SWAP2 POP POP JUMP JUMPDEST PUSH0 PUSH2 0x1FCD DUP4 DUP4 PUSH2 0x1FA6 JUMP JUMPDEST SWAP2 POP DUP3 PUSH1 0x2 MUL DUP3 OR SWAP1 POP SWAP3 SWAP2 POP POP JUMP JUMPDEST PUSH2 0x1FE6 DUP3 PUSH2 0x12D4 JUMP JUMPDEST PUSH8 0xFFFFFFFFFFFFFFFF DUP2 GT ISZERO PUSH2 0x1FFF JUMPI PUSH2 0x1FFE PUSH2 0x144D JUMP JUMPDEST JUMPDEST PUSH2 0x2009 DUP3 SLOAD PUSH2 0x1957 JUMP JUMPDEST PUSH2 0x2014 DUP3 DUP3 DUP6 PUSH2 0x1F54 JUMP JUMPDEST PUSH0 PUSH1 0x20 SWAP1 POP PUSH1 0x1F DUP4 GT PUSH1 0x1 DUP2 EQ PUSH2 0x2045 JUMPI PUSH0 DUP5 ISZERO PUSH2 0x2033 JUMPI DUP3 DUP8 ADD MLOAD SWAP1 POP JUMPDEST PUSH2 0x203D DUP6 DUP3 PUSH2 0x1FC2 JUMP JUMPDEST DUP7 SSTORE POP PUSH2 0x20A4 JUMP JUMPDEST PUSH1 0x1F NOT DUP5 AND PUSH2 0x2053 DUP7 PUSH2 0x1997 JUMP JUMPDEST PUSH0 JUMPDEST DUP3 DUP2 LT ISZERO PUSH2 0x207A JUMPI DUP5 DUP10 ADD MLOAD DUP3 SSTORE PUSH1 0x1 DUP3 ADD SWAP2 POP PUSH1 0x20 DUP6 ADD SWAP5 POP PUSH1 0x20 DUP2 ADD SWAP1 POP PUSH2 0x2055 JUMP JUMPDEST DUP7 DUP4 LT ISZERO PUSH2 0x2097 JUMPI DUP5 DUP10 ADD MLOAD PUSH2 0x2093 PUSH1 0x1F DUP10 AND DUP3 PUSH2 0x1FA6 JUMP JUMPDEST DUP4 SSTORE POP JUMPDEST PUSH1 0x1 PUSH1 0x2 DUP9 MUL ADD DUP9 SSTORE POP POP POP JUMPDEST POP POP POP POP POP POP JUMP JUMPDEST PUSH32 0x4E487B7100000000000000000000000000000000000000000000000000000000 PUSH0 MSTORE PUSH1 0x11 PUSH1 0x4 MSTORE PUSH1 0x24 PUSH0 REVERT JUMPDEST PUSH0 PUSH2 0x20E3 DUP3 PUSH2 0x1344 JUMP JUMPDEST SWAP2 POP PUSH2 0x20EE DUP4 PUSH2 0x1344 JUMP JUMPDEST SWAP3 POP DUP3 DUP3 SUB SWAP1 POP DUP2 DUP2 GT ISZERO PUSH2 0x2106 JUMPI PUSH2 0x2105 PUSH2 0x20AC JUMP JUMPDEST JUMPDEST SWAP3 SWAP2 POP POP JUMP JUMPDEST PUSH0 PUSH2 0x2116 DUP3 PUSH2 0x1344 JUMP JUMPDEST SWAP2 POP PUSH2 0x2121 DUP4 PUSH2 0x1344 JUMP JUMPDEST SWAP3 POP DUP3 DUP3 ADD SWAP1 POP DUP1 DUP3 GT ISZERO PUSH2 0x2139 JUMPI PUSH2 0x2138 PUSH2 0x20AC JUMP JUMPDEST JUMPDEST SWAP3 SWAP2 POP POP JUMP JUMPDEST PUSH0 DUP2 SLOAD SWAP1 POP PUSH2 0x214D DUP2 PUSH2 0x1957 JUMP JUMPDEST SWAP1 POP SWAP2 SWAP1 POP JUMP JUMPDEST DUP2 DUP2 SUB PUSH2 0x2162 JUMPI POP POP PUSH2 0x2237 JUMP JUMPDEST PUSH2 0x216B DUP3 PUSH2 0x213F JUMP JUMPDEST PUSH8 0xFFFFFFFFFFFFFFFF DUP2 GT ISZERO PUSH2 0x2184 JUMPI PUSH2 0x2183 PUSH2 0x144D JUMP JUMPDEST JUMPDEST PUSH2 0x218E DUP3 SLOAD PUSH2 0x1957 JUMP JUMPDEST PUSH2 0x2199 DUP3 DUP3 DUP6 PUSH2 0x1F54 JUMP JUMPDEST PUSH0 PUSH1 0x1F DUP4 GT PUSH1 0x1 DUP2 EQ PUSH2 0x21C6 JUMPI PUSH0 DUP5 ISZERO PUSH2 0x21B4 JUMPI DUP3 DUP8 ADD SLOAD SWAP1 POP JUMPDEST PUSH2 0x21BE DUP6 DUP3 PUSH2 0x1FC2 JUMP JUMPDEST DUP7 SSTORE POP PUSH2 0x2230 JUMP JUMPDEST PUSH1 0x1F NOT DUP5 AND PUSH2 0x21D4 DUP8 PUSH2 0x1997 JUMP JUMPDEST SWAP7 POP PUSH2 0x21DF DUP7 PUSH2 0x1997 JUMP JUMPDEST PUSH0 JUMPDEST DUP3 DUP2 LT ISZERO PUSH2 0x2206 JUMPI DUP5 DUP10 ADD SLOAD DUP3 SSTORE PUSH1 0x1 DUP3 ADD SWAP2 POP PUSH1 0x1 DUP6 ADD SWAP5 POP PUSH1 0x20 DUP2 ADD SWAP1 POP PUSH2 0x21E1 JUMP JUMPDEST DUP7 DUP4 LT ISZERO PUSH2 0x2223 JUMPI DUP5 DUP10 ADD SLOAD PUSH2 0x221F PUSH1 0x1F DUP10 AND DUP3 PUSH2 0x1FA6 JUMP JUMPDEST DUP4 SSTORE POP JUMPDEST PUSH1 0x1 PUSH1 0x2 DUP9 MUL ADD DUP9 SSTORE POP POP POP JUMPDEST POP POP POP POP POP POP JUMPDEST JUMP JUMPDEST PUSH32 0x4E487B7100000000000000000000000000000000000000000000000000000000 PUSH0 MSTORE PUSH1 0x31 PUSH1 0x4 MSTORE PUSH1 0x24 PUSH0 REVERT JUMPDEST PUSH0 PUSH1 0x40 DUP3 ADD SWAP1 POP DUP2 DUP2 SUB PUSH0 DUP4 ADD MSTORE PUSH2 0x227E DUP2 DUP6 PUSH2 0x1B82 JUMP JUMPDEST SWAP1 POP PUSH2 0x228D PUSH1 0x20 DUP4 ADD DUP5 PUSH2 0x1CC8 JUMP JUMPDEST SWAP4 SWAP3 POP POP POP JUMP JUMPDEST PUSH0 DUP2 ISZERO ISZERO SWAP1 POP SWAP2 SWAP1 POP JUMP JUMPDEST PUSH2 0x22A8 DUP2 PUSH2 0x2294 JUMP JUMPDEST DUP2 EQ PUSH2 0x22B2 JUMPI PUSH0 DUP1 REVERT JUMPDEST POP JUMP JUMPDEST PUSH0 DUP2 MLOAD SWAP1 POP PUSH2 0x22C3 DUP2 PUSH2 0x229F JUMP JUMPDEST SWAP3 SWAP2 POP POP JUMP JUMPDEST PUSH0 PUSH1 0x20 DUP3 DUP5 SUB SLT ISZERO PUSH2 0x22DE JUMPI PUSH2 0x22DD PUSH2 0x143D JUMP JUMPDEST JUMPDEST PUSH0 PUSH2 0x22EB DUP5 DUP3 DUP6 ADD PUSH2 0x22B5 JUMP JUMPDEST SWAP2 POP POP SWAP3 SWAP2 POP POP JUMP JUMPDEST PUSH32 0x50726F706F73656C20646F6573206E6F74206578697374000000000000000000 PUSH0 DUP3 ADD MSTORE POP JUMP JUMPDEST PUSH0 PUSH2 0x2328 PUSH1 0x17 DUP4 PUSH2 0x1834 JUMP JUMPDEST SWAP2 POP PUSH2 0x2333 DUP3 PUSH2 0x22F4 JUMP JUMPDEST PUSH1 0x20 DUP3 ADD SWAP1 POP SWAP2 SWAP1 POP JUMP JUMPDEST PUSH0 PUSH1 0x20 DUP3 ADD SWAP1 POP DUP2 DUP2 SUB PUSH0 DUP4 ADD MSTORE PUSH2 0x2355 DUP2 PUSH2 0x231C JUMP JUMPDEST SWAP1 POP SWAP2 SWAP1 POP JUMP JUMPDEST PUSH0 PUSH2 0x2366 DUP3 PUSH2 0x1344 JUMP JUMPDEST SWAP2 POP PUSH0 DUP3 SUB PUSH2 0x2378 JUMPI PUSH2 0x2377 PUSH2 0x20AC JUMP JUMPDEST JUMPDEST PUSH1 0x1 DUP3 SUB SWAP1 POP SWAP2 SWAP1 POP JUMP JUMPDEST PUSH0 PUSH2 0x238D DUP3 PUSH2 0x1344 JUMP JUMPDEST SWAP2 POP PUSH32 0xFFFFFFFFFFFFFFFFFFFFFFFFFFFFFFFFFFFFFFFFFFFFFFFFFFFFFFFFFFFFFFFF DUP3 SUB PUSH2 0x23BF JUMPI PUSH2 0x23BE PUSH2 0x20AC JUMP JUMPDEST JUMPDEST PUSH1 0x1 DUP3 ADD SWAP1 POP SWAP2 SWAP1 POP JUMP INVALID LOG2 PUSH5 0x6970667358 0x22 SLT KECCAK256 0xC3 TIMESTAMP ISZERO 0xB9 0xDC 0xB6 0xDB TLOAD GT PUSH17 0x37C734EEDCD4EAB4CCCC2B09832AD4E0EB PUSH6 0x70750DF46473 PUSH16 0x6C634300081900330000000000000000 "
				},
				"gasEstimates": {
					"creation": {
						"codeDepositCost": "1843200",
						"executionCost": "infinite",
						"totalCost": "infinite"
					},
					"external": {
						"addProposel(string,string)": "infinite",
						"decreaseVotes(uint256)": "infinite",
						"getWinningProposel()": "infinite",
						"increaseVotes(uint256)": "infinite",
						"listProposels()": "infinite",
						"owner()": "2515",
						"removeWinningPropsel()": "infinite",
						"renounceOwnership()": "infinite",
						"transferOwnership(address)": "infinite"
					},
					"internal": {
						"getNexId()": "24371"
					}
				},
				"methodIdentifiers": {
					"addProposel(string,string)": "6f7789a1",
					"decreaseVotes(uint256)": "9b757a2c",
					"getWinningProposel()": "6c9a5fa4",
					"increaseVotes(uint256)": "ef46a75d",
					"listProposels()": "94964edf",
					"owner()": "8da5cb5b",
					"removeWinningPropsel()": "7cdbf25c",
					"renounceOwnership()": "715018a6",
					"transferOwnership(address)": "f2fde38b"
				}
			},
			"storageLayout": {
				"storage": [
					{
						"astId": 8,
						"contract": "contracts/final/ProposelContract.sol:ProposelContract",
						"label": "_owner",
						"offset": 0,
						"slot": "0",
						"type": "t_address"
					},
					{
						"astId": 631,
						"contract": "contracts/final/ProposelContract.sol:ProposelContract",
						"label": "keys",
						"offset": 0,
						"slot": "1",
						"type": "t_array(t_address)dyn_storage"
					},
					{
						"astId": 635,
						"contract": "contracts/final/ProposelContract.sol:ProposelContract",
						"label": "proposels",
						"offset": 0,
						"slot": "2",
						"type": "t_array(t_struct(Proposel)614_storage)dyn_storage"
					},
					{
						"astId": 637,
						"contract": "contracts/final/ProposelContract.sol:ProposelContract",
						"label": "idCounter",
						"offset": 0,
						"slot": "3",
						"type": "t_uint256"
					}
				],
				"types": {
					"t_address": {
						"encoding": "inplace",
						"label": "address",
						"numberOfBytes": "20"
					},
					"t_array(t_address)dyn_storage": {
						"base": "t_address",
						"encoding": "dynamic_array",
						"label": "address[]",
						"numberOfBytes": "32"
					},
					"t_array(t_struct(Proposel)614_storage)dyn_storage": {
						"base": "t_struct(Proposel)614_storage",
						"encoding": "dynamic_array",
						"label": "struct Proposel[]",
						"numberOfBytes": "32"
					},
					"t_bytes32": {
						"encoding": "inplace",
						"label": "bytes32",
						"numberOfBytes": "32"
					},
					"t_string_storage": {
						"encoding": "bytes",
						"label": "string",
						"numberOfBytes": "32"
					},
					"t_struct(Proposel)614_storage": {
						"encoding": "inplace",
						"label": "struct Proposel",
						"members": [
							{
								"astId": 601,
								"contract": "contracts/final/ProposelContract.sol:ProposelContract",
								"label": "owner",
								"offset": 0,
								"slot": "0",
								"type": "t_address"
							},
							{
								"astId": 603,
								"contract": "contracts/final/ProposelContract.sol:ProposelContract",
								"label": "name",
								"offset": 0,
								"slot": "1",
								"type": "t_string_storage"
							},
							{
								"astId": 605,
								"contract": "contracts/final/ProposelContract.sol:ProposelContract",
								"label": "url",
								"offset": 0,
								"slot": "2",
								"type": "t_string_storage"
							},
							{
								"astId": 607,
								"contract": "contracts/final/ProposelContract.sol:ProposelContract",
								"label": "timestamp",
								"offset": 0,
								"slot": "3",
								"type": "t_uint256"
							},
							{
								"astId": 609,
								"contract": "contracts/final/ProposelContract.sol:ProposelContract",
								"label": "votes",
								"offset": 0,
								"slot": "4",
								"type": "t_uint256"
							},
							{
								"astId": 611,
								"contract": "contracts/final/ProposelContract.sol:ProposelContract",
								"label": "id",
								"offset": 0,
								"slot": "5",
								"type": "t_uint256"
							},
							{
								"astId": 613,
								"contract": "contracts/final/ProposelContract.sol:ProposelContract",
								"label": "uniqueHash",
								"offset": 0,
								"slot": "6",
								"type": "t_bytes32"
							}
						],
						"numberOfBytes": "224"
					},
					"t_uint256": {
						"encoding": "inplace",
						"label": "uint256",
						"numberOfBytes": "32"
					}
				}
			},
			"userdoc": {
				"kind": "user",
				"methods": {},
				"version": 1
			}
		}
	}
}