{
	"contracts/final/AudienceEngagementTool.sol": {
		"AudienceEngagementTool": {
			"abi": [
				{
					"inputs": [
						{
							"internalType": "address",
							"name": "IProposelContractAddress",
							"type": "address"
						}
					],
					"stateMutability": "nonpayable",
					"type": "constructor"
				},
				{
					"inputs": [],
					"name": "InvalidInitialization",
					"type": "error"
				},
				{
					"inputs": [],
					"name": "NotInitializing",
					"type": "error"
				},
				{
					"inputs": [
						{
							"internalType": "address",
							"name": "owner",
							"type": "address"
						}
					],
					"name": "OwnableInvalidOwner",
					"type": "error"
				},
				{
					"inputs": [
						{
							"internalType": "address",
							"name": "account",
							"type": "address"
						}
					],
					"name": "OwnableUnauthorizedAccount",
					"type": "error"
				},
				{
					"anonymous": false,
					"inputs": [
						{
							"indexed": false,
							"internalType": "uint64",
							"name": "version",
							"type": "uint64"
						}
					],
					"name": "Initialized",
					"type": "event"
				},
				{
					"anonymous": false,
					"inputs": [
						{
							"indexed": true,
							"internalType": "address",
							"name": "previousOwner",
							"type": "address"
						},
						{
							"indexed": true,
							"internalType": "address",
							"name": "newOwner",
							"type": "address"
						}
					],
					"name": "OwnershipTransferred",
					"type": "event"
				},
				{
					"anonymous": false,
					"inputs": [
						{
							"indexed": false,
							"internalType": "string",
							"name": "name",
							"type": "string"
						},
						{
							"indexed": false,
							"internalType": "string",
							"name": "url",
							"type": "string"
						},
						{
							"indexed": false,
							"internalType": "uint256",
							"name": "timestamp",
							"type": "uint256"
						},
						{
							"indexed": false,
							"internalType": "uint256",
							"name": "votes",
							"type": "uint256"
						},
						{
							"indexed": false,
							"internalType": "uint256",
							"name": "id",
							"type": "uint256"
						}
					],
					"name": "ProposelAdded",
					"type": "event"
				},
				{
					"anonymous": false,
					"inputs": [
						{
							"indexed": false,
							"internalType": "uint256",
							"name": "proposel_id",
							"type": "uint256"
						}
					],
					"name": "RemovedProposel",
					"type": "event"
				},
				{
					"anonymous": false,
					"inputs": [
						{
							"indexed": false,
							"internalType": "string",
							"name": "url",
							"type": "string"
						}
					],
					"name": "ResetPeriod",
					"type": "event"
				},
				{
					"anonymous": false,
					"inputs": [
						{
							"indexed": false,
							"internalType": "address",
							"name": "voter",
							"type": "address"
						},
						{
							"indexed": false,
							"internalType": "uint256",
							"name": "proposel_id",
							"type": "uint256"
						}
					],
					"name": "VoteCasted",
					"type": "event"
				},
				{
					"anonymous": false,
					"inputs": [
						{
							"indexed": false,
							"internalType": "address",
							"name": "voter",
							"type": "address"
						},
						{
							"indexed": false,
							"internalType": "uint256",
							"name": "proposel_id",
							"type": "uint256"
						}
					],
					"name": "VoteUncasted",
					"type": "event"
				},
				{
					"inputs": [],
					"name": "getFee",
					"outputs": [
						{
							"internalType": "uint256",
							"name": "",
							"type": "uint256"
						}
					],
					"stateMutability": "view",
					"type": "function"
				},
				{
					"inputs": [],
					"name": "getLastWinningProposal",
					"outputs": [
						{
							"components": [
								{
									"internalType": "address",
									"name": "owner",
									"type": "address"
								},
								{
									"internalType": "string",
									"name": "name",
									"type": "string"
								},
								{
									"internalType": "string",
									"name": "url",
									"type": "string"
								},
								{
									"internalType": "uint256",
									"name": "timestamp",
									"type": "uint256"
								},
								{
									"internalType": "uint256",
									"name": "votes",
									"type": "uint256"
								},
								{
									"internalType": "uint256",
									"name": "id",
									"type": "uint256"
								},
								{
									"internalType": "bytes32",
									"name": "uniqueHash",
									"type": "bytes32"
								}
							],
							"internalType": "struct Proposel",
							"name": "",
							"type": "tuple"
						}
					],
					"stateMutability": "view",
					"type": "function"
				},
				{
					"inputs": [],
					"name": "getLatestPrice",
					"outputs": [
						{
							"internalType": "uint256",
							"name": "",
							"type": "uint256"
						}
					],
					"stateMutability": "view",
					"type": "function"
				},
				{
					"inputs": [],
					"name": "getPeriodInterval",
					"outputs": [
						{
							"components": [
								{
									"internalType": "uint256",
									"name": "periodStart",
									"type": "uint256"
								},
								{
									"internalType": "uint256",
									"name": "periodEnd",
									"type": "uint256"
								}
							],
							"internalType": "struct PeriodInterval",
							"name": "",
							"type": "tuple"
						}
					],
					"stateMutability": "view",
					"type": "function"
				},
				{
					"inputs": [],
					"name": "getVotes",
					"outputs": [
						{
							"internalType": "address[]",
							"name": "",
							"type": "address[]"
						}
					],
					"stateMutability": "view",
					"type": "function"
				},
				{
					"inputs": [],
					"name": "getWinningPoposel",
					"outputs": [
						{
							"components": [
								{
									"internalType": "address",
									"name": "owner",
									"type": "address"
								},
								{
									"internalType": "string",
									"name": "name",
									"type": "string"
								},
								{
									"internalType": "string",
									"name": "url",
									"type": "string"
								},
								{
									"internalType": "uint256",
									"name": "timestamp",
									"type": "uint256"
								},
								{
									"internalType": "uint256",
									"name": "votes",
									"type": "uint256"
								},
								{
									"internalType": "uint256",
									"name": "id",
									"type": "uint256"
								},
								{
									"internalType": "bytes32",
									"name": "uniqueHash",
									"type": "bytes32"
								}
							],
							"internalType": "struct Proposel",
							"name": "",
							"type": "tuple"
						}
					],
					"stateMutability": "view",
					"type": "function"
				},
				{
					"inputs": [],
					"name": "lastWinningProposal",
					"outputs": [
						{
							"internalType": "address",
							"name": "owner",
							"type": "address"
						},
						{
							"internalType": "string",
							"name": "name",
							"type": "string"
						},
						{
							"internalType": "string",
							"name": "url",
							"type": "string"
						},
						{
							"internalType": "uint256",
							"name": "timestamp",
							"type": "uint256"
						},
						{
							"internalType": "uint256",
							"name": "votes",
							"type": "uint256"
						},
						{
							"internalType": "uint256",
							"name": "id",
							"type": "uint256"
						},
						{
							"internalType": "bytes32",
							"name": "uniqueHash",
							"type": "bytes32"
						}
					],
					"stateMutability": "view",
					"type": "function"
				},
				{
					"inputs": [],
					"name": "listProposels",
					"outputs": [
						{
							"components": [
								{
									"internalType": "address",
									"name": "owner",
									"type": "address"
								},
								{
									"internalType": "string",
									"name": "name",
									"type": "string"
								},
								{
									"internalType": "string",
									"name": "url",
									"type": "string"
								},
								{
									"internalType": "uint256",
									"name": "timestamp",
									"type": "uint256"
								},
								{
									"internalType": "uint256",
									"name": "votes",
									"type": "uint256"
								},
								{
									"internalType": "uint256",
									"name": "id",
									"type": "uint256"
								},
								{
									"internalType": "bytes32",
									"name": "uniqueHash",
									"type": "bytes32"
								}
							],
							"internalType": "struct Proposel[]",
							"name": "",
							"type": "tuple[]"
						}
					],
					"stateMutability": "view",
					"type": "function"
				},
				{
					"inputs": [
						{
							"internalType": "address",
							"name": "to",
							"type": "address"
						}
					],
					"name": "makeTransfer",
					"outputs": [],
					"stateMutability": "payable",
					"type": "function"
				},
				{
					"inputs": [],
					"name": "owner",
					"outputs": [
						{
							"internalType": "address",
							"name": "",
							"type": "address"
						}
					],
					"stateMutability": "view",
					"type": "function"
				},
				{
					"inputs": [],
					"name": "renounceOwnership",
					"outputs": [],
					"stateMutability": "nonpayable",
					"type": "function"
				},
				{
					"inputs": [],
					"name": "resetPeriod",
					"outputs": [],
					"stateMutability": "nonpayable",
					"type": "function"
				},
				{
					"inputs": [
						{
							"internalType": "uint256",
							"name": "newFee",
							"type": "uint256"
						}
					],
					"name": "setFee",
					"outputs": [],
					"stateMutability": "nonpayable",
					"type": "function"
				},
				{
					"inputs": [
						{
							"internalType": "string",
							"name": "name",
							"type": "string"
						},
						{
							"internalType": "string",
							"name": "url",
							"type": "string"
						}
					],
					"name": "setProposel",
					"outputs": [],
					"stateMutability": "payable",
					"type": "function"
				},
				{
					"inputs": [
						{
							"internalType": "address",
							"name": "IProposelContractAddress",
							"type": "address"
						}
					],
					"name": "setProposelContractAddress",
					"outputs": [],
					"stateMutability": "nonpayable",
					"type": "function"
				},
				{
					"inputs": [
						{
							"internalType": "address",
							"name": "newOwner",
							"type": "address"
						}
					],
					"name": "transferOwnership",
					"outputs": [],
					"stateMutability": "nonpayable",
					"type": "function"
				},
				{
					"inputs": [],
					"name": "unvote",
					"outputs": [],
					"stateMutability": "nonpayable",
					"type": "function"
				},
				{
					"inputs": [
						{
							"internalType": "uint256",
							"name": "proposelId",
							"type": "uint256"
						}
					],
					"name": "vote",
					"outputs": [],
					"stateMutability": "nonpayable",
					"type": "function"
				}
			],
			"devdoc": {
				"errors": {
					"InvalidInitialization()": [
						{
							"details": "The contract is already initialized."
						}
					],
					"NotInitializing()": [
						{
							"details": "The contract is not initializing."
						}
					],
					"OwnableInvalidOwner(address)": [
						{
							"details": "The owner is not a valid owner account. (eg. `address(0)`)"
						}
					],
					"OwnableUnauthorizedAccount(address)": [
						{
							"details": "The caller account is not authorized to perform an operation."
						}
					]
				},
				"events": {
					"Initialized(uint64)": {
						"details": "Triggered when the contract has been initialized or reinitialized."
					}
				},
				"kind": "dev",
				"methods": {
					"owner()": {
						"details": "Returns the address of the current owner."
					},
					"renounceOwnership()": {
						"details": "Leaves the contract without owner. It will not be possible to call `onlyOwner` functions. Can only be called by the current owner. NOTE: Renouncing ownership will leave the contract without an owner, thereby disabling any functionality that is only available to the owner."
					},
					"transferOwnership(address)": {
						"details": "Transfers ownership of the contract to a new account (`newOwner`). Can only be called by the current owner."
					}
				},
				"version": 1
			},
			"evm": {
				"assembly": "    /* \"contracts/final/AudienceEngagementTool.sol\":426:4932  contract AudienceEngagementTool is Ownable, Initializable  {... */\n  mstore(0x40, 0x80)\n    /* \"contracts/final/AudienceEngagementTool.sol\":1065:1434  constructor(address IProposelContractAddress) Ownable(msg.sender){... */\n  callvalue\n  dup1\n  iszero\n  tag_1\n  jumpi\n  0x00\n  dup1\n  revert\ntag_1:\n  pop\n  mload(0x40)\n  sub(codesize, bytecodeSize)\n  dup1\n  bytecodeSize\n  dup4\n  codecopy\n  dup2\n  dup2\n  add\n  0x40\n  mstore\n  dup2\n  add\n  swap1\n  tag_2\n  swap2\n  swap1\n  tag_3\n  jump\t// in\ntag_2:\n    /* \"contracts/final/AudienceEngagementTool.sol\":1119:1129  msg.sender */\n  caller\n    /* \"@openzeppelin/contracts/access/Ownable.sol\":1297:1298  0 */\n  0x00\n    /* \"@openzeppelin/contracts/access/Ownable.sol\":1273:1299  initialOwner == address(0) */\n  0xffffffffffffffffffffffffffffffffffffffff\n  and\n    /* \"@openzeppelin/contracts/access/Ownable.sol\":1273:1285  initialOwner */\n  dup2\n    /* \"@openzeppelin/contracts/access/Ownable.sol\":1273:1299  initialOwner == address(0) */\n  0xffffffffffffffffffffffffffffffffffffffff\n  and\n  sub\n    /* \"@openzeppelin/contracts/access/Ownable.sol\":1269:1364  if (initialOwner == address(0)) {... */\n  tag_7\n  jumpi\n    /* \"@openzeppelin/contracts/access/Ownable.sol\":1350:1351  0 */\n  0x00\n    /* \"@openzeppelin/contracts/access/Ownable.sol\":1322:1353  OwnableInvalidOwner(address(0)) */\n  mload(0x40)\n  0x1e4fbdf700000000000000000000000000000000000000000000000000000000\n  dup2\n  mstore\n  0x04\n  add\n  tag_8\n  swap2\n  swap1\n  tag_9\n  jump\t// in\ntag_8:\n  mload(0x40)\n  dup1\n  swap2\n  sub\n  swap1\n  revert\n    /* \"@openzeppelin/contracts/access/Ownable.sol\":1269:1364  if (initialOwner == address(0)) {... */\ntag_7:\n    /* \"@openzeppelin/contracts/access/Ownable.sol\":1373:1405  _transferOwnership(initialOwner) */\n  tag_10\n    /* \"@openzeppelin/contracts/access/Ownable.sol\":1392:1404  initialOwner */\n  dup2\n    /* \"@openzeppelin/contracts/access/Ownable.sol\":1373:1391  _transferOwnership */\n  shl(0x20, tag_11)\n    /* \"@openzeppelin/contracts/access/Ownable.sol\":1373:1405  _transferOwnership(initialOwner) */\n  0x20\n  shr\n  jump\t// in\ntag_10:\n    /* \"@openzeppelin/contracts/access/Ownable.sol\":1225:1412  constructor(address initialOwner) {... */\n  pop\n    /* \"contracts/final/AudienceEngagementTool.sol\":1175:1217  0x694AA1769357215DE4FAC081bf1f309aDC325306 */\n  0x694aa1769357215de4fac081bf1f309adc325306\n    /* \"contracts/final/AudienceEngagementTool.sol\":1141:1150  priceFeed */\n  0x0e\n  0x00\n    /* \"contracts/final/AudienceEngagementTool.sol\":1141:1218  priceFeed = AggregatorV3Interface(0x694AA1769357215DE4FAC081bf1f309aDC325306) */\n  0x0100\n  exp\n  dup2\n  sload\n  dup2\n  0xffffffffffffffffffffffffffffffffffffffff\n  mul\n  not\n  and\n  swap1\n  dup4\n  0xffffffffffffffffffffffffffffffffffffffff\n  and\n  mul\n  or\n  swap1\n  sstore\n  pop\n    /* \"contracts/final/AudienceEngagementTool.sol\":1267:1291  IProposelContractAddress */\n  dup1\n    /* \"contracts/final/AudienceEngagementTool.sol\":1229:1245  proposelContract */\n  0x0c\n  0x00\n    /* \"contracts/final/AudienceEngagementTool.sol\":1229:1292  proposelContract =  IProposelContract(IProposelContractAddress) */\n  0x0100\n  exp\n  dup2\n  sload\n  dup2\n  0xffffffffffffffffffffffffffffffffffffffff\n  mul\n  not\n  and\n  swap1\n  dup4\n  0xffffffffffffffffffffffffffffffffffffffff\n  and\n  mul\n  or\n  swap1\n  sstore\n  pop\n    /* \"contracts/final/AudienceEngagementTool.sol\":1317:1332  block.timestamp */\n  timestamp\n    /* \"contracts/final/AudienceEngagementTool.sol\":1303:1314  periodStart */\n  0x03\n    /* \"contracts/final/AudienceEngagementTool.sol\":1303:1332  periodStart = block.timestamp */\n  dup2\n  swap1\n  sstore\n  pop\n    /* \"contracts/final/AudienceEngagementTool.sol\":1369:1372  300 */\n  0x012c\n    /* \"contracts/final/AudienceEngagementTool.sol\":1355:1366  periodStart */\n  sload(0x03)\n    /* \"contracts/final/AudienceEngagementTool.sol\":1355:1372  periodStart + 300 */\n  tag_13\n  swap2\n  swap1\n  tag_14\n  jump\t// in\ntag_13:\n    /* \"contracts/final/AudienceEngagementTool.sol\":1343:1352  periodEnd */\n  0x04\n    /* \"contracts/final/AudienceEngagementTool.sol\":1343:1372  periodEnd = periodStart + 300 */\n  dup2\n  swap1\n  sstore\n  pop\n    /* \"contracts/final/AudienceEngagementTool.sol\":1389:1390  1 */\n  0x01\n    /* \"contracts/final/AudienceEngagementTool.sol\":1383:1386  fee */\n  0x0f\n    /* \"contracts/final/AudienceEngagementTool.sol\":1383:1390  fee = 1 */\n  dup2\n  swap1\n  sstore\n  pop\n    /* \"contracts/final/AudienceEngagementTool.sol\":1416:1426  msg.sender */\n  caller\n    /* \"contracts/final/AudienceEngagementTool.sol\":1401:1413  ownerAccount */\n  0x0d\n  0x00\n    /* \"contracts/final/AudienceEngagementTool.sol\":1401:1426  ownerAccount = msg.sender */\n  0x0100\n  exp\n  dup2\n  sload\n  dup2\n  0xffffffffffffffffffffffffffffffffffffffff\n  mul\n  not\n  and\n  swap1\n  dup4\n  0xffffffffffffffffffffffffffffffffffffffff\n  and\n  mul\n  or\n  swap1\n  sstore\n  pop\n    /* \"contracts/final/AudienceEngagementTool.sol\":1065:1434  constructor(address IProposelContractAddress) Ownable(msg.sender){... */\n  pop\n    /* \"contracts/final/AudienceEngagementTool.sol\":426:4932  contract AudienceEngagementTool is Ownable, Initializable  {... */\n  jump(tag_15)\n    /* \"@openzeppelin/contracts/access/Ownable.sol\":2912:3099  function _transferOwnership(address newOwner) internal virtual {... */\ntag_11:\n    /* \"@openzeppelin/contracts/access/Ownable.sol\":2985:3001  address oldOwner */\n  0x00\n    /* \"@openzeppelin/contracts/access/Ownable.sol\":3004:3010  _owner */\n  dup1\n  0x00\n  swap1\n  sload\n  swap1\n  0x0100\n  exp\n  swap1\n  div\n  0xffffffffffffffffffffffffffffffffffffffff\n  and\n    /* \"@openzeppelin/contracts/access/Ownable.sol\":2985:3010  address oldOwner = _owner */\n  swap1\n  pop\n    /* \"@openzeppelin/contracts/access/Ownable.sol\":3029:3037  newOwner */\n  dup2\n    /* \"@openzeppelin/contracts/access/Ownable.sol\":3020:3026  _owner */\n  0x00\n  dup1\n    /* \"@openzeppelin/contracts/access/Ownable.sol\":3020:3037  _owner = newOwner */\n  0x0100\n  exp\n  dup2\n  sload\n  dup2\n  0xffffffffffffffffffffffffffffffffffffffff\n  mul\n  not\n  and\n  swap1\n  dup4\n  0xffffffffffffffffffffffffffffffffffffffff\n  and\n  mul\n  or\n  swap1\n  sstore\n  pop\n    /* \"@openzeppelin/contracts/access/Ownable.sol\":3083:3091  newOwner */\n  dup2\n    /* \"@openzeppelin/contracts/access/Ownable.sol\":3052:3092  OwnershipTransferred(oldOwner, newOwner) */\n  0xffffffffffffffffffffffffffffffffffffffff\n  and\n    /* \"@openzeppelin/contracts/access/Ownable.sol\":3073:3081  oldOwner */\n  dup2\n    /* \"@openzeppelin/contracts/access/Ownable.sol\":3052:3092  OwnershipTransferred(oldOwner, newOwner) */\n  0xffffffffffffffffffffffffffffffffffffffff\n  and\n  0x8be0079c531659141344cd1fd0a4f28419497f9722a3daafe3b4186f6b6457e0\n  mload(0x40)\n  mload(0x40)\n  dup1\n  swap2\n  sub\n  swap1\n  log3\n    /* \"@openzeppelin/contracts/access/Ownable.sol\":2975:3099  {... */\n  pop\n    /* \"@openzeppelin/contracts/access/Ownable.sol\":2912:3099  function _transferOwnership(address newOwner) internal virtual {... */\n  pop\n  jump\t// out\n    /* \"#utility.yul\":88:205   */\ntag_18:\n    /* \"#utility.yul\":197:198   */\n  0x00\n    /* \"#utility.yul\":194:195   */\n  dup1\n    /* \"#utility.yul\":187:199   */\n  revert\n    /* \"#utility.yul\":334:460   */\ntag_20:\n    /* \"#utility.yul\":371:378   */\n  0x00\n    /* \"#utility.yul\":411:453   */\n  0xffffffffffffffffffffffffffffffffffffffff\n    /* \"#utility.yul\":404:409   */\n  dup3\n    /* \"#utility.yul\":400:454   */\n  and\n    /* \"#utility.yul\":389:454   */\n  swap1\n  pop\n    /* \"#utility.yul\":334:460   */\n  swap2\n  swap1\n  pop\n  jump\t// out\n    /* \"#utility.yul\":466:562   */\ntag_21:\n    /* \"#utility.yul\":503:510   */\n  0x00\n    /* \"#utility.yul\":532:556   */\n  tag_33\n    /* \"#utility.yul\":550:555   */\n  dup3\n    /* \"#utility.yul\":532:556   */\n  tag_20\n  jump\t// in\ntag_33:\n    /* \"#utility.yul\":521:556   */\n  swap1\n  pop\n    /* \"#utility.yul\":466:562   */\n  swap2\n  swap1\n  pop\n  jump\t// out\n    /* \"#utility.yul\":568:690   */\ntag_22:\n    /* \"#utility.yul\":641:665   */\n  tag_35\n    /* \"#utility.yul\":659:664   */\n  dup2\n    /* \"#utility.yul\":641:665   */\n  tag_21\n  jump\t// in\ntag_35:\n    /* \"#utility.yul\":634:639   */\n  dup2\n    /* \"#utility.yul\":631:666   */\n  eq\n    /* \"#utility.yul\":621:684   */\n  tag_36\n  jumpi\n    /* \"#utility.yul\":680:681   */\n  0x00\n    /* \"#utility.yul\":677:678   */\n  dup1\n    /* \"#utility.yul\":670:682   */\n  revert\n    /* \"#utility.yul\":621:684   */\ntag_36:\n    /* \"#utility.yul\":568:690   */\n  pop\n  jump\t// out\n    /* \"#utility.yul\":696:839   */\ntag_23:\n    /* \"#utility.yul\":753:758   */\n  0x00\n    /* \"#utility.yul\":784:790   */\n  dup2\n    /* \"#utility.yul\":778:791   */\n  mload\n    /* \"#utility.yul\":769:791   */\n  swap1\n  pop\n    /* \"#utility.yul\":800:833   */\n  tag_38\n    /* \"#utility.yul\":827:832   */\n  dup2\n    /* \"#utility.yul\":800:833   */\n  tag_22\n  jump\t// in\ntag_38:\n    /* \"#utility.yul\":696:839   */\n  swap3\n  swap2\n  pop\n  pop\n  jump\t// out\n    /* \"#utility.yul\":845:1196   */\ntag_3:\n    /* \"#utility.yul\":915:921   */\n  0x00\n    /* \"#utility.yul\":964:966   */\n  0x20\n    /* \"#utility.yul\":952:961   */\n  dup3\n    /* \"#utility.yul\":943:950   */\n  dup5\n    /* \"#utility.yul\":939:962   */\n  sub\n    /* \"#utility.yul\":935:967   */\n  slt\n    /* \"#utility.yul\":932:1051   */\n  iszero\n  tag_40\n  jumpi\n    /* \"#utility.yul\":970:1049   */\n  tag_41\n  tag_18\n  jump\t// in\ntag_41:\n    /* \"#utility.yul\":932:1051   */\ntag_40:\n    /* \"#utility.yul\":1090:1091   */\n  0x00\n    /* \"#utility.yul\":1115:1179   */\n  tag_42\n    /* \"#utility.yul\":1171:1178   */\n  dup5\n    /* \"#utility.yul\":1162:1168   */\n  dup3\n    /* \"#utility.yul\":1151:1160   */\n  dup6\n    /* \"#utility.yul\":1147:1169   */\n  add\n    /* \"#utility.yul\":1115:1179   */\n  tag_23\n  jump\t// in\ntag_42:\n    /* \"#utility.yul\":1105:1179   */\n  swap2\n  pop\n    /* \"#utility.yul\":1061:1189   */\n  pop\n    /* \"#utility.yul\":845:1196   */\n  swap3\n  swap2\n  pop\n  pop\n  jump\t// out\n    /* \"#utility.yul\":1202:1320   */\ntag_24:\n    /* \"#utility.yul\":1289:1313   */\n  tag_44\n    /* \"#utility.yul\":1307:1312   */\n  dup2\n    /* \"#utility.yul\":1289:1313   */\n  tag_21\n  jump\t// in\ntag_44:\n    /* \"#utility.yul\":1284:1287   */\n  dup3\n    /* \"#utility.yul\":1277:1314   */\n  mstore\n    /* \"#utility.yul\":1202:1320   */\n  pop\n  pop\n  jump\t// out\n    /* \"#utility.yul\":1326:1548   */\ntag_9:\n    /* \"#utility.yul\":1419:1423   */\n  0x00\n    /* \"#utility.yul\":1457:1459   */\n  0x20\n    /* \"#utility.yul\":1446:1455   */\n  dup3\n    /* \"#utility.yul\":1442:1460   */\n  add\n    /* \"#utility.yul\":1434:1460   */\n  swap1\n  pop\n    /* \"#utility.yul\":1470:1541   */\n  tag_46\n    /* \"#utility.yul\":1538:1539   */\n  0x00\n    /* \"#utility.yul\":1527:1536   */\n  dup4\n    /* \"#utility.yul\":1523:1540   */\n  add\n    /* \"#utility.yul\":1514:1520   */\n  dup5\n    /* \"#utility.yul\":1470:1541   */\n  tag_24\n  jump\t// in\ntag_46:\n    /* \"#utility.yul\":1326:1548   */\n  swap3\n  swap2\n  pop\n  pop\n  jump\t// out\n    /* \"#utility.yul\":1554:1631   */\ntag_25:\n    /* \"#utility.yul\":1591:1598   */\n  0x00\n    /* \"#utility.yul\":1620:1625   */\n  dup2\n    /* \"#utility.yul\":1609:1625   */\n  swap1\n  pop\n    /* \"#utility.yul\":1554:1631   */\n  swap2\n  swap1\n  pop\n  jump\t// out\n    /* \"#utility.yul\":1637:1817   */\ntag_26:\n    /* \"#utility.yul\":1685:1762   */\n  0x4e487b7100000000000000000000000000000000000000000000000000000000\n    /* \"#utility.yul\":1682:1683   */\n  0x00\n    /* \"#utility.yul\":1675:1763   */\n  mstore\n    /* \"#utility.yul\":1782:1786   */\n  0x11\n    /* \"#utility.yul\":1779:1780   */\n  0x04\n    /* \"#utility.yul\":1772:1787   */\n  mstore\n    /* \"#utility.yul\":1806:1810   */\n  0x24\n    /* \"#utility.yul\":1803:1804   */\n  0x00\n    /* \"#utility.yul\":1796:1811   */\n  revert\n    /* \"#utility.yul\":1823:2014   */\ntag_14:\n    /* \"#utility.yul\":1863:1866   */\n  0x00\n    /* \"#utility.yul\":1882:1902   */\n  tag_50\n    /* \"#utility.yul\":1900:1901   */\n  dup3\n    /* \"#utility.yul\":1882:1902   */\n  tag_25\n  jump\t// in\ntag_50:\n    /* \"#utility.yul\":1877:1902   */\n  swap2\n  pop\n    /* \"#utility.yul\":1916:1936   */\n  tag_51\n    /* \"#utility.yul\":1934:1935   */\n  dup4\n    /* \"#utility.yul\":1916:1936   */\n  tag_25\n  jump\t// in\ntag_51:\n    /* \"#utility.yul\":1911:1936   */\n  swap3\n  pop\n    /* \"#utility.yul\":1959:1960   */\n  dup3\n    /* \"#utility.yul\":1956:1957   */\n  dup3\n    /* \"#utility.yul\":1952:1961   */\n  add\n    /* \"#utility.yul\":1945:1961   */\n  swap1\n  pop\n    /* \"#utility.yul\":1980:1983   */\n  dup1\n    /* \"#utility.yul\":1977:1978   */\n  dup3\n    /* \"#utility.yul\":1974:1984   */\n  gt\n    /* \"#utility.yul\":1971:2007   */\n  iszero\n  tag_52\n  jumpi\n    /* \"#utility.yul\":1987:2005   */\n  tag_53\n  tag_26\n  jump\t// in\ntag_53:\n    /* \"#utility.yul\":1971:2007   */\ntag_52:\n    /* \"#utility.yul\":1823:2014   */\n  swap3\n  swap2\n  pop\n  pop\n  jump\t// out\n    /* \"contracts/final/AudienceEngagementTool.sol\":426:4932  contract AudienceEngagementTool is Ownable, Initializable  {... */\ntag_15:\n  dataSize(sub_0)\n  dup1\n  dataOffset(sub_0)\n  0x00\n  codecopy\n  0x00\n  return\nstop\n\nsub_0: assembly {\n        /* \"contracts/final/AudienceEngagementTool.sol\":426:4932  contract AudienceEngagementTool is Ownable, Initializable  {... */\n      mstore(0x40, 0x80)\n      jumpi(tag_1, lt(calldatasize, 0x04))\n      shr(0xe0, calldataload(0x00))\n      dup1\n      0x76f90e8e\n      gt\n      tag_20\n      jumpi\n      dup1\n      0x944c1d97\n      gt\n      tag_21\n      jumpi\n      dup1\n      0x944c1d97\n      eq\n      tag_15\n      jumpi\n      dup1\n      0x94964edf\n      eq\n      tag_16\n      jumpi\n      dup1\n      0xced72f87\n      eq\n      tag_17\n      jumpi\n      dup1\n      0xf2fde38b\n      eq\n      tag_18\n      jumpi\n      dup1\n      0xffeb78b7\n      eq\n      tag_19\n      jumpi\n      jump(tag_1)\n    tag_21:\n      dup1\n      0x76f90e8e\n      eq\n      tag_11\n      jumpi\n      dup1\n      0x8da5cb5b\n      eq\n      tag_12\n      jumpi\n      dup1\n      0x8e15f473\n      eq\n      tag_13\n      jumpi\n      dup1\n      0x90ab1d8e\n      eq\n      tag_14\n      jumpi\n      jump(tag_1)\n    tag_20:\n      dup1\n      0x2d5cea8e\n      gt\n      tag_22\n      jumpi\n      dup1\n      0x2d5cea8e\n      eq\n      tag_6\n      jumpi\n      dup1\n      0x3174b689\n      eq\n      tag_7\n      jumpi\n      dup1\n      0x52505453\n      eq\n      tag_8\n      jumpi\n      dup1\n      0x69fe0e2d\n      eq\n      tag_9\n      jumpi\n      dup1\n      0x715018a6\n      eq\n      tag_10\n      jumpi\n      jump(tag_1)\n    tag_22:\n      dup1\n      0x0121b93f\n      eq\n      tag_2\n      jumpi\n      dup1\n      0x06db5c06\n      eq\n      tag_3\n      jumpi\n      dup1\n      0x0dc96015\n      eq\n      tag_4\n      jumpi\n      dup1\n      0x26732549\n      eq\n      tag_5\n      jumpi\n    tag_1:\n      0x00\n      dup1\n      revert\n        /* \"contracts/final/AudienceEngagementTool.sol\":3640:3899  function vote(uint proposelId)  isVotingPeriod notVotedYet external {       ... */\n    tag_2:\n      callvalue\n      dup1\n      iszero\n      tag_23\n      jumpi\n      0x00\n      dup1\n      revert\n    tag_23:\n      pop\n      tag_24\n      0x04\n      dup1\n      calldatasize\n      sub\n      dup2\n      add\n      swap1\n      tag_25\n      swap2\n      swap1\n      tag_26\n      jump\t// in\n    tag_25:\n      tag_27\n      jump\t// in\n    tag_24:\n      stop\n        /* \"contracts/final/AudienceEngagementTool.sol\":3279:3632  function setProposel(... */\n    tag_3:\n      tag_28\n      0x04\n      dup1\n      calldatasize\n      sub\n      dup2\n      add\n      swap1\n      tag_29\n      swap2\n      swap1\n      tag_30\n      jump\t// in\n    tag_29:\n      tag_31\n      jump\t// in\n    tag_28:\n      stop\n        /* \"contracts/final/AudienceEngagementTool.sol\":4636:4723  function getVotes() view public returns(address[] memory){... */\n    tag_4:\n      callvalue\n      dup1\n      iszero\n      tag_32\n      jumpi\n      0x00\n      dup1\n      revert\n    tag_32:\n      pop\n      tag_33\n      tag_34\n      jump\t// in\n    tag_33:\n      mload(0x40)\n      tag_35\n      swap2\n      swap1\n      tag_36\n      jump\t// in\n    tag_35:\n      mload(0x40)\n      dup1\n      swap2\n      sub\n      swap1\n      return\n        /* \"contracts/final/AudienceEngagementTool.sol\":2041:2209  function setProposelContractAddress(address IProposelContractAddress) public onlyOwner{... */\n    tag_5:\n      callvalue\n      dup1\n      iszero\n      tag_37\n      jumpi\n      0x00\n      dup1\n      revert\n    tag_37:\n      pop\n      tag_38\n      0x04\n      dup1\n      calldatasize\n      sub\n      dup2\n      add\n      swap1\n      tag_39\n      swap2\n      swap1\n      tag_40\n      jump\t// in\n    tag_39:\n      tag_41\n      jump\t// in\n    tag_38:\n      stop\n        /* \"contracts/final/AudienceEngagementTool.sol\":4527:4628  function makeTransfer(address to) payable external {... */\n    tag_6:\n      tag_42\n      0x04\n      dup1\n      calldatasize\n      sub\n      dup2\n      add\n      swap1\n      tag_43\n      swap2\n      swap1\n      tag_40\n      jump\t// in\n    tag_43:\n      tag_44\n      jump\t// in\n    tag_42:\n      stop\n        /* \"contracts/final/AudienceEngagementTool.sol\":3907:4242  function unvote() isVotingPeriod alreadyVoted external {... */\n    tag_7:\n      callvalue\n      dup1\n      iszero\n      tag_45\n      jumpi\n      0x00\n      dup1\n      revert\n    tag_45:\n      pop\n      tag_46\n      tag_47\n      jump\t// in\n    tag_46:\n      stop\n        /* \"contracts/final/AudienceEngagementTool.sol\":3108:3271  function getPeriodInterval() public view returns (PeriodInterval memory) {... */\n    tag_8:\n      callvalue\n      dup1\n      iszero\n      tag_48\n      jumpi\n      0x00\n      dup1\n      revert\n    tag_48:\n      pop\n      tag_49\n      tag_50\n      jump\t// in\n    tag_49:\n      mload(0x40)\n      tag_51\n      swap2\n      swap1\n      tag_52\n      jump\t// in\n    tag_51:\n      mload(0x40)\n      dup1\n      swap2\n      sub\n      swap1\n      return\n        /* \"contracts/final/AudienceEngagementTool.sol\":3023:3100  function setFee(uint newFee) public onlyOwner {... */\n    tag_9:\n      callvalue\n      dup1\n      iszero\n      tag_53\n      jumpi\n      0x00\n      dup1\n      revert\n    tag_53:\n      pop\n      tag_54\n      0x04\n      dup1\n      calldatasize\n      sub\n      dup2\n      add\n      swap1\n      tag_55\n      swap2\n      swap1\n      tag_26\n      jump\t// in\n    tag_55:\n      tag_56\n      jump\t// in\n    tag_54:\n      stop\n        /* \"@openzeppelin/contracts/access/Ownable.sol\":2293:2394  function renounceOwnership() public virtual onlyOwner {... */\n    tag_10:\n      callvalue\n      dup1\n      iszero\n      tag_57\n      jumpi\n      0x00\n      dup1\n      revert\n    tag_57:\n      pop\n      tag_58\n      tag_59\n      jump\t// in\n    tag_58:\n      stop\n        /* \"contracts/final/AudienceEngagementTool.sol\":4812:4929  function getLastWinningProposal() public view returns (Proposel memory) {... */\n    tag_11:\n      callvalue\n      dup1\n      iszero\n      tag_60\n      jumpi\n      0x00\n      dup1\n      revert\n    tag_60:\n      pop\n      tag_61\n      tag_62\n      jump\t// in\n    tag_61:\n      mload(0x40)\n      tag_63\n      swap2\n      swap1\n      tag_64\n      jump\t// in\n    tag_63:\n      mload(0x40)\n      dup1\n      swap2\n      sub\n      swap1\n      return\n        /* \"@openzeppelin/contracts/access/Ownable.sol\":1638:1723  function owner() public view virtual returns (address) {... */\n    tag_12:\n      callvalue\n      dup1\n      iszero\n      tag_65\n      jumpi\n      0x00\n      dup1\n      revert\n    tag_65:\n      pop\n      tag_66\n      tag_67\n      jump\t// in\n    tag_66:\n      mload(0x40)\n      tag_68\n      swap2\n      swap1\n      tag_69\n      jump\t// in\n    tag_68:\n      mload(0x40)\n      dup1\n      swap2\n      sub\n      swap1\n      return\n        /* \"contracts/final/AudienceEngagementTool.sol\":2217:2441  function getLatestPrice() public view returns (uint256) {... */\n    tag_13:\n      callvalue\n      dup1\n      iszero\n      tag_70\n      jumpi\n      0x00\n      dup1\n      revert\n    tag_70:\n      pop\n      tag_71\n      tag_72\n      jump\t// in\n    tag_71:\n      mload(0x40)\n      tag_73\n      swap2\n      swap1\n      tag_74\n      jump\t// in\n    tag_73:\n      mload(0x40)\n      dup1\n      swap2\n      sub\n      swap1\n      return\n        /* \"contracts/final/AudienceEngagementTool.sol\":596:631  Proposel public lastWinningProposal */\n    tag_14:\n      callvalue\n      dup1\n      iszero\n      tag_75\n      jumpi\n      0x00\n      dup1\n      revert\n    tag_75:\n      pop\n      tag_76\n      tag_77\n      jump\t// in\n    tag_76:\n      mload(0x40)\n      tag_78\n      swap8\n      swap7\n      swap6\n      swap5\n      swap4\n      swap3\n      swap2\n      swap1\n      tag_79\n      jump\t// in\n    tag_78:\n      mload(0x40)\n      dup1\n      swap2\n      sub\n      swap1\n      return\n        /* \"contracts/final/AudienceEngagementTool.sol\":2614:3015  function resetPeriod() public onlyOwner {... */\n    tag_15:\n      callvalue\n      dup1\n      iszero\n      tag_80\n      jumpi\n      0x00\n      dup1\n      revert\n    tag_80:\n      pop\n      tag_81\n      tag_82\n      jump\t// in\n    tag_81:\n      stop\n        /* \"contracts/final/AudienceEngagementTool.sol\":4250:4381  function listProposels() public view returns (Proposel[] memory) {        ... */\n    tag_16:\n      callvalue\n      dup1\n      iszero\n      tag_83\n      jumpi\n      0x00\n      dup1\n      revert\n    tag_83:\n      pop\n      tag_84\n      tag_85\n      jump\t// in\n    tag_84:\n      mload(0x40)\n      tag_86\n      swap2\n      swap1\n      tag_87\n      jump\t// in\n    tag_86:\n      mload(0x40)\n      dup1\n      swap2\n      sub\n      swap1\n      return\n        /* \"contracts/final/AudienceEngagementTool.sol\":4731:4804  function getFee() public view returns(uint) {... */\n    tag_17:\n      callvalue\n      dup1\n      iszero\n      tag_88\n      jumpi\n      0x00\n      dup1\n      revert\n    tag_88:\n      pop\n      tag_89\n      tag_90\n      jump\t// in\n    tag_89:\n      mload(0x40)\n      tag_91\n      swap2\n      swap1\n      tag_74\n      jump\t// in\n    tag_91:\n      mload(0x40)\n      dup1\n      swap2\n      sub\n      swap1\n      return\n        /* \"@openzeppelin/contracts/access/Ownable.sol\":2543:2758  function transferOwnership(address newOwner) public virtual onlyOwner {... */\n    tag_18:\n      callvalue\n      dup1\n      iszero\n      tag_92\n      jumpi\n      0x00\n      dup1\n      revert\n    tag_92:\n      pop\n      tag_93\n      0x04\n      dup1\n      calldatasize\n      sub\n      dup2\n      add\n      swap1\n      tag_94\n      swap2\n      swap1\n      tag_40\n      jump\t// in\n    tag_94:\n      tag_95\n      jump\t// in\n    tag_93:\n      stop\n        /* \"contracts/final/AudienceEngagementTool.sol\":4389:4519  function getWinningPoposel() public view returns (Proposel memory) {... */\n    tag_19:\n      callvalue\n      dup1\n      iszero\n      tag_96\n      jumpi\n      0x00\n      dup1\n      revert\n    tag_96:\n      pop\n      tag_97\n      tag_98\n      jump\t// in\n    tag_97:\n      mload(0x40)\n      tag_99\n      swap2\n      swap1\n      tag_64\n      jump\t// in\n    tag_99:\n      mload(0x40)\n      dup1\n      swap2\n      sub\n      swap1\n      return\n        /* \"contracts/final/AudienceEngagementTool.sol\":3640:3899  function vote(uint proposelId)  isVotingPeriod notVotedYet external {       ... */\n    tag_27:\n        /* \"contracts/final/AudienceEngagementTool.sol\":1505:1514  periodEnd */\n      sload(0x04)\n        /* \"contracts/final/AudienceEngagementTool.sol\":1487:1502  block.timestamp */\n      timestamp\n        /* \"contracts/final/AudienceEngagementTool.sol\":1487:1514  block.timestamp < periodEnd */\n      lt\n        /* \"contracts/final/AudienceEngagementTool.sol\":1479:1542  require(block.timestamp < periodEnd, \"Voting period has ended\") */\n      tag_101\n      jumpi\n      mload(0x40)\n      0x08c379a000000000000000000000000000000000000000000000000000000000\n      dup2\n      mstore\n      0x04\n      add\n      tag_102\n      swap1\n      tag_103\n      jump\t// in\n    tag_102:\n      mload(0x40)\n      dup1\n      swap2\n      sub\n      swap1\n      revert\n    tag_101:\n        /* \"contracts/final/AudienceEngagementTool.sol\":1752:1753  0 */\n      0x00\n        /* \"contracts/final/AudienceEngagementTool.sol\":1731:1736  votes */\n      0x01\n        /* \"contracts/final/AudienceEngagementTool.sol\":1731:1748  votes[msg.sender] */\n      0x00\n        /* \"contracts/final/AudienceEngagementTool.sol\":1737:1747  msg.sender */\n      caller\n        /* \"contracts/final/AudienceEngagementTool.sol\":1731:1748  votes[msg.sender] */\n      0xffffffffffffffffffffffffffffffffffffffff\n      and\n      0xffffffffffffffffffffffffffffffffffffffff\n      and\n      dup2\n      mstore\n      0x20\n      add\n      swap1\n      dup2\n      mstore\n      0x20\n      add\n      0x00\n      keccak256\n      sload\n        /* \"contracts/final/AudienceEngagementTool.sol\":1731:1753  votes[msg.sender] == 0 */\n      eq\n        /* \"contracts/final/AudienceEngagementTool.sol\":1723:1775  require(votes[msg.sender] == 0, \"You already voted\") */\n      tag_105\n      jumpi\n      mload(0x40)\n      0x08c379a000000000000000000000000000000000000000000000000000000000\n      dup2\n      mstore\n      0x04\n      add\n      tag_106\n      swap1\n      tag_107\n      jump\t// in\n    tag_106:\n      mload(0x40)\n      dup1\n      swap2\n      sub\n      swap1\n      revert\n    tag_105:\n        /* \"contracts/final/AudienceEngagementTool.sol\":3746:3756  proposelId */\n      dup1\n        /* \"contracts/final/AudienceEngagementTool.sol\":3726:3731  votes */\n      0x01\n        /* \"contracts/final/AudienceEngagementTool.sol\":3726:3743  votes[msg.sender] */\n      0x00\n        /* \"contracts/final/AudienceEngagementTool.sol\":3732:3742  msg.sender */\n      caller\n        /* \"contracts/final/AudienceEngagementTool.sol\":3726:3743  votes[msg.sender] */\n      0xffffffffffffffffffffffffffffffffffffffff\n      and\n      0xffffffffffffffffffffffffffffffffffffffff\n      and\n      dup2\n      mstore\n      0x20\n      add\n      swap1\n      dup2\n      mstore\n      0x20\n      add\n      0x00\n      keccak256\n        /* \"contracts/final/AudienceEngagementTool.sol\":3726:3756  votes[msg.sender] = proposelId */\n      dup2\n      swap1\n      sstore\n      pop\n        /* \"contracts/final/AudienceEngagementTool.sol\":3767:3771  keys */\n      0x02\n        /* \"contracts/final/AudienceEngagementTool.sol\":3777:3787  msg.sender */\n      caller\n        /* \"contracts/final/AudienceEngagementTool.sol\":3767:3788  keys.push(msg.sender) */\n      swap1\n      dup1\n      0x01\n      dup2\n      sload\n      add\n      dup1\n      dup3\n      sstore\n      dup1\n      swap2\n      pop\n      pop\n      0x01\n      swap1\n      sub\n      swap1\n      0x00\n      mstore\n      keccak256(0x00, 0x20)\n      add\n      0x00\n      swap1\n      swap2\n      swap1\n      swap2\n      swap1\n      swap2\n      0x0100\n      exp\n      dup2\n      sload\n      dup2\n      0xffffffffffffffffffffffffffffffffffffffff\n      mul\n      not\n      and\n      swap1\n      dup4\n      0xffffffffffffffffffffffffffffffffffffffff\n      and\n      mul\n      or\n      swap1\n      sstore\n      pop\n        /* \"contracts/final/AudienceEngagementTool.sol\":3799:3815  proposelContract */\n      0x0c\n      0x00\n      swap1\n      sload\n      swap1\n      0x0100\n      exp\n      swap1\n      div\n      0xffffffffffffffffffffffffffffffffffffffff\n      and\n        /* \"contracts/final/AudienceEngagementTool.sol\":3799:3829  proposelContract.increaseVotes */\n      0xffffffffffffffffffffffffffffffffffffffff\n      and\n      0xef46a75d\n        /* \"contracts/final/AudienceEngagementTool.sol\":3830:3840  proposelId */\n      dup3\n        /* \"contracts/final/AudienceEngagementTool.sol\":3799:3841  proposelContract.increaseVotes(proposelId) */\n      mload(0x40)\n      dup3\n      0xffffffff\n      and\n      0xe0\n      shl\n      dup2\n      mstore\n      0x04\n      add\n      tag_110\n      swap2\n      swap1\n      tag_74\n      jump\t// in\n    tag_110:\n      0x00\n      mload(0x40)\n      dup1\n      dup4\n      sub\n      dup2\n      0x00\n      dup8\n      dup1\n      extcodesize\n      iszero\n      dup1\n      iszero\n      tag_111\n      jumpi\n      0x00\n      dup1\n      revert\n    tag_111:\n      pop\n      gas\n      call\n      iszero\n      dup1\n      iszero\n      tag_113\n      jumpi\n      returndatasize\n      0x00\n      dup1\n      returndatacopy\n      revert(0x00, returndatasize)\n    tag_113:\n      pop\n      pop\n      pop\n      pop\n        /* \"contracts/final/AudienceEngagementTool.sol\":3857:3891  VoteCasted(msg.sender, proposelId) */\n      0xd0e6c39f2e086dc49f1524b47725526a56945cd1ff661f37976f1725a1e56986\n        /* \"contracts/final/AudienceEngagementTool.sol\":3868:3878  msg.sender */\n      caller\n        /* \"contracts/final/AudienceEngagementTool.sol\":3880:3890  proposelId */\n      dup3\n        /* \"contracts/final/AudienceEngagementTool.sol\":3857:3891  VoteCasted(msg.sender, proposelId) */\n      mload(0x40)\n      tag_114\n      swap3\n      swap2\n      swap1\n      tag_115\n      jump\t// in\n    tag_114:\n      mload(0x40)\n      dup1\n      swap2\n      sub\n      swap1\n      log1\n        /* \"contracts/final/AudienceEngagementTool.sol\":3640:3899  function vote(uint proposelId)  isVotingPeriod notVotedYet external {       ... */\n      pop\n      jump\t// out\n        /* \"contracts/final/AudienceEngagementTool.sol\":3279:3632  function setProposel(... */\n    tag_31:\n        /* \"contracts/final/AudienceEngagementTool.sol\":3395:3398  fee */\n      sload(0x0f)\n        /* \"contracts/final/AudienceEngagementTool.sol\":1874:1879  value */\n      dup1\n        /* \"contracts/final/AudienceEngagementTool.sol\":1853:1863  msg.sender */\n      caller\n        /* \"contracts/final/AudienceEngagementTool.sol\":1853:1871  msg.sender.balance */\n      0xffffffffffffffffffffffffffffffffffffffff\n      and\n      balance\n        /* \"contracts/final/AudienceEngagementTool.sol\":1853:1879  msg.sender.balance > value */\n      gt\n        /* \"contracts/final/AudienceEngagementTool.sol\":1845:1903  require(msg.sender.balance > value, \"Insuficient founds!\") */\n      tag_117\n      jumpi\n      mload(0x40)\n      0x08c379a000000000000000000000000000000000000000000000000000000000\n      dup2\n      mstore\n      0x04\n      add\n      tag_118\n      swap1\n      tag_119\n      jump\t// in\n    tag_118:\n      mload(0x40)\n      dup1\n      swap2\n      sub\n      swap1\n      revert\n    tag_117:\n        /* \"contracts/final/AudienceEngagementTool.sol\":1988:1991  fee */\n      sload(0x0f)\n        /* \"contracts/final/AudienceEngagementTool.sol\":1975:1984  msg.value */\n      callvalue\n        /* \"contracts/final/AudienceEngagementTool.sol\":1975:1991  msg.value == fee */\n      eq\n        /* \"contracts/final/AudienceEngagementTool.sol\":1967:2013  require(msg.value == fee, \"Invalid fee value\") */\n      tag_121\n      jumpi\n      mload(0x40)\n      0x08c379a000000000000000000000000000000000000000000000000000000000\n      dup2\n      mstore\n      0x04\n      add\n      tag_122\n      swap1\n      tag_123\n      jump\t// in\n    tag_122:\n      mload(0x40)\n      dup1\n      swap2\n      sub\n      swap1\n      revert\n    tag_121:\n        /* \"contracts/final/AudienceEngagementTool.sol\":3425:3452  Proposel memory newProposel */\n      0x00\n        /* \"contracts/final/AudienceEngagementTool.sol\":3455:3471  proposelContract */\n      0x0c\n      0x00\n      swap1\n      sload\n      swap1\n      0x0100\n      exp\n      swap1\n      div\n      0xffffffffffffffffffffffffffffffffffffffff\n      and\n        /* \"contracts/final/AudienceEngagementTool.sol\":3455:3483  proposelContract.addProposel */\n      0xffffffffffffffffffffffffffffffffffffffff\n      and\n      0x6f7789a1\n        /* \"contracts/final/AudienceEngagementTool.sol\":3484:3488  name */\n      dup8\n      dup8\n        /* \"contracts/final/AudienceEngagementTool.sol\":3489:3492  url */\n      dup8\n      dup8\n        /* \"contracts/final/AudienceEngagementTool.sol\":3455:3493  proposelContract.addProposel(name,url) */\n      mload(0x40)\n      dup6\n      0xffffffff\n      and\n      0xe0\n      shl\n      dup2\n      mstore\n      0x04\n      add\n      tag_125\n      swap5\n      swap4\n      swap3\n      swap2\n      swap1\n      tag_126\n      jump\t// in\n    tag_125:\n      0x00\n      mload(0x40)\n      dup1\n      dup4\n      sub\n      dup2\n      0x00\n      dup8\n      gas\n      call\n      iszero\n      dup1\n      iszero\n      tag_128\n      jumpi\n      returndatasize\n      0x00\n      dup1\n      returndatacopy\n      revert(0x00, returndatasize)\n    tag_128:\n      pop\n      pop\n      pop\n      pop\n      mload(0x40)\n      returndatasize\n      0x00\n      dup3\n      returndatacopy\n      returndatasize\n      not(0x1f)\n      0x1f\n      dup3\n      add\n      and\n      dup3\n      add\n      dup1\n      0x40\n      mstore\n      pop\n      dup2\n      add\n      swap1\n      tag_129\n      swap2\n      swap1\n      tag_130\n      jump\t// in\n    tag_129:\n        /* \"contracts/final/AudienceEngagementTool.sol\":3425:3493  Proposel memory newProposel = proposelContract.addProposel(name,url) */\n      swap1\n      pop\n        /* \"contracts/final/AudienceEngagementTool.sol\":3512:3524  ownerAccount */\n      0x0d\n      0x00\n      swap1\n      sload\n      swap1\n      0x0100\n      exp\n      swap1\n      div\n      0xffffffffffffffffffffffffffffffffffffffff\n      and\n        /* \"contracts/final/AudienceEngagementTool.sol\":3504:3534  payable(ownerAccount).transfer */\n      0xffffffffffffffffffffffffffffffffffffffff\n      and\n        /* \"contracts/final/AudienceEngagementTool.sol\":3504:3545  payable(ownerAccount).transfer(msg.value) */\n      0x08fc\n        /* \"contracts/final/AudienceEngagementTool.sol\":3535:3544  msg.value */\n      callvalue\n        /* \"contracts/final/AudienceEngagementTool.sol\":3504:3545  payable(ownerAccount).transfer(msg.value) */\n      swap1\n      dup2\n      iszero\n      mul\n      swap1\n      mload(0x40)\n      0x00\n      mload(0x40)\n      dup1\n      dup4\n      sub\n      dup2\n      dup6\n      dup9\n      dup9\n      call\n      swap4\n      pop\n      pop\n      pop\n      pop\n      iszero\n      dup1\n      iszero\n      tag_132\n      jumpi\n      returndatasize\n      0x00\n      dup1\n      returndatacopy\n      revert(0x00, returndatasize)\n    tag_132:\n      pop\n        /* \"contracts/final/AudienceEngagementTool.sol\":3561:3621  ProposelAdded(name, url, block.timestamp, 0, newProposel.id) */\n      0x918f010187dacfa7074bf61710aff7a8ba31fcd11aef11d9cf1f8293f1acba6f\n        /* \"contracts/final/AudienceEngagementTool.sol\":3575:3579  name */\n      dup7\n      dup7\n        /* \"contracts/final/AudienceEngagementTool.sol\":3581:3584  url */\n      dup7\n      dup7\n        /* \"contracts/final/AudienceEngagementTool.sol\":3586:3601  block.timestamp */\n      timestamp\n        /* \"contracts/final/AudienceEngagementTool.sol\":3603:3604  0 */\n      0x00\n        /* \"contracts/final/AudienceEngagementTool.sol\":3606:3617  newProposel */\n      dup8\n        /* \"contracts/final/AudienceEngagementTool.sol\":3606:3620  newProposel.id */\n      0xa0\n      add\n      mload\n        /* \"contracts/final/AudienceEngagementTool.sol\":3561:3621  ProposelAdded(name, url, block.timestamp, 0, newProposel.id) */\n      mload(0x40)\n      tag_133\n      swap8\n      swap7\n      swap6\n      swap5\n      swap4\n      swap3\n      swap2\n      swap1\n      tag_134\n      jump\t// in\n    tag_133:\n      mload(0x40)\n      dup1\n      swap2\n      sub\n      swap1\n      log1\n        /* \"contracts/final/AudienceEngagementTool.sol\":3414:3632  {... */\n      pop\n        /* \"contracts/final/AudienceEngagementTool.sol\":3279:3632  function setProposel(... */\n      pop\n      pop\n      pop\n      pop\n      pop\n      jump\t// out\n        /* \"contracts/final/AudienceEngagementTool.sol\":4636:4723  function getVotes() view public returns(address[] memory){... */\n    tag_34:\n        /* \"contracts/final/AudienceEngagementTool.sol\":4676:4692  address[] memory */\n      0x60\n        /* \"contracts/final/AudienceEngagementTool.sol\":4711:4715  keys */\n      0x02\n        /* \"contracts/final/AudienceEngagementTool.sol\":4704:4715  return keys */\n      dup1\n      sload\n      dup1\n      0x20\n      mul\n      0x20\n      add\n      mload(0x40)\n      swap1\n      dup2\n      add\n      0x40\n      mstore\n      dup1\n      swap3\n      swap2\n      swap1\n      dup2\n      dup2\n      mstore\n      0x20\n      add\n      dup3\n      dup1\n      sload\n      dup1\n      iszero\n      tag_136\n      jumpi\n      0x20\n      mul\n      dup3\n      add\n      swap2\n      swap1\n      0x00\n      mstore\n      keccak256(0x00, 0x20)\n      swap1\n    tag_137:\n      dup2\n      0x00\n      swap1\n      sload\n      swap1\n      0x0100\n      exp\n      swap1\n      div\n      0xffffffffffffffffffffffffffffffffffffffff\n      and\n      0xffffffffffffffffffffffffffffffffffffffff\n      and\n      dup2\n      mstore\n      0x20\n      add\n      swap1\n      0x01\n      add\n      swap1\n      dup1\n      dup4\n      gt\n      tag_137\n      jumpi\n    tag_136:\n      pop\n      pop\n      pop\n      pop\n      pop\n      swap1\n      pop\n        /* \"contracts/final/AudienceEngagementTool.sol\":4636:4723  function getVotes() view public returns(address[] memory){... */\n      swap1\n      jump\t// out\n        /* \"contracts/final/AudienceEngagementTool.sol\":2041:2209  function setProposelContractAddress(address IProposelContractAddress) public onlyOwner{... */\n    tag_41:\n        /* \"@openzeppelin/contracts/access/Ownable.sol\":1531:1544  _checkOwner() */\n      tag_139\n        /* \"@openzeppelin/contracts/access/Ownable.sol\":1531:1542  _checkOwner */\n      tag_140\n        /* \"@openzeppelin/contracts/access/Ownable.sol\":1531:1544  _checkOwner() */\n      jump\t// in\n    tag_139:\n        /* \"contracts/final/AudienceEngagementTool.sol\":2176:2200  IProposelContractAddress */\n      dup1\n        /* \"contracts/final/AudienceEngagementTool.sol\":2138:2154  proposelContract */\n      0x0c\n      0x00\n        /* \"contracts/final/AudienceEngagementTool.sol\":2138:2201  proposelContract =  IProposelContract(IProposelContractAddress) */\n      0x0100\n      exp\n      dup2\n      sload\n      dup2\n      0xffffffffffffffffffffffffffffffffffffffff\n      mul\n      not\n      and\n      swap1\n      dup4\n      0xffffffffffffffffffffffffffffffffffffffff\n      and\n      mul\n      or\n      swap1\n      sstore\n      pop\n        /* \"contracts/final/AudienceEngagementTool.sol\":2041:2209  function setProposelContractAddress(address IProposelContractAddress) public onlyOwner{... */\n      pop\n      jump\t// out\n        /* \"contracts/final/AudienceEngagementTool.sol\":4527:4628  function makeTransfer(address to) payable external {... */\n    tag_44:\n        /* \"contracts/final/AudienceEngagementTool.sol\":4597:4599  to */\n      dup1\n        /* \"contracts/final/AudienceEngagementTool.sol\":4589:4609  payable(to).transfer */\n      0xffffffffffffffffffffffffffffffffffffffff\n      and\n        /* \"contracts/final/AudienceEngagementTool.sol\":4589:4620  payable(to).transfer(msg.value) */\n      0x08fc\n        /* \"contracts/final/AudienceEngagementTool.sol\":4610:4619  msg.value */\n      callvalue\n        /* \"contracts/final/AudienceEngagementTool.sol\":4589:4620  payable(to).transfer(msg.value) */\n      swap1\n      dup2\n      iszero\n      mul\n      swap1\n      mload(0x40)\n      0x00\n      mload(0x40)\n      dup1\n      dup4\n      sub\n      dup2\n      dup6\n      dup9\n      dup9\n      call\n      swap4\n      pop\n      pop\n      pop\n      pop\n      iszero\n      dup1\n      iszero\n      tag_144\n      jumpi\n      returndatasize\n      0x00\n      dup1\n      returndatacopy\n      revert(0x00, returndatasize)\n    tag_144:\n      pop\n        /* \"contracts/final/AudienceEngagementTool.sol\":4527:4628  function makeTransfer(address to) payable external {... */\n      pop\n      jump\t// out\n        /* \"contracts/final/AudienceEngagementTool.sol\":3907:4242  function unvote() isVotingPeriod alreadyVoted external {... */\n    tag_47:\n        /* \"contracts/final/AudienceEngagementTool.sol\":1505:1514  periodEnd */\n      sload(0x04)\n        /* \"contracts/final/AudienceEngagementTool.sol\":1487:1502  block.timestamp */\n      timestamp\n        /* \"contracts/final/AudienceEngagementTool.sol\":1487:1514  block.timestamp < periodEnd */\n      lt\n        /* \"contracts/final/AudienceEngagementTool.sol\":1479:1542  require(block.timestamp < periodEnd, \"Voting period has ended\") */\n      tag_146\n      jumpi\n      mload(0x40)\n      0x08c379a000000000000000000000000000000000000000000000000000000000\n      dup2\n      mstore\n      0x04\n      add\n      tag_147\n      swap1\n      tag_103\n      jump\t// in\n    tag_147:\n      mload(0x40)\n      dup1\n      swap2\n      sub\n      swap1\n      revert\n    tag_146:\n        /* \"contracts/final/AudienceEngagementTool.sol\":1634:1635  0 */\n      0x00\n        /* \"contracts/final/AudienceEngagementTool.sol\":1613:1618  votes */\n      0x01\n        /* \"contracts/final/AudienceEngagementTool.sol\":1613:1630  votes[msg.sender] */\n      0x00\n        /* \"contracts/final/AudienceEngagementTool.sol\":1619:1629  msg.sender */\n      caller\n        /* \"contracts/final/AudienceEngagementTool.sol\":1613:1630  votes[msg.sender] */\n      0xffffffffffffffffffffffffffffffffffffffff\n      and\n      0xffffffffffffffffffffffffffffffffffffffff\n      and\n      dup2\n      mstore\n      0x20\n      add\n      swap1\n      dup2\n      mstore\n      0x20\n      add\n      0x00\n      keccak256\n      sload\n        /* \"contracts/final/AudienceEngagementTool.sol\":1613:1635  votes[msg.sender] != 0 */\n      sub\n        /* \"contracts/final/AudienceEngagementTool.sol\":1605:1661  require(votes[msg.sender] != 0, \"You haven't voted yet\") */\n      tag_149\n      jumpi\n      mload(0x40)\n      0x08c379a000000000000000000000000000000000000000000000000000000000\n      dup2\n      mstore\n      0x04\n      add\n      tag_150\n      swap1\n      tag_151\n      jump\t// in\n    tag_150:\n      mload(0x40)\n      dup1\n      swap2\n      sub\n      swap1\n      revert\n    tag_149:\n        /* \"contracts/final/AudienceEngagementTool.sol\":3973:3988  uint proposelId */\n      0x00\n        /* \"contracts/final/AudienceEngagementTool.sol\":3991:3996  votes */\n      0x01\n        /* \"contracts/final/AudienceEngagementTool.sol\":3991:4008  votes[msg.sender] */\n      0x00\n        /* \"contracts/final/AudienceEngagementTool.sol\":3997:4007  msg.sender */\n      caller\n        /* \"contracts/final/AudienceEngagementTool.sol\":3991:4008  votes[msg.sender] */\n      0xffffffffffffffffffffffffffffffffffffffff\n      and\n      0xffffffffffffffffffffffffffffffffffffffff\n      and\n      dup2\n      mstore\n      0x20\n      add\n      swap1\n      dup2\n      mstore\n      0x20\n      add\n      0x00\n      keccak256\n      sload\n        /* \"contracts/final/AudienceEngagementTool.sol\":3973:4008  uint proposelId = votes[msg.sender] */\n      swap1\n      pop\n        /* \"contracts/final/AudienceEngagementTool.sol\":4039:4040  0 */\n      0x00\n        /* \"contracts/final/AudienceEngagementTool.sol\":4019:4024  votes */\n      0x01\n        /* \"contracts/final/AudienceEngagementTool.sol\":4019:4036  votes[msg.sender] */\n      0x00\n        /* \"contracts/final/AudienceEngagementTool.sol\":4025:4035  msg.sender */\n      caller\n        /* \"contracts/final/AudienceEngagementTool.sol\":4019:4036  votes[msg.sender] */\n      0xffffffffffffffffffffffffffffffffffffffff\n      and\n      0xffffffffffffffffffffffffffffffffffffffff\n      and\n      dup2\n      mstore\n      0x20\n      add\n      swap1\n      dup2\n      mstore\n      0x20\n      add\n      0x00\n      keccak256\n        /* \"contracts/final/AudienceEngagementTool.sol\":4019:4040  votes[msg.sender] = 0 */\n      dup2\n      swap1\n      sstore\n      pop\n        /* \"contracts/final/AudienceEngagementTool.sol\":4051:4067  proposelContract */\n      0x0c\n      0x00\n      swap1\n      sload\n      swap1\n      0x0100\n      exp\n      swap1\n      div\n      0xffffffffffffffffffffffffffffffffffffffff\n      and\n        /* \"contracts/final/AudienceEngagementTool.sol\":4051:4081  proposelContract.decreaseVotes */\n      0xffffffffffffffffffffffffffffffffffffffff\n      and\n      0x9b757a2c\n        /* \"contracts/final/AudienceEngagementTool.sol\":4082:4092  proposelId */\n      dup3\n        /* \"contracts/final/AudienceEngagementTool.sol\":4051:4093  proposelContract.decreaseVotes(proposelId) */\n      mload(0x40)\n      dup3\n      0xffffffff\n      and\n      0xe0\n      shl\n      dup2\n      mstore\n      0x04\n      add\n      tag_153\n      swap2\n      swap1\n      tag_74\n      jump\t// in\n    tag_153:\n      0x00\n      mload(0x40)\n      dup1\n      dup4\n      sub\n      dup2\n      0x00\n      dup8\n      dup1\n      extcodesize\n      iszero\n      dup1\n      iszero\n      tag_154\n      jumpi\n      0x00\n      dup1\n      revert\n    tag_154:\n      pop\n      gas\n      call\n      iszero\n      dup1\n      iszero\n      tag_156\n      jumpi\n      returndatasize\n      0x00\n      dup1\n      returndatacopy\n      revert(0x00, returndatasize)\n    tag_156:\n      pop\n      pop\n      pop\n      pop\n        /* \"contracts/final/AudienceEngagementTool.sol\":4111:4122  UtilLibrary */\n      linkerSymbol(\"fcb0696918cf04c85a2a89fbad55c583e7dd72ab6aa77c825530bb63afd3fb00\")\n        /* \"contracts/final/AudienceEngagementTool.sol\":4111:4136  UtilLibrary.removeElement */\n      0x5a8d4625\n        /* \"contracts/final/AudienceEngagementTool.sol\":4137:4141  keys */\n      0x02\n        /* \"contracts/final/AudienceEngagementTool.sol\":4143:4154  UtilLibrary */\n      linkerSymbol(\"fcb0696918cf04c85a2a89fbad55c583e7dd72ab6aa77c825530bb63afd3fb00\")\n        /* \"contracts/final/AudienceEngagementTool.sol\":4143:4163  UtilLibrary.getIndex */\n      0x1c07c87f\n        /* \"contracts/final/AudienceEngagementTool.sol\":4164:4168  keys */\n      0x02\n        /* \"contracts/final/AudienceEngagementTool.sol\":4170:4180  msg.sender */\n      caller\n        /* \"contracts/final/AudienceEngagementTool.sol\":4143:4181  UtilLibrary.getIndex(keys, msg.sender) */\n      mload(0x40)\n      dup4\n      0xffffffff\n      and\n      0xe0\n      shl\n      dup2\n      mstore\n      0x04\n      add\n      tag_157\n      swap3\n      swap2\n      swap1\n      tag_158\n      jump\t// in\n    tag_157:\n      0x20\n      mload(0x40)\n      dup1\n      dup4\n      sub\n      dup2\n      dup7\n      gas\n      delegatecall\n      iszero\n      dup1\n      iszero\n      tag_160\n      jumpi\n      returndatasize\n      0x00\n      dup1\n      returndatacopy\n      revert(0x00, returndatasize)\n    tag_160:\n      pop\n      pop\n      pop\n      pop\n      mload(0x40)\n      returndatasize\n      not(0x1f)\n      0x1f\n      dup3\n      add\n      and\n      dup3\n      add\n      dup1\n      0x40\n      mstore\n      pop\n      dup2\n      add\n      swap1\n      tag_161\n      swap2\n      swap1\n      tag_162\n      jump\t// in\n    tag_161:\n        /* \"contracts/final/AudienceEngagementTool.sol\":4111:4182  UtilLibrary.removeElement(keys, UtilLibrary.getIndex(keys, msg.sender)) */\n      mload(0x40)\n      dup4\n      0xffffffff\n      and\n      0xe0\n      shl\n      dup2\n      mstore\n      0x04\n      add\n      tag_163\n      swap3\n      swap2\n      swap1\n      tag_164\n      jump\t// in\n    tag_163:\n      0x00\n      mload(0x40)\n      dup1\n      dup4\n      sub\n      dup2\n      dup7\n      gas\n      delegatecall\n      iszero\n      dup1\n      iszero\n      tag_166\n      jumpi\n      returndatasize\n      0x00\n      dup1\n      returndatacopy\n      revert(0x00, returndatasize)\n    tag_166:\n      pop\n      pop\n      pop\n      pop\n      mload(0x40)\n      returndatasize\n      0x00\n      dup3\n      returndatacopy\n      returndatasize\n      not(0x1f)\n      0x1f\n      dup3\n      add\n      and\n      dup3\n      add\n      dup1\n      0x40\n      mstore\n      pop\n      dup2\n      add\n      swap1\n      tag_167\n      swap2\n      swap1\n      tag_168\n      jump\t// in\n    tag_167:\n        /* \"contracts/final/AudienceEngagementTool.sol\":4104:4108  keys */\n      0x02\n        /* \"contracts/final/AudienceEngagementTool.sol\":4104:4182  keys = UtilLibrary.removeElement(keys, UtilLibrary.getIndex(keys, msg.sender)) */\n      swap1\n      dup1\n      mload\n      swap1\n      0x20\n      add\n      swap1\n      tag_169\n      swap3\n      swap2\n      swap1\n      tag_170\n      jump\t// in\n    tag_169:\n      pop\n        /* \"contracts/final/AudienceEngagementTool.sol\":4198:4234  VoteUncasted(msg.sender, proposelId) */\n      0x1e4ba8038df092a6a9cc2400d85e4bcdabae0834fcad0ee391a8dff246ef4254\n        /* \"contracts/final/AudienceEngagementTool.sol\":4211:4221  msg.sender */\n      caller\n        /* \"contracts/final/AudienceEngagementTool.sol\":4223:4233  proposelId */\n      dup3\n        /* \"contracts/final/AudienceEngagementTool.sol\":4198:4234  VoteUncasted(msg.sender, proposelId) */\n      mload(0x40)\n      tag_171\n      swap3\n      swap2\n      swap1\n      tag_115\n      jump\t// in\n    tag_171:\n      mload(0x40)\n      dup1\n      swap2\n      sub\n      swap1\n      log1\n        /* \"contracts/final/AudienceEngagementTool.sol\":3962:4242  {... */\n      pop\n        /* \"contracts/final/AudienceEngagementTool.sol\":3907:4242  function unvote() isVotingPeriod alreadyVoted external {... */\n      jump\t// out\n        /* \"contracts/final/AudienceEngagementTool.sol\":3108:3271  function getPeriodInterval() public view returns (PeriodInterval memory) {... */\n    tag_50:\n        /* \"contracts/final/AudienceEngagementTool.sol\":3158:3179  PeriodInterval memory */\n      tag_172\n      tag_173\n      jump\t// in\n    tag_172:\n        /* \"contracts/final/AudienceEngagementTool.sol\":3199:3263  PeriodInterval({periodEnd: periodEnd, periodStart: periodStart}) */\n      mload(0x40)\n      dup1\n      0x40\n      add\n      0x40\n      mstore\n      dup1\n        /* \"contracts/final/AudienceEngagementTool.sol\":3250:3261  periodStart */\n      sload(0x03)\n        /* \"contracts/final/AudienceEngagementTool.sol\":3199:3263  PeriodInterval({periodEnd: periodEnd, periodStart: periodStart}) */\n      dup2\n      mstore\n      0x20\n      add\n        /* \"contracts/final/AudienceEngagementTool.sol\":3226:3235  periodEnd */\n      sload(0x04)\n        /* \"contracts/final/AudienceEngagementTool.sol\":3199:3263  PeriodInterval({periodEnd: periodEnd, periodStart: periodStart}) */\n      dup2\n      mstore\n      pop\n        /* \"contracts/final/AudienceEngagementTool.sol\":3192:3263  return PeriodInterval({periodEnd: periodEnd, periodStart: periodStart}) */\n      swap1\n      pop\n        /* \"contracts/final/AudienceEngagementTool.sol\":3108:3271  function getPeriodInterval() public view returns (PeriodInterval memory) {... */\n      swap1\n      jump\t// out\n        /* \"contracts/final/AudienceEngagementTool.sol\":3023:3100  function setFee(uint newFee) public onlyOwner {... */\n    tag_56:\n        /* \"@openzeppelin/contracts/access/Ownable.sol\":1531:1544  _checkOwner() */\n      tag_176\n        /* \"@openzeppelin/contracts/access/Ownable.sol\":1531:1542  _checkOwner */\n      tag_140\n        /* \"@openzeppelin/contracts/access/Ownable.sol\":1531:1544  _checkOwner() */\n      jump\t// in\n    tag_176:\n        /* \"contracts/final/AudienceEngagementTool.sol\":3086:3092  newFee */\n      dup1\n        /* \"contracts/final/AudienceEngagementTool.sol\":3080:3083  fee */\n      0x0f\n        /* \"contracts/final/AudienceEngagementTool.sol\":3080:3092  fee = newFee */\n      dup2\n      swap1\n      sstore\n      pop\n        /* \"contracts/final/AudienceEngagementTool.sol\":3023:3100  function setFee(uint newFee) public onlyOwner {... */\n      pop\n      jump\t// out\n        /* \"@openzeppelin/contracts/access/Ownable.sol\":2293:2394  function renounceOwnership() public virtual onlyOwner {... */\n    tag_59:\n        /* \"@openzeppelin/contracts/access/Ownable.sol\":1531:1544  _checkOwner() */\n      tag_179\n        /* \"@openzeppelin/contracts/access/Ownable.sol\":1531:1542  _checkOwner */\n      tag_140\n        /* \"@openzeppelin/contracts/access/Ownable.sol\":1531:1544  _checkOwner() */\n      jump\t// in\n    tag_179:\n        /* \"@openzeppelin/contracts/access/Ownable.sol\":2357:2387  _transferOwnership(address(0)) */\n      tag_181\n        /* \"@openzeppelin/contracts/access/Ownable.sol\":2384:2385  0 */\n      0x00\n        /* \"@openzeppelin/contracts/access/Ownable.sol\":2357:2375  _transferOwnership */\n      tag_182\n        /* \"@openzeppelin/contracts/access/Ownable.sol\":2357:2387  _transferOwnership(address(0)) */\n      jump\t// in\n    tag_181:\n        /* \"@openzeppelin/contracts/access/Ownable.sol\":2293:2394  function renounceOwnership() public virtual onlyOwner {... */\n      jump\t// out\n        /* \"contracts/final/AudienceEngagementTool.sol\":4812:4929  function getLastWinningProposal() public view returns (Proposel memory) {... */\n    tag_62:\n        /* \"contracts/final/AudienceEngagementTool.sol\":4867:4882  Proposel memory */\n      tag_183\n      tag_184\n      jump\t// in\n    tag_183:\n        /* \"contracts/final/AudienceEngagementTool.sol\":4902:4921  lastWinningProposal */\n      0x05\n        /* \"contracts/final/AudienceEngagementTool.sol\":4895:4921  return lastWinningProposal */\n      mload(0x40)\n      dup1\n      0xe0\n      add\n      0x40\n      mstore\n      swap1\n      dup2\n      0x00\n      dup3\n      add\n      0x00\n      swap1\n      sload\n      swap1\n      0x0100\n      exp\n      swap1\n      div\n      0xffffffffffffffffffffffffffffffffffffffff\n      and\n      0xffffffffffffffffffffffffffffffffffffffff\n      and\n      0xffffffffffffffffffffffffffffffffffffffff\n      and\n      dup2\n      mstore\n      0x20\n      add\n      0x01\n      dup3\n      add\n      dup1\n      sload\n      tag_186\n      swap1\n      tag_187\n      jump\t// in\n    tag_186:\n      dup1\n      0x1f\n      add\n      0x20\n      dup1\n      swap2\n      div\n      mul\n      0x20\n      add\n      mload(0x40)\n      swap1\n      dup2\n      add\n      0x40\n      mstore\n      dup1\n      swap3\n      swap2\n      swap1\n      dup2\n      dup2\n      mstore\n      0x20\n      add\n      dup3\n      dup1\n      sload\n      tag_188\n      swap1\n      tag_187\n      jump\t// in\n    tag_188:\n      dup1\n      iszero\n      tag_189\n      jumpi\n      dup1\n      0x1f\n      lt\n      tag_190\n      jumpi\n      0x0100\n      dup1\n      dup4\n      sload\n      div\n      mul\n      dup4\n      mstore\n      swap2\n      0x20\n      add\n      swap2\n      jump(tag_189)\n    tag_190:\n      dup3\n      add\n      swap2\n      swap1\n      0x00\n      mstore\n      keccak256(0x00, 0x20)\n      swap1\n    tag_191:\n      dup2\n      sload\n      dup2\n      mstore\n      swap1\n      0x01\n      add\n      swap1\n      0x20\n      add\n      dup1\n      dup4\n      gt\n      tag_191\n      jumpi\n      dup3\n      swap1\n      sub\n      0x1f\n      and\n      dup3\n      add\n      swap2\n    tag_189:\n      pop\n      pop\n      pop\n      pop\n      pop\n      dup2\n      mstore\n      0x20\n      add\n      0x02\n      dup3\n      add\n      dup1\n      sload\n      tag_192\n      swap1\n      tag_187\n      jump\t// in\n    tag_192:\n      dup1\n      0x1f\n      add\n      0x20\n      dup1\n      swap2\n      div\n      mul\n      0x20\n      add\n      mload(0x40)\n      swap1\n      dup2\n      add\n      0x40\n      mstore\n      dup1\n      swap3\n      swap2\n      swap1\n      dup2\n      dup2\n      mstore\n      0x20\n      add\n      dup3\n      dup1\n      sload\n      tag_193\n      swap1\n      tag_187\n      jump\t// in\n    tag_193:\n      dup1\n      iszero\n      tag_194\n      jumpi\n      dup1\n      0x1f\n      lt\n      tag_195\n      jumpi\n      0x0100\n      dup1\n      dup4\n      sload\n      div\n      mul\n      dup4\n      mstore\n      swap2\n      0x20\n      add\n      swap2\n      jump(tag_194)\n    tag_195:\n      dup3\n      add\n      swap2\n      swap1\n      0x00\n      mstore\n      keccak256(0x00, 0x20)\n      swap1\n    tag_196:\n      dup2\n      sload\n      dup2\n      mstore\n      swap1\n      0x01\n      add\n      swap1\n      0x20\n      add\n      dup1\n      dup4\n      gt\n      tag_196\n      jumpi\n      dup3\n      swap1\n      sub\n      0x1f\n      and\n      dup3\n      add\n      swap2\n    tag_194:\n      pop\n      pop\n      pop\n      pop\n      pop\n      dup2\n      mstore\n      0x20\n      add\n      0x03\n      dup3\n      add\n      sload\n      dup2\n      mstore\n      0x20\n      add\n      0x04\n      dup3\n      add\n      sload\n      dup2\n      mstore\n      0x20\n      add\n      0x05\n      dup3\n      add\n      sload\n      dup2\n      mstore\n      0x20\n      add\n      0x06\n      dup3\n      add\n      sload\n      dup2\n      mstore\n      pop\n      pop\n      swap1\n      pop\n        /* \"contracts/final/AudienceEngagementTool.sol\":4812:4929  function getLastWinningProposal() public view returns (Proposel memory) {... */\n      swap1\n      jump\t// out\n        /* \"@openzeppelin/contracts/access/Ownable.sol\":1638:1723  function owner() public view virtual returns (address) {... */\n    tag_67:\n        /* \"@openzeppelin/contracts/access/Ownable.sol\":1684:1691  address */\n      0x00\n        /* \"@openzeppelin/contracts/access/Ownable.sol\":1710:1716  _owner */\n      dup1\n      0x00\n      swap1\n      sload\n      swap1\n      0x0100\n      exp\n      swap1\n      div\n      0xffffffffffffffffffffffffffffffffffffffff\n      and\n        /* \"@openzeppelin/contracts/access/Ownable.sol\":1703:1716  return _owner */\n      swap1\n      pop\n        /* \"@openzeppelin/contracts/access/Ownable.sol\":1638:1723  function owner() public view virtual returns (address) {... */\n      swap1\n      jump\t// out\n        /* \"contracts/final/AudienceEngagementTool.sol\":2217:2441  function getLatestPrice() public view returns (uint256) {... */\n    tag_72:\n        /* \"contracts/final/AudienceEngagementTool.sol\":2264:2271  uint256 */\n      0x00\n        /* \"contracts/final/AudienceEngagementTool.sol\":2314:2323  int price */\n      dup1\n        /* \"contracts/final/AudienceEngagementTool.sol\":2368:2377  priceFeed */\n      0x0e\n      0x00\n      swap1\n      sload\n      swap1\n      0x0100\n      exp\n      swap1\n      div\n      0xffffffffffffffffffffffffffffffffffffffff\n      and\n        /* \"contracts/final/AudienceEngagementTool.sol\":2368:2393  priceFeed.latestRoundData */\n      0xffffffffffffffffffffffffffffffffffffffff\n      and\n      0xfeaf968c\n        /* \"contracts/final/AudienceEngagementTool.sol\":2368:2395  priceFeed.latestRoundData() */\n      mload(0x40)\n      dup2\n      0xffffffff\n      and\n      0xe0\n      shl\n      dup2\n      mstore\n      0x04\n      add\n      0xa0\n      mload(0x40)\n      dup1\n      dup4\n      sub\n      dup2\n      dup7\n      gas\n      staticcall\n      iszero\n      dup1\n      iszero\n      tag_200\n      jumpi\n      returndatasize\n      0x00\n      dup1\n      returndatacopy\n      revert(0x00, returndatasize)\n    tag_200:\n      pop\n      pop\n      pop\n      pop\n      mload(0x40)\n      returndatasize\n      not(0x1f)\n      0x1f\n      dup3\n      add\n      and\n      dup3\n      add\n      dup1\n      0x40\n      mstore\n      pop\n      dup2\n      add\n      swap1\n      tag_201\n      swap2\n      swap1\n      tag_202\n      jump\t// in\n    tag_201:\n        /* \"contracts/final/AudienceEngagementTool.sol\":2284:2395  (... */\n      pop\n      pop\n      pop\n      swap2\n      pop\n      pop\n        /* \"contracts/final/AudienceEngagementTool.sol\":2430:2433  1e8 */\n      0x05f5e100\n        /* \"contracts/final/AudienceEngagementTool.sol\":2421:2426  price */\n      dup2\n        /* \"contracts/final/AudienceEngagementTool.sol\":2413:2433  uint256(price) / 1e8 */\n      tag_203\n      swap2\n      swap1\n      tag_204\n      jump\t// in\n    tag_203:\n        /* \"contracts/final/AudienceEngagementTool.sol\":2406:2433  return uint256(price) / 1e8 */\n      swap2\n      pop\n      pop\n        /* \"contracts/final/AudienceEngagementTool.sol\":2217:2441  function getLatestPrice() public view returns (uint256) {... */\n      swap1\n      jump\t// out\n        /* \"contracts/final/AudienceEngagementTool.sol\":596:631  Proposel public lastWinningProposal */\n    tag_77:\n      0x05\n      dup1\n      0x00\n      add\n      0x00\n      swap1\n      sload\n      swap1\n      0x0100\n      exp\n      swap1\n      div\n      0xffffffffffffffffffffffffffffffffffffffff\n      and\n      swap1\n      dup1\n      0x01\n      add\n      dup1\n      sload\n      tag_205\n      swap1\n      tag_187\n      jump\t// in\n    tag_205:\n      dup1\n      0x1f\n      add\n      0x20\n      dup1\n      swap2\n      div\n      mul\n      0x20\n      add\n      mload(0x40)\n      swap1\n      dup2\n      add\n      0x40\n      mstore\n      dup1\n      swap3\n      swap2\n      swap1\n      dup2\n      dup2\n      mstore\n      0x20\n      add\n      dup3\n      dup1\n      sload\n      tag_206\n      swap1\n      tag_187\n      jump\t// in\n    tag_206:\n      dup1\n      iszero\n      tag_207\n      jumpi\n      dup1\n      0x1f\n      lt\n      tag_208\n      jumpi\n      0x0100\n      dup1\n      dup4\n      sload\n      div\n      mul\n      dup4\n      mstore\n      swap2\n      0x20\n      add\n      swap2\n      jump(tag_207)\n    tag_208:\n      dup3\n      add\n      swap2\n      swap1\n      0x00\n      mstore\n      keccak256(0x00, 0x20)\n      swap1\n    tag_209:\n      dup2\n      sload\n      dup2\n      mstore\n      swap1\n      0x01\n      add\n      swap1\n      0x20\n      add\n      dup1\n      dup4\n      gt\n      tag_209\n      jumpi\n      dup3\n      swap1\n      sub\n      0x1f\n      and\n      dup3\n      add\n      swap2\n    tag_207:\n      pop\n      pop\n      pop\n      pop\n      pop\n      swap1\n      dup1\n      0x02\n      add\n      dup1\n      sload\n      tag_210\n      swap1\n      tag_187\n      jump\t// in\n    tag_210:\n      dup1\n      0x1f\n      add\n      0x20\n      dup1\n      swap2\n      div\n      mul\n      0x20\n      add\n      mload(0x40)\n      swap1\n      dup2\n      add\n      0x40\n      mstore\n      dup1\n      swap3\n      swap2\n      swap1\n      dup2\n      dup2\n      mstore\n      0x20\n      add\n      dup3\n      dup1\n      sload\n      tag_211\n      swap1\n      tag_187\n      jump\t// in\n    tag_211:\n      dup1\n      iszero\n      tag_212\n      jumpi\n      dup1\n      0x1f\n      lt\n      tag_213\n      jumpi\n      0x0100\n      dup1\n      dup4\n      sload\n      div\n      mul\n      dup4\n      mstore\n      swap2\n      0x20\n      add\n      swap2\n      jump(tag_212)\n    tag_213:\n      dup3\n      add\n      swap2\n      swap1\n      0x00\n      mstore\n      keccak256(0x00, 0x20)\n      swap1\n    tag_214:\n      dup2\n      sload\n      dup2\n      mstore\n      swap1\n      0x01\n      add\n      swap1\n      0x20\n      add\n      dup1\n      dup4\n      gt\n      tag_214\n      jumpi\n      dup3\n      swap1\n      sub\n      0x1f\n      and\n      dup3\n      add\n      swap2\n    tag_212:\n      pop\n      pop\n      pop\n      pop\n      pop\n      swap1\n      dup1\n      0x03\n      add\n      sload\n      swap1\n      dup1\n      0x04\n      add\n      sload\n      swap1\n      dup1\n      0x05\n      add\n      sload\n      swap1\n      dup1\n      0x06\n      add\n      sload\n      swap1\n      pop\n      dup8\n      jump\t// out\n        /* \"contracts/final/AudienceEngagementTool.sol\":2614:3015  function resetPeriod() public onlyOwner {... */\n    tag_82:\n        /* \"@openzeppelin/contracts/access/Ownable.sol\":1531:1544  _checkOwner() */\n      tag_216\n        /* \"@openzeppelin/contracts/access/Ownable.sol\":1531:1542  _checkOwner */\n      tag_140\n        /* \"@openzeppelin/contracts/access/Ownable.sol\":1531:1544  _checkOwner() */\n      jump\t// in\n    tag_216:\n        /* \"contracts/final/AudienceEngagementTool.sol\":2679:2694  block.timestamp */\n      timestamp\n        /* \"contracts/final/AudienceEngagementTool.sol\":2665:2676  periodStart */\n      0x03\n        /* \"contracts/final/AudienceEngagementTool.sol\":2665:2694  periodStart = block.timestamp */\n      dup2\n      swap1\n      sstore\n      pop\n        /* \"contracts/final/AudienceEngagementTool.sol\":2731:2734  300 */\n      0x012c\n        /* \"contracts/final/AudienceEngagementTool.sol\":2717:2728  periodStart */\n      sload(0x03)\n        /* \"contracts/final/AudienceEngagementTool.sol\":2717:2734  periodStart + 300 */\n      tag_218\n      swap2\n      swap1\n      tag_219\n      jump\t// in\n    tag_218:\n        /* \"contracts/final/AudienceEngagementTool.sol\":2705:2714  periodEnd */\n      0x04\n        /* \"contracts/final/AudienceEngagementTool.sol\":2705:2734  periodEnd = periodStart + 300 */\n      dup2\n      swap1\n      sstore\n      pop\n        /* \"contracts/final/AudienceEngagementTool.sol\":2745:2757  resetVotes() */\n      tag_220\n        /* \"contracts/final/AudienceEngagementTool.sol\":2745:2755  resetVotes */\n      tag_221\n        /* \"contracts/final/AudienceEngagementTool.sol\":2745:2757  resetVotes() */\n      jump\t// in\n    tag_220:\n        /* \"contracts/final/AudienceEngagementTool.sol\":2814:2815  0 */\n      0x00\n        /* \"contracts/final/AudienceEngagementTool.sol\":2772:2788  proposelContract */\n      0x0c\n      0x00\n      swap1\n      sload\n      swap1\n      0x0100\n      exp\n      swap1\n      div\n      0xffffffffffffffffffffffffffffffffffffffff\n      and\n        /* \"contracts/final/AudienceEngagementTool.sol\":2772:2802  proposelContract.listProposels */\n      0xffffffffffffffffffffffffffffffffffffffff\n      and\n      0x94964edf\n        /* \"contracts/final/AudienceEngagementTool.sol\":2772:2804  proposelContract.listProposels() */\n      mload(0x40)\n      dup2\n      0xffffffff\n      and\n      0xe0\n      shl\n      dup2\n      mstore\n      0x04\n      add\n      0x00\n      mload(0x40)\n      dup1\n      dup4\n      sub\n      dup2\n      dup7\n      gas\n      staticcall\n      iszero\n      dup1\n      iszero\n      tag_223\n      jumpi\n      returndatasize\n      0x00\n      dup1\n      returndatacopy\n      revert(0x00, returndatasize)\n    tag_223:\n      pop\n      pop\n      pop\n      pop\n      mload(0x40)\n      returndatasize\n      0x00\n      dup3\n      returndatacopy\n      returndatasize\n      not(0x1f)\n      0x1f\n      dup3\n      add\n      and\n      dup3\n      add\n      dup1\n      0x40\n      mstore\n      pop\n      dup2\n      add\n      swap1\n      tag_224\n      swap2\n      swap1\n      tag_225\n      jump\t// in\n    tag_224:\n        /* \"contracts/final/AudienceEngagementTool.sol\":2772:2811  proposelContract.listProposels().length */\n      mload\n        /* \"contracts/final/AudienceEngagementTool.sol\":2772:2815  proposelContract.listProposels().length > 0 */\n      gt\n        /* \"contracts/final/AudienceEngagementTool.sol\":2768:2956  if( proposelContract.listProposels().length > 0){... */\n      iszero\n      tag_226\n      jumpi\n        /* \"contracts/final/AudienceEngagementTool.sol\":2853:2869  proposelContract */\n      0x0c\n      0x00\n      swap1\n      sload\n      swap1\n      0x0100\n      exp\n      swap1\n      div\n      0xffffffffffffffffffffffffffffffffffffffff\n      and\n        /* \"contracts/final/AudienceEngagementTool.sol\":2853:2888  proposelContract.getWinningProposel */\n      0xffffffffffffffffffffffffffffffffffffffff\n      and\n      0x6c9a5fa4\n        /* \"contracts/final/AudienceEngagementTool.sol\":2853:2890  proposelContract.getWinningProposel() */\n      mload(0x40)\n      dup2\n      0xffffffff\n      and\n      0xe0\n      shl\n      dup2\n      mstore\n      0x04\n      add\n      0x00\n      mload(0x40)\n      dup1\n      dup4\n      sub\n      dup2\n      dup7\n      gas\n      staticcall\n      iszero\n      dup1\n      iszero\n      tag_228\n      jumpi\n      returndatasize\n      0x00\n      dup1\n      returndatacopy\n      revert(0x00, returndatasize)\n    tag_228:\n      pop\n      pop\n      pop\n      pop\n      mload(0x40)\n      returndatasize\n      0x00\n      dup3\n      returndatacopy\n      returndatasize\n      not(0x1f)\n      0x1f\n      dup3\n      add\n      and\n      dup3\n      add\n      dup1\n      0x40\n      mstore\n      pop\n      dup2\n      add\n      swap1\n      tag_229\n      swap2\n      swap1\n      tag_130\n      jump\t// in\n    tag_229:\n        /* \"contracts/final/AudienceEngagementTool.sol\":2831:2850  lastWinningProposal */\n      0x05\n        /* \"contracts/final/AudienceEngagementTool.sol\":2831:2890  lastWinningProposal = proposelContract.getWinningProposel() */\n      0x00\n      dup3\n      add\n      mload\n      dup2\n      0x00\n      add\n      exp(0x0100, 0x00)\n      dup2\n      sload\n      dup2\n      0xffffffffffffffffffffffffffffffffffffffff\n      mul\n      not\n      and\n      swap1\n      dup4\n      0xffffffffffffffffffffffffffffffffffffffff\n      and\n      mul\n      or\n      swap1\n      sstore\n      pop\n      0x20\n      dup3\n      add\n      mload\n      dup2\n      0x01\n      add\n      swap1\n      dup2\n      tag_230\n      swap2\n      swap1\n      tag_231\n      jump\t// in\n    tag_230:\n      pop\n      0x40\n      dup3\n      add\n      mload\n      dup2\n      0x02\n      add\n      swap1\n      dup2\n      tag_232\n      swap2\n      swap1\n      tag_231\n      jump\t// in\n    tag_232:\n      pop\n      0x60\n      dup3\n      add\n      mload\n      dup2\n      0x03\n      add\n      sstore\n      0x80\n      dup3\n      add\n      mload\n      dup2\n      0x04\n      add\n      sstore\n      0xa0\n      dup3\n      add\n      mload\n      dup2\n      0x05\n      add\n      sstore\n      0xc0\n      dup3\n      add\n      mload\n      dup2\n      0x06\n      add\n      sstore\n      swap1\n      pop\n      pop\n        /* \"contracts/final/AudienceEngagementTool.sol\":2905:2921  proposelContract */\n      0x0c\n      0x00\n      swap1\n      sload\n      swap1\n      0x0100\n      exp\n      swap1\n      div\n      0xffffffffffffffffffffffffffffffffffffffff\n      and\n        /* \"contracts/final/AudienceEngagementTool.sol\":2905:2942  proposelContract.removeWinningPropsel */\n      0xffffffffffffffffffffffffffffffffffffffff\n      and\n      0x7cdbf25c\n        /* \"contracts/final/AudienceEngagementTool.sol\":2905:2944  proposelContract.removeWinningPropsel() */\n      mload(0x40)\n      dup2\n      0xffffffff\n      and\n      0xe0\n      shl\n      dup2\n      mstore\n      0x04\n      add\n      0x00\n      mload(0x40)\n      dup1\n      dup4\n      sub\n      dup2\n      0x00\n      dup8\n      gas\n      call\n      iszero\n      dup1\n      iszero\n      tag_234\n      jumpi\n      returndatasize\n      0x00\n      dup1\n      returndatacopy\n      revert(0x00, returndatasize)\n    tag_234:\n      pop\n      pop\n      pop\n      pop\n      mload(0x40)\n      returndatasize\n      0x00\n      dup3\n      returndatacopy\n      returndatasize\n      not(0x1f)\n      0x1f\n      dup3\n      add\n      and\n      dup3\n      add\n      dup1\n      0x40\n      mstore\n      pop\n      dup2\n      add\n      swap1\n      tag_235\n      swap2\n      swap1\n      tag_130\n      jump\t// in\n    tag_235:\n      pop\n        /* \"contracts/final/AudienceEngagementTool.sol\":2768:2956  if( proposelContract.listProposels().length > 0){... */\n    tag_226:\n        /* \"contracts/final/AudienceEngagementTool.sol\":2971:3007  ResetPeriod(lastWinningProposal.url) */\n      0xeb6c47cd02f1e621f31fb6401e4d5b6d34724fe0dddfc7b4871b7cd1aa424fed\n        /* \"contracts/final/AudienceEngagementTool.sol\":2983:3002  lastWinningProposal */\n      0x05\n        /* \"contracts/final/AudienceEngagementTool.sol\":2983:3006  lastWinningProposal.url */\n      0x02\n      add\n        /* \"contracts/final/AudienceEngagementTool.sol\":2971:3007  ResetPeriod(lastWinningProposal.url) */\n      mload(0x40)\n      tag_236\n      swap2\n      swap1\n      tag_237\n      jump\t// in\n    tag_236:\n      mload(0x40)\n      dup1\n      swap2\n      sub\n      swap1\n      log1\n        /* \"contracts/final/AudienceEngagementTool.sol\":2614:3015  function resetPeriod() public onlyOwner {... */\n      jump\t// out\n        /* \"contracts/final/AudienceEngagementTool.sol\":4250:4381  function listProposels() public view returns (Proposel[] memory) {        ... */\n    tag_85:\n        /* \"contracts/final/AudienceEngagementTool.sol\":4296:4313  Proposel[] memory */\n      0x60\n        /* \"contracts/final/AudienceEngagementTool.sol\":4341:4357  proposelContract */\n      0x0c\n      0x00\n      swap1\n      sload\n      swap1\n      0x0100\n      exp\n      swap1\n      div\n      0xffffffffffffffffffffffffffffffffffffffff\n      and\n        /* \"contracts/final/AudienceEngagementTool.sol\":4341:4371  proposelContract.listProposels */\n      0xffffffffffffffffffffffffffffffffffffffff\n      and\n      0x94964edf\n        /* \"contracts/final/AudienceEngagementTool.sol\":4341:4373  proposelContract.listProposels() */\n      mload(0x40)\n      dup2\n      0xffffffff\n      and\n      0xe0\n      shl\n      dup2\n      mstore\n      0x04\n      add\n      0x00\n      mload(0x40)\n      dup1\n      dup4\n      sub\n      dup2\n      dup7\n      gas\n      staticcall\n      iszero\n      dup1\n      iszero\n      tag_240\n      jumpi\n      returndatasize\n      0x00\n      dup1\n      returndatacopy\n      revert(0x00, returndatasize)\n    tag_240:\n      pop\n      pop\n      pop\n      pop\n      mload(0x40)\n      returndatasize\n      0x00\n      dup3\n      returndatacopy\n      returndatasize\n      not(0x1f)\n      0x1f\n      dup3\n      add\n      and\n      dup3\n      add\n      dup1\n      0x40\n      mstore\n      pop\n      dup2\n      add\n      swap1\n      tag_241\n      swap2\n      swap1\n      tag_225\n      jump\t// in\n    tag_241:\n        /* \"contracts/final/AudienceEngagementTool.sol\":4334:4373  return proposelContract.listProposels() */\n      swap1\n      pop\n        /* \"contracts/final/AudienceEngagementTool.sol\":4250:4381  function listProposels() public view returns (Proposel[] memory) {        ... */\n      swap1\n      jump\t// out\n        /* \"contracts/final/AudienceEngagementTool.sol\":4731:4804  function getFee() public view returns(uint) {... */\n    tag_90:\n        /* \"contracts/final/AudienceEngagementTool.sol\":4769:4773  uint */\n      0x00\n        /* \"contracts/final/AudienceEngagementTool.sol\":4793:4796  fee */\n      sload(0x0f)\n        /* \"contracts/final/AudienceEngagementTool.sol\":4786:4796  return fee */\n      swap1\n      pop\n        /* \"contracts/final/AudienceEngagementTool.sol\":4731:4804  function getFee() public view returns(uint) {... */\n      swap1\n      jump\t// out\n        /* \"@openzeppelin/contracts/access/Ownable.sol\":2543:2758  function transferOwnership(address newOwner) public virtual onlyOwner {... */\n    tag_95:\n        /* \"@openzeppelin/contracts/access/Ownable.sol\":1531:1544  _checkOwner() */\n      tag_244\n        /* \"@openzeppelin/contracts/access/Ownable.sol\":1531:1542  _checkOwner */\n      tag_140\n        /* \"@openzeppelin/contracts/access/Ownable.sol\":1531:1544  _checkOwner() */\n      jump\t// in\n    tag_244:\n        /* \"@openzeppelin/contracts/access/Ownable.sol\":2647:2648  0 */\n      0x00\n        /* \"@openzeppelin/contracts/access/Ownable.sol\":2627:2649  newOwner == address(0) */\n      0xffffffffffffffffffffffffffffffffffffffff\n      and\n        /* \"@openzeppelin/contracts/access/Ownable.sol\":2627:2635  newOwner */\n      dup2\n        /* \"@openzeppelin/contracts/access/Ownable.sol\":2627:2649  newOwner == address(0) */\n      0xffffffffffffffffffffffffffffffffffffffff\n      and\n      sub\n        /* \"@openzeppelin/contracts/access/Ownable.sol\":2623:2714  if (newOwner == address(0)) {... */\n      tag_246\n      jumpi\n        /* \"@openzeppelin/contracts/access/Ownable.sol\":2700:2701  0 */\n      0x00\n        /* \"@openzeppelin/contracts/access/Ownable.sol\":2672:2703  OwnableInvalidOwner(address(0)) */\n      mload(0x40)\n      0x1e4fbdf700000000000000000000000000000000000000000000000000000000\n      dup2\n      mstore\n      0x04\n      add\n      tag_247\n      swap2\n      swap1\n      tag_69\n      jump\t// in\n    tag_247:\n      mload(0x40)\n      dup1\n      swap2\n      sub\n      swap1\n      revert\n        /* \"@openzeppelin/contracts/access/Ownable.sol\":2623:2714  if (newOwner == address(0)) {... */\n    tag_246:\n        /* \"@openzeppelin/contracts/access/Ownable.sol\":2723:2751  _transferOwnership(newOwner) */\n      tag_248\n        /* \"@openzeppelin/contracts/access/Ownable.sol\":2742:2750  newOwner */\n      dup2\n        /* \"@openzeppelin/contracts/access/Ownable.sol\":2723:2741  _transferOwnership */\n      tag_182\n        /* \"@openzeppelin/contracts/access/Ownable.sol\":2723:2751  _transferOwnership(newOwner) */\n      jump\t// in\n    tag_248:\n        /* \"@openzeppelin/contracts/access/Ownable.sol\":2543:2758  function transferOwnership(address newOwner) public virtual onlyOwner {... */\n      pop\n      jump\t// out\n        /* \"contracts/final/AudienceEngagementTool.sol\":4389:4519  function getWinningPoposel() public view returns (Proposel memory) {... */\n    tag_98:\n        /* \"contracts/final/AudienceEngagementTool.sol\":4439:4454  Proposel memory */\n      tag_249\n      tag_184\n      jump\t// in\n    tag_249:\n        /* \"contracts/final/AudienceEngagementTool.sol\":4474:4490  proposelContract */\n      0x0c\n      0x00\n      swap1\n      sload\n      swap1\n      0x0100\n      exp\n      swap1\n      div\n      0xffffffffffffffffffffffffffffffffffffffff\n      and\n        /* \"contracts/final/AudienceEngagementTool.sol\":4474:4509  proposelContract.getWinningProposel */\n      0xffffffffffffffffffffffffffffffffffffffff\n      and\n      0x6c9a5fa4\n        /* \"contracts/final/AudienceEngagementTool.sol\":4474:4511  proposelContract.getWinningProposel() */\n      mload(0x40)\n      dup2\n      0xffffffff\n      and\n      0xe0\n      shl\n      dup2\n      mstore\n      0x04\n      add\n      0x00\n      mload(0x40)\n      dup1\n      dup4\n      sub\n      dup2\n      dup7\n      gas\n      staticcall\n      iszero\n      dup1\n      iszero\n      tag_252\n      jumpi\n      returndatasize\n      0x00\n      dup1\n      returndatacopy\n      revert(0x00, returndatasize)\n    tag_252:\n      pop\n      pop\n      pop\n      pop\n      mload(0x40)\n      returndatasize\n      0x00\n      dup3\n      returndatacopy\n      returndatasize\n      not(0x1f)\n      0x1f\n      dup3\n      add\n      and\n      dup3\n      add\n      dup1\n      0x40\n      mstore\n      pop\n      dup2\n      add\n      swap1\n      tag_253\n      swap2\n      swap1\n      tag_130\n      jump\t// in\n    tag_253:\n        /* \"contracts/final/AudienceEngagementTool.sol\":4467:4511  return proposelContract.getWinningProposel() */\n      swap1\n      pop\n        /* \"contracts/final/AudienceEngagementTool.sol\":4389:4519  function getWinningPoposel() public view returns (Proposel memory) {... */\n      swap1\n      jump\t// out\n        /* \"@openzeppelin/contracts/access/Ownable.sol\":1796:1958  function _checkOwner() internal view virtual {... */\n    tag_140:\n        /* \"@openzeppelin/contracts/access/Ownable.sol\":1866:1878  _msgSender() */\n      tag_255\n        /* \"@openzeppelin/contracts/access/Ownable.sol\":1866:1876  _msgSender */\n      tag_256\n        /* \"@openzeppelin/contracts/access/Ownable.sol\":1866:1878  _msgSender() */\n      jump\t// in\n    tag_255:\n        /* \"@openzeppelin/contracts/access/Ownable.sol\":1855:1878  owner() != _msgSender() */\n      0xffffffffffffffffffffffffffffffffffffffff\n      and\n        /* \"@openzeppelin/contracts/access/Ownable.sol\":1855:1862  owner() */\n      tag_257\n        /* \"@openzeppelin/contracts/access/Ownable.sol\":1855:1860  owner */\n      tag_67\n        /* \"@openzeppelin/contracts/access/Ownable.sol\":1855:1862  owner() */\n      jump\t// in\n    tag_257:\n        /* \"@openzeppelin/contracts/access/Ownable.sol\":1855:1878  owner() != _msgSender() */\n      0xffffffffffffffffffffffffffffffffffffffff\n      and\n      eq\n        /* \"@openzeppelin/contracts/access/Ownable.sol\":1851:1952  if (owner() != _msgSender()) {... */\n      tag_258\n      jumpi\n        /* \"@openzeppelin/contracts/access/Ownable.sol\":1928:1940  _msgSender() */\n      tag_259\n        /* \"@openzeppelin/contracts/access/Ownable.sol\":1928:1938  _msgSender */\n      tag_256\n        /* \"@openzeppelin/contracts/access/Ownable.sol\":1928:1940  _msgSender() */\n      jump\t// in\n    tag_259:\n        /* \"@openzeppelin/contracts/access/Ownable.sol\":1901:1941  OwnableUnauthorizedAccount(_msgSender()) */\n      mload(0x40)\n      0x118cdaa700000000000000000000000000000000000000000000000000000000\n      dup2\n      mstore\n      0x04\n      add\n      tag_260\n      swap2\n      swap1\n      tag_69\n      jump\t// in\n    tag_260:\n      mload(0x40)\n      dup1\n      swap2\n      sub\n      swap1\n      revert\n        /* \"@openzeppelin/contracts/access/Ownable.sol\":1851:1952  if (owner() != _msgSender()) {... */\n    tag_258:\n        /* \"@openzeppelin/contracts/access/Ownable.sol\":1796:1958  function _checkOwner() internal view virtual {... */\n      jump\t// out\n        /* \"@openzeppelin/contracts/access/Ownable.sol\":2912:3099  function _transferOwnership(address newOwner) internal virtual {... */\n    tag_182:\n        /* \"@openzeppelin/contracts/access/Ownable.sol\":2985:3001  address oldOwner */\n      0x00\n        /* \"@openzeppelin/contracts/access/Ownable.sol\":3004:3010  _owner */\n      dup1\n      0x00\n      swap1\n      sload\n      swap1\n      0x0100\n      exp\n      swap1\n      div\n      0xffffffffffffffffffffffffffffffffffffffff\n      and\n        /* \"@openzeppelin/contracts/access/Ownable.sol\":2985:3010  address oldOwner = _owner */\n      swap1\n      pop\n        /* \"@openzeppelin/contracts/access/Ownable.sol\":3029:3037  newOwner */\n      dup2\n        /* \"@openzeppelin/contracts/access/Ownable.sol\":3020:3026  _owner */\n      0x00\n      dup1\n        /* \"@openzeppelin/contracts/access/Ownable.sol\":3020:3037  _owner = newOwner */\n      0x0100\n      exp\n      dup2\n      sload\n      dup2\n      0xffffffffffffffffffffffffffffffffffffffff\n      mul\n      not\n      and\n      swap1\n      dup4\n      0xffffffffffffffffffffffffffffffffffffffff\n      and\n      mul\n      or\n      swap1\n      sstore\n      pop\n        /* \"@openzeppelin/contracts/access/Ownable.sol\":3083:3091  newOwner */\n      dup2\n        /* \"@openzeppelin/contracts/access/Ownable.sol\":3052:3092  OwnershipTransferred(oldOwner, newOwner) */\n      0xffffffffffffffffffffffffffffffffffffffff\n      and\n        /* \"@openzeppelin/contracts/access/Ownable.sol\":3073:3081  oldOwner */\n      dup2\n        /* \"@openzeppelin/contracts/access/Ownable.sol\":3052:3092  OwnershipTransferred(oldOwner, newOwner) */\n      0xffffffffffffffffffffffffffffffffffffffff\n      and\n      0x8be0079c531659141344cd1fd0a4f28419497f9722a3daafe3b4186f6b6457e0\n      mload(0x40)\n      mload(0x40)\n      dup1\n      swap2\n      sub\n      swap1\n      log3\n        /* \"@openzeppelin/contracts/access/Ownable.sol\":2975:3099  {... */\n      pop\n        /* \"@openzeppelin/contracts/access/Ownable.sol\":2912:3099  function _transferOwnership(address newOwner) internal virtual {... */\n      pop\n      jump\t// out\n        /* \"contracts/final/AudienceEngagementTool.sol\":2449:2606  function resetVotes() private {... */\n    tag_221:\n        /* \"contracts/final/AudienceEngagementTool.sol\":2495:2501  uint i */\n      0x00\n        /* \"contracts/final/AudienceEngagementTool.sol\":2490:2577  for (uint i = 0; i < keys.length; i++) {... */\n    tag_263:\n        /* \"contracts/final/AudienceEngagementTool.sol\":2511:2515  keys */\n      0x02\n        /* \"contracts/final/AudienceEngagementTool.sol\":2511:2522  keys.length */\n      dup1\n      sload\n      swap1\n      pop\n        /* \"contracts/final/AudienceEngagementTool.sol\":2507:2508  i */\n      dup2\n        /* \"contracts/final/AudienceEngagementTool.sol\":2507:2522  i < keys.length */\n      lt\n        /* \"contracts/final/AudienceEngagementTool.sol\":2490:2577  for (uint i = 0; i < keys.length; i++) {... */\n      iszero\n      tag_264\n      jumpi\n        /* \"contracts/final/AudienceEngagementTool.sol\":2551:2556  votes */\n      0x01\n        /* \"contracts/final/AudienceEngagementTool.sol\":2551:2565  votes[keys[i]] */\n      0x00\n        /* \"contracts/final/AudienceEngagementTool.sol\":2557:2561  keys */\n      0x02\n        /* \"contracts/final/AudienceEngagementTool.sol\":2562:2563  i */\n      dup4\n        /* \"contracts/final/AudienceEngagementTool.sol\":2557:2564  keys[i] */\n      dup2\n      sload\n      dup2\n      lt\n      tag_266\n      jumpi\n      tag_267\n      tag_268\n      jump\t// in\n    tag_267:\n    tag_266:\n      swap1\n      0x00\n      mstore\n      keccak256(0x00, 0x20)\n      add\n      0x00\n      swap1\n      sload\n      swap1\n      0x0100\n      exp\n      swap1\n      div\n      0xffffffffffffffffffffffffffffffffffffffff\n      and\n        /* \"contracts/final/AudienceEngagementTool.sol\":2551:2565  votes[keys[i]] */\n      0xffffffffffffffffffffffffffffffffffffffff\n      and\n      0xffffffffffffffffffffffffffffffffffffffff\n      and\n      dup2\n      mstore\n      0x20\n      add\n      swap1\n      dup2\n      mstore\n      0x20\n      add\n      0x00\n      keccak256\n        /* \"contracts/final/AudienceEngagementTool.sol\":2544:2565  delete votes[keys[i]] */\n      0x00\n      swap1\n      sstore\n        /* \"contracts/final/AudienceEngagementTool.sol\":2524:2527  i++ */\n      dup1\n      dup1\n      0x01\n      add\n      swap2\n      pop\n      pop\n        /* \"contracts/final/AudienceEngagementTool.sol\":2490:2577  for (uint i = 0; i < keys.length; i++) {... */\n      jump(tag_263)\n    tag_264:\n      pop\n        /* \"contracts/final/AudienceEngagementTool.sol\":2594:2598  keys */\n      0x02\n      0x00\n        /* \"contracts/final/AudienceEngagementTool.sol\":2587:2598  delete keys */\n      tag_270\n      swap2\n      swap1\n      tag_271\n      jump\t// in\n    tag_270:\n        /* \"contracts/final/AudienceEngagementTool.sol\":2449:2606  function resetVotes() private {... */\n      jump\t// out\n        /* \"@openzeppelin/contracts/utils/Context.sol\":656:752  function _msgSender() internal view virtual returns (address) {... */\n    tag_256:\n        /* \"@openzeppelin/contracts/utils/Context.sol\":709:716  address */\n      0x00\n        /* \"@openzeppelin/contracts/utils/Context.sol\":735:745  msg.sender */\n      caller\n        /* \"@openzeppelin/contracts/utils/Context.sol\":728:745  return msg.sender */\n      swap1\n      pop\n        /* \"@openzeppelin/contracts/utils/Context.sol\":656:752  function _msgSender() internal view virtual returns (address) {... */\n      swap1\n      jump\t// out\n    tag_170:\n      dup3\n      dup1\n      sload\n      dup3\n      dup3\n      sstore\n      swap1\n      0x00\n      mstore\n      keccak256(0x00, 0x20)\n      swap1\n      dup2\n      add\n      swap3\n      dup3\n      iszero\n      tag_273\n      jumpi\n      swap2\n      0x20\n      mul\n      dup3\n      add\n    tag_274:\n      dup3\n      dup2\n      gt\n      iszero\n      tag_275\n      jumpi\n      dup3\n      mload\n      dup3\n      exp(0x0100, 0x00)\n      dup2\n      sload\n      dup2\n      0xffffffffffffffffffffffffffffffffffffffff\n      mul\n      not\n      and\n      swap1\n      dup4\n      0xffffffffffffffffffffffffffffffffffffffff\n      and\n      mul\n      or\n      swap1\n      sstore\n      pop\n      swap2\n      0x20\n      add\n      swap2\n      swap1\n      0x01\n      add\n      swap1\n      jump(tag_274)\n    tag_275:\n    tag_273:\n      pop\n      swap1\n      pop\n      tag_276\n      swap2\n      swap1\n      tag_277\n      jump\t// in\n    tag_276:\n      pop\n      swap1\n      jump\t// out\n    tag_173:\n      mload(0x40)\n      dup1\n      0x40\n      add\n      0x40\n      mstore\n      dup1\n      0x00\n      dup2\n      mstore\n      0x20\n      add\n      0x00\n      dup2\n      mstore\n      pop\n      swap1\n      jump\t// out\n    tag_184:\n      mload(0x40)\n      dup1\n      0xe0\n      add\n      0x40\n      mstore\n      dup1\n      and(0xffffffffffffffffffffffffffffffffffffffff, 0x00)\n      dup2\n      mstore\n      0x20\n      add\n      0x60\n      dup2\n      mstore\n      0x20\n      add\n      0x60\n      dup2\n      mstore\n      0x20\n      add\n      0x00\n      dup2\n      mstore\n      0x20\n      add\n      0x00\n      dup2\n      mstore\n      0x20\n      add\n      0x00\n      dup2\n      mstore\n      0x20\n      add\n      0x00\n      dup1\n      not\n      and\n      dup2\n      mstore\n      pop\n      swap1\n      jump\t// out\n    tag_271:\n      pop\n      dup1\n      sload\n      0x00\n      dup3\n      sstore\n      swap1\n      0x00\n      mstore\n      keccak256(0x00, 0x20)\n      swap1\n      dup2\n      add\n      swap1\n      tag_279\n      swap2\n      swap1\n      tag_277\n      jump\t// in\n    tag_279:\n      pop\n      jump\t// out\n    tag_277:\n    tag_280:\n      dup1\n      dup3\n      gt\n      iszero\n      tag_281\n      jumpi\n      0x00\n      dup2\n      0x00\n      swap1\n      sstore\n      pop\n      0x01\n      add\n      jump(tag_280)\n    tag_281:\n      pop\n      swap1\n      jump\t// out\n        /* \"#utility.yul\":7:82   */\n    tag_282:\n        /* \"#utility.yul\":40:46   */\n      0x00\n        /* \"#utility.yul\":73:75   */\n      0x40\n        /* \"#utility.yul\":67:76   */\n      mload\n        /* \"#utility.yul\":57:76   */\n      swap1\n      pop\n        /* \"#utility.yul\":7:82   */\n      swap1\n      jump\t// out\n        /* \"#utility.yul\":88:205   */\n    tag_283:\n        /* \"#utility.yul\":197:198   */\n      0x00\n        /* \"#utility.yul\":194:195   */\n      dup1\n        /* \"#utility.yul\":187:199   */\n      revert\n        /* \"#utility.yul\":211:328   */\n    tag_284:\n        /* \"#utility.yul\":320:321   */\n      0x00\n        /* \"#utility.yul\":317:318   */\n      dup1\n        /* \"#utility.yul\":310:322   */\n      revert\n        /* \"#utility.yul\":334:411   */\n    tag_285:\n        /* \"#utility.yul\":371:378   */\n      0x00\n        /* \"#utility.yul\":400:405   */\n      dup2\n        /* \"#utility.yul\":389:405   */\n      swap1\n      pop\n        /* \"#utility.yul\":334:411   */\n      swap2\n      swap1\n      pop\n      jump\t// out\n        /* \"#utility.yul\":417:539   */\n    tag_286:\n        /* \"#utility.yul\":490:514   */\n      tag_404\n        /* \"#utility.yul\":508:513   */\n      dup2\n        /* \"#utility.yul\":490:514   */\n      tag_285\n      jump\t// in\n    tag_404:\n        /* \"#utility.yul\":483:488   */\n      dup2\n        /* \"#utility.yul\":480:515   */\n      eq\n        /* \"#utility.yul\":470:533   */\n      tag_405\n      jumpi\n        /* \"#utility.yul\":529:530   */\n      0x00\n        /* \"#utility.yul\":526:527   */\n      dup1\n        /* \"#utility.yul\":519:531   */\n      revert\n        /* \"#utility.yul\":470:533   */\n    tag_405:\n        /* \"#utility.yul\":417:539   */\n      pop\n      jump\t// out\n        /* \"#utility.yul\":545:684   */\n    tag_287:\n        /* \"#utility.yul\":591:596   */\n      0x00\n        /* \"#utility.yul\":629:635   */\n      dup2\n        /* \"#utility.yul\":616:636   */\n      calldataload\n        /* \"#utility.yul\":607:636   */\n      swap1\n      pop\n        /* \"#utility.yul\":645:678   */\n      tag_407\n        /* \"#utility.yul\":672:677   */\n      dup2\n        /* \"#utility.yul\":645:678   */\n      tag_286\n      jump\t// in\n    tag_407:\n        /* \"#utility.yul\":545:684   */\n      swap3\n      swap2\n      pop\n      pop\n      jump\t// out\n        /* \"#utility.yul\":690:1019   */\n    tag_26:\n        /* \"#utility.yul\":749:755   */\n      0x00\n        /* \"#utility.yul\":798:800   */\n      0x20\n        /* \"#utility.yul\":786:795   */\n      dup3\n        /* \"#utility.yul\":777:784   */\n      dup5\n        /* \"#utility.yul\":773:796   */\n      sub\n        /* \"#utility.yul\":769:801   */\n      slt\n        /* \"#utility.yul\":766:885   */\n      iszero\n      tag_409\n      jumpi\n        /* \"#utility.yul\":804:883   */\n      tag_410\n      tag_283\n      jump\t// in\n    tag_410:\n        /* \"#utility.yul\":766:885   */\n    tag_409:\n        /* \"#utility.yul\":924:925   */\n      0x00\n        /* \"#utility.yul\":949:1002   */\n      tag_411\n        /* \"#utility.yul\":994:1001   */\n      dup5\n        /* \"#utility.yul\":985:991   */\n      dup3\n        /* \"#utility.yul\":974:983   */\n      dup6\n        /* \"#utility.yul\":970:992   */\n      add\n        /* \"#utility.yul\":949:1002   */\n      tag_287\n      jump\t// in\n    tag_411:\n        /* \"#utility.yul\":939:1002   */\n      swap2\n      pop\n        /* \"#utility.yul\":895:1012   */\n      pop\n        /* \"#utility.yul\":690:1019   */\n      swap3\n      swap2\n      pop\n      pop\n      jump\t// out\n        /* \"#utility.yul\":1025:1142   */\n    tag_288:\n        /* \"#utility.yul\":1134:1135   */\n      0x00\n        /* \"#utility.yul\":1131:1132   */\n      dup1\n        /* \"#utility.yul\":1124:1136   */\n      revert\n        /* \"#utility.yul\":1148:1265   */\n    tag_289:\n        /* \"#utility.yul\":1257:1258   */\n      0x00\n        /* \"#utility.yul\":1254:1255   */\n      dup1\n        /* \"#utility.yul\":1247:1259   */\n      revert\n        /* \"#utility.yul\":1271:1388   */\n    tag_290:\n        /* \"#utility.yul\":1380:1381   */\n      0x00\n        /* \"#utility.yul\":1377:1378   */\n      dup1\n        /* \"#utility.yul\":1370:1382   */\n      revert\n        /* \"#utility.yul\":1408:1961   */\n    tag_291:\n        /* \"#utility.yul\":1466:1474   */\n      0x00\n        /* \"#utility.yul\":1476:1482   */\n      dup1\n        /* \"#utility.yul\":1526:1529   */\n      dup4\n        /* \"#utility.yul\":1519:1523   */\n      0x1f\n        /* \"#utility.yul\":1511:1517   */\n      dup5\n        /* \"#utility.yul\":1507:1524   */\n      add\n        /* \"#utility.yul\":1503:1530   */\n      slt\n        /* \"#utility.yul\":1493:1615   */\n      tag_416\n      jumpi\n        /* \"#utility.yul\":1534:1613   */\n      tag_417\n      tag_288\n      jump\t// in\n    tag_417:\n        /* \"#utility.yul\":1493:1615   */\n    tag_416:\n        /* \"#utility.yul\":1647:1653   */\n      dup3\n        /* \"#utility.yul\":1634:1654   */\n      calldataload\n        /* \"#utility.yul\":1624:1654   */\n      swap1\n      pop\n        /* \"#utility.yul\":1677:1695   */\n      0xffffffffffffffff\n        /* \"#utility.yul\":1669:1675   */\n      dup2\n        /* \"#utility.yul\":1666:1696   */\n      gt\n        /* \"#utility.yul\":1663:1780   */\n      iszero\n      tag_418\n      jumpi\n        /* \"#utility.yul\":1699:1778   */\n      tag_419\n      tag_289\n      jump\t// in\n    tag_419:\n        /* \"#utility.yul\":1663:1780   */\n    tag_418:\n        /* \"#utility.yul\":1813:1817   */\n      0x20\n        /* \"#utility.yul\":1805:1811   */\n      dup4\n        /* \"#utility.yul\":1801:1818   */\n      add\n        /* \"#utility.yul\":1789:1818   */\n      swap2\n      pop\n        /* \"#utility.yul\":1867:1870   */\n      dup4\n        /* \"#utility.yul\":1859:1863   */\n      0x01\n        /* \"#utility.yul\":1851:1857   */\n      dup3\n        /* \"#utility.yul\":1847:1864   */\n      mul\n        /* \"#utility.yul\":1837:1845   */\n      dup4\n        /* \"#utility.yul\":1833:1865   */\n      add\n        /* \"#utility.yul\":1830:1871   */\n      gt\n        /* \"#utility.yul\":1827:1955   */\n      iszero\n      tag_420\n      jumpi\n        /* \"#utility.yul\":1874:1953   */\n      tag_421\n      tag_290\n      jump\t// in\n    tag_421:\n        /* \"#utility.yul\":1827:1955   */\n    tag_420:\n        /* \"#utility.yul\":1408:1961   */\n      swap3\n      pop\n      swap3\n      swap1\n      pop\n      jump\t// out\n        /* \"#utility.yul\":1967:2841   */\n    tag_30:\n        /* \"#utility.yul\":2059:2065   */\n      0x00\n        /* \"#utility.yul\":2067:2073   */\n      dup1\n        /* \"#utility.yul\":2075:2081   */\n      0x00\n        /* \"#utility.yul\":2083:2089   */\n      dup1\n        /* \"#utility.yul\":2132:2134   */\n      0x40\n        /* \"#utility.yul\":2120:2129   */\n      dup6\n        /* \"#utility.yul\":2111:2118   */\n      dup8\n        /* \"#utility.yul\":2107:2130   */\n      sub\n        /* \"#utility.yul\":2103:2135   */\n      slt\n        /* \"#utility.yul\":2100:2219   */\n      iszero\n      tag_423\n      jumpi\n        /* \"#utility.yul\":2138:2217   */\n      tag_424\n      tag_283\n      jump\t// in\n    tag_424:\n        /* \"#utility.yul\":2100:2219   */\n    tag_423:\n        /* \"#utility.yul\":2286:2287   */\n      0x00\n        /* \"#utility.yul\":2275:2284   */\n      dup6\n        /* \"#utility.yul\":2271:2288   */\n      add\n        /* \"#utility.yul\":2258:2289   */\n      calldataload\n        /* \"#utility.yul\":2316:2334   */\n      0xffffffffffffffff\n        /* \"#utility.yul\":2308:2314   */\n      dup2\n        /* \"#utility.yul\":2305:2335   */\n      gt\n        /* \"#utility.yul\":2302:2419   */\n      iszero\n      tag_425\n      jumpi\n        /* \"#utility.yul\":2338:2417   */\n      tag_426\n      tag_284\n      jump\t// in\n    tag_426:\n        /* \"#utility.yul\":2302:2419   */\n    tag_425:\n        /* \"#utility.yul\":2451:2516   */\n      tag_427\n        /* \"#utility.yul\":2508:2515   */\n      dup8\n        /* \"#utility.yul\":2499:2505   */\n      dup3\n        /* \"#utility.yul\":2488:2497   */\n      dup9\n        /* \"#utility.yul\":2484:2506   */\n      add\n        /* \"#utility.yul\":2451:2516   */\n      tag_291\n      jump\t// in\n    tag_427:\n        /* \"#utility.yul\":2433:2516   */\n      swap5\n      pop\n      swap5\n      pop\n        /* \"#utility.yul\":2229:2526   */\n      pop\n        /* \"#utility.yul\":2593:2595   */\n      0x20\n        /* \"#utility.yul\":2582:2591   */\n      dup6\n        /* \"#utility.yul\":2578:2596   */\n      add\n        /* \"#utility.yul\":2565:2597   */\n      calldataload\n        /* \"#utility.yul\":2624:2642   */\n      0xffffffffffffffff\n        /* \"#utility.yul\":2616:2622   */\n      dup2\n        /* \"#utility.yul\":2613:2643   */\n      gt\n        /* \"#utility.yul\":2610:2727   */\n      iszero\n      tag_428\n      jumpi\n        /* \"#utility.yul\":2646:2725   */\n      tag_429\n      tag_284\n      jump\t// in\n    tag_429:\n        /* \"#utility.yul\":2610:2727   */\n    tag_428:\n        /* \"#utility.yul\":2759:2824   */\n      tag_430\n        /* \"#utility.yul\":2816:2823   */\n      dup8\n        /* \"#utility.yul\":2807:2813   */\n      dup3\n        /* \"#utility.yul\":2796:2805   */\n      dup9\n        /* \"#utility.yul\":2792:2814   */\n      add\n        /* \"#utility.yul\":2759:2824   */\n      tag_291\n      jump\t// in\n    tag_430:\n        /* \"#utility.yul\":2741:2824   */\n      swap3\n      pop\n      swap3\n      pop\n        /* \"#utility.yul\":2536:2834   */\n      pop\n        /* \"#utility.yul\":1967:2841   */\n      swap3\n      swap6\n      swap2\n      swap5\n      pop\n      swap3\n      pop\n      jump\t// out\n        /* \"#utility.yul\":2847:2961   */\n    tag_292:\n        /* \"#utility.yul\":2914:2920   */\n      0x00\n        /* \"#utility.yul\":2948:2953   */\n      dup2\n        /* \"#utility.yul\":2942:2954   */\n      mload\n        /* \"#utility.yul\":2932:2954   */\n      swap1\n      pop\n        /* \"#utility.yul\":2847:2961   */\n      swap2\n      swap1\n      pop\n      jump\t// out\n        /* \"#utility.yul\":2967:3151   */\n    tag_293:\n        /* \"#utility.yul\":3066:3077   */\n      0x00\n        /* \"#utility.yul\":3100:3106   */\n      dup3\n        /* \"#utility.yul\":3095:3098   */\n      dup3\n        /* \"#utility.yul\":3088:3107   */\n      mstore\n        /* \"#utility.yul\":3140:3144   */\n      0x20\n        /* \"#utility.yul\":3135:3138   */\n      dup3\n        /* \"#utility.yul\":3131:3145   */\n      add\n        /* \"#utility.yul\":3116:3145   */\n      swap1\n      pop\n        /* \"#utility.yul\":2967:3151   */\n      swap3\n      swap2\n      pop\n      pop\n      jump\t// out\n        /* \"#utility.yul\":3157:3289   */\n    tag_294:\n        /* \"#utility.yul\":3224:3228   */\n      0x00\n        /* \"#utility.yul\":3247:3250   */\n      dup2\n        /* \"#utility.yul\":3239:3250   */\n      swap1\n      pop\n        /* \"#utility.yul\":3277:3281   */\n      0x20\n        /* \"#utility.yul\":3272:3275   */\n      dup3\n        /* \"#utility.yul\":3268:3282   */\n      add\n        /* \"#utility.yul\":3260:3282   */\n      swap1\n      pop\n        /* \"#utility.yul\":3157:3289   */\n      swap2\n      swap1\n      pop\n      jump\t// out\n        /* \"#utility.yul\":3295:3421   */\n    tag_295:\n        /* \"#utility.yul\":3332:3339   */\n      0x00\n        /* \"#utility.yul\":3372:3414   */\n      0xffffffffffffffffffffffffffffffffffffffff\n        /* \"#utility.yul\":3365:3370   */\n      dup3\n        /* \"#utility.yul\":3361:3415   */\n      and\n        /* \"#utility.yul\":3350:3415   */\n      swap1\n      pop\n        /* \"#utility.yul\":3295:3421   */\n      swap2\n      swap1\n      pop\n      jump\t// out\n        /* \"#utility.yul\":3427:3523   */\n    tag_296:\n        /* \"#utility.yul\":3464:3471   */\n      0x00\n        /* \"#utility.yul\":3493:3517   */\n      tag_436\n        /* \"#utility.yul\":3511:3516   */\n      dup3\n        /* \"#utility.yul\":3493:3517   */\n      tag_295\n      jump\t// in\n    tag_436:\n        /* \"#utility.yul\":3482:3517   */\n      swap1\n      pop\n        /* \"#utility.yul\":3427:3523   */\n      swap2\n      swap1\n      pop\n      jump\t// out\n        /* \"#utility.yul\":3529:3637   */\n    tag_297:\n        /* \"#utility.yul\":3606:3630   */\n      tag_438\n        /* \"#utility.yul\":3624:3629   */\n      dup2\n        /* \"#utility.yul\":3606:3630   */\n      tag_296\n      jump\t// in\n    tag_438:\n        /* \"#utility.yul\":3601:3604   */\n      dup3\n        /* \"#utility.yul\":3594:3631   */\n      mstore\n        /* \"#utility.yul\":3529:3637   */\n      pop\n      pop\n      jump\t// out\n        /* \"#utility.yul\":3643:3822   */\n    tag_298:\n        /* \"#utility.yul\":3712:3722   */\n      0x00\n        /* \"#utility.yul\":3733:3779   */\n      tag_440\n        /* \"#utility.yul\":3775:3778   */\n      dup4\n        /* \"#utility.yul\":3767:3773   */\n      dup4\n        /* \"#utility.yul\":3733:3779   */\n      tag_297\n      jump\t// in\n    tag_440:\n        /* \"#utility.yul\":3811:3815   */\n      0x20\n        /* \"#utility.yul\":3806:3809   */\n      dup4\n        /* \"#utility.yul\":3802:3816   */\n      add\n        /* \"#utility.yul\":3788:3816   */\n      swap1\n      pop\n        /* \"#utility.yul\":3643:3822   */\n      swap3\n      swap2\n      pop\n      pop\n      jump\t// out\n        /* \"#utility.yul\":3828:3941   */\n    tag_299:\n        /* \"#utility.yul\":3898:3902   */\n      0x00\n        /* \"#utility.yul\":3930:3934   */\n      0x20\n        /* \"#utility.yul\":3925:3928   */\n      dup3\n        /* \"#utility.yul\":3921:3935   */\n      add\n        /* \"#utility.yul\":3913:3935   */\n      swap1\n      pop\n        /* \"#utility.yul\":3828:3941   */\n      swap2\n      swap1\n      pop\n      jump\t// out\n        /* \"#utility.yul\":3977:4709   */\n    tag_300:\n        /* \"#utility.yul\":4096:4099   */\n      0x00\n        /* \"#utility.yul\":4125:4179   */\n      tag_443\n        /* \"#utility.yul\":4173:4178   */\n      dup3\n        /* \"#utility.yul\":4125:4179   */\n      tag_292\n      jump\t// in\n    tag_443:\n        /* \"#utility.yul\":4195:4281   */\n      tag_444\n        /* \"#utility.yul\":4274:4280   */\n      dup2\n        /* \"#utility.yul\":4269:4272   */\n      dup6\n        /* \"#utility.yul\":4195:4281   */\n      tag_293\n      jump\t// in\n    tag_444:\n        /* \"#utility.yul\":4188:4281   */\n      swap4\n      pop\n        /* \"#utility.yul\":4305:4361   */\n      tag_445\n        /* \"#utility.yul\":4355:4360   */\n      dup4\n        /* \"#utility.yul\":4305:4361   */\n      tag_294\n      jump\t// in\n    tag_445:\n        /* \"#utility.yul\":4384:4391   */\n      dup1\n        /* \"#utility.yul\":4415:4416   */\n      0x00\n        /* \"#utility.yul\":4400:4684   */\n    tag_446:\n        /* \"#utility.yul\":4425:4431   */\n      dup4\n        /* \"#utility.yul\":4422:4423   */\n      dup2\n        /* \"#utility.yul\":4419:4432   */\n      lt\n        /* \"#utility.yul\":4400:4684   */\n      iszero\n      tag_448\n      jumpi\n        /* \"#utility.yul\":4501:4507   */\n      dup2\n        /* \"#utility.yul\":4495:4508   */\n      mload\n        /* \"#utility.yul\":4528:4591   */\n      tag_449\n        /* \"#utility.yul\":4587:4590   */\n      dup9\n        /* \"#utility.yul\":4572:4585   */\n      dup3\n        /* \"#utility.yul\":4528:4591   */\n      tag_298\n      jump\t// in\n    tag_449:\n        /* \"#utility.yul\":4521:4591   */\n      swap8\n      pop\n        /* \"#utility.yul\":4614:4674   */\n      tag_450\n        /* \"#utility.yul\":4667:4673   */\n      dup4\n        /* \"#utility.yul\":4614:4674   */\n      tag_299\n      jump\t// in\n    tag_450:\n        /* \"#utility.yul\":4604:4674   */\n      swap3\n      pop\n        /* \"#utility.yul\":4460:4684   */\n      pop\n        /* \"#utility.yul\":4447:4448   */\n      0x01\n        /* \"#utility.yul\":4444:4445   */\n      dup2\n        /* \"#utility.yul\":4440:4449   */\n      add\n        /* \"#utility.yul\":4435:4449   */\n      swap1\n      pop\n        /* \"#utility.yul\":4400:4684   */\n      jump(tag_446)\n    tag_448:\n        /* \"#utility.yul\":4404:4418   */\n      pop\n        /* \"#utility.yul\":4700:4703   */\n      dup6\n        /* \"#utility.yul\":4693:4703   */\n      swap4\n      pop\n        /* \"#utility.yul\":4101:4709   */\n      pop\n      pop\n      pop\n        /* \"#utility.yul\":3977:4709   */\n      swap3\n      swap2\n      pop\n      pop\n      jump\t// out\n        /* \"#utility.yul\":4715:5088   */\n    tag_36:\n        /* \"#utility.yul\":4858:4862   */\n      0x00\n        /* \"#utility.yul\":4896:4898   */\n      0x20\n        /* \"#utility.yul\":4885:4894   */\n      dup3\n        /* \"#utility.yul\":4881:4899   */\n      add\n        /* \"#utility.yul\":4873:4899   */\n      swap1\n      pop\n        /* \"#utility.yul\":4945:4954   */\n      dup2\n        /* \"#utility.yul\":4939:4943   */\n      dup2\n        /* \"#utility.yul\":4935:4955   */\n      sub\n        /* \"#utility.yul\":4931:4932   */\n      0x00\n        /* \"#utility.yul\":4920:4929   */\n      dup4\n        /* \"#utility.yul\":4916:4933   */\n      add\n        /* \"#utility.yul\":4909:4956   */\n      mstore\n        /* \"#utility.yul\":4973:5081   */\n      tag_452\n        /* \"#utility.yul\":5076:5080   */\n      dup2\n        /* \"#utility.yul\":5067:5073   */\n      dup5\n        /* \"#utility.yul\":4973:5081   */\n      tag_300\n      jump\t// in\n    tag_452:\n        /* \"#utility.yul\":4965:5081   */\n      swap1\n      pop\n        /* \"#utility.yul\":4715:5088   */\n      swap3\n      swap2\n      pop\n      pop\n      jump\t// out\n        /* \"#utility.yul\":5094:5216   */\n    tag_301:\n        /* \"#utility.yul\":5167:5191   */\n      tag_454\n        /* \"#utility.yul\":5185:5190   */\n      dup2\n        /* \"#utility.yul\":5167:5191   */\n      tag_296\n      jump\t// in\n    tag_454:\n        /* \"#utility.yul\":5160:5165   */\n      dup2\n        /* \"#utility.yul\":5157:5192   */\n      eq\n        /* \"#utility.yul\":5147:5210   */\n      tag_455\n      jumpi\n        /* \"#utility.yul\":5206:5207   */\n      0x00\n        /* \"#utility.yul\":5203:5204   */\n      dup1\n        /* \"#utility.yul\":5196:5208   */\n      revert\n        /* \"#utility.yul\":5147:5210   */\n    tag_455:\n        /* \"#utility.yul\":5094:5216   */\n      pop\n      jump\t// out\n        /* \"#utility.yul\":5222:5361   */\n    tag_302:\n        /* \"#utility.yul\":5268:5273   */\n      0x00\n        /* \"#utility.yul\":5306:5312   */\n      dup2\n        /* \"#utility.yul\":5293:5313   */\n      calldataload\n        /* \"#utility.yul\":5284:5313   */\n      swap1\n      pop\n        /* \"#utility.yul\":5322:5355   */\n      tag_457\n        /* \"#utility.yul\":5349:5354   */\n      dup2\n        /* \"#utility.yul\":5322:5355   */\n      tag_301\n      jump\t// in\n    tag_457:\n        /* \"#utility.yul\":5222:5361   */\n      swap3\n      swap2\n      pop\n      pop\n      jump\t// out\n        /* \"#utility.yul\":5367:5696   */\n    tag_40:\n        /* \"#utility.yul\":5426:5432   */\n      0x00\n        /* \"#utility.yul\":5475:5477   */\n      0x20\n        /* \"#utility.yul\":5463:5472   */\n      dup3\n        /* \"#utility.yul\":5454:5461   */\n      dup5\n        /* \"#utility.yul\":5450:5473   */\n      sub\n        /* \"#utility.yul\":5446:5478   */\n      slt\n        /* \"#utility.yul\":5443:5562   */\n      iszero\n      tag_459\n      jumpi\n        /* \"#utility.yul\":5481:5560   */\n      tag_460\n      tag_283\n      jump\t// in\n    tag_460:\n        /* \"#utility.yul\":5443:5562   */\n    tag_459:\n        /* \"#utility.yul\":5601:5602   */\n      0x00\n        /* \"#utility.yul\":5626:5679   */\n      tag_461\n        /* \"#utility.yul\":5671:5678   */\n      dup5\n        /* \"#utility.yul\":5662:5668   */\n      dup3\n        /* \"#utility.yul\":5651:5660   */\n      dup6\n        /* \"#utility.yul\":5647:5669   */\n      add\n        /* \"#utility.yul\":5626:5679   */\n      tag_302\n      jump\t// in\n    tag_461:\n        /* \"#utility.yul\":5616:5679   */\n      swap2\n      pop\n        /* \"#utility.yul\":5572:5689   */\n      pop\n        /* \"#utility.yul\":5367:5696   */\n      swap3\n      swap2\n      pop\n      pop\n      jump\t// out\n        /* \"#utility.yul\":5702:5810   */\n    tag_303:\n        /* \"#utility.yul\":5779:5803   */\n      tag_463\n        /* \"#utility.yul\":5797:5802   */\n      dup2\n        /* \"#utility.yul\":5779:5803   */\n      tag_285\n      jump\t// in\n    tag_463:\n        /* \"#utility.yul\":5774:5777   */\n      dup3\n        /* \"#utility.yul\":5767:5804   */\n      mstore\n        /* \"#utility.yul\":5702:5810   */\n      pop\n      pop\n      jump\t// out\n        /* \"#utility.yul\":5870:6403   */\n    tag_304:\n        /* \"#utility.yul\":6031:6035   */\n      0x40\n        /* \"#utility.yul\":6026:6029   */\n      dup3\n        /* \"#utility.yul\":6022:6036   */\n      add\n        /* \"#utility.yul\":6125:6129   */\n      0x00\n        /* \"#utility.yul\":6118:6123   */\n      dup3\n        /* \"#utility.yul\":6114:6130   */\n      add\n        /* \"#utility.yul\":6108:6131   */\n      mload\n        /* \"#utility.yul\":6144:6207   */\n      tag_465\n        /* \"#utility.yul\":6201:6205   */\n      0x00\n        /* \"#utility.yul\":6196:6199   */\n      dup6\n        /* \"#utility.yul\":6192:6206   */\n      add\n        /* \"#utility.yul\":6178:6190   */\n      dup3\n        /* \"#utility.yul\":6144:6207   */\n      tag_303\n      jump\t// in\n    tag_465:\n        /* \"#utility.yul\":6046:6217   */\n      pop\n        /* \"#utility.yul\":6304:6308   */\n      0x20\n        /* \"#utility.yul\":6297:6302   */\n      dup3\n        /* \"#utility.yul\":6293:6309   */\n      add\n        /* \"#utility.yul\":6287:6310   */\n      mload\n        /* \"#utility.yul\":6323:6386   */\n      tag_466\n        /* \"#utility.yul\":6380:6384   */\n      0x20\n        /* \"#utility.yul\":6375:6378   */\n      dup6\n        /* \"#utility.yul\":6371:6385   */\n      add\n        /* \"#utility.yul\":6357:6369   */\n      dup3\n        /* \"#utility.yul\":6323:6386   */\n      tag_303\n      jump\t// in\n    tag_466:\n        /* \"#utility.yul\":6227:6396   */\n      pop\n        /* \"#utility.yul\":6000:6403   */\n      pop\n        /* \"#utility.yul\":5870:6403   */\n      pop\n      pop\n      jump\t// out\n        /* \"#utility.yul\":6409:6759   */\n    tag_52:\n        /* \"#utility.yul\":6566:6570   */\n      0x00\n        /* \"#utility.yul\":6604:6606   */\n      0x40\n        /* \"#utility.yul\":6593:6602   */\n      dup3\n        /* \"#utility.yul\":6589:6607   */\n      add\n        /* \"#utility.yul\":6581:6607   */\n      swap1\n      pop\n        /* \"#utility.yul\":6617:6752   */\n      tag_468\n        /* \"#utility.yul\":6749:6750   */\n      0x00\n        /* \"#utility.yul\":6738:6747   */\n      dup4\n        /* \"#utility.yul\":6734:6751   */\n      add\n        /* \"#utility.yul\":6725:6731   */\n      dup5\n        /* \"#utility.yul\":6617:6752   */\n      tag_304\n      jump\t// in\n    tag_468:\n        /* \"#utility.yul\":6409:6759   */\n      swap3\n      swap2\n      pop\n      pop\n      jump\t// out\n        /* \"#utility.yul\":6765:6864   */\n    tag_305:\n        /* \"#utility.yul\":6817:6823   */\n      0x00\n        /* \"#utility.yul\":6851:6856   */\n      dup2\n        /* \"#utility.yul\":6845:6857   */\n      mload\n        /* \"#utility.yul\":6835:6857   */\n      swap1\n      pop\n        /* \"#utility.yul\":6765:6864   */\n      swap2\n      swap1\n      pop\n      jump\t// out\n        /* \"#utility.yul\":6870:7029   */\n    tag_306:\n        /* \"#utility.yul\":6944:6955   */\n      0x00\n        /* \"#utility.yul\":6978:6984   */\n      dup3\n        /* \"#utility.yul\":6973:6976   */\n      dup3\n        /* \"#utility.yul\":6966:6985   */\n      mstore\n        /* \"#utility.yul\":7018:7022   */\n      0x20\n        /* \"#utility.yul\":7013:7016   */\n      dup3\n        /* \"#utility.yul\":7009:7023   */\n      add\n        /* \"#utility.yul\":6994:7023   */\n      swap1\n      pop\n        /* \"#utility.yul\":6870:7029   */\n      swap3\n      swap2\n      pop\n      pop\n      jump\t// out\n        /* \"#utility.yul\":7035:7174   */\n    tag_307:\n        /* \"#utility.yul\":7124:7130   */\n      dup3\n        /* \"#utility.yul\":7119:7122   */\n      dup2\n        /* \"#utility.yul\":7114:7117   */\n      dup4\n        /* \"#utility.yul\":7108:7131   */\n      mcopy\n        /* \"#utility.yul\":7165:7166   */\n      0x00\n        /* \"#utility.yul\":7156:7162   */\n      dup4\n        /* \"#utility.yul\":7151:7154   */\n      dup4\n        /* \"#utility.yul\":7147:7163   */\n      add\n        /* \"#utility.yul\":7140:7167   */\n      mstore\n        /* \"#utility.yul\":7035:7174   */\n      pop\n      pop\n      pop\n      jump\t// out\n        /* \"#utility.yul\":7180:7282   */\n    tag_308:\n        /* \"#utility.yul\":7221:7227   */\n      0x00\n        /* \"#utility.yul\":7272:7274   */\n      0x1f\n        /* \"#utility.yul\":7268:7275   */\n      not\n        /* \"#utility.yul\":7263:7265   */\n      0x1f\n        /* \"#utility.yul\":7256:7261   */\n      dup4\n        /* \"#utility.yul\":7252:7266   */\n      add\n        /* \"#utility.yul\":7248:7276   */\n      and\n        /* \"#utility.yul\":7238:7276   */\n      swap1\n      pop\n        /* \"#utility.yul\":7180:7282   */\n      swap2\n      swap1\n      pop\n      jump\t// out\n        /* \"#utility.yul\":7288:7645   */\n    tag_309:\n        /* \"#utility.yul\":7366:7369   */\n      0x00\n        /* \"#utility.yul\":7394:7433   */\n      tag_474\n        /* \"#utility.yul\":7427:7432   */\n      dup3\n        /* \"#utility.yul\":7394:7433   */\n      tag_305\n      jump\t// in\n    tag_474:\n        /* \"#utility.yul\":7449:7510   */\n      tag_475\n        /* \"#utility.yul\":7503:7509   */\n      dup2\n        /* \"#utility.yul\":7498:7501   */\n      dup6\n        /* \"#utility.yul\":7449:7510   */\n      tag_306\n      jump\t// in\n    tag_475:\n        /* \"#utility.yul\":7442:7510   */\n      swap4\n      pop\n        /* \"#utility.yul\":7519:7584   */\n      tag_476\n        /* \"#utility.yul\":7577:7583   */\n      dup2\n        /* \"#utility.yul\":7572:7575   */\n      dup6\n        /* \"#utility.yul\":7565:7569   */\n      0x20\n        /* \"#utility.yul\":7558:7563   */\n      dup7\n        /* \"#utility.yul\":7554:7570   */\n      add\n        /* \"#utility.yul\":7519:7584   */\n      tag_307\n      jump\t// in\n    tag_476:\n        /* \"#utility.yul\":7609:7638   */\n      tag_477\n        /* \"#utility.yul\":7631:7637   */\n      dup2\n        /* \"#utility.yul\":7609:7638   */\n      tag_308\n      jump\t// in\n    tag_477:\n        /* \"#utility.yul\":7604:7607   */\n      dup5\n        /* \"#utility.yul\":7600:7639   */\n      add\n        /* \"#utility.yul\":7593:7639   */\n      swap2\n      pop\n        /* \"#utility.yul\":7370:7645   */\n      pop\n        /* \"#utility.yul\":7288:7645   */\n      swap3\n      swap2\n      pop\n      pop\n      jump\t// out\n        /* \"#utility.yul\":7651:7728   */\n    tag_310:\n        /* \"#utility.yul\":7688:7695   */\n      0x00\n        /* \"#utility.yul\":7717:7722   */\n      dup2\n        /* \"#utility.yul\":7706:7722   */\n      swap1\n      pop\n        /* \"#utility.yul\":7651:7728   */\n      swap2\n      swap1\n      pop\n      jump\t// out\n        /* \"#utility.yul\":7734:7842   */\n    tag_311:\n        /* \"#utility.yul\":7811:7835   */\n      tag_480\n        /* \"#utility.yul\":7829:7834   */\n      dup2\n        /* \"#utility.yul\":7811:7835   */\n      tag_310\n      jump\t// in\n    tag_480:\n        /* \"#utility.yul\":7806:7809   */\n      dup3\n        /* \"#utility.yul\":7799:7836   */\n      mstore\n        /* \"#utility.yul\":7734:7842   */\n      pop\n      pop\n      jump\t// out\n        /* \"#utility.yul\":7890:9449   */\n    tag_312:\n        /* \"#utility.yul\":8011:8014   */\n      0x00\n        /* \"#utility.yul\":8047:8051   */\n      0xe0\n        /* \"#utility.yul\":8042:8045   */\n      dup4\n        /* \"#utility.yul\":8038:8052   */\n      add\n        /* \"#utility.yul\":8135:8139   */\n      0x00\n        /* \"#utility.yul\":8128:8133   */\n      dup4\n        /* \"#utility.yul\":8124:8140   */\n      add\n        /* \"#utility.yul\":8118:8141   */\n      mload\n        /* \"#utility.yul\":8154:8217   */\n      tag_482\n        /* \"#utility.yul\":8211:8215   */\n      0x00\n        /* \"#utility.yul\":8206:8209   */\n      dup7\n        /* \"#utility.yul\":8202:8216   */\n      add\n        /* \"#utility.yul\":8188:8200   */\n      dup3\n        /* \"#utility.yul\":8154:8217   */\n      tag_297\n      jump\t// in\n    tag_482:\n        /* \"#utility.yul\":8062:8227   */\n      pop\n        /* \"#utility.yul\":8309:8313   */\n      0x20\n        /* \"#utility.yul\":8302:8307   */\n      dup4\n        /* \"#utility.yul\":8298:8314   */\n      add\n        /* \"#utility.yul\":8292:8315   */\n      mload\n        /* \"#utility.yul\":8362:8365   */\n      dup5\n        /* \"#utility.yul\":8356:8360   */\n      dup3\n        /* \"#utility.yul\":8352:8366   */\n      sub\n        /* \"#utility.yul\":8345:8349   */\n      0x20\n        /* \"#utility.yul\":8340:8343   */\n      dup7\n        /* \"#utility.yul\":8336:8350   */\n      add\n        /* \"#utility.yul\":8329:8367   */\n      mstore\n        /* \"#utility.yul\":8388:8461   */\n      tag_483\n        /* \"#utility.yul\":8456:8460   */\n      dup3\n        /* \"#utility.yul\":8442:8454   */\n      dup3\n        /* \"#utility.yul\":8388:8461   */\n      tag_309\n      jump\t// in\n    tag_483:\n        /* \"#utility.yul\":8380:8461   */\n      swap2\n      pop\n        /* \"#utility.yul\":8237:8472   */\n      pop\n        /* \"#utility.yul\":8553:8557   */\n      0x40\n        /* \"#utility.yul\":8546:8551   */\n      dup4\n        /* \"#utility.yul\":8542:8558   */\n      add\n        /* \"#utility.yul\":8536:8559   */\n      mload\n        /* \"#utility.yul\":8606:8609   */\n      dup5\n        /* \"#utility.yul\":8600:8604   */\n      dup3\n        /* \"#utility.yul\":8596:8610   */\n      sub\n        /* \"#utility.yul\":8589:8593   */\n      0x40\n        /* \"#utility.yul\":8584:8587   */\n      dup7\n        /* \"#utility.yul\":8580:8594   */\n      add\n        /* \"#utility.yul\":8573:8611   */\n      mstore\n        /* \"#utility.yul\":8632:8705   */\n      tag_484\n        /* \"#utility.yul\":8700:8704   */\n      dup3\n        /* \"#utility.yul\":8686:8698   */\n      dup3\n        /* \"#utility.yul\":8632:8705   */\n      tag_309\n      jump\t// in\n    tag_484:\n        /* \"#utility.yul\":8624:8705   */\n      swap2\n      pop\n        /* \"#utility.yul\":8482:8716   */\n      pop\n        /* \"#utility.yul\":8803:8807   */\n      0x60\n        /* \"#utility.yul\":8796:8801   */\n      dup4\n        /* \"#utility.yul\":8792:8808   */\n      add\n        /* \"#utility.yul\":8786:8809   */\n      mload\n        /* \"#utility.yul\":8822:8885   */\n      tag_485\n        /* \"#utility.yul\":8879:8883   */\n      0x60\n        /* \"#utility.yul\":8874:8877   */\n      dup7\n        /* \"#utility.yul\":8870:8884   */\n      add\n        /* \"#utility.yul\":8856:8868   */\n      dup3\n        /* \"#utility.yul\":8822:8885   */\n      tag_303\n      jump\t// in\n    tag_485:\n        /* \"#utility.yul\":8726:8895   */\n      pop\n        /* \"#utility.yul\":8978:8982   */\n      0x80\n        /* \"#utility.yul\":8971:8976   */\n      dup4\n        /* \"#utility.yul\":8967:8983   */\n      add\n        /* \"#utility.yul\":8961:8984   */\n      mload\n        /* \"#utility.yul\":8997:9060   */\n      tag_486\n        /* \"#utility.yul\":9054:9058   */\n      0x80\n        /* \"#utility.yul\":9049:9052   */\n      dup7\n        /* \"#utility.yul\":9045:9059   */\n      add\n        /* \"#utility.yul\":9031:9043   */\n      dup3\n        /* \"#utility.yul\":8997:9060   */\n      tag_303\n      jump\t// in\n    tag_486:\n        /* \"#utility.yul\":8905:9070   */\n      pop\n        /* \"#utility.yul\":9150:9154   */\n      0xa0\n        /* \"#utility.yul\":9143:9148   */\n      dup4\n        /* \"#utility.yul\":9139:9155   */\n      add\n        /* \"#utility.yul\":9133:9156   */\n      mload\n        /* \"#utility.yul\":9169:9232   */\n      tag_487\n        /* \"#utility.yul\":9226:9230   */\n      0xa0\n        /* \"#utility.yul\":9221:9224   */\n      dup7\n        /* \"#utility.yul\":9217:9231   */\n      add\n        /* \"#utility.yul\":9203:9215   */\n      dup3\n        /* \"#utility.yul\":9169:9232   */\n      tag_303\n      jump\t// in\n    tag_487:\n        /* \"#utility.yul\":9080:9242   */\n      pop\n        /* \"#utility.yul\":9330:9334   */\n      0xc0\n        /* \"#utility.yul\":9323:9328   */\n      dup4\n        /* \"#utility.yul\":9319:9335   */\n      add\n        /* \"#utility.yul\":9313:9336   */\n      mload\n        /* \"#utility.yul\":9349:9412   */\n      tag_488\n        /* \"#utility.yul\":9406:9410   */\n      0xc0\n        /* \"#utility.yul\":9401:9404   */\n      dup7\n        /* \"#utility.yul\":9397:9411   */\n      add\n        /* \"#utility.yul\":9383:9395   */\n      dup3\n        /* \"#utility.yul\":9349:9412   */\n      tag_311\n      jump\t// in\n    tag_488:\n        /* \"#utility.yul\":9252:9422   */\n      pop\n        /* \"#utility.yul\":9439:9443   */\n      dup1\n        /* \"#utility.yul\":9432:9443   */\n      swap2\n      pop\n        /* \"#utility.yul\":8016:9449   */\n      pop\n        /* \"#utility.yul\":7890:9449   */\n      swap3\n      swap2\n      pop\n      pop\n      jump\t// out\n        /* \"#utility.yul\":9455:9832   */\n    tag_64:\n        /* \"#utility.yul\":9600:9604   */\n      0x00\n        /* \"#utility.yul\":9638:9640   */\n      0x20\n        /* \"#utility.yul\":9627:9636   */\n      dup3\n        /* \"#utility.yul\":9623:9641   */\n      add\n        /* \"#utility.yul\":9615:9641   */\n      swap1\n      pop\n        /* \"#utility.yul\":9687:9696   */\n      dup2\n        /* \"#utility.yul\":9681:9685   */\n      dup2\n        /* \"#utility.yul\":9677:9697   */\n      sub\n        /* \"#utility.yul\":9673:9674   */\n      0x00\n        /* \"#utility.yul\":9662:9671   */\n      dup4\n        /* \"#utility.yul\":9658:9675   */\n      add\n        /* \"#utility.yul\":9651:9698   */\n      mstore\n        /* \"#utility.yul\":9715:9825   */\n      tag_490\n        /* \"#utility.yul\":9820:9824   */\n      dup2\n        /* \"#utility.yul\":9811:9817   */\n      dup5\n        /* \"#utility.yul\":9715:9825   */\n      tag_312\n      jump\t// in\n    tag_490:\n        /* \"#utility.yul\":9707:9825   */\n      swap1\n      pop\n        /* \"#utility.yul\":9455:9832   */\n      swap3\n      swap2\n      pop\n      pop\n      jump\t// out\n        /* \"#utility.yul\":9838:9956   */\n    tag_313:\n        /* \"#utility.yul\":9925:9949   */\n      tag_492\n        /* \"#utility.yul\":9943:9948   */\n      dup2\n        /* \"#utility.yul\":9925:9949   */\n      tag_296\n      jump\t// in\n    tag_492:\n        /* \"#utility.yul\":9920:9923   */\n      dup3\n        /* \"#utility.yul\":9913:9950   */\n      mstore\n        /* \"#utility.yul\":9838:9956   */\n      pop\n      pop\n      jump\t// out\n        /* \"#utility.yul\":9962:10184   */\n    tag_69:\n        /* \"#utility.yul\":10055:10059   */\n      0x00\n        /* \"#utility.yul\":10093:10095   */\n      0x20\n        /* \"#utility.yul\":10082:10091   */\n      dup3\n        /* \"#utility.yul\":10078:10096   */\n      add\n        /* \"#utility.yul\":10070:10096   */\n      swap1\n      pop\n        /* \"#utility.yul\":10106:10177   */\n      tag_494\n        /* \"#utility.yul\":10174:10175   */\n      0x00\n        /* \"#utility.yul\":10163:10172   */\n      dup4\n        /* \"#utility.yul\":10159:10176   */\n      add\n        /* \"#utility.yul\":10150:10156   */\n      dup5\n        /* \"#utility.yul\":10106:10177   */\n      tag_313\n      jump\t// in\n    tag_494:\n        /* \"#utility.yul\":9962:10184   */\n      swap3\n      swap2\n      pop\n      pop\n      jump\t// out\n        /* \"#utility.yul\":10190:10308   */\n    tag_314:\n        /* \"#utility.yul\":10277:10301   */\n      tag_496\n        /* \"#utility.yul\":10295:10300   */\n      dup2\n        /* \"#utility.yul\":10277:10301   */\n      tag_285\n      jump\t// in\n    tag_496:\n        /* \"#utility.yul\":10272:10275   */\n      dup3\n        /* \"#utility.yul\":10265:10302   */\n      mstore\n        /* \"#utility.yul\":10190:10308   */\n      pop\n      pop\n      jump\t// out\n        /* \"#utility.yul\":10314:10536   */\n    tag_74:\n        /* \"#utility.yul\":10407:10411   */\n      0x00\n        /* \"#utility.yul\":10445:10447   */\n      0x20\n        /* \"#utility.yul\":10434:10443   */\n      dup3\n        /* \"#utility.yul\":10430:10448   */\n      add\n        /* \"#utility.yul\":10422:10448   */\n      swap1\n      pop\n        /* \"#utility.yul\":10458:10529   */\n      tag_498\n        /* \"#utility.yul\":10526:10527   */\n      0x00\n        /* \"#utility.yul\":10515:10524   */\n      dup4\n        /* \"#utility.yul\":10511:10528   */\n      add\n        /* \"#utility.yul\":10502:10508   */\n      dup5\n        /* \"#utility.yul\":10458:10529   */\n      tag_314\n      jump\t// in\n    tag_498:\n        /* \"#utility.yul\":10314:10536   */\n      swap3\n      swap2\n      pop\n      pop\n      jump\t// out\n        /* \"#utility.yul\":10542:10711   */\n    tag_315:\n        /* \"#utility.yul\":10626:10637   */\n      0x00\n        /* \"#utility.yul\":10660:10666   */\n      dup3\n        /* \"#utility.yul\":10655:10658   */\n      dup3\n        /* \"#utility.yul\":10648:10667   */\n      mstore\n        /* \"#utility.yul\":10700:10704   */\n      0x20\n        /* \"#utility.yul\":10695:10698   */\n      dup3\n        /* \"#utility.yul\":10691:10705   */\n      add\n        /* \"#utility.yul\":10676:10705   */\n      swap1\n      pop\n        /* \"#utility.yul\":10542:10711   */\n      swap3\n      swap2\n      pop\n      pop\n      jump\t// out\n        /* \"#utility.yul\":10717:11094   */\n    tag_316:\n        /* \"#utility.yul\":10805:10808   */\n      0x00\n        /* \"#utility.yul\":10833:10872   */\n      tag_501\n        /* \"#utility.yul\":10866:10871   */\n      dup3\n        /* \"#utility.yul\":10833:10872   */\n      tag_305\n      jump\t// in\n    tag_501:\n        /* \"#utility.yul\":10888:10959   */\n      tag_502\n        /* \"#utility.yul\":10952:10958   */\n      dup2\n        /* \"#utility.yul\":10947:10950   */\n      dup6\n        /* \"#utility.yul\":10888:10959   */\n      tag_315\n      jump\t// in\n    tag_502:\n        /* \"#utility.yul\":10881:10959   */\n      swap4\n      pop\n        /* \"#utility.yul\":10968:11033   */\n      tag_503\n        /* \"#utility.yul\":11026:11032   */\n      dup2\n        /* \"#utility.yul\":11021:11024   */\n      dup6\n        /* \"#utility.yul\":11014:11018   */\n      0x20\n        /* \"#utility.yul\":11007:11012   */\n      dup7\n        /* \"#utility.yul\":11003:11019   */\n      add\n        /* \"#utility.yul\":10968:11033   */\n      tag_307\n      jump\t// in\n    tag_503:\n        /* \"#utility.yul\":11058:11087   */\n      tag_504\n        /* \"#utility.yul\":11080:11086   */\n      dup2\n        /* \"#utility.yul\":11058:11087   */\n      tag_308\n      jump\t// in\n    tag_504:\n        /* \"#utility.yul\":11053:11056   */\n      dup5\n        /* \"#utility.yul\":11049:11088   */\n      add\n        /* \"#utility.yul\":11042:11088   */\n      swap2\n      pop\n        /* \"#utility.yul\":10809:11094   */\n      pop\n        /* \"#utility.yul\":10717:11094   */\n      swap3\n      swap2\n      pop\n      pop\n      jump\t// out\n        /* \"#utility.yul\":11100:11218   */\n    tag_317:\n        /* \"#utility.yul\":11187:11211   */\n      tag_506\n        /* \"#utility.yul\":11205:11210   */\n      dup2\n        /* \"#utility.yul\":11187:11211   */\n      tag_310\n      jump\t// in\n    tag_506:\n        /* \"#utility.yul\":11182:11185   */\n      dup3\n        /* \"#utility.yul\":11175:11212   */\n      mstore\n        /* \"#utility.yul\":11100:11218   */\n      pop\n      pop\n      jump\t// out\n        /* \"#utility.yul\":11224:12292   */\n    tag_79:\n        /* \"#utility.yul\":11525:11529   */\n      0x00\n        /* \"#utility.yul\":11563:11566   */\n      0xe0\n        /* \"#utility.yul\":11552:11561   */\n      dup3\n        /* \"#utility.yul\":11548:11567   */\n      add\n        /* \"#utility.yul\":11540:11567   */\n      swap1\n      pop\n        /* \"#utility.yul\":11577:11648   */\n      tag_508\n        /* \"#utility.yul\":11645:11646   */\n      0x00\n        /* \"#utility.yul\":11634:11643   */\n      dup4\n        /* \"#utility.yul\":11630:11647   */\n      add\n        /* \"#utility.yul\":11621:11627   */\n      dup11\n        /* \"#utility.yul\":11577:11648   */\n      tag_313\n      jump\t// in\n    tag_508:\n        /* \"#utility.yul\":11695:11704   */\n      dup2\n        /* \"#utility.yul\":11689:11693   */\n      dup2\n        /* \"#utility.yul\":11685:11705   */\n      sub\n        /* \"#utility.yul\":11680:11682   */\n      0x20\n        /* \"#utility.yul\":11669:11678   */\n      dup4\n        /* \"#utility.yul\":11665:11683   */\n      add\n        /* \"#utility.yul\":11658:11706   */\n      mstore\n        /* \"#utility.yul\":11723:11801   */\n      tag_509\n        /* \"#utility.yul\":11796:11800   */\n      dup2\n        /* \"#utility.yul\":11787:11793   */\n      dup10\n        /* \"#utility.yul\":11723:11801   */\n      tag_316\n      jump\t// in\n    tag_509:\n        /* \"#utility.yul\":11715:11801   */\n      swap1\n      pop\n        /* \"#utility.yul\":11848:11857   */\n      dup2\n        /* \"#utility.yul\":11842:11846   */\n      dup2\n        /* \"#utility.yul\":11838:11858   */\n      sub\n        /* \"#utility.yul\":11833:11835   */\n      0x40\n        /* \"#utility.yul\":11822:11831   */\n      dup4\n        /* \"#utility.yul\":11818:11836   */\n      add\n        /* \"#utility.yul\":11811:11859   */\n      mstore\n        /* \"#utility.yul\":11876:11954   */\n      tag_510\n        /* \"#utility.yul\":11949:11953   */\n      dup2\n        /* \"#utility.yul\":11940:11946   */\n      dup9\n        /* \"#utility.yul\":11876:11954   */\n      tag_316\n      jump\t// in\n    tag_510:\n        /* \"#utility.yul\":11868:11954   */\n      swap1\n      pop\n        /* \"#utility.yul\":11964:12036   */\n      tag_511\n        /* \"#utility.yul\":12032:12034   */\n      0x60\n        /* \"#utility.yul\":12021:12030   */\n      dup4\n        /* \"#utility.yul\":12017:12035   */\n      add\n        /* \"#utility.yul\":12008:12014   */\n      dup8\n        /* \"#utility.yul\":11964:12036   */\n      tag_314\n      jump\t// in\n    tag_511:\n        /* \"#utility.yul\":12046:12119   */\n      tag_512\n        /* \"#utility.yul\":12114:12117   */\n      0x80\n        /* \"#utility.yul\":12103:12112   */\n      dup4\n        /* \"#utility.yul\":12099:12118   */\n      add\n        /* \"#utility.yul\":12090:12096   */\n      dup7\n        /* \"#utility.yul\":12046:12119   */\n      tag_314\n      jump\t// in\n    tag_512:\n        /* \"#utility.yul\":12129:12202   */\n      tag_513\n        /* \"#utility.yul\":12197:12200   */\n      0xa0\n        /* \"#utility.yul\":12186:12195   */\n      dup4\n        /* \"#utility.yul\":12182:12201   */\n      add\n        /* \"#utility.yul\":12173:12179   */\n      dup6\n        /* \"#utility.yul\":12129:12202   */\n      tag_314\n      jump\t// in\n    tag_513:\n        /* \"#utility.yul\":12212:12285   */\n      tag_514\n        /* \"#utility.yul\":12280:12283   */\n      0xc0\n        /* \"#utility.yul\":12269:12278   */\n      dup4\n        /* \"#utility.yul\":12265:12284   */\n      add\n        /* \"#utility.yul\":12256:12262   */\n      dup5\n        /* \"#utility.yul\":12212:12285   */\n      tag_317\n      jump\t// in\n    tag_514:\n        /* \"#utility.yul\":11224:12292   */\n      swap9\n      swap8\n      pop\n      pop\n      pop\n      pop\n      pop\n      pop\n      pop\n      pop\n      jump\t// out\n        /* \"#utility.yul\":12298:12438   */\n    tag_318:\n        /* \"#utility.yul\":12391:12397   */\n      0x00\n        /* \"#utility.yul\":12425:12430   */\n      dup2\n        /* \"#utility.yul\":12419:12431   */\n      mload\n        /* \"#utility.yul\":12409:12431   */\n      swap1\n      pop\n        /* \"#utility.yul\":12298:12438   */\n      swap2\n      swap1\n      pop\n      jump\t// out\n        /* \"#utility.yul\":12444:12654   */\n    tag_319:\n        /* \"#utility.yul\":12569:12580   */\n      0x00\n        /* \"#utility.yul\":12603:12609   */\n      dup3\n        /* \"#utility.yul\":12598:12601   */\n      dup3\n        /* \"#utility.yul\":12591:12610   */\n      mstore\n        /* \"#utility.yul\":12643:12647   */\n      0x20\n        /* \"#utility.yul\":12638:12641   */\n      dup3\n        /* \"#utility.yul\":12634:12648   */\n      add\n        /* \"#utility.yul\":12619:12648   */\n      swap1\n      pop\n        /* \"#utility.yul\":12444:12654   */\n      swap3\n      swap2\n      pop\n      pop\n      jump\t// out\n        /* \"#utility.yul\":12660:12818   */\n    tag_320:\n        /* \"#utility.yul\":12753:12757   */\n      0x00\n        /* \"#utility.yul\":12776:12779   */\n      dup2\n        /* \"#utility.yul\":12768:12779   */\n      swap1\n      pop\n        /* \"#utility.yul\":12806:12810   */\n      0x20\n        /* \"#utility.yul\":12801:12804   */\n      dup3\n        /* \"#utility.yul\":12797:12811   */\n      add\n        /* \"#utility.yul\":12789:12811   */\n      swap1\n      pop\n        /* \"#utility.yul\":12660:12818   */\n      swap2\n      swap1\n      pop\n      jump\t// out\n        /* \"#utility.yul\":12866:14415   */\n    tag_321:\n        /* \"#utility.yul\":12977:12980   */\n      0x00\n        /* \"#utility.yul\":13013:13017   */\n      0xe0\n        /* \"#utility.yul\":13008:13011   */\n      dup4\n        /* \"#utility.yul\":13004:13018   */\n      add\n        /* \"#utility.yul\":13101:13105   */\n      0x00\n        /* \"#utility.yul\":13094:13099   */\n      dup4\n        /* \"#utility.yul\":13090:13106   */\n      add\n        /* \"#utility.yul\":13084:13107   */\n      mload\n        /* \"#utility.yul\":13120:13183   */\n      tag_519\n        /* \"#utility.yul\":13177:13181   */\n      0x00\n        /* \"#utility.yul\":13172:13175   */\n      dup7\n        /* \"#utility.yul\":13168:13182   */\n      add\n        /* \"#utility.yul\":13154:13166   */\n      dup3\n        /* \"#utility.yul\":13120:13183   */\n      tag_297\n      jump\t// in\n    tag_519:\n        /* \"#utility.yul\":13028:13193   */\n      pop\n        /* \"#utility.yul\":13275:13279   */\n      0x20\n        /* \"#utility.yul\":13268:13273   */\n      dup4\n        /* \"#utility.yul\":13264:13280   */\n      add\n        /* \"#utility.yul\":13258:13281   */\n      mload\n        /* \"#utility.yul\":13328:13331   */\n      dup5\n        /* \"#utility.yul\":13322:13326   */\n      dup3\n        /* \"#utility.yul\":13318:13332   */\n      sub\n        /* \"#utility.yul\":13311:13315   */\n      0x20\n        /* \"#utility.yul\":13306:13309   */\n      dup7\n        /* \"#utility.yul\":13302:13316   */\n      add\n        /* \"#utility.yul\":13295:13333   */\n      mstore\n        /* \"#utility.yul\":13354:13427   */\n      tag_520\n        /* \"#utility.yul\":13422:13426   */\n      dup3\n        /* \"#utility.yul\":13408:13420   */\n      dup3\n        /* \"#utility.yul\":13354:13427   */\n      tag_309\n      jump\t// in\n    tag_520:\n        /* \"#utility.yul\":13346:13427   */\n      swap2\n      pop\n        /* \"#utility.yul\":13203:13438   */\n      pop\n        /* \"#utility.yul\":13519:13523   */\n      0x40\n        /* \"#utility.yul\":13512:13517   */\n      dup4\n        /* \"#utility.yul\":13508:13524   */\n      add\n        /* \"#utility.yul\":13502:13525   */\n      mload\n        /* \"#utility.yul\":13572:13575   */\n      dup5\n        /* \"#utility.yul\":13566:13570   */\n      dup3\n        /* \"#utility.yul\":13562:13576   */\n      sub\n        /* \"#utility.yul\":13555:13559   */\n      0x40\n        /* \"#utility.yul\":13550:13553   */\n      dup7\n        /* \"#utility.yul\":13546:13560   */\n      add\n        /* \"#utility.yul\":13539:13577   */\n      mstore\n        /* \"#utility.yul\":13598:13671   */\n      tag_521\n        /* \"#utility.yul\":13666:13670   */\n      dup3\n        /* \"#utility.yul\":13652:13664   */\n      dup3\n        /* \"#utility.yul\":13598:13671   */\n      tag_309\n      jump\t// in\n    tag_521:\n        /* \"#utility.yul\":13590:13671   */\n      swap2\n      pop\n        /* \"#utility.yul\":13448:13682   */\n      pop\n        /* \"#utility.yul\":13769:13773   */\n      0x60\n        /* \"#utility.yul\":13762:13767   */\n      dup4\n        /* \"#utility.yul\":13758:13774   */\n      add\n        /* \"#utility.yul\":13752:13775   */\n      mload\n        /* \"#utility.yul\":13788:13851   */\n      tag_522\n        /* \"#utility.yul\":13845:13849   */\n      0x60\n        /* \"#utility.yul\":13840:13843   */\n      dup7\n        /* \"#utility.yul\":13836:13850   */\n      add\n        /* \"#utility.yul\":13822:13834   */\n      dup3\n        /* \"#utility.yul\":13788:13851   */\n      tag_303\n      jump\t// in\n    tag_522:\n        /* \"#utility.yul\":13692:13861   */\n      pop\n        /* \"#utility.yul\":13944:13948   */\n      0x80\n        /* \"#utility.yul\":13937:13942   */\n      dup4\n        /* \"#utility.yul\":13933:13949   */\n      add\n        /* \"#utility.yul\":13927:13950   */\n      mload\n        /* \"#utility.yul\":13963:14026   */\n      tag_523\n        /* \"#utility.yul\":14020:14024   */\n      0x80\n        /* \"#utility.yul\":14015:14018   */\n      dup7\n        /* \"#utility.yul\":14011:14025   */\n      add\n        /* \"#utility.yul\":13997:14009   */\n      dup3\n        /* \"#utility.yul\":13963:14026   */\n      tag_303\n      jump\t// in\n    tag_523:\n        /* \"#utility.yul\":13871:14036   */\n      pop\n        /* \"#utility.yul\":14116:14120   */\n      0xa0\n        /* \"#utility.yul\":14109:14114   */\n      dup4\n        /* \"#utility.yul\":14105:14121   */\n      add\n        /* \"#utility.yul\":14099:14122   */\n      mload\n        /* \"#utility.yul\":14135:14198   */\n      tag_524\n        /* \"#utility.yul\":14192:14196   */\n      0xa0\n        /* \"#utility.yul\":14187:14190   */\n      dup7\n        /* \"#utility.yul\":14183:14197   */\n      add\n        /* \"#utility.yul\":14169:14181   */\n      dup3\n        /* \"#utility.yul\":14135:14198   */\n      tag_303\n      jump\t// in\n    tag_524:\n        /* \"#utility.yul\":14046:14208   */\n      pop\n        /* \"#utility.yul\":14296:14300   */\n      0xc0\n        /* \"#utility.yul\":14289:14294   */\n      dup4\n        /* \"#utility.yul\":14285:14301   */\n      add\n        /* \"#utility.yul\":14279:14302   */\n      mload\n        /* \"#utility.yul\":14315:14378   */\n      tag_525\n        /* \"#utility.yul\":14372:14376   */\n      0xc0\n        /* \"#utility.yul\":14367:14370   */\n      dup7\n        /* \"#utility.yul\":14363:14377   */\n      add\n        /* \"#utility.yul\":14349:14361   */\n      dup3\n        /* \"#utility.yul\":14315:14378   */\n      tag_311\n      jump\t// in\n    tag_525:\n        /* \"#utility.yul\":14218:14388   */\n      pop\n        /* \"#utility.yul\":14405:14409   */\n      dup1\n        /* \"#utility.yul\":14398:14409   */\n      swap2\n      pop\n        /* \"#utility.yul\":12982:14415   */\n      pop\n        /* \"#utility.yul\":12866:14415   */\n      swap3\n      swap2\n      pop\n      pop\n      jump\t// out\n        /* \"#utility.yul\":14421:14681   */\n    tag_322:\n        /* \"#utility.yul\":14542:14552   */\n      0x00\n        /* \"#utility.yul\":14577:14675   */\n      tag_527\n        /* \"#utility.yul\":14671:14674   */\n      dup4\n        /* \"#utility.yul\":14663:14669   */\n      dup4\n        /* \"#utility.yul\":14577:14675   */\n      tag_321\n      jump\t// in\n    tag_527:\n        /* \"#utility.yul\":14563:14675   */\n      swap1\n      pop\n        /* \"#utility.yul\":14421:14681   */\n      swap3\n      swap2\n      pop\n      pop\n      jump\t// out\n        /* \"#utility.yul\":14687:14826   */\n    tag_323:\n        /* \"#utility.yul\":14783:14787   */\n      0x00\n        /* \"#utility.yul\":14815:14819   */\n      0x20\n        /* \"#utility.yul\":14810:14813   */\n      dup3\n        /* \"#utility.yul\":14806:14820   */\n      add\n        /* \"#utility.yul\":14798:14820   */\n      swap1\n      pop\n        /* \"#utility.yul\":14687:14826   */\n      swap2\n      swap1\n      pop\n      jump\t// out\n        /* \"#utility.yul\":14878:15997   */\n    tag_324:\n        /* \"#utility.yul\":15049:15052   */\n      0x00\n        /* \"#utility.yul\":15078:15158   */\n      tag_530\n        /* \"#utility.yul\":15152:15157   */\n      dup3\n        /* \"#utility.yul\":15078:15158   */\n      tag_318\n      jump\t// in\n    tag_530:\n        /* \"#utility.yul\":15174:15286   */\n      tag_531\n        /* \"#utility.yul\":15279:15285   */\n      dup2\n        /* \"#utility.yul\":15274:15277   */\n      dup6\n        /* \"#utility.yul\":15174:15286   */\n      tag_319\n      jump\t// in\n    tag_531:\n        /* \"#utility.yul\":15167:15286   */\n      swap4\n      pop\n        /* \"#utility.yul\":15312:15315   */\n      dup4\n        /* \"#utility.yul\":15357:15361   */\n      0x20\n        /* \"#utility.yul\":15349:15355   */\n      dup3\n        /* \"#utility.yul\":15345:15362   */\n      mul\n        /* \"#utility.yul\":15340:15343   */\n      dup6\n        /* \"#utility.yul\":15336:15363   */\n      add\n        /* \"#utility.yul\":15387:15469   */\n      tag_532\n        /* \"#utility.yul\":15463:15468   */\n      dup6\n        /* \"#utility.yul\":15387:15469   */\n      tag_320\n      jump\t// in\n    tag_532:\n        /* \"#utility.yul\":15492:15499   */\n      dup1\n        /* \"#utility.yul\":15523:15524   */\n      0x00\n        /* \"#utility.yul\":15508:15952   */\n    tag_533:\n        /* \"#utility.yul\":15533:15539   */\n      dup6\n        /* \"#utility.yul\":15530:15531   */\n      dup2\n        /* \"#utility.yul\":15527:15540   */\n      lt\n        /* \"#utility.yul\":15508:15952   */\n      iszero\n      tag_535\n      jumpi\n        /* \"#utility.yul\":15604:15613   */\n      dup5\n        /* \"#utility.yul\":15598:15602   */\n      dup5\n        /* \"#utility.yul\":15594:15614   */\n      sub\n        /* \"#utility.yul\":15589:15592   */\n      dup10\n        /* \"#utility.yul\":15582:15615   */\n      mstore\n        /* \"#utility.yul\":15655:15661   */\n      dup2\n        /* \"#utility.yul\":15649:15662   */\n      mload\n        /* \"#utility.yul\":15683:15799   */\n      tag_536\n        /* \"#utility.yul\":15794:15798   */\n      dup6\n        /* \"#utility.yul\":15779:15792   */\n      dup3\n        /* \"#utility.yul\":15683:15799   */\n      tag_322\n      jump\t// in\n    tag_536:\n        /* \"#utility.yul\":15675:15799   */\n      swap5\n      pop\n        /* \"#utility.yul\":15822:15908   */\n      tag_537\n        /* \"#utility.yul\":15901:15907   */\n      dup4\n        /* \"#utility.yul\":15822:15908   */\n      tag_323\n      jump\t// in\n    tag_537:\n        /* \"#utility.yul\":15812:15908   */\n      swap3\n      pop\n        /* \"#utility.yul\":15937:15941   */\n      0x20\n        /* \"#utility.yul\":15932:15935   */\n      dup11\n        /* \"#utility.yul\":15928:15942   */\n      add\n        /* \"#utility.yul\":15921:15942   */\n      swap10\n      pop\n        /* \"#utility.yul\":15568:15952   */\n      pop\n        /* \"#utility.yul\":15555:15556   */\n      0x01\n        /* \"#utility.yul\":15552:15553   */\n      dup2\n        /* \"#utility.yul\":15548:15557   */\n      add\n        /* \"#utility.yul\":15543:15557   */\n      swap1\n      pop\n        /* \"#utility.yul\":15508:15952   */\n      jump(tag_533)\n    tag_535:\n        /* \"#utility.yul\":15512:15526   */\n      pop\n        /* \"#utility.yul\":15968:15972   */\n      dup3\n        /* \"#utility.yul\":15961:15972   */\n      swap8\n      pop\n        /* \"#utility.yul\":15988:15991   */\n      dup8\n        /* \"#utility.yul\":15981:15991   */\n      swap6\n      pop\n        /* \"#utility.yul\":15054:15997   */\n      pop\n      pop\n      pop\n      pop\n      pop\n        /* \"#utility.yul\":14878:15997   */\n      swap3\n      swap2\n      pop\n      pop\n      jump\t// out\n        /* \"#utility.yul\":16003:16480   */\n    tag_87:\n        /* \"#utility.yul\":16198:16202   */\n      0x00\n        /* \"#utility.yul\":16236:16238   */\n      0x20\n        /* \"#utility.yul\":16225:16234   */\n      dup3\n        /* \"#utility.yul\":16221:16239   */\n      add\n        /* \"#utility.yul\":16213:16239   */\n      swap1\n      pop\n        /* \"#utility.yul\":16285:16294   */\n      dup2\n        /* \"#utility.yul\":16279:16283   */\n      dup2\n        /* \"#utility.yul\":16275:16295   */\n      sub\n        /* \"#utility.yul\":16271:16272   */\n      0x00\n        /* \"#utility.yul\":16260:16269   */\n      dup4\n        /* \"#utility.yul\":16256:16273   */\n      add\n        /* \"#utility.yul\":16249:16296   */\n      mstore\n        /* \"#utility.yul\":16313:16473   */\n      tag_539\n        /* \"#utility.yul\":16468:16472   */\n      dup2\n        /* \"#utility.yul\":16459:16465   */\n      dup5\n        /* \"#utility.yul\":16313:16473   */\n      tag_324\n      jump\t// in\n    tag_539:\n        /* \"#utility.yul\":16305:16473   */\n      swap1\n      pop\n        /* \"#utility.yul\":16003:16480   */\n      swap3\n      swap2\n      pop\n      pop\n      jump\t// out\n        /* \"#utility.yul\":16486:16659   */\n    tag_325:\n        /* \"#utility.yul\":16626:16651   */\n      0x566f74696e6720706572696f642068617320656e646564000000000000000000\n        /* \"#utility.yul\":16622:16623   */\n      0x00\n        /* \"#utility.yul\":16614:16620   */\n      dup3\n        /* \"#utility.yul\":16610:16624   */\n      add\n        /* \"#utility.yul\":16603:16652   */\n      mstore\n        /* \"#utility.yul\":16486:16659   */\n      pop\n      jump\t// out\n        /* \"#utility.yul\":16665:17031   */\n    tag_326:\n        /* \"#utility.yul\":16807:16810   */\n      0x00\n        /* \"#utility.yul\":16828:16895   */\n      tag_542\n        /* \"#utility.yul\":16892:16894   */\n      0x17\n        /* \"#utility.yul\":16887:16890   */\n      dup4\n        /* \"#utility.yul\":16828:16895   */\n      tag_315\n      jump\t// in\n    tag_542:\n        /* \"#utility.yul\":16821:16895   */\n      swap2\n      pop\n        /* \"#utility.yul\":16904:16997   */\n      tag_543\n        /* \"#utility.yul\":16993:16996   */\n      dup3\n        /* \"#utility.yul\":16904:16997   */\n      tag_325\n      jump\t// in\n    tag_543:\n        /* \"#utility.yul\":17022:17024   */\n      0x20\n        /* \"#utility.yul\":17017:17020   */\n      dup3\n        /* \"#utility.yul\":17013:17025   */\n      add\n        /* \"#utility.yul\":17006:17025   */\n      swap1\n      pop\n        /* \"#utility.yul\":16665:17031   */\n      swap2\n      swap1\n      pop\n      jump\t// out\n        /* \"#utility.yul\":17037:17456   */\n    tag_103:\n        /* \"#utility.yul\":17203:17207   */\n      0x00\n        /* \"#utility.yul\":17241:17243   */\n      0x20\n        /* \"#utility.yul\":17230:17239   */\n      dup3\n        /* \"#utility.yul\":17226:17244   */\n      add\n        /* \"#utility.yul\":17218:17244   */\n      swap1\n      pop\n        /* \"#utility.yul\":17290:17299   */\n      dup2\n        /* \"#utility.yul\":17284:17288   */\n      dup2\n        /* \"#utility.yul\":17280:17300   */\n      sub\n        /* \"#utility.yul\":17276:17277   */\n      0x00\n        /* \"#utility.yul\":17265:17274   */\n      dup4\n        /* \"#utility.yul\":17261:17278   */\n      add\n        /* \"#utility.yul\":17254:17301   */\n      mstore\n        /* \"#utility.yul\":17318:17449   */\n      tag_545\n        /* \"#utility.yul\":17444:17448   */\n      dup2\n        /* \"#utility.yul\":17318:17449   */\n      tag_326\n      jump\t// in\n    tag_545:\n        /* \"#utility.yul\":17310:17449   */\n      swap1\n      pop\n        /* \"#utility.yul\":17037:17456   */\n      swap2\n      swap1\n      pop\n      jump\t// out\n        /* \"#utility.yul\":17462:17629   */\n    tag_327:\n        /* \"#utility.yul\":17602:17621   */\n      0x596f7520616c726561647920766f746564000000000000000000000000000000\n        /* \"#utility.yul\":17598:17599   */\n      0x00\n        /* \"#utility.yul\":17590:17596   */\n      dup3\n        /* \"#utility.yul\":17586:17600   */\n      add\n        /* \"#utility.yul\":17579:17622   */\n      mstore\n        /* \"#utility.yul\":17462:17629   */\n      pop\n      jump\t// out\n        /* \"#utility.yul\":17635:18001   */\n    tag_328:\n        /* \"#utility.yul\":17777:17780   */\n      0x00\n        /* \"#utility.yul\":17798:17865   */\n      tag_548\n        /* \"#utility.yul\":17862:17864   */\n      0x11\n        /* \"#utility.yul\":17857:17860   */\n      dup4\n        /* \"#utility.yul\":17798:17865   */\n      tag_315\n      jump\t// in\n    tag_548:\n        /* \"#utility.yul\":17791:17865   */\n      swap2\n      pop\n        /* \"#utility.yul\":17874:17967   */\n      tag_549\n        /* \"#utility.yul\":17963:17966   */\n      dup3\n        /* \"#utility.yul\":17874:17967   */\n      tag_327\n      jump\t// in\n    tag_549:\n        /* \"#utility.yul\":17992:17994   */\n      0x20\n        /* \"#utility.yul\":17987:17990   */\n      dup3\n        /* \"#utility.yul\":17983:17995   */\n      add\n        /* \"#utility.yul\":17976:17995   */\n      swap1\n      pop\n        /* \"#utility.yul\":17635:18001   */\n      swap2\n      swap1\n      pop\n      jump\t// out\n        /* \"#utility.yul\":18007:18426   */\n    tag_107:\n        /* \"#utility.yul\":18173:18177   */\n      0x00\n        /* \"#utility.yul\":18211:18213   */\n      0x20\n        /* \"#utility.yul\":18200:18209   */\n      dup3\n        /* \"#utility.yul\":18196:18214   */\n      add\n        /* \"#utility.yul\":18188:18214   */\n      swap1\n      pop\n        /* \"#utility.yul\":18260:18269   */\n      dup2\n        /* \"#utility.yul\":18254:18258   */\n      dup2\n        /* \"#utility.yul\":18250:18270   */\n      sub\n        /* \"#utility.yul\":18246:18247   */\n      0x00\n        /* \"#utility.yul\":18235:18244   */\n      dup4\n        /* \"#utility.yul\":18231:18248   */\n      add\n        /* \"#utility.yul\":18224:18271   */\n      mstore\n        /* \"#utility.yul\":18288:18419   */\n      tag_551\n        /* \"#utility.yul\":18414:18418   */\n      dup2\n        /* \"#utility.yul\":18288:18419   */\n      tag_328\n      jump\t// in\n    tag_551:\n        /* \"#utility.yul\":18280:18419   */\n      swap1\n      pop\n        /* \"#utility.yul\":18007:18426   */\n      swap2\n      swap1\n      pop\n      jump\t// out\n        /* \"#utility.yul\":18432:18764   */\n    tag_115:\n        /* \"#utility.yul\":18553:18557   */\n      0x00\n        /* \"#utility.yul\":18591:18593   */\n      0x40\n        /* \"#utility.yul\":18580:18589   */\n      dup3\n        /* \"#utility.yul\":18576:18594   */\n      add\n        /* \"#utility.yul\":18568:18594   */\n      swap1\n      pop\n        /* \"#utility.yul\":18604:18675   */\n      tag_553\n        /* \"#utility.yul\":18672:18673   */\n      0x00\n        /* \"#utility.yul\":18661:18670   */\n      dup4\n        /* \"#utility.yul\":18657:18674   */\n      add\n        /* \"#utility.yul\":18648:18654   */\n      dup6\n        /* \"#utility.yul\":18604:18675   */\n      tag_313\n      jump\t// in\n    tag_553:\n        /* \"#utility.yul\":18685:18757   */\n      tag_554\n        /* \"#utility.yul\":18753:18755   */\n      0x20\n        /* \"#utility.yul\":18742:18751   */\n      dup4\n        /* \"#utility.yul\":18738:18756   */\n      add\n        /* \"#utility.yul\":18729:18735   */\n      dup5\n        /* \"#utility.yul\":18685:18757   */\n      tag_314\n      jump\t// in\n    tag_554:\n        /* \"#utility.yul\":18432:18764   */\n      swap4\n      swap3\n      pop\n      pop\n      pop\n      jump\t// out\n        /* \"#utility.yul\":18770:18939   */\n    tag_329:\n        /* \"#utility.yul\":18910:18931   */\n      0x496e737566696369656e7420666f756e64732100000000000000000000000000\n        /* \"#utility.yul\":18906:18907   */\n      0x00\n        /* \"#utility.yul\":18898:18904   */\n      dup3\n        /* \"#utility.yul\":18894:18908   */\n      add\n        /* \"#utility.yul\":18887:18932   */\n      mstore\n        /* \"#utility.yul\":18770:18939   */\n      pop\n      jump\t// out\n        /* \"#utility.yul\":18945:19311   */\n    tag_330:\n        /* \"#utility.yul\":19087:19090   */\n      0x00\n        /* \"#utility.yul\":19108:19175   */\n      tag_557\n        /* \"#utility.yul\":19172:19174   */\n      0x13\n        /* \"#utility.yul\":19167:19170   */\n      dup4\n        /* \"#utility.yul\":19108:19175   */\n      tag_315\n      jump\t// in\n    tag_557:\n        /* \"#utility.yul\":19101:19175   */\n      swap2\n      pop\n        /* \"#utility.yul\":19184:19277   */\n      tag_558\n        /* \"#utility.yul\":19273:19276   */\n      dup3\n        /* \"#utility.yul\":19184:19277   */\n      tag_329\n      jump\t// in\n    tag_558:\n        /* \"#utility.yul\":19302:19304   */\n      0x20\n        /* \"#utility.yul\":19297:19300   */\n      dup3\n        /* \"#utility.yul\":19293:19305   */\n      add\n        /* \"#utility.yul\":19286:19305   */\n      swap1\n      pop\n        /* \"#utility.yul\":18945:19311   */\n      swap2\n      swap1\n      pop\n      jump\t// out\n        /* \"#utility.yul\":19317:19736   */\n    tag_119:\n        /* \"#utility.yul\":19483:19487   */\n      0x00\n        /* \"#utility.yul\":19521:19523   */\n      0x20\n        /* \"#utility.yul\":19510:19519   */\n      dup3\n        /* \"#utility.yul\":19506:19524   */\n      add\n        /* \"#utility.yul\":19498:19524   */\n      swap1\n      pop\n        /* \"#utility.yul\":19570:19579   */\n      dup2\n        /* \"#utility.yul\":19564:19568   */\n      dup2\n        /* \"#utility.yul\":19560:19580   */\n      sub\n        /* \"#utility.yul\":19556:19557   */\n      0x00\n        /* \"#utility.yul\":19545:19554   */\n      dup4\n        /* \"#utility.yul\":19541:19558   */\n      add\n        /* \"#utility.yul\":19534:19581   */\n      mstore\n        /* \"#utility.yul\":19598:19729   */\n      tag_560\n        /* \"#utility.yul\":19724:19728   */\n      dup2\n        /* \"#utility.yul\":19598:19729   */\n      tag_330\n      jump\t// in\n    tag_560:\n        /* \"#utility.yul\":19590:19729   */\n      swap1\n      pop\n        /* \"#utility.yul\":19317:19736   */\n      swap2\n      swap1\n      pop\n      jump\t// out\n        /* \"#utility.yul\":19742:19909   */\n    tag_331:\n        /* \"#utility.yul\":19882:19901   */\n      0x496e76616c6964206665652076616c7565000000000000000000000000000000\n        /* \"#utility.yul\":19878:19879   */\n      0x00\n        /* \"#utility.yul\":19870:19876   */\n      dup3\n        /* \"#utility.yul\":19866:19880   */\n      add\n        /* \"#utility.yul\":19859:19902   */\n      mstore\n        /* \"#utility.yul\":19742:19909   */\n      pop\n      jump\t// out\n        /* \"#utility.yul\":19915:20281   */\n    tag_332:\n        /* \"#utility.yul\":20057:20060   */\n      0x00\n        /* \"#utility.yul\":20078:20145   */\n      tag_563\n        /* \"#utility.yul\":20142:20144   */\n      0x11\n        /* \"#utility.yul\":20137:20140   */\n      dup4\n        /* \"#utility.yul\":20078:20145   */\n      tag_315\n      jump\t// in\n    tag_563:\n        /* \"#utility.yul\":20071:20145   */\n      swap2\n      pop\n        /* \"#utility.yul\":20154:20247   */\n      tag_564\n        /* \"#utility.yul\":20243:20246   */\n      dup3\n        /* \"#utility.yul\":20154:20247   */\n      tag_331\n      jump\t// in\n    tag_564:\n        /* \"#utility.yul\":20272:20274   */\n      0x20\n        /* \"#utility.yul\":20267:20270   */\n      dup3\n        /* \"#utility.yul\":20263:20275   */\n      add\n        /* \"#utility.yul\":20256:20275   */\n      swap1\n      pop\n        /* \"#utility.yul\":19915:20281   */\n      swap2\n      swap1\n      pop\n      jump\t// out\n        /* \"#utility.yul\":20287:20706   */\n    tag_123:\n        /* \"#utility.yul\":20453:20457   */\n      0x00\n        /* \"#utility.yul\":20491:20493   */\n      0x20\n        /* \"#utility.yul\":20480:20489   */\n      dup3\n        /* \"#utility.yul\":20476:20494   */\n      add\n        /* \"#utility.yul\":20468:20494   */\n      swap1\n      pop\n        /* \"#utility.yul\":20540:20549   */\n      dup2\n        /* \"#utility.yul\":20534:20538   */\n      dup2\n        /* \"#utility.yul\":20530:20550   */\n      sub\n        /* \"#utility.yul\":20526:20527   */\n      0x00\n        /* \"#utility.yul\":20515:20524   */\n      dup4\n        /* \"#utility.yul\":20511:20528   */\n      add\n        /* \"#utility.yul\":20504:20551   */\n      mstore\n        /* \"#utility.yul\":20568:20699   */\n      tag_566\n        /* \"#utility.yul\":20694:20698   */\n      dup2\n        /* \"#utility.yul\":20568:20699   */\n      tag_332\n      jump\t// in\n    tag_566:\n        /* \"#utility.yul\":20560:20699   */\n      swap1\n      pop\n        /* \"#utility.yul\":20287:20706   */\n      swap2\n      swap1\n      pop\n      jump\t// out\n        /* \"#utility.yul\":20712:20860   */\n    tag_333:\n        /* \"#utility.yul\":20810:20816   */\n      dup3\n        /* \"#utility.yul\":20805:20808   */\n      dup2\n        /* \"#utility.yul\":20800:20803   */\n      dup4\n        /* \"#utility.yul\":20787:20817   */\n      calldatacopy\n        /* \"#utility.yul\":20851:20852   */\n      0x00\n        /* \"#utility.yul\":20842:20848   */\n      dup4\n        /* \"#utility.yul\":20837:20840   */\n      dup4\n        /* \"#utility.yul\":20833:20849   */\n      add\n        /* \"#utility.yul\":20826:20853   */\n      mstore\n        /* \"#utility.yul\":20712:20860   */\n      pop\n      pop\n      pop\n      jump\t// out\n        /* \"#utility.yul\":20890:21207   */\n    tag_334:\n        /* \"#utility.yul\":20988:20991   */\n      0x00\n        /* \"#utility.yul\":21009:21080   */\n      tag_569\n        /* \"#utility.yul\":21073:21079   */\n      dup4\n        /* \"#utility.yul\":21068:21071   */\n      dup6\n        /* \"#utility.yul\":21009:21080   */\n      tag_315\n      jump\t// in\n    tag_569:\n        /* \"#utility.yul\":21002:21080   */\n      swap4\n      pop\n        /* \"#utility.yul\":21090:21146   */\n      tag_570\n        /* \"#utility.yul\":21139:21145   */\n      dup4\n        /* \"#utility.yul\":21134:21137   */\n      dup6\n        /* \"#utility.yul\":21127:21132   */\n      dup5\n        /* \"#utility.yul\":21090:21146   */\n      tag_333\n      jump\t// in\n    tag_570:\n        /* \"#utility.yul\":21171:21200   */\n      tag_571\n        /* \"#utility.yul\":21193:21199   */\n      dup4\n        /* \"#utility.yul\":21171:21200   */\n      tag_308\n      jump\t// in\n    tag_571:\n        /* \"#utility.yul\":21166:21169   */\n      dup5\n        /* \"#utility.yul\":21162:21201   */\n      add\n        /* \"#utility.yul\":21155:21201   */\n      swap1\n      pop\n        /* \"#utility.yul\":20890:21207   */\n      swap4\n      swap3\n      pop\n      pop\n      pop\n      jump\t// out\n        /* \"#utility.yul\":21213:21767   */\n    tag_126:\n        /* \"#utility.yul\":21394:21398   */\n      0x00\n        /* \"#utility.yul\":21432:21434   */\n      0x40\n        /* \"#utility.yul\":21421:21430   */\n      dup3\n        /* \"#utility.yul\":21417:21435   */\n      add\n        /* \"#utility.yul\":21409:21435   */\n      swap1\n      pop\n        /* \"#utility.yul\":21481:21490   */\n      dup2\n        /* \"#utility.yul\":21475:21479   */\n      dup2\n        /* \"#utility.yul\":21471:21491   */\n      sub\n        /* \"#utility.yul\":21467:21468   */\n      0x00\n        /* \"#utility.yul\":21456:21465   */\n      dup4\n        /* \"#utility.yul\":21452:21469   */\n      add\n        /* \"#utility.yul\":21445:21492   */\n      mstore\n        /* \"#utility.yul\":21509:21597   */\n      tag_573\n        /* \"#utility.yul\":21592:21596   */\n      dup2\n        /* \"#utility.yul\":21583:21589   */\n      dup7\n        /* \"#utility.yul\":21575:21581   */\n      dup9\n        /* \"#utility.yul\":21509:21597   */\n      tag_334\n      jump\t// in\n    tag_573:\n        /* \"#utility.yul\":21501:21597   */\n      swap1\n      pop\n        /* \"#utility.yul\":21644:21653   */\n      dup2\n        /* \"#utility.yul\":21638:21642   */\n      dup2\n        /* \"#utility.yul\":21634:21654   */\n      sub\n        /* \"#utility.yul\":21629:21631   */\n      0x20\n        /* \"#utility.yul\":21618:21627   */\n      dup4\n        /* \"#utility.yul\":21614:21632   */\n      add\n        /* \"#utility.yul\":21607:21655   */\n      mstore\n        /* \"#utility.yul\":21672:21760   */\n      tag_574\n        /* \"#utility.yul\":21755:21759   */\n      dup2\n        /* \"#utility.yul\":21746:21752   */\n      dup5\n        /* \"#utility.yul\":21738:21744   */\n      dup7\n        /* \"#utility.yul\":21672:21760   */\n      tag_334\n      jump\t// in\n    tag_574:\n        /* \"#utility.yul\":21664:21760   */\n      swap1\n      pop\n        /* \"#utility.yul\":21213:21767   */\n      swap6\n      swap5\n      pop\n      pop\n      pop\n      pop\n      pop\n      jump\t// out\n        /* \"#utility.yul\":21773:21890   */\n    tag_335:\n        /* \"#utility.yul\":21882:21883   */\n      0x00\n        /* \"#utility.yul\":21879:21880   */\n      dup1\n        /* \"#utility.yul\":21872:21884   */\n      revert\n        /* \"#utility.yul\":21896:22076   */\n    tag_336:\n        /* \"#utility.yul\":21944:22021   */\n      0x4e487b7100000000000000000000000000000000000000000000000000000000\n        /* \"#utility.yul\":21941:21942   */\n      0x00\n        /* \"#utility.yul\":21934:22022   */\n      mstore\n        /* \"#utility.yul\":22041:22045   */\n      0x41\n        /* \"#utility.yul\":22038:22039   */\n      0x04\n        /* \"#utility.yul\":22031:22046   */\n      mstore\n        /* \"#utility.yul\":22065:22069   */\n      0x24\n        /* \"#utility.yul\":22062:22063   */\n      0x00\n        /* \"#utility.yul\":22055:22070   */\n      revert\n        /* \"#utility.yul\":22082:22363   */\n    tag_337:\n        /* \"#utility.yul\":22165:22192   */\n      tag_578\n        /* \"#utility.yul\":22187:22191   */\n      dup3\n        /* \"#utility.yul\":22165:22192   */\n      tag_308\n      jump\t// in\n    tag_578:\n        /* \"#utility.yul\":22157:22163   */\n      dup2\n        /* \"#utility.yul\":22153:22193   */\n      add\n        /* \"#utility.yul\":22295:22301   */\n      dup2\n        /* \"#utility.yul\":22283:22293   */\n      dup2\n        /* \"#utility.yul\":22280:22302   */\n      lt\n        /* \"#utility.yul\":22259:22277   */\n      0xffffffffffffffff\n        /* \"#utility.yul\":22247:22257   */\n      dup3\n        /* \"#utility.yul\":22244:22278   */\n      gt\n        /* \"#utility.yul\":22241:22303   */\n      or\n        /* \"#utility.yul\":22238:22326   */\n      iszero\n      tag_579\n      jumpi\n        /* \"#utility.yul\":22306:22324   */\n      tag_580\n      tag_336\n      jump\t// in\n    tag_580:\n        /* \"#utility.yul\":22238:22326   */\n    tag_579:\n        /* \"#utility.yul\":22346:22356   */\n      dup1\n        /* \"#utility.yul\":22342:22344   */\n      0x40\n        /* \"#utility.yul\":22335:22357   */\n      mstore\n        /* \"#utility.yul\":22125:22363   */\n      pop\n        /* \"#utility.yul\":22082:22363   */\n      pop\n      pop\n      jump\t// out\n        /* \"#utility.yul\":22369:22498   */\n    tag_338:\n        /* \"#utility.yul\":22403:22409   */\n      0x00\n        /* \"#utility.yul\":22430:22450   */\n      tag_582\n      tag_282\n      jump\t// in\n    tag_582:\n        /* \"#utility.yul\":22420:22450   */\n      swap1\n      pop\n        /* \"#utility.yul\":22459:22492   */\n      tag_583\n        /* \"#utility.yul\":22487:22491   */\n      dup3\n        /* \"#utility.yul\":22479:22485   */\n      dup3\n        /* \"#utility.yul\":22459:22492   */\n      tag_337\n      jump\t// in\n    tag_583:\n        /* \"#utility.yul\":22369:22498   */\n      swap2\n      swap1\n      pop\n      jump\t// out\n        /* \"#utility.yul\":22504:22621   */\n    tag_339:\n        /* \"#utility.yul\":22613:22614   */\n      0x00\n        /* \"#utility.yul\":22610:22611   */\n      dup1\n        /* \"#utility.yul\":22603:22615   */\n      revert\n        /* \"#utility.yul\":22627:22770   */\n    tag_340:\n        /* \"#utility.yul\":22684:22689   */\n      0x00\n        /* \"#utility.yul\":22715:22721   */\n      dup2\n        /* \"#utility.yul\":22709:22722   */\n      mload\n        /* \"#utility.yul\":22700:22722   */\n      swap1\n      pop\n        /* \"#utility.yul\":22731:22764   */\n      tag_586\n        /* \"#utility.yul\":22758:22763   */\n      dup2\n        /* \"#utility.yul\":22731:22764   */\n      tag_301\n      jump\t// in\n    tag_586:\n        /* \"#utility.yul\":22627:22770   */\n      swap3\n      swap2\n      pop\n      pop\n      jump\t// out\n        /* \"#utility.yul\":22776:22893   */\n    tag_341:\n        /* \"#utility.yul\":22885:22886   */\n      0x00\n        /* \"#utility.yul\":22882:22883   */\n      dup1\n        /* \"#utility.yul\":22875:22887   */\n      revert\n        /* \"#utility.yul\":22899:23207   */\n    tag_342:\n        /* \"#utility.yul\":22961:22965   */\n      0x00\n        /* \"#utility.yul\":23051:23069   */\n      0xffffffffffffffff\n        /* \"#utility.yul\":23043:23049   */\n      dup3\n        /* \"#utility.yul\":23040:23070   */\n      gt\n        /* \"#utility.yul\":23037:23093   */\n      iszero\n      tag_589\n      jumpi\n        /* \"#utility.yul\":23073:23091   */\n      tag_590\n      tag_336\n      jump\t// in\n    tag_590:\n        /* \"#utility.yul\":23037:23093   */\n    tag_589:\n        /* \"#utility.yul\":23111:23140   */\n      tag_591\n        /* \"#utility.yul\":23133:23139   */\n      dup3\n        /* \"#utility.yul\":23111:23140   */\n      tag_308\n      jump\t// in\n    tag_591:\n        /* \"#utility.yul\":23103:23140   */\n      swap1\n      pop\n        /* \"#utility.yul\":23195:23199   */\n      0x20\n        /* \"#utility.yul\":23189:23193   */\n      dup2\n        /* \"#utility.yul\":23185:23200   */\n      add\n        /* \"#utility.yul\":23177:23200   */\n      swap1\n      pop\n        /* \"#utility.yul\":22899:23207   */\n      swap2\n      swap1\n      pop\n      jump\t// out\n        /* \"#utility.yul\":23213:23647   */\n    tag_343:\n        /* \"#utility.yul\":23302:23307   */\n      0x00\n        /* \"#utility.yul\":23327:23393   */\n      tag_593\n        /* \"#utility.yul\":23343:23392   */\n      tag_594\n        /* \"#utility.yul\":23385:23391   */\n      dup5\n        /* \"#utility.yul\":23343:23392   */\n      tag_342\n      jump\t// in\n    tag_594:\n        /* \"#utility.yul\":23327:23393   */\n      tag_338\n      jump\t// in\n    tag_593:\n        /* \"#utility.yul\":23318:23393   */\n      swap1\n      pop\n        /* \"#utility.yul\":23416:23422   */\n      dup3\n        /* \"#utility.yul\":23409:23414   */\n      dup2\n        /* \"#utility.yul\":23402:23423   */\n      mstore\n        /* \"#utility.yul\":23454:23458   */\n      0x20\n        /* \"#utility.yul\":23447:23452   */\n      dup2\n        /* \"#utility.yul\":23443:23459   */\n      add\n        /* \"#utility.yul\":23492:23495   */\n      dup5\n        /* \"#utility.yul\":23483:23489   */\n      dup5\n        /* \"#utility.yul\":23478:23481   */\n      dup5\n        /* \"#utility.yul\":23474:23490   */\n      add\n        /* \"#utility.yul\":23471:23496   */\n      gt\n        /* \"#utility.yul\":23468:23580   */\n      iszero\n      tag_595\n      jumpi\n        /* \"#utility.yul\":23499:23578   */\n      tag_596\n      tag_341\n      jump\t// in\n    tag_596:\n        /* \"#utility.yul\":23468:23580   */\n    tag_595:\n        /* \"#utility.yul\":23589:23641   */\n      tag_597\n        /* \"#utility.yul\":23634:23640   */\n      dup5\n        /* \"#utility.yul\":23629:23632   */\n      dup3\n        /* \"#utility.yul\":23624:23627   */\n      dup6\n        /* \"#utility.yul\":23589:23641   */\n      tag_307\n      jump\t// in\n    tag_597:\n        /* \"#utility.yul\":23308:23647   */\n      pop\n        /* \"#utility.yul\":23213:23647   */\n      swap4\n      swap3\n      pop\n      pop\n      pop\n      jump\t// out\n        /* \"#utility.yul\":23667:24022   */\n    tag_344:\n        /* \"#utility.yul\":23734:23739   */\n      0x00\n        /* \"#utility.yul\":23783:23786   */\n      dup3\n        /* \"#utility.yul\":23776:23780   */\n      0x1f\n        /* \"#utility.yul\":23768:23774   */\n      dup4\n        /* \"#utility.yul\":23764:23781   */\n      add\n        /* \"#utility.yul\":23760:23787   */\n      slt\n        /* \"#utility.yul\":23750:23872   */\n      tag_599\n      jumpi\n        /* \"#utility.yul\":23791:23870   */\n      tag_600\n      tag_288\n      jump\t// in\n    tag_600:\n        /* \"#utility.yul\":23750:23872   */\n    tag_599:\n        /* \"#utility.yul\":23901:23907   */\n      dup2\n        /* \"#utility.yul\":23895:23908   */\n      mload\n        /* \"#utility.yul\":23926:24016   */\n      tag_601\n        /* \"#utility.yul\":24012:24015   */\n      dup5\n        /* \"#utility.yul\":24004:24010   */\n      dup3\n        /* \"#utility.yul\":23997:24001   */\n      0x20\n        /* \"#utility.yul\":23989:23995   */\n      dup7\n        /* \"#utility.yul\":23985:24002   */\n      add\n        /* \"#utility.yul\":23926:24016   */\n      tag_343\n      jump\t// in\n    tag_601:\n        /* \"#utility.yul\":23917:24016   */\n      swap2\n      pop\n        /* \"#utility.yul\":23740:24022   */\n      pop\n        /* \"#utility.yul\":23667:24022   */\n      swap3\n      swap2\n      pop\n      pop\n      jump\t// out\n        /* \"#utility.yul\":24028:24171   */\n    tag_345:\n        /* \"#utility.yul\":24085:24090   */\n      0x00\n        /* \"#utility.yul\":24116:24122   */\n      dup2\n        /* \"#utility.yul\":24110:24123   */\n      mload\n        /* \"#utility.yul\":24101:24123   */\n      swap1\n      pop\n        /* \"#utility.yul\":24132:24165   */\n      tag_603\n        /* \"#utility.yul\":24159:24164   */\n      dup2\n        /* \"#utility.yul\":24132:24165   */\n      tag_286\n      jump\t// in\n    tag_603:\n        /* \"#utility.yul\":24028:24171   */\n      swap3\n      swap2\n      pop\n      pop\n      jump\t// out\n        /* \"#utility.yul\":24177:24299   */\n    tag_346:\n        /* \"#utility.yul\":24250:24274   */\n      tag_605\n        /* \"#utility.yul\":24268:24273   */\n      dup2\n        /* \"#utility.yul\":24250:24274   */\n      tag_310\n      jump\t// in\n    tag_605:\n        /* \"#utility.yul\":24243:24248   */\n      dup2\n        /* \"#utility.yul\":24240:24275   */\n      eq\n        /* \"#utility.yul\":24230:24293   */\n      tag_606\n      jumpi\n        /* \"#utility.yul\":24289:24290   */\n      0x00\n        /* \"#utility.yul\":24286:24287   */\n      dup1\n        /* \"#utility.yul\":24279:24291   */\n      revert\n        /* \"#utility.yul\":24230:24293   */\n    tag_606:\n        /* \"#utility.yul\":24177:24299   */\n      pop\n      jump\t// out\n        /* \"#utility.yul\":24305:24448   */\n    tag_347:\n        /* \"#utility.yul\":24362:24367   */\n      0x00\n        /* \"#utility.yul\":24393:24399   */\n      dup2\n        /* \"#utility.yul\":24387:24400   */\n      mload\n        /* \"#utility.yul\":24378:24400   */\n      swap1\n      pop\n        /* \"#utility.yul\":24409:24442   */\n      tag_608\n        /* \"#utility.yul\":24436:24441   */\n      dup2\n        /* \"#utility.yul\":24409:24442   */\n      tag_346\n      jump\t// in\n    tag_608:\n        /* \"#utility.yul\":24305:24448   */\n      swap3\n      swap2\n      pop\n      pop\n      jump\t// out\n        /* \"#utility.yul\":24477:26284   */\n    tag_348:\n        /* \"#utility.yul\":24563:24568   */\n      0x00\n        /* \"#utility.yul\":24607:24611   */\n      0xe0\n        /* \"#utility.yul\":24595:24604   */\n      dup3\n        /* \"#utility.yul\":24590:24593   */\n      dup5\n        /* \"#utility.yul\":24586:24605   */\n      sub\n        /* \"#utility.yul\":24582:24612   */\n      slt\n        /* \"#utility.yul\":24579:24696   */\n      iszero\n      tag_610\n      jumpi\n        /* \"#utility.yul\":24615:24694   */\n      tag_611\n      tag_335\n      jump\t// in\n    tag_611:\n        /* \"#utility.yul\":24579:24696   */\n    tag_610:\n        /* \"#utility.yul\":24714:24735   */\n      tag_612\n        /* \"#utility.yul\":24730:24734   */\n      0xe0\n        /* \"#utility.yul\":24714:24735   */\n      tag_338\n      jump\t// in\n    tag_612:\n        /* \"#utility.yul\":24705:24735   */\n      swap1\n      pop\n        /* \"#utility.yul\":24795:24796   */\n      0x00\n        /* \"#utility.yul\":24835:24895   */\n      tag_613\n        /* \"#utility.yul\":24891:24894   */\n      dup5\n        /* \"#utility.yul\":24882:24888   */\n      dup3\n        /* \"#utility.yul\":24871:24880   */\n      dup6\n        /* \"#utility.yul\":24867:24889   */\n      add\n        /* \"#utility.yul\":24835:24895   */\n      tag_340\n      jump\t// in\n    tag_613:\n        /* \"#utility.yul\":24828:24832   */\n      0x00\n        /* \"#utility.yul\":24821:24826   */\n      dup4\n        /* \"#utility.yul\":24817:24833   */\n      add\n        /* \"#utility.yul\":24810:24896   */\n      mstore\n        /* \"#utility.yul\":24745:24907   */\n      pop\n        /* \"#utility.yul\":24987:24989   */\n      0x20\n        /* \"#utility.yul\":24976:24985   */\n      dup3\n        /* \"#utility.yul\":24972:24990   */\n      add\n        /* \"#utility.yul\":24966:24991   */\n      mload\n        /* \"#utility.yul\":25018:25036   */\n      0xffffffffffffffff\n        /* \"#utility.yul\":25010:25016   */\n      dup2\n        /* \"#utility.yul\":25007:25037   */\n      gt\n        /* \"#utility.yul\":25004:25121   */\n      iszero\n      tag_614\n      jumpi\n        /* \"#utility.yul\":25040:25119   */\n      tag_615\n      tag_339\n      jump\t// in\n    tag_615:\n        /* \"#utility.yul\":25004:25121   */\n    tag_614:\n        /* \"#utility.yul\":25160:25230   */\n      tag_616\n        /* \"#utility.yul\":25226:25229   */\n      dup5\n        /* \"#utility.yul\":25217:25223   */\n      dup3\n        /* \"#utility.yul\":25206:25215   */\n      dup6\n        /* \"#utility.yul\":25202:25224   */\n      add\n        /* \"#utility.yul\":25160:25230   */\n      tag_344\n      jump\t// in\n    tag_616:\n        /* \"#utility.yul\":25153:25157   */\n      0x20\n        /* \"#utility.yul\":25146:25151   */\n      dup4\n        /* \"#utility.yul\":25142:25158   */\n      add\n        /* \"#utility.yul\":25135:25231   */\n      mstore\n        /* \"#utility.yul\":24917:25242   */\n      pop\n        /* \"#utility.yul\":25321:25323   */\n      0x40\n        /* \"#utility.yul\":25310:25319   */\n      dup3\n        /* \"#utility.yul\":25306:25324   */\n      add\n        /* \"#utility.yul\":25300:25325   */\n      mload\n        /* \"#utility.yul\":25352:25370   */\n      0xffffffffffffffff\n        /* \"#utility.yul\":25344:25350   */\n      dup2\n        /* \"#utility.yul\":25341:25371   */\n      gt\n        /* \"#utility.yul\":25338:25455   */\n      iszero\n      tag_617\n      jumpi\n        /* \"#utility.yul\":25374:25453   */\n      tag_618\n      tag_339\n      jump\t// in\n    tag_618:\n        /* \"#utility.yul\":25338:25455   */\n    tag_617:\n        /* \"#utility.yul\":25494:25564   */\n      tag_619\n        /* \"#utility.yul\":25560:25563   */\n      dup5\n        /* \"#utility.yul\":25551:25557   */\n      dup3\n        /* \"#utility.yul\":25540:25549   */\n      dup6\n        /* \"#utility.yul\":25536:25558   */\n      add\n        /* \"#utility.yul\":25494:25564   */\n      tag_344\n      jump\t// in\n    tag_619:\n        /* \"#utility.yul\":25487:25491   */\n      0x40\n        /* \"#utility.yul\":25480:25485   */\n      dup4\n        /* \"#utility.yul\":25476:25492   */\n      add\n        /* \"#utility.yul\":25469:25565   */\n      mstore\n        /* \"#utility.yul\":25252:25576   */\n      pop\n        /* \"#utility.yul\":25640:25642   */\n      0x60\n        /* \"#utility.yul\":25681:25741   */\n      tag_620\n        /* \"#utility.yul\":25737:25740   */\n      dup5\n        /* \"#utility.yul\":25728:25734   */\n      dup3\n        /* \"#utility.yul\":25717:25726   */\n      dup6\n        /* \"#utility.yul\":25713:25735   */\n      add\n        /* \"#utility.yul\":25681:25741   */\n      tag_345\n      jump\t// in\n    tag_620:\n        /* \"#utility.yul\":25674:25678   */\n      0x60\n        /* \"#utility.yul\":25667:25672   */\n      dup4\n        /* \"#utility.yul\":25663:25679   */\n      add\n        /* \"#utility.yul\":25656:25742   */\n      mstore\n        /* \"#utility.yul\":25586:25753   */\n      pop\n        /* \"#utility.yul\":25813:25816   */\n      0x80\n        /* \"#utility.yul\":25855:25915   */\n      tag_621\n        /* \"#utility.yul\":25911:25914   */\n      dup5\n        /* \"#utility.yul\":25902:25908   */\n      dup3\n        /* \"#utility.yul\":25891:25900   */\n      dup6\n        /* \"#utility.yul\":25887:25909   */\n      add\n        /* \"#utility.yul\":25855:25915   */\n      tag_345\n      jump\t// in\n    tag_621:\n        /* \"#utility.yul\":25848:25852   */\n      0x80\n        /* \"#utility.yul\":25841:25846   */\n      dup4\n        /* \"#utility.yul\":25837:25853   */\n      add\n        /* \"#utility.yul\":25830:25916   */\n      mstore\n        /* \"#utility.yul\":25763:25927   */\n      pop\n        /* \"#utility.yul\":25984:25987   */\n      0xa0\n        /* \"#utility.yul\":26026:26086   */\n      tag_622\n        /* \"#utility.yul\":26082:26085   */\n      dup5\n        /* \"#utility.yul\":26073:26079   */\n      dup3\n        /* \"#utility.yul\":26062:26071   */\n      dup6\n        /* \"#utility.yul\":26058:26080   */\n      add\n        /* \"#utility.yul\":26026:26086   */\n      tag_345\n      jump\t// in\n    tag_622:\n        /* \"#utility.yul\":26019:26023   */\n      0xa0\n        /* \"#utility.yul\":26012:26017   */\n      dup4\n        /* \"#utility.yul\":26008:26024   */\n      add\n        /* \"#utility.yul\":26001:26087   */\n      mstore\n        /* \"#utility.yul\":25937:26098   */\n      pop\n        /* \"#utility.yul\":26163:26166   */\n      0xc0\n        /* \"#utility.yul\":26205:26265   */\n      tag_623\n        /* \"#utility.yul\":26261:26264   */\n      dup5\n        /* \"#utility.yul\":26252:26258   */\n      dup3\n        /* \"#utility.yul\":26241:26250   */\n      dup6\n        /* \"#utility.yul\":26237:26259   */\n      add\n        /* \"#utility.yul\":26205:26265   */\n      tag_347\n      jump\t// in\n    tag_623:\n        /* \"#utility.yul\":26198:26202   */\n      0xc0\n        /* \"#utility.yul\":26191:26196   */\n      dup4\n        /* \"#utility.yul\":26187:26203   */\n      add\n        /* \"#utility.yul\":26180:26266   */\n      mstore\n        /* \"#utility.yul\":26108:26277   */\n      pop\n        /* \"#utility.yul\":24477:26284   */\n      swap3\n      swap2\n      pop\n      pop\n      jump\t// out\n        /* \"#utility.yul\":26290:26846   */\n    tag_130:\n        /* \"#utility.yul\":26386:26392   */\n      0x00\n        /* \"#utility.yul\":26435:26437   */\n      0x20\n        /* \"#utility.yul\":26423:26432   */\n      dup3\n        /* \"#utility.yul\":26414:26421   */\n      dup5\n        /* \"#utility.yul\":26410:26433   */\n      sub\n        /* \"#utility.yul\":26406:26438   */\n      slt\n        /* \"#utility.yul\":26403:26522   */\n      iszero\n      tag_625\n      jumpi\n        /* \"#utility.yul\":26441:26520   */\n      tag_626\n      tag_283\n      jump\t// in\n    tag_626:\n        /* \"#utility.yul\":26403:26522   */\n    tag_625:\n        /* \"#utility.yul\":26582:26583   */\n      0x00\n        /* \"#utility.yul\":26571:26580   */\n      dup3\n        /* \"#utility.yul\":26567:26584   */\n      add\n        /* \"#utility.yul\":26561:26585   */\n      mload\n        /* \"#utility.yul\":26612:26630   */\n      0xffffffffffffffff\n        /* \"#utility.yul\":26604:26610   */\n      dup2\n        /* \"#utility.yul\":26601:26631   */\n      gt\n        /* \"#utility.yul\":26598:26715   */\n      iszero\n      tag_627\n      jumpi\n        /* \"#utility.yul\":26634:26713   */\n      tag_628\n      tag_284\n      jump\t// in\n    tag_628:\n        /* \"#utility.yul\":26598:26715   */\n    tag_627:\n        /* \"#utility.yul\":26739:26829   */\n      tag_629\n        /* \"#utility.yul\":26821:26828   */\n      dup5\n        /* \"#utility.yul\":26812:26818   */\n      dup3\n        /* \"#utility.yul\":26801:26810   */\n      dup6\n        /* \"#utility.yul\":26797:26819   */\n      add\n        /* \"#utility.yul\":26739:26829   */\n      tag_348\n      jump\t// in\n    tag_629:\n        /* \"#utility.yul\":26729:26829   */\n      swap2\n      pop\n        /* \"#utility.yul\":26532:26839   */\n      pop\n        /* \"#utility.yul\":26290:26846   */\n      swap3\n      swap2\n      pop\n      pop\n      jump\t// out\n        /* \"#utility.yul\":26852:26937   */\n    tag_349:\n        /* \"#utility.yul\":26897:26904   */\n      0x00\n        /* \"#utility.yul\":26926:26931   */\n      dup2\n        /* \"#utility.yul\":26915:26931   */\n      swap1\n      pop\n        /* \"#utility.yul\":26852:26937   */\n      swap2\n      swap1\n      pop\n      jump\t// out\n        /* \"#utility.yul\":26943:27003   */\n    tag_350:\n        /* \"#utility.yul\":26971:26974   */\n      0x00\n        /* \"#utility.yul\":26992:26997   */\n      dup2\n        /* \"#utility.yul\":26985:26997   */\n      swap1\n      pop\n        /* \"#utility.yul\":26943:27003   */\n      swap2\n      swap1\n      pop\n      jump\t// out\n        /* \"#utility.yul\":27009:27167   */\n    tag_351:\n        /* \"#utility.yul\":27067:27076   */\n      0x00\n        /* \"#utility.yul\":27100:27161   */\n      tag_633\n        /* \"#utility.yul\":27118:27160   */\n      tag_634\n        /* \"#utility.yul\":27127:27159   */\n      tag_635\n        /* \"#utility.yul\":27153:27158   */\n      dup5\n        /* \"#utility.yul\":27127:27159   */\n      tag_349\n      jump\t// in\n    tag_635:\n        /* \"#utility.yul\":27118:27160   */\n      tag_350\n      jump\t// in\n    tag_634:\n        /* \"#utility.yul\":27100:27161   */\n      tag_285\n      jump\t// in\n    tag_633:\n        /* \"#utility.yul\":27087:27161   */\n      swap1\n      pop\n        /* \"#utility.yul\":27009:27167   */\n      swap2\n      swap1\n      pop\n      jump\t// out\n        /* \"#utility.yul\":27173:27320   */\n    tag_352:\n        /* \"#utility.yul\":27268:27313   */\n      tag_637\n        /* \"#utility.yul\":27307:27312   */\n      dup2\n        /* \"#utility.yul\":27268:27313   */\n      tag_351\n      jump\t// in\n    tag_637:\n        /* \"#utility.yul\":27263:27266   */\n      dup3\n        /* \"#utility.yul\":27256:27314   */\n      mstore\n        /* \"#utility.yul\":27173:27320   */\n      pop\n      pop\n      jump\t// out\n        /* \"#utility.yul\":27326:28228   */\n    tag_134:\n        /* \"#utility.yul\":27599:27603   */\n      0x00\n        /* \"#utility.yul\":27637:27640   */\n      0xa0\n        /* \"#utility.yul\":27626:27635   */\n      dup3\n        /* \"#utility.yul\":27622:27641   */\n      add\n        /* \"#utility.yul\":27614:27641   */\n      swap1\n      pop\n        /* \"#utility.yul\":27687:27696   */\n      dup2\n        /* \"#utility.yul\":27681:27685   */\n      dup2\n        /* \"#utility.yul\":27677:27697   */\n      sub\n        /* \"#utility.yul\":27673:27674   */\n      0x00\n        /* \"#utility.yul\":27662:27671   */\n      dup4\n        /* \"#utility.yul\":27658:27675   */\n      add\n        /* \"#utility.yul\":27651:27698   */\n      mstore\n        /* \"#utility.yul\":27715:27803   */\n      tag_639\n        /* \"#utility.yul\":27798:27802   */\n      dup2\n        /* \"#utility.yul\":27789:27795   */\n      dup10\n        /* \"#utility.yul\":27781:27787   */\n      dup12\n        /* \"#utility.yul\":27715:27803   */\n      tag_334\n      jump\t// in\n    tag_639:\n        /* \"#utility.yul\":27707:27803   */\n      swap1\n      pop\n        /* \"#utility.yul\":27850:27859   */\n      dup2\n        /* \"#utility.yul\":27844:27848   */\n      dup2\n        /* \"#utility.yul\":27840:27860   */\n      sub\n        /* \"#utility.yul\":27835:27837   */\n      0x20\n        /* \"#utility.yul\":27824:27833   */\n      dup4\n        /* \"#utility.yul\":27820:27838   */\n      add\n        /* \"#utility.yul\":27813:27861   */\n      mstore\n        /* \"#utility.yul\":27878:27966   */\n      tag_640\n        /* \"#utility.yul\":27961:27965   */\n      dup2\n        /* \"#utility.yul\":27952:27958   */\n      dup8\n        /* \"#utility.yul\":27944:27950   */\n      dup10\n        /* \"#utility.yul\":27878:27966   */\n      tag_334\n      jump\t// in\n    tag_640:\n        /* \"#utility.yul\":27870:27966   */\n      swap1\n      pop\n        /* \"#utility.yul\":27976:28048   */\n      tag_641\n        /* \"#utility.yul\":28044:28046   */\n      0x40\n        /* \"#utility.yul\":28033:28042   */\n      dup4\n        /* \"#utility.yul\":28029:28047   */\n      add\n        /* \"#utility.yul\":28020:28026   */\n      dup7\n        /* \"#utility.yul\":27976:28048   */\n      tag_314\n      jump\t// in\n    tag_641:\n        /* \"#utility.yul\":28058:28138   */\n      tag_642\n        /* \"#utility.yul\":28134:28136   */\n      0x60\n        /* \"#utility.yul\":28123:28132   */\n      dup4\n        /* \"#utility.yul\":28119:28137   */\n      add\n        /* \"#utility.yul\":28110:28116   */\n      dup6\n        /* \"#utility.yul\":28058:28138   */\n      tag_352\n      jump\t// in\n    tag_642:\n        /* \"#utility.yul\":28148:28221   */\n      tag_643\n        /* \"#utility.yul\":28216:28219   */\n      0x80\n        /* \"#utility.yul\":28205:28214   */\n      dup4\n        /* \"#utility.yul\":28201:28220   */\n      add\n        /* \"#utility.yul\":28192:28198   */\n      dup5\n        /* \"#utility.yul\":28148:28221   */\n      tag_314\n      jump\t// in\n    tag_643:\n        /* \"#utility.yul\":27326:28228   */\n      swap9\n      swap8\n      pop\n      pop\n      pop\n      pop\n      pop\n      pop\n      pop\n      pop\n      jump\t// out\n        /* \"#utility.yul\":28234:28405   */\n    tag_353:\n        /* \"#utility.yul\":28374:28397   */\n      0x596f7520686176656e277420766f746564207965740000000000000000000000\n        /* \"#utility.yul\":28370:28371   */\n      0x00\n        /* \"#utility.yul\":28362:28368   */\n      dup3\n        /* \"#utility.yul\":28358:28372   */\n      add\n        /* \"#utility.yul\":28351:28398   */\n      mstore\n        /* \"#utility.yul\":28234:28405   */\n      pop\n      jump\t// out\n        /* \"#utility.yul\":28411:28777   */\n    tag_354:\n        /* \"#utility.yul\":28553:28556   */\n      0x00\n        /* \"#utility.yul\":28574:28641   */\n      tag_646\n        /* \"#utility.yul\":28638:28640   */\n      0x15\n        /* \"#utility.yul\":28633:28636   */\n      dup4\n        /* \"#utility.yul\":28574:28641   */\n      tag_315\n      jump\t// in\n    tag_646:\n        /* \"#utility.yul\":28567:28641   */\n      swap2\n      pop\n        /* \"#utility.yul\":28650:28743   */\n      tag_647\n        /* \"#utility.yul\":28739:28742   */\n      dup3\n        /* \"#utility.yul\":28650:28743   */\n      tag_353\n      jump\t// in\n    tag_647:\n        /* \"#utility.yul\":28768:28770   */\n      0x20\n        /* \"#utility.yul\":28763:28766   */\n      dup3\n        /* \"#utility.yul\":28759:28771   */\n      add\n        /* \"#utility.yul\":28752:28771   */\n      swap1\n      pop\n        /* \"#utility.yul\":28411:28777   */\n      swap2\n      swap1\n      pop\n      jump\t// out\n        /* \"#utility.yul\":28783:29202   */\n    tag_151:\n        /* \"#utility.yul\":28949:28953   */\n      0x00\n        /* \"#utility.yul\":28987:28989   */\n      0x20\n        /* \"#utility.yul\":28976:28985   */\n      dup3\n        /* \"#utility.yul\":28972:28990   */\n      add\n        /* \"#utility.yul\":28964:28990   */\n      swap1\n      pop\n        /* \"#utility.yul\":29036:29045   */\n      dup2\n        /* \"#utility.yul\":29030:29034   */\n      dup2\n        /* \"#utility.yul\":29026:29046   */\n      sub\n        /* \"#utility.yul\":29022:29023   */\n      0x00\n        /* \"#utility.yul\":29011:29020   */\n      dup4\n        /* \"#utility.yul\":29007:29024   */\n      add\n        /* \"#utility.yul\":29000:29047   */\n      mstore\n        /* \"#utility.yul\":29064:29195   */\n      tag_649\n        /* \"#utility.yul\":29190:29194   */\n      dup2\n        /* \"#utility.yul\":29064:29195   */\n      tag_354\n      jump\t// in\n    tag_649:\n        /* \"#utility.yul\":29056:29195   */\n      swap1\n      pop\n        /* \"#utility.yul\":28783:29202   */\n      swap2\n      swap1\n      pop\n      jump\t// out\n        /* \"#utility.yul\":29208:29319   */\n    tag_355:\n        /* \"#utility.yul\":29272:29278   */\n      0x00\n        /* \"#utility.yul\":29306:29311   */\n      dup2\n        /* \"#utility.yul\":29300:29312   */\n      sload\n        /* \"#utility.yul\":29290:29312   */\n      swap1\n      pop\n        /* \"#utility.yul\":29208:29319   */\n      swap2\n      swap1\n      pop\n      jump\t// out\n        /* \"#utility.yul\":29325:29517   */\n    tag_356:\n        /* \"#utility.yul\":29432:29443   */\n      0x00\n        /* \"#utility.yul\":29466:29472   */\n      dup3\n        /* \"#utility.yul\":29461:29464   */\n      dup3\n        /* \"#utility.yul\":29454:29473   */\n      mstore\n        /* \"#utility.yul\":29506:29510   */\n      0x20\n        /* \"#utility.yul\":29501:29504   */\n      dup3\n        /* \"#utility.yul\":29497:29511   */\n      add\n        /* \"#utility.yul\":29482:29511   */\n      swap1\n      pop\n        /* \"#utility.yul\":29325:29517   */\n      swap3\n      swap2\n      pop\n      pop\n      jump\t// out\n        /* \"#utility.yul\":29523:29679   */\n    tag_357:\n        /* \"#utility.yul\":29587:29591   */\n      0x00\n        /* \"#utility.yul\":29610:29613   */\n      dup2\n        /* \"#utility.yul\":29602:29613   */\n      swap1\n      pop\n        /* \"#utility.yul\":29633:29636   */\n      dup2\n        /* \"#utility.yul\":29630:29631   */\n      0x00\n        /* \"#utility.yul\":29623:29637   */\n      mstore\n        /* \"#utility.yul\":29667:29671   */\n      0x20\n        /* \"#utility.yul\":29664:29665   */\n      0x00\n        /* \"#utility.yul\":29654:29672   */\n      keccak256\n        /* \"#utility.yul\":29646:29672   */\n      swap1\n      pop\n        /* \"#utility.yul\":29523:29679   */\n      swap2\n      swap1\n      pop\n      jump\t// out\n        /* \"#utility.yul\":29685:29801   */\n    tag_358:\n        /* \"#utility.yul\":29770:29794   */\n      tag_654\n        /* \"#utility.yul\":29788:29793   */\n      dup2\n        /* \"#utility.yul\":29770:29794   */\n      tag_296\n      jump\t// in\n    tag_654:\n        /* \"#utility.yul\":29765:29768   */\n      dup3\n        /* \"#utility.yul\":29758:29795   */\n      mstore\n        /* \"#utility.yul\":29685:29801   */\n      pop\n      pop\n      jump\t// out\n        /* \"#utility.yul\":29807:30002   */\n    tag_359:\n        /* \"#utility.yul\":29884:29894   */\n      0x00\n        /* \"#utility.yul\":29905:29959   */\n      tag_656\n        /* \"#utility.yul\":29955:29958   */\n      dup4\n        /* \"#utility.yul\":29947:29953   */\n      dup4\n        /* \"#utility.yul\":29905:29959   */\n      tag_358\n      jump\t// in\n    tag_656:\n        /* \"#utility.yul\":29991:29995   */\n      0x20\n        /* \"#utility.yul\":29986:29989   */\n      dup4\n        /* \"#utility.yul\":29982:29996   */\n      add\n        /* \"#utility.yul\":29968:29996   */\n      swap1\n      pop\n        /* \"#utility.yul\":29807:30002   */\n      swap3\n      swap2\n      pop\n      pop\n      jump\t// out\n        /* \"#utility.yul\":30008:30110   */\n    tag_360:\n        /* \"#utility.yul\":30050:30058   */\n      0x00\n        /* \"#utility.yul\":30097:30102   */\n      dup2\n        /* \"#utility.yul\":30094:30095   */\n      0x00\n        /* \"#utility.yul\":30090:30103   */\n      shr\n        /* \"#utility.yul\":30069:30103   */\n      swap1\n      pop\n        /* \"#utility.yul\":30008:30110   */\n      swap2\n      swap1\n      pop\n      jump\t// out\n        /* \"#utility.yul\":30116:30255   */\n    tag_361:\n        /* \"#utility.yul\":30166:30173   */\n      0x00\n        /* \"#utility.yul\":30206:30248   */\n      0xffffffffffffffffffffffffffffffffffffffff\n        /* \"#utility.yul\":30199:30204   */\n      dup3\n        /* \"#utility.yul\":30195:30249   */\n      and\n        /* \"#utility.yul\":30184:30249   */\n      swap1\n      pop\n        /* \"#utility.yul\":30116:30255   */\n      swap2\n      swap1\n      pop\n      jump\t// out\n        /* \"#utility.yul\":30261:30427   */\n    tag_362:\n        /* \"#utility.yul\":30330:30335   */\n      0x00\n        /* \"#utility.yul\":30355:30421   */\n      tag_660\n        /* \"#utility.yul\":30386:30420   */\n      tag_661\n        /* \"#utility.yul\":30409:30419   */\n      dup4\n        /* \"#utility.yul\":30386:30420   */\n      tag_360\n      jump\t// in\n    tag_661:\n        /* \"#utility.yul\":30355:30421   */\n      tag_361\n      jump\t// in\n    tag_660:\n        /* \"#utility.yul\":30346:30421   */\n      swap1\n      pop\n        /* \"#utility.yul\":30261:30427   */\n      swap2\n      swap1\n      pop\n      jump\t// out\n        /* \"#utility.yul\":30433:30577   */\n    tag_363:\n        /* \"#utility.yul\":30488:30493   */\n      0x00\n        /* \"#utility.yul\":30513:30570   */\n      tag_663\n        /* \"#utility.yul\":30564:30568   */\n      dup3\n        /* \"#utility.yul\":30558:30569   */\n      sload\n        /* \"#utility.yul\":30513:30570   */\n      tag_362\n      jump\t// in\n    tag_663:\n        /* \"#utility.yul\":30504:30570   */\n      swap1\n      pop\n        /* \"#utility.yul\":30433:30577   */\n      swap2\n      swap1\n      pop\n      jump\t// out\n        /* \"#utility.yul\":30583:30693   */\n    tag_364:\n        /* \"#utility.yul\":30650:30654   */\n      0x00\n        /* \"#utility.yul\":30682:30686   */\n      0x01\n        /* \"#utility.yul\":30677:30680   */\n      dup3\n        /* \"#utility.yul\":30673:30687   */\n      add\n        /* \"#utility.yul\":30665:30687   */\n      swap1\n      pop\n        /* \"#utility.yul\":30583:30693   */\n      swap2\n      swap1\n      pop\n      jump\t// out\n        /* \"#utility.yul\":30729:31504   */\n    tag_365:\n        /* \"#utility.yul\":30853:30856   */\n      0x00\n        /* \"#utility.yul\":30882:30933   */\n      tag_666\n        /* \"#utility.yul\":30927:30932   */\n      dup3\n        /* \"#utility.yul\":30882:30933   */\n      tag_355\n      jump\t// in\n    tag_666:\n        /* \"#utility.yul\":30949:31043   */\n      tag_667\n        /* \"#utility.yul\":31036:31042   */\n      dup2\n        /* \"#utility.yul\":31031:31034   */\n      dup6\n        /* \"#utility.yul\":30949:31043   */\n      tag_356\n      jump\t// in\n    tag_667:\n        /* \"#utility.yul\":30942:31043   */\n      swap4\n      pop\n        /* \"#utility.yul\":31067:31120   */\n      tag_668\n        /* \"#utility.yul\":31114:31119   */\n      dup4\n        /* \"#utility.yul\":31067:31120   */\n      tag_357\n      jump\t// in\n    tag_668:\n        /* \"#utility.yul\":31143:31150   */\n      dup1\n        /* \"#utility.yul\":31174:31175   */\n      0x00\n        /* \"#utility.yul\":31159:31479   */\n    tag_669:\n        /* \"#utility.yul\":31184:31190   */\n      dup4\n        /* \"#utility.yul\":31181:31182   */\n      dup2\n        /* \"#utility.yul\":31178:31191   */\n      lt\n        /* \"#utility.yul\":31159:31479   */\n      iszero\n      tag_671\n      jumpi\n        /* \"#utility.yul\":31254:31298   */\n      tag_672\n        /* \"#utility.yul\":31291:31297   */\n      dup3\n        /* \"#utility.yul\":31254:31298   */\n      tag_363\n      jump\t// in\n    tag_672:\n        /* \"#utility.yul\":31318:31389   */\n      tag_673\n        /* \"#utility.yul\":31385:31388   */\n      dup9\n        /* \"#utility.yul\":31370:31383   */\n      dup3\n        /* \"#utility.yul\":31318:31389   */\n      tag_359\n      jump\t// in\n    tag_673:\n        /* \"#utility.yul\":31311:31389   */\n      swap8\n      pop\n        /* \"#utility.yul\":31412:31469   */\n      tag_674\n        /* \"#utility.yul\":31462:31468   */\n      dup4\n        /* \"#utility.yul\":31412:31469   */\n      tag_364\n      jump\t// in\n    tag_674:\n        /* \"#utility.yul\":31402:31469   */\n      swap3\n      pop\n        /* \"#utility.yul\":31219:31479   */\n      pop\n        /* \"#utility.yul\":31206:31207   */\n      0x01\n        /* \"#utility.yul\":31203:31204   */\n      dup2\n        /* \"#utility.yul\":31199:31208   */\n      add\n        /* \"#utility.yul\":31194:31208   */\n      swap1\n      pop\n        /* \"#utility.yul\":31159:31479   */\n      jump(tag_669)\n    tag_671:\n        /* \"#utility.yul\":31163:31177   */\n      pop\n        /* \"#utility.yul\":31495:31498   */\n      dup6\n        /* \"#utility.yul\":31488:31498   */\n      swap4\n      pop\n        /* \"#utility.yul\":30858:31504   */\n      pop\n      pop\n      pop\n        /* \"#utility.yul\":30729:31504   */\n      swap3\n      swap2\n      pop\n      pop\n      jump\t// out\n        /* \"#utility.yul\":31510:31636   */\n    tag_366:\n        /* \"#utility.yul\":31605:31629   */\n      tag_676\n        /* \"#utility.yul\":31623:31628   */\n      dup2\n        /* \"#utility.yul\":31605:31629   */\n      tag_296\n      jump\t// in\n    tag_676:\n        /* \"#utility.yul\":31600:31603   */\n      dup3\n        /* \"#utility.yul\":31593:31630   */\n      mstore\n        /* \"#utility.yul\":31510:31636   */\n      pop\n      pop\n      jump\t// out\n        /* \"#utility.yul\":31642:32143   */\n    tag_158:\n        /* \"#utility.yul\":31818:31822   */\n      0x00\n        /* \"#utility.yul\":31856:31858   */\n      0x40\n        /* \"#utility.yul\":31845:31854   */\n      dup3\n        /* \"#utility.yul\":31841:31859   */\n      add\n        /* \"#utility.yul\":31833:31859   */\n      swap1\n      pop\n        /* \"#utility.yul\":31905:31914   */\n      dup2\n        /* \"#utility.yul\":31899:31903   */\n      dup2\n        /* \"#utility.yul\":31895:31915   */\n      sub\n        /* \"#utility.yul\":31891:31892   */\n      0x00\n        /* \"#utility.yul\":31880:31889   */\n      dup4\n        /* \"#utility.yul\":31876:31893   */\n      add\n        /* \"#utility.yul\":31869:31916   */\n      mstore\n        /* \"#utility.yul\":31933:32046   */\n      tag_678\n        /* \"#utility.yul\":32041:32045   */\n      dup2\n        /* \"#utility.yul\":32032:32038   */\n      dup6\n        /* \"#utility.yul\":31933:32046   */\n      tag_365\n      jump\t// in\n    tag_678:\n        /* \"#utility.yul\":31925:32046   */\n      swap1\n      pop\n        /* \"#utility.yul\":32056:32136   */\n      tag_679\n        /* \"#utility.yul\":32132:32134   */\n      0x20\n        /* \"#utility.yul\":32121:32130   */\n      dup4\n        /* \"#utility.yul\":32117:32135   */\n      add\n        /* \"#utility.yul\":32108:32114   */\n      dup5\n        /* \"#utility.yul\":32056:32136   */\n      tag_366\n      jump\t// in\n    tag_679:\n        /* \"#utility.yul\":31642:32143   */\n      swap4\n      swap3\n      pop\n      pop\n      pop\n      jump\t// out\n        /* \"#utility.yul\":32149:32500   */\n    tag_162:\n        /* \"#utility.yul\":32219:32225   */\n      0x00\n        /* \"#utility.yul\":32268:32270   */\n      0x20\n        /* \"#utility.yul\":32256:32265   */\n      dup3\n        /* \"#utility.yul\":32247:32254   */\n      dup5\n        /* \"#utility.yul\":32243:32266   */\n      sub\n        /* \"#utility.yul\":32239:32271   */\n      slt\n        /* \"#utility.yul\":32236:32355   */\n      iszero\n      tag_681\n      jumpi\n        /* \"#utility.yul\":32274:32353   */\n      tag_682\n      tag_283\n      jump\t// in\n    tag_682:\n        /* \"#utility.yul\":32236:32355   */\n    tag_681:\n        /* \"#utility.yul\":32394:32395   */\n      0x00\n        /* \"#utility.yul\":32419:32483   */\n      tag_683\n        /* \"#utility.yul\":32475:32482   */\n      dup5\n        /* \"#utility.yul\":32466:32472   */\n      dup3\n        /* \"#utility.yul\":32455:32464   */\n      dup6\n        /* \"#utility.yul\":32451:32473   */\n      add\n        /* \"#utility.yul\":32419:32483   */\n      tag_345\n      jump\t// in\n    tag_683:\n        /* \"#utility.yul\":32409:32483   */\n      swap2\n      pop\n        /* \"#utility.yul\":32365:32493   */\n      pop\n        /* \"#utility.yul\":32149:32500   */\n      swap3\n      swap2\n      pop\n      pop\n      jump\t// out\n        /* \"#utility.yul\":32506:32632   */\n    tag_367:\n        /* \"#utility.yul\":32601:32625   */\n      tag_685\n        /* \"#utility.yul\":32619:32624   */\n      dup2\n        /* \"#utility.yul\":32601:32625   */\n      tag_285\n      jump\t// in\n    tag_685:\n        /* \"#utility.yul\":32596:32599   */\n      dup3\n        /* \"#utility.yul\":32589:32626   */\n      mstore\n        /* \"#utility.yul\":32506:32632   */\n      pop\n      pop\n      jump\t// out\n        /* \"#utility.yul\":32638:33139   */\n    tag_164:\n        /* \"#utility.yul\":32814:32818   */\n      0x00\n        /* \"#utility.yul\":32852:32854   */\n      0x40\n        /* \"#utility.yul\":32841:32850   */\n      dup3\n        /* \"#utility.yul\":32837:32855   */\n      add\n        /* \"#utility.yul\":32829:32855   */\n      swap1\n      pop\n        /* \"#utility.yul\":32901:32910   */\n      dup2\n        /* \"#utility.yul\":32895:32899   */\n      dup2\n        /* \"#utility.yul\":32891:32911   */\n      sub\n        /* \"#utility.yul\":32887:32888   */\n      0x00\n        /* \"#utility.yul\":32876:32885   */\n      dup4\n        /* \"#utility.yul\":32872:32889   */\n      add\n        /* \"#utility.yul\":32865:32912   */\n      mstore\n        /* \"#utility.yul\":32929:33042   */\n      tag_687\n        /* \"#utility.yul\":33037:33041   */\n      dup2\n        /* \"#utility.yul\":33028:33034   */\n      dup6\n        /* \"#utility.yul\":32929:33042   */\n      tag_365\n      jump\t// in\n    tag_687:\n        /* \"#utility.yul\":32921:33042   */\n      swap1\n      pop\n        /* \"#utility.yul\":33052:33132   */\n      tag_688\n        /* \"#utility.yul\":33128:33130   */\n      0x20\n        /* \"#utility.yul\":33117:33126   */\n      dup4\n        /* \"#utility.yul\":33113:33131   */\n      add\n        /* \"#utility.yul\":33104:33110   */\n      dup5\n        /* \"#utility.yul\":33052:33132   */\n      tag_367\n      jump\t// in\n    tag_688:\n        /* \"#utility.yul\":32638:33139   */\n      swap4\n      swap3\n      pop\n      pop\n      pop\n      jump\t// out\n        /* \"#utility.yul\":33145:33456   */\n    tag_368:\n        /* \"#utility.yul\":33222:33226   */\n      0x00\n        /* \"#utility.yul\":33312:33330   */\n      0xffffffffffffffff\n        /* \"#utility.yul\":33304:33310   */\n      dup3\n        /* \"#utility.yul\":33301:33331   */\n      gt\n        /* \"#utility.yul\":33298:33354   */\n      iszero\n      tag_690\n      jumpi\n        /* \"#utility.yul\":33334:33352   */\n      tag_691\n      tag_336\n      jump\t// in\n    tag_691:\n        /* \"#utility.yul\":33298:33354   */\n    tag_690:\n        /* \"#utility.yul\":33384:33388   */\n      0x20\n        /* \"#utility.yul\":33376:33382   */\n      dup3\n        /* \"#utility.yul\":33372:33389   */\n      mul\n        /* \"#utility.yul\":33364:33389   */\n      swap1\n      pop\n        /* \"#utility.yul\":33444:33448   */\n      0x20\n        /* \"#utility.yul\":33438:33442   */\n      dup2\n        /* \"#utility.yul\":33434:33449   */\n      add\n        /* \"#utility.yul\":33426:33449   */\n      swap1\n      pop\n        /* \"#utility.yul\":33145:33456   */\n      swap2\n      swap1\n      pop\n      jump\t// out\n        /* \"#utility.yul\":33479:34211   */\n    tag_369:\n        /* \"#utility.yul\":33586:33591   */\n      0x00\n        /* \"#utility.yul\":33611:33692   */\n      tag_693\n        /* \"#utility.yul\":33627:33691   */\n      tag_694\n        /* \"#utility.yul\":33684:33690   */\n      dup5\n        /* \"#utility.yul\":33627:33691   */\n      tag_368\n      jump\t// in\n    tag_694:\n        /* \"#utility.yul\":33611:33692   */\n      tag_338\n      jump\t// in\n    tag_693:\n        /* \"#utility.yul\":33602:33692   */\n      swap1\n      pop\n        /* \"#utility.yul\":33712:33717   */\n      dup1\n        /* \"#utility.yul\":33741:33747   */\n      dup4\n        /* \"#utility.yul\":33734:33739   */\n      dup3\n        /* \"#utility.yul\":33727:33748   */\n      mstore\n        /* \"#utility.yul\":33775:33779   */\n      0x20\n        /* \"#utility.yul\":33768:33773   */\n      dup3\n        /* \"#utility.yul\":33764:33780   */\n      add\n        /* \"#utility.yul\":33757:33780   */\n      swap1\n      pop\n        /* \"#utility.yul\":33828:33832   */\n      0x20\n        /* \"#utility.yul\":33820:33826   */\n      dup5\n        /* \"#utility.yul\":33816:33833   */\n      mul\n        /* \"#utility.yul\":33808:33814   */\n      dup4\n        /* \"#utility.yul\":33804:33834   */\n      add\n        /* \"#utility.yul\":33857:33860   */\n      dup6\n        /* \"#utility.yul\":33849:33855   */\n      dup2\n        /* \"#utility.yul\":33846:33861   */\n      gt\n        /* \"#utility.yul\":33843:33965   */\n      iszero\n      tag_695\n      jumpi\n        /* \"#utility.yul\":33876:33955   */\n      tag_696\n      tag_290\n      jump\t// in\n    tag_696:\n        /* \"#utility.yul\":33843:33965   */\n    tag_695:\n        /* \"#utility.yul\":33991:33997   */\n      dup4\n        /* \"#utility.yul\":33974:34205   */\n    tag_697:\n        /* \"#utility.yul\":34008:34014   */\n      dup2\n        /* \"#utility.yul\":34003:34006   */\n      dup2\n        /* \"#utility.yul\":34000:34015   */\n      lt\n        /* \"#utility.yul\":33974:34205   */\n      iszero\n      tag_699\n      jumpi\n        /* \"#utility.yul\":34083:34086   */\n      dup1\n        /* \"#utility.yul\":34112:34160   */\n      tag_700\n        /* \"#utility.yul\":34156:34159   */\n      dup9\n        /* \"#utility.yul\":34144:34154   */\n      dup3\n        /* \"#utility.yul\":34112:34160   */\n      tag_340\n      jump\t// in\n    tag_700:\n        /* \"#utility.yul\":34107:34110   */\n      dup5\n        /* \"#utility.yul\":34100:34161   */\n      mstore\n        /* \"#utility.yul\":34190:34194   */\n      0x20\n        /* \"#utility.yul\":34185:34188   */\n      dup5\n        /* \"#utility.yul\":34181:34195   */\n      add\n        /* \"#utility.yul\":34174:34195   */\n      swap4\n      pop\n        /* \"#utility.yul\":34050:34205   */\n      pop\n        /* \"#utility.yul\":34034:34038   */\n      0x20\n        /* \"#utility.yul\":34029:34032   */\n      dup2\n        /* \"#utility.yul\":34025:34039   */\n      add\n        /* \"#utility.yul\":34018:34039   */\n      swap1\n      pop\n        /* \"#utility.yul\":33974:34205   */\n      jump(tag_697)\n    tag_699:\n        /* \"#utility.yul\":33978:33999   */\n      pop\n        /* \"#utility.yul\":33592:34211   */\n      pop\n      pop\n        /* \"#utility.yul\":33479:34211   */\n      swap4\n      swap3\n      pop\n      pop\n      pop\n      jump\t// out\n        /* \"#utility.yul\":34234:34619   */\n    tag_370:\n        /* \"#utility.yul\":34316:34321   */\n      0x00\n        /* \"#utility.yul\":34365:34368   */\n      dup3\n        /* \"#utility.yul\":34358:34362   */\n      0x1f\n        /* \"#utility.yul\":34350:34356   */\n      dup4\n        /* \"#utility.yul\":34346:34363   */\n      add\n        /* \"#utility.yul\":34342:34369   */\n      slt\n        /* \"#utility.yul\":34332:34454   */\n      tag_702\n      jumpi\n        /* \"#utility.yul\":34373:34452   */\n      tag_703\n      tag_288\n      jump\t// in\n    tag_703:\n        /* \"#utility.yul\":34332:34454   */\n    tag_702:\n        /* \"#utility.yul\":34483:34489   */\n      dup2\n        /* \"#utility.yul\":34477:34490   */\n      mload\n        /* \"#utility.yul\":34508:34613   */\n      tag_704\n        /* \"#utility.yul\":34609:34612   */\n      dup5\n        /* \"#utility.yul\":34601:34607   */\n      dup3\n        /* \"#utility.yul\":34594:34598   */\n      0x20\n        /* \"#utility.yul\":34586:34592   */\n      dup7\n        /* \"#utility.yul\":34582:34599   */\n      add\n        /* \"#utility.yul\":34508:34613   */\n      tag_369\n      jump\t// in\n    tag_704:\n        /* \"#utility.yul\":34499:34613   */\n      swap2\n      pop\n        /* \"#utility.yul\":34322:34619   */\n      pop\n        /* \"#utility.yul\":34234:34619   */\n      swap3\n      swap2\n      pop\n      pop\n      jump\t// out\n        /* \"#utility.yul\":34625:35179   */\n    tag_168:\n        /* \"#utility.yul\":34720:34726   */\n      0x00\n        /* \"#utility.yul\":34769:34771   */\n      0x20\n        /* \"#utility.yul\":34757:34766   */\n      dup3\n        /* \"#utility.yul\":34748:34755   */\n      dup5\n        /* \"#utility.yul\":34744:34767   */\n      sub\n        /* \"#utility.yul\":34740:34772   */\n      slt\n        /* \"#utility.yul\":34737:34856   */\n      iszero\n      tag_706\n      jumpi\n        /* \"#utility.yul\":34775:34854   */\n      tag_707\n      tag_283\n      jump\t// in\n    tag_707:\n        /* \"#utility.yul\":34737:34856   */\n    tag_706:\n        /* \"#utility.yul\":34916:34917   */\n      0x00\n        /* \"#utility.yul\":34905:34914   */\n      dup3\n        /* \"#utility.yul\":34901:34918   */\n      add\n        /* \"#utility.yul\":34895:34919   */\n      mload\n        /* \"#utility.yul\":34946:34964   */\n      0xffffffffffffffff\n        /* \"#utility.yul\":34938:34944   */\n      dup2\n        /* \"#utility.yul\":34935:34965   */\n      gt\n        /* \"#utility.yul\":34932:35049   */\n      iszero\n      tag_708\n      jumpi\n        /* \"#utility.yul\":34968:35047   */\n      tag_709\n      tag_284\n      jump\t// in\n    tag_709:\n        /* \"#utility.yul\":34932:35049   */\n    tag_708:\n        /* \"#utility.yul\":35073:35162   */\n      tag_710\n        /* \"#utility.yul\":35154:35161   */\n      dup5\n        /* \"#utility.yul\":35145:35151   */\n      dup3\n        /* \"#utility.yul\":35134:35143   */\n      dup6\n        /* \"#utility.yul\":35130:35152   */\n      add\n        /* \"#utility.yul\":35073:35162   */\n      tag_370\n      jump\t// in\n    tag_710:\n        /* \"#utility.yul\":35063:35162   */\n      swap2\n      pop\n        /* \"#utility.yul\":34866:35172   */\n      pop\n        /* \"#utility.yul\":34625:35179   */\n      swap3\n      swap2\n      pop\n      pop\n      jump\t// out\n        /* \"#utility.yul\":35185:35365   */\n    tag_371:\n        /* \"#utility.yul\":35233:35310   */\n      0x4e487b7100000000000000000000000000000000000000000000000000000000\n        /* \"#utility.yul\":35230:35231   */\n      0x00\n        /* \"#utility.yul\":35223:35311   */\n      mstore\n        /* \"#utility.yul\":35330:35334   */\n      0x22\n        /* \"#utility.yul\":35327:35328   */\n      0x04\n        /* \"#utility.yul\":35320:35335   */\n      mstore\n        /* \"#utility.yul\":35354:35358   */\n      0x24\n        /* \"#utility.yul\":35351:35352   */\n      0x00\n        /* \"#utility.yul\":35344:35359   */\n      revert\n        /* \"#utility.yul\":35371:35691   */\n    tag_187:\n        /* \"#utility.yul\":35415:35421   */\n      0x00\n        /* \"#utility.yul\":35452:35453   */\n      0x02\n        /* \"#utility.yul\":35446:35450   */\n      dup3\n        /* \"#utility.yul\":35442:35454   */\n      div\n        /* \"#utility.yul\":35432:35454   */\n      swap1\n      pop\n        /* \"#utility.yul\":35499:35500   */\n      0x01\n        /* \"#utility.yul\":35493:35497   */\n      dup3\n        /* \"#utility.yul\":35489:35501   */\n      and\n        /* \"#utility.yul\":35520:35538   */\n      dup1\n        /* \"#utility.yul\":35510:35591   */\n      tag_713\n      jumpi\n        /* \"#utility.yul\":35576:35580   */\n      0x7f\n        /* \"#utility.yul\":35568:35574   */\n      dup3\n        /* \"#utility.yul\":35564:35581   */\n      and\n        /* \"#utility.yul\":35554:35581   */\n      swap2\n      pop\n        /* \"#utility.yul\":35510:35591   */\n    tag_713:\n        /* \"#utility.yul\":35638:35640   */\n      0x20\n        /* \"#utility.yul\":35630:35636   */\n      dup3\n        /* \"#utility.yul\":35627:35641   */\n      lt\n        /* \"#utility.yul\":35607:35625   */\n      dup2\n        /* \"#utility.yul\":35604:35642   */\n      sub\n        /* \"#utility.yul\":35601:35685   */\n      tag_714\n      jumpi\n        /* \"#utility.yul\":35657:35675   */\n      tag_715\n      tag_371\n      jump\t// in\n    tag_715:\n        /* \"#utility.yul\":35601:35685   */\n    tag_714:\n        /* \"#utility.yul\":35422:35691   */\n      pop\n        /* \"#utility.yul\":35371:35691   */\n      swap2\n      swap1\n      pop\n      jump\t// out\n        /* \"#utility.yul\":35697:35802   */\n    tag_372:\n        /* \"#utility.yul\":35733:35740   */\n      0x00\n        /* \"#utility.yul\":35773:35795   */\n      0xffffffffffffffffffff\n        /* \"#utility.yul\":35766:35771   */\n      dup3\n        /* \"#utility.yul\":35762:35796   */\n      and\n        /* \"#utility.yul\":35751:35796   */\n      swap1\n      pop\n        /* \"#utility.yul\":35697:35802   */\n      swap2\n      swap1\n      pop\n      jump\t// out\n        /* \"#utility.yul\":35808:35928   */\n    tag_373:\n        /* \"#utility.yul\":35880:35903   */\n      tag_718\n        /* \"#utility.yul\":35897:35902   */\n      dup2\n        /* \"#utility.yul\":35880:35903   */\n      tag_372\n      jump\t// in\n    tag_718:\n        /* \"#utility.yul\":35873:35878   */\n      dup2\n        /* \"#utility.yul\":35870:35904   */\n      eq\n        /* \"#utility.yul\":35860:35922   */\n      tag_719\n      jumpi\n        /* \"#utility.yul\":35918:35919   */\n      0x00\n        /* \"#utility.yul\":35915:35916   */\n      dup1\n        /* \"#utility.yul\":35908:35920   */\n      revert\n        /* \"#utility.yul\":35860:35922   */\n    tag_719:\n        /* \"#utility.yul\":35808:35928   */\n      pop\n      jump\t// out\n        /* \"#utility.yul\":35934:36075   */\n    tag_374:\n        /* \"#utility.yul\":35990:35995   */\n      0x00\n        /* \"#utility.yul\":36021:36027   */\n      dup2\n        /* \"#utility.yul\":36015:36028   */\n      mload\n        /* \"#utility.yul\":36006:36028   */\n      swap1\n      pop\n        /* \"#utility.yul\":36037:36069   */\n      tag_721\n        /* \"#utility.yul\":36063:36068   */\n      dup2\n        /* \"#utility.yul\":36037:36069   */\n      tag_373\n      jump\t// in\n    tag_721:\n        /* \"#utility.yul\":35934:36075   */\n      swap3\n      swap2\n      pop\n      pop\n      jump\t// out\n        /* \"#utility.yul\":36081:36157   */\n    tag_375:\n        /* \"#utility.yul\":36117:36124   */\n      0x00\n        /* \"#utility.yul\":36146:36151   */\n      dup2\n        /* \"#utility.yul\":36135:36151   */\n      swap1\n      pop\n        /* \"#utility.yul\":36081:36157   */\n      swap2\n      swap1\n      pop\n      jump\t// out\n        /* \"#utility.yul\":36163:36283   */\n    tag_376:\n        /* \"#utility.yul\":36235:36258   */\n      tag_724\n        /* \"#utility.yul\":36252:36257   */\n      dup2\n        /* \"#utility.yul\":36235:36258   */\n      tag_375\n      jump\t// in\n    tag_724:\n        /* \"#utility.yul\":36228:36233   */\n      dup2\n        /* \"#utility.yul\":36225:36259   */\n      eq\n        /* \"#utility.yul\":36215:36277   */\n      tag_725\n      jumpi\n        /* \"#utility.yul\":36273:36274   */\n      0x00\n        /* \"#utility.yul\":36270:36271   */\n      dup1\n        /* \"#utility.yul\":36263:36275   */\n      revert\n        /* \"#utility.yul\":36215:36277   */\n    tag_725:\n        /* \"#utility.yul\":36163:36283   */\n      pop\n      jump\t// out\n        /* \"#utility.yul\":36289:36430   */\n    tag_377:\n        /* \"#utility.yul\":36345:36350   */\n      0x00\n        /* \"#utility.yul\":36376:36382   */\n      dup2\n        /* \"#utility.yul\":36370:36383   */\n      mload\n        /* \"#utility.yul\":36361:36383   */\n      swap1\n      pop\n        /* \"#utility.yul\":36392:36424   */\n      tag_727\n        /* \"#utility.yul\":36418:36423   */\n      dup2\n        /* \"#utility.yul\":36392:36424   */\n      tag_376\n      jump\t// in\n    tag_727:\n        /* \"#utility.yul\":36289:36430   */\n      swap3\n      swap2\n      pop\n      pop\n      jump\t// out\n        /* \"#utility.yul\":36436:37407   */\n    tag_202:\n        /* \"#utility.yul\":36539:36545   */\n      0x00\n        /* \"#utility.yul\":36547:36553   */\n      dup1\n        /* \"#utility.yul\":36555:36561   */\n      0x00\n        /* \"#utility.yul\":36563:36569   */\n      dup1\n        /* \"#utility.yul\":36571:36577   */\n      0x00\n        /* \"#utility.yul\":36620:36623   */\n      0xa0\n        /* \"#utility.yul\":36608:36617   */\n      dup7\n        /* \"#utility.yul\":36599:36606   */\n      dup9\n        /* \"#utility.yul\":36595:36618   */\n      sub\n        /* \"#utility.yul\":36591:36624   */\n      slt\n        /* \"#utility.yul\":36588:36708   */\n      iszero\n      tag_729\n      jumpi\n        /* \"#utility.yul\":36627:36706   */\n      tag_730\n      tag_283\n      jump\t// in\n    tag_730:\n        /* \"#utility.yul\":36588:36708   */\n    tag_729:\n        /* \"#utility.yul\":36747:36748   */\n      0x00\n        /* \"#utility.yul\":36772:36835   */\n      tag_731\n        /* \"#utility.yul\":36827:36834   */\n      dup9\n        /* \"#utility.yul\":36818:36824   */\n      dup3\n        /* \"#utility.yul\":36807:36816   */\n      dup10\n        /* \"#utility.yul\":36803:36825   */\n      add\n        /* \"#utility.yul\":36772:36835   */\n      tag_374\n      jump\t// in\n    tag_731:\n        /* \"#utility.yul\":36762:36835   */\n      swap6\n      pop\n        /* \"#utility.yul\":36718:36845   */\n      pop\n        /* \"#utility.yul\":36884:36886   */\n      0x20\n        /* \"#utility.yul\":36910:36973   */\n      tag_732\n        /* \"#utility.yul\":36965:36972   */\n      dup9\n        /* \"#utility.yul\":36956:36962   */\n      dup3\n        /* \"#utility.yul\":36945:36954   */\n      dup10\n        /* \"#utility.yul\":36941:36963   */\n      add\n        /* \"#utility.yul\":36910:36973   */\n      tag_377\n      jump\t// in\n    tag_732:\n        /* \"#utility.yul\":36900:36973   */\n      swap5\n      pop\n        /* \"#utility.yul\":36855:36983   */\n      pop\n        /* \"#utility.yul\":37022:37024   */\n      0x40\n        /* \"#utility.yul\":37048:37112   */\n      tag_733\n        /* \"#utility.yul\":37104:37111   */\n      dup9\n        /* \"#utility.yul\":37095:37101   */\n      dup3\n        /* \"#utility.yul\":37084:37093   */\n      dup10\n        /* \"#utility.yul\":37080:37102   */\n      add\n        /* \"#utility.yul\":37048:37112   */\n      tag_345\n      jump\t// in\n    tag_733:\n        /* \"#utility.yul\":37038:37112   */\n      swap4\n      pop\n        /* \"#utility.yul\":36993:37122   */\n      pop\n        /* \"#utility.yul\":37161:37163   */\n      0x60\n        /* \"#utility.yul\":37187:37251   */\n      tag_734\n        /* \"#utility.yul\":37243:37250   */\n      dup9\n        /* \"#utility.yul\":37234:37240   */\n      dup3\n        /* \"#utility.yul\":37223:37232   */\n      dup10\n        /* \"#utility.yul\":37219:37241   */\n      add\n        /* \"#utility.yul\":37187:37251   */\n      tag_345\n      jump\t// in\n    tag_734:\n        /* \"#utility.yul\":37177:37251   */\n      swap3\n      pop\n        /* \"#utility.yul\":37132:37261   */\n      pop\n        /* \"#utility.yul\":37300:37303   */\n      0x80\n        /* \"#utility.yul\":37327:37390   */\n      tag_735\n        /* \"#utility.yul\":37382:37389   */\n      dup9\n        /* \"#utility.yul\":37373:37379   */\n      dup3\n        /* \"#utility.yul\":37362:37371   */\n      dup10\n        /* \"#utility.yul\":37358:37380   */\n      add\n        /* \"#utility.yul\":37327:37390   */\n      tag_374\n      jump\t// in\n    tag_735:\n        /* \"#utility.yul\":37317:37390   */\n      swap2\n      pop\n        /* \"#utility.yul\":37271:37400   */\n      pop\n        /* \"#utility.yul\":36436:37407   */\n      swap3\n      swap6\n      pop\n      swap3\n      swap6\n      swap1\n      swap4\n      pop\n      jump\t// out\n        /* \"#utility.yul\":37413:37593   */\n    tag_378:\n        /* \"#utility.yul\":37461:37538   */\n      0x4e487b7100000000000000000000000000000000000000000000000000000000\n        /* \"#utility.yul\":37458:37459   */\n      0x00\n        /* \"#utility.yul\":37451:37539   */\n      mstore\n        /* \"#utility.yul\":37558:37562   */\n      0x12\n        /* \"#utility.yul\":37555:37556   */\n      0x04\n        /* \"#utility.yul\":37548:37563   */\n      mstore\n        /* \"#utility.yul\":37582:37586   */\n      0x24\n        /* \"#utility.yul\":37579:37580   */\n      0x00\n        /* \"#utility.yul\":37572:37587   */\n      revert\n        /* \"#utility.yul\":37599:37779   */\n    tag_379:\n        /* \"#utility.yul\":37647:37724   */\n      0x4e487b7100000000000000000000000000000000000000000000000000000000\n        /* \"#utility.yul\":37644:37645   */\n      0x00\n        /* \"#utility.yul\":37637:37725   */\n      mstore\n        /* \"#utility.yul\":37744:37748   */\n      0x11\n        /* \"#utility.yul\":37741:37742   */\n      0x04\n        /* \"#utility.yul\":37734:37749   */\n      mstore\n        /* \"#utility.yul\":37768:37772   */\n      0x24\n        /* \"#utility.yul\":37765:37766   */\n      0x00\n        /* \"#utility.yul\":37758:37773   */\n      revert\n        /* \"#utility.yul\":37785:37970   */\n    tag_204:\n        /* \"#utility.yul\":37825:37826   */\n      0x00\n        /* \"#utility.yul\":37842:37862   */\n      tag_739\n        /* \"#utility.yul\":37860:37861   */\n      dup3\n        /* \"#utility.yul\":37842:37862   */\n      tag_285\n      jump\t// in\n    tag_739:\n        /* \"#utility.yul\":37837:37862   */\n      swap2\n      pop\n        /* \"#utility.yul\":37876:37896   */\n      tag_740\n        /* \"#utility.yul\":37894:37895   */\n      dup4\n        /* \"#utility.yul\":37876:37896   */\n      tag_285\n      jump\t// in\n    tag_740:\n        /* \"#utility.yul\":37871:37896   */\n      swap3\n      pop\n        /* \"#utility.yul\":37915:37916   */\n      dup3\n        /* \"#utility.yul\":37905:37940   */\n      tag_741\n      jumpi\n        /* \"#utility.yul\":37920:37938   */\n      tag_742\n      tag_378\n      jump\t// in\n    tag_742:\n        /* \"#utility.yul\":37905:37940   */\n    tag_741:\n        /* \"#utility.yul\":37962:37963   */\n      dup3\n        /* \"#utility.yul\":37959:37960   */\n      dup3\n        /* \"#utility.yul\":37955:37964   */\n      div\n        /* \"#utility.yul\":37950:37964   */\n      swap1\n      pop\n        /* \"#utility.yul\":37785:37970   */\n      swap3\n      swap2\n      pop\n      pop\n      jump\t// out\n        /* \"#utility.yul\":37976:38167   */\n    tag_219:\n        /* \"#utility.yul\":38016:38019   */\n      0x00\n        /* \"#utility.yul\":38035:38055   */\n      tag_744\n        /* \"#utility.yul\":38053:38054   */\n      dup3\n        /* \"#utility.yul\":38035:38055   */\n      tag_285\n      jump\t// in\n    tag_744:\n        /* \"#utility.yul\":38030:38055   */\n      swap2\n      pop\n        /* \"#utility.yul\":38069:38089   */\n      tag_745\n        /* \"#utility.yul\":38087:38088   */\n      dup4\n        /* \"#utility.yul\":38069:38089   */\n      tag_285\n      jump\t// in\n    tag_745:\n        /* \"#utility.yul\":38064:38089   */\n      swap3\n      pop\n        /* \"#utility.yul\":38112:38113   */\n      dup3\n        /* \"#utility.yul\":38109:38110   */\n      dup3\n        /* \"#utility.yul\":38105:38114   */\n      add\n        /* \"#utility.yul\":38098:38114   */\n      swap1\n      pop\n        /* \"#utility.yul\":38133:38136   */\n      dup1\n        /* \"#utility.yul\":38130:38131   */\n      dup3\n        /* \"#utility.yul\":38127:38137   */\n      gt\n        /* \"#utility.yul\":38124:38160   */\n      iszero\n      tag_746\n      jumpi\n        /* \"#utility.yul\":38140:38158   */\n      tag_747\n      tag_379\n      jump\t// in\n    tag_747:\n        /* \"#utility.yul\":38124:38160   */\n    tag_746:\n        /* \"#utility.yul\":37976:38167   */\n      swap3\n      swap2\n      pop\n      pop\n      jump\t// out\n        /* \"#utility.yul\":38173:38510   */\n    tag_380:\n        /* \"#utility.yul\":38276:38280   */\n      0x00\n        /* \"#utility.yul\":38366:38384   */\n      0xffffffffffffffff\n        /* \"#utility.yul\":38358:38364   */\n      dup3\n        /* \"#utility.yul\":38355:38385   */\n      gt\n        /* \"#utility.yul\":38352:38408   */\n      iszero\n      tag_749\n      jumpi\n        /* \"#utility.yul\":38388:38406   */\n      tag_750\n      tag_336\n      jump\t// in\n    tag_750:\n        /* \"#utility.yul\":38352:38408   */\n    tag_749:\n        /* \"#utility.yul\":38438:38442   */\n      0x20\n        /* \"#utility.yul\":38430:38436   */\n      dup3\n        /* \"#utility.yul\":38426:38443   */\n      mul\n        /* \"#utility.yul\":38418:38443   */\n      swap1\n      pop\n        /* \"#utility.yul\":38498:38502   */\n      0x20\n        /* \"#utility.yul\":38492:38496   */\n      dup2\n        /* \"#utility.yul\":38488:38503   */\n      add\n        /* \"#utility.yul\":38480:38503   */\n      swap1\n      pop\n        /* \"#utility.yul\":38173:38510   */\n      swap2\n      swap1\n      pop\n      jump\t// out\n        /* \"#utility.yul\":38541:39549   */\n    tag_381:\n        /* \"#utility.yul\":38674:38679   */\n      0x00\n        /* \"#utility.yul\":38699:38806   */\n      tag_752\n        /* \"#utility.yul\":38715:38805   */\n      tag_753\n        /* \"#utility.yul\":38798:38804   */\n      dup5\n        /* \"#utility.yul\":38715:38805   */\n      tag_380\n      jump\t// in\n    tag_753:\n        /* \"#utility.yul\":38699:38806   */\n      tag_338\n      jump\t// in\n    tag_752:\n        /* \"#utility.yul\":38690:38806   */\n      swap1\n      pop\n        /* \"#utility.yul\":38826:38831   */\n      dup1\n        /* \"#utility.yul\":38855:38861   */\n      dup4\n        /* \"#utility.yul\":38848:38853   */\n      dup3\n        /* \"#utility.yul\":38841:38862   */\n      mstore\n        /* \"#utility.yul\":38889:38893   */\n      0x20\n        /* \"#utility.yul\":38882:38887   */\n      dup3\n        /* \"#utility.yul\":38878:38894   */\n      add\n        /* \"#utility.yul\":38871:38894   */\n      swap1\n      pop\n        /* \"#utility.yul\":38942:38946   */\n      0x20\n        /* \"#utility.yul\":38934:38940   */\n      dup5\n        /* \"#utility.yul\":38930:38947   */\n      mul\n        /* \"#utility.yul\":38922:38928   */\n      dup4\n        /* \"#utility.yul\":38918:38948   */\n      add\n        /* \"#utility.yul\":38971:38974   */\n      dup6\n        /* \"#utility.yul\":38963:38969   */\n      dup2\n        /* \"#utility.yul\":38960:38975   */\n      gt\n        /* \"#utility.yul\":38957:39079   */\n      iszero\n      tag_754\n      jumpi\n        /* \"#utility.yul\":38990:39069   */\n      tag_755\n      tag_290\n      jump\t// in\n    tag_755:\n        /* \"#utility.yul\":38957:39079   */\n    tag_754:\n        /* \"#utility.yul\":39105:39111   */\n      dup4\n        /* \"#utility.yul\":39088:39543   */\n    tag_756:\n        /* \"#utility.yul\":39122:39128   */\n      dup2\n        /* \"#utility.yul\":39117:39120   */\n      dup2\n        /* \"#utility.yul\":39114:39129   */\n      lt\n        /* \"#utility.yul\":39088:39543   */\n      iszero\n      tag_758\n      jumpi\n        /* \"#utility.yul\":39204:39207   */\n      dup1\n        /* \"#utility.yul\":39198:39208   */\n      mload\n        /* \"#utility.yul\":39240:39258   */\n      0xffffffffffffffff\n        /* \"#utility.yul\":39227:39238   */\n      dup2\n        /* \"#utility.yul\":39224:39259   */\n      gt\n        /* \"#utility.yul\":39221:39343   */\n      iszero\n      tag_759\n      jumpi\n        /* \"#utility.yul\":39262:39341   */\n      tag_760\n      tag_288\n      jump\t// in\n    tag_760:\n        /* \"#utility.yul\":39221:39343   */\n    tag_759:\n        /* \"#utility.yul\":39386:39397   */\n      dup1\n        /* \"#utility.yul\":39378:39384   */\n      dup7\n        /* \"#utility.yul\":39374:39398   */\n      add\n        /* \"#utility.yul\":39424:39498   */\n      tag_761\n        /* \"#utility.yul\":39494:39497   */\n      dup10\n        /* \"#utility.yul\":39482:39492   */\n      dup3\n        /* \"#utility.yul\":39424:39498   */\n      tag_348\n      jump\t// in\n    tag_761:\n        /* \"#utility.yul\":39419:39422   */\n      dup6\n        /* \"#utility.yul\":39412:39499   */\n      mstore\n        /* \"#utility.yul\":39528:39532   */\n      0x20\n        /* \"#utility.yul\":39523:39526   */\n      dup6\n        /* \"#utility.yul\":39519:39533   */\n      add\n        /* \"#utility.yul\":39512:39533   */\n      swap5\n      pop\n        /* \"#utility.yul\":39164:39543   */\n      pop\n      pop\n        /* \"#utility.yul\":39148:39152   */\n      0x20\n        /* \"#utility.yul\":39143:39146   */\n      dup2\n        /* \"#utility.yul\":39139:39153   */\n      add\n        /* \"#utility.yul\":39132:39153   */\n      swap1\n      pop\n        /* \"#utility.yul\":39088:39543   */\n      jump(tag_756)\n    tag_758:\n        /* \"#utility.yul\":39092:39113   */\n      pop\n        /* \"#utility.yul\":38680:39549   */\n      pop\n      pop\n        /* \"#utility.yul\":38541:39549   */\n      swap4\n      swap3\n      pop\n      pop\n      pop\n      jump\t// out\n        /* \"#utility.yul\":39580:40017   */\n    tag_382:\n        /* \"#utility.yul\":39688:39693   */\n      0x00\n        /* \"#utility.yul\":39737:39740   */\n      dup3\n        /* \"#utility.yul\":39730:39734   */\n      0x1f\n        /* \"#utility.yul\":39722:39728   */\n      dup4\n        /* \"#utility.yul\":39718:39735   */\n      add\n        /* \"#utility.yul\":39714:39741   */\n      slt\n        /* \"#utility.yul\":39704:39826   */\n      tag_763\n      jumpi\n        /* \"#utility.yul\":39745:39824   */\n      tag_764\n      tag_288\n      jump\t// in\n    tag_764:\n        /* \"#utility.yul\":39704:39826   */\n    tag_763:\n        /* \"#utility.yul\":39855:39861   */\n      dup2\n        /* \"#utility.yul\":39849:39862   */\n      mload\n        /* \"#utility.yul\":39880:40011   */\n      tag_765\n        /* \"#utility.yul\":40007:40010   */\n      dup5\n        /* \"#utility.yul\":39999:40005   */\n      dup3\n        /* \"#utility.yul\":39992:39996   */\n      0x20\n        /* \"#utility.yul\":39984:39990   */\n      dup7\n        /* \"#utility.yul\":39980:39997   */\n      add\n        /* \"#utility.yul\":39880:40011   */\n      tag_381\n      jump\t// in\n    tag_765:\n        /* \"#utility.yul\":39871:40011   */\n      swap2\n      pop\n        /* \"#utility.yul\":39694:40017   */\n      pop\n        /* \"#utility.yul\":39580:40017   */\n      swap3\n      swap2\n      pop\n      pop\n      jump\t// out\n        /* \"#utility.yul\":40023:40629   */\n    tag_225:\n        /* \"#utility.yul\":40144:40150   */\n      0x00\n        /* \"#utility.yul\":40193:40195   */\n      0x20\n        /* \"#utility.yul\":40181:40190   */\n      dup3\n        /* \"#utility.yul\":40172:40179   */\n      dup5\n        /* \"#utility.yul\":40168:40191   */\n      sub\n        /* \"#utility.yul\":40164:40196   */\n      slt\n        /* \"#utility.yul\":40161:40280   */\n      iszero\n      tag_767\n      jumpi\n        /* \"#utility.yul\":40199:40278   */\n      tag_768\n      tag_283\n      jump\t// in\n    tag_768:\n        /* \"#utility.yul\":40161:40280   */\n    tag_767:\n        /* \"#utility.yul\":40340:40341   */\n      0x00\n        /* \"#utility.yul\":40329:40338   */\n      dup3\n        /* \"#utility.yul\":40325:40342   */\n      add\n        /* \"#utility.yul\":40319:40343   */\n      mload\n        /* \"#utility.yul\":40370:40388   */\n      0xffffffffffffffff\n        /* \"#utility.yul\":40362:40368   */\n      dup2\n        /* \"#utility.yul\":40359:40389   */\n      gt\n        /* \"#utility.yul\":40356:40473   */\n      iszero\n      tag_769\n      jumpi\n        /* \"#utility.yul\":40392:40471   */\n      tag_770\n      tag_284\n      jump\t// in\n    tag_770:\n        /* \"#utility.yul\":40356:40473   */\n    tag_769:\n        /* \"#utility.yul\":40497:40612   */\n      tag_771\n        /* \"#utility.yul\":40604:40611   */\n      dup5\n        /* \"#utility.yul\":40595:40601   */\n      dup3\n        /* \"#utility.yul\":40584:40593   */\n      dup6\n        /* \"#utility.yul\":40580:40602   */\n      add\n        /* \"#utility.yul\":40497:40612   */\n      tag_382\n      jump\t// in\n    tag_771:\n        /* \"#utility.yul\":40487:40612   */\n      swap2\n      pop\n        /* \"#utility.yul\":40290:40622   */\n      pop\n        /* \"#utility.yul\":40023:40629   */\n      swap3\n      swap2\n      pop\n      pop\n      jump\t// out\n        /* \"#utility.yul\":40635:40776   */\n    tag_383:\n        /* \"#utility.yul\":40684:40688   */\n      0x00\n        /* \"#utility.yul\":40707:40710   */\n      dup2\n        /* \"#utility.yul\":40699:40710   */\n      swap1\n      pop\n        /* \"#utility.yul\":40730:40733   */\n      dup2\n        /* \"#utility.yul\":40727:40728   */\n      0x00\n        /* \"#utility.yul\":40720:40734   */\n      mstore\n        /* \"#utility.yul\":40764:40768   */\n      0x20\n        /* \"#utility.yul\":40761:40762   */\n      0x00\n        /* \"#utility.yul\":40751:40769   */\n      keccak256\n        /* \"#utility.yul\":40743:40769   */\n      swap1\n      pop\n        /* \"#utility.yul\":40635:40776   */\n      swap2\n      swap1\n      pop\n      jump\t// out\n        /* \"#utility.yul\":40782:40875   */\n    tag_384:\n        /* \"#utility.yul\":40819:40825   */\n      0x00\n        /* \"#utility.yul\":40866:40868   */\n      0x20\n        /* \"#utility.yul\":40861:40863   */\n      0x1f\n        /* \"#utility.yul\":40854:40859   */\n      dup4\n        /* \"#utility.yul\":40850:40864   */\n      add\n        /* \"#utility.yul\":40846:40869   */\n      div\n        /* \"#utility.yul\":40836:40869   */\n      swap1\n      pop\n        /* \"#utility.yul\":40782:40875   */\n      swap2\n      swap1\n      pop\n      jump\t// out\n        /* \"#utility.yul\":40881:40988   */\n    tag_385:\n        /* \"#utility.yul\":40925:40933   */\n      0x00\n        /* \"#utility.yul\":40975:40980   */\n      dup3\n        /* \"#utility.yul\":40969:40973   */\n      dup3\n        /* \"#utility.yul\":40965:40981   */\n      shl\n        /* \"#utility.yul\":40944:40981   */\n      swap1\n      pop\n        /* \"#utility.yul\":40881:40988   */\n      swap3\n      swap2\n      pop\n      pop\n      jump\t// out\n        /* \"#utility.yul\":40994:41387   */\n    tag_386:\n        /* \"#utility.yul\":41063:41069   */\n      0x00\n        /* \"#utility.yul\":41113:41114   */\n      0x08\n        /* \"#utility.yul\":41101:41111   */\n      dup4\n        /* \"#utility.yul\":41097:41115   */\n      mul\n        /* \"#utility.yul\":41136:41233   */\n      tag_776\n        /* \"#utility.yul\":41166:41232   */\n      0xffffffffffffffffffffffffffffffffffffffffffffffffffffffffffffffff\n        /* \"#utility.yul\":41155:41164   */\n      dup3\n        /* \"#utility.yul\":41136:41233   */\n      tag_385\n      jump\t// in\n    tag_776:\n        /* \"#utility.yul\":41254:41293   */\n      tag_777\n        /* \"#utility.yul\":41284:41292   */\n      dup7\n        /* \"#utility.yul\":41273:41282   */\n      dup4\n        /* \"#utility.yul\":41254:41293   */\n      tag_385\n      jump\t// in\n    tag_777:\n        /* \"#utility.yul\":41242:41293   */\n      swap6\n      pop\n        /* \"#utility.yul\":41326:41330   */\n      dup1\n        /* \"#utility.yul\":41322:41331   */\n      not\n        /* \"#utility.yul\":41315:41320   */\n      dup5\n        /* \"#utility.yul\":41311:41332   */\n      and\n        /* \"#utility.yul\":41302:41332   */\n      swap4\n      pop\n        /* \"#utility.yul\":41375:41379   */\n      dup1\n        /* \"#utility.yul\":41365:41373   */\n      dup7\n        /* \"#utility.yul\":41361:41380   */\n      and\n        /* \"#utility.yul\":41354:41359   */\n      dup5\n        /* \"#utility.yul\":41351:41381   */\n      or\n        /* \"#utility.yul\":41341:41381   */\n      swap3\n      pop\n        /* \"#utility.yul\":41070:41387   */\n      pop\n      pop\n        /* \"#utility.yul\":40994:41387   */\n      swap4\n      swap3\n      pop\n      pop\n      pop\n      jump\t// out\n        /* \"#utility.yul\":41393:41535   */\n    tag_387:\n        /* \"#utility.yul\":41443:41452   */\n      0x00\n        /* \"#utility.yul\":41476:41529   */\n      tag_779\n        /* \"#utility.yul\":41494:41528   */\n      tag_780\n        /* \"#utility.yul\":41503:41527   */\n      tag_781\n        /* \"#utility.yul\":41521:41526   */\n      dup5\n        /* \"#utility.yul\":41503:41527   */\n      tag_285\n      jump\t// in\n    tag_781:\n        /* \"#utility.yul\":41494:41528   */\n      tag_350\n      jump\t// in\n    tag_780:\n        /* \"#utility.yul\":41476:41529   */\n      tag_285\n      jump\t// in\n    tag_779:\n        /* \"#utility.yul\":41463:41529   */\n      swap1\n      pop\n        /* \"#utility.yul\":41393:41535   */\n      swap2\n      swap1\n      pop\n      jump\t// out\n        /* \"#utility.yul\":41541:41616   */\n    tag_388:\n        /* \"#utility.yul\":41584:41587   */\n      0x00\n        /* \"#utility.yul\":41605:41610   */\n      dup2\n        /* \"#utility.yul\":41598:41610   */\n      swap1\n      pop\n        /* \"#utility.yul\":41541:41616   */\n      swap2\n      swap1\n      pop\n      jump\t// out\n        /* \"#utility.yul\":41622:41891   */\n    tag_389:\n        /* \"#utility.yul\":41732:41771   */\n      tag_784\n        /* \"#utility.yul\":41763:41770   */\n      dup4\n        /* \"#utility.yul\":41732:41771   */\n      tag_387\n      jump\t// in\n    tag_784:\n        /* \"#utility.yul\":41793:41884   */\n      tag_785\n        /* \"#utility.yul\":41842:41883   */\n      tag_786\n        /* \"#utility.yul\":41866:41882   */\n      dup3\n        /* \"#utility.yul\":41842:41883   */\n      tag_388\n      jump\t// in\n    tag_786:\n        /* \"#utility.yul\":41834:41840   */\n      dup5\n        /* \"#utility.yul\":41827:41831   */\n      dup5\n        /* \"#utility.yul\":41821:41832   */\n      sload\n        /* \"#utility.yul\":41793:41884   */\n      tag_386\n      jump\t// in\n    tag_785:\n        /* \"#utility.yul\":41787:41791   */\n      dup3\n        /* \"#utility.yul\":41780:41885   */\n      sstore\n        /* \"#utility.yul\":41698:41891   */\n      pop\n        /* \"#utility.yul\":41622:41891   */\n      pop\n      pop\n      pop\n      jump\t// out\n        /* \"#utility.yul\":41897:41970   */\n    tag_390:\n        /* \"#utility.yul\":41942:41945   */\n      0x00\n        /* \"#utility.yul\":41897:41970   */\n      swap1\n      jump\t// out\n        /* \"#utility.yul\":41976:42165   */\n    tag_391:\n        /* \"#utility.yul\":42053:42085   */\n      tag_789\n      tag_390\n      jump\t// in\n    tag_789:\n        /* \"#utility.yul\":42094:42159   */\n      tag_790\n        /* \"#utility.yul\":42152:42158   */\n      dup2\n        /* \"#utility.yul\":42144:42150   */\n      dup5\n        /* \"#utility.yul\":42138:42142   */\n      dup5\n        /* \"#utility.yul\":42094:42159   */\n      tag_389\n      jump\t// in\n    tag_790:\n        /* \"#utility.yul\":42029:42165   */\n      pop\n        /* \"#utility.yul\":41976:42165   */\n      pop\n      pop\n      jump\t// out\n        /* \"#utility.yul\":42171:42357   */\n    tag_392:\n        /* \"#utility.yul\":42231:42351   */\n    tag_792:\n        /* \"#utility.yul\":42248:42251   */\n      dup2\n        /* \"#utility.yul\":42241:42246   */\n      dup2\n        /* \"#utility.yul\":42238:42252   */\n      lt\n        /* \"#utility.yul\":42231:42351   */\n      iszero\n      tag_794\n      jumpi\n        /* \"#utility.yul\":42302:42341   */\n      tag_795\n        /* \"#utility.yul\":42339:42340   */\n      0x00\n        /* \"#utility.yul\":42332:42337   */\n      dup3\n        /* \"#utility.yul\":42302:42341   */\n      tag_391\n      jump\t// in\n    tag_795:\n        /* \"#utility.yul\":42275:42276   */\n      0x01\n        /* \"#utility.yul\":42268:42273   */\n      dup2\n        /* \"#utility.yul\":42264:42277   */\n      add\n        /* \"#utility.yul\":42255:42277   */\n      swap1\n      pop\n        /* \"#utility.yul\":42231:42351   */\n      jump(tag_792)\n    tag_794:\n        /* \"#utility.yul\":42171:42357   */\n      pop\n      pop\n      jump\t// out\n        /* \"#utility.yul\":42363:42906   */\n    tag_393:\n        /* \"#utility.yul\":42464:42466   */\n      0x1f\n        /* \"#utility.yul\":42459:42462   */\n      dup3\n        /* \"#utility.yul\":42456:42467   */\n      gt\n        /* \"#utility.yul\":42453:42899   */\n      iszero\n      tag_797\n      jumpi\n        /* \"#utility.yul\":42498:42536   */\n      tag_798\n        /* \"#utility.yul\":42530:42535   */\n      dup2\n        /* \"#utility.yul\":42498:42536   */\n      tag_383\n      jump\t// in\n    tag_798:\n        /* \"#utility.yul\":42582:42611   */\n      tag_799\n        /* \"#utility.yul\":42600:42610   */\n      dup5\n        /* \"#utility.yul\":42582:42611   */\n      tag_384\n      jump\t// in\n    tag_799:\n        /* \"#utility.yul\":42572:42580   */\n      dup2\n        /* \"#utility.yul\":42568:42612   */\n      add\n        /* \"#utility.yul\":42765:42767   */\n      0x20\n        /* \"#utility.yul\":42753:42763   */\n      dup6\n        /* \"#utility.yul\":42750:42768   */\n      lt\n        /* \"#utility.yul\":42747:42796   */\n      iszero\n      tag_800\n      jumpi\n        /* \"#utility.yul\":42786:42794   */\n      dup2\n        /* \"#utility.yul\":42771:42794   */\n      swap1\n      pop\n        /* \"#utility.yul\":42747:42796   */\n    tag_800:\n        /* \"#utility.yul\":42809:42889   */\n      tag_801\n        /* \"#utility.yul\":42865:42887   */\n      tag_802\n        /* \"#utility.yul\":42883:42886   */\n      dup6\n        /* \"#utility.yul\":42865:42887   */\n      tag_384\n      jump\t// in\n    tag_802:\n        /* \"#utility.yul\":42855:42863   */\n      dup4\n        /* \"#utility.yul\":42851:42888   */\n      add\n        /* \"#utility.yul\":42838:42849   */\n      dup3\n        /* \"#utility.yul\":42809:42889   */\n      tag_392\n      jump\t// in\n    tag_801:\n        /* \"#utility.yul\":42468:42899   */\n      pop\n      pop\n        /* \"#utility.yul\":42453:42899   */\n    tag_797:\n        /* \"#utility.yul\":42363:42906   */\n      pop\n      pop\n      pop\n      jump\t// out\n        /* \"#utility.yul\":42912:43029   */\n    tag_394:\n        /* \"#utility.yul\":42966:42974   */\n      0x00\n        /* \"#utility.yul\":43016:43021   */\n      dup3\n        /* \"#utility.yul\":43010:43014   */\n      dup3\n        /* \"#utility.yul\":43006:43022   */\n      shr\n        /* \"#utility.yul\":42985:43022   */\n      swap1\n      pop\n        /* \"#utility.yul\":42912:43029   */\n      swap3\n      swap2\n      pop\n      pop\n      jump\t// out\n        /* \"#utility.yul\":43035:43204   */\n    tag_395:\n        /* \"#utility.yul\":43079:43085   */\n      0x00\n        /* \"#utility.yul\":43112:43163   */\n      tag_805\n        /* \"#utility.yul\":43160:43161   */\n      0x00\n        /* \"#utility.yul\":43156:43162   */\n      not\n        /* \"#utility.yul\":43148:43153   */\n      dup5\n        /* \"#utility.yul\":43145:43146   */\n      0x08\n        /* \"#utility.yul\":43141:43154   */\n      mul\n        /* \"#utility.yul\":43112:43163   */\n      tag_394\n      jump\t// in\n    tag_805:\n        /* \"#utility.yul\":43108:43164   */\n      not\n        /* \"#utility.yul\":43193:43197   */\n      dup1\n        /* \"#utility.yul\":43187:43191   */\n      dup4\n        /* \"#utility.yul\":43183:43198   */\n      and\n        /* \"#utility.yul\":43173:43198   */\n      swap2\n      pop\n        /* \"#utility.yul\":43086:43204   */\n      pop\n        /* \"#utility.yul\":43035:43204   */\n      swap3\n      swap2\n      pop\n      pop\n      jump\t// out\n        /* \"#utility.yul\":43209:43504   */\n    tag_396:\n        /* \"#utility.yul\":43285:43289   */\n      0x00\n        /* \"#utility.yul\":43431:43460   */\n      tag_807\n        /* \"#utility.yul\":43456:43459   */\n      dup4\n        /* \"#utility.yul\":43450:43454   */\n      dup4\n        /* \"#utility.yul\":43431:43460   */\n      tag_395\n      jump\t// in\n    tag_807:\n        /* \"#utility.yul\":43423:43460   */\n      swap2\n      pop\n        /* \"#utility.yul\":43493:43496   */\n      dup3\n        /* \"#utility.yul\":43490:43491   */\n      0x02\n        /* \"#utility.yul\":43486:43497   */\n      mul\n        /* \"#utility.yul\":43480:43484   */\n      dup3\n        /* \"#utility.yul\":43477:43498   */\n      or\n        /* \"#utility.yul\":43469:43498   */\n      swap1\n      pop\n        /* \"#utility.yul\":43209:43504   */\n      swap3\n      swap2\n      pop\n      pop\n      jump\t// out\n        /* \"#utility.yul\":43509:44904   */\n    tag_231:\n        /* \"#utility.yul\":43626:43663   */\n      tag_809\n        /* \"#utility.yul\":43659:43662   */\n      dup3\n        /* \"#utility.yul\":43626:43663   */\n      tag_305\n      jump\t// in\n    tag_809:\n        /* \"#utility.yul\":43728:43746   */\n      0xffffffffffffffff\n        /* \"#utility.yul\":43720:43726   */\n      dup2\n        /* \"#utility.yul\":43717:43747   */\n      gt\n        /* \"#utility.yul\":43714:43770   */\n      iszero\n      tag_810\n      jumpi\n        /* \"#utility.yul\":43750:43768   */\n      tag_811\n      tag_336\n      jump\t// in\n    tag_811:\n        /* \"#utility.yul\":43714:43770   */\n    tag_810:\n        /* \"#utility.yul\":43794:43832   */\n      tag_812\n        /* \"#utility.yul\":43826:43830   */\n      dup3\n        /* \"#utility.yul\":43820:43831   */\n      sload\n        /* \"#utility.yul\":43794:43832   */\n      tag_187\n      jump\t// in\n    tag_812:\n        /* \"#utility.yul\":43879:43946   */\n      tag_813\n        /* \"#utility.yul\":43939:43945   */\n      dup3\n        /* \"#utility.yul\":43931:43937   */\n      dup3\n        /* \"#utility.yul\":43925:43929   */\n      dup6\n        /* \"#utility.yul\":43879:43946   */\n      tag_393\n      jump\t// in\n    tag_813:\n        /* \"#utility.yul\":43973:43974   */\n      0x00\n        /* \"#utility.yul\":43997:44001   */\n      0x20\n        /* \"#utility.yul\":43984:44001   */\n      swap1\n      pop\n        /* \"#utility.yul\":44029:44031   */\n      0x1f\n        /* \"#utility.yul\":44021:44027   */\n      dup4\n        /* \"#utility.yul\":44018:44032   */\n      gt\n        /* \"#utility.yul\":44046:44047   */\n      0x01\n        /* \"#utility.yul\":44041:44659   */\n      dup2\n      eq\n      tag_815\n      jumpi\n        /* \"#utility.yul\":44703:44704   */\n      0x00\n        /* \"#utility.yul\":44720:44726   */\n      dup5\n        /* \"#utility.yul\":44717:44794   */\n      iszero\n      tag_816\n      jumpi\n        /* \"#utility.yul\":44769:44778   */\n      dup3\n        /* \"#utility.yul\":44764:44767   */\n      dup8\n        /* \"#utility.yul\":44760:44779   */\n      add\n        /* \"#utility.yul\":44754:44780   */\n      mload\n        /* \"#utility.yul\":44745:44780   */\n      swap1\n      pop\n        /* \"#utility.yul\":44717:44794   */\n    tag_816:\n        /* \"#utility.yul\":44820:44887   */\n      tag_817\n        /* \"#utility.yul\":44880:44886   */\n      dup6\n        /* \"#utility.yul\":44873:44878   */\n      dup3\n        /* \"#utility.yul\":44820:44887   */\n      tag_396\n      jump\t// in\n    tag_817:\n        /* \"#utility.yul\":44814:44818   */\n      dup7\n        /* \"#utility.yul\":44807:44888   */\n      sstore\n        /* \"#utility.yul\":44676:44898   */\n      pop\n        /* \"#utility.yul\":44011:44898   */\n      jump(tag_814)\n        /* \"#utility.yul\":44041:44659   */\n    tag_815:\n        /* \"#utility.yul\":44093:44097   */\n      0x1f\n        /* \"#utility.yul\":44089:44098   */\n      not\n        /* \"#utility.yul\":44081:44087   */\n      dup5\n        /* \"#utility.yul\":44077:44099   */\n      and\n        /* \"#utility.yul\":44127:44164   */\n      tag_818\n        /* \"#utility.yul\":44159:44163   */\n      dup7\n        /* \"#utility.yul\":44127:44164   */\n      tag_383\n      jump\t// in\n    tag_818:\n        /* \"#utility.yul\":44186:44187   */\n      0x00\n        /* \"#utility.yul\":44200:44408   */\n    tag_819:\n        /* \"#utility.yul\":44214:44221   */\n      dup3\n        /* \"#utility.yul\":44211:44212   */\n      dup2\n        /* \"#utility.yul\":44208:44222   */\n      lt\n        /* \"#utility.yul\":44200:44408   */\n      iszero\n      tag_821\n      jumpi\n        /* \"#utility.yul\":44293:44302   */\n      dup5\n        /* \"#utility.yul\":44288:44291   */\n      dup10\n        /* \"#utility.yul\":44284:44303   */\n      add\n        /* \"#utility.yul\":44278:44304   */\n      mload\n        /* \"#utility.yul\":44270:44276   */\n      dup3\n        /* \"#utility.yul\":44263:44305   */\n      sstore\n        /* \"#utility.yul\":44344:44345   */\n      0x01\n        /* \"#utility.yul\":44336:44342   */\n      dup3\n        /* \"#utility.yul\":44332:44346   */\n      add\n        /* \"#utility.yul\":44322:44346   */\n      swap2\n      pop\n        /* \"#utility.yul\":44391:44393   */\n      0x20\n        /* \"#utility.yul\":44380:44389   */\n      dup6\n        /* \"#utility.yul\":44376:44394   */\n      add\n        /* \"#utility.yul\":44363:44394   */\n      swap5\n      pop\n        /* \"#utility.yul\":44237:44241   */\n      0x20\n        /* \"#utility.yul\":44234:44235   */\n      dup2\n        /* \"#utility.yul\":44230:44242   */\n      add\n        /* \"#utility.yul\":44225:44242   */\n      swap1\n      pop\n        /* \"#utility.yul\":44200:44408   */\n      jump(tag_819)\n    tag_821:\n        /* \"#utility.yul\":44436:44442   */\n      dup7\n        /* \"#utility.yul\":44427:44434   */\n      dup4\n        /* \"#utility.yul\":44424:44443   */\n      lt\n        /* \"#utility.yul\":44421:44600   */\n      iszero\n      tag_822\n      jumpi\n        /* \"#utility.yul\":44494:44503   */\n      dup5\n        /* \"#utility.yul\":44489:44492   */\n      dup10\n        /* \"#utility.yul\":44485:44504   */\n      add\n        /* \"#utility.yul\":44479:44505   */\n      mload\n        /* \"#utility.yul\":44537:44585   */\n      tag_823\n        /* \"#utility.yul\":44579:44583   */\n      0x1f\n        /* \"#utility.yul\":44571:44577   */\n      dup10\n        /* \"#utility.yul\":44567:44584   */\n      and\n        /* \"#utility.yul\":44556:44565   */\n      dup3\n        /* \"#utility.yul\":44537:44585   */\n      tag_395\n      jump\t// in\n    tag_823:\n        /* \"#utility.yul\":44529:44535   */\n      dup4\n        /* \"#utility.yul\":44522:44586   */\n      sstore\n        /* \"#utility.yul\":44444:44600   */\n      pop\n        /* \"#utility.yul\":44421:44600   */\n    tag_822:\n        /* \"#utility.yul\":44646:44647   */\n      0x01\n        /* \"#utility.yul\":44642:44643   */\n      0x02\n        /* \"#utility.yul\":44634:44640   */\n      dup9\n        /* \"#utility.yul\":44630:44644   */\n      mul\n        /* \"#utility.yul\":44626:44648   */\n      add\n        /* \"#utility.yul\":44620:44624   */\n      dup9\n        /* \"#utility.yul\":44613:44649   */\n      sstore\n        /* \"#utility.yul\":44048:44659   */\n      pop\n      pop\n      pop\n        /* \"#utility.yul\":44011:44898   */\n    tag_814:\n      pop\n        /* \"#utility.yul\":43601:44904   */\n      pop\n      pop\n      pop\n        /* \"#utility.yul\":43509:44904   */\n      pop\n      pop\n      jump\t// out\n        /* \"#utility.yul\":44934:45765   */\n    tag_397:\n        /* \"#utility.yul\":45019:45022   */\n      0x00\n        /* \"#utility.yul\":45056:45061   */\n      dup2\n        /* \"#utility.yul\":45050:45062   */\n      sload\n        /* \"#utility.yul\":45085:45121   */\n      tag_825\n        /* \"#utility.yul\":45111:45120   */\n      dup2\n        /* \"#utility.yul\":45085:45121   */\n      tag_187\n      jump\t// in\n    tag_825:\n        /* \"#utility.yul\":45137:45208   */\n      tag_826\n        /* \"#utility.yul\":45201:45207   */\n      dup2\n        /* \"#utility.yul\":45196:45199   */\n      dup7\n        /* \"#utility.yul\":45137:45208   */\n      tag_315\n      jump\t// in\n    tag_826:\n        /* \"#utility.yul\":45130:45208   */\n      swap5\n      pop\n        /* \"#utility.yul\":45239:45240   */\n      0x01\n        /* \"#utility.yul\":45228:45237   */\n      dup3\n        /* \"#utility.yul\":45224:45241   */\n      and\n        /* \"#utility.yul\":45255:45256   */\n      0x00\n        /* \"#utility.yul\":45250:45414   */\n      dup2\n      eq\n      tag_828\n      jumpi\n        /* \"#utility.yul\":45428:45429   */\n      0x01\n        /* \"#utility.yul\":45423:45759   */\n      dup2\n      eq\n      tag_829\n      jumpi\n        /* \"#utility.yul\":45217:45759   */\n      jump(tag_827)\n        /* \"#utility.yul\":45250:45414   */\n    tag_828:\n        /* \"#utility.yul\":45334:45338   */\n      0xff\n        /* \"#utility.yul\":45330:45339   */\n      not\n        /* \"#utility.yul\":45319:45328   */\n      dup4\n        /* \"#utility.yul\":45315:45340   */\n      and\n        /* \"#utility.yul\":45310:45313   */\n      dup7\n        /* \"#utility.yul\":45303:45341   */\n      mstore\n        /* \"#utility.yul\":45394:45400   */\n      dup2\n        /* \"#utility.yul\":45387:45401   */\n      iszero\n        /* \"#utility.yul\":45380:45402   */\n      iszero\n        /* \"#utility.yul\":45374:45378   */\n      0x20\n        /* \"#utility.yul\":45370:45403   */\n      mul\n        /* \"#utility.yul\":45365:45368   */\n      dup7\n        /* \"#utility.yul\":45361:45404   */\n      add\n        /* \"#utility.yul\":45354:45404   */\n      swap4\n      pop\n        /* \"#utility.yul\":45250:45414   */\n      jump(tag_827)\n        /* \"#utility.yul\":45423:45759   */\n    tag_829:\n        /* \"#utility.yul\":45490:45528   */\n      tag_830\n        /* \"#utility.yul\":45522:45527   */\n      dup6\n        /* \"#utility.yul\":45490:45528   */\n      tag_383\n      jump\t// in\n    tag_830:\n        /* \"#utility.yul\":45550:45551   */\n      0x00\n        /* \"#utility.yul\":45564:45718   */\n    tag_831:\n        /* \"#utility.yul\":45578:45584   */\n      dup4\n        /* \"#utility.yul\":45575:45576   */\n      dup2\n        /* \"#utility.yul\":45572:45585   */\n      lt\n        /* \"#utility.yul\":45564:45718   */\n      iszero\n      tag_833\n      jumpi\n        /* \"#utility.yul\":45652:45659   */\n      dup2\n        /* \"#utility.yul\":45646:45660   */\n      sload\n        /* \"#utility.yul\":45642:45643   */\n      dup2\n        /* \"#utility.yul\":45637:45640   */\n      dup10\n        /* \"#utility.yul\":45633:45644   */\n      add\n        /* \"#utility.yul\":45626:45661   */\n      mstore\n        /* \"#utility.yul\":45702:45703   */\n      0x01\n        /* \"#utility.yul\":45693:45700   */\n      dup3\n        /* \"#utility.yul\":45689:45704   */\n      add\n        /* \"#utility.yul\":45678:45704   */\n      swap2\n      pop\n        /* \"#utility.yul\":45600:45604   */\n      0x20\n        /* \"#utility.yul\":45597:45598   */\n      dup2\n        /* \"#utility.yul\":45593:45605   */\n      add\n        /* \"#utility.yul\":45588:45605   */\n      swap1\n      pop\n        /* \"#utility.yul\":45564:45718   */\n      jump(tag_831)\n    tag_833:\n        /* \"#utility.yul\":45747:45748   */\n      dup1\n        /* \"#utility.yul\":45742:45745   */\n      dup9\n        /* \"#utility.yul\":45738:45749   */\n      add\n        /* \"#utility.yul\":45731:45749   */\n      swap6\n      pop\n        /* \"#utility.yul\":45430:45759   */\n      pop\n      pop\n        /* \"#utility.yul\":45217:45759   */\n    tag_827:\n      pop\n        /* \"#utility.yul\":45023:45765   */\n      pop\n      pop\n        /* \"#utility.yul\":44934:45765   */\n      swap3\n      swap2\n      pop\n      pop\n      jump\t// out\n        /* \"#utility.yul\":45771:46078   */\n    tag_237:\n        /* \"#utility.yul\":45881:45885   */\n      0x00\n        /* \"#utility.yul\":45919:45921   */\n      0x20\n        /* \"#utility.yul\":45908:45917   */\n      dup3\n        /* \"#utility.yul\":45904:45922   */\n      add\n        /* \"#utility.yul\":45896:45922   */\n      swap1\n      pop\n        /* \"#utility.yul\":45968:45977   */\n      dup2\n        /* \"#utility.yul\":45962:45966   */\n      dup2\n        /* \"#utility.yul\":45958:45978   */\n      sub\n        /* \"#utility.yul\":45954:45955   */\n      0x00\n        /* \"#utility.yul\":45943:45952   */\n      dup4\n        /* \"#utility.yul\":45939:45956   */\n      add\n        /* \"#utility.yul\":45932:45979   */\n      mstore\n        /* \"#utility.yul\":45996:46071   */\n      tag_835\n        /* \"#utility.yul\":46066:46070   */\n      dup2\n        /* \"#utility.yul\":46057:46063   */\n      dup5\n        /* \"#utility.yul\":45996:46071   */\n      tag_397\n      jump\t// in\n    tag_835:\n        /* \"#utility.yul\":45988:46071   */\n      swap1\n      pop\n        /* \"#utility.yul\":45771:46078   */\n      swap3\n      swap2\n      pop\n      pop\n      jump\t// out\n        /* \"#utility.yul\":46084:46264   */\n    tag_268:\n        /* \"#utility.yul\":46132:46209   */\n      0x4e487b7100000000000000000000000000000000000000000000000000000000\n        /* \"#utility.yul\":46129:46130   */\n      0x00\n        /* \"#utility.yul\":46122:46210   */\n      mstore\n        /* \"#utility.yul\":46229:46233   */\n      0x32\n        /* \"#utility.yul\":46226:46227   */\n      0x04\n        /* \"#utility.yul\":46219:46234   */\n      mstore\n        /* \"#utility.yul\":46253:46257   */\n      0x24\n        /* \"#utility.yul\":46250:46251   */\n      0x00\n        /* \"#utility.yul\":46243:46258   */\n      revert\n\n    auxdata: 0xa2646970667358221220b33c3b7b3fc0ba3385ea6fee35fcef3fda78ddd64ead5040b91e773cfe046b7464736f6c63430008190033\n}\n",
				"bytecode": {
					"linkReferences": {
						"contracts/final/LibraryAudianceEngagementTool.sol": {
							"UtilLibrary": [
								{
									"length": 20,
									"start": 3661
								},
								{
									"length": 20,
									"start": 3689
								}
							]
						}
					},
					"object": "608060405234801561000f575f80fd5b50604051613186380380613186833981810160405281019061003191906102d0565b335f73ffffffffffffffffffffffffffffffffffffffff168173ffffffffffffffffffffffffffffffffffffffff16036100a2575f6040517f1e4fbdf7000000000000000000000000000000000000000000000000000000008152600401610099919061030a565b60405180910390fd5b6100b1816101b160201b60201c565b5073694aa1769357215de4fac081bf1f309adc325306600e5f6101000a81548173ffffffffffffffffffffffffffffffffffffffff021916908373ffffffffffffffffffffffffffffffffffffffff16021790555080600c5f6101000a81548173ffffffffffffffffffffffffffffffffffffffff021916908373ffffffffffffffffffffffffffffffffffffffff1602179055504260038190555061012c60035461015d9190610359565b6004819055506001600f8190555033600d5f6101000a81548173ffffffffffffffffffffffffffffffffffffffff021916908373ffffffffffffffffffffffffffffffffffffffff1602179055505061038c565b5f805f9054906101000a900473ffffffffffffffffffffffffffffffffffffffff169050815f806101000a81548173ffffffffffffffffffffffffffffffffffffffff021916908373ffffffffffffffffffffffffffffffffffffffff1602179055508173ffffffffffffffffffffffffffffffffffffffff168173ffffffffffffffffffffffffffffffffffffffff167f8be0079c531659141344cd1fd0a4f28419497f9722a3daafe3b4186f6b6457e060405160405180910390a35050565b5f80fd5b5f73ffffffffffffffffffffffffffffffffffffffff82169050919050565b5f61029f82610276565b9050919050565b6102af81610295565b81146102b9575f80fd5b50565b5f815190506102ca816102a6565b92915050565b5f602082840312156102e5576102e4610272565b5b5f6102f2848285016102bc565b91505092915050565b61030481610295565b82525050565b5f60208201905061031d5f8301846102fb565b92915050565b5f819050919050565b7f4e487b71000000000000000000000000000000000000000000000000000000005f52601160045260245ffd5b5f61036382610323565b915061036e83610323565b92508282019050808211156103865761038561032c565b5b92915050565b612ded806103995f395ff3fe608060405260043610610108575f3560e01c806376f90e8e11610094578063944c1d9711610063578063944c1d97146102ea57806394964edf14610300578063ced72f871461032a578063f2fde38b14610354578063ffeb78b71461037c57610108565b806376f90e8e1461023c5780638da5cb5b146102665780638e15f4731461029057806390ab1d8e146102ba57610108565b80632d5cea8e116100db5780632d5cea8e146101a25780633174b689146101be57806352505453146101d457806369fe0e2d146101fe578063715018a61461022657610108565b80630121b93f1461010c57806306db5c06146101345780630dc9601514610150578063267325491461017a575b5f80fd5b348015610117575f80fd5b50610132600480360381019061012d9190611811565b6103a6565b005b61014e6004803603810190610149919061189d565b6105ce565b005b34801561015b575f80fd5b506101646107c8565b6040516101719190611a02565b60405180910390f35b348015610185575f80fd5b506101a0600480360381019061019b9190611a4c565b610853565b005b6101bc60048036038101906101b79190611a4c565b61089e565b005b3480156101c9575f80fd5b506101d26108e5565b005b3480156101df575f80fd5b506101e8610bf8565b6040516101f59190611ab3565b60405180910390f35b348015610209575f80fd5b50610224600480360381019061021f9190611811565b610c1e565b005b348015610231575f80fd5b5061023a610c30565b005b348015610247575f80fd5b50610250610c43565b60405161025d9190611bf4565b60405180910390f35b348015610271575f80fd5b5061027a610df9565b6040516102879190611c23565b60405180910390f35b34801561029b575f80fd5b506102a4610e20565b6040516102b19190611c4b565b60405180910390f35b3480156102c5575f80fd5b506102ce610ecc565b6040516102e19796959493929190611cbb565b60405180910390f35b3480156102f5575f80fd5b506102fe611026565b005b34801561030b575f80fd5b506103146112eb565b6040516103219190611e91565b60405180910390f35b348015610335575f80fd5b5061033e611383565b60405161034b9190611c4b565b60405180910390f35b34801561035f575f80fd5b5061037a60048036038101906103759190611a4c565b61138c565b005b348015610387575f80fd5b50610390611410565b60405161039d9190611bf4565b60405180910390f35b60045442106103ea576040517f08c379a00000000000000000000000000000000000000000000000000000000081526004016103e190611efb565b60405180910390fd5b5f60015f3373ffffffffffffffffffffffffffffffffffffffff1673ffffffffffffffffffffffffffffffffffffffff1681526020019081526020015f205414610469576040517f08c379a000000000000000000000000000000000000000000000000000000000815260040161046090611f63565b60405180910390fd5b8060015f3373ffffffffffffffffffffffffffffffffffffffff1673ffffffffffffffffffffffffffffffffffffffff1681526020019081526020015f2081905550600233908060018154018082558091505060019003905f5260205f20015f9091909190916101000a81548173ffffffffffffffffffffffffffffffffffffffff021916908373ffffffffffffffffffffffffffffffffffffffff160217905550600c5f9054906101000a900473ffffffffffffffffffffffffffffffffffffffff1673ffffffffffffffffffffffffffffffffffffffff1663ef46a75d826040518263ffffffff1660e01b81526004016105659190611c4b565b5f604051808303815f87803b15801561057c575f80fd5b505af115801561058e573d5f803e3d5ffd5b505050507fd0e6c39f2e086dc49f1524b47725526a56945cd1ff661f37976f1725a1e5698633826040516105c3929190611f81565b60405180910390a150565b600f54803373ffffffffffffffffffffffffffffffffffffffff16311161062a576040517f08c379a000000000000000000000000000000000000000000000000000000000815260040161062190611ff2565b60405180910390fd5b600f54341461066e576040517f08c379a00000000000000000000000000000000000000000000000000000000081526004016106659061205a565b60405180910390fd5b5f600c5f9054906101000a900473ffffffffffffffffffffffffffffffffffffffff1673ffffffffffffffffffffffffffffffffffffffff16636f7789a1878787876040518563ffffffff1660e01b81526004016106cf94939291906120b2565b5f604051808303815f875af11580156106ea573d5f803e3d5ffd5b505050506040513d5f823e3d601f19601f820116820180604052508101906107129190612348565b9050600d5f9054906101000a900473ffffffffffffffffffffffffffffffffffffffff1673ffffffffffffffffffffffffffffffffffffffff166108fc3490811502906040515f60405180830381858888f19350505050158015610778573d5f803e3d5ffd5b507f918f010187dacfa7074bf61710aff7a8ba31fcd11aef11d9cf1f8293f1acba6f86868686425f8760a001516040516107b897969594939291906123d1565b60405180910390a1505050505050565b6060600280548060200260200160405190810160405280929190818152602001828054801561084957602002820191905f5260205f20905b815f9054906101000a900473ffffffffffffffffffffffffffffffffffffffff1673ffffffffffffffffffffffffffffffffffffffff1681526020019060010190808311610800575b5050505050905090565b61085b6114ae565b80600c5f6101000a81548173ffffffffffffffffffffffffffffffffffffffff021916908373ffffffffffffffffffffffffffffffffffffffff16021790555050565b8073ffffffffffffffffffffffffffffffffffffffff166108fc3490811502906040515f60405180830381858888f193505050501580156108e1573d5f803e3d5ffd5b5050565b6004544210610929576040517f08c379a000000000000000000000000000000000000000000000000000000000815260040161092090611efb565b60405180910390fd5b5f60015f3373ffffffffffffffffffffffffffffffffffffffff1673ffffffffffffffffffffffffffffffffffffffff1681526020019081526020015f2054036109a8576040517f08c379a000000000000000000000000000000000000000000000000000000000815260040161099f9061247e565b60405180910390fd5b5f60015f3373ffffffffffffffffffffffffffffffffffffffff1673ffffffffffffffffffffffffffffffffffffffff1681526020019081526020015f205490505f60015f3373ffffffffffffffffffffffffffffffffffffffff1673ffffffffffffffffffffffffffffffffffffffff1681526020019081526020015f2081905550600c5f9054906101000a900473ffffffffffffffffffffffffffffffffffffffff1673ffffffffffffffffffffffffffffffffffffffff16639b757a2c826040518263ffffffff1660e01b8152600401610a859190611c4b565b5f604051808303815f87803b158015610a9c575f80fd5b505af1158015610aae573d5f803e3d5ffd5b5050505073__$fcb0696918cf04c85a2a89fbad55c583e7$__635a8d4625600273__$fcb0696918cf04c85a2a89fbad55c583e7$__631c07c87f6002336040518363ffffffff1660e01b8152600401610b089291906125c1565b602060405180830381865af4158015610b23573d5f803e3d5ffd5b505050506040513d601f19601f82011682018060405250810190610b4791906125ef565b6040518363ffffffff1660e01b8152600401610b64929190612629565b5f60405180830381865af4158015610b7e573d5f803e3d5ffd5b505050506040513d5f823e3d601f19601f82011682018060405250810190610ba69190612717565b60029080519060200190610bbb9291906116a4565b507f1e4ba8038df092a6a9cc2400d85e4bcdabae0834fcad0ee391a8dff246ef42543382604051610bed929190611f81565b60405180910390a150565b610c0061172b565b60405180604001604052806003548152602001600454815250905090565b610c266114ae565b80600f8190555050565b610c386114ae565b610c415f611535565b565b610c4b611743565b60056040518060e00160405290815f82015f9054906101000a900473ffffffffffffffffffffffffffffffffffffffff1673ffffffffffffffffffffffffffffffffffffffff1673ffffffffffffffffffffffffffffffffffffffff168152602001600182018054610cbc9061278b565b80601f0160208091040260200160405190810160405280929190818152602001828054610ce89061278b565b8015610d335780601f10610d0a57610100808354040283529160200191610d33565b820191905f5260205f20905b815481529060010190602001808311610d1657829003601f168201915b50505050508152602001600282018054610d4c9061278b565b80601f0160208091040260200160405190810160405280929190818152602001828054610d789061278b565b8015610dc35780601f10610d9a57610100808354040283529160200191610dc3565b820191905f5260205f20905b815481529060010190602001808311610da657829003601f168201915b50505050508152602001600382015481526020016004820154815260200160058201548152602001600682015481525050905090565b5f805f9054906101000a900473ffffffffffffffffffffffffffffffffffffffff16905090565b5f80600e5f9054906101000a900473ffffffffffffffffffffffffffffffffffffffff1673ffffffffffffffffffffffffffffffffffffffff1663feaf968c6040518163ffffffff1660e01b815260040160a060405180830381865afa158015610e8c573d5f803e3d5ffd5b505050506040513d601f19601f82011682018060405250810190610eb0919061282d565b5050509150506305f5e10081610ec691906128fe565b91505090565b6005805f015f9054906101000a900473ffffffffffffffffffffffffffffffffffffffff1690806001018054610f019061278b565b80601f0160208091040260200160405190810160405280929190818152602001828054610f2d9061278b565b8015610f785780601f10610f4f57610100808354040283529160200191610f78565b820191905f5260205f20905b815481529060010190602001808311610f5b57829003601f168201915b505050505090806002018054610f8d9061278b565b80601f0160208091040260200160405190810160405280929190818152602001828054610fb99061278b565b80156110045780601f10610fdb57610100808354040283529160200191611004565b820191905f5260205f20905b815481529060010190602001808311610fe757829003601f168201915b5050505050908060030154908060040154908060050154908060060154905087565b61102e6114ae565b4260038190555061012c600354611045919061292e565b6004819055506110536115f6565b5f600c5f9054906101000a900473ffffffffffffffffffffffffffffffffffffffff1673ffffffffffffffffffffffffffffffffffffffff166394964edf6040518163ffffffff1660e01b81526004015f60405180830381865afa1580156110bd573d5f803e3d5ffd5b505050506040513d5f823e3d601f19601f820116820180604052508101906110e59190612a3f565b5111156112ae57600c5f9054906101000a900473ffffffffffffffffffffffffffffffffffffffff1673ffffffffffffffffffffffffffffffffffffffff16636c9a5fa46040518163ffffffff1660e01b81526004015f60405180830381865afa158015611155573d5f803e3d5ffd5b505050506040513d5f823e3d601f19601f8201168201806040525081019061117d9190612348565b60055f820151815f015f6101000a81548173ffffffffffffffffffffffffffffffffffffffff021916908373ffffffffffffffffffffffffffffffffffffffff16021790555060208201518160010190816111d89190612c1a565b5060408201518160020190816111ee9190612c1a565b50606082015181600301556080820151816004015560a0820151816005015560c08201518160060155905050600c5f9054906101000a900473ffffffffffffffffffffffffffffffffffffffff1673ffffffffffffffffffffffffffffffffffffffff16637cdbf25c6040518163ffffffff1660e01b81526004015f604051808303815f875af1158015611284573d5f803e3d5ffd5b505050506040513d5f823e3d601f19601f820116820180604052508101906112ac9190612348565b505b7feb6c47cd02f1e621f31fb6401e4d5b6d34724fe0dddfc7b4871b7cd1aa424fed60056002016040516112e19190612d6a565b60405180910390a1565b6060600c5f9054906101000a900473ffffffffffffffffffffffffffffffffffffffff1673ffffffffffffffffffffffffffffffffffffffff166394964edf6040518163ffffffff1660e01b81526004015f60405180830381865afa158015611356573d5f803e3d5ffd5b505050506040513d5f823e3d601f19601f8201168201806040525081019061137e9190612a3f565b905090565b5f600f54905090565b6113946114ae565b5f73ffffffffffffffffffffffffffffffffffffffff168173ffffffffffffffffffffffffffffffffffffffff1603611404575f6040517f1e4fbdf70000000000000000000000000000000000000000000000000000000081526004016113fb9190611c23565b60405180910390fd5b61140d81611535565b50565b611418611743565b600c5f9054906101000a900473ffffffffffffffffffffffffffffffffffffffff1673ffffffffffffffffffffffffffffffffffffffff16636c9a5fa46040518163ffffffff1660e01b81526004015f60405180830381865afa158015611481573d5f803e3d5ffd5b505050506040513d5f823e3d601f19601f820116820180604052508101906114a99190612348565b905090565b6114b661169d565b73ffffffffffffffffffffffffffffffffffffffff166114d4610df9565b73ffffffffffffffffffffffffffffffffffffffff1614611533576114f761169d565b6040517f118cdaa700000000000000000000000000000000000000000000000000000000815260040161152a9190611c23565b60405180910390fd5b565b5f805f9054906101000a900473ffffffffffffffffffffffffffffffffffffffff169050815f806101000a81548173ffffffffffffffffffffffffffffffffffffffff021916908373ffffffffffffffffffffffffffffffffffffffff1602179055508173ffffffffffffffffffffffffffffffffffffffff168173ffffffffffffffffffffffffffffffffffffffff167f8be0079c531659141344cd1fd0a4f28419497f9722a3daafe3b4186f6b6457e060405160405180910390a35050565b5f5b60028054905081101561168d5760015f6002838154811061161c5761161b612d8a565b5b905f5260205f20015f9054906101000a900473ffffffffffffffffffffffffffffffffffffffff1673ffffffffffffffffffffffffffffffffffffffff1673ffffffffffffffffffffffffffffffffffffffff1681526020019081526020015f205f905580806001019150506115f8565b5060025f61169b9190611794565b565b5f33905090565b828054828255905f5260205f2090810192821561171a579160200282015b82811115611719578251825f6101000a81548173ffffffffffffffffffffffffffffffffffffffff021916908373ffffffffffffffffffffffffffffffffffffffff160217905550916020019190600101906116c2565b5b50905061172791906117b2565b5090565b60405180604001604052805f81526020015f81525090565b6040518060e001604052805f73ffffffffffffffffffffffffffffffffffffffff16815260200160608152602001606081526020015f81526020015f81526020015f81526020015f80191681525090565b5080545f8255905f5260205f20908101906117af91906117b2565b50565b5b808211156117c9575f815f9055506001016117b3565b5090565b5f604051905090565b5f80fd5b5f80fd5b5f819050919050565b6117f0816117de565b81146117fa575f80fd5b50565b5f8135905061180b816117e7565b92915050565b5f60208284031215611826576118256117d6565b5b5f611833848285016117fd565b91505092915050565b5f80fd5b5f80fd5b5f80fd5b5f8083601f84011261185d5761185c61183c565b5b8235905067ffffffffffffffff81111561187a57611879611840565b5b60208301915083600182028301111561189657611895611844565b5b9250929050565b5f805f80604085870312156118b5576118b46117d6565b5b5f85013567ffffffffffffffff8111156118d2576118d16117da565b5b6118de87828801611848565b9450945050602085013567ffffffffffffffff811115611901576119006117da565b5b61190d87828801611848565b925092505092959194509250565b5f81519050919050565b5f82825260208201905092915050565b5f819050602082019050919050565b5f73ffffffffffffffffffffffffffffffffffffffff82169050919050565b5f61196d82611944565b9050919050565b61197d81611963565b82525050565b5f61198e8383611974565b60208301905092915050565b5f602082019050919050565b5f6119b08261191b565b6119ba8185611925565b93506119c583611935565b805f5b838110156119f55781516119dc8882611983565b97506119e78361199a565b9250506001810190506119c8565b5085935050505092915050565b5f6020820190508181035f830152611a1a81846119a6565b905092915050565b611a2b81611963565b8114611a35575f80fd5b50565b5f81359050611a4681611a22565b92915050565b5f60208284031215611a6157611a606117d6565b5b5f611a6e84828501611a38565b91505092915050565b611a80816117de565b82525050565b604082015f820151611a9a5f850182611a77565b506020820151611aad6020850182611a77565b50505050565b5f604082019050611ac65f830184611a86565b92915050565b5f81519050919050565b5f82825260208201905092915050565b8281835e5f83830152505050565b5f601f19601f8301169050919050565b5f611b0e82611acc565b611b188185611ad6565b9350611b28818560208601611ae6565b611b3181611af4565b840191505092915050565b5f819050919050565b611b4e81611b3c565b82525050565b5f60e083015f830151611b695f860182611974565b5060208301518482036020860152611b818282611b04565b91505060408301518482036040860152611b9b8282611b04565b9150506060830151611bb06060860182611a77565b506080830151611bc36080860182611a77565b5060a0830151611bd660a0860182611a77565b5060c0830151611be960c0860182611b45565b508091505092915050565b5f6020820190508181035f830152611c0c8184611b54565b905092915050565b611c1d81611963565b82525050565b5f602082019050611c365f830184611c14565b92915050565b611c45816117de565b82525050565b5f602082019050611c5e5f830184611c3c565b92915050565b5f82825260208201905092915050565b5f611c7e82611acc565b611c888185611c64565b9350611c98818560208601611ae6565b611ca181611af4565b840191505092915050565b611cb581611b3c565b82525050565b5f60e082019050611cce5f83018a611c14565b8181036020830152611ce08189611c74565b90508181036040830152611cf48188611c74565b9050611d036060830187611c3c565b611d106080830186611c3c565b611d1d60a0830185611c3c565b611d2a60c0830184611cac565b98975050505050505050565b5f81519050919050565b5f82825260208201905092915050565b5f819050602082019050919050565b5f60e083015f830151611d745f860182611974565b5060208301518482036020860152611d8c8282611b04565b91505060408301518482036040860152611da68282611b04565b9150506060830151611dbb6060860182611a77565b506080830151611dce6080860182611a77565b5060a0830151611de160a0860182611a77565b5060c0830151611df460c0860182611b45565b508091505092915050565b5f611e0a8383611d5f565b905092915050565b5f602082019050919050565b5f611e2882611d36565b611e328185611d40565b935083602082028501611e4485611d50565b805f5b85811015611e7f5784840389528151611e608582611dff565b9450611e6b83611e12565b925060208a01995050600181019050611e47565b50829750879550505050505092915050565b5f6020820190508181035f830152611ea98184611e1e565b905092915050565b7f566f74696e6720706572696f642068617320656e6465640000000000000000005f82015250565b5f611ee5601783611c64565b9150611ef082611eb1565b602082019050919050565b5f6020820190508181035f830152611f1281611ed9565b9050919050565b7f596f7520616c726561647920766f7465640000000000000000000000000000005f82015250565b5f611f4d601183611c64565b9150611f5882611f19565b602082019050919050565b5f6020820190508181035f830152611f7a81611f41565b9050919050565b5f604082019050611f945f830185611c14565b611fa16020830184611c3c565b9392505050565b7f496e737566696369656e7420666f756e647321000000000000000000000000005f82015250565b5f611fdc601383611c64565b9150611fe782611fa8565b602082019050919050565b5f6020820190508181035f83015261200981611fd0565b9050919050565b7f496e76616c6964206665652076616c75650000000000000000000000000000005f82015250565b5f612044601183611c64565b915061204f82612010565b602082019050919050565b5f6020820190508181035f83015261207181612038565b9050919050565b828183375f83830152505050565b5f6120918385611c64565b935061209e838584612078565b6120a783611af4565b840190509392505050565b5f6040820190508181035f8301526120cb818688612086565b905081810360208301526120e0818486612086565b905095945050505050565b5f80fd5b7f4e487b71000000000000000000000000000000000000000000000000000000005f52604160045260245ffd5b61212582611af4565b810181811067ffffffffffffffff82111715612144576121436120ef565b5b80604052505050565b5f6121566117cd565b9050612162828261211c565b919050565b5f80fd5b5f8151905061217981611a22565b92915050565b5f80fd5b5f67ffffffffffffffff82111561219d5761219c6120ef565b5b6121a682611af4565b9050602081019050919050565b5f6121c56121c084612183565b61214d565b9050828152602081018484840111156121e1576121e061217f565b5b6121ec848285611ae6565b509392505050565b5f82601f8301126122085761220761183c565b5b81516122188482602086016121b3565b91505092915050565b5f8151905061222f816117e7565b92915050565b61223e81611b3c565b8114612248575f80fd5b50565b5f8151905061225981612235565b92915050565b5f60e08284031215612274576122736120eb565b5b61227e60e061214d565b90505f61228d8482850161216b565b5f83015250602082015167ffffffffffffffff8111156122b0576122af612167565b5b6122bc848285016121f4565b602083015250604082015167ffffffffffffffff8111156122e0576122df612167565b5b6122ec848285016121f4565b604083015250606061230084828501612221565b606083015250608061231484828501612221565b60808301525060a061232884828501612221565b60a08301525060c061233c8482850161224b565b60c08301525092915050565b5f6020828403121561235d5761235c6117d6565b5b5f82015167ffffffffffffffff81111561237a576123796117da565b5b6123868482850161225f565b91505092915050565b5f819050919050565b5f819050919050565b5f6123bb6123b66123b18461238f565b612398565b6117de565b9050919050565b6123cb816123a1565b82525050565b5f60a0820190508181035f8301526123ea81898b612086565b905081810360208301526123ff818789612086565b905061240e6040830186611c3c565b61241b60608301856123c2565b6124286080830184611c3c565b98975050505050505050565b7f596f7520686176656e277420766f7465642079657400000000000000000000005f82015250565b5f612468601583611c64565b915061247382612434565b602082019050919050565b5f6020820190508181035f8301526124958161245c565b9050919050565b5f81549050919050565b5f82825260208201905092915050565b5f819050815f5260205f209050919050565b6124d181611963565b82525050565b5f6124e283836124c8565b60208301905092915050565b5f815f1c9050919050565b5f73ffffffffffffffffffffffffffffffffffffffff82169050919050565b5f61252a612525836124ee565b6124f9565b9050919050565b5f61253c8254612518565b9050919050565b5f600182019050919050565b5f6125598261249c565b61256381856124a6565b935061256e836124b6565b805f5b838110156125a55761258282612531565b61258c88826124d7565b975061259783612543565b925050600181019050612571565b5085935050505092915050565b6125bb81611963565b82525050565b5f6040820190508181035f8301526125d9818561254f565b90506125e860208301846125b2565b9392505050565b5f60208284031215612604576126036117d6565b5b5f61261184828501612221565b91505092915050565b612623816117de565b82525050565b5f6040820190508181035f830152612641818561254f565b9050612650602083018461261a565b9392505050565b5f67ffffffffffffffff821115612671576126706120ef565b5b602082029050602081019050919050565b5f61269461268f84612657565b61214d565b905080838252602082019050602084028301858111156126b7576126b6611844565b5b835b818110156126e057806126cc888261216b565b8452602084019350506020810190506126b9565b5050509392505050565b5f82601f8301126126fe576126fd61183c565b5b815161270e848260208601612682565b91505092915050565b5f6020828403121561272c5761272b6117d6565b5b5f82015167ffffffffffffffff811115612749576127486117da565b5b612755848285016126ea565b91505092915050565b7f4e487b71000000000000000000000000000000000000000000000000000000005f52602260045260245ffd5b5f60028204905060018216806127a257607f821691505b6020821081036127b5576127b461275e565b5b50919050565b5f69ffffffffffffffffffff82169050919050565b6127d9816127bb565b81146127e3575f80fd5b50565b5f815190506127f4816127d0565b92915050565b5f819050919050565b61280c816127fa565b8114612816575f80fd5b50565b5f8151905061282781612803565b92915050565b5f805f805f60a08688031215612846576128456117d6565b5b5f612853888289016127e6565b955050602061286488828901612819565b945050604061287588828901612221565b935050606061288688828901612221565b9250506080612897888289016127e6565b9150509295509295909350565b7f4e487b71000000000000000000000000000000000000000000000000000000005f52601260045260245ffd5b7f4e487b71000000000000000000000000000000000000000000000000000000005f52601160045260245ffd5b5f612908826117de565b9150612913836117de565b925082612923576129226128a4565b5b828204905092915050565b5f612938826117de565b9150612943836117de565b925082820190508082111561295b5761295a6128d1565b5b92915050565b5f67ffffffffffffffff82111561297b5761297a6120ef565b5b602082029050602081019050919050565b5f61299e61299984612961565b61214d565b905080838252602082019050602084028301858111156129c1576129c0611844565b5b835b81811015612a0857805167ffffffffffffffff8111156129e6576129e561183c565b5b8086016129f3898261225f565b855260208501945050506020810190506129c3565b5050509392505050565b5f82601f830112612a2657612a2561183c565b5b8151612a3684826020860161298c565b91505092915050565b5f60208284031215612a5457612a536117d6565b5b5f82015167ffffffffffffffff811115612a7157612a706117da565b5b612a7d84828501612a12565b91505092915050565b5f819050815f5260205f209050919050565b5f6020601f8301049050919050565b5f82821b905092915050565b5f60088302612ae27fffffffffffffffffffffffffffffffffffffffffffffffffffffffffffffffff82612aa7565b612aec8683612aa7565b95508019841693508086168417925050509392505050565b5f612b1e612b19612b14846117de565b612398565b6117de565b9050919050565b5f819050919050565b612b3783612b04565b612b4b612b4382612b25565b848454612ab3565b825550505050565b5f90565b612b5f612b53565b612b6a818484612b2e565b505050565b5b81811015612b8d57612b825f82612b57565b600181019050612b70565b5050565b601f821115612bd257612ba381612a86565b612bac84612a98565b81016020851015612bbb578190505b612bcf612bc785612a98565b830182612b6f565b50505b505050565b5f82821c905092915050565b5f612bf25f1984600802612bd7565b1980831691505092915050565b5f612c0a8383612be3565b9150826002028217905092915050565b612c2382611acc565b67ffffffffffffffff811115612c3c57612c3b6120ef565b5b612c46825461278b565b612c51828285612b91565b5f60209050601f831160018114612c82575f8415612c70578287015190505b612c7a8582612bff565b865550612ce1565b601f198416612c9086612a86565b5f5b82811015612cb757848901518255600182019150602085019450602081019050612c92565b86831015612cd45784890151612cd0601f891682612be3565b8355505b6001600288020188555050505b505050505050565b5f8154612cf58161278b565b612cff8186611c64565b9450600182165f8114612d195760018114612d2f57612d61565b60ff198316865281151560200286019350612d61565b612d3885612a86565b5f5b83811015612d5957815481890152600182019150602081019050612d3a565b808801955050505b50505092915050565b5f6020820190508181035f830152612d828184612ce9565b905092915050565b7f4e487b71000000000000000000000000000000000000000000000000000000005f52603260045260245ffdfea2646970667358221220b33c3b7b3fc0ba3385ea6fee35fcef3fda78ddd64ead5040b91e773cfe046b7464736f6c63430008190033",
					"opcodes": "PUSH1 0x80 PUSH1 0x40 MSTORE CALLVALUE DUP1 ISZERO PUSH2 0xF JUMPI PUSH0 DUP1 REVERT JUMPDEST POP PUSH1 0x40 MLOAD PUSH2 0x3186 CODESIZE SUB DUP1 PUSH2 0x3186 DUP4 CODECOPY DUP2 DUP2 ADD PUSH1 0x40 MSTORE DUP2 ADD SWAP1 PUSH2 0x31 SWAP2 SWAP1 PUSH2 0x2D0 JUMP JUMPDEST CALLER PUSH0 PUSH20 0xFFFFFFFFFFFFFFFFFFFFFFFFFFFFFFFFFFFFFFFF AND DUP2 PUSH20 0xFFFFFFFFFFFFFFFFFFFFFFFFFFFFFFFFFFFFFFFF AND SUB PUSH2 0xA2 JUMPI PUSH0 PUSH1 0x40 MLOAD PUSH32 0x1E4FBDF700000000000000000000000000000000000000000000000000000000 DUP2 MSTORE PUSH1 0x4 ADD PUSH2 0x99 SWAP2 SWAP1 PUSH2 0x30A JUMP JUMPDEST PUSH1 0x40 MLOAD DUP1 SWAP2 SUB SWAP1 REVERT JUMPDEST PUSH2 0xB1 DUP2 PUSH2 0x1B1 PUSH1 0x20 SHL PUSH1 0x20 SHR JUMP JUMPDEST POP PUSH20 0x694AA1769357215DE4FAC081BF1F309ADC325306 PUSH1 0xE PUSH0 PUSH2 0x100 EXP DUP2 SLOAD DUP2 PUSH20 0xFFFFFFFFFFFFFFFFFFFFFFFFFFFFFFFFFFFFFFFF MUL NOT AND SWAP1 DUP4 PUSH20 0xFFFFFFFFFFFFFFFFFFFFFFFFFFFFFFFFFFFFFFFF AND MUL OR SWAP1 SSTORE POP DUP1 PUSH1 0xC PUSH0 PUSH2 0x100 EXP DUP2 SLOAD DUP2 PUSH20 0xFFFFFFFFFFFFFFFFFFFFFFFFFFFFFFFFFFFFFFFF MUL NOT AND SWAP1 DUP4 PUSH20 0xFFFFFFFFFFFFFFFFFFFFFFFFFFFFFFFFFFFFFFFF AND MUL OR SWAP1 SSTORE POP TIMESTAMP PUSH1 0x3 DUP2 SWAP1 SSTORE POP PUSH2 0x12C PUSH1 0x3 SLOAD PUSH2 0x15D SWAP2 SWAP1 PUSH2 0x359 JUMP JUMPDEST PUSH1 0x4 DUP2 SWAP1 SSTORE POP PUSH1 0x1 PUSH1 0xF DUP2 SWAP1 SSTORE POP CALLER PUSH1 0xD PUSH0 PUSH2 0x100 EXP DUP2 SLOAD DUP2 PUSH20 0xFFFFFFFFFFFFFFFFFFFFFFFFFFFFFFFFFFFFFFFF MUL NOT AND SWAP1 DUP4 PUSH20 0xFFFFFFFFFFFFFFFFFFFFFFFFFFFFFFFFFFFFFFFF AND MUL OR SWAP1 SSTORE POP POP PUSH2 0x38C JUMP JUMPDEST PUSH0 DUP1 PUSH0 SWAP1 SLOAD SWAP1 PUSH2 0x100 EXP SWAP1 DIV PUSH20 0xFFFFFFFFFFFFFFFFFFFFFFFFFFFFFFFFFFFFFFFF AND SWAP1 POP DUP2 PUSH0 DUP1 PUSH2 0x100 EXP DUP2 SLOAD DUP2 PUSH20 0xFFFFFFFFFFFFFFFFFFFFFFFFFFFFFFFFFFFFFFFF MUL NOT AND SWAP1 DUP4 PUSH20 0xFFFFFFFFFFFFFFFFFFFFFFFFFFFFFFFFFFFFFFFF AND MUL OR SWAP1 SSTORE POP DUP2 PUSH20 0xFFFFFFFFFFFFFFFFFFFFFFFFFFFFFFFFFFFFFFFF AND DUP2 PUSH20 0xFFFFFFFFFFFFFFFFFFFFFFFFFFFFFFFFFFFFFFFF AND PUSH32 0x8BE0079C531659141344CD1FD0A4F28419497F9722A3DAAFE3B4186F6B6457E0 PUSH1 0x40 MLOAD PUSH1 0x40 MLOAD DUP1 SWAP2 SUB SWAP1 LOG3 POP POP JUMP JUMPDEST PUSH0 DUP1 REVERT JUMPDEST PUSH0 PUSH20 0xFFFFFFFFFFFFFFFFFFFFFFFFFFFFFFFFFFFFFFFF DUP3 AND SWAP1 POP SWAP2 SWAP1 POP JUMP JUMPDEST PUSH0 PUSH2 0x29F DUP3 PUSH2 0x276 JUMP JUMPDEST SWAP1 POP SWAP2 SWAP1 POP JUMP JUMPDEST PUSH2 0x2AF DUP2 PUSH2 0x295 JUMP JUMPDEST DUP2 EQ PUSH2 0x2B9 JUMPI PUSH0 DUP1 REVERT JUMPDEST POP JUMP JUMPDEST PUSH0 DUP2 MLOAD SWAP1 POP PUSH2 0x2CA DUP2 PUSH2 0x2A6 JUMP JUMPDEST SWAP3 SWAP2 POP POP JUMP JUMPDEST PUSH0 PUSH1 0x20 DUP3 DUP5 SUB SLT ISZERO PUSH2 0x2E5 JUMPI PUSH2 0x2E4 PUSH2 0x272 JUMP JUMPDEST JUMPDEST PUSH0 PUSH2 0x2F2 DUP5 DUP3 DUP6 ADD PUSH2 0x2BC JUMP JUMPDEST SWAP2 POP POP SWAP3 SWAP2 POP POP JUMP JUMPDEST PUSH2 0x304 DUP2 PUSH2 0x295 JUMP JUMPDEST DUP3 MSTORE POP POP JUMP JUMPDEST PUSH0 PUSH1 0x20 DUP3 ADD SWAP1 POP PUSH2 0x31D PUSH0 DUP4 ADD DUP5 PUSH2 0x2FB JUMP JUMPDEST SWAP3 SWAP2 POP POP JUMP JUMPDEST PUSH0 DUP2 SWAP1 POP SWAP2 SWAP1 POP JUMP JUMPDEST PUSH32 0x4E487B7100000000000000000000000000000000000000000000000000000000 PUSH0 MSTORE PUSH1 0x11 PUSH1 0x4 MSTORE PUSH1 0x24 PUSH0 REVERT JUMPDEST PUSH0 PUSH2 0x363 DUP3 PUSH2 0x323 JUMP JUMPDEST SWAP2 POP PUSH2 0x36E DUP4 PUSH2 0x323 JUMP JUMPDEST SWAP3 POP DUP3 DUP3 ADD SWAP1 POP DUP1 DUP3 GT ISZERO PUSH2 0x386 JUMPI PUSH2 0x385 PUSH2 0x32C JUMP JUMPDEST JUMPDEST SWAP3 SWAP2 POP POP JUMP JUMPDEST PUSH2 0x2DED DUP1 PUSH2 0x399 PUSH0 CODECOPY PUSH0 RETURN INVALID PUSH1 0x80 PUSH1 0x40 MSTORE PUSH1 0x4 CALLDATASIZE LT PUSH2 0x108 JUMPI PUSH0 CALLDATALOAD PUSH1 0xE0 SHR DUP1 PUSH4 0x76F90E8E GT PUSH2 0x94 JUMPI DUP1 PUSH4 0x944C1D97 GT PUSH2 0x63 JUMPI DUP1 PUSH4 0x944C1D97 EQ PUSH2 0x2EA JUMPI DUP1 PUSH4 0x94964EDF EQ PUSH2 0x300 JUMPI DUP1 PUSH4 0xCED72F87 EQ PUSH2 0x32A JUMPI DUP1 PUSH4 0xF2FDE38B EQ PUSH2 0x354 JUMPI DUP1 PUSH4 0xFFEB78B7 EQ PUSH2 0x37C JUMPI PUSH2 0x108 JUMP JUMPDEST DUP1 PUSH4 0x76F90E8E EQ PUSH2 0x23C JUMPI DUP1 PUSH4 0x8DA5CB5B EQ PUSH2 0x266 JUMPI DUP1 PUSH4 0x8E15F473 EQ PUSH2 0x290 JUMPI DUP1 PUSH4 0x90AB1D8E EQ PUSH2 0x2BA JUMPI PUSH2 0x108 JUMP JUMPDEST DUP1 PUSH4 0x2D5CEA8E GT PUSH2 0xDB JUMPI DUP1 PUSH4 0x2D5CEA8E EQ PUSH2 0x1A2 JUMPI DUP1 PUSH4 0x3174B689 EQ PUSH2 0x1BE JUMPI DUP1 PUSH4 0x52505453 EQ PUSH2 0x1D4 JUMPI DUP1 PUSH4 0x69FE0E2D EQ PUSH2 0x1FE JUMPI DUP1 PUSH4 0x715018A6 EQ PUSH2 0x226 JUMPI PUSH2 0x108 JUMP JUMPDEST DUP1 PUSH4 0x121B93F EQ PUSH2 0x10C JUMPI DUP1 PUSH4 0x6DB5C06 EQ PUSH2 0x134 JUMPI DUP1 PUSH4 0xDC96015 EQ PUSH2 0x150 JUMPI DUP1 PUSH4 0x26732549 EQ PUSH2 0x17A JUMPI JUMPDEST PUSH0 DUP1 REVERT JUMPDEST CALLVALUE DUP1 ISZERO PUSH2 0x117 JUMPI PUSH0 DUP1 REVERT JUMPDEST POP PUSH2 0x132 PUSH1 0x4 DUP1 CALLDATASIZE SUB DUP2 ADD SWAP1 PUSH2 0x12D SWAP2 SWAP1 PUSH2 0x1811 JUMP JUMPDEST PUSH2 0x3A6 JUMP JUMPDEST STOP JUMPDEST PUSH2 0x14E PUSH1 0x4 DUP1 CALLDATASIZE SUB DUP2 ADD SWAP1 PUSH2 0x149 SWAP2 SWAP1 PUSH2 0x189D JUMP JUMPDEST PUSH2 0x5CE JUMP JUMPDEST STOP JUMPDEST CALLVALUE DUP1 ISZERO PUSH2 0x15B JUMPI PUSH0 DUP1 REVERT JUMPDEST POP PUSH2 0x164 PUSH2 0x7C8 JUMP JUMPDEST PUSH1 0x40 MLOAD PUSH2 0x171 SWAP2 SWAP1 PUSH2 0x1A02 JUMP JUMPDEST PUSH1 0x40 MLOAD DUP1 SWAP2 SUB SWAP1 RETURN JUMPDEST CALLVALUE DUP1 ISZERO PUSH2 0x185 JUMPI PUSH0 DUP1 REVERT JUMPDEST POP PUSH2 0x1A0 PUSH1 0x4 DUP1 CALLDATASIZE SUB DUP2 ADD SWAP1 PUSH2 0x19B SWAP2 SWAP1 PUSH2 0x1A4C JUMP JUMPDEST PUSH2 0x853 JUMP JUMPDEST STOP JUMPDEST PUSH2 0x1BC PUSH1 0x4 DUP1 CALLDATASIZE SUB DUP2 ADD SWAP1 PUSH2 0x1B7 SWAP2 SWAP1 PUSH2 0x1A4C JUMP JUMPDEST PUSH2 0x89E JUMP JUMPDEST STOP JUMPDEST CALLVALUE DUP1 ISZERO PUSH2 0x1C9 JUMPI PUSH0 DUP1 REVERT JUMPDEST POP PUSH2 0x1D2 PUSH2 0x8E5 JUMP JUMPDEST STOP JUMPDEST CALLVALUE DUP1 ISZERO PUSH2 0x1DF JUMPI PUSH0 DUP1 REVERT JUMPDEST POP PUSH2 0x1E8 PUSH2 0xBF8 JUMP JUMPDEST PUSH1 0x40 MLOAD PUSH2 0x1F5 SWAP2 SWAP1 PUSH2 0x1AB3 JUMP JUMPDEST PUSH1 0x40 MLOAD DUP1 SWAP2 SUB SWAP1 RETURN JUMPDEST CALLVALUE DUP1 ISZERO PUSH2 0x209 JUMPI PUSH0 DUP1 REVERT JUMPDEST POP PUSH2 0x224 PUSH1 0x4 DUP1 CALLDATASIZE SUB DUP2 ADD SWAP1 PUSH2 0x21F SWAP2 SWAP1 PUSH2 0x1811 JUMP JUMPDEST PUSH2 0xC1E JUMP JUMPDEST STOP JUMPDEST CALLVALUE DUP1 ISZERO PUSH2 0x231 JUMPI PUSH0 DUP1 REVERT JUMPDEST POP PUSH2 0x23A PUSH2 0xC30 JUMP JUMPDEST STOP JUMPDEST CALLVALUE DUP1 ISZERO PUSH2 0x247 JUMPI PUSH0 DUP1 REVERT JUMPDEST POP PUSH2 0x250 PUSH2 0xC43 JUMP JUMPDEST PUSH1 0x40 MLOAD PUSH2 0x25D SWAP2 SWAP1 PUSH2 0x1BF4 JUMP JUMPDEST PUSH1 0x40 MLOAD DUP1 SWAP2 SUB SWAP1 RETURN JUMPDEST CALLVALUE DUP1 ISZERO PUSH2 0x271 JUMPI PUSH0 DUP1 REVERT JUMPDEST POP PUSH2 0x27A PUSH2 0xDF9 JUMP JUMPDEST PUSH1 0x40 MLOAD PUSH2 0x287 SWAP2 SWAP1 PUSH2 0x1C23 JUMP JUMPDEST PUSH1 0x40 MLOAD DUP1 SWAP2 SUB SWAP1 RETURN JUMPDEST CALLVALUE DUP1 ISZERO PUSH2 0x29B JUMPI PUSH0 DUP1 REVERT JUMPDEST POP PUSH2 0x2A4 PUSH2 0xE20 JUMP JUMPDEST PUSH1 0x40 MLOAD PUSH2 0x2B1 SWAP2 SWAP1 PUSH2 0x1C4B JUMP JUMPDEST PUSH1 0x40 MLOAD DUP1 SWAP2 SUB SWAP1 RETURN JUMPDEST CALLVALUE DUP1 ISZERO PUSH2 0x2C5 JUMPI PUSH0 DUP1 REVERT JUMPDEST POP PUSH2 0x2CE PUSH2 0xECC JUMP JUMPDEST PUSH1 0x40 MLOAD PUSH2 0x2E1 SWAP8 SWAP7 SWAP6 SWAP5 SWAP4 SWAP3 SWAP2 SWAP1 PUSH2 0x1CBB JUMP JUMPDEST PUSH1 0x40 MLOAD DUP1 SWAP2 SUB SWAP1 RETURN JUMPDEST CALLVALUE DUP1 ISZERO PUSH2 0x2F5 JUMPI PUSH0 DUP1 REVERT JUMPDEST POP PUSH2 0x2FE PUSH2 0x1026 JUMP JUMPDEST STOP JUMPDEST CALLVALUE DUP1 ISZERO PUSH2 0x30B JUMPI PUSH0 DUP1 REVERT JUMPDEST POP PUSH2 0x314 PUSH2 0x12EB JUMP JUMPDEST PUSH1 0x40 MLOAD PUSH2 0x321 SWAP2 SWAP1 PUSH2 0x1E91 JUMP JUMPDEST PUSH1 0x40 MLOAD DUP1 SWAP2 SUB SWAP1 RETURN JUMPDEST CALLVALUE DUP1 ISZERO PUSH2 0x335 JUMPI PUSH0 DUP1 REVERT JUMPDEST POP PUSH2 0x33E PUSH2 0x1383 JUMP JUMPDEST PUSH1 0x40 MLOAD PUSH2 0x34B SWAP2 SWAP1 PUSH2 0x1C4B JUMP JUMPDEST PUSH1 0x40 MLOAD DUP1 SWAP2 SUB SWAP1 RETURN JUMPDEST CALLVALUE DUP1 ISZERO PUSH2 0x35F JUMPI PUSH0 DUP1 REVERT JUMPDEST POP PUSH2 0x37A PUSH1 0x4 DUP1 CALLDATASIZE SUB DUP2 ADD SWAP1 PUSH2 0x375 SWAP2 SWAP1 PUSH2 0x1A4C JUMP JUMPDEST PUSH2 0x138C JUMP JUMPDEST STOP JUMPDEST CALLVALUE DUP1 ISZERO PUSH2 0x387 JUMPI PUSH0 DUP1 REVERT JUMPDEST POP PUSH2 0x390 PUSH2 0x1410 JUMP JUMPDEST PUSH1 0x40 MLOAD PUSH2 0x39D SWAP2 SWAP1 PUSH2 0x1BF4 JUMP JUMPDEST PUSH1 0x40 MLOAD DUP1 SWAP2 SUB SWAP1 RETURN JUMPDEST PUSH1 0x4 SLOAD TIMESTAMP LT PUSH2 0x3EA JUMPI PUSH1 0x40 MLOAD PUSH32 0x8C379A000000000000000000000000000000000000000000000000000000000 DUP2 MSTORE PUSH1 0x4 ADD PUSH2 0x3E1 SWAP1 PUSH2 0x1EFB JUMP JUMPDEST PUSH1 0x40 MLOAD DUP1 SWAP2 SUB SWAP1 REVERT JUMPDEST PUSH0 PUSH1 0x1 PUSH0 CALLER PUSH20 0xFFFFFFFFFFFFFFFFFFFFFFFFFFFFFFFFFFFFFFFF AND PUSH20 0xFFFFFFFFFFFFFFFFFFFFFFFFFFFFFFFFFFFFFFFF AND DUP2 MSTORE PUSH1 0x20 ADD SWAP1 DUP2 MSTORE PUSH1 0x20 ADD PUSH0 KECCAK256 SLOAD EQ PUSH2 0x469 JUMPI PUSH1 0x40 MLOAD PUSH32 0x8C379A000000000000000000000000000000000000000000000000000000000 DUP2 MSTORE PUSH1 0x4 ADD PUSH2 0x460 SWAP1 PUSH2 0x1F63 JUMP JUMPDEST PUSH1 0x40 MLOAD DUP1 SWAP2 SUB SWAP1 REVERT JUMPDEST DUP1 PUSH1 0x1 PUSH0 CALLER PUSH20 0xFFFFFFFFFFFFFFFFFFFFFFFFFFFFFFFFFFFFFFFF AND PUSH20 0xFFFFFFFFFFFFFFFFFFFFFFFFFFFFFFFFFFFFFFFF AND DUP2 MSTORE PUSH1 0x20 ADD SWAP1 DUP2 MSTORE PUSH1 0x20 ADD PUSH0 KECCAK256 DUP2 SWAP1 SSTORE POP PUSH1 0x2 CALLER SWAP1 DUP1 PUSH1 0x1 DUP2 SLOAD ADD DUP1 DUP3 SSTORE DUP1 SWAP2 POP POP PUSH1 0x1 SWAP1 SUB SWAP1 PUSH0 MSTORE PUSH1 0x20 PUSH0 KECCAK256 ADD PUSH0 SWAP1 SWAP2 SWAP1 SWAP2 SWAP1 SWAP2 PUSH2 0x100 EXP DUP2 SLOAD DUP2 PUSH20 0xFFFFFFFFFFFFFFFFFFFFFFFFFFFFFFFFFFFFFFFF MUL NOT AND SWAP1 DUP4 PUSH20 0xFFFFFFFFFFFFFFFFFFFFFFFFFFFFFFFFFFFFFFFF AND MUL OR SWAP1 SSTORE POP PUSH1 0xC PUSH0 SWAP1 SLOAD SWAP1 PUSH2 0x100 EXP SWAP1 DIV PUSH20 0xFFFFFFFFFFFFFFFFFFFFFFFFFFFFFFFFFFFFFFFF AND PUSH20 0xFFFFFFFFFFFFFFFFFFFFFFFFFFFFFFFFFFFFFFFF AND PUSH4 0xEF46A75D DUP3 PUSH1 0x40 MLOAD DUP3 PUSH4 0xFFFFFFFF AND PUSH1 0xE0 SHL DUP2 MSTORE PUSH1 0x4 ADD PUSH2 0x565 SWAP2 SWAP1 PUSH2 0x1C4B JUMP JUMPDEST PUSH0 PUSH1 0x40 MLOAD DUP1 DUP4 SUB DUP2 PUSH0 DUP8 DUP1 EXTCODESIZE ISZERO DUP1 ISZERO PUSH2 0x57C JUMPI PUSH0 DUP1 REVERT JUMPDEST POP GAS CALL ISZERO DUP1 ISZERO PUSH2 0x58E JUMPI RETURNDATASIZE PUSH0 DUP1 RETURNDATACOPY RETURNDATASIZE PUSH0 REVERT JUMPDEST POP POP POP POP PUSH32 0xD0E6C39F2E086DC49F1524B47725526A56945CD1FF661F37976F1725A1E56986 CALLER DUP3 PUSH1 0x40 MLOAD PUSH2 0x5C3 SWAP3 SWAP2 SWAP1 PUSH2 0x1F81 JUMP JUMPDEST PUSH1 0x40 MLOAD DUP1 SWAP2 SUB SWAP1 LOG1 POP JUMP JUMPDEST PUSH1 0xF SLOAD DUP1 CALLER PUSH20 0xFFFFFFFFFFFFFFFFFFFFFFFFFFFFFFFFFFFFFFFF AND BALANCE GT PUSH2 0x62A JUMPI PUSH1 0x40 MLOAD PUSH32 0x8C379A000000000000000000000000000000000000000000000000000000000 DUP2 MSTORE PUSH1 0x4 ADD PUSH2 0x621 SWAP1 PUSH2 0x1FF2 JUMP JUMPDEST PUSH1 0x40 MLOAD DUP1 SWAP2 SUB SWAP1 REVERT JUMPDEST PUSH1 0xF SLOAD CALLVALUE EQ PUSH2 0x66E JUMPI PUSH1 0x40 MLOAD PUSH32 0x8C379A000000000000000000000000000000000000000000000000000000000 DUP2 MSTORE PUSH1 0x4 ADD PUSH2 0x665 SWAP1 PUSH2 0x205A JUMP JUMPDEST PUSH1 0x40 MLOAD DUP1 SWAP2 SUB SWAP1 REVERT JUMPDEST PUSH0 PUSH1 0xC PUSH0 SWAP1 SLOAD SWAP1 PUSH2 0x100 EXP SWAP1 DIV PUSH20 0xFFFFFFFFFFFFFFFFFFFFFFFFFFFFFFFFFFFFFFFF AND PUSH20 0xFFFFFFFFFFFFFFFFFFFFFFFFFFFFFFFFFFFFFFFF AND PUSH4 0x6F7789A1 DUP8 DUP8 DUP8 DUP8 PUSH1 0x40 MLOAD DUP6 PUSH4 0xFFFFFFFF AND PUSH1 0xE0 SHL DUP2 MSTORE PUSH1 0x4 ADD PUSH2 0x6CF SWAP5 SWAP4 SWAP3 SWAP2 SWAP1 PUSH2 0x20B2 JUMP JUMPDEST PUSH0 PUSH1 0x40 MLOAD DUP1 DUP4 SUB DUP2 PUSH0 DUP8 GAS CALL ISZERO DUP1 ISZERO PUSH2 0x6EA JUMPI RETURNDATASIZE PUSH0 DUP1 RETURNDATACOPY RETURNDATASIZE PUSH0 REVERT JUMPDEST POP POP POP POP PUSH1 0x40 MLOAD RETURNDATASIZE PUSH0 DUP3 RETURNDATACOPY RETURNDATASIZE PUSH1 0x1F NOT PUSH1 0x1F DUP3 ADD AND DUP3 ADD DUP1 PUSH1 0x40 MSTORE POP DUP2 ADD SWAP1 PUSH2 0x712 SWAP2 SWAP1 PUSH2 0x2348 JUMP JUMPDEST SWAP1 POP PUSH1 0xD PUSH0 SWAP1 SLOAD SWAP1 PUSH2 0x100 EXP SWAP1 DIV PUSH20 0xFFFFFFFFFFFFFFFFFFFFFFFFFFFFFFFFFFFFFFFF AND PUSH20 0xFFFFFFFFFFFFFFFFFFFFFFFFFFFFFFFFFFFFFFFF AND PUSH2 0x8FC CALLVALUE SWAP1 DUP2 ISZERO MUL SWAP1 PUSH1 0x40 MLOAD PUSH0 PUSH1 0x40 MLOAD DUP1 DUP4 SUB DUP2 DUP6 DUP9 DUP9 CALL SWAP4 POP POP POP POP ISZERO DUP1 ISZERO PUSH2 0x778 JUMPI RETURNDATASIZE PUSH0 DUP1 RETURNDATACOPY RETURNDATASIZE PUSH0 REVERT JUMPDEST POP PUSH32 0x918F010187DACFA7074BF61710AFF7A8BA31FCD11AEF11D9CF1F8293F1ACBA6F DUP7 DUP7 DUP7 DUP7 TIMESTAMP PUSH0 DUP8 PUSH1 0xA0 ADD MLOAD PUSH1 0x40 MLOAD PUSH2 0x7B8 SWAP8 SWAP7 SWAP6 SWAP5 SWAP4 SWAP3 SWAP2 SWAP1 PUSH2 0x23D1 JUMP JUMPDEST PUSH1 0x40 MLOAD DUP1 SWAP2 SUB SWAP1 LOG1 POP POP POP POP POP POP JUMP JUMPDEST PUSH1 0x60 PUSH1 0x2 DUP1 SLOAD DUP1 PUSH1 0x20 MUL PUSH1 0x20 ADD PUSH1 0x40 MLOAD SWAP1 DUP2 ADD PUSH1 0x40 MSTORE DUP1 SWAP3 SWAP2 SWAP1 DUP2 DUP2 MSTORE PUSH1 0x20 ADD DUP3 DUP1 SLOAD DUP1 ISZERO PUSH2 0x849 JUMPI PUSH1 0x20 MUL DUP3 ADD SWAP2 SWAP1 PUSH0 MSTORE PUSH1 0x20 PUSH0 KECCAK256 SWAP1 JUMPDEST DUP2 PUSH0 SWAP1 SLOAD SWAP1 PUSH2 0x100 EXP SWAP1 DIV PUSH20 0xFFFFFFFFFFFFFFFFFFFFFFFFFFFFFFFFFFFFFFFF AND PUSH20 0xFFFFFFFFFFFFFFFFFFFFFFFFFFFFFFFFFFFFFFFF AND DUP2 MSTORE PUSH1 0x20 ADD SWAP1 PUSH1 0x1 ADD SWAP1 DUP1 DUP4 GT PUSH2 0x800 JUMPI JUMPDEST POP POP POP POP POP SWAP1 POP SWAP1 JUMP JUMPDEST PUSH2 0x85B PUSH2 0x14AE JUMP JUMPDEST DUP1 PUSH1 0xC PUSH0 PUSH2 0x100 EXP DUP2 SLOAD DUP2 PUSH20 0xFFFFFFFFFFFFFFFFFFFFFFFFFFFFFFFFFFFFFFFF MUL NOT AND SWAP1 DUP4 PUSH20 0xFFFFFFFFFFFFFFFFFFFFFFFFFFFFFFFFFFFFFFFF AND MUL OR SWAP1 SSTORE POP POP JUMP JUMPDEST DUP1 PUSH20 0xFFFFFFFFFFFFFFFFFFFFFFFFFFFFFFFFFFFFFFFF AND PUSH2 0x8FC CALLVALUE SWAP1 DUP2 ISZERO MUL SWAP1 PUSH1 0x40 MLOAD PUSH0 PUSH1 0x40 MLOAD DUP1 DUP4 SUB DUP2 DUP6 DUP9 DUP9 CALL SWAP4 POP POP POP POP ISZERO DUP1 ISZERO PUSH2 0x8E1 JUMPI RETURNDATASIZE PUSH0 DUP1 RETURNDATACOPY RETURNDATASIZE PUSH0 REVERT JUMPDEST POP POP JUMP JUMPDEST PUSH1 0x4 SLOAD TIMESTAMP LT PUSH2 0x929 JUMPI PUSH1 0x40 MLOAD PUSH32 0x8C379A000000000000000000000000000000000000000000000000000000000 DUP2 MSTORE PUSH1 0x4 ADD PUSH2 0x920 SWAP1 PUSH2 0x1EFB JUMP JUMPDEST PUSH1 0x40 MLOAD DUP1 SWAP2 SUB SWAP1 REVERT JUMPDEST PUSH0 PUSH1 0x1 PUSH0 CALLER PUSH20 0xFFFFFFFFFFFFFFFFFFFFFFFFFFFFFFFFFFFFFFFF AND PUSH20 0xFFFFFFFFFFFFFFFFFFFFFFFFFFFFFFFFFFFFFFFF AND DUP2 MSTORE PUSH1 0x20 ADD SWAP1 DUP2 MSTORE PUSH1 0x20 ADD PUSH0 KECCAK256 SLOAD SUB PUSH2 0x9A8 JUMPI PUSH1 0x40 MLOAD PUSH32 0x8C379A000000000000000000000000000000000000000000000000000000000 DUP2 MSTORE PUSH1 0x4 ADD PUSH2 0x99F SWAP1 PUSH2 0x247E JUMP JUMPDEST PUSH1 0x40 MLOAD DUP1 SWAP2 SUB SWAP1 REVERT JUMPDEST PUSH0 PUSH1 0x1 PUSH0 CALLER PUSH20 0xFFFFFFFFFFFFFFFFFFFFFFFFFFFFFFFFFFFFFFFF AND PUSH20 0xFFFFFFFFFFFFFFFFFFFFFFFFFFFFFFFFFFFFFFFF AND DUP2 MSTORE PUSH1 0x20 ADD SWAP1 DUP2 MSTORE PUSH1 0x20 ADD PUSH0 KECCAK256 SLOAD SWAP1 POP PUSH0 PUSH1 0x1 PUSH0 CALLER PUSH20 0xFFFFFFFFFFFFFFFFFFFFFFFFFFFFFFFFFFFFFFFF AND PUSH20 0xFFFFFFFFFFFFFFFFFFFFFFFFFFFFFFFFFFFFFFFF AND DUP2 MSTORE PUSH1 0x20 ADD SWAP1 DUP2 MSTORE PUSH1 0x20 ADD PUSH0 KECCAK256 DUP2 SWAP1 SSTORE POP PUSH1 0xC PUSH0 SWAP1 SLOAD SWAP1 PUSH2 0x100 EXP SWAP1 DIV PUSH20 0xFFFFFFFFFFFFFFFFFFFFFFFFFFFFFFFFFFFFFFFF AND PUSH20 0xFFFFFFFFFFFFFFFFFFFFFFFFFFFFFFFFFFFFFFFF AND PUSH4 0x9B757A2C DUP3 PUSH1 0x40 MLOAD DUP3 PUSH4 0xFFFFFFFF AND PUSH1 0xE0 SHL DUP2 MSTORE PUSH1 0x4 ADD PUSH2 0xA85 SWAP2 SWAP1 PUSH2 0x1C4B JUMP JUMPDEST PUSH0 PUSH1 0x40 MLOAD DUP1 DUP4 SUB DUP2 PUSH0 DUP8 DUP1 EXTCODESIZE ISZERO DUP1 ISZERO PUSH2 0xA9C JUMPI PUSH0 DUP1 REVERT JUMPDEST POP GAS CALL ISZERO DUP1 ISZERO PUSH2 0xAAE JUMPI RETURNDATASIZE PUSH0 DUP1 RETURNDATACOPY RETURNDATASIZE PUSH0 REVERT JUMPDEST POP POP POP POP PUSH20 0x0 PUSH4 0x5A8D4625 PUSH1 0x2 PUSH20 0x0 PUSH4 0x1C07C87F PUSH1 0x2 CALLER PUSH1 0x40 MLOAD DUP4 PUSH4 0xFFFFFFFF AND PUSH1 0xE0 SHL DUP2 MSTORE PUSH1 0x4 ADD PUSH2 0xB08 SWAP3 SWAP2 SWAP1 PUSH2 0x25C1 JUMP JUMPDEST PUSH1 0x20 PUSH1 0x40 MLOAD DUP1 DUP4 SUB DUP2 DUP7 GAS DELEGATECALL ISZERO DUP1 ISZERO PUSH2 0xB23 JUMPI RETURNDATASIZE PUSH0 DUP1 RETURNDATACOPY RETURNDATASIZE PUSH0 REVERT JUMPDEST POP POP POP POP PUSH1 0x40 MLOAD RETURNDATASIZE PUSH1 0x1F NOT PUSH1 0x1F DUP3 ADD AND DUP3 ADD DUP1 PUSH1 0x40 MSTORE POP DUP2 ADD SWAP1 PUSH2 0xB47 SWAP2 SWAP1 PUSH2 0x25EF JUMP JUMPDEST PUSH1 0x40 MLOAD DUP4 PUSH4 0xFFFFFFFF AND PUSH1 0xE0 SHL DUP2 MSTORE PUSH1 0x4 ADD PUSH2 0xB64 SWAP3 SWAP2 SWAP1 PUSH2 0x2629 JUMP JUMPDEST PUSH0 PUSH1 0x40 MLOAD DUP1 DUP4 SUB DUP2 DUP7 GAS DELEGATECALL ISZERO DUP1 ISZERO PUSH2 0xB7E JUMPI RETURNDATASIZE PUSH0 DUP1 RETURNDATACOPY RETURNDATASIZE PUSH0 REVERT JUMPDEST POP POP POP POP PUSH1 0x40 MLOAD RETURNDATASIZE PUSH0 DUP3 RETURNDATACOPY RETURNDATASIZE PUSH1 0x1F NOT PUSH1 0x1F DUP3 ADD AND DUP3 ADD DUP1 PUSH1 0x40 MSTORE POP DUP2 ADD SWAP1 PUSH2 0xBA6 SWAP2 SWAP1 PUSH2 0x2717 JUMP JUMPDEST PUSH1 0x2 SWAP1 DUP1 MLOAD SWAP1 PUSH1 0x20 ADD SWAP1 PUSH2 0xBBB SWAP3 SWAP2 SWAP1 PUSH2 0x16A4 JUMP JUMPDEST POP PUSH32 0x1E4BA8038DF092A6A9CC2400D85E4BCDABAE0834FCAD0EE391A8DFF246EF4254 CALLER DUP3 PUSH1 0x40 MLOAD PUSH2 0xBED SWAP3 SWAP2 SWAP1 PUSH2 0x1F81 JUMP JUMPDEST PUSH1 0x40 MLOAD DUP1 SWAP2 SUB SWAP1 LOG1 POP JUMP JUMPDEST PUSH2 0xC00 PUSH2 0x172B JUMP JUMPDEST PUSH1 0x40 MLOAD DUP1 PUSH1 0x40 ADD PUSH1 0x40 MSTORE DUP1 PUSH1 0x3 SLOAD DUP2 MSTORE PUSH1 0x20 ADD PUSH1 0x4 SLOAD DUP2 MSTORE POP SWAP1 POP SWAP1 JUMP JUMPDEST PUSH2 0xC26 PUSH2 0x14AE JUMP JUMPDEST DUP1 PUSH1 0xF DUP2 SWAP1 SSTORE POP POP JUMP JUMPDEST PUSH2 0xC38 PUSH2 0x14AE JUMP JUMPDEST PUSH2 0xC41 PUSH0 PUSH2 0x1535 JUMP JUMPDEST JUMP JUMPDEST PUSH2 0xC4B PUSH2 0x1743 JUMP JUMPDEST PUSH1 0x5 PUSH1 0x40 MLOAD DUP1 PUSH1 0xE0 ADD PUSH1 0x40 MSTORE SWAP1 DUP2 PUSH0 DUP3 ADD PUSH0 SWAP1 SLOAD SWAP1 PUSH2 0x100 EXP SWAP1 DIV PUSH20 0xFFFFFFFFFFFFFFFFFFFFFFFFFFFFFFFFFFFFFFFF AND PUSH20 0xFFFFFFFFFFFFFFFFFFFFFFFFFFFFFFFFFFFFFFFF AND PUSH20 0xFFFFFFFFFFFFFFFFFFFFFFFFFFFFFFFFFFFFFFFF AND DUP2 MSTORE PUSH1 0x20 ADD PUSH1 0x1 DUP3 ADD DUP1 SLOAD PUSH2 0xCBC SWAP1 PUSH2 0x278B JUMP JUMPDEST DUP1 PUSH1 0x1F ADD PUSH1 0x20 DUP1 SWAP2 DIV MUL PUSH1 0x20 ADD PUSH1 0x40 MLOAD SWAP1 DUP2 ADD PUSH1 0x40 MSTORE DUP1 SWAP3 SWAP2 SWAP1 DUP2 DUP2 MSTORE PUSH1 0x20 ADD DUP3 DUP1 SLOAD PUSH2 0xCE8 SWAP1 PUSH2 0x278B JUMP JUMPDEST DUP1 ISZERO PUSH2 0xD33 JUMPI DUP1 PUSH1 0x1F LT PUSH2 0xD0A JUMPI PUSH2 0x100 DUP1 DUP4 SLOAD DIV MUL DUP4 MSTORE SWAP2 PUSH1 0x20 ADD SWAP2 PUSH2 0xD33 JUMP JUMPDEST DUP3 ADD SWAP2 SWAP1 PUSH0 MSTORE PUSH1 0x20 PUSH0 KECCAK256 SWAP1 JUMPDEST DUP2 SLOAD DUP2 MSTORE SWAP1 PUSH1 0x1 ADD SWAP1 PUSH1 0x20 ADD DUP1 DUP4 GT PUSH2 0xD16 JUMPI DUP3 SWAP1 SUB PUSH1 0x1F AND DUP3 ADD SWAP2 JUMPDEST POP POP POP POP POP DUP2 MSTORE PUSH1 0x20 ADD PUSH1 0x2 DUP3 ADD DUP1 SLOAD PUSH2 0xD4C SWAP1 PUSH2 0x278B JUMP JUMPDEST DUP1 PUSH1 0x1F ADD PUSH1 0x20 DUP1 SWAP2 DIV MUL PUSH1 0x20 ADD PUSH1 0x40 MLOAD SWAP1 DUP2 ADD PUSH1 0x40 MSTORE DUP1 SWAP3 SWAP2 SWAP1 DUP2 DUP2 MSTORE PUSH1 0x20 ADD DUP3 DUP1 SLOAD PUSH2 0xD78 SWAP1 PUSH2 0x278B JUMP JUMPDEST DUP1 ISZERO PUSH2 0xDC3 JUMPI DUP1 PUSH1 0x1F LT PUSH2 0xD9A JUMPI PUSH2 0x100 DUP1 DUP4 SLOAD DIV MUL DUP4 MSTORE SWAP2 PUSH1 0x20 ADD SWAP2 PUSH2 0xDC3 JUMP JUMPDEST DUP3 ADD SWAP2 SWAP1 PUSH0 MSTORE PUSH1 0x20 PUSH0 KECCAK256 SWAP1 JUMPDEST DUP2 SLOAD DUP2 MSTORE SWAP1 PUSH1 0x1 ADD SWAP1 PUSH1 0x20 ADD DUP1 DUP4 GT PUSH2 0xDA6 JUMPI DUP3 SWAP1 SUB PUSH1 0x1F AND DUP3 ADD SWAP2 JUMPDEST POP POP POP POP POP DUP2 MSTORE PUSH1 0x20 ADD PUSH1 0x3 DUP3 ADD SLOAD DUP2 MSTORE PUSH1 0x20 ADD PUSH1 0x4 DUP3 ADD SLOAD DUP2 MSTORE PUSH1 0x20 ADD PUSH1 0x5 DUP3 ADD SLOAD DUP2 MSTORE PUSH1 0x20 ADD PUSH1 0x6 DUP3 ADD SLOAD DUP2 MSTORE POP POP SWAP1 POP SWAP1 JUMP JUMPDEST PUSH0 DUP1 PUSH0 SWAP1 SLOAD SWAP1 PUSH2 0x100 EXP SWAP1 DIV PUSH20 0xFFFFFFFFFFFFFFFFFFFFFFFFFFFFFFFFFFFFFFFF AND SWAP1 POP SWAP1 JUMP JUMPDEST PUSH0 DUP1 PUSH1 0xE PUSH0 SWAP1 SLOAD SWAP1 PUSH2 0x100 EXP SWAP1 DIV PUSH20 0xFFFFFFFFFFFFFFFFFFFFFFFFFFFFFFFFFFFFFFFF AND PUSH20 0xFFFFFFFFFFFFFFFFFFFFFFFFFFFFFFFFFFFFFFFF AND PUSH4 0xFEAF968C PUSH1 0x40 MLOAD DUP2 PUSH4 0xFFFFFFFF AND PUSH1 0xE0 SHL DUP2 MSTORE PUSH1 0x4 ADD PUSH1 0xA0 PUSH1 0x40 MLOAD DUP1 DUP4 SUB DUP2 DUP7 GAS STATICCALL ISZERO DUP1 ISZERO PUSH2 0xE8C JUMPI RETURNDATASIZE PUSH0 DUP1 RETURNDATACOPY RETURNDATASIZE PUSH0 REVERT JUMPDEST POP POP POP POP PUSH1 0x40 MLOAD RETURNDATASIZE PUSH1 0x1F NOT PUSH1 0x1F DUP3 ADD AND DUP3 ADD DUP1 PUSH1 0x40 MSTORE POP DUP2 ADD SWAP1 PUSH2 0xEB0 SWAP2 SWAP1 PUSH2 0x282D JUMP JUMPDEST POP POP POP SWAP2 POP POP PUSH4 0x5F5E100 DUP2 PUSH2 0xEC6 SWAP2 SWAP1 PUSH2 0x28FE JUMP JUMPDEST SWAP2 POP POP SWAP1 JUMP JUMPDEST PUSH1 0x5 DUP1 PUSH0 ADD PUSH0 SWAP1 SLOAD SWAP1 PUSH2 0x100 EXP SWAP1 DIV PUSH20 0xFFFFFFFFFFFFFFFFFFFFFFFFFFFFFFFFFFFFFFFF AND SWAP1 DUP1 PUSH1 0x1 ADD DUP1 SLOAD PUSH2 0xF01 SWAP1 PUSH2 0x278B JUMP JUMPDEST DUP1 PUSH1 0x1F ADD PUSH1 0x20 DUP1 SWAP2 DIV MUL PUSH1 0x20 ADD PUSH1 0x40 MLOAD SWAP1 DUP2 ADD PUSH1 0x40 MSTORE DUP1 SWAP3 SWAP2 SWAP1 DUP2 DUP2 MSTORE PUSH1 0x20 ADD DUP3 DUP1 SLOAD PUSH2 0xF2D SWAP1 PUSH2 0x278B JUMP JUMPDEST DUP1 ISZERO PUSH2 0xF78 JUMPI DUP1 PUSH1 0x1F LT PUSH2 0xF4F JUMPI PUSH2 0x100 DUP1 DUP4 SLOAD DIV MUL DUP4 MSTORE SWAP2 PUSH1 0x20 ADD SWAP2 PUSH2 0xF78 JUMP JUMPDEST DUP3 ADD SWAP2 SWAP1 PUSH0 MSTORE PUSH1 0x20 PUSH0 KECCAK256 SWAP1 JUMPDEST DUP2 SLOAD DUP2 MSTORE SWAP1 PUSH1 0x1 ADD SWAP1 PUSH1 0x20 ADD DUP1 DUP4 GT PUSH2 0xF5B JUMPI DUP3 SWAP1 SUB PUSH1 0x1F AND DUP3 ADD SWAP2 JUMPDEST POP POP POP POP POP SWAP1 DUP1 PUSH1 0x2 ADD DUP1 SLOAD PUSH2 0xF8D SWAP1 PUSH2 0x278B JUMP JUMPDEST DUP1 PUSH1 0x1F ADD PUSH1 0x20 DUP1 SWAP2 DIV MUL PUSH1 0x20 ADD PUSH1 0x40 MLOAD SWAP1 DUP2 ADD PUSH1 0x40 MSTORE DUP1 SWAP3 SWAP2 SWAP1 DUP2 DUP2 MSTORE PUSH1 0x20 ADD DUP3 DUP1 SLOAD PUSH2 0xFB9 SWAP1 PUSH2 0x278B JUMP JUMPDEST DUP1 ISZERO PUSH2 0x1004 JUMPI DUP1 PUSH1 0x1F LT PUSH2 0xFDB JUMPI PUSH2 0x100 DUP1 DUP4 SLOAD DIV MUL DUP4 MSTORE SWAP2 PUSH1 0x20 ADD SWAP2 PUSH2 0x1004 JUMP JUMPDEST DUP3 ADD SWAP2 SWAP1 PUSH0 MSTORE PUSH1 0x20 PUSH0 KECCAK256 SWAP1 JUMPDEST DUP2 SLOAD DUP2 MSTORE SWAP1 PUSH1 0x1 ADD SWAP1 PUSH1 0x20 ADD DUP1 DUP4 GT PUSH2 0xFE7 JUMPI DUP3 SWAP1 SUB PUSH1 0x1F AND DUP3 ADD SWAP2 JUMPDEST POP POP POP POP POP SWAP1 DUP1 PUSH1 0x3 ADD SLOAD SWAP1 DUP1 PUSH1 0x4 ADD SLOAD SWAP1 DUP1 PUSH1 0x5 ADD SLOAD SWAP1 DUP1 PUSH1 0x6 ADD SLOAD SWAP1 POP DUP8 JUMP JUMPDEST PUSH2 0x102E PUSH2 0x14AE JUMP JUMPDEST TIMESTAMP PUSH1 0x3 DUP2 SWAP1 SSTORE POP PUSH2 0x12C PUSH1 0x3 SLOAD PUSH2 0x1045 SWAP2 SWAP1 PUSH2 0x292E JUMP JUMPDEST PUSH1 0x4 DUP2 SWAP1 SSTORE POP PUSH2 0x1053 PUSH2 0x15F6 JUMP JUMPDEST PUSH0 PUSH1 0xC PUSH0 SWAP1 SLOAD SWAP1 PUSH2 0x100 EXP SWAP1 DIV PUSH20 0xFFFFFFFFFFFFFFFFFFFFFFFFFFFFFFFFFFFFFFFF AND PUSH20 0xFFFFFFFFFFFFFFFFFFFFFFFFFFFFFFFFFFFFFFFF AND PUSH4 0x94964EDF PUSH1 0x40 MLOAD DUP2 PUSH4 0xFFFFFFFF AND PUSH1 0xE0 SHL DUP2 MSTORE PUSH1 0x4 ADD PUSH0 PUSH1 0x40 MLOAD DUP1 DUP4 SUB DUP2 DUP7 GAS STATICCALL ISZERO DUP1 ISZERO PUSH2 0x10BD JUMPI RETURNDATASIZE PUSH0 DUP1 RETURNDATACOPY RETURNDATASIZE PUSH0 REVERT JUMPDEST POP POP POP POP PUSH1 0x40 MLOAD RETURNDATASIZE PUSH0 DUP3 RETURNDATACOPY RETURNDATASIZE PUSH1 0x1F NOT PUSH1 0x1F DUP3 ADD AND DUP3 ADD DUP1 PUSH1 0x40 MSTORE POP DUP2 ADD SWAP1 PUSH2 0x10E5 SWAP2 SWAP1 PUSH2 0x2A3F JUMP JUMPDEST MLOAD GT ISZERO PUSH2 0x12AE JUMPI PUSH1 0xC PUSH0 SWAP1 SLOAD SWAP1 PUSH2 0x100 EXP SWAP1 DIV PUSH20 0xFFFFFFFFFFFFFFFFFFFFFFFFFFFFFFFFFFFFFFFF AND PUSH20 0xFFFFFFFFFFFFFFFFFFFFFFFFFFFFFFFFFFFFFFFF AND PUSH4 0x6C9A5FA4 PUSH1 0x40 MLOAD DUP2 PUSH4 0xFFFFFFFF AND PUSH1 0xE0 SHL DUP2 MSTORE PUSH1 0x4 ADD PUSH0 PUSH1 0x40 MLOAD DUP1 DUP4 SUB DUP2 DUP7 GAS STATICCALL ISZERO DUP1 ISZERO PUSH2 0x1155 JUMPI RETURNDATASIZE PUSH0 DUP1 RETURNDATACOPY RETURNDATASIZE PUSH0 REVERT JUMPDEST POP POP POP POP PUSH1 0x40 MLOAD RETURNDATASIZE PUSH0 DUP3 RETURNDATACOPY RETURNDATASIZE PUSH1 0x1F NOT PUSH1 0x1F DUP3 ADD AND DUP3 ADD DUP1 PUSH1 0x40 MSTORE POP DUP2 ADD SWAP1 PUSH2 0x117D SWAP2 SWAP1 PUSH2 0x2348 JUMP JUMPDEST PUSH1 0x5 PUSH0 DUP3 ADD MLOAD DUP2 PUSH0 ADD PUSH0 PUSH2 0x100 EXP DUP2 SLOAD DUP2 PUSH20 0xFFFFFFFFFFFFFFFFFFFFFFFFFFFFFFFFFFFFFFFF MUL NOT AND SWAP1 DUP4 PUSH20 0xFFFFFFFFFFFFFFFFFFFFFFFFFFFFFFFFFFFFFFFF AND MUL OR SWAP1 SSTORE POP PUSH1 0x20 DUP3 ADD MLOAD DUP2 PUSH1 0x1 ADD SWAP1 DUP2 PUSH2 0x11D8 SWAP2 SWAP1 PUSH2 0x2C1A JUMP JUMPDEST POP PUSH1 0x40 DUP3 ADD MLOAD DUP2 PUSH1 0x2 ADD SWAP1 DUP2 PUSH2 0x11EE SWAP2 SWAP1 PUSH2 0x2C1A JUMP JUMPDEST POP PUSH1 0x60 DUP3 ADD MLOAD DUP2 PUSH1 0x3 ADD SSTORE PUSH1 0x80 DUP3 ADD MLOAD DUP2 PUSH1 0x4 ADD SSTORE PUSH1 0xA0 DUP3 ADD MLOAD DUP2 PUSH1 0x5 ADD SSTORE PUSH1 0xC0 DUP3 ADD MLOAD DUP2 PUSH1 0x6 ADD SSTORE SWAP1 POP POP PUSH1 0xC PUSH0 SWAP1 SLOAD SWAP1 PUSH2 0x100 EXP SWAP1 DIV PUSH20 0xFFFFFFFFFFFFFFFFFFFFFFFFFFFFFFFFFFFFFFFF AND PUSH20 0xFFFFFFFFFFFFFFFFFFFFFFFFFFFFFFFFFFFFFFFF AND PUSH4 0x7CDBF25C PUSH1 0x40 MLOAD DUP2 PUSH4 0xFFFFFFFF AND PUSH1 0xE0 SHL DUP2 MSTORE PUSH1 0x4 ADD PUSH0 PUSH1 0x40 MLOAD DUP1 DUP4 SUB DUP2 PUSH0 DUP8 GAS CALL ISZERO DUP1 ISZERO PUSH2 0x1284 JUMPI RETURNDATASIZE PUSH0 DUP1 RETURNDATACOPY RETURNDATASIZE PUSH0 REVERT JUMPDEST POP POP POP POP PUSH1 0x40 MLOAD RETURNDATASIZE PUSH0 DUP3 RETURNDATACOPY RETURNDATASIZE PUSH1 0x1F NOT PUSH1 0x1F DUP3 ADD AND DUP3 ADD DUP1 PUSH1 0x40 MSTORE POP DUP2 ADD SWAP1 PUSH2 0x12AC SWAP2 SWAP1 PUSH2 0x2348 JUMP JUMPDEST POP JUMPDEST PUSH32 0xEB6C47CD02F1E621F31FB6401E4D5B6D34724FE0DDDFC7B4871B7CD1AA424FED PUSH1 0x5 PUSH1 0x2 ADD PUSH1 0x40 MLOAD PUSH2 0x12E1 SWAP2 SWAP1 PUSH2 0x2D6A JUMP JUMPDEST PUSH1 0x40 MLOAD DUP1 SWAP2 SUB SWAP1 LOG1 JUMP JUMPDEST PUSH1 0x60 PUSH1 0xC PUSH0 SWAP1 SLOAD SWAP1 PUSH2 0x100 EXP SWAP1 DIV PUSH20 0xFFFFFFFFFFFFFFFFFFFFFFFFFFFFFFFFFFFFFFFF AND PUSH20 0xFFFFFFFFFFFFFFFFFFFFFFFFFFFFFFFFFFFFFFFF AND PUSH4 0x94964EDF PUSH1 0x40 MLOAD DUP2 PUSH4 0xFFFFFFFF AND PUSH1 0xE0 SHL DUP2 MSTORE PUSH1 0x4 ADD PUSH0 PUSH1 0x40 MLOAD DUP1 DUP4 SUB DUP2 DUP7 GAS STATICCALL ISZERO DUP1 ISZERO PUSH2 0x1356 JUMPI RETURNDATASIZE PUSH0 DUP1 RETURNDATACOPY RETURNDATASIZE PUSH0 REVERT JUMPDEST POP POP POP POP PUSH1 0x40 MLOAD RETURNDATASIZE PUSH0 DUP3 RETURNDATACOPY RETURNDATASIZE PUSH1 0x1F NOT PUSH1 0x1F DUP3 ADD AND DUP3 ADD DUP1 PUSH1 0x40 MSTORE POP DUP2 ADD SWAP1 PUSH2 0x137E SWAP2 SWAP1 PUSH2 0x2A3F JUMP JUMPDEST SWAP1 POP SWAP1 JUMP JUMPDEST PUSH0 PUSH1 0xF SLOAD SWAP1 POP SWAP1 JUMP JUMPDEST PUSH2 0x1394 PUSH2 0x14AE JUMP JUMPDEST PUSH0 PUSH20 0xFFFFFFFFFFFFFFFFFFFFFFFFFFFFFFFFFFFFFFFF AND DUP2 PUSH20 0xFFFFFFFFFFFFFFFFFFFFFFFFFFFFFFFFFFFFFFFF AND SUB PUSH2 0x1404 JUMPI PUSH0 PUSH1 0x40 MLOAD PUSH32 0x1E4FBDF700000000000000000000000000000000000000000000000000000000 DUP2 MSTORE PUSH1 0x4 ADD PUSH2 0x13FB SWAP2 SWAP1 PUSH2 0x1C23 JUMP JUMPDEST PUSH1 0x40 MLOAD DUP1 SWAP2 SUB SWAP1 REVERT JUMPDEST PUSH2 0x140D DUP2 PUSH2 0x1535 JUMP JUMPDEST POP JUMP JUMPDEST PUSH2 0x1418 PUSH2 0x1743 JUMP JUMPDEST PUSH1 0xC PUSH0 SWAP1 SLOAD SWAP1 PUSH2 0x100 EXP SWAP1 DIV PUSH20 0xFFFFFFFFFFFFFFFFFFFFFFFFFFFFFFFFFFFFFFFF AND PUSH20 0xFFFFFFFFFFFFFFFFFFFFFFFFFFFFFFFFFFFFFFFF AND PUSH4 0x6C9A5FA4 PUSH1 0x40 MLOAD DUP2 PUSH4 0xFFFFFFFF AND PUSH1 0xE0 SHL DUP2 MSTORE PUSH1 0x4 ADD PUSH0 PUSH1 0x40 MLOAD DUP1 DUP4 SUB DUP2 DUP7 GAS STATICCALL ISZERO DUP1 ISZERO PUSH2 0x1481 JUMPI RETURNDATASIZE PUSH0 DUP1 RETURNDATACOPY RETURNDATASIZE PUSH0 REVERT JUMPDEST POP POP POP POP PUSH1 0x40 MLOAD RETURNDATASIZE PUSH0 DUP3 RETURNDATACOPY RETURNDATASIZE PUSH1 0x1F NOT PUSH1 0x1F DUP3 ADD AND DUP3 ADD DUP1 PUSH1 0x40 MSTORE POP DUP2 ADD SWAP1 PUSH2 0x14A9 SWAP2 SWAP1 PUSH2 0x2348 JUMP JUMPDEST SWAP1 POP SWAP1 JUMP JUMPDEST PUSH2 0x14B6 PUSH2 0x169D JUMP JUMPDEST PUSH20 0xFFFFFFFFFFFFFFFFFFFFFFFFFFFFFFFFFFFFFFFF AND PUSH2 0x14D4 PUSH2 0xDF9 JUMP JUMPDEST PUSH20 0xFFFFFFFFFFFFFFFFFFFFFFFFFFFFFFFFFFFFFFFF AND EQ PUSH2 0x1533 JUMPI PUSH2 0x14F7 PUSH2 0x169D JUMP JUMPDEST PUSH1 0x40 MLOAD PUSH32 0x118CDAA700000000000000000000000000000000000000000000000000000000 DUP2 MSTORE PUSH1 0x4 ADD PUSH2 0x152A SWAP2 SWAP1 PUSH2 0x1C23 JUMP JUMPDEST PUSH1 0x40 MLOAD DUP1 SWAP2 SUB SWAP1 REVERT JUMPDEST JUMP JUMPDEST PUSH0 DUP1 PUSH0 SWAP1 SLOAD SWAP1 PUSH2 0x100 EXP SWAP1 DIV PUSH20 0xFFFFFFFFFFFFFFFFFFFFFFFFFFFFFFFFFFFFFFFF AND SWAP1 POP DUP2 PUSH0 DUP1 PUSH2 0x100 EXP DUP2 SLOAD DUP2 PUSH20 0xFFFFFFFFFFFFFFFFFFFFFFFFFFFFFFFFFFFFFFFF MUL NOT AND SWAP1 DUP4 PUSH20 0xFFFFFFFFFFFFFFFFFFFFFFFFFFFFFFFFFFFFFFFF AND MUL OR SWAP1 SSTORE POP DUP2 PUSH20 0xFFFFFFFFFFFFFFFFFFFFFFFFFFFFFFFFFFFFFFFF AND DUP2 PUSH20 0xFFFFFFFFFFFFFFFFFFFFFFFFFFFFFFFFFFFFFFFF AND PUSH32 0x8BE0079C531659141344CD1FD0A4F28419497F9722A3DAAFE3B4186F6B6457E0 PUSH1 0x40 MLOAD PUSH1 0x40 MLOAD DUP1 SWAP2 SUB SWAP1 LOG3 POP POP JUMP JUMPDEST PUSH0 JUMPDEST PUSH1 0x2 DUP1 SLOAD SWAP1 POP DUP2 LT ISZERO PUSH2 0x168D JUMPI PUSH1 0x1 PUSH0 PUSH1 0x2 DUP4 DUP2 SLOAD DUP2 LT PUSH2 0x161C JUMPI PUSH2 0x161B PUSH2 0x2D8A JUMP JUMPDEST JUMPDEST SWAP1 PUSH0 MSTORE PUSH1 0x20 PUSH0 KECCAK256 ADD PUSH0 SWAP1 SLOAD SWAP1 PUSH2 0x100 EXP SWAP1 DIV PUSH20 0xFFFFFFFFFFFFFFFFFFFFFFFFFFFFFFFFFFFFFFFF AND PUSH20 0xFFFFFFFFFFFFFFFFFFFFFFFFFFFFFFFFFFFFFFFF AND PUSH20 0xFFFFFFFFFFFFFFFFFFFFFFFFFFFFFFFFFFFFFFFF AND DUP2 MSTORE PUSH1 0x20 ADD SWAP1 DUP2 MSTORE PUSH1 0x20 ADD PUSH0 KECCAK256 PUSH0 SWAP1 SSTORE DUP1 DUP1 PUSH1 0x1 ADD SWAP2 POP POP PUSH2 0x15F8 JUMP JUMPDEST POP PUSH1 0x2 PUSH0 PUSH2 0x169B SWAP2 SWAP1 PUSH2 0x1794 JUMP JUMPDEST JUMP JUMPDEST PUSH0 CALLER SWAP1 POP SWAP1 JUMP JUMPDEST DUP3 DUP1 SLOAD DUP3 DUP3 SSTORE SWAP1 PUSH0 MSTORE PUSH1 0x20 PUSH0 KECCAK256 SWAP1 DUP2 ADD SWAP3 DUP3 ISZERO PUSH2 0x171A JUMPI SWAP2 PUSH1 0x20 MUL DUP3 ADD JUMPDEST DUP3 DUP2 GT ISZERO PUSH2 0x1719 JUMPI DUP3 MLOAD DUP3 PUSH0 PUSH2 0x100 EXP DUP2 SLOAD DUP2 PUSH20 0xFFFFFFFFFFFFFFFFFFFFFFFFFFFFFFFFFFFFFFFF MUL NOT AND SWAP1 DUP4 PUSH20 0xFFFFFFFFFFFFFFFFFFFFFFFFFFFFFFFFFFFFFFFF AND MUL OR SWAP1 SSTORE POP SWAP2 PUSH1 0x20 ADD SWAP2 SWAP1 PUSH1 0x1 ADD SWAP1 PUSH2 0x16C2 JUMP JUMPDEST JUMPDEST POP SWAP1 POP PUSH2 0x1727 SWAP2 SWAP1 PUSH2 0x17B2 JUMP JUMPDEST POP SWAP1 JUMP JUMPDEST PUSH1 0x40 MLOAD DUP1 PUSH1 0x40 ADD PUSH1 0x40 MSTORE DUP1 PUSH0 DUP2 MSTORE PUSH1 0x20 ADD PUSH0 DUP2 MSTORE POP SWAP1 JUMP JUMPDEST PUSH1 0x40 MLOAD DUP1 PUSH1 0xE0 ADD PUSH1 0x40 MSTORE DUP1 PUSH0 PUSH20 0xFFFFFFFFFFFFFFFFFFFFFFFFFFFFFFFFFFFFFFFF AND DUP2 MSTORE PUSH1 0x20 ADD PUSH1 0x60 DUP2 MSTORE PUSH1 0x20 ADD PUSH1 0x60 DUP2 MSTORE PUSH1 0x20 ADD PUSH0 DUP2 MSTORE PUSH1 0x20 ADD PUSH0 DUP2 MSTORE PUSH1 0x20 ADD PUSH0 DUP2 MSTORE PUSH1 0x20 ADD PUSH0 DUP1 NOT AND DUP2 MSTORE POP SWAP1 JUMP JUMPDEST POP DUP1 SLOAD PUSH0 DUP3 SSTORE SWAP1 PUSH0 MSTORE PUSH1 0x20 PUSH0 KECCAK256 SWAP1 DUP2 ADD SWAP1 PUSH2 0x17AF SWAP2 SWAP1 PUSH2 0x17B2 JUMP JUMPDEST POP JUMP JUMPDEST JUMPDEST DUP1 DUP3 GT ISZERO PUSH2 0x17C9 JUMPI PUSH0 DUP2 PUSH0 SWAP1 SSTORE POP PUSH1 0x1 ADD PUSH2 0x17B3 JUMP JUMPDEST POP SWAP1 JUMP JUMPDEST PUSH0 PUSH1 0x40 MLOAD SWAP1 POP SWAP1 JUMP JUMPDEST PUSH0 DUP1 REVERT JUMPDEST PUSH0 DUP1 REVERT JUMPDEST PUSH0 DUP2 SWAP1 POP SWAP2 SWAP1 POP JUMP JUMPDEST PUSH2 0x17F0 DUP2 PUSH2 0x17DE JUMP JUMPDEST DUP2 EQ PUSH2 0x17FA JUMPI PUSH0 DUP1 REVERT JUMPDEST POP JUMP JUMPDEST PUSH0 DUP2 CALLDATALOAD SWAP1 POP PUSH2 0x180B DUP2 PUSH2 0x17E7 JUMP JUMPDEST SWAP3 SWAP2 POP POP JUMP JUMPDEST PUSH0 PUSH1 0x20 DUP3 DUP5 SUB SLT ISZERO PUSH2 0x1826 JUMPI PUSH2 0x1825 PUSH2 0x17D6 JUMP JUMPDEST JUMPDEST PUSH0 PUSH2 0x1833 DUP5 DUP3 DUP6 ADD PUSH2 0x17FD JUMP JUMPDEST SWAP2 POP POP SWAP3 SWAP2 POP POP JUMP JUMPDEST PUSH0 DUP1 REVERT JUMPDEST PUSH0 DUP1 REVERT JUMPDEST PUSH0 DUP1 REVERT JUMPDEST PUSH0 DUP1 DUP4 PUSH1 0x1F DUP5 ADD SLT PUSH2 0x185D JUMPI PUSH2 0x185C PUSH2 0x183C JUMP JUMPDEST JUMPDEST DUP3 CALLDATALOAD SWAP1 POP PUSH8 0xFFFFFFFFFFFFFFFF DUP2 GT ISZERO PUSH2 0x187A JUMPI PUSH2 0x1879 PUSH2 0x1840 JUMP JUMPDEST JUMPDEST PUSH1 0x20 DUP4 ADD SWAP2 POP DUP4 PUSH1 0x1 DUP3 MUL DUP4 ADD GT ISZERO PUSH2 0x1896 JUMPI PUSH2 0x1895 PUSH2 0x1844 JUMP JUMPDEST JUMPDEST SWAP3 POP SWAP3 SWAP1 POP JUMP JUMPDEST PUSH0 DUP1 PUSH0 DUP1 PUSH1 0x40 DUP6 DUP8 SUB SLT ISZERO PUSH2 0x18B5 JUMPI PUSH2 0x18B4 PUSH2 0x17D6 JUMP JUMPDEST JUMPDEST PUSH0 DUP6 ADD CALLDATALOAD PUSH8 0xFFFFFFFFFFFFFFFF DUP2 GT ISZERO PUSH2 0x18D2 JUMPI PUSH2 0x18D1 PUSH2 0x17DA JUMP JUMPDEST JUMPDEST PUSH2 0x18DE DUP8 DUP3 DUP9 ADD PUSH2 0x1848 JUMP JUMPDEST SWAP5 POP SWAP5 POP POP PUSH1 0x20 DUP6 ADD CALLDATALOAD PUSH8 0xFFFFFFFFFFFFFFFF DUP2 GT ISZERO PUSH2 0x1901 JUMPI PUSH2 0x1900 PUSH2 0x17DA JUMP JUMPDEST JUMPDEST PUSH2 0x190D DUP8 DUP3 DUP9 ADD PUSH2 0x1848 JUMP JUMPDEST SWAP3 POP SWAP3 POP POP SWAP3 SWAP6 SWAP2 SWAP5 POP SWAP3 POP JUMP JUMPDEST PUSH0 DUP2 MLOAD SWAP1 POP SWAP2 SWAP1 POP JUMP JUMPDEST PUSH0 DUP3 DUP3 MSTORE PUSH1 0x20 DUP3 ADD SWAP1 POP SWAP3 SWAP2 POP POP JUMP JUMPDEST PUSH0 DUP2 SWAP1 POP PUSH1 0x20 DUP3 ADD SWAP1 POP SWAP2 SWAP1 POP JUMP JUMPDEST PUSH0 PUSH20 0xFFFFFFFFFFFFFFFFFFFFFFFFFFFFFFFFFFFFFFFF DUP3 AND SWAP1 POP SWAP2 SWAP1 POP JUMP JUMPDEST PUSH0 PUSH2 0x196D DUP3 PUSH2 0x1944 JUMP JUMPDEST SWAP1 POP SWAP2 SWAP1 POP JUMP JUMPDEST PUSH2 0x197D DUP2 PUSH2 0x1963 JUMP JUMPDEST DUP3 MSTORE POP POP JUMP JUMPDEST PUSH0 PUSH2 0x198E DUP4 DUP4 PUSH2 0x1974 JUMP JUMPDEST PUSH1 0x20 DUP4 ADD SWAP1 POP SWAP3 SWAP2 POP POP JUMP JUMPDEST PUSH0 PUSH1 0x20 DUP3 ADD SWAP1 POP SWAP2 SWAP1 POP JUMP JUMPDEST PUSH0 PUSH2 0x19B0 DUP3 PUSH2 0x191B JUMP JUMPDEST PUSH2 0x19BA DUP2 DUP6 PUSH2 0x1925 JUMP JUMPDEST SWAP4 POP PUSH2 0x19C5 DUP4 PUSH2 0x1935 JUMP JUMPDEST DUP1 PUSH0 JUMPDEST DUP4 DUP2 LT ISZERO PUSH2 0x19F5 JUMPI DUP2 MLOAD PUSH2 0x19DC DUP9 DUP3 PUSH2 0x1983 JUMP JUMPDEST SWAP8 POP PUSH2 0x19E7 DUP4 PUSH2 0x199A JUMP JUMPDEST SWAP3 POP POP PUSH1 0x1 DUP2 ADD SWAP1 POP PUSH2 0x19C8 JUMP JUMPDEST POP DUP6 SWAP4 POP POP POP POP SWAP3 SWAP2 POP POP JUMP JUMPDEST PUSH0 PUSH1 0x20 DUP3 ADD SWAP1 POP DUP2 DUP2 SUB PUSH0 DUP4 ADD MSTORE PUSH2 0x1A1A DUP2 DUP5 PUSH2 0x19A6 JUMP JUMPDEST SWAP1 POP SWAP3 SWAP2 POP POP JUMP JUMPDEST PUSH2 0x1A2B DUP2 PUSH2 0x1963 JUMP JUMPDEST DUP2 EQ PUSH2 0x1A35 JUMPI PUSH0 DUP1 REVERT JUMPDEST POP JUMP JUMPDEST PUSH0 DUP2 CALLDATALOAD SWAP1 POP PUSH2 0x1A46 DUP2 PUSH2 0x1A22 JUMP JUMPDEST SWAP3 SWAP2 POP POP JUMP JUMPDEST PUSH0 PUSH1 0x20 DUP3 DUP5 SUB SLT ISZERO PUSH2 0x1A61 JUMPI PUSH2 0x1A60 PUSH2 0x17D6 JUMP JUMPDEST JUMPDEST PUSH0 PUSH2 0x1A6E DUP5 DUP3 DUP6 ADD PUSH2 0x1A38 JUMP JUMPDEST SWAP2 POP POP SWAP3 SWAP2 POP POP JUMP JUMPDEST PUSH2 0x1A80 DUP2 PUSH2 0x17DE JUMP JUMPDEST DUP3 MSTORE POP POP JUMP JUMPDEST PUSH1 0x40 DUP3 ADD PUSH0 DUP3 ADD MLOAD PUSH2 0x1A9A PUSH0 DUP6 ADD DUP3 PUSH2 0x1A77 JUMP JUMPDEST POP PUSH1 0x20 DUP3 ADD MLOAD PUSH2 0x1AAD PUSH1 0x20 DUP6 ADD DUP3 PUSH2 0x1A77 JUMP JUMPDEST POP POP POP POP JUMP JUMPDEST PUSH0 PUSH1 0x40 DUP3 ADD SWAP1 POP PUSH2 0x1AC6 PUSH0 DUP4 ADD DUP5 PUSH2 0x1A86 JUMP JUMPDEST SWAP3 SWAP2 POP POP JUMP JUMPDEST PUSH0 DUP2 MLOAD SWAP1 POP SWAP2 SWAP1 POP JUMP JUMPDEST PUSH0 DUP3 DUP3 MSTORE PUSH1 0x20 DUP3 ADD SWAP1 POP SWAP3 SWAP2 POP POP JUMP JUMPDEST DUP3 DUP2 DUP4 MCOPY PUSH0 DUP4 DUP4 ADD MSTORE POP POP POP JUMP JUMPDEST PUSH0 PUSH1 0x1F NOT PUSH1 0x1F DUP4 ADD AND SWAP1 POP SWAP2 SWAP1 POP JUMP JUMPDEST PUSH0 PUSH2 0x1B0E DUP3 PUSH2 0x1ACC JUMP JUMPDEST PUSH2 0x1B18 DUP2 DUP6 PUSH2 0x1AD6 JUMP JUMPDEST SWAP4 POP PUSH2 0x1B28 DUP2 DUP6 PUSH1 0x20 DUP7 ADD PUSH2 0x1AE6 JUMP JUMPDEST PUSH2 0x1B31 DUP2 PUSH2 0x1AF4 JUMP JUMPDEST DUP5 ADD SWAP2 POP POP SWAP3 SWAP2 POP POP JUMP JUMPDEST PUSH0 DUP2 SWAP1 POP SWAP2 SWAP1 POP JUMP JUMPDEST PUSH2 0x1B4E DUP2 PUSH2 0x1B3C JUMP JUMPDEST DUP3 MSTORE POP POP JUMP JUMPDEST PUSH0 PUSH1 0xE0 DUP4 ADD PUSH0 DUP4 ADD MLOAD PUSH2 0x1B69 PUSH0 DUP7 ADD DUP3 PUSH2 0x1974 JUMP JUMPDEST POP PUSH1 0x20 DUP4 ADD MLOAD DUP5 DUP3 SUB PUSH1 0x20 DUP7 ADD MSTORE PUSH2 0x1B81 DUP3 DUP3 PUSH2 0x1B04 JUMP JUMPDEST SWAP2 POP POP PUSH1 0x40 DUP4 ADD MLOAD DUP5 DUP3 SUB PUSH1 0x40 DUP7 ADD MSTORE PUSH2 0x1B9B DUP3 DUP3 PUSH2 0x1B04 JUMP JUMPDEST SWAP2 POP POP PUSH1 0x60 DUP4 ADD MLOAD PUSH2 0x1BB0 PUSH1 0x60 DUP7 ADD DUP3 PUSH2 0x1A77 JUMP JUMPDEST POP PUSH1 0x80 DUP4 ADD MLOAD PUSH2 0x1BC3 PUSH1 0x80 DUP7 ADD DUP3 PUSH2 0x1A77 JUMP JUMPDEST POP PUSH1 0xA0 DUP4 ADD MLOAD PUSH2 0x1BD6 PUSH1 0xA0 DUP7 ADD DUP3 PUSH2 0x1A77 JUMP JUMPDEST POP PUSH1 0xC0 DUP4 ADD MLOAD PUSH2 0x1BE9 PUSH1 0xC0 DUP7 ADD DUP3 PUSH2 0x1B45 JUMP JUMPDEST POP DUP1 SWAP2 POP POP SWAP3 SWAP2 POP POP JUMP JUMPDEST PUSH0 PUSH1 0x20 DUP3 ADD SWAP1 POP DUP2 DUP2 SUB PUSH0 DUP4 ADD MSTORE PUSH2 0x1C0C DUP2 DUP5 PUSH2 0x1B54 JUMP JUMPDEST SWAP1 POP SWAP3 SWAP2 POP POP JUMP JUMPDEST PUSH2 0x1C1D DUP2 PUSH2 0x1963 JUMP JUMPDEST DUP3 MSTORE POP POP JUMP JUMPDEST PUSH0 PUSH1 0x20 DUP3 ADD SWAP1 POP PUSH2 0x1C36 PUSH0 DUP4 ADD DUP5 PUSH2 0x1C14 JUMP JUMPDEST SWAP3 SWAP2 POP POP JUMP JUMPDEST PUSH2 0x1C45 DUP2 PUSH2 0x17DE JUMP JUMPDEST DUP3 MSTORE POP POP JUMP JUMPDEST PUSH0 PUSH1 0x20 DUP3 ADD SWAP1 POP PUSH2 0x1C5E PUSH0 DUP4 ADD DUP5 PUSH2 0x1C3C JUMP JUMPDEST SWAP3 SWAP2 POP POP JUMP JUMPDEST PUSH0 DUP3 DUP3 MSTORE PUSH1 0x20 DUP3 ADD SWAP1 POP SWAP3 SWAP2 POP POP JUMP JUMPDEST PUSH0 PUSH2 0x1C7E DUP3 PUSH2 0x1ACC JUMP JUMPDEST PUSH2 0x1C88 DUP2 DUP6 PUSH2 0x1C64 JUMP JUMPDEST SWAP4 POP PUSH2 0x1C98 DUP2 DUP6 PUSH1 0x20 DUP7 ADD PUSH2 0x1AE6 JUMP JUMPDEST PUSH2 0x1CA1 DUP2 PUSH2 0x1AF4 JUMP JUMPDEST DUP5 ADD SWAP2 POP POP SWAP3 SWAP2 POP POP JUMP JUMPDEST PUSH2 0x1CB5 DUP2 PUSH2 0x1B3C JUMP JUMPDEST DUP3 MSTORE POP POP JUMP JUMPDEST PUSH0 PUSH1 0xE0 DUP3 ADD SWAP1 POP PUSH2 0x1CCE PUSH0 DUP4 ADD DUP11 PUSH2 0x1C14 JUMP JUMPDEST DUP2 DUP2 SUB PUSH1 0x20 DUP4 ADD MSTORE PUSH2 0x1CE0 DUP2 DUP10 PUSH2 0x1C74 JUMP JUMPDEST SWAP1 POP DUP2 DUP2 SUB PUSH1 0x40 DUP4 ADD MSTORE PUSH2 0x1CF4 DUP2 DUP9 PUSH2 0x1C74 JUMP JUMPDEST SWAP1 POP PUSH2 0x1D03 PUSH1 0x60 DUP4 ADD DUP8 PUSH2 0x1C3C JUMP JUMPDEST PUSH2 0x1D10 PUSH1 0x80 DUP4 ADD DUP7 PUSH2 0x1C3C JUMP JUMPDEST PUSH2 0x1D1D PUSH1 0xA0 DUP4 ADD DUP6 PUSH2 0x1C3C JUMP JUMPDEST PUSH2 0x1D2A PUSH1 0xC0 DUP4 ADD DUP5 PUSH2 0x1CAC JUMP JUMPDEST SWAP9 SWAP8 POP POP POP POP POP POP POP POP JUMP JUMPDEST PUSH0 DUP2 MLOAD SWAP1 POP SWAP2 SWAP1 POP JUMP JUMPDEST PUSH0 DUP3 DUP3 MSTORE PUSH1 0x20 DUP3 ADD SWAP1 POP SWAP3 SWAP2 POP POP JUMP JUMPDEST PUSH0 DUP2 SWAP1 POP PUSH1 0x20 DUP3 ADD SWAP1 POP SWAP2 SWAP1 POP JUMP JUMPDEST PUSH0 PUSH1 0xE0 DUP4 ADD PUSH0 DUP4 ADD MLOAD PUSH2 0x1D74 PUSH0 DUP7 ADD DUP3 PUSH2 0x1974 JUMP JUMPDEST POP PUSH1 0x20 DUP4 ADD MLOAD DUP5 DUP3 SUB PUSH1 0x20 DUP7 ADD MSTORE PUSH2 0x1D8C DUP3 DUP3 PUSH2 0x1B04 JUMP JUMPDEST SWAP2 POP POP PUSH1 0x40 DUP4 ADD MLOAD DUP5 DUP3 SUB PUSH1 0x40 DUP7 ADD MSTORE PUSH2 0x1DA6 DUP3 DUP3 PUSH2 0x1B04 JUMP JUMPDEST SWAP2 POP POP PUSH1 0x60 DUP4 ADD MLOAD PUSH2 0x1DBB PUSH1 0x60 DUP7 ADD DUP3 PUSH2 0x1A77 JUMP JUMPDEST POP PUSH1 0x80 DUP4 ADD MLOAD PUSH2 0x1DCE PUSH1 0x80 DUP7 ADD DUP3 PUSH2 0x1A77 JUMP JUMPDEST POP PUSH1 0xA0 DUP4 ADD MLOAD PUSH2 0x1DE1 PUSH1 0xA0 DUP7 ADD DUP3 PUSH2 0x1A77 JUMP JUMPDEST POP PUSH1 0xC0 DUP4 ADD MLOAD PUSH2 0x1DF4 PUSH1 0xC0 DUP7 ADD DUP3 PUSH2 0x1B45 JUMP JUMPDEST POP DUP1 SWAP2 POP POP SWAP3 SWAP2 POP POP JUMP JUMPDEST PUSH0 PUSH2 0x1E0A DUP4 DUP4 PUSH2 0x1D5F JUMP JUMPDEST SWAP1 POP SWAP3 SWAP2 POP POP JUMP JUMPDEST PUSH0 PUSH1 0x20 DUP3 ADD SWAP1 POP SWAP2 SWAP1 POP JUMP JUMPDEST PUSH0 PUSH2 0x1E28 DUP3 PUSH2 0x1D36 JUMP JUMPDEST PUSH2 0x1E32 DUP2 DUP6 PUSH2 0x1D40 JUMP JUMPDEST SWAP4 POP DUP4 PUSH1 0x20 DUP3 MUL DUP6 ADD PUSH2 0x1E44 DUP6 PUSH2 0x1D50 JUMP JUMPDEST DUP1 PUSH0 JUMPDEST DUP6 DUP2 LT ISZERO PUSH2 0x1E7F JUMPI DUP5 DUP5 SUB DUP10 MSTORE DUP2 MLOAD PUSH2 0x1E60 DUP6 DUP3 PUSH2 0x1DFF JUMP JUMPDEST SWAP5 POP PUSH2 0x1E6B DUP4 PUSH2 0x1E12 JUMP JUMPDEST SWAP3 POP PUSH1 0x20 DUP11 ADD SWAP10 POP POP PUSH1 0x1 DUP2 ADD SWAP1 POP PUSH2 0x1E47 JUMP JUMPDEST POP DUP3 SWAP8 POP DUP8 SWAP6 POP POP POP POP POP POP SWAP3 SWAP2 POP POP JUMP JUMPDEST PUSH0 PUSH1 0x20 DUP3 ADD SWAP1 POP DUP2 DUP2 SUB PUSH0 DUP4 ADD MSTORE PUSH2 0x1EA9 DUP2 DUP5 PUSH2 0x1E1E JUMP JUMPDEST SWAP1 POP SWAP3 SWAP2 POP POP JUMP JUMPDEST PUSH32 0x566F74696E6720706572696F642068617320656E646564000000000000000000 PUSH0 DUP3 ADD MSTORE POP JUMP JUMPDEST PUSH0 PUSH2 0x1EE5 PUSH1 0x17 DUP4 PUSH2 0x1C64 JUMP JUMPDEST SWAP2 POP PUSH2 0x1EF0 DUP3 PUSH2 0x1EB1 JUMP JUMPDEST PUSH1 0x20 DUP3 ADD SWAP1 POP SWAP2 SWAP1 POP JUMP JUMPDEST PUSH0 PUSH1 0x20 DUP3 ADD SWAP1 POP DUP2 DUP2 SUB PUSH0 DUP4 ADD MSTORE PUSH2 0x1F12 DUP2 PUSH2 0x1ED9 JUMP JUMPDEST SWAP1 POP SWAP2 SWAP1 POP JUMP JUMPDEST PUSH32 0x596F7520616C726561647920766F746564000000000000000000000000000000 PUSH0 DUP3 ADD MSTORE POP JUMP JUMPDEST PUSH0 PUSH2 0x1F4D PUSH1 0x11 DUP4 PUSH2 0x1C64 JUMP JUMPDEST SWAP2 POP PUSH2 0x1F58 DUP3 PUSH2 0x1F19 JUMP JUMPDEST PUSH1 0x20 DUP3 ADD SWAP1 POP SWAP2 SWAP1 POP JUMP JUMPDEST PUSH0 PUSH1 0x20 DUP3 ADD SWAP1 POP DUP2 DUP2 SUB PUSH0 DUP4 ADD MSTORE PUSH2 0x1F7A DUP2 PUSH2 0x1F41 JUMP JUMPDEST SWAP1 POP SWAP2 SWAP1 POP JUMP JUMPDEST PUSH0 PUSH1 0x40 DUP3 ADD SWAP1 POP PUSH2 0x1F94 PUSH0 DUP4 ADD DUP6 PUSH2 0x1C14 JUMP JUMPDEST PUSH2 0x1FA1 PUSH1 0x20 DUP4 ADD DUP5 PUSH2 0x1C3C JUMP JUMPDEST SWAP4 SWAP3 POP POP POP JUMP JUMPDEST PUSH32 0x496E737566696369656E7420666F756E64732100000000000000000000000000 PUSH0 DUP3 ADD MSTORE POP JUMP JUMPDEST PUSH0 PUSH2 0x1FDC PUSH1 0x13 DUP4 PUSH2 0x1C64 JUMP JUMPDEST SWAP2 POP PUSH2 0x1FE7 DUP3 PUSH2 0x1FA8 JUMP JUMPDEST PUSH1 0x20 DUP3 ADD SWAP1 POP SWAP2 SWAP1 POP JUMP JUMPDEST PUSH0 PUSH1 0x20 DUP3 ADD SWAP1 POP DUP2 DUP2 SUB PUSH0 DUP4 ADD MSTORE PUSH2 0x2009 DUP2 PUSH2 0x1FD0 JUMP JUMPDEST SWAP1 POP SWAP2 SWAP1 POP JUMP JUMPDEST PUSH32 0x496E76616C6964206665652076616C7565000000000000000000000000000000 PUSH0 DUP3 ADD MSTORE POP JUMP JUMPDEST PUSH0 PUSH2 0x2044 PUSH1 0x11 DUP4 PUSH2 0x1C64 JUMP JUMPDEST SWAP2 POP PUSH2 0x204F DUP3 PUSH2 0x2010 JUMP JUMPDEST PUSH1 0x20 DUP3 ADD SWAP1 POP SWAP2 SWAP1 POP JUMP JUMPDEST PUSH0 PUSH1 0x20 DUP3 ADD SWAP1 POP DUP2 DUP2 SUB PUSH0 DUP4 ADD MSTORE PUSH2 0x2071 DUP2 PUSH2 0x2038 JUMP JUMPDEST SWAP1 POP SWAP2 SWAP1 POP JUMP JUMPDEST DUP3 DUP2 DUP4 CALLDATACOPY PUSH0 DUP4 DUP4 ADD MSTORE POP POP POP JUMP JUMPDEST PUSH0 PUSH2 0x2091 DUP4 DUP6 PUSH2 0x1C64 JUMP JUMPDEST SWAP4 POP PUSH2 0x209E DUP4 DUP6 DUP5 PUSH2 0x2078 JUMP JUMPDEST PUSH2 0x20A7 DUP4 PUSH2 0x1AF4 JUMP JUMPDEST DUP5 ADD SWAP1 POP SWAP4 SWAP3 POP POP POP JUMP JUMPDEST PUSH0 PUSH1 0x40 DUP3 ADD SWAP1 POP DUP2 DUP2 SUB PUSH0 DUP4 ADD MSTORE PUSH2 0x20CB DUP2 DUP7 DUP9 PUSH2 0x2086 JUMP JUMPDEST SWAP1 POP DUP2 DUP2 SUB PUSH1 0x20 DUP4 ADD MSTORE PUSH2 0x20E0 DUP2 DUP5 DUP7 PUSH2 0x2086 JUMP JUMPDEST SWAP1 POP SWAP6 SWAP5 POP POP POP POP POP JUMP JUMPDEST PUSH0 DUP1 REVERT JUMPDEST PUSH32 0x4E487B7100000000000000000000000000000000000000000000000000000000 PUSH0 MSTORE PUSH1 0x41 PUSH1 0x4 MSTORE PUSH1 0x24 PUSH0 REVERT JUMPDEST PUSH2 0x2125 DUP3 PUSH2 0x1AF4 JUMP JUMPDEST DUP2 ADD DUP2 DUP2 LT PUSH8 0xFFFFFFFFFFFFFFFF DUP3 GT OR ISZERO PUSH2 0x2144 JUMPI PUSH2 0x2143 PUSH2 0x20EF JUMP JUMPDEST JUMPDEST DUP1 PUSH1 0x40 MSTORE POP POP POP JUMP JUMPDEST PUSH0 PUSH2 0x2156 PUSH2 0x17CD JUMP JUMPDEST SWAP1 POP PUSH2 0x2162 DUP3 DUP3 PUSH2 0x211C JUMP JUMPDEST SWAP2 SWAP1 POP JUMP JUMPDEST PUSH0 DUP1 REVERT JUMPDEST PUSH0 DUP2 MLOAD SWAP1 POP PUSH2 0x2179 DUP2 PUSH2 0x1A22 JUMP JUMPDEST SWAP3 SWAP2 POP POP JUMP JUMPDEST PUSH0 DUP1 REVERT JUMPDEST PUSH0 PUSH8 0xFFFFFFFFFFFFFFFF DUP3 GT ISZERO PUSH2 0x219D JUMPI PUSH2 0x219C PUSH2 0x20EF JUMP JUMPDEST JUMPDEST PUSH2 0x21A6 DUP3 PUSH2 0x1AF4 JUMP JUMPDEST SWAP1 POP PUSH1 0x20 DUP2 ADD SWAP1 POP SWAP2 SWAP1 POP JUMP JUMPDEST PUSH0 PUSH2 0x21C5 PUSH2 0x21C0 DUP5 PUSH2 0x2183 JUMP JUMPDEST PUSH2 0x214D JUMP JUMPDEST SWAP1 POP DUP3 DUP2 MSTORE PUSH1 0x20 DUP2 ADD DUP5 DUP5 DUP5 ADD GT ISZERO PUSH2 0x21E1 JUMPI PUSH2 0x21E0 PUSH2 0x217F JUMP JUMPDEST JUMPDEST PUSH2 0x21EC DUP5 DUP3 DUP6 PUSH2 0x1AE6 JUMP JUMPDEST POP SWAP4 SWAP3 POP POP POP JUMP JUMPDEST PUSH0 DUP3 PUSH1 0x1F DUP4 ADD SLT PUSH2 0x2208 JUMPI PUSH2 0x2207 PUSH2 0x183C JUMP JUMPDEST JUMPDEST DUP2 MLOAD PUSH2 0x2218 DUP5 DUP3 PUSH1 0x20 DUP7 ADD PUSH2 0x21B3 JUMP JUMPDEST SWAP2 POP POP SWAP3 SWAP2 POP POP JUMP JUMPDEST PUSH0 DUP2 MLOAD SWAP1 POP PUSH2 0x222F DUP2 PUSH2 0x17E7 JUMP JUMPDEST SWAP3 SWAP2 POP POP JUMP JUMPDEST PUSH2 0x223E DUP2 PUSH2 0x1B3C JUMP JUMPDEST DUP2 EQ PUSH2 0x2248 JUMPI PUSH0 DUP1 REVERT JUMPDEST POP JUMP JUMPDEST PUSH0 DUP2 MLOAD SWAP1 POP PUSH2 0x2259 DUP2 PUSH2 0x2235 JUMP JUMPDEST SWAP3 SWAP2 POP POP JUMP JUMPDEST PUSH0 PUSH1 0xE0 DUP3 DUP5 SUB SLT ISZERO PUSH2 0x2274 JUMPI PUSH2 0x2273 PUSH2 0x20EB JUMP JUMPDEST JUMPDEST PUSH2 0x227E PUSH1 0xE0 PUSH2 0x214D JUMP JUMPDEST SWAP1 POP PUSH0 PUSH2 0x228D DUP5 DUP3 DUP6 ADD PUSH2 0x216B JUMP JUMPDEST PUSH0 DUP4 ADD MSTORE POP PUSH1 0x20 DUP3 ADD MLOAD PUSH8 0xFFFFFFFFFFFFFFFF DUP2 GT ISZERO PUSH2 0x22B0 JUMPI PUSH2 0x22AF PUSH2 0x2167 JUMP JUMPDEST JUMPDEST PUSH2 0x22BC DUP5 DUP3 DUP6 ADD PUSH2 0x21F4 JUMP JUMPDEST PUSH1 0x20 DUP4 ADD MSTORE POP PUSH1 0x40 DUP3 ADD MLOAD PUSH8 0xFFFFFFFFFFFFFFFF DUP2 GT ISZERO PUSH2 0x22E0 JUMPI PUSH2 0x22DF PUSH2 0x2167 JUMP JUMPDEST JUMPDEST PUSH2 0x22EC DUP5 DUP3 DUP6 ADD PUSH2 0x21F4 JUMP JUMPDEST PUSH1 0x40 DUP4 ADD MSTORE POP PUSH1 0x60 PUSH2 0x2300 DUP5 DUP3 DUP6 ADD PUSH2 0x2221 JUMP JUMPDEST PUSH1 0x60 DUP4 ADD MSTORE POP PUSH1 0x80 PUSH2 0x2314 DUP5 DUP3 DUP6 ADD PUSH2 0x2221 JUMP JUMPDEST PUSH1 0x80 DUP4 ADD MSTORE POP PUSH1 0xA0 PUSH2 0x2328 DUP5 DUP3 DUP6 ADD PUSH2 0x2221 JUMP JUMPDEST PUSH1 0xA0 DUP4 ADD MSTORE POP PUSH1 0xC0 PUSH2 0x233C DUP5 DUP3 DUP6 ADD PUSH2 0x224B JUMP JUMPDEST PUSH1 0xC0 DUP4 ADD MSTORE POP SWAP3 SWAP2 POP POP JUMP JUMPDEST PUSH0 PUSH1 0x20 DUP3 DUP5 SUB SLT ISZERO PUSH2 0x235D JUMPI PUSH2 0x235C PUSH2 0x17D6 JUMP JUMPDEST JUMPDEST PUSH0 DUP3 ADD MLOAD PUSH8 0xFFFFFFFFFFFFFFFF DUP2 GT ISZERO PUSH2 0x237A JUMPI PUSH2 0x2379 PUSH2 0x17DA JUMP JUMPDEST JUMPDEST PUSH2 0x2386 DUP5 DUP3 DUP6 ADD PUSH2 0x225F JUMP JUMPDEST SWAP2 POP POP SWAP3 SWAP2 POP POP JUMP JUMPDEST PUSH0 DUP2 SWAP1 POP SWAP2 SWAP1 POP JUMP JUMPDEST PUSH0 DUP2 SWAP1 POP SWAP2 SWAP1 POP JUMP JUMPDEST PUSH0 PUSH2 0x23BB PUSH2 0x23B6 PUSH2 0x23B1 DUP5 PUSH2 0x238F JUMP JUMPDEST PUSH2 0x2398 JUMP JUMPDEST PUSH2 0x17DE JUMP JUMPDEST SWAP1 POP SWAP2 SWAP1 POP JUMP JUMPDEST PUSH2 0x23CB DUP2 PUSH2 0x23A1 JUMP JUMPDEST DUP3 MSTORE POP POP JUMP JUMPDEST PUSH0 PUSH1 0xA0 DUP3 ADD SWAP1 POP DUP2 DUP2 SUB PUSH0 DUP4 ADD MSTORE PUSH2 0x23EA DUP2 DUP10 DUP12 PUSH2 0x2086 JUMP JUMPDEST SWAP1 POP DUP2 DUP2 SUB PUSH1 0x20 DUP4 ADD MSTORE PUSH2 0x23FF DUP2 DUP8 DUP10 PUSH2 0x2086 JUMP JUMPDEST SWAP1 POP PUSH2 0x240E PUSH1 0x40 DUP4 ADD DUP7 PUSH2 0x1C3C JUMP JUMPDEST PUSH2 0x241B PUSH1 0x60 DUP4 ADD DUP6 PUSH2 0x23C2 JUMP JUMPDEST PUSH2 0x2428 PUSH1 0x80 DUP4 ADD DUP5 PUSH2 0x1C3C JUMP JUMPDEST SWAP9 SWAP8 POP POP POP POP POP POP POP POP JUMP JUMPDEST PUSH32 0x596F7520686176656E277420766F746564207965740000000000000000000000 PUSH0 DUP3 ADD MSTORE POP JUMP JUMPDEST PUSH0 PUSH2 0x2468 PUSH1 0x15 DUP4 PUSH2 0x1C64 JUMP JUMPDEST SWAP2 POP PUSH2 0x2473 DUP3 PUSH2 0x2434 JUMP JUMPDEST PUSH1 0x20 DUP3 ADD SWAP1 POP SWAP2 SWAP1 POP JUMP JUMPDEST PUSH0 PUSH1 0x20 DUP3 ADD SWAP1 POP DUP2 DUP2 SUB PUSH0 DUP4 ADD MSTORE PUSH2 0x2495 DUP2 PUSH2 0x245C JUMP JUMPDEST SWAP1 POP SWAP2 SWAP1 POP JUMP JUMPDEST PUSH0 DUP2 SLOAD SWAP1 POP SWAP2 SWAP1 POP JUMP JUMPDEST PUSH0 DUP3 DUP3 MSTORE PUSH1 0x20 DUP3 ADD SWAP1 POP SWAP3 SWAP2 POP POP JUMP JUMPDEST PUSH0 DUP2 SWAP1 POP DUP2 PUSH0 MSTORE PUSH1 0x20 PUSH0 KECCAK256 SWAP1 POP SWAP2 SWAP1 POP JUMP JUMPDEST PUSH2 0x24D1 DUP2 PUSH2 0x1963 JUMP JUMPDEST DUP3 MSTORE POP POP JUMP JUMPDEST PUSH0 PUSH2 0x24E2 DUP4 DUP4 PUSH2 0x24C8 JUMP JUMPDEST PUSH1 0x20 DUP4 ADD SWAP1 POP SWAP3 SWAP2 POP POP JUMP JUMPDEST PUSH0 DUP2 PUSH0 SHR SWAP1 POP SWAP2 SWAP1 POP JUMP JUMPDEST PUSH0 PUSH20 0xFFFFFFFFFFFFFFFFFFFFFFFFFFFFFFFFFFFFFFFF DUP3 AND SWAP1 POP SWAP2 SWAP1 POP JUMP JUMPDEST PUSH0 PUSH2 0x252A PUSH2 0x2525 DUP4 PUSH2 0x24EE JUMP JUMPDEST PUSH2 0x24F9 JUMP JUMPDEST SWAP1 POP SWAP2 SWAP1 POP JUMP JUMPDEST PUSH0 PUSH2 0x253C DUP3 SLOAD PUSH2 0x2518 JUMP JUMPDEST SWAP1 POP SWAP2 SWAP1 POP JUMP JUMPDEST PUSH0 PUSH1 0x1 DUP3 ADD SWAP1 POP SWAP2 SWAP1 POP JUMP JUMPDEST PUSH0 PUSH2 0x2559 DUP3 PUSH2 0x249C JUMP JUMPDEST PUSH2 0x2563 DUP2 DUP6 PUSH2 0x24A6 JUMP JUMPDEST SWAP4 POP PUSH2 0x256E DUP4 PUSH2 0x24B6 JUMP JUMPDEST DUP1 PUSH0 JUMPDEST DUP4 DUP2 LT ISZERO PUSH2 0x25A5 JUMPI PUSH2 0x2582 DUP3 PUSH2 0x2531 JUMP JUMPDEST PUSH2 0x258C DUP9 DUP3 PUSH2 0x24D7 JUMP JUMPDEST SWAP8 POP PUSH2 0x2597 DUP4 PUSH2 0x2543 JUMP JUMPDEST SWAP3 POP POP PUSH1 0x1 DUP2 ADD SWAP1 POP PUSH2 0x2571 JUMP JUMPDEST POP DUP6 SWAP4 POP POP POP POP SWAP3 SWAP2 POP POP JUMP JUMPDEST PUSH2 0x25BB DUP2 PUSH2 0x1963 JUMP JUMPDEST DUP3 MSTORE POP POP JUMP JUMPDEST PUSH0 PUSH1 0x40 DUP3 ADD SWAP1 POP DUP2 DUP2 SUB PUSH0 DUP4 ADD MSTORE PUSH2 0x25D9 DUP2 DUP6 PUSH2 0x254F JUMP JUMPDEST SWAP1 POP PUSH2 0x25E8 PUSH1 0x20 DUP4 ADD DUP5 PUSH2 0x25B2 JUMP JUMPDEST SWAP4 SWAP3 POP POP POP JUMP JUMPDEST PUSH0 PUSH1 0x20 DUP3 DUP5 SUB SLT ISZERO PUSH2 0x2604 JUMPI PUSH2 0x2603 PUSH2 0x17D6 JUMP JUMPDEST JUMPDEST PUSH0 PUSH2 0x2611 DUP5 DUP3 DUP6 ADD PUSH2 0x2221 JUMP JUMPDEST SWAP2 POP POP SWAP3 SWAP2 POP POP JUMP JUMPDEST PUSH2 0x2623 DUP2 PUSH2 0x17DE JUMP JUMPDEST DUP3 MSTORE POP POP JUMP JUMPDEST PUSH0 PUSH1 0x40 DUP3 ADD SWAP1 POP DUP2 DUP2 SUB PUSH0 DUP4 ADD MSTORE PUSH2 0x2641 DUP2 DUP6 PUSH2 0x254F JUMP JUMPDEST SWAP1 POP PUSH2 0x2650 PUSH1 0x20 DUP4 ADD DUP5 PUSH2 0x261A JUMP JUMPDEST SWAP4 SWAP3 POP POP POP JUMP JUMPDEST PUSH0 PUSH8 0xFFFFFFFFFFFFFFFF DUP3 GT ISZERO PUSH2 0x2671 JUMPI PUSH2 0x2670 PUSH2 0x20EF JUMP JUMPDEST JUMPDEST PUSH1 0x20 DUP3 MUL SWAP1 POP PUSH1 0x20 DUP2 ADD SWAP1 POP SWAP2 SWAP1 POP JUMP JUMPDEST PUSH0 PUSH2 0x2694 PUSH2 0x268F DUP5 PUSH2 0x2657 JUMP JUMPDEST PUSH2 0x214D JUMP JUMPDEST SWAP1 POP DUP1 DUP4 DUP3 MSTORE PUSH1 0x20 DUP3 ADD SWAP1 POP PUSH1 0x20 DUP5 MUL DUP4 ADD DUP6 DUP2 GT ISZERO PUSH2 0x26B7 JUMPI PUSH2 0x26B6 PUSH2 0x1844 JUMP JUMPDEST JUMPDEST DUP4 JUMPDEST DUP2 DUP2 LT ISZERO PUSH2 0x26E0 JUMPI DUP1 PUSH2 0x26CC DUP9 DUP3 PUSH2 0x216B JUMP JUMPDEST DUP5 MSTORE PUSH1 0x20 DUP5 ADD SWAP4 POP POP PUSH1 0x20 DUP2 ADD SWAP1 POP PUSH2 0x26B9 JUMP JUMPDEST POP POP POP SWAP4 SWAP3 POP POP POP JUMP JUMPDEST PUSH0 DUP3 PUSH1 0x1F DUP4 ADD SLT PUSH2 0x26FE JUMPI PUSH2 0x26FD PUSH2 0x183C JUMP JUMPDEST JUMPDEST DUP2 MLOAD PUSH2 0x270E DUP5 DUP3 PUSH1 0x20 DUP7 ADD PUSH2 0x2682 JUMP JUMPDEST SWAP2 POP POP SWAP3 SWAP2 POP POP JUMP JUMPDEST PUSH0 PUSH1 0x20 DUP3 DUP5 SUB SLT ISZERO PUSH2 0x272C JUMPI PUSH2 0x272B PUSH2 0x17D6 JUMP JUMPDEST JUMPDEST PUSH0 DUP3 ADD MLOAD PUSH8 0xFFFFFFFFFFFFFFFF DUP2 GT ISZERO PUSH2 0x2749 JUMPI PUSH2 0x2748 PUSH2 0x17DA JUMP JUMPDEST JUMPDEST PUSH2 0x2755 DUP5 DUP3 DUP6 ADD PUSH2 0x26EA JUMP JUMPDEST SWAP2 POP POP SWAP3 SWAP2 POP POP JUMP JUMPDEST PUSH32 0x4E487B7100000000000000000000000000000000000000000000000000000000 PUSH0 MSTORE PUSH1 0x22 PUSH1 0x4 MSTORE PUSH1 0x24 PUSH0 REVERT JUMPDEST PUSH0 PUSH1 0x2 DUP3 DIV SWAP1 POP PUSH1 0x1 DUP3 AND DUP1 PUSH2 0x27A2 JUMPI PUSH1 0x7F DUP3 AND SWAP2 POP JUMPDEST PUSH1 0x20 DUP3 LT DUP2 SUB PUSH2 0x27B5 JUMPI PUSH2 0x27B4 PUSH2 0x275E JUMP JUMPDEST JUMPDEST POP SWAP2 SWAP1 POP JUMP JUMPDEST PUSH0 PUSH10 0xFFFFFFFFFFFFFFFFFFFF DUP3 AND SWAP1 POP SWAP2 SWAP1 POP JUMP JUMPDEST PUSH2 0x27D9 DUP2 PUSH2 0x27BB JUMP JUMPDEST DUP2 EQ PUSH2 0x27E3 JUMPI PUSH0 DUP1 REVERT JUMPDEST POP JUMP JUMPDEST PUSH0 DUP2 MLOAD SWAP1 POP PUSH2 0x27F4 DUP2 PUSH2 0x27D0 JUMP JUMPDEST SWAP3 SWAP2 POP POP JUMP JUMPDEST PUSH0 DUP2 SWAP1 POP SWAP2 SWAP1 POP JUMP JUMPDEST PUSH2 0x280C DUP2 PUSH2 0x27FA JUMP JUMPDEST DUP2 EQ PUSH2 0x2816 JUMPI PUSH0 DUP1 REVERT JUMPDEST POP JUMP JUMPDEST PUSH0 DUP2 MLOAD SWAP1 POP PUSH2 0x2827 DUP2 PUSH2 0x2803 JUMP JUMPDEST SWAP3 SWAP2 POP POP JUMP JUMPDEST PUSH0 DUP1 PUSH0 DUP1 PUSH0 PUSH1 0xA0 DUP7 DUP9 SUB SLT ISZERO PUSH2 0x2846 JUMPI PUSH2 0x2845 PUSH2 0x17D6 JUMP JUMPDEST JUMPDEST PUSH0 PUSH2 0x2853 DUP9 DUP3 DUP10 ADD PUSH2 0x27E6 JUMP JUMPDEST SWAP6 POP POP PUSH1 0x20 PUSH2 0x2864 DUP9 DUP3 DUP10 ADD PUSH2 0x2819 JUMP JUMPDEST SWAP5 POP POP PUSH1 0x40 PUSH2 0x2875 DUP9 DUP3 DUP10 ADD PUSH2 0x2221 JUMP JUMPDEST SWAP4 POP POP PUSH1 0x60 PUSH2 0x2886 DUP9 DUP3 DUP10 ADD PUSH2 0x2221 JUMP JUMPDEST SWAP3 POP POP PUSH1 0x80 PUSH2 0x2897 DUP9 DUP3 DUP10 ADD PUSH2 0x27E6 JUMP JUMPDEST SWAP2 POP POP SWAP3 SWAP6 POP SWAP3 SWAP6 SWAP1 SWAP4 POP JUMP JUMPDEST PUSH32 0x4E487B7100000000000000000000000000000000000000000000000000000000 PUSH0 MSTORE PUSH1 0x12 PUSH1 0x4 MSTORE PUSH1 0x24 PUSH0 REVERT JUMPDEST PUSH32 0x4E487B7100000000000000000000000000000000000000000000000000000000 PUSH0 MSTORE PUSH1 0x11 PUSH1 0x4 MSTORE PUSH1 0x24 PUSH0 REVERT JUMPDEST PUSH0 PUSH2 0x2908 DUP3 PUSH2 0x17DE JUMP JUMPDEST SWAP2 POP PUSH2 0x2913 DUP4 PUSH2 0x17DE JUMP JUMPDEST SWAP3 POP DUP3 PUSH2 0x2923 JUMPI PUSH2 0x2922 PUSH2 0x28A4 JUMP JUMPDEST JUMPDEST DUP3 DUP3 DIV SWAP1 POP SWAP3 SWAP2 POP POP JUMP JUMPDEST PUSH0 PUSH2 0x2938 DUP3 PUSH2 0x17DE JUMP JUMPDEST SWAP2 POP PUSH2 0x2943 DUP4 PUSH2 0x17DE JUMP JUMPDEST SWAP3 POP DUP3 DUP3 ADD SWAP1 POP DUP1 DUP3 GT ISZERO PUSH2 0x295B JUMPI PUSH2 0x295A PUSH2 0x28D1 JUMP JUMPDEST JUMPDEST SWAP3 SWAP2 POP POP JUMP JUMPDEST PUSH0 PUSH8 0xFFFFFFFFFFFFFFFF DUP3 GT ISZERO PUSH2 0x297B JUMPI PUSH2 0x297A PUSH2 0x20EF JUMP JUMPDEST JUMPDEST PUSH1 0x20 DUP3 MUL SWAP1 POP PUSH1 0x20 DUP2 ADD SWAP1 POP SWAP2 SWAP1 POP JUMP JUMPDEST PUSH0 PUSH2 0x299E PUSH2 0x2999 DUP5 PUSH2 0x2961 JUMP JUMPDEST PUSH2 0x214D JUMP JUMPDEST SWAP1 POP DUP1 DUP4 DUP3 MSTORE PUSH1 0x20 DUP3 ADD SWAP1 POP PUSH1 0x20 DUP5 MUL DUP4 ADD DUP6 DUP2 GT ISZERO PUSH2 0x29C1 JUMPI PUSH2 0x29C0 PUSH2 0x1844 JUMP JUMPDEST JUMPDEST DUP4 JUMPDEST DUP2 DUP2 LT ISZERO PUSH2 0x2A08 JUMPI DUP1 MLOAD PUSH8 0xFFFFFFFFFFFFFFFF DUP2 GT ISZERO PUSH2 0x29E6 JUMPI PUSH2 0x29E5 PUSH2 0x183C JUMP JUMPDEST JUMPDEST DUP1 DUP7 ADD PUSH2 0x29F3 DUP10 DUP3 PUSH2 0x225F JUMP JUMPDEST DUP6 MSTORE PUSH1 0x20 DUP6 ADD SWAP5 POP POP POP PUSH1 0x20 DUP2 ADD SWAP1 POP PUSH2 0x29C3 JUMP JUMPDEST POP POP POP SWAP4 SWAP3 POP POP POP JUMP JUMPDEST PUSH0 DUP3 PUSH1 0x1F DUP4 ADD SLT PUSH2 0x2A26 JUMPI PUSH2 0x2A25 PUSH2 0x183C JUMP JUMPDEST JUMPDEST DUP2 MLOAD PUSH2 0x2A36 DUP5 DUP3 PUSH1 0x20 DUP7 ADD PUSH2 0x298C JUMP JUMPDEST SWAP2 POP POP SWAP3 SWAP2 POP POP JUMP JUMPDEST PUSH0 PUSH1 0x20 DUP3 DUP5 SUB SLT ISZERO PUSH2 0x2A54 JUMPI PUSH2 0x2A53 PUSH2 0x17D6 JUMP JUMPDEST JUMPDEST PUSH0 DUP3 ADD MLOAD PUSH8 0xFFFFFFFFFFFFFFFF DUP2 GT ISZERO PUSH2 0x2A71 JUMPI PUSH2 0x2A70 PUSH2 0x17DA JUMP JUMPDEST JUMPDEST PUSH2 0x2A7D DUP5 DUP3 DUP6 ADD PUSH2 0x2A12 JUMP JUMPDEST SWAP2 POP POP SWAP3 SWAP2 POP POP JUMP JUMPDEST PUSH0 DUP2 SWAP1 POP DUP2 PUSH0 MSTORE PUSH1 0x20 PUSH0 KECCAK256 SWAP1 POP SWAP2 SWAP1 POP JUMP JUMPDEST PUSH0 PUSH1 0x20 PUSH1 0x1F DUP4 ADD DIV SWAP1 POP SWAP2 SWAP1 POP JUMP JUMPDEST PUSH0 DUP3 DUP3 SHL SWAP1 POP SWAP3 SWAP2 POP POP JUMP JUMPDEST PUSH0 PUSH1 0x8 DUP4 MUL PUSH2 0x2AE2 PUSH32 0xFFFFFFFFFFFFFFFFFFFFFFFFFFFFFFFFFFFFFFFFFFFFFFFFFFFFFFFFFFFFFFFF DUP3 PUSH2 0x2AA7 JUMP JUMPDEST PUSH2 0x2AEC DUP7 DUP4 PUSH2 0x2AA7 JUMP JUMPDEST SWAP6 POP DUP1 NOT DUP5 AND SWAP4 POP DUP1 DUP7 AND DUP5 OR SWAP3 POP POP POP SWAP4 SWAP3 POP POP POP JUMP JUMPDEST PUSH0 PUSH2 0x2B1E PUSH2 0x2B19 PUSH2 0x2B14 DUP5 PUSH2 0x17DE JUMP JUMPDEST PUSH2 0x2398 JUMP JUMPDEST PUSH2 0x17DE JUMP JUMPDEST SWAP1 POP SWAP2 SWAP1 POP JUMP JUMPDEST PUSH0 DUP2 SWAP1 POP SWAP2 SWAP1 POP JUMP JUMPDEST PUSH2 0x2B37 DUP4 PUSH2 0x2B04 JUMP JUMPDEST PUSH2 0x2B4B PUSH2 0x2B43 DUP3 PUSH2 0x2B25 JUMP JUMPDEST DUP5 DUP5 SLOAD PUSH2 0x2AB3 JUMP JUMPDEST DUP3 SSTORE POP POP POP POP JUMP JUMPDEST PUSH0 SWAP1 JUMP JUMPDEST PUSH2 0x2B5F PUSH2 0x2B53 JUMP JUMPDEST PUSH2 0x2B6A DUP2 DUP5 DUP5 PUSH2 0x2B2E JUMP JUMPDEST POP POP POP JUMP JUMPDEST JUMPDEST DUP2 DUP2 LT ISZERO PUSH2 0x2B8D JUMPI PUSH2 0x2B82 PUSH0 DUP3 PUSH2 0x2B57 JUMP JUMPDEST PUSH1 0x1 DUP2 ADD SWAP1 POP PUSH2 0x2B70 JUMP JUMPDEST POP POP JUMP JUMPDEST PUSH1 0x1F DUP3 GT ISZERO PUSH2 0x2BD2 JUMPI PUSH2 0x2BA3 DUP2 PUSH2 0x2A86 JUMP JUMPDEST PUSH2 0x2BAC DUP5 PUSH2 0x2A98 JUMP JUMPDEST DUP2 ADD PUSH1 0x20 DUP6 LT ISZERO PUSH2 0x2BBB JUMPI DUP2 SWAP1 POP JUMPDEST PUSH2 0x2BCF PUSH2 0x2BC7 DUP6 PUSH2 0x2A98 JUMP JUMPDEST DUP4 ADD DUP3 PUSH2 0x2B6F JUMP JUMPDEST POP POP JUMPDEST POP POP POP JUMP JUMPDEST PUSH0 DUP3 DUP3 SHR SWAP1 POP SWAP3 SWAP2 POP POP JUMP JUMPDEST PUSH0 PUSH2 0x2BF2 PUSH0 NOT DUP5 PUSH1 0x8 MUL PUSH2 0x2BD7 JUMP JUMPDEST NOT DUP1 DUP4 AND SWAP2 POP POP SWAP3 SWAP2 POP POP JUMP JUMPDEST PUSH0 PUSH2 0x2C0A DUP4 DUP4 PUSH2 0x2BE3 JUMP JUMPDEST SWAP2 POP DUP3 PUSH1 0x2 MUL DUP3 OR SWAP1 POP SWAP3 SWAP2 POP POP JUMP JUMPDEST PUSH2 0x2C23 DUP3 PUSH2 0x1ACC JUMP JUMPDEST PUSH8 0xFFFFFFFFFFFFFFFF DUP2 GT ISZERO PUSH2 0x2C3C JUMPI PUSH2 0x2C3B PUSH2 0x20EF JUMP JUMPDEST JUMPDEST PUSH2 0x2C46 DUP3 SLOAD PUSH2 0x278B JUMP JUMPDEST PUSH2 0x2C51 DUP3 DUP3 DUP6 PUSH2 0x2B91 JUMP JUMPDEST PUSH0 PUSH1 0x20 SWAP1 POP PUSH1 0x1F DUP4 GT PUSH1 0x1 DUP2 EQ PUSH2 0x2C82 JUMPI PUSH0 DUP5 ISZERO PUSH2 0x2C70 JUMPI DUP3 DUP8 ADD MLOAD SWAP1 POP JUMPDEST PUSH2 0x2C7A DUP6 DUP3 PUSH2 0x2BFF JUMP JUMPDEST DUP7 SSTORE POP PUSH2 0x2CE1 JUMP JUMPDEST PUSH1 0x1F NOT DUP5 AND PUSH2 0x2C90 DUP7 PUSH2 0x2A86 JUMP JUMPDEST PUSH0 JUMPDEST DUP3 DUP2 LT ISZERO PUSH2 0x2CB7 JUMPI DUP5 DUP10 ADD MLOAD DUP3 SSTORE PUSH1 0x1 DUP3 ADD SWAP2 POP PUSH1 0x20 DUP6 ADD SWAP5 POP PUSH1 0x20 DUP2 ADD SWAP1 POP PUSH2 0x2C92 JUMP JUMPDEST DUP7 DUP4 LT ISZERO PUSH2 0x2CD4 JUMPI DUP5 DUP10 ADD MLOAD PUSH2 0x2CD0 PUSH1 0x1F DUP10 AND DUP3 PUSH2 0x2BE3 JUMP JUMPDEST DUP4 SSTORE POP JUMPDEST PUSH1 0x1 PUSH1 0x2 DUP9 MUL ADD DUP9 SSTORE POP POP POP JUMPDEST POP POP POP POP POP POP JUMP JUMPDEST PUSH0 DUP2 SLOAD PUSH2 0x2CF5 DUP2 PUSH2 0x278B JUMP JUMPDEST PUSH2 0x2CFF DUP2 DUP7 PUSH2 0x1C64 JUMP JUMPDEST SWAP5 POP PUSH1 0x1 DUP3 AND PUSH0 DUP2 EQ PUSH2 0x2D19 JUMPI PUSH1 0x1 DUP2 EQ PUSH2 0x2D2F JUMPI PUSH2 0x2D61 JUMP JUMPDEST PUSH1 0xFF NOT DUP4 AND DUP7 MSTORE DUP2 ISZERO ISZERO PUSH1 0x20 MUL DUP7 ADD SWAP4 POP PUSH2 0x2D61 JUMP JUMPDEST PUSH2 0x2D38 DUP6 PUSH2 0x2A86 JUMP JUMPDEST PUSH0 JUMPDEST DUP4 DUP2 LT ISZERO PUSH2 0x2D59 JUMPI DUP2 SLOAD DUP2 DUP10 ADD MSTORE PUSH1 0x1 DUP3 ADD SWAP2 POP PUSH1 0x20 DUP2 ADD SWAP1 POP PUSH2 0x2D3A JUMP JUMPDEST DUP1 DUP9 ADD SWAP6 POP POP POP JUMPDEST POP POP POP SWAP3 SWAP2 POP POP JUMP JUMPDEST PUSH0 PUSH1 0x20 DUP3 ADD SWAP1 POP DUP2 DUP2 SUB PUSH0 DUP4 ADD MSTORE PUSH2 0x2D82 DUP2 DUP5 PUSH2 0x2CE9 JUMP JUMPDEST SWAP1 POP SWAP3 SWAP2 POP POP JUMP JUMPDEST PUSH32 0x4E487B7100000000000000000000000000000000000000000000000000000000 PUSH0 MSTORE PUSH1 0x32 PUSH1 0x4 MSTORE PUSH1 0x24 PUSH0 REVERT INVALID LOG2 PUSH5 0x6970667358 0x22 SLT KECCAK256 0xB3 EXTCODECOPY EXTCODESIZE PUSH28 0x3FC0BA3385EA6FEE35FCEF3FDA78DDD64EAD5040B91E773CFE046B74 PUSH5 0x736F6C6343 STOP ADDMOD NOT STOP CALLER "
				},
				"gasEstimates": {
					"creation": {
						"codeDepositCost": "2351400",
						"executionCost": "infinite",
						"totalCost": "infinite"
					},
					"external": {
						"getFee()": "2498",
						"getLastWinningProposal()": "infinite",
						"getLatestPrice()": "infinite",
						"getPeriodInterval()": "infinite",
						"getVotes()": "infinite",
						"getWinningPoposel()": "infinite",
						"lastWinningProposal()": "infinite",
						"listProposels()": "infinite",
						"makeTransfer(address)": "infinite",
						"owner()": "2560",
						"renounceOwnership()": "infinite",
						"resetPeriod()": "infinite",
						"setFee(uint256)": "infinite",
						"setProposel(string,string)": "infinite",
						"setProposelContractAddress(address)": "infinite",
						"transferOwnership(address)": "infinite",
						"unvote()": "infinite",
						"vote(uint256)": "infinite"
					},
					"internal": {
						"resetVotes()": "infinite"
					}
				},
				"methodIdentifiers": {
					"getFee()": "ced72f87",
					"getLastWinningProposal()": "76f90e8e",
					"getLatestPrice()": "8e15f473",
					"getPeriodInterval()": "52505453",
					"getVotes()": "0dc96015",
					"getWinningPoposel()": "ffeb78b7",
					"lastWinningProposal()": "90ab1d8e",
					"listProposels()": "94964edf",
					"makeTransfer(address)": "2d5cea8e",
					"owner()": "8da5cb5b",
					"renounceOwnership()": "715018a6",
					"resetPeriod()": "944c1d97",
					"setFee(uint256)": "69fe0e2d",
					"setProposel(string,string)": "06db5c06",
					"setProposelContractAddress(address)": "26732549",
					"transferOwnership(address)": "f2fde38b",
					"unvote()": "3174b689",
					"vote(uint256)": "0121b93f"
				}
			},
			"storageLayout": {
				"storage": [
					{
						"astId": 308,
						"contract": "contracts/final/AudienceEngagementTool.sol:AudienceEngagementTool",
						"label": "_owner",
						"offset": 0,
						"slot": "0",
						"type": "t_address"
					},
					{
						"astId": 493,
						"contract": "contracts/final/AudienceEngagementTool.sol:AudienceEngagementTool",
						"label": "votes",
						"offset": 0,
						"slot": "1",
						"type": "t_mapping(t_address,t_uint256)"
					},
					{
						"astId": 496,
						"contract": "contracts/final/AudienceEngagementTool.sol:AudienceEngagementTool",
						"label": "keys",
						"offset": 0,
						"slot": "2",
						"type": "t_array(t_address)dyn_storage"
					},
					{
						"astId": 498,
						"contract": "contracts/final/AudienceEngagementTool.sol:AudienceEngagementTool",
						"label": "periodStart",
						"offset": 0,
						"slot": "3",
						"type": "t_uint256"
					},
					{
						"astId": 500,
						"contract": "contracts/final/AudienceEngagementTool.sol:AudienceEngagementTool",
						"label": "periodEnd",
						"offset": 0,
						"slot": "4",
						"type": "t_uint256"
					},
					{
						"astId": 503,
						"contract": "contracts/final/AudienceEngagementTool.sol:AudienceEngagementTool",
						"label": "lastWinningProposal",
						"offset": 0,
						"slot": "5",
						"type": "t_struct(Proposel)1159_storage"
					},
					{
						"astId": 506,
						"contract": "contracts/final/AudienceEngagementTool.sol:AudienceEngagementTool",
						"label": "proposelContract",
						"offset": 0,
						"slot": "12",
						"type": "t_contract(IProposelContract)1014"
					},
					{
						"astId": 508,
						"contract": "contracts/final/AudienceEngagementTool.sol:AudienceEngagementTool",
						"label": "ownerAccount",
						"offset": 0,
						"slot": "13",
						"type": "t_address"
					},
					{
						"astId": 511,
						"contract": "contracts/final/AudienceEngagementTool.sol:AudienceEngagementTool",
						"label": "priceFeed",
						"offset": 0,
						"slot": "14",
						"type": "t_contract(AggregatorV3Interface)45"
					},
					{
						"astId": 513,
						"contract": "contracts/final/AudienceEngagementTool.sol:AudienceEngagementTool",
						"label": "fee",
						"offset": 0,
						"slot": "15",
						"type": "t_uint256"
					}
				],
				"types": {
					"t_address": {
						"encoding": "inplace",
						"label": "address",
						"numberOfBytes": "20"
					},
					"t_array(t_address)dyn_storage": {
						"base": "t_address",
						"encoding": "dynamic_array",
						"label": "address[]",
						"numberOfBytes": "32"
					},
					"t_bytes32": {
						"encoding": "inplace",
						"label": "bytes32",
						"numberOfBytes": "32"
					},
					"t_contract(AggregatorV3Interface)45": {
						"encoding": "inplace",
						"label": "contract AggregatorV3Interface",
						"numberOfBytes": "20"
					},
					"t_contract(IProposelContract)1014": {
						"encoding": "inplace",
						"label": "contract IProposelContract",
						"numberOfBytes": "20"
					},
					"t_mapping(t_address,t_uint256)": {
						"encoding": "mapping",
						"key": "t_address",
						"label": "mapping(address => uint256)",
						"numberOfBytes": "32",
						"value": "t_uint256"
					},
					"t_string_storage": {
						"encoding": "bytes",
						"label": "string",
						"numberOfBytes": "32"
					},
					"t_struct(Proposel)1159_storage": {
						"encoding": "inplace",
						"label": "struct Proposel",
						"members": [
							{
								"astId": 1146,
								"contract": "contracts/final/AudienceEngagementTool.sol:AudienceEngagementTool",
								"label": "owner",
								"offset": 0,
								"slot": "0",
								"type": "t_address"
							},
							{
								"astId": 1148,
								"contract": "contracts/final/AudienceEngagementTool.sol:AudienceEngagementTool",
								"label": "name",
								"offset": 0,
								"slot": "1",
								"type": "t_string_storage"
							},
							{
								"astId": 1150,
								"contract": "contracts/final/AudienceEngagementTool.sol:AudienceEngagementTool",
								"label": "url",
								"offset": 0,
								"slot": "2",
								"type": "t_string_storage"
							},
							{
								"astId": 1152,
								"contract": "contracts/final/AudienceEngagementTool.sol:AudienceEngagementTool",
								"label": "timestamp",
								"offset": 0,
								"slot": "3",
								"type": "t_uint256"
							},
							{
								"astId": 1154,
								"contract": "contracts/final/AudienceEngagementTool.sol:AudienceEngagementTool",
								"label": "votes",
								"offset": 0,
								"slot": "4",
								"type": "t_uint256"
							},
							{
								"astId": 1156,
								"contract": "contracts/final/AudienceEngagementTool.sol:AudienceEngagementTool",
								"label": "id",
								"offset": 0,
								"slot": "5",
								"type": "t_uint256"
							},
							{
								"astId": 1158,
								"contract": "contracts/final/AudienceEngagementTool.sol:AudienceEngagementTool",
								"label": "uniqueHash",
								"offset": 0,
								"slot": "6",
								"type": "t_bytes32"
							}
						],
						"numberOfBytes": "224"
					},
					"t_uint256": {
						"encoding": "inplace",
						"label": "uint256",
						"numberOfBytes": "32"
					}
				}
			},
			"userdoc": {
				"kind": "user",
				"methods": {},
				"version": 1
			}
		}
	}
}