{
	"contracts/final/LibraryAudianceEngagementTool.sol": {
		"UtilLibrary": {
			"abi": [
				{
					"inputs": [
						{
							"internalType": "address[]",
							"name": "keys",
							"type": "address[]"
						},
						{
							"internalType": "address",
							"name": "key",
							"type": "address"
						}
					],
					"name": "getIndex",
					"outputs": [
						{
							"internalType": "uint256",
							"name": "",
							"type": "uint256"
						}
					],
					"stateMutability": "pure",
					"type": "function"
				},
				{
					"inputs": [
						{
							"internalType": "address[]",
							"name": "array",
							"type": "address[]"
						}
					],
					"name": "pop",
					"outputs": [
						{
							"internalType": "address[]",
							"name": "",
							"type": "address[]"
						}
					],
					"stateMutability": "pure",
					"type": "function"
				},
				{
					"inputs": [
						{
							"internalType": "address[]",
							"name": "array",
							"type": "address[]"
						},
						{
							"internalType": "uint256",
							"name": "index",
							"type": "uint256"
						}
					],
					"name": "removeElement",
					"outputs": [
						{
							"internalType": "address[]",
							"name": "",
							"type": "address[]"
						}
					],
					"stateMutability": "pure",
					"type": "function"
				}
			],
			"devdoc": {
				"kind": "dev",
				"methods": {},
				"version": 1
			},
			"evm": {
				"assembly": "    /* \"contracts/final/LibraryAudianceEngagementTool.sol\":72:899  library UtilLibrary {... */\n  dataSize(sub_0)\n  dataOffset(sub_0)\n  0x0b\n  dup3\n  dup3\n  dup3\n  codecopy\n  dup1\n  mload\n  0x00\n  byte\n  0x73\n  eq\n  tag_1\n  jumpi\n  mstore(0x00, 0x4e487b7100000000000000000000000000000000000000000000000000000000)\n  mstore(0x04, 0x00)\n  revert(0x00, 0x24)\ntag_1:\n  mstore(0x00, address)\n  0x73\n  dup2\n  mstore8\n  dup3\n  dup2\n  return\nstop\n\nsub_0: assembly {\n        /* \"contracts/final/LibraryAudianceEngagementTool.sol\":72:899  library UtilLibrary {... */\n      eq(address, deployTimeAddress())\n      mstore(0x40, 0x80)\n      jumpi(tag_1, lt(calldatasize, 0x04))\n      shr(0xe0, calldataload(0x00))\n      dup1\n      0x1c07c87f\n      eq\n      tag_2\n      jumpi\n      dup1\n      0x5a8d4625\n      eq\n      tag_3\n      jumpi\n      dup1\n      0xf3516c62\n      eq\n      tag_4\n      jumpi\n    tag_1:\n      0x00\n      dup1\n      revert\n        /* \"contracts/final/LibraryAudianceEngagementTool.sol\":105:350  function getIndex(address[] memory keys, address key)public pure returns (uint) {... */\n    tag_2:\n      tag_5\n      0x04\n      dup1\n      calldatasize\n      sub\n      dup2\n      add\n      swap1\n      tag_6\n      swap2\n      swap1\n      tag_7\n      jump\t// in\n    tag_6:\n      tag_8\n      jump\t// in\n    tag_5:\n      mload(0x40)\n      tag_9\n      swap2\n      swap1\n      tag_10\n      jump\t// in\n    tag_9:\n      mload(0x40)\n      dup1\n      swap2\n      sub\n      swap1\n      return\n        /* \"contracts/final/LibraryAudianceEngagementTool.sol\":649:896  function removeElement(address[] memory array, uint256 index) public pure returns (address[] memory){... */\n    tag_3:\n      tag_11\n      0x04\n      dup1\n      calldatasize\n      sub\n      dup2\n      add\n      swap1\n      tag_12\n      swap2\n      swap1\n      tag_13\n      jump\t// in\n    tag_12:\n      tag_14\n      jump\t// in\n    tag_11:\n      mload(0x40)\n      tag_15\n      swap2\n      swap1\n      tag_16\n      jump\t// in\n    tag_15:\n      mload(0x40)\n      dup1\n      swap2\n      sub\n      swap1\n      return\n        /* \"contracts/final/LibraryAudianceEngagementTool.sol\":358:641  function pop( address[] memory array) public pure returns (address[] memory){... */\n    tag_4:\n      tag_17\n      0x04\n      dup1\n      calldatasize\n      sub\n      dup2\n      add\n      swap1\n      tag_18\n      swap2\n      swap1\n      tag_19\n      jump\t// in\n    tag_18:\n      tag_20\n      jump\t// in\n    tag_17:\n      mload(0x40)\n      tag_21\n      swap2\n      swap1\n      tag_16\n      jump\t// in\n    tag_21:\n      mload(0x40)\n      dup1\n      swap2\n      sub\n      swap1\n      return\n        /* \"contracts/final/LibraryAudianceEngagementTool.sol\":105:350  function getIndex(address[] memory keys, address key)public pure returns (uint) {... */\n    tag_8:\n        /* \"contracts/final/LibraryAudianceEngagementTool.sol\":179:183  uint */\n      0x00\n        /* \"contracts/final/LibraryAudianceEngagementTool.sol\":201:207  uint i */\n      dup1\n        /* \"contracts/final/LibraryAudianceEngagementTool.sol\":210:211  0 */\n      0x00\n        /* \"contracts/final/LibraryAudianceEngagementTool.sol\":201:211  uint i = 0 */\n      swap1\n      pop\n        /* \"contracts/final/LibraryAudianceEngagementTool.sol\":196:324  for (uint i = 0; i < keys.length; i++) {... */\n    tag_23:\n        /* \"contracts/final/LibraryAudianceEngagementTool.sol\":217:221  keys */\n      dup4\n        /* \"contracts/final/LibraryAudianceEngagementTool.sol\":217:228  keys.length */\n      mload\n        /* \"contracts/final/LibraryAudianceEngagementTool.sol\":213:214  i */\n      dup2\n        /* \"contracts/final/LibraryAudianceEngagementTool.sol\":213:228  i < keys.length */\n      lt\n        /* \"contracts/final/LibraryAudianceEngagementTool.sol\":196:324  for (uint i = 0; i < keys.length; i++) {... */\n      iszero\n      tag_24\n      jumpi\n        /* \"contracts/final/LibraryAudianceEngagementTool.sol\":265:268  key */\n      dup3\n        /* \"contracts/final/LibraryAudianceEngagementTool.sol\":254:268  keys[i] == key */\n      0xffffffffffffffffffffffffffffffffffffffff\n      and\n        /* \"contracts/final/LibraryAudianceEngagementTool.sol\":254:258  keys */\n      dup5\n        /* \"contracts/final/LibraryAudianceEngagementTool.sol\":259:260  i */\n      dup3\n        /* \"contracts/final/LibraryAudianceEngagementTool.sol\":254:261  keys[i] */\n      dup2\n      mload\n      dup2\n      lt\n      tag_26\n      jumpi\n      tag_27\n      tag_28\n      jump\t// in\n    tag_27:\n    tag_26:\n      0x20\n      mul\n      0x20\n      add\n      add\n      mload\n        /* \"contracts/final/LibraryAudianceEngagementTool.sol\":254:268  keys[i] == key */\n      0xffffffffffffffffffffffffffffffffffffffff\n      and\n      sub\n        /* \"contracts/final/LibraryAudianceEngagementTool.sol\":250:313  if (keys[i] == key) {... */\n      tag_29\n      jumpi\n        /* \"contracts/final/LibraryAudianceEngagementTool.sol\":296:297  i */\n      dup1\n        /* \"contracts/final/LibraryAudianceEngagementTool.sol\":289:297  return i */\n      swap2\n      pop\n      pop\n      jump(tag_22)\n        /* \"contracts/final/LibraryAudianceEngagementTool.sol\":250:313  if (keys[i] == key) {... */\n    tag_29:\n        /* \"contracts/final/LibraryAudianceEngagementTool.sol\":230:233  i++ */\n      dup1\n      dup1\n      0x01\n      add\n      swap2\n      pop\n      pop\n        /* \"contracts/final/LibraryAudianceEngagementTool.sol\":196:324  for (uint i = 0; i < keys.length; i++) {... */\n      jump(tag_23)\n    tag_24:\n      pop\n        /* \"contracts/final/LibraryAudianceEngagementTool.sol\":341:342  0 */\n      0x00\n        /* \"contracts/final/LibraryAudianceEngagementTool.sol\":334:342  return 0 */\n      swap1\n      pop\n        /* \"contracts/final/LibraryAudianceEngagementTool.sol\":105:350  function getIndex(address[] memory keys, address key)public pure returns (uint) {... */\n    tag_22:\n      swap3\n      swap2\n      pop\n      pop\n      jump\t// out\n        /* \"contracts/final/LibraryAudianceEngagementTool.sol\":649:896  function removeElement(address[] memory array, uint256 index) public pure returns (address[] memory){... */\n    tag_14:\n        /* \"contracts/final/LibraryAudianceEngagementTool.sol\":732:748  address[] memory */\n      0x60\n        /* \"contracts/final/LibraryAudianceEngagementTool.sol\":765:774  uint256 i */\n      0x00\n        /* \"contracts/final/LibraryAudianceEngagementTool.sol\":777:782  index */\n      dup3\n        /* \"contracts/final/LibraryAudianceEngagementTool.sol\":765:782  uint256 i = index */\n      swap1\n      pop\n        /* \"contracts/final/LibraryAudianceEngagementTool.sol\":760:861  for (uint256 i = index; i < array.length - 1; i++) {... */\n    tag_31:\n        /* \"contracts/final/LibraryAudianceEngagementTool.sol\":803:804  1 */\n      0x01\n        /* \"contracts/final/LibraryAudianceEngagementTool.sol\":788:793  array */\n      dup5\n        /* \"contracts/final/LibraryAudianceEngagementTool.sol\":788:800  array.length */\n      mload\n        /* \"contracts/final/LibraryAudianceEngagementTool.sol\":788:804  array.length - 1 */\n      tag_34\n      swap2\n      swap1\n      tag_35\n      jump\t// in\n    tag_34:\n        /* \"contracts/final/LibraryAudianceEngagementTool.sol\":784:785  i */\n      dup2\n        /* \"contracts/final/LibraryAudianceEngagementTool.sol\":784:804  i < array.length - 1 */\n      lt\n        /* \"contracts/final/LibraryAudianceEngagementTool.sol\":760:861  for (uint256 i = index; i < array.length - 1; i++) {... */\n      iszero\n      tag_32\n      jumpi\n        /* \"contracts/final/LibraryAudianceEngagementTool.sol\":837:842  array */\n      dup4\n        /* \"contracts/final/LibraryAudianceEngagementTool.sol\":847:848  1 */\n      0x01\n        /* \"contracts/final/LibraryAudianceEngagementTool.sol\":843:844  i */\n      dup3\n        /* \"contracts/final/LibraryAudianceEngagementTool.sol\":843:848  i + 1 */\n      tag_36\n      swap2\n      swap1\n      tag_37\n      jump\t// in\n    tag_36:\n        /* \"contracts/final/LibraryAudianceEngagementTool.sol\":837:849  array[i + 1] */\n      dup2\n      mload\n      dup2\n      lt\n      tag_38\n      jumpi\n      tag_39\n      tag_28\n      jump\t// in\n    tag_39:\n    tag_38:\n      0x20\n      mul\n      0x20\n      add\n      add\n      mload\n        /* \"contracts/final/LibraryAudianceEngagementTool.sol\":826:831  array */\n      dup5\n        /* \"contracts/final/LibraryAudianceEngagementTool.sol\":832:833  i */\n      dup3\n        /* \"contracts/final/LibraryAudianceEngagementTool.sol\":826:834  array[i] */\n      dup2\n      mload\n      dup2\n      lt\n      tag_40\n      jumpi\n      tag_41\n      tag_28\n      jump\t// in\n    tag_41:\n    tag_40:\n      0x20\n      mul\n      0x20\n      add\n      add\n        /* \"contracts/final/LibraryAudianceEngagementTool.sol\":826:849  array[i] = array[i + 1] */\n      swap1\n      0xffffffffffffffffffffffffffffffffffffffff\n      and\n      swap1\n      dup2\n      0xffffffffffffffffffffffffffffffffffffffff\n      and\n      dup2\n      mstore\n      pop\n      pop\n        /* \"contracts/final/LibraryAudianceEngagementTool.sol\":806:809  i++ */\n      dup1\n      dup1\n      0x01\n      add\n      swap2\n      pop\n      pop\n        /* \"contracts/final/LibraryAudianceEngagementTool.sol\":760:861  for (uint256 i = index; i < array.length - 1; i++) {... */\n      jump(tag_31)\n    tag_32:\n      pop\n        /* \"contracts/final/LibraryAudianceEngagementTool.sol\":878:888  pop(array) */\n      tag_42\n        /* \"contracts/final/LibraryAudianceEngagementTool.sol\":882:887  array */\n      dup4\n        /* \"contracts/final/LibraryAudianceEngagementTool.sol\":878:881  pop */\n      tag_20\n        /* \"contracts/final/LibraryAudianceEngagementTool.sol\":878:888  pop(array) */\n      jump\t// in\n    tag_42:\n        /* \"contracts/final/LibraryAudianceEngagementTool.sol\":871:888  return pop(array) */\n      swap1\n      pop\n        /* \"contracts/final/LibraryAudianceEngagementTool.sol\":649:896  function removeElement(address[] memory array, uint256 index) public pure returns (address[] memory){... */\n      swap3\n      swap2\n      pop\n      pop\n      jump\t// out\n        /* \"contracts/final/LibraryAudianceEngagementTool.sol\":358:641  function pop( address[] memory array) public pure returns (address[] memory){... */\n    tag_20:\n        /* \"contracts/final/LibraryAudianceEngagementTool.sol\":417:433  address[] memory */\n      0x60\n        /* \"contracts/final/LibraryAudianceEngagementTool.sol\":445:470  address[] memory newArray */\n      0x00\n        /* \"contracts/final/LibraryAudianceEngagementTool.sol\":502:503  1 */\n      0x01\n        /* \"contracts/final/LibraryAudianceEngagementTool.sol\":487:492  array */\n      dup4\n        /* \"contracts/final/LibraryAudianceEngagementTool.sol\":487:499  array.length */\n      mload\n        /* \"contracts/final/LibraryAudianceEngagementTool.sol\":487:503  array.length - 1 */\n      tag_44\n      swap2\n      swap1\n      tag_35\n      jump\t// in\n    tag_44:\n        /* \"contracts/final/LibraryAudianceEngagementTool.sol\":473:504  new address[](array.length - 1) */\n      0xffffffffffffffff\n      dup2\n      gt\n      iszero\n      tag_45\n      jumpi\n      tag_46\n      tag_47\n      jump\t// in\n    tag_46:\n    tag_45:\n      mload(0x40)\n      swap1\n      dup1\n      dup3\n      mstore\n      dup1\n      0x20\n      mul\n      0x20\n      add\n      dup3\n      add\n      0x40\n      mstore\n      dup1\n      iszero\n      tag_48\n      jumpi\n      dup2\n      0x20\n      add\n      0x20\n      dup3\n      mul\n      dup1\n      calldatasize\n      dup4\n      calldatacopy\n      dup1\n      dup3\n      add\n      swap2\n      pop\n      pop\n      swap1\n      pop\n    tag_48:\n      pop\n        /* \"contracts/final/LibraryAudianceEngagementTool.sol\":445:504  address[] memory newArray = new address[](array.length - 1) */\n      swap1\n      pop\n        /* \"contracts/final/LibraryAudianceEngagementTool.sol\":520:526  uint i */\n      0x00\n        /* \"contracts/final/LibraryAudianceEngagementTool.sol\":515:608  for (uint i = 0; i < array.length - 1; i++) {... */\n    tag_49:\n        /* \"contracts/final/LibraryAudianceEngagementTool.sol\":551:552  1 */\n      0x01\n        /* \"contracts/final/LibraryAudianceEngagementTool.sol\":536:541  array */\n      dup5\n        /* \"contracts/final/LibraryAudianceEngagementTool.sol\":536:548  array.length */\n      mload\n        /* \"contracts/final/LibraryAudianceEngagementTool.sol\":536:552  array.length - 1 */\n      tag_52\n      swap2\n      swap1\n      tag_35\n      jump\t// in\n    tag_52:\n        /* \"contracts/final/LibraryAudianceEngagementTool.sol\":532:533  i */\n      dup2\n        /* \"contracts/final/LibraryAudianceEngagementTool.sol\":532:552  i < array.length - 1 */\n      lt\n        /* \"contracts/final/LibraryAudianceEngagementTool.sol\":515:608  for (uint i = 0; i < array.length - 1; i++) {... */\n      iszero\n      tag_50\n      jumpi\n        /* \"contracts/final/LibraryAudianceEngagementTool.sol\":588:593  array */\n      dup4\n        /* \"contracts/final/LibraryAudianceEngagementTool.sol\":594:595  i */\n      dup2\n        /* \"contracts/final/LibraryAudianceEngagementTool.sol\":588:596  array[i] */\n      dup2\n      mload\n      dup2\n      lt\n      tag_53\n      jumpi\n      tag_54\n      tag_28\n      jump\t// in\n    tag_54:\n    tag_53:\n      0x20\n      mul\n      0x20\n      add\n      add\n      mload\n        /* \"contracts/final/LibraryAudianceEngagementTool.sol\":574:582  newArray */\n      dup3\n        /* \"contracts/final/LibraryAudianceEngagementTool.sol\":583:584  i */\n      dup3\n        /* \"contracts/final/LibraryAudianceEngagementTool.sol\":574:585  newArray[i] */\n      dup2\n      mload\n      dup2\n      lt\n      tag_55\n      jumpi\n      tag_56\n      tag_28\n      jump\t// in\n    tag_56:\n    tag_55:\n      0x20\n      mul\n      0x20\n      add\n      add\n        /* \"contracts/final/LibraryAudianceEngagementTool.sol\":574:596  newArray[i] = array[i] */\n      swap1\n      0xffffffffffffffffffffffffffffffffffffffff\n      and\n      swap1\n      dup2\n      0xffffffffffffffffffffffffffffffffffffffff\n      and\n      dup2\n      mstore\n      pop\n      pop\n        /* \"contracts/final/LibraryAudianceEngagementTool.sol\":554:557  i++ */\n      dup1\n      dup1\n      0x01\n      add\n      swap2\n      pop\n      pop\n        /* \"contracts/final/LibraryAudianceEngagementTool.sol\":515:608  for (uint i = 0; i < array.length - 1; i++) {... */\n      jump(tag_49)\n    tag_50:\n      pop\n        /* \"contracts/final/LibraryAudianceEngagementTool.sol\":625:633  newArray */\n      dup1\n        /* \"contracts/final/LibraryAudianceEngagementTool.sol\":618:633  return newArray */\n      swap2\n      pop\n      pop\n        /* \"contracts/final/LibraryAudianceEngagementTool.sol\":358:641  function pop( address[] memory array) public pure returns (address[] memory){... */\n      swap2\n      swap1\n      pop\n      jump\t// out\n        /* \"#utility.yul\":7:82   */\n    tag_57:\n        /* \"#utility.yul\":40:46   */\n      0x00\n        /* \"#utility.yul\":73:75   */\n      0x40\n        /* \"#utility.yul\":67:76   */\n      mload\n        /* \"#utility.yul\":57:76   */\n      swap1\n      pop\n        /* \"#utility.yul\":7:82   */\n      swap1\n      jump\t// out\n        /* \"#utility.yul\":88:205   */\n    tag_58:\n        /* \"#utility.yul\":197:198   */\n      0x00\n        /* \"#utility.yul\":194:195   */\n      dup1\n        /* \"#utility.yul\":187:199   */\n      revert\n        /* \"#utility.yul\":211:328   */\n    tag_59:\n        /* \"#utility.yul\":320:321   */\n      0x00\n        /* \"#utility.yul\":317:318   */\n      dup1\n        /* \"#utility.yul\":310:322   */\n      revert\n        /* \"#utility.yul\":334:451   */\n    tag_60:\n        /* \"#utility.yul\":443:444   */\n      0x00\n        /* \"#utility.yul\":440:441   */\n      dup1\n        /* \"#utility.yul\":433:445   */\n      revert\n        /* \"#utility.yul\":457:559   */\n    tag_61:\n        /* \"#utility.yul\":498:504   */\n      0x00\n        /* \"#utility.yul\":549:551   */\n      0x1f\n        /* \"#utility.yul\":545:552   */\n      not\n        /* \"#utility.yul\":540:542   */\n      0x1f\n        /* \"#utility.yul\":533:538   */\n      dup4\n        /* \"#utility.yul\":529:543   */\n      add\n        /* \"#utility.yul\":525:553   */\n      and\n        /* \"#utility.yul\":515:553   */\n      swap1\n      pop\n        /* \"#utility.yul\":457:559   */\n      swap2\n      swap1\n      pop\n      jump\t// out\n        /* \"#utility.yul\":565:745   */\n    tag_47:\n        /* \"#utility.yul\":613:690   */\n      0x4e487b7100000000000000000000000000000000000000000000000000000000\n        /* \"#utility.yul\":610:611   */\n      0x00\n        /* \"#utility.yul\":603:691   */\n      mstore\n        /* \"#utility.yul\":710:714   */\n      0x41\n        /* \"#utility.yul\":707:708   */\n      0x04\n        /* \"#utility.yul\":700:715   */\n      mstore\n        /* \"#utility.yul\":734:738   */\n      0x24\n        /* \"#utility.yul\":731:732   */\n      0x00\n        /* \"#utility.yul\":724:739   */\n      revert\n        /* \"#utility.yul\":751:1032   */\n    tag_62:\n        /* \"#utility.yul\":834:861   */\n      tag_92\n        /* \"#utility.yul\":856:860   */\n      dup3\n        /* \"#utility.yul\":834:861   */\n      tag_61\n      jump\t// in\n    tag_92:\n        /* \"#utility.yul\":826:832   */\n      dup2\n        /* \"#utility.yul\":822:862   */\n      add\n        /* \"#utility.yul\":964:970   */\n      dup2\n        /* \"#utility.yul\":952:962   */\n      dup2\n        /* \"#utility.yul\":949:971   */\n      lt\n        /* \"#utility.yul\":928:946   */\n      0xffffffffffffffff\n        /* \"#utility.yul\":916:926   */\n      dup3\n        /* \"#utility.yul\":913:947   */\n      gt\n        /* \"#utility.yul\":910:972   */\n      or\n        /* \"#utility.yul\":907:995   */\n      iszero\n      tag_93\n      jumpi\n        /* \"#utility.yul\":975:993   */\n      tag_94\n      tag_47\n      jump\t// in\n    tag_94:\n        /* \"#utility.yul\":907:995   */\n    tag_93:\n        /* \"#utility.yul\":1015:1025   */\n      dup1\n        /* \"#utility.yul\":1011:1013   */\n      0x40\n        /* \"#utility.yul\":1004:1026   */\n      mstore\n        /* \"#utility.yul\":794:1032   */\n      pop\n        /* \"#utility.yul\":751:1032   */\n      pop\n      pop\n      jump\t// out\n        /* \"#utility.yul\":1038:1167   */\n    tag_63:\n        /* \"#utility.yul\":1072:1078   */\n      0x00\n        /* \"#utility.yul\":1099:1119   */\n      tag_96\n      tag_57\n      jump\t// in\n    tag_96:\n        /* \"#utility.yul\":1089:1119   */\n      swap1\n      pop\n        /* \"#utility.yul\":1128:1161   */\n      tag_97\n        /* \"#utility.yul\":1156:1160   */\n      dup3\n        /* \"#utility.yul\":1148:1154   */\n      dup3\n        /* \"#utility.yul\":1128:1161   */\n      tag_62\n      jump\t// in\n    tag_97:\n        /* \"#utility.yul\":1038:1167   */\n      swap2\n      swap1\n      pop\n      jump\t// out\n        /* \"#utility.yul\":1173:1484   */\n    tag_64:\n        /* \"#utility.yul\":1250:1254   */\n      0x00\n        /* \"#utility.yul\":1340:1358   */\n      0xffffffffffffffff\n        /* \"#utility.yul\":1332:1338   */\n      dup3\n        /* \"#utility.yul\":1329:1359   */\n      gt\n        /* \"#utility.yul\":1326:1382   */\n      iszero\n      tag_99\n      jumpi\n        /* \"#utility.yul\":1362:1380   */\n      tag_100\n      tag_47\n      jump\t// in\n    tag_100:\n        /* \"#utility.yul\":1326:1382   */\n    tag_99:\n        /* \"#utility.yul\":1412:1416   */\n      0x20\n        /* \"#utility.yul\":1404:1410   */\n      dup3\n        /* \"#utility.yul\":1400:1417   */\n      mul\n        /* \"#utility.yul\":1392:1417   */\n      swap1\n      pop\n        /* \"#utility.yul\":1472:1476   */\n      0x20\n        /* \"#utility.yul\":1466:1470   */\n      dup2\n        /* \"#utility.yul\":1462:1477   */\n      add\n        /* \"#utility.yul\":1454:1477   */\n      swap1\n      pop\n        /* \"#utility.yul\":1173:1484   */\n      swap2\n      swap1\n      pop\n      jump\t// out\n        /* \"#utility.yul\":1490:1607   */\n    tag_65:\n        /* \"#utility.yul\":1599:1600   */\n      0x00\n        /* \"#utility.yul\":1596:1597   */\n      dup1\n        /* \"#utility.yul\":1589:1601   */\n      revert\n        /* \"#utility.yul\":1613:1739   */\n    tag_66:\n        /* \"#utility.yul\":1650:1657   */\n      0x00\n        /* \"#utility.yul\":1690:1732   */\n      0xffffffffffffffffffffffffffffffffffffffff\n        /* \"#utility.yul\":1683:1688   */\n      dup3\n        /* \"#utility.yul\":1679:1733   */\n      and\n        /* \"#utility.yul\":1668:1733   */\n      swap1\n      pop\n        /* \"#utility.yul\":1613:1739   */\n      swap2\n      swap1\n      pop\n      jump\t// out\n        /* \"#utility.yul\":1745:1841   */\n    tag_67:\n        /* \"#utility.yul\":1782:1789   */\n      0x00\n        /* \"#utility.yul\":1811:1835   */\n      tag_104\n        /* \"#utility.yul\":1829:1834   */\n      dup3\n        /* \"#utility.yul\":1811:1835   */\n      tag_66\n      jump\t// in\n    tag_104:\n        /* \"#utility.yul\":1800:1835   */\n      swap1\n      pop\n        /* \"#utility.yul\":1745:1841   */\n      swap2\n      swap1\n      pop\n      jump\t// out\n        /* \"#utility.yul\":1847:1969   */\n    tag_68:\n        /* \"#utility.yul\":1920:1944   */\n      tag_106\n        /* \"#utility.yul\":1938:1943   */\n      dup2\n        /* \"#utility.yul\":1920:1944   */\n      tag_67\n      jump\t// in\n    tag_106:\n        /* \"#utility.yul\":1913:1918   */\n      dup2\n        /* \"#utility.yul\":1910:1945   */\n      eq\n        /* \"#utility.yul\":1900:1963   */\n      tag_107\n      jumpi\n        /* \"#utility.yul\":1959:1960   */\n      0x00\n        /* \"#utility.yul\":1956:1957   */\n      dup1\n        /* \"#utility.yul\":1949:1961   */\n      revert\n        /* \"#utility.yul\":1900:1963   */\n    tag_107:\n        /* \"#utility.yul\":1847:1969   */\n      pop\n      jump\t// out\n        /* \"#utility.yul\":1975:2114   */\n    tag_69:\n        /* \"#utility.yul\":2021:2026   */\n      0x00\n        /* \"#utility.yul\":2059:2065   */\n      dup2\n        /* \"#utility.yul\":2046:2066   */\n      calldataload\n        /* \"#utility.yul\":2037:2066   */\n      swap1\n      pop\n        /* \"#utility.yul\":2075:2108   */\n      tag_109\n        /* \"#utility.yul\":2102:2107   */\n      dup2\n        /* \"#utility.yul\":2075:2108   */\n      tag_68\n      jump\t// in\n    tag_109:\n        /* \"#utility.yul\":1975:2114   */\n      swap3\n      swap2\n      pop\n      pop\n      jump\t// out\n        /* \"#utility.yul\":2137:2847   */\n    tag_70:\n        /* \"#utility.yul\":2233:2238   */\n      0x00\n        /* \"#utility.yul\":2258:2339   */\n      tag_111\n        /* \"#utility.yul\":2274:2338   */\n      tag_112\n        /* \"#utility.yul\":2331:2337   */\n      dup5\n        /* \"#utility.yul\":2274:2338   */\n      tag_64\n      jump\t// in\n    tag_112:\n        /* \"#utility.yul\":2258:2339   */\n      tag_63\n      jump\t// in\n    tag_111:\n        /* \"#utility.yul\":2249:2339   */\n      swap1\n      pop\n        /* \"#utility.yul\":2359:2364   */\n      dup1\n        /* \"#utility.yul\":2388:2394   */\n      dup4\n        /* \"#utility.yul\":2381:2386   */\n      dup3\n        /* \"#utility.yul\":2374:2395   */\n      mstore\n        /* \"#utility.yul\":2422:2426   */\n      0x20\n        /* \"#utility.yul\":2415:2420   */\n      dup3\n        /* \"#utility.yul\":2411:2427   */\n      add\n        /* \"#utility.yul\":2404:2427   */\n      swap1\n      pop\n        /* \"#utility.yul\":2475:2479   */\n      0x20\n        /* \"#utility.yul\":2467:2473   */\n      dup5\n        /* \"#utility.yul\":2463:2480   */\n      mul\n        /* \"#utility.yul\":2455:2461   */\n      dup4\n        /* \"#utility.yul\":2451:2481   */\n      add\n        /* \"#utility.yul\":2504:2507   */\n      dup6\n        /* \"#utility.yul\":2496:2502   */\n      dup2\n        /* \"#utility.yul\":2493:2508   */\n      gt\n        /* \"#utility.yul\":2490:2612   */\n      iszero\n      tag_113\n      jumpi\n        /* \"#utility.yul\":2523:2602   */\n      tag_114\n      tag_65\n      jump\t// in\n    tag_114:\n        /* \"#utility.yul\":2490:2612   */\n    tag_113:\n        /* \"#utility.yul\":2638:2644   */\n      dup4\n        /* \"#utility.yul\":2621:2841   */\n    tag_115:\n        /* \"#utility.yul\":2655:2661   */\n      dup2\n        /* \"#utility.yul\":2650:2653   */\n      dup2\n        /* \"#utility.yul\":2647:2662   */\n      lt\n        /* \"#utility.yul\":2621:2841   */\n      iszero\n      tag_117\n      jumpi\n        /* \"#utility.yul\":2730:2733   */\n      dup1\n        /* \"#utility.yul\":2759:2796   */\n      tag_118\n        /* \"#utility.yul\":2792:2795   */\n      dup9\n        /* \"#utility.yul\":2780:2790   */\n      dup3\n        /* \"#utility.yul\":2759:2796   */\n      tag_69\n      jump\t// in\n    tag_118:\n        /* \"#utility.yul\":2754:2757   */\n      dup5\n        /* \"#utility.yul\":2747:2797   */\n      mstore\n        /* \"#utility.yul\":2826:2830   */\n      0x20\n        /* \"#utility.yul\":2821:2824   */\n      dup5\n        /* \"#utility.yul\":2817:2831   */\n      add\n        /* \"#utility.yul\":2810:2831   */\n      swap4\n      pop\n        /* \"#utility.yul\":2697:2841   */\n      pop\n        /* \"#utility.yul\":2681:2685   */\n      0x20\n        /* \"#utility.yul\":2676:2679   */\n      dup2\n        /* \"#utility.yul\":2672:2686   */\n      add\n        /* \"#utility.yul\":2665:2686   */\n      swap1\n      pop\n        /* \"#utility.yul\":2621:2841   */\n      jump(tag_115)\n    tag_117:\n        /* \"#utility.yul\":2625:2646   */\n      pop\n        /* \"#utility.yul\":2239:2847   */\n      pop\n      pop\n        /* \"#utility.yul\":2137:2847   */\n      swap4\n      swap3\n      pop\n      pop\n      pop\n      jump\t// out\n        /* \"#utility.yul\":2870:3240   */\n    tag_71:\n        /* \"#utility.yul\":2941:2946   */\n      0x00\n        /* \"#utility.yul\":2990:2993   */\n      dup3\n        /* \"#utility.yul\":2983:2987   */\n      0x1f\n        /* \"#utility.yul\":2975:2981   */\n      dup4\n        /* \"#utility.yul\":2971:2988   */\n      add\n        /* \"#utility.yul\":2967:2994   */\n      slt\n        /* \"#utility.yul\":2957:3079   */\n      tag_120\n      jumpi\n        /* \"#utility.yul\":2998:3077   */\n      tag_121\n      tag_60\n      jump\t// in\n    tag_121:\n        /* \"#utility.yul\":2957:3079   */\n    tag_120:\n        /* \"#utility.yul\":3115:3121   */\n      dup2\n        /* \"#utility.yul\":3102:3122   */\n      calldataload\n        /* \"#utility.yul\":3140:3234   */\n      tag_122\n        /* \"#utility.yul\":3230:3233   */\n      dup5\n        /* \"#utility.yul\":3222:3228   */\n      dup3\n        /* \"#utility.yul\":3215:3219   */\n      0x20\n        /* \"#utility.yul\":3207:3213   */\n      dup7\n        /* \"#utility.yul\":3203:3220   */\n      add\n        /* \"#utility.yul\":3140:3234   */\n      tag_70\n      jump\t// in\n    tag_122:\n        /* \"#utility.yul\":3131:3234   */\n      swap2\n      pop\n        /* \"#utility.yul\":2947:3240   */\n      pop\n        /* \"#utility.yul\":2870:3240   */\n      swap3\n      swap2\n      pop\n      pop\n      jump\t// out\n        /* \"#utility.yul\":3246:3930   */\n    tag_7:\n        /* \"#utility.yul\":3339:3345   */\n      0x00\n        /* \"#utility.yul\":3347:3353   */\n      dup1\n        /* \"#utility.yul\":3396:3398   */\n      0x40\n        /* \"#utility.yul\":3384:3393   */\n      dup4\n        /* \"#utility.yul\":3375:3382   */\n      dup6\n        /* \"#utility.yul\":3371:3394   */\n      sub\n        /* \"#utility.yul\":3367:3399   */\n      slt\n        /* \"#utility.yul\":3364:3483   */\n      iszero\n      tag_124\n      jumpi\n        /* \"#utility.yul\":3402:3481   */\n      tag_125\n      tag_58\n      jump\t// in\n    tag_125:\n        /* \"#utility.yul\":3364:3483   */\n    tag_124:\n        /* \"#utility.yul\":3550:3551   */\n      0x00\n        /* \"#utility.yul\":3539:3548   */\n      dup4\n        /* \"#utility.yul\":3535:3552   */\n      add\n        /* \"#utility.yul\":3522:3553   */\n      calldataload\n        /* \"#utility.yul\":3580:3598   */\n      0xffffffffffffffff\n        /* \"#utility.yul\":3572:3578   */\n      dup2\n        /* \"#utility.yul\":3569:3599   */\n      gt\n        /* \"#utility.yul\":3566:3683   */\n      iszero\n      tag_126\n      jumpi\n        /* \"#utility.yul\":3602:3681   */\n      tag_127\n      tag_59\n      jump\t// in\n    tag_127:\n        /* \"#utility.yul\":3566:3683   */\n    tag_126:\n        /* \"#utility.yul\":3707:3785   */\n      tag_128\n        /* \"#utility.yul\":3777:3784   */\n      dup6\n        /* \"#utility.yul\":3768:3774   */\n      dup3\n        /* \"#utility.yul\":3757:3766   */\n      dup7\n        /* \"#utility.yul\":3753:3775   */\n      add\n        /* \"#utility.yul\":3707:3785   */\n      tag_71\n      jump\t// in\n    tag_128:\n        /* \"#utility.yul\":3697:3785   */\n      swap3\n      pop\n        /* \"#utility.yul\":3493:3795   */\n      pop\n        /* \"#utility.yul\":3834:3836   */\n      0x20\n        /* \"#utility.yul\":3860:3913   */\n      tag_129\n        /* \"#utility.yul\":3905:3912   */\n      dup6\n        /* \"#utility.yul\":3896:3902   */\n      dup3\n        /* \"#utility.yul\":3885:3894   */\n      dup7\n        /* \"#utility.yul\":3881:3903   */\n      add\n        /* \"#utility.yul\":3860:3913   */\n      tag_69\n      jump\t// in\n    tag_129:\n        /* \"#utility.yul\":3850:3913   */\n      swap2\n      pop\n        /* \"#utility.yul\":3805:3923   */\n      pop\n        /* \"#utility.yul\":3246:3930   */\n      swap3\n      pop\n      swap3\n      swap1\n      pop\n      jump\t// out\n        /* \"#utility.yul\":3936:4013   */\n    tag_72:\n        /* \"#utility.yul\":3973:3980   */\n      0x00\n        /* \"#utility.yul\":4002:4007   */\n      dup2\n        /* \"#utility.yul\":3991:4007   */\n      swap1\n      pop\n        /* \"#utility.yul\":3936:4013   */\n      swap2\n      swap1\n      pop\n      jump\t// out\n        /* \"#utility.yul\":4019:4145   */\n    tag_73:\n        /* \"#utility.yul\":4114:4138   */\n      tag_132\n        /* \"#utility.yul\":4132:4137   */\n      dup2\n        /* \"#utility.yul\":4114:4138   */\n      tag_72\n      jump\t// in\n    tag_132:\n        /* \"#utility.yul\":4109:4112   */\n      dup3\n        /* \"#utility.yul\":4102:4139   */\n      mstore\n        /* \"#utility.yul\":4019:4145   */\n      pop\n      pop\n      jump\t// out\n        /* \"#utility.yul\":4151:4389   */\n    tag_10:\n        /* \"#utility.yul\":4252:4256   */\n      0x00\n        /* \"#utility.yul\":4290:4292   */\n      0x20\n        /* \"#utility.yul\":4279:4288   */\n      dup3\n        /* \"#utility.yul\":4275:4293   */\n      add\n        /* \"#utility.yul\":4267:4293   */\n      swap1\n      pop\n        /* \"#utility.yul\":4303:4382   */\n      tag_134\n        /* \"#utility.yul\":4379:4380   */\n      0x00\n        /* \"#utility.yul\":4368:4377   */\n      dup4\n        /* \"#utility.yul\":4364:4381   */\n      add\n        /* \"#utility.yul\":4355:4361   */\n      dup5\n        /* \"#utility.yul\":4303:4382   */\n      tag_73\n      jump\t// in\n    tag_134:\n        /* \"#utility.yul\":4151:4389   */\n      swap3\n      swap2\n      pop\n      pop\n      jump\t// out\n        /* \"#utility.yul\":4395:4517   */\n    tag_74:\n        /* \"#utility.yul\":4468:4492   */\n      tag_136\n        /* \"#utility.yul\":4486:4491   */\n      dup2\n        /* \"#utility.yul\":4468:4492   */\n      tag_72\n      jump\t// in\n    tag_136:\n        /* \"#utility.yul\":4461:4466   */\n      dup2\n        /* \"#utility.yul\":4458:4493   */\n      eq\n        /* \"#utility.yul\":4448:4511   */\n      tag_137\n      jumpi\n        /* \"#utility.yul\":4507:4508   */\n      0x00\n        /* \"#utility.yul\":4504:4505   */\n      dup1\n        /* \"#utility.yul\":4497:4509   */\n      revert\n        /* \"#utility.yul\":4448:4511   */\n    tag_137:\n        /* \"#utility.yul\":4395:4517   */\n      pop\n      jump\t// out\n        /* \"#utility.yul\":4523:4662   */\n    tag_75:\n        /* \"#utility.yul\":4569:4574   */\n      0x00\n        /* \"#utility.yul\":4607:4613   */\n      dup2\n        /* \"#utility.yul\":4594:4614   */\n      calldataload\n        /* \"#utility.yul\":4585:4614   */\n      swap1\n      pop\n        /* \"#utility.yul\":4623:4656   */\n      tag_139\n        /* \"#utility.yul\":4650:4655   */\n      dup2\n        /* \"#utility.yul\":4623:4656   */\n      tag_74\n      jump\t// in\n    tag_139:\n        /* \"#utility.yul\":4523:4662   */\n      swap3\n      swap2\n      pop\n      pop\n      jump\t// out\n        /* \"#utility.yul\":4668:5352   */\n    tag_13:\n        /* \"#utility.yul\":4761:4767   */\n      0x00\n        /* \"#utility.yul\":4769:4775   */\n      dup1\n        /* \"#utility.yul\":4818:4820   */\n      0x40\n        /* \"#utility.yul\":4806:4815   */\n      dup4\n        /* \"#utility.yul\":4797:4804   */\n      dup6\n        /* \"#utility.yul\":4793:4816   */\n      sub\n        /* \"#utility.yul\":4789:4821   */\n      slt\n        /* \"#utility.yul\":4786:4905   */\n      iszero\n      tag_141\n      jumpi\n        /* \"#utility.yul\":4824:4903   */\n      tag_142\n      tag_58\n      jump\t// in\n    tag_142:\n        /* \"#utility.yul\":4786:4905   */\n    tag_141:\n        /* \"#utility.yul\":4972:4973   */\n      0x00\n        /* \"#utility.yul\":4961:4970   */\n      dup4\n        /* \"#utility.yul\":4957:4974   */\n      add\n        /* \"#utility.yul\":4944:4975   */\n      calldataload\n        /* \"#utility.yul\":5002:5020   */\n      0xffffffffffffffff\n        /* \"#utility.yul\":4994:5000   */\n      dup2\n        /* \"#utility.yul\":4991:5021   */\n      gt\n        /* \"#utility.yul\":4988:5105   */\n      iszero\n      tag_143\n      jumpi\n        /* \"#utility.yul\":5024:5103   */\n      tag_144\n      tag_59\n      jump\t// in\n    tag_144:\n        /* \"#utility.yul\":4988:5105   */\n    tag_143:\n        /* \"#utility.yul\":5129:5207   */\n      tag_145\n        /* \"#utility.yul\":5199:5206   */\n      dup6\n        /* \"#utility.yul\":5190:5196   */\n      dup3\n        /* \"#utility.yul\":5179:5188   */\n      dup7\n        /* \"#utility.yul\":5175:5197   */\n      add\n        /* \"#utility.yul\":5129:5207   */\n      tag_71\n      jump\t// in\n    tag_145:\n        /* \"#utility.yul\":5119:5207   */\n      swap3\n      pop\n        /* \"#utility.yul\":4915:5217   */\n      pop\n        /* \"#utility.yul\":5256:5258   */\n      0x20\n        /* \"#utility.yul\":5282:5335   */\n      tag_146\n        /* \"#utility.yul\":5327:5334   */\n      dup6\n        /* \"#utility.yul\":5318:5324   */\n      dup3\n        /* \"#utility.yul\":5307:5316   */\n      dup7\n        /* \"#utility.yul\":5303:5325   */\n      add\n        /* \"#utility.yul\":5282:5335   */\n      tag_75\n      jump\t// in\n    tag_146:\n        /* \"#utility.yul\":5272:5335   */\n      swap2\n      pop\n        /* \"#utility.yul\":5227:5345   */\n      pop\n        /* \"#utility.yul\":4668:5352   */\n      swap3\n      pop\n      swap3\n      swap1\n      pop\n      jump\t// out\n        /* \"#utility.yul\":5358:5472   */\n    tag_76:\n        /* \"#utility.yul\":5425:5431   */\n      0x00\n        /* \"#utility.yul\":5459:5464   */\n      dup2\n        /* \"#utility.yul\":5453:5465   */\n      mload\n        /* \"#utility.yul\":5443:5465   */\n      swap1\n      pop\n        /* \"#utility.yul\":5358:5472   */\n      swap2\n      swap1\n      pop\n      jump\t// out\n        /* \"#utility.yul\":5478:5670   */\n    tag_77:\n        /* \"#utility.yul\":5585:5596   */\n      0x00\n        /* \"#utility.yul\":5619:5625   */\n      dup3\n        /* \"#utility.yul\":5614:5617   */\n      dup3\n        /* \"#utility.yul\":5607:5626   */\n      mstore\n        /* \"#utility.yul\":5659:5663   */\n      0x20\n        /* \"#utility.yul\":5654:5657   */\n      dup3\n        /* \"#utility.yul\":5650:5664   */\n      add\n        /* \"#utility.yul\":5635:5664   */\n      swap1\n      pop\n        /* \"#utility.yul\":5478:5670   */\n      swap3\n      swap2\n      pop\n      pop\n      jump\t// out\n        /* \"#utility.yul\":5676:5808   */\n    tag_78:\n        /* \"#utility.yul\":5743:5747   */\n      0x00\n        /* \"#utility.yul\":5766:5769   */\n      dup2\n        /* \"#utility.yul\":5758:5769   */\n      swap1\n      pop\n        /* \"#utility.yul\":5796:5800   */\n      0x20\n        /* \"#utility.yul\":5791:5794   */\n      dup3\n        /* \"#utility.yul\":5787:5801   */\n      add\n        /* \"#utility.yul\":5779:5801   */\n      swap1\n      pop\n        /* \"#utility.yul\":5676:5808   */\n      swap2\n      swap1\n      pop\n      jump\t// out\n        /* \"#utility.yul\":5814:5930   */\n    tag_79:\n        /* \"#utility.yul\":5899:5923   */\n      tag_151\n        /* \"#utility.yul\":5917:5922   */\n      dup2\n        /* \"#utility.yul\":5899:5923   */\n      tag_67\n      jump\t// in\n    tag_151:\n        /* \"#utility.yul\":5894:5897   */\n      dup3\n        /* \"#utility.yul\":5887:5924   */\n      mstore\n        /* \"#utility.yul\":5814:5930   */\n      pop\n      pop\n      jump\t// out\n        /* \"#utility.yul\":5936:6131   */\n    tag_80:\n        /* \"#utility.yul\":6013:6023   */\n      0x00\n        /* \"#utility.yul\":6034:6088   */\n      tag_153\n        /* \"#utility.yul\":6084:6087   */\n      dup4\n        /* \"#utility.yul\":6076:6082   */\n      dup4\n        /* \"#utility.yul\":6034:6088   */\n      tag_79\n      jump\t// in\n    tag_153:\n        /* \"#utility.yul\":6120:6124   */\n      0x20\n        /* \"#utility.yul\":6115:6118   */\n      dup4\n        /* \"#utility.yul\":6111:6125   */\n      add\n        /* \"#utility.yul\":6097:6125   */\n      swap1\n      pop\n        /* \"#utility.yul\":5936:6131   */\n      swap3\n      swap2\n      pop\n      pop\n      jump\t// out\n        /* \"#utility.yul\":6137:6250   */\n    tag_81:\n        /* \"#utility.yul\":6207:6211   */\n      0x00\n        /* \"#utility.yul\":6239:6243   */\n      0x20\n        /* \"#utility.yul\":6234:6237   */\n      dup3\n        /* \"#utility.yul\":6230:6244   */\n      add\n        /* \"#utility.yul\":6222:6244   */\n      swap1\n      pop\n        /* \"#utility.yul\":6137:6250   */\n      swap2\n      swap1\n      pop\n      jump\t// out\n        /* \"#utility.yul\":6286:7042   */\n    tag_82:\n        /* \"#utility.yul\":6413:6416   */\n      0x00\n        /* \"#utility.yul\":6442:6496   */\n      tag_156\n        /* \"#utility.yul\":6490:6495   */\n      dup3\n        /* \"#utility.yul\":6442:6496   */\n      tag_76\n      jump\t// in\n    tag_156:\n        /* \"#utility.yul\":6512:6606   */\n      tag_157\n        /* \"#utility.yul\":6599:6605   */\n      dup2\n        /* \"#utility.yul\":6594:6597   */\n      dup6\n        /* \"#utility.yul\":6512:6606   */\n      tag_77\n      jump\t// in\n    tag_157:\n        /* \"#utility.yul\":6505:6606   */\n      swap4\n      pop\n        /* \"#utility.yul\":6630:6686   */\n      tag_158\n        /* \"#utility.yul\":6680:6685   */\n      dup4\n        /* \"#utility.yul\":6630:6686   */\n      tag_78\n      jump\t// in\n    tag_158:\n        /* \"#utility.yul\":6709:6716   */\n      dup1\n        /* \"#utility.yul\":6740:6741   */\n      0x00\n        /* \"#utility.yul\":6725:7017   */\n    tag_159:\n        /* \"#utility.yul\":6750:6756   */\n      dup4\n        /* \"#utility.yul\":6747:6748   */\n      dup2\n        /* \"#utility.yul\":6744:6757   */\n      lt\n        /* \"#utility.yul\":6725:7017   */\n      iszero\n      tag_161\n      jumpi\n        /* \"#utility.yul\":6826:6832   */\n      dup2\n        /* \"#utility.yul\":6820:6833   */\n      mload\n        /* \"#utility.yul\":6853:6924   */\n      tag_162\n        /* \"#utility.yul\":6920:6923   */\n      dup9\n        /* \"#utility.yul\":6905:6918   */\n      dup3\n        /* \"#utility.yul\":6853:6924   */\n      tag_80\n      jump\t// in\n    tag_162:\n        /* \"#utility.yul\":6846:6924   */\n      swap8\n      pop\n        /* \"#utility.yul\":6947:7007   */\n      tag_163\n        /* \"#utility.yul\":7000:7006   */\n      dup4\n        /* \"#utility.yul\":6947:7007   */\n      tag_81\n      jump\t// in\n    tag_163:\n        /* \"#utility.yul\":6937:7007   */\n      swap3\n      pop\n        /* \"#utility.yul\":6785:7017   */\n      pop\n        /* \"#utility.yul\":6772:6773   */\n      0x01\n        /* \"#utility.yul\":6769:6770   */\n      dup2\n        /* \"#utility.yul\":6765:6774   */\n      add\n        /* \"#utility.yul\":6760:6774   */\n      swap1\n      pop\n        /* \"#utility.yul\":6725:7017   */\n      jump(tag_159)\n    tag_161:\n        /* \"#utility.yul\":6729:6743   */\n      pop\n        /* \"#utility.yul\":7033:7036   */\n      dup6\n        /* \"#utility.yul\":7026:7036   */\n      swap4\n      pop\n        /* \"#utility.yul\":6418:7042   */\n      pop\n      pop\n      pop\n        /* \"#utility.yul\":6286:7042   */\n      swap3\n      swap2\n      pop\n      pop\n      jump\t// out\n        /* \"#utility.yul\":7048:7437   */\n    tag_16:\n        /* \"#utility.yul\":7199:7203   */\n      0x00\n        /* \"#utility.yul\":7237:7239   */\n      0x20\n        /* \"#utility.yul\":7226:7235   */\n      dup3\n        /* \"#utility.yul\":7222:7240   */\n      add\n        /* \"#utility.yul\":7214:7240   */\n      swap1\n      pop\n        /* \"#utility.yul\":7286:7295   */\n      dup2\n        /* \"#utility.yul\":7280:7284   */\n      dup2\n        /* \"#utility.yul\":7276:7296   */\n      sub\n        /* \"#utility.yul\":7272:7273   */\n      0x00\n        /* \"#utility.yul\":7261:7270   */\n      dup4\n        /* \"#utility.yul\":7257:7274   */\n      add\n        /* \"#utility.yul\":7250:7297   */\n      mstore\n        /* \"#utility.yul\":7314:7430   */\n      tag_165\n        /* \"#utility.yul\":7425:7429   */\n      dup2\n        /* \"#utility.yul\":7416:7422   */\n      dup5\n        /* \"#utility.yul\":7314:7430   */\n      tag_82\n      jump\t// in\n    tag_165:\n        /* \"#utility.yul\":7306:7430   */\n      swap1\n      pop\n        /* \"#utility.yul\":7048:7437   */\n      swap3\n      swap2\n      pop\n      pop\n      jump\t// out\n        /* \"#utility.yul\":7443:7982   */\n    tag_19:\n        /* \"#utility.yul\":7527:7533   */\n      0x00\n        /* \"#utility.yul\":7576:7578   */\n      0x20\n        /* \"#utility.yul\":7564:7573   */\n      dup3\n        /* \"#utility.yul\":7555:7562   */\n      dup5\n        /* \"#utility.yul\":7551:7574   */\n      sub\n        /* \"#utility.yul\":7547:7579   */\n      slt\n        /* \"#utility.yul\":7544:7663   */\n      iszero\n      tag_167\n      jumpi\n        /* \"#utility.yul\":7582:7661   */\n      tag_168\n      tag_58\n      jump\t// in\n    tag_168:\n        /* \"#utility.yul\":7544:7663   */\n    tag_167:\n        /* \"#utility.yul\":7730:7731   */\n      0x00\n        /* \"#utility.yul\":7719:7728   */\n      dup3\n        /* \"#utility.yul\":7715:7732   */\n      add\n        /* \"#utility.yul\":7702:7733   */\n      calldataload\n        /* \"#utility.yul\":7760:7778   */\n      0xffffffffffffffff\n        /* \"#utility.yul\":7752:7758   */\n      dup2\n        /* \"#utility.yul\":7749:7779   */\n      gt\n        /* \"#utility.yul\":7746:7863   */\n      iszero\n      tag_169\n      jumpi\n        /* \"#utility.yul\":7782:7861   */\n      tag_170\n      tag_59\n      jump\t// in\n    tag_170:\n        /* \"#utility.yul\":7746:7863   */\n    tag_169:\n        /* \"#utility.yul\":7887:7965   */\n      tag_171\n        /* \"#utility.yul\":7957:7964   */\n      dup5\n        /* \"#utility.yul\":7948:7954   */\n      dup3\n        /* \"#utility.yul\":7937:7946   */\n      dup6\n        /* \"#utility.yul\":7933:7955   */\n      add\n        /* \"#utility.yul\":7887:7965   */\n      tag_71\n      jump\t// in\n    tag_171:\n        /* \"#utility.yul\":7877:7965   */\n      swap2\n      pop\n        /* \"#utility.yul\":7673:7975   */\n      pop\n        /* \"#utility.yul\":7443:7982   */\n      swap3\n      swap2\n      pop\n      pop\n      jump\t// out\n        /* \"#utility.yul\":7988:8168   */\n    tag_28:\n        /* \"#utility.yul\":8036:8113   */\n      0x4e487b7100000000000000000000000000000000000000000000000000000000\n        /* \"#utility.yul\":8033:8034   */\n      0x00\n        /* \"#utility.yul\":8026:8114   */\n      mstore\n        /* \"#utility.yul\":8133:8137   */\n      0x32\n        /* \"#utility.yul\":8130:8131   */\n      0x04\n        /* \"#utility.yul\":8123:8138   */\n      mstore\n        /* \"#utility.yul\":8157:8161   */\n      0x24\n        /* \"#utility.yul\":8154:8155   */\n      0x00\n        /* \"#utility.yul\":8147:8162   */\n      revert\n        /* \"#utility.yul\":8174:8354   */\n    tag_83:\n        /* \"#utility.yul\":8222:8299   */\n      0x4e487b7100000000000000000000000000000000000000000000000000000000\n        /* \"#utility.yul\":8219:8220   */\n      0x00\n        /* \"#utility.yul\":8212:8300   */\n      mstore\n        /* \"#utility.yul\":8319:8323   */\n      0x11\n        /* \"#utility.yul\":8316:8317   */\n      0x04\n        /* \"#utility.yul\":8309:8324   */\n      mstore\n        /* \"#utility.yul\":8343:8347   */\n      0x24\n        /* \"#utility.yul\":8340:8341   */\n      0x00\n        /* \"#utility.yul\":8333:8348   */\n      revert\n        /* \"#utility.yul\":8360:8554   */\n    tag_35:\n        /* \"#utility.yul\":8400:8404   */\n      0x00\n        /* \"#utility.yul\":8420:8440   */\n      tag_175\n        /* \"#utility.yul\":8438:8439   */\n      dup3\n        /* \"#utility.yul\":8420:8440   */\n      tag_72\n      jump\t// in\n    tag_175:\n        /* \"#utility.yul\":8415:8440   */\n      swap2\n      pop\n        /* \"#utility.yul\":8454:8474   */\n      tag_176\n        /* \"#utility.yul\":8472:8473   */\n      dup4\n        /* \"#utility.yul\":8454:8474   */\n      tag_72\n      jump\t// in\n    tag_176:\n        /* \"#utility.yul\":8449:8474   */\n      swap3\n      pop\n        /* \"#utility.yul\":8498:8499   */\n      dup3\n        /* \"#utility.yul\":8495:8496   */\n      dup3\n        /* \"#utility.yul\":8491:8500   */\n      sub\n        /* \"#utility.yul\":8483:8500   */\n      swap1\n      pop\n        /* \"#utility.yul\":8522:8523   */\n      dup2\n        /* \"#utility.yul\":8516:8520   */\n      dup2\n        /* \"#utility.yul\":8513:8524   */\n      gt\n        /* \"#utility.yul\":8510:8547   */\n      iszero\n      tag_177\n      jumpi\n        /* \"#utility.yul\":8527:8545   */\n      tag_178\n      tag_83\n      jump\t// in\n    tag_178:\n        /* \"#utility.yul\":8510:8547   */\n    tag_177:\n        /* \"#utility.yul\":8360:8554   */\n      swap3\n      swap2\n      pop\n      pop\n      jump\t// out\n        /* \"#utility.yul\":8560:8751   */\n    tag_37:\n        /* \"#utility.yul\":8600:8603   */\n      0x00\n        /* \"#utility.yul\":8619:8639   */\n      tag_180\n        /* \"#utility.yul\":8637:8638   */\n      dup3\n        /* \"#utility.yul\":8619:8639   */\n      tag_72\n      jump\t// in\n    tag_180:\n        /* \"#utility.yul\":8614:8639   */\n      swap2\n      pop\n        /* \"#utility.yul\":8653:8673   */\n      tag_181\n        /* \"#utility.yul\":8671:8672   */\n      dup4\n        /* \"#utility.yul\":8653:8673   */\n      tag_72\n      jump\t// in\n    tag_181:\n        /* \"#utility.yul\":8648:8673   */\n      swap3\n      pop\n        /* \"#utility.yul\":8696:8697   */\n      dup3\n        /* \"#utility.yul\":8693:8694   */\n      dup3\n        /* \"#utility.yul\":8689:8698   */\n      add\n        /* \"#utility.yul\":8682:8698   */\n      swap1\n      pop\n        /* \"#utility.yul\":8717:8720   */\n      dup1\n        /* \"#utility.yul\":8714:8715   */\n      dup3\n        /* \"#utility.yul\":8711:8721   */\n      gt\n        /* \"#utility.yul\":8708:8744   */\n      iszero\n      tag_182\n      jumpi\n        /* \"#utility.yul\":8724:8742   */\n      tag_183\n      tag_83\n      jump\t// in\n    tag_183:\n        /* \"#utility.yul\":8708:8744   */\n    tag_182:\n        /* \"#utility.yul\":8560:8751   */\n      swap3\n      swap2\n      pop\n      pop\n      jump\t// out\n\n    auxdata: 0xa26469706673582212204b15a2068dd82b5c8c395466465023f7773b5db5be8ff1826fdb6a6bc3b3424064736f6c63430008190033\n}\n",
				"bytecode": {
					"linkReferences": {},
					"object": "6107d961004d600b8282823980515f1a6073146041577f4e487b71000000000000000000000000000000000000000000000000000000005f525f60045260245ffd5b305f52607381538281f3fe730000000000000000000000000000000000000000301460806040526004361061004a575f3560e01c80631c07c87f1461004e5780635a8d46251461007e578063f3516c62146100ae575b5f80fd5b610068600480360381019061006391906104b6565b6100de565b6040516100759190610528565b60405180910390f35b6100986004803603810190610093919061056b565b61015b565b6040516100a5919061067c565b60405180910390f35b6100c860048036038101906100c3919061069c565b61020a565b6040516100d5919061067c565b60405180910390f35b5f805f90505b8351811015610150578273ffffffffffffffffffffffffffffffffffffffff16848281518110610117576101166106e3565b5b602002602001015173ffffffffffffffffffffffffffffffffffffffff16036101435780915050610155565b80806001019150506100e4565b505f90505b92915050565b60605f8290505b60018451610170919061073d565b8110156101f857836001826101859190610770565b81518110610196576101956106e3565b5b60200260200101518482815181106101b1576101b06106e3565b5b602002602001019073ffffffffffffffffffffffffffffffffffffffff16908173ffffffffffffffffffffffffffffffffffffffff16815250508080600101915050610162565b506102028361020a565b905092915050565b60605f6001835161021b919061073d565b67ffffffffffffffff81111561023457610233610320565b5b6040519080825280602002602001820160405280156102625781602001602082028036833780820191505090505b5090505f5b60018451610275919061073d565b8110156102f15783818151811061028f5761028e6106e3565b5b60200260200101518282815181106102aa576102a96106e3565b5b602002602001019073ffffffffffffffffffffffffffffffffffffffff16908173ffffffffffffffffffffffffffffffffffffffff16815250508080600101915050610267565b5080915050919050565b5f604051905090565b5f80fd5b5f80fd5b5f80fd5b5f601f19601f8301169050919050565b7f4e487b71000000000000000000000000000000000000000000000000000000005f52604160045260245ffd5b61035682610310565b810181811067ffffffffffffffff8211171561037557610374610320565b5b80604052505050565b5f6103876102fb565b9050610393828261034d565b919050565b5f67ffffffffffffffff8211156103b2576103b1610320565b5b602082029050602081019050919050565b5f80fd5b5f73ffffffffffffffffffffffffffffffffffffffff82169050919050565b5f6103f0826103c7565b9050919050565b610400816103e6565b811461040a575f80fd5b50565b5f8135905061041b816103f7565b92915050565b5f61043361042e84610398565b61037e565b90508083825260208201905060208402830185811115610456576104556103c3565b5b835b8181101561047f578061046b888261040d565b845260208401935050602081019050610458565b5050509392505050565b5f82601f83011261049d5761049c61030c565b5b81356104ad848260208601610421565b91505092915050565b5f80604083850312156104cc576104cb610304565b5b5f83013567ffffffffffffffff8111156104e9576104e8610308565b5b6104f585828601610489565b92505060206105068582860161040d565b9150509250929050565b5f819050919050565b61052281610510565b82525050565b5f60208201905061053b5f830184610519565b92915050565b61054a81610510565b8114610554575f80fd5b50565b5f8135905061056581610541565b92915050565b5f806040838503121561058157610580610304565b5b5f83013567ffffffffffffffff81111561059e5761059d610308565b5b6105aa85828601610489565b92505060206105bb85828601610557565b9150509250929050565b5f81519050919050565b5f82825260208201905092915050565b5f819050602082019050919050565b6105f7816103e6565b82525050565b5f61060883836105ee565b60208301905092915050565b5f602082019050919050565b5f61062a826105c5565b61063481856105cf565b935061063f836105df565b805f5b8381101561066f57815161065688826105fd565b975061066183610614565b925050600181019050610642565b5085935050505092915050565b5f6020820190508181035f8301526106948184610620565b905092915050565b5f602082840312156106b1576106b0610304565b5b5f82013567ffffffffffffffff8111156106ce576106cd610308565b5b6106da84828501610489565b91505092915050565b7f4e487b71000000000000000000000000000000000000000000000000000000005f52603260045260245ffd5b7f4e487b71000000000000000000000000000000000000000000000000000000005f52601160045260245ffd5b5f61074782610510565b915061075283610510565b925082820390508181111561076a57610769610710565b5b92915050565b5f61077a82610510565b915061078583610510565b925082820190508082111561079d5761079c610710565b5b9291505056fea26469706673582212204b15a2068dd82b5c8c395466465023f7773b5db5be8ff1826fdb6a6bc3b3424064736f6c63430008190033",
					"opcodes": "PUSH2 0x7D9 PUSH2 0x4D PUSH1 0xB DUP3 DUP3 DUP3 CODECOPY DUP1 MLOAD PUSH0 BYTE PUSH1 0x73 EQ PUSH1 0x41 JUMPI PUSH32 0x4E487B7100000000000000000000000000000000000000000000000000000000 PUSH0 MSTORE PUSH0 PUSH1 0x4 MSTORE PUSH1 0x24 PUSH0 REVERT JUMPDEST ADDRESS PUSH0 MSTORE PUSH1 0x73 DUP2 MSTORE8 DUP3 DUP2 RETURN INVALID PUSH20 0x0 ADDRESS EQ PUSH1 0x80 PUSH1 0x40 MSTORE PUSH1 0x4 CALLDATASIZE LT PUSH2 0x4A JUMPI PUSH0 CALLDATALOAD PUSH1 0xE0 SHR DUP1 PUSH4 0x1C07C87F EQ PUSH2 0x4E JUMPI DUP1 PUSH4 0x5A8D4625 EQ PUSH2 0x7E JUMPI DUP1 PUSH4 0xF3516C62 EQ PUSH2 0xAE JUMPI JUMPDEST PUSH0 DUP1 REVERT JUMPDEST PUSH2 0x68 PUSH1 0x4 DUP1 CALLDATASIZE SUB DUP2 ADD SWAP1 PUSH2 0x63 SWAP2 SWAP1 PUSH2 0x4B6 JUMP JUMPDEST PUSH2 0xDE JUMP JUMPDEST PUSH1 0x40 MLOAD PUSH2 0x75 SWAP2 SWAP1 PUSH2 0x528 JUMP JUMPDEST PUSH1 0x40 MLOAD DUP1 SWAP2 SUB SWAP1 RETURN JUMPDEST PUSH2 0x98 PUSH1 0x4 DUP1 CALLDATASIZE SUB DUP2 ADD SWAP1 PUSH2 0x93 SWAP2 SWAP1 PUSH2 0x56B JUMP JUMPDEST PUSH2 0x15B JUMP JUMPDEST PUSH1 0x40 MLOAD PUSH2 0xA5 SWAP2 SWAP1 PUSH2 0x67C JUMP JUMPDEST PUSH1 0x40 MLOAD DUP1 SWAP2 SUB SWAP1 RETURN JUMPDEST PUSH2 0xC8 PUSH1 0x4 DUP1 CALLDATASIZE SUB DUP2 ADD SWAP1 PUSH2 0xC3 SWAP2 SWAP1 PUSH2 0x69C JUMP JUMPDEST PUSH2 0x20A JUMP JUMPDEST PUSH1 0x40 MLOAD PUSH2 0xD5 SWAP2 SWAP1 PUSH2 0x67C JUMP JUMPDEST PUSH1 0x40 MLOAD DUP1 SWAP2 SUB SWAP1 RETURN JUMPDEST PUSH0 DUP1 PUSH0 SWAP1 POP JUMPDEST DUP4 MLOAD DUP2 LT ISZERO PUSH2 0x150 JUMPI DUP3 PUSH20 0xFFFFFFFFFFFFFFFFFFFFFFFFFFFFFFFFFFFFFFFF AND DUP5 DUP3 DUP2 MLOAD DUP2 LT PUSH2 0x117 JUMPI PUSH2 0x116 PUSH2 0x6E3 JUMP JUMPDEST JUMPDEST PUSH1 0x20 MUL PUSH1 0x20 ADD ADD MLOAD PUSH20 0xFFFFFFFFFFFFFFFFFFFFFFFFFFFFFFFFFFFFFFFF AND SUB PUSH2 0x143 JUMPI DUP1 SWAP2 POP POP PUSH2 0x155 JUMP JUMPDEST DUP1 DUP1 PUSH1 0x1 ADD SWAP2 POP POP PUSH2 0xE4 JUMP JUMPDEST POP PUSH0 SWAP1 POP JUMPDEST SWAP3 SWAP2 POP POP JUMP JUMPDEST PUSH1 0x60 PUSH0 DUP3 SWAP1 POP JUMPDEST PUSH1 0x1 DUP5 MLOAD PUSH2 0x170 SWAP2 SWAP1 PUSH2 0x73D JUMP JUMPDEST DUP2 LT ISZERO PUSH2 0x1F8 JUMPI DUP4 PUSH1 0x1 DUP3 PUSH2 0x185 SWAP2 SWAP1 PUSH2 0x770 JUMP JUMPDEST DUP2 MLOAD DUP2 LT PUSH2 0x196 JUMPI PUSH2 0x195 PUSH2 0x6E3 JUMP JUMPDEST JUMPDEST PUSH1 0x20 MUL PUSH1 0x20 ADD ADD MLOAD DUP5 DUP3 DUP2 MLOAD DUP2 LT PUSH2 0x1B1 JUMPI PUSH2 0x1B0 PUSH2 0x6E3 JUMP JUMPDEST JUMPDEST PUSH1 0x20 MUL PUSH1 0x20 ADD ADD SWAP1 PUSH20 0xFFFFFFFFFFFFFFFFFFFFFFFFFFFFFFFFFFFFFFFF AND SWAP1 DUP2 PUSH20 0xFFFFFFFFFFFFFFFFFFFFFFFFFFFFFFFFFFFFFFFF AND DUP2 MSTORE POP POP DUP1 DUP1 PUSH1 0x1 ADD SWAP2 POP POP PUSH2 0x162 JUMP JUMPDEST POP PUSH2 0x202 DUP4 PUSH2 0x20A JUMP JUMPDEST SWAP1 POP SWAP3 SWAP2 POP POP JUMP JUMPDEST PUSH1 0x60 PUSH0 PUSH1 0x1 DUP4 MLOAD PUSH2 0x21B SWAP2 SWAP1 PUSH2 0x73D JUMP JUMPDEST PUSH8 0xFFFFFFFFFFFFFFFF DUP2 GT ISZERO PUSH2 0x234 JUMPI PUSH2 0x233 PUSH2 0x320 JUMP JUMPDEST JUMPDEST PUSH1 0x40 MLOAD SWAP1 DUP1 DUP3 MSTORE DUP1 PUSH1 0x20 MUL PUSH1 0x20 ADD DUP3 ADD PUSH1 0x40 MSTORE DUP1 ISZERO PUSH2 0x262 JUMPI DUP2 PUSH1 0x20 ADD PUSH1 0x20 DUP3 MUL DUP1 CALLDATASIZE DUP4 CALLDATACOPY DUP1 DUP3 ADD SWAP2 POP POP SWAP1 POP JUMPDEST POP SWAP1 POP PUSH0 JUMPDEST PUSH1 0x1 DUP5 MLOAD PUSH2 0x275 SWAP2 SWAP1 PUSH2 0x73D JUMP JUMPDEST DUP2 LT ISZERO PUSH2 0x2F1 JUMPI DUP4 DUP2 DUP2 MLOAD DUP2 LT PUSH2 0x28F JUMPI PUSH2 0x28E PUSH2 0x6E3 JUMP JUMPDEST JUMPDEST PUSH1 0x20 MUL PUSH1 0x20 ADD ADD MLOAD DUP3 DUP3 DUP2 MLOAD DUP2 LT PUSH2 0x2AA JUMPI PUSH2 0x2A9 PUSH2 0x6E3 JUMP JUMPDEST JUMPDEST PUSH1 0x20 MUL PUSH1 0x20 ADD ADD SWAP1 PUSH20 0xFFFFFFFFFFFFFFFFFFFFFFFFFFFFFFFFFFFFFFFF AND SWAP1 DUP2 PUSH20 0xFFFFFFFFFFFFFFFFFFFFFFFFFFFFFFFFFFFFFFFF AND DUP2 MSTORE POP POP DUP1 DUP1 PUSH1 0x1 ADD SWAP2 POP POP PUSH2 0x267 JUMP JUMPDEST POP DUP1 SWAP2 POP POP SWAP2 SWAP1 POP JUMP JUMPDEST PUSH0 PUSH1 0x40 MLOAD SWAP1 POP SWAP1 JUMP JUMPDEST PUSH0 DUP1 REVERT JUMPDEST PUSH0 DUP1 REVERT JUMPDEST PUSH0 DUP1 REVERT JUMPDEST PUSH0 PUSH1 0x1F NOT PUSH1 0x1F DUP4 ADD AND SWAP1 POP SWAP2 SWAP1 POP JUMP JUMPDEST PUSH32 0x4E487B7100000000000000000000000000000000000000000000000000000000 PUSH0 MSTORE PUSH1 0x41 PUSH1 0x4 MSTORE PUSH1 0x24 PUSH0 REVERT JUMPDEST PUSH2 0x356 DUP3 PUSH2 0x310 JUMP JUMPDEST DUP2 ADD DUP2 DUP2 LT PUSH8 0xFFFFFFFFFFFFFFFF DUP3 GT OR ISZERO PUSH2 0x375 JUMPI PUSH2 0x374 PUSH2 0x320 JUMP JUMPDEST JUMPDEST DUP1 PUSH1 0x40 MSTORE POP POP POP JUMP JUMPDEST PUSH0 PUSH2 0x387 PUSH2 0x2FB JUMP JUMPDEST SWAP1 POP PUSH2 0x393 DUP3 DUP3 PUSH2 0x34D JUMP JUMPDEST SWAP2 SWAP1 POP JUMP JUMPDEST PUSH0 PUSH8 0xFFFFFFFFFFFFFFFF DUP3 GT ISZERO PUSH2 0x3B2 JUMPI PUSH2 0x3B1 PUSH2 0x320 JUMP JUMPDEST JUMPDEST PUSH1 0x20 DUP3 MUL SWAP1 POP PUSH1 0x20 DUP2 ADD SWAP1 POP SWAP2 SWAP1 POP JUMP JUMPDEST PUSH0 DUP1 REVERT JUMPDEST PUSH0 PUSH20 0xFFFFFFFFFFFFFFFFFFFFFFFFFFFFFFFFFFFFFFFF DUP3 AND SWAP1 POP SWAP2 SWAP1 POP JUMP JUMPDEST PUSH0 PUSH2 0x3F0 DUP3 PUSH2 0x3C7 JUMP JUMPDEST SWAP1 POP SWAP2 SWAP1 POP JUMP JUMPDEST PUSH2 0x400 DUP2 PUSH2 0x3E6 JUMP JUMPDEST DUP2 EQ PUSH2 0x40A JUMPI PUSH0 DUP1 REVERT JUMPDEST POP JUMP JUMPDEST PUSH0 DUP2 CALLDATALOAD SWAP1 POP PUSH2 0x41B DUP2 PUSH2 0x3F7 JUMP JUMPDEST SWAP3 SWAP2 POP POP JUMP JUMPDEST PUSH0 PUSH2 0x433 PUSH2 0x42E DUP5 PUSH2 0x398 JUMP JUMPDEST PUSH2 0x37E JUMP JUMPDEST SWAP1 POP DUP1 DUP4 DUP3 MSTORE PUSH1 0x20 DUP3 ADD SWAP1 POP PUSH1 0x20 DUP5 MUL DUP4 ADD DUP6 DUP2 GT ISZERO PUSH2 0x456 JUMPI PUSH2 0x455 PUSH2 0x3C3 JUMP JUMPDEST JUMPDEST DUP4 JUMPDEST DUP2 DUP2 LT ISZERO PUSH2 0x47F JUMPI DUP1 PUSH2 0x46B DUP9 DUP3 PUSH2 0x40D JUMP JUMPDEST DUP5 MSTORE PUSH1 0x20 DUP5 ADD SWAP4 POP POP PUSH1 0x20 DUP2 ADD SWAP1 POP PUSH2 0x458 JUMP JUMPDEST POP POP POP SWAP4 SWAP3 POP POP POP JUMP JUMPDEST PUSH0 DUP3 PUSH1 0x1F DUP4 ADD SLT PUSH2 0x49D JUMPI PUSH2 0x49C PUSH2 0x30C JUMP JUMPDEST JUMPDEST DUP2 CALLDATALOAD PUSH2 0x4AD DUP5 DUP3 PUSH1 0x20 DUP7 ADD PUSH2 0x421 JUMP JUMPDEST SWAP2 POP POP SWAP3 SWAP2 POP POP JUMP JUMPDEST PUSH0 DUP1 PUSH1 0x40 DUP4 DUP6 SUB SLT ISZERO PUSH2 0x4CC JUMPI PUSH2 0x4CB PUSH2 0x304 JUMP JUMPDEST JUMPDEST PUSH0 DUP4 ADD CALLDATALOAD PUSH8 0xFFFFFFFFFFFFFFFF DUP2 GT ISZERO PUSH2 0x4E9 JUMPI PUSH2 0x4E8 PUSH2 0x308 JUMP JUMPDEST JUMPDEST PUSH2 0x4F5 DUP6 DUP3 DUP7 ADD PUSH2 0x489 JUMP JUMPDEST SWAP3 POP POP PUSH1 0x20 PUSH2 0x506 DUP6 DUP3 DUP7 ADD PUSH2 0x40D JUMP JUMPDEST SWAP2 POP POP SWAP3 POP SWAP3 SWAP1 POP JUMP JUMPDEST PUSH0 DUP2 SWAP1 POP SWAP2 SWAP1 POP JUMP JUMPDEST PUSH2 0x522 DUP2 PUSH2 0x510 JUMP JUMPDEST DUP3 MSTORE POP POP JUMP JUMPDEST PUSH0 PUSH1 0x20 DUP3 ADD SWAP1 POP PUSH2 0x53B PUSH0 DUP4 ADD DUP5 PUSH2 0x519 JUMP JUMPDEST SWAP3 SWAP2 POP POP JUMP JUMPDEST PUSH2 0x54A DUP2 PUSH2 0x510 JUMP JUMPDEST DUP2 EQ PUSH2 0x554 JUMPI PUSH0 DUP1 REVERT JUMPDEST POP JUMP JUMPDEST PUSH0 DUP2 CALLDATALOAD SWAP1 POP PUSH2 0x565 DUP2 PUSH2 0x541 JUMP JUMPDEST SWAP3 SWAP2 POP POP JUMP JUMPDEST PUSH0 DUP1 PUSH1 0x40 DUP4 DUP6 SUB SLT ISZERO PUSH2 0x581 JUMPI PUSH2 0x580 PUSH2 0x304 JUMP JUMPDEST JUMPDEST PUSH0 DUP4 ADD CALLDATALOAD PUSH8 0xFFFFFFFFFFFFFFFF DUP2 GT ISZERO PUSH2 0x59E JUMPI PUSH2 0x59D PUSH2 0x308 JUMP JUMPDEST JUMPDEST PUSH2 0x5AA DUP6 DUP3 DUP7 ADD PUSH2 0x489 JUMP JUMPDEST SWAP3 POP POP PUSH1 0x20 PUSH2 0x5BB DUP6 DUP3 DUP7 ADD PUSH2 0x557 JUMP JUMPDEST SWAP2 POP POP SWAP3 POP SWAP3 SWAP1 POP JUMP JUMPDEST PUSH0 DUP2 MLOAD SWAP1 POP SWAP2 SWAP1 POP JUMP JUMPDEST PUSH0 DUP3 DUP3 MSTORE PUSH1 0x20 DUP3 ADD SWAP1 POP SWAP3 SWAP2 POP POP JUMP JUMPDEST PUSH0 DUP2 SWAP1 POP PUSH1 0x20 DUP3 ADD SWAP1 POP SWAP2 SWAP1 POP JUMP JUMPDEST PUSH2 0x5F7 DUP2 PUSH2 0x3E6 JUMP JUMPDEST DUP3 MSTORE POP POP JUMP JUMPDEST PUSH0 PUSH2 0x608 DUP4 DUP4 PUSH2 0x5EE JUMP JUMPDEST PUSH1 0x20 DUP4 ADD SWAP1 POP SWAP3 SWAP2 POP POP JUMP JUMPDEST PUSH0 PUSH1 0x20 DUP3 ADD SWAP1 POP SWAP2 SWAP1 POP JUMP JUMPDEST PUSH0 PUSH2 0x62A DUP3 PUSH2 0x5C5 JUMP JUMPDEST PUSH2 0x634 DUP2 DUP6 PUSH2 0x5CF JUMP JUMPDEST SWAP4 POP PUSH2 0x63F DUP4 PUSH2 0x5DF JUMP JUMPDEST DUP1 PUSH0 JUMPDEST DUP4 DUP2 LT ISZERO PUSH2 0x66F JUMPI DUP2 MLOAD PUSH2 0x656 DUP9 DUP3 PUSH2 0x5FD JUMP JUMPDEST SWAP8 POP PUSH2 0x661 DUP4 PUSH2 0x614 JUMP JUMPDEST SWAP3 POP POP PUSH1 0x1 DUP2 ADD SWAP1 POP PUSH2 0x642 JUMP JUMPDEST POP DUP6 SWAP4 POP POP POP POP SWAP3 SWAP2 POP POP JUMP JUMPDEST PUSH0 PUSH1 0x20 DUP3 ADD SWAP1 POP DUP2 DUP2 SUB PUSH0 DUP4 ADD MSTORE PUSH2 0x694 DUP2 DUP5 PUSH2 0x620 JUMP JUMPDEST SWAP1 POP SWAP3 SWAP2 POP POP JUMP JUMPDEST PUSH0 PUSH1 0x20 DUP3 DUP5 SUB SLT ISZERO PUSH2 0x6B1 JUMPI PUSH2 0x6B0 PUSH2 0x304 JUMP JUMPDEST JUMPDEST PUSH0 DUP3 ADD CALLDATALOAD PUSH8 0xFFFFFFFFFFFFFFFF DUP2 GT ISZERO PUSH2 0x6CE JUMPI PUSH2 0x6CD PUSH2 0x308 JUMP JUMPDEST JUMPDEST PUSH2 0x6DA DUP5 DUP3 DUP6 ADD PUSH2 0x489 JUMP JUMPDEST SWAP2 POP POP SWAP3 SWAP2 POP POP JUMP JUMPDEST PUSH32 0x4E487B7100000000000000000000000000000000000000000000000000000000 PUSH0 MSTORE PUSH1 0x32 PUSH1 0x4 MSTORE PUSH1 0x24 PUSH0 REVERT JUMPDEST PUSH32 0x4E487B7100000000000000000000000000000000000000000000000000000000 PUSH0 MSTORE PUSH1 0x11 PUSH1 0x4 MSTORE PUSH1 0x24 PUSH0 REVERT JUMPDEST PUSH0 PUSH2 0x747 DUP3 PUSH2 0x510 JUMP JUMPDEST SWAP2 POP PUSH2 0x752 DUP4 PUSH2 0x510 JUMP JUMPDEST SWAP3 POP DUP3 DUP3 SUB SWAP1 POP DUP2 DUP2 GT ISZERO PUSH2 0x76A JUMPI PUSH2 0x769 PUSH2 0x710 JUMP JUMPDEST JUMPDEST SWAP3 SWAP2 POP POP JUMP JUMPDEST PUSH0 PUSH2 0x77A DUP3 PUSH2 0x510 JUMP JUMPDEST SWAP2 POP PUSH2 0x785 DUP4 PUSH2 0x510 JUMP JUMPDEST SWAP3 POP DUP3 DUP3 ADD SWAP1 POP DUP1 DUP3 GT ISZERO PUSH2 0x79D JUMPI PUSH2 0x79C PUSH2 0x710 JUMP JUMPDEST JUMPDEST SWAP3 SWAP2 POP POP JUMP INVALID LOG2 PUSH5 0x6970667358 0x22 SLT KECCAK256 0x4B ISZERO LOG2 MOD DUP14 0xD8 0x2B TLOAD DUP13 CODECOPY SLOAD PUSH7 0x465023F7773B5D 0xB5 0xBE DUP16 CALL DUP3 PUSH16 0xDB6A6BC3B3424064736F6C6343000819 STOP CALLER "
				},
				"gasEstimates": {
					"creation": {
						"codeDepositCost": "401800",
						"executionCost": "463",
						"totalCost": "402263"
					},
					"external": {
						"getIndex(address[],address)": "infinite",
						"pop(address[])": "infinite",
						"removeElement(address[],uint256)": "infinite"
					}
				},
				"methodIdentifiers": {
					"getIndex(address[],address)": "1c07c87f",
					"pop(address[])": "f3516c62",
					"removeElement(address[],uint256)": "5a8d4625"
				}
			},
			"storageLayout": {
				"storage": [],
				"types": null
			},
			"userdoc": {
				"kind": "user",
				"methods": {},
				"version": 1
			}
		}
	}
}