{
	"data": {
		"bytecode": {
			"linkReferences": {
				"contracts/contract01.sol": {
					"UtilLibrary": [
						{
							"length": 20,
							"start": 1895
						},
						{
							"length": 20,
							"start": 1921
						},
						{
							"length": 20,
							"start": 3055
						},
						{
							"length": 20,
							"start": 3083
						},
						{
							"length": 20,
							"start": 4666
						},
						{
							"length": 20,
							"start": 5682
						},
						{
							"length": 20,
							"start": 5815
						},
						{
							"length": 20,
							"start": 6394
						},
						{
							"length": 20,
							"start": 6854
						},
						{
							"length": 20,
							"start": 7039
						},
						{
							"length": 20,
							"start": 7389
						}
					]
				}
			},
			"object": "608060405234801561000f575f80fd5b50604051613a86380380613a8683398181016040528101906100319190610142565b33600e5f6101000a81548173ffffffffffffffffffffffffffffffffffffffff021916908373ffffffffffffffffffffffffffffffffffffffff16021790555042600a8190555061012c600a5461008891906101a3565b600b819055506001600d819055506001600c8190555080600f5f6101000a81548173ffffffffffffffffffffffffffffffffffffffff021916908373ffffffffffffffffffffffffffffffffffffffff160217905550506101d6565b5f80fd5b5f73ffffffffffffffffffffffffffffffffffffffff82169050919050565b5f610111826100e8565b9050919050565b61012181610107565b811461012b575f80fd5b50565b5f8151905061013c81610118565b92915050565b5f60208284031215610157576101566100e4565b5b5f6101648482850161012e565b91505092915050565b5f819050919050565b7f4e487b71000000000000000000000000000000000000000000000000000000005f52601160045260245ffd5b5f6101ad8261016d565b91506101b88361016d565b92508282019050808211156101d0576101cf610176565b5b92915050565b6138a3806101e35f395ff3fe6080604052600436106100dc575f3560e01c806376f90e8e1161007e578063944c1d9711610058578063944c1d971461025657806394964edf1461026c578063ced72f8714610296578063ffeb78b7146102c0576100dc565b806376f90e8e146101d25780638e15f473146101fc57806390ab1d8e14610226576100dc565b80632d5cea8e116100ba5780632d5cea8e1461014e5780633174b6891461016a578063525054531461018057806369fe0e2d146101aa576100dc565b80630121b93f146100e057806306db5c06146101085780630dc9601514610124575b5f80fd5b3480156100eb575f80fd5b5061010660048036038101906101019190611f75565b6102ea565b005b610122600480360381019061011d91906120dc565b610492565b005b34801561012f575f80fd5b506101386107ec565b6040516101459190612239565b60405180910390f35b61016860048036038101906101639190612283565b610877565b005b348015610175575f80fd5b5061017e6108be565b005b34801561018b575f80fd5b50610194610b50565b6040516101a191906122ea565b60405180910390f35b3480156101b5575f80fd5b506101d060048036038101906101cb9190611f75565b610b76565b005b3480156101dd575f80fd5b506101e6610c0f565b6040516101f3919061241b565b60405180910390f35b348015610207575f80fd5b50610210610dc5565b60405161021d919061244a565b60405180910390f35b348015610231575f80fd5b5061023a610e5e565b60405161024d97969594939291906124c9565b60405180910390f35b348015610261575f80fd5b5061026a610fb8565b005b348015610277575f80fd5b506102806111d9565b60405161028d919061269f565b60405180910390f35b3480156102a1575f80fd5b506102aa6113d1565b6040516102b7919061244a565b60405180910390f35b3480156102cb575f80fd5b506102d46113da565b6040516102e1919061241b565b60405180910390f35b600b54421061032e576040517f08c379a000000000000000000000000000000000000000000000000000000000815260040161032590612709565b60405180910390fd5b5f805f3373ffffffffffffffffffffffffffffffffffffffff1673ffffffffffffffffffffffffffffffffffffffff1681526020019081526020015f2054146103ac576040517f08c379a00000000000000000000000000000000000000000000000000000000081526004016103a390612771565b60405180910390fd5b805f803373ffffffffffffffffffffffffffffffffffffffff1673ffffffffffffffffffffffffffffffffffffffff1681526020019081526020015f2081905550600133908060018154018082558091505060019003905f5260205f20015f9091909190916101000a81548173ffffffffffffffffffffffffffffffffffffffff021916908373ffffffffffffffffffffffffffffffffffffffff16021790555061045681611714565b7fd0e6c39f2e086dc49f1524b47725526a56945cd1ff661f37976f1725a1e56986338260405161048792919061278f565b60405180910390a150565b600d543373ffffffffffffffffffffffffffffffffffffffff1631116104ed576040517f08c379a00000000000000000000000000000000000000000000000000000000081526004016104e490612800565b60405180910390fd5b600d543414610531576040517f08c379a000000000000000000000000000000000000000000000000000000000815260040161052890612868565b60405180910390fd5b5f61053a6118c4565b90505f6040518060e001604052803373ffffffffffffffffffffffffffffffffffffffff1681526020018581526020018481526020014281526020015f815260200183815260200173__$3be98f575888afe3ba7868f0f6338c4a1e$__636149453873__$3be98f575888afe3ba7868f0f6338c4a1e$__63f608ab788989428a6040518563ffffffff1660e01b81526004016105d994939291906128dd565b5f60405180830381865af41580156105f3573d5f803e3d5ffd5b505050506040513d5f823e3d601f19601f8201168201806040525081019061061b919061299c565b6040518263ffffffff1660e01b815260040161063791906129e3565b602060405180830381865af4158015610652573d5f803e3d5ffd5b505050506040513d601f19601f820116820180604052508101906106769190612a2d565b8152509050600281908060018154018082558091505060019003905f5260205f2090600702015f909190919091505f820151815f015f6101000a81548173ffffffffffffffffffffffffffffffffffffffff021916908373ffffffffffffffffffffffffffffffffffffffff16021790555060208201518160010190816106fd9190612c52565b5060408201518160020190816107139190612c52565b50606082015181600301556080820151816004015560a0820151816005015560c082015181600601555050600e5f9054906101000a900473ffffffffffffffffffffffffffffffffffffffff1673ffffffffffffffffffffffffffffffffffffffff166108fc3490811502906040515f60405180830381858888f193505050501580156107a2573d5f803e3d5ffd5b507f918f010187dacfa7074bf61710aff7a8ba31fcd11aef11d9cf1f8293f1acba6f8484425f8560a001516040516107de959493929190612d5a565b60405180910390a150505050565b6060600180548060200260200160405190810160405280929190818152602001828054801561086d57602002820191905f5260205f20905b815f9054906101000a900473ffffffffffffffffffffffffffffffffffffffff1673ffffffffffffffffffffffffffffffffffffffff1681526020019060010190808311610824575b5050505050905090565b8073ffffffffffffffffffffffffffffffffffffffff166108fc3490811502906040515f60405180830381858888f193505050501580156108ba573d5f803e3d5ffd5b5050565b600b544210610902576040517f08c379a00000000000000000000000000000000000000000000000000000000081526004016108f990612709565b60405180910390fd5b5f805f3373ffffffffffffffffffffffffffffffffffffffff1673ffffffffffffffffffffffffffffffffffffffff1681526020019081526020015f205403610980576040517f08c379a000000000000000000000000000000000000000000000000000000000815260040161097790612e03565b60405180910390fd5b5f805f3373ffffffffffffffffffffffffffffffffffffffff1673ffffffffffffffffffffffffffffffffffffffff1681526020019081526020015f205490505f805f3373ffffffffffffffffffffffffffffffffffffffff1673ffffffffffffffffffffffffffffffffffffffff1681526020019081526020015f2081905550610a0a816118e0565b73__$3be98f575888afe3ba7868f0f6338c4a1e$__635a8d4625600173__$3be98f575888afe3ba7868f0f6338c4a1e$__631c07c87f6001336040518363ffffffff1660e01b8152600401610a60929190612f46565b602060405180830381865af4158015610a7b573d5f803e3d5ffd5b505050506040513d601f19601f82011682018060405250810190610a9f9190612f88565b6040518363ffffffff1660e01b8152600401610abc929190612fb3565b5f60405180830381865af4158015610ad6573d5f803e3d5ffd5b505050506040513d5f823e3d601f19601f82011682018060405250810190610afe91906130b9565b60019080519060200190610b13929190611dcb565b507f1e4ba8038df092a6a9cc2400d85e4bcdabae0834fcad0ee391a8dff246ef42543382604051610b4592919061278f565b60405180910390a150565b610b58611e52565b6040518060400160405280600a548152602001600b54815250905090565b600e5f9054906101000a900473ffffffffffffffffffffffffffffffffffffffff1673ffffffffffffffffffffffffffffffffffffffff163373ffffffffffffffffffffffffffffffffffffffff1614610c05576040517f08c379a0000000000000000000000000000000000000000000000000000000008152600401610bfc90613170565b60405180910390fd5b80600d8190555050565b610c17611e6a565b60036040518060e00160405290815f82015f9054906101000a900473ffffffffffffffffffffffffffffffffffffffff1673ffffffffffffffffffffffffffffffffffffffff1673ffffffffffffffffffffffffffffffffffffffff168152602001600182018054610c8890612a85565b80601f0160208091040260200160405190810160405280929190818152602001828054610cb490612a85565b8015610cff5780601f10610cd657610100808354040283529160200191610cff565b820191905f5260205f20905b815481529060010190602001808311610ce257829003601f168201915b50505050508152602001600282018054610d1890612a85565b80601f0160208091040260200160405190810160405280929190818152602001828054610d4490612a85565b8015610d8f5780601f10610d6657610100808354040283529160200191610d8f565b820191905f5260205f20905b815481529060010190602001808311610d7257829003601f168201915b50505050508152602001600382015481526020016004820154815260200160058201548152602001600682015481525050905090565b5f80600f5f9054906101000a900473ffffffffffffffffffffffffffffffffffffffff1673ffffffffffffffffffffffffffffffffffffffff16638e15f4736040518163ffffffff1660e01b8152600401602060405180830381865afa158015610e31573d5f803e3d5ffd5b505050506040513d601f19601f82011682018060405250810190610e559190612f88565b90508091505090565b6003805f015f9054906101000a900473ffffffffffffffffffffffffffffffffffffffff1690806001018054610e9390612a85565b80601f0160208091040260200160405190810160405280929190818152602001828054610ebf90612a85565b8015610f0a5780601f10610ee157610100808354040283529160200191610f0a565b820191905f5260205f20905b815481529060010190602001808311610eed57829003601f168201915b505050505090806002018054610f1f90612a85565b80601f0160208091040260200160405190810160405280929190818152602001828054610f4b90612a85565b8015610f965780601f10610f6d57610100808354040283529160200191610f96565b820191905f5260205f20905b815481529060010190602001808311610f7957829003601f168201915b5050505050908060030154908060040154908060050154908060060154905087565b600e5f9054906101000a900473ffffffffffffffffffffffffffffffffffffffff1673ffffffffffffffffffffffffffffffffffffffff163373ffffffffffffffffffffffffffffffffffffffff1614611047576040517f08c379a000000000000000000000000000000000000000000000000000000000815260040161103e90613170565b60405180910390fd5b5f60028054905011156111aa575f73__$3be98f575888afe3ba7868f0f6338c4a1e$__634cde537160026040518263ffffffff1660e01b815260040161108d9190613415565b602060405180830381865af41580156110a8573d5f803e3d5ffd5b505050506040513d601f19601f820116820180604052508101906110cc9190612f88565b9050600281815481106110e2576110e1613435565b5b905f5260205f20906007020160035f82015f9054906101000a900473ffffffffffffffffffffffffffffffffffffffff16815f015f6101000a81548173ffffffffffffffffffffffffffffffffffffffff021916908373ffffffffffffffffffffffffffffffffffffffff160217905550600182018160010190816111679190613477565b506002820181600201908161117c9190613477565b5060038201548160030155600482015481600401556005820154816005015560068201548160060155905050505b42600a8190555061012c600a546111c19190613589565b600b819055506111cf611a51565b6111d7611af7565b565b60606002805480602002602001604051908101604052809291908181526020015f905b828210156113c8578382905f5260205f2090600702016040518060e00160405290815f82015f9054906101000a900473ffffffffffffffffffffffffffffffffffffffff1673ffffffffffffffffffffffffffffffffffffffff1673ffffffffffffffffffffffffffffffffffffffff16815260200160018201805461128190612a85565b80601f01602080910402602001604051908101604052809291908181526020018280546112ad90612a85565b80156112f85780601f106112cf576101008083540402835291602001916112f8565b820191905f5260205f20905b8154815290600101906020018083116112db57829003601f168201915b5050505050815260200160028201805461131190612a85565b80601f016020809104026020016040519081016040528092919081815260200182805461133d90612a85565b80156113885780601f1061135f57610100808354040283529160200191611388565b820191905f5260205f20905b81548152906001019060200180831161136b57829003601f168201915b50505050508152602001600382015481526020016004820154815260200160058201548152602001600682015481525050815260200190600101906111fc565b50505050905090565b5f600d54905090565b6113e2611e6a565b5f6040518060e001604052805f73ffffffffffffffffffffffffffffffffffffffff16815260200160405180602001604052805f815250815260200160405180602001604052805f81525081526020015f81526020015f81526020015f81526020015f801b81525090505f73__$3be98f575888afe3ba7868f0f6338c4a1e$__634cde537160026040518263ffffffff1660e01b81526004016114859190613415565b602060405180830381865af41580156114a0573d5f803e3d5ffd5b505050506040513d601f19601f820116820180604052508101906114c49190612f88565b10156114d0578061170e565b600273__$3be98f575888afe3ba7868f0f6338c4a1e$__634cde537160026040518263ffffffff1660e01b815260040161150a9190613415565b602060405180830381865af4158015611525573d5f803e3d5ffd5b505050506040513d601f19601f820116820180604052508101906115499190612f88565b8154811061155a57611559613435565b5b905f5260205f2090600702016040518060e00160405290815f82015f9054906101000a900473ffffffffffffffffffffffffffffffffffffffff1673ffffffffffffffffffffffffffffffffffffffff1673ffffffffffffffffffffffffffffffffffffffff1681526020016001820180546115d590612a85565b80601f016020809104026020016040519081016040528092919081815260200182805461160190612a85565b801561164c5780601f106116235761010080835404028352916020019161164c565b820191905f5260205f20905b81548152906001019060200180831161162f57829003601f168201915b5050505050815260200160028201805461166590612a85565b80601f016020809104026020016040519081016040528092919081815260200182805461169190612a85565b80156116dc5780601f106116b3576101008083540402835291602001916116dc565b820191905f5260205f20905b8154815290600101906020018083116116bf57829003601f168201915b505050505081526020016003820154815260200160048201548152602001600582015481526020016006820154815250505b91505090565b5f73__$3be98f575888afe3ba7868f0f6338c4a1e$__628f863f6002846040518363ffffffff1660e01b815260040161174e9291906135bc565b602060405180830381865af4158015611769573d5f803e3d5ffd5b505050506040513d601f19601f8201168201806040525081019061178d9190612f88565b9050600281815481106117a3576117a2613435565b5b905f5260205f2090600702016004015f8154809291906117c2906135ea565b91905055506001600282815481106117dd576117dc613435565b5b905f5260205f209060070201600401540361184f577fa14fa303a8e5427c5ba2e51ee094dfec541c20057e16af2878e60267e7d49d7f826002838154811061182857611827613435565b5b905f5260205f20906007020160040154604051611846929190613631565b60405180910390a15b5f600a6002838154811061186657611865613435565b5b905f5260205f209060070201600401546118809190613685565b036118c0577fb700e294cb449b7867d52ec84fa350a01292558681a0c6fc5b424e3aa1d0bcbf82600a6040516118b79291906136f7565b60405180910390a15b5050565b5f600c5f8154809291906118d7906135ea565b91905055905090565b8073__$3be98f575888afe3ba7868f0f6338c4a1e$__63ebb596ce6002836040518363ffffffff1660e01b815260040161191b9291906135bc565b602060405180830381865af4158015611936573d5f803e3d5ffd5b505050506040513d601f19601f8201168201806040525081019061195a9190613753565b611999576040517f08c379a0000000000000000000000000000000000000000000000000000000008152600401611990906137c8565b60405180910390fd5b5f73__$3be98f575888afe3ba7868f0f6338c4a1e$__628f863f6002856040518363ffffffff1660e01b81526004016119d39291906135bc565b602060405180830381865af41580156119ee573d5f803e3d5ffd5b505050506040513d601f19601f82011682018060405250810190611a129190612f88565b905060028181548110611a2857611a27613435565b5b905f5260205f2090600702016004015f815480929190611a47906137e6565b9190505550505050565b5f5b600180549050811015611ae7575f8060018381548110611a7657611a75613435565b5b905f5260205f20015f9054906101000a900473ffffffffffffffffffffffffffffffffffffffff1673ffffffffffffffffffffffffffffffffffffffff1673ffffffffffffffffffffffffffffffffffffffff1681526020019081526020015f205f90558080600101915050611a53565b5060015f611af59190611ebb565b565b5f73__$3be98f575888afe3ba7868f0f6338c4a1e$__634cde537160026040518263ffffffff1660e01b8152600401611b309190613415565b602060405180830381865af4158015611b4b573d5f803e3d5ffd5b505050506040513d601f19601f82011682018060405250810190611b6f9190612f88565b90507fb5f50f03f7b9ad95f7ea22225b7712fda4854a73a69ad8967e9883f67d846ab460028281548110611ba657611ba5613435565b5b905f5260205f20906007020160050154604051611bc3919061244a565b60405180910390a15f8190505b6001600280549050611be2919061380d565b811015611cfa576002600182611bf89190613589565b81548110611c0957611c08613435565b5b905f5260205f20906007020160028281548110611c2957611c28613435565b5b905f5260205f2090600702015f82015f9054906101000a900473ffffffffffffffffffffffffffffffffffffffff16815f015f6101000a81548173ffffffffffffffffffffffffffffffffffffffff021916908373ffffffffffffffffffffffffffffffffffffffff16021790555060018201816001019081611cac9190613477565b5060028201816002019081611cc19190613477565b50600382015481600301556004820154816004015560058201548160050155600682015481600601559050508080600101915050611bd0565b506002805480611d0d57611d0c613840565b5b600190038181905f5260205f2090600702015f8082015f6101000a81549073ffffffffffffffffffffffffffffffffffffffff0219169055600182015f611d549190611ed9565b600282015f611d639190611ed9565b600382015f9055600482015f9055600582015f9055600682015f9055505090555f5b600280549050811015611dc7575f60028281548110611da757611da6613435565b5b905f5260205f209060070201600401819055508080600101915050611d85565b5050565b828054828255905f5260205f20908101928215611e41579160200282015b82811115611e40578251825f6101000a81548173ffffffffffffffffffffffffffffffffffffffff021916908373ffffffffffffffffffffffffffffffffffffffff16021790555091602001919060010190611de9565b5b509050611e4e9190611f16565b5090565b60405180604001604052805f81526020015f81525090565b6040518060e001604052805f73ffffffffffffffffffffffffffffffffffffffff16815260200160608152602001606081526020015f81526020015f81526020015f81526020015f80191681525090565b5080545f8255905f5260205f2090810190611ed69190611f16565b50565b508054611ee590612a85565b5f825580601f10611ef65750611f13565b601f0160209004905f5260205f2090810190611f129190611f16565b5b50565b5b80821115611f2d575f815f905550600101611f17565b5090565b5f604051905090565b5f80fd5b5f80fd5b5f819050919050565b611f5481611f42565b8114611f5e575f80fd5b50565b5f81359050611f6f81611f4b565b92915050565b5f60208284031215611f8a57611f89611f3a565b5b5f611f9784828501611f61565b91505092915050565b5f80fd5b5f80fd5b5f601f19601f8301169050919050565b7f4e487b71000000000000000000000000000000000000000000000000000000005f52604160045260245ffd5b611fee82611fa8565b810181811067ffffffffffffffff8211171561200d5761200c611fb8565b5b80604052505050565b5f61201f611f31565b905061202b8282611fe5565b919050565b5f67ffffffffffffffff82111561204a57612049611fb8565b5b61205382611fa8565b9050602081019050919050565b828183375f83830152505050565b5f61208061207b84612030565b612016565b90508281526020810184848401111561209c5761209b611fa4565b5b6120a7848285612060565b509392505050565b5f82601f8301126120c3576120c2611fa0565b5b81356120d384826020860161206e565b91505092915050565b5f80604083850312156120f2576120f1611f3a565b5b5f83013567ffffffffffffffff81111561210f5761210e611f3e565b5b61211b858286016120af565b925050602083013567ffffffffffffffff81111561213c5761213b611f3e565b5b612148858286016120af565b9150509250929050565b5f81519050919050565b5f82825260208201905092915050565b5f819050602082019050919050565b5f73ffffffffffffffffffffffffffffffffffffffff82169050919050565b5f6121a48261217b565b9050919050565b6121b48161219a565b82525050565b5f6121c583836121ab565b60208301905092915050565b5f602082019050919050565b5f6121e782612152565b6121f1818561215c565b93506121fc8361216c565b805f5b8381101561222c57815161221388826121ba565b975061221e836121d1565b9250506001810190506121ff565b5085935050505092915050565b5f6020820190508181035f83015261225181846121dd565b905092915050565b6122628161219a565b811461226c575f80fd5b50565b5f8135905061227d81612259565b92915050565b5f6020828403121561229857612297611f3a565b5b5f6122a58482850161226f565b91505092915050565b6122b781611f42565b82525050565b604082015f8201516122d15f8501826122ae565b5060208201516122e460208501826122ae565b50505050565b5f6040820190506122fd5f8301846122bd565b92915050565b5f81519050919050565b5f82825260208201905092915050565b8281835e5f83830152505050565b5f61233582612303565b61233f818561230d565b935061234f81856020860161231d565b61235881611fa8565b840191505092915050565b5f819050919050565b61237581612363565b82525050565b5f60e083015f8301516123905f8601826121ab565b50602083015184820360208601526123a8828261232b565b915050604083015184820360408601526123c2828261232b565b91505060608301516123d760608601826122ae565b5060808301516123ea60808601826122ae565b5060a08301516123fd60a08601826122ae565b5060c083015161241060c086018261236c565b508091505092915050565b5f6020820190508181035f830152612433818461237b565b905092915050565b61244481611f42565b82525050565b5f60208201905061245d5f83018461243b565b92915050565b61246c8161219a565b82525050565b5f82825260208201905092915050565b5f61248c82612303565b6124968185612472565b93506124a681856020860161231d565b6124af81611fa8565b840191505092915050565b6124c381612363565b82525050565b5f60e0820190506124dc5f83018a612463565b81810360208301526124ee8189612482565b905081810360408301526125028188612482565b9050612511606083018761243b565b61251e608083018661243b565b61252b60a083018561243b565b61253860c08301846124ba565b98975050505050505050565b5f81519050919050565b5f82825260208201905092915050565b5f819050602082019050919050565b5f60e083015f8301516125825f8601826121ab565b506020830151848203602086015261259a828261232b565b915050604083015184820360408601526125b4828261232b565b91505060608301516125c960608601826122ae565b5060808301516125dc60808601826122ae565b5060a08301516125ef60a08601826122ae565b5060c083015161260260c086018261236c565b508091505092915050565b5f612618838361256d565b905092915050565b5f602082019050919050565b5f61263682612544565b612640818561254e565b9350836020820285016126528561255e565b805f5b8581101561268d578484038952815161266e858261260d565b945061267983612620565b925060208a01995050600181019050612655565b50829750879550505050505092915050565b5f6020820190508181035f8301526126b7818461262c565b905092915050565b7f566f74696e6720706572696f642068617320656e6465640000000000000000005f82015250565b5f6126f3601783612472565b91506126fe826126bf565b602082019050919050565b5f6020820190508181035f830152612720816126e7565b9050919050565b7f596f7520616c726561647920766f7465640000000000000000000000000000005f82015250565b5f61275b601183612472565b915061276682612727565b602082019050919050565b5f6020820190508181035f8301526127888161274f565b9050919050565b5f6040820190506127a25f830185612463565b6127af602083018461243b565b9392505050565b7f496e737566696369656e7420666f756e647321000000000000000000000000005f82015250565b5f6127ea601383612472565b91506127f5826127b6565b602082019050919050565b5f6020820190508181035f830152612817816127de565b9050919050565b7f496e76616c6964206665652076616c75650000000000000000000000000000005f82015250565b5f612852601183612472565b915061285d8261281e565b602082019050919050565b5f6020820190508181035f83015261287f81612846565b9050919050565b5f82825260208201905092915050565b5f6128a082612303565b6128aa8185612886565b93506128ba81856020860161231d565b6128c381611fa8565b840191505092915050565b6128d781611f42565b82525050565b5f6080820190508181035f8301526128f58187612896565b905081810360208301526129098186612896565b905061291860408301856128ce565b61292560608301846128ce565b95945050505050565b5f61294061293b84612030565b612016565b90508281526020810184848401111561295c5761295b611fa4565b5b61296784828561231d565b509392505050565b5f82601f83011261298357612982611fa0565b5b815161299384826020860161292e565b91505092915050565b5f602082840312156129b1576129b0611f3a565b5b5f82015167ffffffffffffffff8111156129ce576129cd611f3e565b5b6129da8482850161296f565b91505092915050565b5f6020820190508181035f8301526129fb8184612896565b905092915050565b612a0c81612363565b8114612a16575f80fd5b50565b5f81519050612a2781612a03565b92915050565b5f60208284031215612a4257612a41611f3a565b5b5f612a4f84828501612a19565b91505092915050565b7f4e487b71000000000000000000000000000000000000000000000000000000005f52602260045260245ffd5b5f6002820490506001821680612a9c57607f821691505b602082108103612aaf57612aae612a58565b5b50919050565b5f819050815f5260205f209050919050565b5f6020601f8301049050919050565b5f82821b905092915050565b5f60088302612b117fffffffffffffffffffffffffffffffffffffffffffffffffffffffffffffffff82612ad6565b612b1b8683612ad6565b95508019841693508086168417925050509392505050565b5f819050919050565b5f612b56612b51612b4c84611f42565b612b33565b611f42565b9050919050565b5f819050919050565b612b6f83612b3c565b612b83612b7b82612b5d565b848454612ae2565b825550505050565b5f90565b612b97612b8b565b612ba2818484612b66565b505050565b5b81811015612bc557612bba5f82612b8f565b600181019050612ba8565b5050565b601f821115612c0a57612bdb81612ab5565b612be484612ac7565b81016020851015612bf3578190505b612c07612bff85612ac7565b830182612ba7565b50505b505050565b5f82821c905092915050565b5f612c2a5f1984600802612c0f565b1980831691505092915050565b5f612c428383612c1b565b9150826002028217905092915050565b612c5b82612303565b67ffffffffffffffff811115612c7457612c73611fb8565b5b612c7e8254612a85565b612c89828285612bc9565b5f60209050601f831160018114612cba575f8415612ca8578287015190505b612cb28582612c37565b865550612d19565b601f198416612cc886612ab5565b5f5b82811015612cef57848901518255600182019150602085019450602081019050612cca565b86831015612d0c5784890151612d08601f891682612c1b565b8355505b6001600288020188555050505b505050505050565b5f819050919050565b5f612d44612d3f612d3a84612d21565b612b33565b611f42565b9050919050565b612d5481612d2a565b82525050565b5f60a0820190508181035f830152612d728188612482565b90508181036020830152612d868187612482565b9050612d95604083018661243b565b612da26060830185612d4b565b612daf608083018461243b565b9695505050505050565b7f596f7520686176656e277420766f7465642079657400000000000000000000005f82015250565b5f612ded601583612472565b9150612df882612db9565b602082019050919050565b5f6020820190508181035f830152612e1a81612de1565b9050919050565b5f81549050919050565b5f82825260208201905092915050565b5f819050815f5260205f209050919050565b612e568161219a565b82525050565b5f612e678383612e4d565b60208301905092915050565b5f815f1c9050919050565b5f73ffffffffffffffffffffffffffffffffffffffff82169050919050565b5f612eaf612eaa83612e73565b612e7e565b9050919050565b5f612ec18254612e9d565b9050919050565b5f600182019050919050565b5f612ede82612e21565b612ee88185612e2b565b9350612ef383612e3b565b805f5b83811015612f2a57612f0782612eb6565b612f118882612e5c565b9750612f1c83612ec8565b925050600181019050612ef6565b5085935050505092915050565b612f408161219a565b82525050565b5f6040820190508181035f830152612f5e8185612ed4565b9050612f6d6020830184612f37565b9392505050565b5f81519050612f8281611f4b565b92915050565b5f60208284031215612f9d57612f9c611f3a565b5b5f612faa84828501612f74565b91505092915050565b5f6040820190508181035f830152612fcb8185612ed4565b9050612fda60208301846128ce565b9392505050565b5f67ffffffffffffffff821115612ffb57612ffa611fb8565b5b602082029050602081019050919050565b5f80fd5b5f8151905061301e81612259565b92915050565b5f61303661303184612fe1565b612016565b905080838252602082019050602084028301858111156130595761305861300c565b5b835b81811015613082578061306e8882613010565b84526020840193505060208101905061305b565b5050509392505050565b5f82601f8301126130a05761309f611fa0565b5b81516130b0848260208601613024565b91505092915050565b5f602082840312156130ce576130cd611f3a565b5b5f82015167ffffffffffffffff8111156130eb576130ea611f3e565b5b6130f78482850161308c565b91505092915050565b7f4f6e6c7920746865206f776e65722063616e20616363657320746869732066755f8201527f6e6374696f6e0000000000000000000000000000000000000000000000000000602082015250565b5f61315a602683612472565b915061316582613100565b604082019050919050565b5f6020820190508181035f8301526131878161314e565b9050919050565b5f81549050919050565b5f82825260208201905092915050565b5f819050815f5260205f209050919050565b5f82825260208201905092915050565b5f81546131d681612a85565b6131e081866131ba565b9450600182165f81146131fa576001811461321057613242565b60ff198316865281151560200286019350613242565b61321985612ab5565b5f5b8381101561323a5781548189015260018201915060208101905061321b565b808801955050505b50505092915050565b5f819050919050565b5f61326661326183612e73565b61324b565b9050919050565b61327681611f42565b82525050565b5f819050919050565b5f61329761329283612e73565b61327c565b9050919050565b6132a781612363565b82525050565b5f60e083015f8084015490506132c281612e9d565b6132ce5f870182612e4d565b506001840185830360208701526132e583826131ca565b9250506002840185830360408701526132fe83826131ca565b9250506003840154905061331181613254565b61331e606087018261326d565b506004840154905061332f81613254565b61333c608087018261326d565b506005840154905061334d81613254565b61335a60a087018261326d565b506006840154905061336b81613285565b61337860c087018261329e565b50819250505092915050565b5f61338f83836132ad565b905092915050565b5f600782019050919050565b5f6133ad8261318e565b6133b78185613198565b9350836020820285016133c9856131a8565b805f5b85811015613403578484038952816133e48582613384565b94506133ef83613397565b925060208a019950506001810190506133cc565b50829750879550505050505092915050565b5f6020820190508181035f83015261342d81846133a3565b905092915050565b7f4e487b71000000000000000000000000000000000000000000000000000000005f52603260045260245ffd5b5f8154905061347081612a85565b9050919050565b81810361348557505061355a565b61348e82613462565b67ffffffffffffffff8111156134a7576134a6611fb8565b5b6134b18254612a85565b6134bc828285612bc9565b5f601f8311600181146134e9575f84156134d7578287015490505b6134e18582612c37565b865550613553565b601f1984166134f787612ab5565b965061350286612ab5565b5f5b8281101561352957848901548255600182019150600185019450602081019050613504565b868310156135465784890154613542601f891682612c1b565b8355505b6001600288020188555050505b5050505050505b565b7f4e487b71000000000000000000000000000000000000000000000000000000005f52601160045260245ffd5b5f61359382611f42565b915061359e83611f42565b92508282019050808211156135b6576135b561355c565b5b92915050565b5f6040820190508181035f8301526135d481856133a3565b90506135e360208301846128ce565b9392505050565b5f6135f482611f42565b91507fffffffffffffffffffffffffffffffffffffffffffffffffffffffffffffffff82036136265761362561355c565b5b600182019050919050565b5f6040820190506136445f83018561243b565b613651602083018461243b565b9392505050565b7f4e487b71000000000000000000000000000000000000000000000000000000005f52601260045260245ffd5b5f61368f82611f42565b915061369a83611f42565b9250826136aa576136a9613658565b5b828206905092915050565b5f819050919050565b5f819050919050565b5f6136e16136dc6136d7846136b5565b612b33565b6136be565b9050919050565b6136f1816136c7565b82525050565b5f60408201905061370a5f83018561243b565b61371760208301846136e8565b9392505050565b5f8115159050919050565b6137328161371e565b811461373c575f80fd5b50565b5f8151905061374d81613729565b92915050565b5f6020828403121561376857613767611f3a565b5b5f6137758482850161373f565b91505092915050565b7f50726f706f73656c20646f6573206e6f742065786973740000000000000000005f82015250565b5f6137b2601783612472565b91506137bd8261377e565b602082019050919050565b5f6020820190508181035f8301526137df816137a6565b9050919050565b5f6137f082611f42565b91505f82036138025761380161355c565b5b600182039050919050565b5f61381782611f42565b915061382283611f42565b925082820390508181111561383a5761383961355c565b5b92915050565b7f4e487b71000000000000000000000000000000000000000000000000000000005f52603160045260245ffdfea26469706673582212207348c6bd12fee9a2d20d589762b8f539149b8d49363e488c78717c634a40b1f464736f6c63430008190033",
			"opcodes": "PUSH1 0x80 PUSH1 0x40 MSTORE CALLVALUE DUP1 ISZERO PUSH2 0xF JUMPI PUSH0 DUP1 REVERT JUMPDEST POP PUSH1 0x40 MLOAD PUSH2 0x3A86 CODESIZE SUB DUP1 PUSH2 0x3A86 DUP4 CODECOPY DUP2 DUP2 ADD PUSH1 0x40 MSTORE DUP2 ADD SWAP1 PUSH2 0x31 SWAP2 SWAP1 PUSH2 0x142 JUMP JUMPDEST CALLER PUSH1 0xE PUSH0 PUSH2 0x100 EXP DUP2 SLOAD DUP2 PUSH20 0xFFFFFFFFFFFFFFFFFFFFFFFFFFFFFFFFFFFFFFFF MUL NOT AND SWAP1 DUP4 PUSH20 0xFFFFFFFFFFFFFFFFFFFFFFFFFFFFFFFFFFFFFFFF AND MUL OR SWAP1 SSTORE POP TIMESTAMP PUSH1 0xA DUP2 SWAP1 SSTORE POP PUSH2 0x12C PUSH1 0xA SLOAD PUSH2 0x88 SWAP2 SWAP1 PUSH2 0x1A3 JUMP JUMPDEST PUSH1 0xB DUP2 SWAP1 SSTORE POP PUSH1 0x1 PUSH1 0xD DUP2 SWAP1 SSTORE POP PUSH1 0x1 PUSH1 0xC DUP2 SWAP1 SSTORE POP DUP1 PUSH1 0xF PUSH0 PUSH2 0x100 EXP DUP2 SLOAD DUP2 PUSH20 0xFFFFFFFFFFFFFFFFFFFFFFFFFFFFFFFFFFFFFFFF MUL NOT AND SWAP1 DUP4 PUSH20 0xFFFFFFFFFFFFFFFFFFFFFFFFFFFFFFFFFFFFFFFF AND MUL OR SWAP1 SSTORE POP POP PUSH2 0x1D6 JUMP JUMPDEST PUSH0 DUP1 REVERT JUMPDEST PUSH0 PUSH20 0xFFFFFFFFFFFFFFFFFFFFFFFFFFFFFFFFFFFFFFFF DUP3 AND SWAP1 POP SWAP2 SWAP1 POP JUMP JUMPDEST PUSH0 PUSH2 0x111 DUP3 PUSH2 0xE8 JUMP JUMPDEST SWAP1 POP SWAP2 SWAP1 POP JUMP JUMPDEST PUSH2 0x121 DUP2 PUSH2 0x107 JUMP JUMPDEST DUP2 EQ PUSH2 0x12B JUMPI PUSH0 DUP1 REVERT JUMPDEST POP JUMP JUMPDEST PUSH0 DUP2 MLOAD SWAP1 POP PUSH2 0x13C DUP2 PUSH2 0x118 JUMP JUMPDEST SWAP3 SWAP2 POP POP JUMP JUMPDEST PUSH0 PUSH1 0x20 DUP3 DUP5 SUB SLT ISZERO PUSH2 0x157 JUMPI PUSH2 0x156 PUSH2 0xE4 JUMP JUMPDEST JUMPDEST PUSH0 PUSH2 0x164 DUP5 DUP3 DUP6 ADD PUSH2 0x12E JUMP JUMPDEST SWAP2 POP POP SWAP3 SWAP2 POP POP JUMP JUMPDEST PUSH0 DUP2 SWAP1 POP SWAP2 SWAP1 POP JUMP JUMPDEST PUSH32 0x4E487B7100000000000000000000000000000000000000000000000000000000 PUSH0 MSTORE PUSH1 0x11 PUSH1 0x4 MSTORE PUSH1 0x24 PUSH0 REVERT JUMPDEST PUSH0 PUSH2 0x1AD DUP3 PUSH2 0x16D JUMP JUMPDEST SWAP2 POP PUSH2 0x1B8 DUP4 PUSH2 0x16D JUMP JUMPDEST SWAP3 POP DUP3 DUP3 ADD SWAP1 POP DUP1 DUP3 GT ISZERO PUSH2 0x1D0 JUMPI PUSH2 0x1CF PUSH2 0x176 JUMP JUMPDEST JUMPDEST SWAP3 SWAP2 POP POP JUMP JUMPDEST PUSH2 0x38A3 DUP1 PUSH2 0x1E3 PUSH0 CODECOPY PUSH0 RETURN INVALID PUSH1 0x80 PUSH1 0x40 MSTORE PUSH1 0x4 CALLDATASIZE LT PUSH2 0xDC JUMPI PUSH0 CALLDATALOAD PUSH1 0xE0 SHR DUP1 PUSH4 0x76F90E8E GT PUSH2 0x7E JUMPI DUP1 PUSH4 0x944C1D97 GT PUSH2 0x58 JUMPI DUP1 PUSH4 0x944C1D97 EQ PUSH2 0x256 JUMPI DUP1 PUSH4 0x94964EDF EQ PUSH2 0x26C JUMPI DUP1 PUSH4 0xCED72F87 EQ PUSH2 0x296 JUMPI DUP1 PUSH4 0xFFEB78B7 EQ PUSH2 0x2C0 JUMPI PUSH2 0xDC JUMP JUMPDEST DUP1 PUSH4 0x76F90E8E EQ PUSH2 0x1D2 JUMPI DUP1 PUSH4 0x8E15F473 EQ PUSH2 0x1FC JUMPI DUP1 PUSH4 0x90AB1D8E EQ PUSH2 0x226 JUMPI PUSH2 0xDC JUMP JUMPDEST DUP1 PUSH4 0x2D5CEA8E GT PUSH2 0xBA JUMPI DUP1 PUSH4 0x2D5CEA8E EQ PUSH2 0x14E JUMPI DUP1 PUSH4 0x3174B689 EQ PUSH2 0x16A JUMPI DUP1 PUSH4 0x52505453 EQ PUSH2 0x180 JUMPI DUP1 PUSH4 0x69FE0E2D EQ PUSH2 0x1AA JUMPI PUSH2 0xDC JUMP JUMPDEST DUP1 PUSH4 0x121B93F EQ PUSH2 0xE0 JUMPI DUP1 PUSH4 0x6DB5C06 EQ PUSH2 0x108 JUMPI DUP1 PUSH4 0xDC96015 EQ PUSH2 0x124 JUMPI JUMPDEST PUSH0 DUP1 REVERT JUMPDEST CALLVALUE DUP1 ISZERO PUSH2 0xEB JUMPI PUSH0 DUP1 REVERT JUMPDEST POP PUSH2 0x106 PUSH1 0x4 DUP1 CALLDATASIZE SUB DUP2 ADD SWAP1 PUSH2 0x101 SWAP2 SWAP1 PUSH2 0x1F75 JUMP JUMPDEST PUSH2 0x2EA JUMP JUMPDEST STOP JUMPDEST PUSH2 0x122 PUSH1 0x4 DUP1 CALLDATASIZE SUB DUP2 ADD SWAP1 PUSH2 0x11D SWAP2 SWAP1 PUSH2 0x20DC JUMP JUMPDEST PUSH2 0x492 JUMP JUMPDEST STOP JUMPDEST CALLVALUE DUP1 ISZERO PUSH2 0x12F JUMPI PUSH0 DUP1 REVERT JUMPDEST POP PUSH2 0x138 PUSH2 0x7EC JUMP JUMPDEST PUSH1 0x40 MLOAD PUSH2 0x145 SWAP2 SWAP1 PUSH2 0x2239 JUMP JUMPDEST PUSH1 0x40 MLOAD DUP1 SWAP2 SUB SWAP1 RETURN JUMPDEST PUSH2 0x168 PUSH1 0x4 DUP1 CALLDATASIZE SUB DUP2 ADD SWAP1 PUSH2 0x163 SWAP2 SWAP1 PUSH2 0x2283 JUMP JUMPDEST PUSH2 0x877 JUMP JUMPDEST STOP JUMPDEST CALLVALUE DUP1 ISZERO PUSH2 0x175 JUMPI PUSH0 DUP1 REVERT JUMPDEST POP PUSH2 0x17E PUSH2 0x8BE JUMP JUMPDEST STOP JUMPDEST CALLVALUE DUP1 ISZERO PUSH2 0x18B JUMPI PUSH0 DUP1 REVERT JUMPDEST POP PUSH2 0x194 PUSH2 0xB50 JUMP JUMPDEST PUSH1 0x40 MLOAD PUSH2 0x1A1 SWAP2 SWAP1 PUSH2 0x22EA JUMP JUMPDEST PUSH1 0x40 MLOAD DUP1 SWAP2 SUB SWAP1 RETURN JUMPDEST CALLVALUE DUP1 ISZERO PUSH2 0x1B5 JUMPI PUSH0 DUP1 REVERT JUMPDEST POP PUSH2 0x1D0 PUSH1 0x4 DUP1 CALLDATASIZE SUB DUP2 ADD SWAP1 PUSH2 0x1CB SWAP2 SWAP1 PUSH2 0x1F75 JUMP JUMPDEST PUSH2 0xB76 JUMP JUMPDEST STOP JUMPDEST CALLVALUE DUP1 ISZERO PUSH2 0x1DD JUMPI PUSH0 DUP1 REVERT JUMPDEST POP PUSH2 0x1E6 PUSH2 0xC0F JUMP JUMPDEST PUSH1 0x40 MLOAD PUSH2 0x1F3 SWAP2 SWAP1 PUSH2 0x241B JUMP JUMPDEST PUSH1 0x40 MLOAD DUP1 SWAP2 SUB SWAP1 RETURN JUMPDEST CALLVALUE DUP1 ISZERO PUSH2 0x207 JUMPI PUSH0 DUP1 REVERT JUMPDEST POP PUSH2 0x210 PUSH2 0xDC5 JUMP JUMPDEST PUSH1 0x40 MLOAD PUSH2 0x21D SWAP2 SWAP1 PUSH2 0x244A JUMP JUMPDEST PUSH1 0x40 MLOAD DUP1 SWAP2 SUB SWAP1 RETURN JUMPDEST CALLVALUE DUP1 ISZERO PUSH2 0x231 JUMPI PUSH0 DUP1 REVERT JUMPDEST POP PUSH2 0x23A PUSH2 0xE5E JUMP JUMPDEST PUSH1 0x40 MLOAD PUSH2 0x24D SWAP8 SWAP7 SWAP6 SWAP5 SWAP4 SWAP3 SWAP2 SWAP1 PUSH2 0x24C9 JUMP JUMPDEST PUSH1 0x40 MLOAD DUP1 SWAP2 SUB SWAP1 RETURN JUMPDEST CALLVALUE DUP1 ISZERO PUSH2 0x261 JUMPI PUSH0 DUP1 REVERT JUMPDEST POP PUSH2 0x26A PUSH2 0xFB8 JUMP JUMPDEST STOP JUMPDEST CALLVALUE DUP1 ISZERO PUSH2 0x277 JUMPI PUSH0 DUP1 REVERT JUMPDEST POP PUSH2 0x280 PUSH2 0x11D9 JUMP JUMPDEST PUSH1 0x40 MLOAD PUSH2 0x28D SWAP2 SWAP1 PUSH2 0x269F JUMP JUMPDEST PUSH1 0x40 MLOAD DUP1 SWAP2 SUB SWAP1 RETURN JUMPDEST CALLVALUE DUP1 ISZERO PUSH2 0x2A1 JUMPI PUSH0 DUP1 REVERT JUMPDEST POP PUSH2 0x2AA PUSH2 0x13D1 JUMP JUMPDEST PUSH1 0x40 MLOAD PUSH2 0x2B7 SWAP2 SWAP1 PUSH2 0x244A JUMP JUMPDEST PUSH1 0x40 MLOAD DUP1 SWAP2 SUB SWAP1 RETURN JUMPDEST CALLVALUE DUP1 ISZERO PUSH2 0x2CB JUMPI PUSH0 DUP1 REVERT JUMPDEST POP PUSH2 0x2D4 PUSH2 0x13DA JUMP JUMPDEST PUSH1 0x40 MLOAD PUSH2 0x2E1 SWAP2 SWAP1 PUSH2 0x241B JUMP JUMPDEST PUSH1 0x40 MLOAD DUP1 SWAP2 SUB SWAP1 RETURN JUMPDEST PUSH1 0xB SLOAD TIMESTAMP LT PUSH2 0x32E JUMPI PUSH1 0x40 MLOAD PUSH32 0x8C379A000000000000000000000000000000000000000000000000000000000 DUP2 MSTORE PUSH1 0x4 ADD PUSH2 0x325 SWAP1 PUSH2 0x2709 JUMP JUMPDEST PUSH1 0x40 MLOAD DUP1 SWAP2 SUB SWAP1 REVERT JUMPDEST PUSH0 DUP1 PUSH0 CALLER PUSH20 0xFFFFFFFFFFFFFFFFFFFFFFFFFFFFFFFFFFFFFFFF AND PUSH20 0xFFFFFFFFFFFFFFFFFFFFFFFFFFFFFFFFFFFFFFFF AND DUP2 MSTORE PUSH1 0x20 ADD SWAP1 DUP2 MSTORE PUSH1 0x20 ADD PUSH0 KECCAK256 SLOAD EQ PUSH2 0x3AC JUMPI PUSH1 0x40 MLOAD PUSH32 0x8C379A000000000000000000000000000000000000000000000000000000000 DUP2 MSTORE PUSH1 0x4 ADD PUSH2 0x3A3 SWAP1 PUSH2 0x2771 JUMP JUMPDEST PUSH1 0x40 MLOAD DUP1 SWAP2 SUB SWAP1 REVERT JUMPDEST DUP1 PUSH0 DUP1 CALLER PUSH20 0xFFFFFFFFFFFFFFFFFFFFFFFFFFFFFFFFFFFFFFFF AND PUSH20 0xFFFFFFFFFFFFFFFFFFFFFFFFFFFFFFFFFFFFFFFF AND DUP2 MSTORE PUSH1 0x20 ADD SWAP1 DUP2 MSTORE PUSH1 0x20 ADD PUSH0 KECCAK256 DUP2 SWAP1 SSTORE POP PUSH1 0x1 CALLER SWAP1 DUP1 PUSH1 0x1 DUP2 SLOAD ADD DUP1 DUP3 SSTORE DUP1 SWAP2 POP POP PUSH1 0x1 SWAP1 SUB SWAP1 PUSH0 MSTORE PUSH1 0x20 PUSH0 KECCAK256 ADD PUSH0 SWAP1 SWAP2 SWAP1 SWAP2 SWAP1 SWAP2 PUSH2 0x100 EXP DUP2 SLOAD DUP2 PUSH20 0xFFFFFFFFFFFFFFFFFFFFFFFFFFFFFFFFFFFFFFFF MUL NOT AND SWAP1 DUP4 PUSH20 0xFFFFFFFFFFFFFFFFFFFFFFFFFFFFFFFFFFFFFFFF AND MUL OR SWAP1 SSTORE POP PUSH2 0x456 DUP2 PUSH2 0x1714 JUMP JUMPDEST PUSH32 0xD0E6C39F2E086DC49F1524B47725526A56945CD1FF661F37976F1725A1E56986 CALLER DUP3 PUSH1 0x40 MLOAD PUSH2 0x487 SWAP3 SWAP2 SWAP1 PUSH2 0x278F JUMP JUMPDEST PUSH1 0x40 MLOAD DUP1 SWAP2 SUB SWAP1 LOG1 POP JUMP JUMPDEST PUSH1 0xD SLOAD CALLER PUSH20 0xFFFFFFFFFFFFFFFFFFFFFFFFFFFFFFFFFFFFFFFF AND BALANCE GT PUSH2 0x4ED JUMPI PUSH1 0x40 MLOAD PUSH32 0x8C379A000000000000000000000000000000000000000000000000000000000 DUP2 MSTORE PUSH1 0x4 ADD PUSH2 0x4E4 SWAP1 PUSH2 0x2800 JUMP JUMPDEST PUSH1 0x40 MLOAD DUP1 SWAP2 SUB SWAP1 REVERT JUMPDEST PUSH1 0xD SLOAD CALLVALUE EQ PUSH2 0x531 JUMPI PUSH1 0x40 MLOAD PUSH32 0x8C379A000000000000000000000000000000000000000000000000000000000 DUP2 MSTORE PUSH1 0x4 ADD PUSH2 0x528 SWAP1 PUSH2 0x2868 JUMP JUMPDEST PUSH1 0x40 MLOAD DUP1 SWAP2 SUB SWAP1 REVERT JUMPDEST PUSH0 PUSH2 0x53A PUSH2 0x18C4 JUMP JUMPDEST SWAP1 POP PUSH0 PUSH1 0x40 MLOAD DUP1 PUSH1 0xE0 ADD PUSH1 0x40 MSTORE DUP1 CALLER PUSH20 0xFFFFFFFFFFFFFFFFFFFFFFFFFFFFFFFFFFFFFFFF AND DUP2 MSTORE PUSH1 0x20 ADD DUP6 DUP2 MSTORE PUSH1 0x20 ADD DUP5 DUP2 MSTORE PUSH1 0x20 ADD TIMESTAMP DUP2 MSTORE PUSH1 0x20 ADD PUSH0 DUP2 MSTORE PUSH1 0x20 ADD DUP4 DUP2 MSTORE PUSH1 0x20 ADD PUSH20 0x0 PUSH4 0x61494538 PUSH20 0x0 PUSH4 0xF608AB78 DUP10 DUP10 TIMESTAMP DUP11 PUSH1 0x40 MLOAD DUP6 PUSH4 0xFFFFFFFF AND PUSH1 0xE0 SHL DUP2 MSTORE PUSH1 0x4 ADD PUSH2 0x5D9 SWAP5 SWAP4 SWAP3 SWAP2 SWAP1 PUSH2 0x28DD JUMP JUMPDEST PUSH0 PUSH1 0x40 MLOAD DUP1 DUP4 SUB DUP2 DUP7 GAS DELEGATECALL ISZERO DUP1 ISZERO PUSH2 0x5F3 JUMPI RETURNDATASIZE PUSH0 DUP1 RETURNDATACOPY RETURNDATASIZE PUSH0 REVERT JUMPDEST POP POP POP POP PUSH1 0x40 MLOAD RETURNDATASIZE PUSH0 DUP3 RETURNDATACOPY RETURNDATASIZE PUSH1 0x1F NOT PUSH1 0x1F DUP3 ADD AND DUP3 ADD DUP1 PUSH1 0x40 MSTORE POP DUP2 ADD SWAP1 PUSH2 0x61B SWAP2 SWAP1 PUSH2 0x299C JUMP JUMPDEST PUSH1 0x40 MLOAD DUP3 PUSH4 0xFFFFFFFF AND PUSH1 0xE0 SHL DUP2 MSTORE PUSH1 0x4 ADD PUSH2 0x637 SWAP2 SWAP1 PUSH2 0x29E3 JUMP JUMPDEST PUSH1 0x20 PUSH1 0x40 MLOAD DUP1 DUP4 SUB DUP2 DUP7 GAS DELEGATECALL ISZERO DUP1 ISZERO PUSH2 0x652 JUMPI RETURNDATASIZE PUSH0 DUP1 RETURNDATACOPY RETURNDATASIZE PUSH0 REVERT JUMPDEST POP POP POP POP PUSH1 0x40 MLOAD RETURNDATASIZE PUSH1 0x1F NOT PUSH1 0x1F DUP3 ADD AND DUP3 ADD DUP1 PUSH1 0x40 MSTORE POP DUP2 ADD SWAP1 PUSH2 0x676 SWAP2 SWAP1 PUSH2 0x2A2D JUMP JUMPDEST DUP2 MSTORE POP SWAP1 POP PUSH1 0x2 DUP2 SWAP1 DUP1 PUSH1 0x1 DUP2 SLOAD ADD DUP1 DUP3 SSTORE DUP1 SWAP2 POP POP PUSH1 0x1 SWAP1 SUB SWAP1 PUSH0 MSTORE PUSH1 0x20 PUSH0 KECCAK256 SWAP1 PUSH1 0x7 MUL ADD PUSH0 SWAP1 SWAP2 SWAP1 SWAP2 SWAP1 SWAP2 POP PUSH0 DUP3 ADD MLOAD DUP2 PUSH0 ADD PUSH0 PUSH2 0x100 EXP DUP2 SLOAD DUP2 PUSH20 0xFFFFFFFFFFFFFFFFFFFFFFFFFFFFFFFFFFFFFFFF MUL NOT AND SWAP1 DUP4 PUSH20 0xFFFFFFFFFFFFFFFFFFFFFFFFFFFFFFFFFFFFFFFF AND MUL OR SWAP1 SSTORE POP PUSH1 0x20 DUP3 ADD MLOAD DUP2 PUSH1 0x1 ADD SWAP1 DUP2 PUSH2 0x6FD SWAP2 SWAP1 PUSH2 0x2C52 JUMP JUMPDEST POP PUSH1 0x40 DUP3 ADD MLOAD DUP2 PUSH1 0x2 ADD SWAP1 DUP2 PUSH2 0x713 SWAP2 SWAP1 PUSH2 0x2C52 JUMP JUMPDEST POP PUSH1 0x60 DUP3 ADD MLOAD DUP2 PUSH1 0x3 ADD SSTORE PUSH1 0x80 DUP3 ADD MLOAD DUP2 PUSH1 0x4 ADD SSTORE PUSH1 0xA0 DUP3 ADD MLOAD DUP2 PUSH1 0x5 ADD SSTORE PUSH1 0xC0 DUP3 ADD MLOAD DUP2 PUSH1 0x6 ADD SSTORE POP POP PUSH1 0xE PUSH0 SWAP1 SLOAD SWAP1 PUSH2 0x100 EXP SWAP1 DIV PUSH20 0xFFFFFFFFFFFFFFFFFFFFFFFFFFFFFFFFFFFFFFFF AND PUSH20 0xFFFFFFFFFFFFFFFFFFFFFFFFFFFFFFFFFFFFFFFF AND PUSH2 0x8FC CALLVALUE SWAP1 DUP2 ISZERO MUL SWAP1 PUSH1 0x40 MLOAD PUSH0 PUSH1 0x40 MLOAD DUP1 DUP4 SUB DUP2 DUP6 DUP9 DUP9 CALL SWAP4 POP POP POP POP ISZERO DUP1 ISZERO PUSH2 0x7A2 JUMPI RETURNDATASIZE PUSH0 DUP1 RETURNDATACOPY RETURNDATASIZE PUSH0 REVERT JUMPDEST POP PUSH32 0x918F010187DACFA7074BF61710AFF7A8BA31FCD11AEF11D9CF1F8293F1ACBA6F DUP5 DUP5 TIMESTAMP PUSH0 DUP6 PUSH1 0xA0 ADD MLOAD PUSH1 0x40 MLOAD PUSH2 0x7DE SWAP6 SWAP5 SWAP4 SWAP3 SWAP2 SWAP1 PUSH2 0x2D5A JUMP JUMPDEST PUSH1 0x40 MLOAD DUP1 SWAP2 SUB SWAP1 LOG1 POP POP POP POP JUMP JUMPDEST PUSH1 0x60 PUSH1 0x1 DUP1 SLOAD DUP1 PUSH1 0x20 MUL PUSH1 0x20 ADD PUSH1 0x40 MLOAD SWAP1 DUP2 ADD PUSH1 0x40 MSTORE DUP1 SWAP3 SWAP2 SWAP1 DUP2 DUP2 MSTORE PUSH1 0x20 ADD DUP3 DUP1 SLOAD DUP1 ISZERO PUSH2 0x86D JUMPI PUSH1 0x20 MUL DUP3 ADD SWAP2 SWAP1 PUSH0 MSTORE PUSH1 0x20 PUSH0 KECCAK256 SWAP1 JUMPDEST DUP2 PUSH0 SWAP1 SLOAD SWAP1 PUSH2 0x100 EXP SWAP1 DIV PUSH20 0xFFFFFFFFFFFFFFFFFFFFFFFFFFFFFFFFFFFFFFFF AND PUSH20 0xFFFFFFFFFFFFFFFFFFFFFFFFFFFFFFFFFFFFFFFF AND DUP2 MSTORE PUSH1 0x20 ADD SWAP1 PUSH1 0x1 ADD SWAP1 DUP1 DUP4 GT PUSH2 0x824 JUMPI JUMPDEST POP POP POP POP POP SWAP1 POP SWAP1 JUMP JUMPDEST DUP1 PUSH20 0xFFFFFFFFFFFFFFFFFFFFFFFFFFFFFFFFFFFFFFFF AND PUSH2 0x8FC CALLVALUE SWAP1 DUP2 ISZERO MUL SWAP1 PUSH1 0x40 MLOAD PUSH0 PUSH1 0x40 MLOAD DUP1 DUP4 SUB DUP2 DUP6 DUP9 DUP9 CALL SWAP4 POP POP POP POP ISZERO DUP1 ISZERO PUSH2 0x8BA JUMPI RETURNDATASIZE PUSH0 DUP1 RETURNDATACOPY RETURNDATASIZE PUSH0 REVERT JUMPDEST POP POP JUMP JUMPDEST PUSH1 0xB SLOAD TIMESTAMP LT PUSH2 0x902 JUMPI PUSH1 0x40 MLOAD PUSH32 0x8C379A000000000000000000000000000000000000000000000000000000000 DUP2 MSTORE PUSH1 0x4 ADD PUSH2 0x8F9 SWAP1 PUSH2 0x2709 JUMP JUMPDEST PUSH1 0x40 MLOAD DUP1 SWAP2 SUB SWAP1 REVERT JUMPDEST PUSH0 DUP1 PUSH0 CALLER PUSH20 0xFFFFFFFFFFFFFFFFFFFFFFFFFFFFFFFFFFFFFFFF AND PUSH20 0xFFFFFFFFFFFFFFFFFFFFFFFFFFFFFFFFFFFFFFFF AND DUP2 MSTORE PUSH1 0x20 ADD SWAP1 DUP2 MSTORE PUSH1 0x20 ADD PUSH0 KECCAK256 SLOAD SUB PUSH2 0x980 JUMPI PUSH1 0x40 MLOAD PUSH32 0x8C379A000000000000000000000000000000000000000000000000000000000 DUP2 MSTORE PUSH1 0x4 ADD PUSH2 0x977 SWAP1 PUSH2 0x2E03 JUMP JUMPDEST PUSH1 0x40 MLOAD DUP1 SWAP2 SUB SWAP1 REVERT JUMPDEST PUSH0 DUP1 PUSH0 CALLER PUSH20 0xFFFFFFFFFFFFFFFFFFFFFFFFFFFFFFFFFFFFFFFF AND PUSH20 0xFFFFFFFFFFFFFFFFFFFFFFFFFFFFFFFFFFFFFFFF AND DUP2 MSTORE PUSH1 0x20 ADD SWAP1 DUP2 MSTORE PUSH1 0x20 ADD PUSH0 KECCAK256 SLOAD SWAP1 POP PUSH0 DUP1 PUSH0 CALLER PUSH20 0xFFFFFFFFFFFFFFFFFFFFFFFFFFFFFFFFFFFFFFFF AND PUSH20 0xFFFFFFFFFFFFFFFFFFFFFFFFFFFFFFFFFFFFFFFF AND DUP2 MSTORE PUSH1 0x20 ADD SWAP1 DUP2 MSTORE PUSH1 0x20 ADD PUSH0 KECCAK256 DUP2 SWAP1 SSTORE POP PUSH2 0xA0A DUP2 PUSH2 0x18E0 JUMP JUMPDEST PUSH20 0x0 PUSH4 0x5A8D4625 PUSH1 0x1 PUSH20 0x0 PUSH4 0x1C07C87F PUSH1 0x1 CALLER PUSH1 0x40 MLOAD DUP4 PUSH4 0xFFFFFFFF AND PUSH1 0xE0 SHL DUP2 MSTORE PUSH1 0x4 ADD PUSH2 0xA60 SWAP3 SWAP2 SWAP1 PUSH2 0x2F46 JUMP JUMPDEST PUSH1 0x20 PUSH1 0x40 MLOAD DUP1 DUP4 SUB DUP2 DUP7 GAS DELEGATECALL ISZERO DUP1 ISZERO PUSH2 0xA7B JUMPI RETURNDATASIZE PUSH0 DUP1 RETURNDATACOPY RETURNDATASIZE PUSH0 REVERT JUMPDEST POP POP POP POP PUSH1 0x40 MLOAD RETURNDATASIZE PUSH1 0x1F NOT PUSH1 0x1F DUP3 ADD AND DUP3 ADD DUP1 PUSH1 0x40 MSTORE POP DUP2 ADD SWAP1 PUSH2 0xA9F SWAP2 SWAP1 PUSH2 0x2F88 JUMP JUMPDEST PUSH1 0x40 MLOAD DUP4 PUSH4 0xFFFFFFFF AND PUSH1 0xE0 SHL DUP2 MSTORE PUSH1 0x4 ADD PUSH2 0xABC SWAP3 SWAP2 SWAP1 PUSH2 0x2FB3 JUMP JUMPDEST PUSH0 PUSH1 0x40 MLOAD DUP1 DUP4 SUB DUP2 DUP7 GAS DELEGATECALL ISZERO DUP1 ISZERO PUSH2 0xAD6 JUMPI RETURNDATASIZE PUSH0 DUP1 RETURNDATACOPY RETURNDATASIZE PUSH0 REVERT JUMPDEST POP POP POP POP PUSH1 0x40 MLOAD RETURNDATASIZE PUSH0 DUP3 RETURNDATACOPY RETURNDATASIZE PUSH1 0x1F NOT PUSH1 0x1F DUP3 ADD AND DUP3 ADD DUP1 PUSH1 0x40 MSTORE POP DUP2 ADD SWAP1 PUSH2 0xAFE SWAP2 SWAP1 PUSH2 0x30B9 JUMP JUMPDEST PUSH1 0x1 SWAP1 DUP1 MLOAD SWAP1 PUSH1 0x20 ADD SWAP1 PUSH2 0xB13 SWAP3 SWAP2 SWAP1 PUSH2 0x1DCB JUMP JUMPDEST POP PUSH32 0x1E4BA8038DF092A6A9CC2400D85E4BCDABAE0834FCAD0EE391A8DFF246EF4254 CALLER DUP3 PUSH1 0x40 MLOAD PUSH2 0xB45 SWAP3 SWAP2 SWAP1 PUSH2 0x278F JUMP JUMPDEST PUSH1 0x40 MLOAD DUP1 SWAP2 SUB SWAP1 LOG1 POP JUMP JUMPDEST PUSH2 0xB58 PUSH2 0x1E52 JUMP JUMPDEST PUSH1 0x40 MLOAD DUP1 PUSH1 0x40 ADD PUSH1 0x40 MSTORE DUP1 PUSH1 0xA SLOAD DUP2 MSTORE PUSH1 0x20 ADD PUSH1 0xB SLOAD DUP2 MSTORE POP SWAP1 POP SWAP1 JUMP JUMPDEST PUSH1 0xE PUSH0 SWAP1 SLOAD SWAP1 PUSH2 0x100 EXP SWAP1 DIV PUSH20 0xFFFFFFFFFFFFFFFFFFFFFFFFFFFFFFFFFFFFFFFF AND PUSH20 0xFFFFFFFFFFFFFFFFFFFFFFFFFFFFFFFFFFFFFFFF AND CALLER PUSH20 0xFFFFFFFFFFFFFFFFFFFFFFFFFFFFFFFFFFFFFFFF AND EQ PUSH2 0xC05 JUMPI PUSH1 0x40 MLOAD PUSH32 0x8C379A000000000000000000000000000000000000000000000000000000000 DUP2 MSTORE PUSH1 0x4 ADD PUSH2 0xBFC SWAP1 PUSH2 0x3170 JUMP JUMPDEST PUSH1 0x40 MLOAD DUP1 SWAP2 SUB SWAP1 REVERT JUMPDEST DUP1 PUSH1 0xD DUP2 SWAP1 SSTORE POP POP JUMP JUMPDEST PUSH2 0xC17 PUSH2 0x1E6A JUMP JUMPDEST PUSH1 0x3 PUSH1 0x40 MLOAD DUP1 PUSH1 0xE0 ADD PUSH1 0x40 MSTORE SWAP1 DUP2 PUSH0 DUP3 ADD PUSH0 SWAP1 SLOAD SWAP1 PUSH2 0x100 EXP SWAP1 DIV PUSH20 0xFFFFFFFFFFFFFFFFFFFFFFFFFFFFFFFFFFFFFFFF AND PUSH20 0xFFFFFFFFFFFFFFFFFFFFFFFFFFFFFFFFFFFFFFFF AND PUSH20 0xFFFFFFFFFFFFFFFFFFFFFFFFFFFFFFFFFFFFFFFF AND DUP2 MSTORE PUSH1 0x20 ADD PUSH1 0x1 DUP3 ADD DUP1 SLOAD PUSH2 0xC88 SWAP1 PUSH2 0x2A85 JUMP JUMPDEST DUP1 PUSH1 0x1F ADD PUSH1 0x20 DUP1 SWAP2 DIV MUL PUSH1 0x20 ADD PUSH1 0x40 MLOAD SWAP1 DUP2 ADD PUSH1 0x40 MSTORE DUP1 SWAP3 SWAP2 SWAP1 DUP2 DUP2 MSTORE PUSH1 0x20 ADD DUP3 DUP1 SLOAD PUSH2 0xCB4 SWAP1 PUSH2 0x2A85 JUMP JUMPDEST DUP1 ISZERO PUSH2 0xCFF JUMPI DUP1 PUSH1 0x1F LT PUSH2 0xCD6 JUMPI PUSH2 0x100 DUP1 DUP4 SLOAD DIV MUL DUP4 MSTORE SWAP2 PUSH1 0x20 ADD SWAP2 PUSH2 0xCFF JUMP JUMPDEST DUP3 ADD SWAP2 SWAP1 PUSH0 MSTORE PUSH1 0x20 PUSH0 KECCAK256 SWAP1 JUMPDEST DUP2 SLOAD DUP2 MSTORE SWAP1 PUSH1 0x1 ADD SWAP1 PUSH1 0x20 ADD DUP1 DUP4 GT PUSH2 0xCE2 JUMPI DUP3 SWAP1 SUB PUSH1 0x1F AND DUP3 ADD SWAP2 JUMPDEST POP POP POP POP POP DUP2 MSTORE PUSH1 0x20 ADD PUSH1 0x2 DUP3 ADD DUP1 SLOAD PUSH2 0xD18 SWAP1 PUSH2 0x2A85 JUMP JUMPDEST DUP1 PUSH1 0x1F ADD PUSH1 0x20 DUP1 SWAP2 DIV MUL PUSH1 0x20 ADD PUSH1 0x40 MLOAD SWAP1 DUP2 ADD PUSH1 0x40 MSTORE DUP1 SWAP3 SWAP2 SWAP1 DUP2 DUP2 MSTORE PUSH1 0x20 ADD DUP3 DUP1 SLOAD PUSH2 0xD44 SWAP1 PUSH2 0x2A85 JUMP JUMPDEST DUP1 ISZERO PUSH2 0xD8F JUMPI DUP1 PUSH1 0x1F LT PUSH2 0xD66 JUMPI PUSH2 0x100 DUP1 DUP4 SLOAD DIV MUL DUP4 MSTORE SWAP2 PUSH1 0x20 ADD SWAP2 PUSH2 0xD8F JUMP JUMPDEST DUP3 ADD SWAP2 SWAP1 PUSH0 MSTORE PUSH1 0x20 PUSH0 KECCAK256 SWAP1 JUMPDEST DUP2 SLOAD DUP2 MSTORE SWAP1 PUSH1 0x1 ADD SWAP1 PUSH1 0x20 ADD DUP1 DUP4 GT PUSH2 0xD72 JUMPI DUP3 SWAP1 SUB PUSH1 0x1F AND DUP3 ADD SWAP2 JUMPDEST POP POP POP POP POP DUP2 MSTORE PUSH1 0x20 ADD PUSH1 0x3 DUP3 ADD SLOAD DUP2 MSTORE PUSH1 0x20 ADD PUSH1 0x4 DUP3 ADD SLOAD DUP2 MSTORE PUSH1 0x20 ADD PUSH1 0x5 DUP3 ADD SLOAD DUP2 MSTORE PUSH1 0x20 ADD PUSH1 0x6 DUP3 ADD SLOAD DUP2 MSTORE POP POP SWAP1 POP SWAP1 JUMP JUMPDEST PUSH0 DUP1 PUSH1 0xF PUSH0 SWAP1 SLOAD SWAP1 PUSH2 0x100 EXP SWAP1 DIV PUSH20 0xFFFFFFFFFFFFFFFFFFFFFFFFFFFFFFFFFFFFFFFF AND PUSH20 0xFFFFFFFFFFFFFFFFFFFFFFFFFFFFFFFFFFFFFFFF AND PUSH4 0x8E15F473 PUSH1 0x40 MLOAD DUP2 PUSH4 0xFFFFFFFF AND PUSH1 0xE0 SHL DUP2 MSTORE PUSH1 0x4 ADD PUSH1 0x20 PUSH1 0x40 MLOAD DUP1 DUP4 SUB DUP2 DUP7 GAS STATICCALL ISZERO DUP1 ISZERO PUSH2 0xE31 JUMPI RETURNDATASIZE PUSH0 DUP1 RETURNDATACOPY RETURNDATASIZE PUSH0 REVERT JUMPDEST POP POP POP POP PUSH1 0x40 MLOAD RETURNDATASIZE PUSH1 0x1F NOT PUSH1 0x1F DUP3 ADD AND DUP3 ADD DUP1 PUSH1 0x40 MSTORE POP DUP2 ADD SWAP1 PUSH2 0xE55 SWAP2 SWAP1 PUSH2 0x2F88 JUMP JUMPDEST SWAP1 POP DUP1 SWAP2 POP POP SWAP1 JUMP JUMPDEST PUSH1 0x3 DUP1 PUSH0 ADD PUSH0 SWAP1 SLOAD SWAP1 PUSH2 0x100 EXP SWAP1 DIV PUSH20 0xFFFFFFFFFFFFFFFFFFFFFFFFFFFFFFFFFFFFFFFF AND SWAP1 DUP1 PUSH1 0x1 ADD DUP1 SLOAD PUSH2 0xE93 SWAP1 PUSH2 0x2A85 JUMP JUMPDEST DUP1 PUSH1 0x1F ADD PUSH1 0x20 DUP1 SWAP2 DIV MUL PUSH1 0x20 ADD PUSH1 0x40 MLOAD SWAP1 DUP2 ADD PUSH1 0x40 MSTORE DUP1 SWAP3 SWAP2 SWAP1 DUP2 DUP2 MSTORE PUSH1 0x20 ADD DUP3 DUP1 SLOAD PUSH2 0xEBF SWAP1 PUSH2 0x2A85 JUMP JUMPDEST DUP1 ISZERO PUSH2 0xF0A JUMPI DUP1 PUSH1 0x1F LT PUSH2 0xEE1 JUMPI PUSH2 0x100 DUP1 DUP4 SLOAD DIV MUL DUP4 MSTORE SWAP2 PUSH1 0x20 ADD SWAP2 PUSH2 0xF0A JUMP JUMPDEST DUP3 ADD SWAP2 SWAP1 PUSH0 MSTORE PUSH1 0x20 PUSH0 KECCAK256 SWAP1 JUMPDEST DUP2 SLOAD DUP2 MSTORE SWAP1 PUSH1 0x1 ADD SWAP1 PUSH1 0x20 ADD DUP1 DUP4 GT PUSH2 0xEED JUMPI DUP3 SWAP1 SUB PUSH1 0x1F AND DUP3 ADD SWAP2 JUMPDEST POP POP POP POP POP SWAP1 DUP1 PUSH1 0x2 ADD DUP1 SLOAD PUSH2 0xF1F SWAP1 PUSH2 0x2A85 JUMP JUMPDEST DUP1 PUSH1 0x1F ADD PUSH1 0x20 DUP1 SWAP2 DIV MUL PUSH1 0x20 ADD PUSH1 0x40 MLOAD SWAP1 DUP2 ADD PUSH1 0x40 MSTORE DUP1 SWAP3 SWAP2 SWAP1 DUP2 DUP2 MSTORE PUSH1 0x20 ADD DUP3 DUP1 SLOAD PUSH2 0xF4B SWAP1 PUSH2 0x2A85 JUMP JUMPDEST DUP1 ISZERO PUSH2 0xF96 JUMPI DUP1 PUSH1 0x1F LT PUSH2 0xF6D JUMPI PUSH2 0x100 DUP1 DUP4 SLOAD DIV MUL DUP4 MSTORE SWAP2 PUSH1 0x20 ADD SWAP2 PUSH2 0xF96 JUMP JUMPDEST DUP3 ADD SWAP2 SWAP1 PUSH0 MSTORE PUSH1 0x20 PUSH0 KECCAK256 SWAP1 JUMPDEST DUP2 SLOAD DUP2 MSTORE SWAP1 PUSH1 0x1 ADD SWAP1 PUSH1 0x20 ADD DUP1 DUP4 GT PUSH2 0xF79 JUMPI DUP3 SWAP1 SUB PUSH1 0x1F AND DUP3 ADD SWAP2 JUMPDEST POP POP POP POP POP SWAP1 DUP1 PUSH1 0x3 ADD SLOAD SWAP1 DUP1 PUSH1 0x4 ADD SLOAD SWAP1 DUP1 PUSH1 0x5 ADD SLOAD SWAP1 DUP1 PUSH1 0x6 ADD SLOAD SWAP1 POP DUP8 JUMP JUMPDEST PUSH1 0xE PUSH0 SWAP1 SLOAD SWAP1 PUSH2 0x100 EXP SWAP1 DIV PUSH20 0xFFFFFFFFFFFFFFFFFFFFFFFFFFFFFFFFFFFFFFFF AND PUSH20 0xFFFFFFFFFFFFFFFFFFFFFFFFFFFFFFFFFFFFFFFF AND CALLER PUSH20 0xFFFFFFFFFFFFFFFFFFFFFFFFFFFFFFFFFFFFFFFF AND EQ PUSH2 0x1047 JUMPI PUSH1 0x40 MLOAD PUSH32 0x8C379A000000000000000000000000000000000000000000000000000000000 DUP2 MSTORE PUSH1 0x4 ADD PUSH2 0x103E SWAP1 PUSH2 0x3170 JUMP JUMPDEST PUSH1 0x40 MLOAD DUP1 SWAP2 SUB SWAP1 REVERT JUMPDEST PUSH0 PUSH1 0x2 DUP1 SLOAD SWAP1 POP GT ISZERO PUSH2 0x11AA JUMPI PUSH0 PUSH20 0x0 PUSH4 0x4CDE5371 PUSH1 0x2 PUSH1 0x40 MLOAD DUP3 PUSH4 0xFFFFFFFF AND PUSH1 0xE0 SHL DUP2 MSTORE PUSH1 0x4 ADD PUSH2 0x108D SWAP2 SWAP1 PUSH2 0x3415 JUMP JUMPDEST PUSH1 0x20 PUSH1 0x40 MLOAD DUP1 DUP4 SUB DUP2 DUP7 GAS DELEGATECALL ISZERO DUP1 ISZERO PUSH2 0x10A8 JUMPI RETURNDATASIZE PUSH0 DUP1 RETURNDATACOPY RETURNDATASIZE PUSH0 REVERT JUMPDEST POP POP POP POP PUSH1 0x40 MLOAD RETURNDATASIZE PUSH1 0x1F NOT PUSH1 0x1F DUP3 ADD AND DUP3 ADD DUP1 PUSH1 0x40 MSTORE POP DUP2 ADD SWAP1 PUSH2 0x10CC SWAP2 SWAP1 PUSH2 0x2F88 JUMP JUMPDEST SWAP1 POP PUSH1 0x2 DUP2 DUP2 SLOAD DUP2 LT PUSH2 0x10E2 JUMPI PUSH2 0x10E1 PUSH2 0x3435 JUMP JUMPDEST JUMPDEST SWAP1 PUSH0 MSTORE PUSH1 0x20 PUSH0 KECCAK256 SWAP1 PUSH1 0x7 MUL ADD PUSH1 0x3 PUSH0 DUP3 ADD PUSH0 SWAP1 SLOAD SWAP1 PUSH2 0x100 EXP SWAP1 DIV PUSH20 0xFFFFFFFFFFFFFFFFFFFFFFFFFFFFFFFFFFFFFFFF AND DUP2 PUSH0 ADD PUSH0 PUSH2 0x100 EXP DUP2 SLOAD DUP2 PUSH20 0xFFFFFFFFFFFFFFFFFFFFFFFFFFFFFFFFFFFFFFFF MUL NOT AND SWAP1 DUP4 PUSH20 0xFFFFFFFFFFFFFFFFFFFFFFFFFFFFFFFFFFFFFFFF AND MUL OR SWAP1 SSTORE POP PUSH1 0x1 DUP3 ADD DUP2 PUSH1 0x1 ADD SWAP1 DUP2 PUSH2 0x1167 SWAP2 SWAP1 PUSH2 0x3477 JUMP JUMPDEST POP PUSH1 0x2 DUP3 ADD DUP2 PUSH1 0x2 ADD SWAP1 DUP2 PUSH2 0x117C SWAP2 SWAP1 PUSH2 0x3477 JUMP JUMPDEST POP PUSH1 0x3 DUP3 ADD SLOAD DUP2 PUSH1 0x3 ADD SSTORE PUSH1 0x4 DUP3 ADD SLOAD DUP2 PUSH1 0x4 ADD SSTORE PUSH1 0x5 DUP3 ADD SLOAD DUP2 PUSH1 0x5 ADD SSTORE PUSH1 0x6 DUP3 ADD SLOAD DUP2 PUSH1 0x6 ADD SSTORE SWAP1 POP POP POP JUMPDEST TIMESTAMP PUSH1 0xA DUP2 SWAP1 SSTORE POP PUSH2 0x12C PUSH1 0xA SLOAD PUSH2 0x11C1 SWAP2 SWAP1 PUSH2 0x3589 JUMP JUMPDEST PUSH1 0xB DUP2 SWAP1 SSTORE POP PUSH2 0x11CF PUSH2 0x1A51 JUMP JUMPDEST PUSH2 0x11D7 PUSH2 0x1AF7 JUMP JUMPDEST JUMP JUMPDEST PUSH1 0x60 PUSH1 0x2 DUP1 SLOAD DUP1 PUSH1 0x20 MUL PUSH1 0x20 ADD PUSH1 0x40 MLOAD SWAP1 DUP2 ADD PUSH1 0x40 MSTORE DUP1 SWAP3 SWAP2 SWAP1 DUP2 DUP2 MSTORE PUSH1 0x20 ADD PUSH0 SWAP1 JUMPDEST DUP3 DUP3 LT ISZERO PUSH2 0x13C8 JUMPI DUP4 DUP3 SWAP1 PUSH0 MSTORE PUSH1 0x20 PUSH0 KECCAK256 SWAP1 PUSH1 0x7 MUL ADD PUSH1 0x40 MLOAD DUP1 PUSH1 0xE0 ADD PUSH1 0x40 MSTORE SWAP1 DUP2 PUSH0 DUP3 ADD PUSH0 SWAP1 SLOAD SWAP1 PUSH2 0x100 EXP SWAP1 DIV PUSH20 0xFFFFFFFFFFFFFFFFFFFFFFFFFFFFFFFFFFFFFFFF AND PUSH20 0xFFFFFFFFFFFFFFFFFFFFFFFFFFFFFFFFFFFFFFFF AND PUSH20 0xFFFFFFFFFFFFFFFFFFFFFFFFFFFFFFFFFFFFFFFF AND DUP2 MSTORE PUSH1 0x20 ADD PUSH1 0x1 DUP3 ADD DUP1 SLOAD PUSH2 0x1281 SWAP1 PUSH2 0x2A85 JUMP JUMPDEST DUP1 PUSH1 0x1F ADD PUSH1 0x20 DUP1 SWAP2 DIV MUL PUSH1 0x20 ADD PUSH1 0x40 MLOAD SWAP1 DUP2 ADD PUSH1 0x40 MSTORE DUP1 SWAP3 SWAP2 SWAP1 DUP2 DUP2 MSTORE PUSH1 0x20 ADD DUP3 DUP1 SLOAD PUSH2 0x12AD SWAP1 PUSH2 0x2A85 JUMP JUMPDEST DUP1 ISZERO PUSH2 0x12F8 JUMPI DUP1 PUSH1 0x1F LT PUSH2 0x12CF JUMPI PUSH2 0x100 DUP1 DUP4 SLOAD DIV MUL DUP4 MSTORE SWAP2 PUSH1 0x20 ADD SWAP2 PUSH2 0x12F8 JUMP JUMPDEST DUP3 ADD SWAP2 SWAP1 PUSH0 MSTORE PUSH1 0x20 PUSH0 KECCAK256 SWAP1 JUMPDEST DUP2 SLOAD DUP2 MSTORE SWAP1 PUSH1 0x1 ADD SWAP1 PUSH1 0x20 ADD DUP1 DUP4 GT PUSH2 0x12DB JUMPI DUP3 SWAP1 SUB PUSH1 0x1F AND DUP3 ADD SWAP2 JUMPDEST POP POP POP POP POP DUP2 MSTORE PUSH1 0x20 ADD PUSH1 0x2 DUP3 ADD DUP1 SLOAD PUSH2 0x1311 SWAP1 PUSH2 0x2A85 JUMP JUMPDEST DUP1 PUSH1 0x1F ADD PUSH1 0x20 DUP1 SWAP2 DIV MUL PUSH1 0x20 ADD PUSH1 0x40 MLOAD SWAP1 DUP2 ADD PUSH1 0x40 MSTORE DUP1 SWAP3 SWAP2 SWAP1 DUP2 DUP2 MSTORE PUSH1 0x20 ADD DUP3 DUP1 SLOAD PUSH2 0x133D SWAP1 PUSH2 0x2A85 JUMP JUMPDEST DUP1 ISZERO PUSH2 0x1388 JUMPI DUP1 PUSH1 0x1F LT PUSH2 0x135F JUMPI PUSH2 0x100 DUP1 DUP4 SLOAD DIV MUL DUP4 MSTORE SWAP2 PUSH1 0x20 ADD SWAP2 PUSH2 0x1388 JUMP JUMPDEST DUP3 ADD SWAP2 SWAP1 PUSH0 MSTORE PUSH1 0x20 PUSH0 KECCAK256 SWAP1 JUMPDEST DUP2 SLOAD DUP2 MSTORE SWAP1 PUSH1 0x1 ADD SWAP1 PUSH1 0x20 ADD DUP1 DUP4 GT PUSH2 0x136B JUMPI DUP3 SWAP1 SUB PUSH1 0x1F AND DUP3 ADD SWAP2 JUMPDEST POP POP POP POP POP DUP2 MSTORE PUSH1 0x20 ADD PUSH1 0x3 DUP3 ADD SLOAD DUP2 MSTORE PUSH1 0x20 ADD PUSH1 0x4 DUP3 ADD SLOAD DUP2 MSTORE PUSH1 0x20 ADD PUSH1 0x5 DUP3 ADD SLOAD DUP2 MSTORE PUSH1 0x20 ADD PUSH1 0x6 DUP3 ADD SLOAD DUP2 MSTORE POP POP DUP2 MSTORE PUSH1 0x20 ADD SWAP1 PUSH1 0x1 ADD SWAP1 PUSH2 0x11FC JUMP JUMPDEST POP POP POP POP SWAP1 POP SWAP1 JUMP JUMPDEST PUSH0 PUSH1 0xD SLOAD SWAP1 POP SWAP1 JUMP JUMPDEST PUSH2 0x13E2 PUSH2 0x1E6A JUMP JUMPDEST PUSH0 PUSH1 0x40 MLOAD DUP1 PUSH1 0xE0 ADD PUSH1 0x40 MSTORE DUP1 PUSH0 PUSH20 0xFFFFFFFFFFFFFFFFFFFFFFFFFFFFFFFFFFFFFFFF AND DUP2 MSTORE PUSH1 0x20 ADD PUSH1 0x40 MLOAD DUP1 PUSH1 0x20 ADD PUSH1 0x40 MSTORE DUP1 PUSH0 DUP2 MSTORE POP DUP2 MSTORE PUSH1 0x20 ADD PUSH1 0x40 MLOAD DUP1 PUSH1 0x20 ADD PUSH1 0x40 MSTORE DUP1 PUSH0 DUP2 MSTORE POP DUP2 MSTORE PUSH1 0x20 ADD PUSH0 DUP2 MSTORE PUSH1 0x20 ADD PUSH0 DUP2 MSTORE PUSH1 0x20 ADD PUSH0 DUP2 MSTORE PUSH1 0x20 ADD PUSH0 DUP1 SHL DUP2 MSTORE POP SWAP1 POP PUSH0 PUSH20 0x0 PUSH4 0x4CDE5371 PUSH1 0x2 PUSH1 0x40 MLOAD DUP3 PUSH4 0xFFFFFFFF AND PUSH1 0xE0 SHL DUP2 MSTORE PUSH1 0x4 ADD PUSH2 0x1485 SWAP2 SWAP1 PUSH2 0x3415 JUMP JUMPDEST PUSH1 0x20 PUSH1 0x40 MLOAD DUP1 DUP4 SUB DUP2 DUP7 GAS DELEGATECALL ISZERO DUP1 ISZERO PUSH2 0x14A0 JUMPI RETURNDATASIZE PUSH0 DUP1 RETURNDATACOPY RETURNDATASIZE PUSH0 REVERT JUMPDEST POP POP POP POP PUSH1 0x40 MLOAD RETURNDATASIZE PUSH1 0x1F NOT PUSH1 0x1F DUP3 ADD AND DUP3 ADD DUP1 PUSH1 0x40 MSTORE POP DUP2 ADD SWAP1 PUSH2 0x14C4 SWAP2 SWAP1 PUSH2 0x2F88 JUMP JUMPDEST LT ISZERO PUSH2 0x14D0 JUMPI DUP1 PUSH2 0x170E JUMP JUMPDEST PUSH1 0x2 PUSH20 0x0 PUSH4 0x4CDE5371 PUSH1 0x2 PUSH1 0x40 MLOAD DUP3 PUSH4 0xFFFFFFFF AND PUSH1 0xE0 SHL DUP2 MSTORE PUSH1 0x4 ADD PUSH2 0x150A SWAP2 SWAP1 PUSH2 0x3415 JUMP JUMPDEST PUSH1 0x20 PUSH1 0x40 MLOAD DUP1 DUP4 SUB DUP2 DUP7 GAS DELEGATECALL ISZERO DUP1 ISZERO PUSH2 0x1525 JUMPI RETURNDATASIZE PUSH0 DUP1 RETURNDATACOPY RETURNDATASIZE PUSH0 REVERT JUMPDEST POP POP POP POP PUSH1 0x40 MLOAD RETURNDATASIZE PUSH1 0x1F NOT PUSH1 0x1F DUP3 ADD AND DUP3 ADD DUP1 PUSH1 0x40 MSTORE POP DUP2 ADD SWAP1 PUSH2 0x1549 SWAP2 SWAP1 PUSH2 0x2F88 JUMP JUMPDEST DUP2 SLOAD DUP2 LT PUSH2 0x155A JUMPI PUSH2 0x1559 PUSH2 0x3435 JUMP JUMPDEST JUMPDEST SWAP1 PUSH0 MSTORE PUSH1 0x20 PUSH0 KECCAK256 SWAP1 PUSH1 0x7 MUL ADD PUSH1 0x40 MLOAD DUP1 PUSH1 0xE0 ADD PUSH1 0x40 MSTORE SWAP1 DUP2 PUSH0 DUP3 ADD PUSH0 SWAP1 SLOAD SWAP1 PUSH2 0x100 EXP SWAP1 DIV PUSH20 0xFFFFFFFFFFFFFFFFFFFFFFFFFFFFFFFFFFFFFFFF AND PUSH20 0xFFFFFFFFFFFFFFFFFFFFFFFFFFFFFFFFFFFFFFFF AND PUSH20 0xFFFFFFFFFFFFFFFFFFFFFFFFFFFFFFFFFFFFFFFF AND DUP2 MSTORE PUSH1 0x20 ADD PUSH1 0x1 DUP3 ADD DUP1 SLOAD PUSH2 0x15D5 SWAP1 PUSH2 0x2A85 JUMP JUMPDEST DUP1 PUSH1 0x1F ADD PUSH1 0x20 DUP1 SWAP2 DIV MUL PUSH1 0x20 ADD PUSH1 0x40 MLOAD SWAP1 DUP2 ADD PUSH1 0x40 MSTORE DUP1 SWAP3 SWAP2 SWAP1 DUP2 DUP2 MSTORE PUSH1 0x20 ADD DUP3 DUP1 SLOAD PUSH2 0x1601 SWAP1 PUSH2 0x2A85 JUMP JUMPDEST DUP1 ISZERO PUSH2 0x164C JUMPI DUP1 PUSH1 0x1F LT PUSH2 0x1623 JUMPI PUSH2 0x100 DUP1 DUP4 SLOAD DIV MUL DUP4 MSTORE SWAP2 PUSH1 0x20 ADD SWAP2 PUSH2 0x164C JUMP JUMPDEST DUP3 ADD SWAP2 SWAP1 PUSH0 MSTORE PUSH1 0x20 PUSH0 KECCAK256 SWAP1 JUMPDEST DUP2 SLOAD DUP2 MSTORE SWAP1 PUSH1 0x1 ADD SWAP1 PUSH1 0x20 ADD DUP1 DUP4 GT PUSH2 0x162F JUMPI DUP3 SWAP1 SUB PUSH1 0x1F AND DUP3 ADD SWAP2 JUMPDEST POP POP POP POP POP DUP2 MSTORE PUSH1 0x20 ADD PUSH1 0x2 DUP3 ADD DUP1 SLOAD PUSH2 0x1665 SWAP1 PUSH2 0x2A85 JUMP JUMPDEST DUP1 PUSH1 0x1F ADD PUSH1 0x20 DUP1 SWAP2 DIV MUL PUSH1 0x20 ADD PUSH1 0x40 MLOAD SWAP1 DUP2 ADD PUSH1 0x40 MSTORE DUP1 SWAP3 SWAP2 SWAP1 DUP2 DUP2 MSTORE PUSH1 0x20 ADD DUP3 DUP1 SLOAD PUSH2 0x1691 SWAP1 PUSH2 0x2A85 JUMP JUMPDEST DUP1 ISZERO PUSH2 0x16DC JUMPI DUP1 PUSH1 0x1F LT PUSH2 0x16B3 JUMPI PUSH2 0x100 DUP1 DUP4 SLOAD DIV MUL DUP4 MSTORE SWAP2 PUSH1 0x20 ADD SWAP2 PUSH2 0x16DC JUMP JUMPDEST DUP3 ADD SWAP2 SWAP1 PUSH0 MSTORE PUSH1 0x20 PUSH0 KECCAK256 SWAP1 JUMPDEST DUP2 SLOAD DUP2 MSTORE SWAP1 PUSH1 0x1 ADD SWAP1 PUSH1 0x20 ADD DUP1 DUP4 GT PUSH2 0x16BF JUMPI DUP3 SWAP1 SUB PUSH1 0x1F AND DUP3 ADD SWAP2 JUMPDEST POP POP POP POP POP DUP2 MSTORE PUSH1 0x20 ADD PUSH1 0x3 DUP3 ADD SLOAD DUP2 MSTORE PUSH1 0x20 ADD PUSH1 0x4 DUP3 ADD SLOAD DUP2 MSTORE PUSH1 0x20 ADD PUSH1 0x5 DUP3 ADD SLOAD DUP2 MSTORE PUSH1 0x20 ADD PUSH1 0x6 DUP3 ADD SLOAD DUP2 MSTORE POP POP JUMPDEST SWAP2 POP POP SWAP1 JUMP JUMPDEST PUSH0 PUSH20 0x0 PUSH3 0x8F863F PUSH1 0x2 DUP5 PUSH1 0x40 MLOAD DUP4 PUSH4 0xFFFFFFFF AND PUSH1 0xE0 SHL DUP2 MSTORE PUSH1 0x4 ADD PUSH2 0x174E SWAP3 SWAP2 SWAP1 PUSH2 0x35BC JUMP JUMPDEST PUSH1 0x20 PUSH1 0x40 MLOAD DUP1 DUP4 SUB DUP2 DUP7 GAS DELEGATECALL ISZERO DUP1 ISZERO PUSH2 0x1769 JUMPI RETURNDATASIZE PUSH0 DUP1 RETURNDATACOPY RETURNDATASIZE PUSH0 REVERT JUMPDEST POP POP POP POP PUSH1 0x40 MLOAD RETURNDATASIZE PUSH1 0x1F NOT PUSH1 0x1F DUP3 ADD AND DUP3 ADD DUP1 PUSH1 0x40 MSTORE POP DUP2 ADD SWAP1 PUSH2 0x178D SWAP2 SWAP1 PUSH2 0x2F88 JUMP JUMPDEST SWAP1 POP PUSH1 0x2 DUP2 DUP2 SLOAD DUP2 LT PUSH2 0x17A3 JUMPI PUSH2 0x17A2 PUSH2 0x3435 JUMP JUMPDEST JUMPDEST SWAP1 PUSH0 MSTORE PUSH1 0x20 PUSH0 KECCAK256 SWAP1 PUSH1 0x7 MUL ADD PUSH1 0x4 ADD PUSH0 DUP2 SLOAD DUP1 SWAP3 SWAP2 SWAP1 PUSH2 0x17C2 SWAP1 PUSH2 0x35EA JUMP JUMPDEST SWAP2 SWAP1 POP SSTORE POP PUSH1 0x1 PUSH1 0x2 DUP3 DUP2 SLOAD DUP2 LT PUSH2 0x17DD JUMPI PUSH2 0x17DC PUSH2 0x3435 JUMP JUMPDEST JUMPDEST SWAP1 PUSH0 MSTORE PUSH1 0x20 PUSH0 KECCAK256 SWAP1 PUSH1 0x7 MUL ADD PUSH1 0x4 ADD SLOAD SUB PUSH2 0x184F JUMPI PUSH32 0xA14FA303A8E5427C5BA2E51EE094DFEC541C20057E16AF2878E60267E7D49D7F DUP3 PUSH1 0x2 DUP4 DUP2 SLOAD DUP2 LT PUSH2 0x1828 JUMPI PUSH2 0x1827 PUSH2 0x3435 JUMP JUMPDEST JUMPDEST SWAP1 PUSH0 MSTORE PUSH1 0x20 PUSH0 KECCAK256 SWAP1 PUSH1 0x7 MUL ADD PUSH1 0x4 ADD SLOAD PUSH1 0x40 MLOAD PUSH2 0x1846 SWAP3 SWAP2 SWAP1 PUSH2 0x3631 JUMP JUMPDEST PUSH1 0x40 MLOAD DUP1 SWAP2 SUB SWAP1 LOG1 JUMPDEST PUSH0 PUSH1 0xA PUSH1 0x2 DUP4 DUP2 SLOAD DUP2 LT PUSH2 0x1866 JUMPI PUSH2 0x1865 PUSH2 0x3435 JUMP JUMPDEST JUMPDEST SWAP1 PUSH0 MSTORE PUSH1 0x20 PUSH0 KECCAK256 SWAP1 PUSH1 0x7 MUL ADD PUSH1 0x4 ADD SLOAD PUSH2 0x1880 SWAP2 SWAP1 PUSH2 0x3685 JUMP JUMPDEST SUB PUSH2 0x18C0 JUMPI PUSH32 0xB700E294CB449B7867D52EC84FA350A01292558681A0C6FC5B424E3AA1D0BCBF DUP3 PUSH1 0xA PUSH1 0x40 MLOAD PUSH2 0x18B7 SWAP3 SWAP2 SWAP1 PUSH2 0x36F7 JUMP JUMPDEST PUSH1 0x40 MLOAD DUP1 SWAP2 SUB SWAP1 LOG1 JUMPDEST POP POP JUMP JUMPDEST PUSH0 PUSH1 0xC PUSH0 DUP2 SLOAD DUP1 SWAP3 SWAP2 SWAP1 PUSH2 0x18D7 SWAP1 PUSH2 0x35EA JUMP JUMPDEST SWAP2 SWAP1 POP SSTORE SWAP1 POP SWAP1 JUMP JUMPDEST DUP1 PUSH20 0x0 PUSH4 0xEBB596CE PUSH1 0x2 DUP4 PUSH1 0x40 MLOAD DUP4 PUSH4 0xFFFFFFFF AND PUSH1 0xE0 SHL DUP2 MSTORE PUSH1 0x4 ADD PUSH2 0x191B SWAP3 SWAP2 SWAP1 PUSH2 0x35BC JUMP JUMPDEST PUSH1 0x20 PUSH1 0x40 MLOAD DUP1 DUP4 SUB DUP2 DUP7 GAS DELEGATECALL ISZERO DUP1 ISZERO PUSH2 0x1936 JUMPI RETURNDATASIZE PUSH0 DUP1 RETURNDATACOPY RETURNDATASIZE PUSH0 REVERT JUMPDEST POP POP POP POP PUSH1 0x40 MLOAD RETURNDATASIZE PUSH1 0x1F NOT PUSH1 0x1F DUP3 ADD AND DUP3 ADD DUP1 PUSH1 0x40 MSTORE POP DUP2 ADD SWAP1 PUSH2 0x195A SWAP2 SWAP1 PUSH2 0x3753 JUMP JUMPDEST PUSH2 0x1999 JUMPI PUSH1 0x40 MLOAD PUSH32 0x8C379A000000000000000000000000000000000000000000000000000000000 DUP2 MSTORE PUSH1 0x4 ADD PUSH2 0x1990 SWAP1 PUSH2 0x37C8 JUMP JUMPDEST PUSH1 0x40 MLOAD DUP1 SWAP2 SUB SWAP1 REVERT JUMPDEST PUSH0 PUSH20 0x0 PUSH3 0x8F863F PUSH1 0x2 DUP6 PUSH1 0x40 MLOAD DUP4 PUSH4 0xFFFFFFFF AND PUSH1 0xE0 SHL DUP2 MSTORE PUSH1 0x4 ADD PUSH2 0x19D3 SWAP3 SWAP2 SWAP1 PUSH2 0x35BC JUMP JUMPDEST PUSH1 0x20 PUSH1 0x40 MLOAD DUP1 DUP4 SUB DUP2 DUP7 GAS DELEGATECALL ISZERO DUP1 ISZERO PUSH2 0x19EE JUMPI RETURNDATASIZE PUSH0 DUP1 RETURNDATACOPY RETURNDATASIZE PUSH0 REVERT JUMPDEST POP POP POP POP PUSH1 0x40 MLOAD RETURNDATASIZE PUSH1 0x1F NOT PUSH1 0x1F DUP3 ADD AND DUP3 ADD DUP1 PUSH1 0x40 MSTORE POP DUP2 ADD SWAP1 PUSH2 0x1A12 SWAP2 SWAP1 PUSH2 0x2F88 JUMP JUMPDEST SWAP1 POP PUSH1 0x2 DUP2 DUP2 SLOAD DUP2 LT PUSH2 0x1A28 JUMPI PUSH2 0x1A27 PUSH2 0x3435 JUMP JUMPDEST JUMPDEST SWAP1 PUSH0 MSTORE PUSH1 0x20 PUSH0 KECCAK256 SWAP1 PUSH1 0x7 MUL ADD PUSH1 0x4 ADD PUSH0 DUP2 SLOAD DUP1 SWAP3 SWAP2 SWAP1 PUSH2 0x1A47 SWAP1 PUSH2 0x37E6 JUMP JUMPDEST SWAP2 SWAP1 POP SSTORE POP POP POP POP JUMP JUMPDEST PUSH0 JUMPDEST PUSH1 0x1 DUP1 SLOAD SWAP1 POP DUP2 LT ISZERO PUSH2 0x1AE7 JUMPI PUSH0 DUP1 PUSH1 0x1 DUP4 DUP2 SLOAD DUP2 LT PUSH2 0x1A76 JUMPI PUSH2 0x1A75 PUSH2 0x3435 JUMP JUMPDEST JUMPDEST SWAP1 PUSH0 MSTORE PUSH1 0x20 PUSH0 KECCAK256 ADD PUSH0 SWAP1 SLOAD SWAP1 PUSH2 0x100 EXP SWAP1 DIV PUSH20 0xFFFFFFFFFFFFFFFFFFFFFFFFFFFFFFFFFFFFFFFF AND PUSH20 0xFFFFFFFFFFFFFFFFFFFFFFFFFFFFFFFFFFFFFFFF AND PUSH20 0xFFFFFFFFFFFFFFFFFFFFFFFFFFFFFFFFFFFFFFFF AND DUP2 MSTORE PUSH1 0x20 ADD SWAP1 DUP2 MSTORE PUSH1 0x20 ADD PUSH0 KECCAK256 PUSH0 SWAP1 SSTORE DUP1 DUP1 PUSH1 0x1 ADD SWAP2 POP POP PUSH2 0x1A53 JUMP JUMPDEST POP PUSH1 0x1 PUSH0 PUSH2 0x1AF5 SWAP2 SWAP1 PUSH2 0x1EBB JUMP JUMPDEST JUMP JUMPDEST PUSH0 PUSH20 0x0 PUSH4 0x4CDE5371 PUSH1 0x2 PUSH1 0x40 MLOAD DUP3 PUSH4 0xFFFFFFFF AND PUSH1 0xE0 SHL DUP2 MSTORE PUSH1 0x4 ADD PUSH2 0x1B30 SWAP2 SWAP1 PUSH2 0x3415 JUMP JUMPDEST PUSH1 0x20 PUSH1 0x40 MLOAD DUP1 DUP4 SUB DUP2 DUP7 GAS DELEGATECALL ISZERO DUP1 ISZERO PUSH2 0x1B4B JUMPI RETURNDATASIZE PUSH0 DUP1 RETURNDATACOPY RETURNDATASIZE PUSH0 REVERT JUMPDEST POP POP POP POP PUSH1 0x40 MLOAD RETURNDATASIZE PUSH1 0x1F NOT PUSH1 0x1F DUP3 ADD AND DUP3 ADD DUP1 PUSH1 0x40 MSTORE POP DUP2 ADD SWAP1 PUSH2 0x1B6F SWAP2 SWAP1 PUSH2 0x2F88 JUMP JUMPDEST SWAP1 POP PUSH32 0xB5F50F03F7B9AD95F7EA22225B7712FDA4854A73A69AD8967E9883F67D846AB4 PUSH1 0x2 DUP3 DUP2 SLOAD DUP2 LT PUSH2 0x1BA6 JUMPI PUSH2 0x1BA5 PUSH2 0x3435 JUMP JUMPDEST JUMPDEST SWAP1 PUSH0 MSTORE PUSH1 0x20 PUSH0 KECCAK256 SWAP1 PUSH1 0x7 MUL ADD PUSH1 0x5 ADD SLOAD PUSH1 0x40 MLOAD PUSH2 0x1BC3 SWAP2 SWAP1 PUSH2 0x244A JUMP JUMPDEST PUSH1 0x40 MLOAD DUP1 SWAP2 SUB SWAP1 LOG1 PUSH0 DUP2 SWAP1 POP JUMPDEST PUSH1 0x1 PUSH1 0x2 DUP1 SLOAD SWAP1 POP PUSH2 0x1BE2 SWAP2 SWAP1 PUSH2 0x380D JUMP JUMPDEST DUP2 LT ISZERO PUSH2 0x1CFA JUMPI PUSH1 0x2 PUSH1 0x1 DUP3 PUSH2 0x1BF8 SWAP2 SWAP1 PUSH2 0x3589 JUMP JUMPDEST DUP2 SLOAD DUP2 LT PUSH2 0x1C09 JUMPI PUSH2 0x1C08 PUSH2 0x3435 JUMP JUMPDEST JUMPDEST SWAP1 PUSH0 MSTORE PUSH1 0x20 PUSH0 KECCAK256 SWAP1 PUSH1 0x7 MUL ADD PUSH1 0x2 DUP3 DUP2 SLOAD DUP2 LT PUSH2 0x1C29 JUMPI PUSH2 0x1C28 PUSH2 0x3435 JUMP JUMPDEST JUMPDEST SWAP1 PUSH0 MSTORE PUSH1 0x20 PUSH0 KECCAK256 SWAP1 PUSH1 0x7 MUL ADD PUSH0 DUP3 ADD PUSH0 SWAP1 SLOAD SWAP1 PUSH2 0x100 EXP SWAP1 DIV PUSH20 0xFFFFFFFFFFFFFFFFFFFFFFFFFFFFFFFFFFFFFFFF AND DUP2 PUSH0 ADD PUSH0 PUSH2 0x100 EXP DUP2 SLOAD DUP2 PUSH20 0xFFFFFFFFFFFFFFFFFFFFFFFFFFFFFFFFFFFFFFFF MUL NOT AND SWAP1 DUP4 PUSH20 0xFFFFFFFFFFFFFFFFFFFFFFFFFFFFFFFFFFFFFFFF AND MUL OR SWAP1 SSTORE POP PUSH1 0x1 DUP3 ADD DUP2 PUSH1 0x1 ADD SWAP1 DUP2 PUSH2 0x1CAC SWAP2 SWAP1 PUSH2 0x3477 JUMP JUMPDEST POP PUSH1 0x2 DUP3 ADD DUP2 PUSH1 0x2 ADD SWAP1 DUP2 PUSH2 0x1CC1 SWAP2 SWAP1 PUSH2 0x3477 JUMP JUMPDEST POP PUSH1 0x3 DUP3 ADD SLOAD DUP2 PUSH1 0x3 ADD SSTORE PUSH1 0x4 DUP3 ADD SLOAD DUP2 PUSH1 0x4 ADD SSTORE PUSH1 0x5 DUP3 ADD SLOAD DUP2 PUSH1 0x5 ADD SSTORE PUSH1 0x6 DUP3 ADD SLOAD DUP2 PUSH1 0x6 ADD SSTORE SWAP1 POP POP DUP1 DUP1 PUSH1 0x1 ADD SWAP2 POP POP PUSH2 0x1BD0 JUMP JUMPDEST POP PUSH1 0x2 DUP1 SLOAD DUP1 PUSH2 0x1D0D JUMPI PUSH2 0x1D0C PUSH2 0x3840 JUMP JUMPDEST JUMPDEST PUSH1 0x1 SWAP1 SUB DUP2 DUP2 SWAP1 PUSH0 MSTORE PUSH1 0x20 PUSH0 KECCAK256 SWAP1 PUSH1 0x7 MUL ADD PUSH0 DUP1 DUP3 ADD PUSH0 PUSH2 0x100 EXP DUP2 SLOAD SWAP1 PUSH20 0xFFFFFFFFFFFFFFFFFFFFFFFFFFFFFFFFFFFFFFFF MUL NOT AND SWAP1 SSTORE PUSH1 0x1 DUP3 ADD PUSH0 PUSH2 0x1D54 SWAP2 SWAP1 PUSH2 0x1ED9 JUMP JUMPDEST PUSH1 0x2 DUP3 ADD PUSH0 PUSH2 0x1D63 SWAP2 SWAP1 PUSH2 0x1ED9 JUMP JUMPDEST PUSH1 0x3 DUP3 ADD PUSH0 SWAP1 SSTORE PUSH1 0x4 DUP3 ADD PUSH0 SWAP1 SSTORE PUSH1 0x5 DUP3 ADD PUSH0 SWAP1 SSTORE PUSH1 0x6 DUP3 ADD PUSH0 SWAP1 SSTORE POP POP SWAP1 SSTORE PUSH0 JUMPDEST PUSH1 0x2 DUP1 SLOAD SWAP1 POP DUP2 LT ISZERO PUSH2 0x1DC7 JUMPI PUSH0 PUSH1 0x2 DUP3 DUP2 SLOAD DUP2 LT PUSH2 0x1DA7 JUMPI PUSH2 0x1DA6 PUSH2 0x3435 JUMP JUMPDEST JUMPDEST SWAP1 PUSH0 MSTORE PUSH1 0x20 PUSH0 KECCAK256 SWAP1 PUSH1 0x7 MUL ADD PUSH1 0x4 ADD DUP2 SWAP1 SSTORE POP DUP1 DUP1 PUSH1 0x1 ADD SWAP2 POP POP PUSH2 0x1D85 JUMP JUMPDEST POP POP JUMP JUMPDEST DUP3 DUP1 SLOAD DUP3 DUP3 SSTORE SWAP1 PUSH0 MSTORE PUSH1 0x20 PUSH0 KECCAK256 SWAP1 DUP2 ADD SWAP3 DUP3 ISZERO PUSH2 0x1E41 JUMPI SWAP2 PUSH1 0x20 MUL DUP3 ADD JUMPDEST DUP3 DUP2 GT ISZERO PUSH2 0x1E40 JUMPI DUP3 MLOAD DUP3 PUSH0 PUSH2 0x100 EXP DUP2 SLOAD DUP2 PUSH20 0xFFFFFFFFFFFFFFFFFFFFFFFFFFFFFFFFFFFFFFFF MUL NOT AND SWAP1 DUP4 PUSH20 0xFFFFFFFFFFFFFFFFFFFFFFFFFFFFFFFFFFFFFFFF AND MUL OR SWAP1 SSTORE POP SWAP2 PUSH1 0x20 ADD SWAP2 SWAP1 PUSH1 0x1 ADD SWAP1 PUSH2 0x1DE9 JUMP JUMPDEST JUMPDEST POP SWAP1 POP PUSH2 0x1E4E SWAP2 SWAP1 PUSH2 0x1F16 JUMP JUMPDEST POP SWAP1 JUMP JUMPDEST PUSH1 0x40 MLOAD DUP1 PUSH1 0x40 ADD PUSH1 0x40 MSTORE DUP1 PUSH0 DUP2 MSTORE PUSH1 0x20 ADD PUSH0 DUP2 MSTORE POP SWAP1 JUMP JUMPDEST PUSH1 0x40 MLOAD DUP1 PUSH1 0xE0 ADD PUSH1 0x40 MSTORE DUP1 PUSH0 PUSH20 0xFFFFFFFFFFFFFFFFFFFFFFFFFFFFFFFFFFFFFFFF AND DUP2 MSTORE PUSH1 0x20 ADD PUSH1 0x60 DUP2 MSTORE PUSH1 0x20 ADD PUSH1 0x60 DUP2 MSTORE PUSH1 0x20 ADD PUSH0 DUP2 MSTORE PUSH1 0x20 ADD PUSH0 DUP2 MSTORE PUSH1 0x20 ADD PUSH0 DUP2 MSTORE PUSH1 0x20 ADD PUSH0 DUP1 NOT AND DUP2 MSTORE POP SWAP1 JUMP JUMPDEST POP DUP1 SLOAD PUSH0 DUP3 SSTORE SWAP1 PUSH0 MSTORE PUSH1 0x20 PUSH0 KECCAK256 SWAP1 DUP2 ADD SWAP1 PUSH2 0x1ED6 SWAP2 SWAP1 PUSH2 0x1F16 JUMP JUMPDEST POP JUMP JUMPDEST POP DUP1 SLOAD PUSH2 0x1EE5 SWAP1 PUSH2 0x2A85 JUMP JUMPDEST PUSH0 DUP3 SSTORE DUP1 PUSH1 0x1F LT PUSH2 0x1EF6 JUMPI POP PUSH2 0x1F13 JUMP JUMPDEST PUSH1 0x1F ADD PUSH1 0x20 SWAP1 DIV SWAP1 PUSH0 MSTORE PUSH1 0x20 PUSH0 KECCAK256 SWAP1 DUP2 ADD SWAP1 PUSH2 0x1F12 SWAP2 SWAP1 PUSH2 0x1F16 JUMP JUMPDEST JUMPDEST POP JUMP JUMPDEST JUMPDEST DUP1 DUP3 GT ISZERO PUSH2 0x1F2D JUMPI PUSH0 DUP2 PUSH0 SWAP1 SSTORE POP PUSH1 0x1 ADD PUSH2 0x1F17 JUMP JUMPDEST POP SWAP1 JUMP JUMPDEST PUSH0 PUSH1 0x40 MLOAD SWAP1 POP SWAP1 JUMP JUMPDEST PUSH0 DUP1 REVERT JUMPDEST PUSH0 DUP1 REVERT JUMPDEST PUSH0 DUP2 SWAP1 POP SWAP2 SWAP1 POP JUMP JUMPDEST PUSH2 0x1F54 DUP2 PUSH2 0x1F42 JUMP JUMPDEST DUP2 EQ PUSH2 0x1F5E JUMPI PUSH0 DUP1 REVERT JUMPDEST POP JUMP JUMPDEST PUSH0 DUP2 CALLDATALOAD SWAP1 POP PUSH2 0x1F6F DUP2 PUSH2 0x1F4B JUMP JUMPDEST SWAP3 SWAP2 POP POP JUMP JUMPDEST PUSH0 PUSH1 0x20 DUP3 DUP5 SUB SLT ISZERO PUSH2 0x1F8A JUMPI PUSH2 0x1F89 PUSH2 0x1F3A JUMP JUMPDEST JUMPDEST PUSH0 PUSH2 0x1F97 DUP5 DUP3 DUP6 ADD PUSH2 0x1F61 JUMP JUMPDEST SWAP2 POP POP SWAP3 SWAP2 POP POP JUMP JUMPDEST PUSH0 DUP1 REVERT JUMPDEST PUSH0 DUP1 REVERT JUMPDEST PUSH0 PUSH1 0x1F NOT PUSH1 0x1F DUP4 ADD AND SWAP1 POP SWAP2 SWAP1 POP JUMP JUMPDEST PUSH32 0x4E487B7100000000000000000000000000000000000000000000000000000000 PUSH0 MSTORE PUSH1 0x41 PUSH1 0x4 MSTORE PUSH1 0x24 PUSH0 REVERT JUMPDEST PUSH2 0x1FEE DUP3 PUSH2 0x1FA8 JUMP JUMPDEST DUP2 ADD DUP2 DUP2 LT PUSH8 0xFFFFFFFFFFFFFFFF DUP3 GT OR ISZERO PUSH2 0x200D JUMPI PUSH2 0x200C PUSH2 0x1FB8 JUMP JUMPDEST JUMPDEST DUP1 PUSH1 0x40 MSTORE POP POP POP JUMP JUMPDEST PUSH0 PUSH2 0x201F PUSH2 0x1F31 JUMP JUMPDEST SWAP1 POP PUSH2 0x202B DUP3 DUP3 PUSH2 0x1FE5 JUMP JUMPDEST SWAP2 SWAP1 POP JUMP JUMPDEST PUSH0 PUSH8 0xFFFFFFFFFFFFFFFF DUP3 GT ISZERO PUSH2 0x204A JUMPI PUSH2 0x2049 PUSH2 0x1FB8 JUMP JUMPDEST JUMPDEST PUSH2 0x2053 DUP3 PUSH2 0x1FA8 JUMP JUMPDEST SWAP1 POP PUSH1 0x20 DUP2 ADD SWAP1 POP SWAP2 SWAP1 POP JUMP JUMPDEST DUP3 DUP2 DUP4 CALLDATACOPY PUSH0 DUP4 DUP4 ADD MSTORE POP POP POP JUMP JUMPDEST PUSH0 PUSH2 0x2080 PUSH2 0x207B DUP5 PUSH2 0x2030 JUMP JUMPDEST PUSH2 0x2016 JUMP JUMPDEST SWAP1 POP DUP3 DUP2 MSTORE PUSH1 0x20 DUP2 ADD DUP5 DUP5 DUP5 ADD GT ISZERO PUSH2 0x209C JUMPI PUSH2 0x209B PUSH2 0x1FA4 JUMP JUMPDEST JUMPDEST PUSH2 0x20A7 DUP5 DUP3 DUP6 PUSH2 0x2060 JUMP JUMPDEST POP SWAP4 SWAP3 POP POP POP JUMP JUMPDEST PUSH0 DUP3 PUSH1 0x1F DUP4 ADD SLT PUSH2 0x20C3 JUMPI PUSH2 0x20C2 PUSH2 0x1FA0 JUMP JUMPDEST JUMPDEST DUP2 CALLDATALOAD PUSH2 0x20D3 DUP5 DUP3 PUSH1 0x20 DUP7 ADD PUSH2 0x206E JUMP JUMPDEST SWAP2 POP POP SWAP3 SWAP2 POP POP JUMP JUMPDEST PUSH0 DUP1 PUSH1 0x40 DUP4 DUP6 SUB SLT ISZERO PUSH2 0x20F2 JUMPI PUSH2 0x20F1 PUSH2 0x1F3A JUMP JUMPDEST JUMPDEST PUSH0 DUP4 ADD CALLDATALOAD PUSH8 0xFFFFFFFFFFFFFFFF DUP2 GT ISZERO PUSH2 0x210F JUMPI PUSH2 0x210E PUSH2 0x1F3E JUMP JUMPDEST JUMPDEST PUSH2 0x211B DUP6 DUP3 DUP7 ADD PUSH2 0x20AF JUMP JUMPDEST SWAP3 POP POP PUSH1 0x20 DUP4 ADD CALLDATALOAD PUSH8 0xFFFFFFFFFFFFFFFF DUP2 GT ISZERO PUSH2 0x213C JUMPI PUSH2 0x213B PUSH2 0x1F3E JUMP JUMPDEST JUMPDEST PUSH2 0x2148 DUP6 DUP3 DUP7 ADD PUSH2 0x20AF JUMP JUMPDEST SWAP2 POP POP SWAP3 POP SWAP3 SWAP1 POP JUMP JUMPDEST PUSH0 DUP2 MLOAD SWAP1 POP SWAP2 SWAP1 POP JUMP JUMPDEST PUSH0 DUP3 DUP3 MSTORE PUSH1 0x20 DUP3 ADD SWAP1 POP SWAP3 SWAP2 POP POP JUMP JUMPDEST PUSH0 DUP2 SWAP1 POP PUSH1 0x20 DUP3 ADD SWAP1 POP SWAP2 SWAP1 POP JUMP JUMPDEST PUSH0 PUSH20 0xFFFFFFFFFFFFFFFFFFFFFFFFFFFFFFFFFFFFFFFF DUP3 AND SWAP1 POP SWAP2 SWAP1 POP JUMP JUMPDEST PUSH0 PUSH2 0x21A4 DUP3 PUSH2 0x217B JUMP JUMPDEST SWAP1 POP SWAP2 SWAP1 POP JUMP JUMPDEST PUSH2 0x21B4 DUP2 PUSH2 0x219A JUMP JUMPDEST DUP3 MSTORE POP POP JUMP JUMPDEST PUSH0 PUSH2 0x21C5 DUP4 DUP4 PUSH2 0x21AB JUMP JUMPDEST PUSH1 0x20 DUP4 ADD SWAP1 POP SWAP3 SWAP2 POP POP JUMP JUMPDEST PUSH0 PUSH1 0x20 DUP3 ADD SWAP1 POP SWAP2 SWAP1 POP JUMP JUMPDEST PUSH0 PUSH2 0x21E7 DUP3 PUSH2 0x2152 JUMP JUMPDEST PUSH2 0x21F1 DUP2 DUP6 PUSH2 0x215C JUMP JUMPDEST SWAP4 POP PUSH2 0x21FC DUP4 PUSH2 0x216C JUMP JUMPDEST DUP1 PUSH0 JUMPDEST DUP4 DUP2 LT ISZERO PUSH2 0x222C JUMPI DUP2 MLOAD PUSH2 0x2213 DUP9 DUP3 PUSH2 0x21BA JUMP JUMPDEST SWAP8 POP PUSH2 0x221E DUP4 PUSH2 0x21D1 JUMP JUMPDEST SWAP3 POP POP PUSH1 0x1 DUP2 ADD SWAP1 POP PUSH2 0x21FF JUMP JUMPDEST POP DUP6 SWAP4 POP POP POP POP SWAP3 SWAP2 POP POP JUMP JUMPDEST PUSH0 PUSH1 0x20 DUP3 ADD SWAP1 POP DUP2 DUP2 SUB PUSH0 DUP4 ADD MSTORE PUSH2 0x2251 DUP2 DUP5 PUSH2 0x21DD JUMP JUMPDEST SWAP1 POP SWAP3 SWAP2 POP POP JUMP JUMPDEST PUSH2 0x2262 DUP2 PUSH2 0x219A JUMP JUMPDEST DUP2 EQ PUSH2 0x226C JUMPI PUSH0 DUP1 REVERT JUMPDEST POP JUMP JUMPDEST PUSH0 DUP2 CALLDATALOAD SWAP1 POP PUSH2 0x227D DUP2 PUSH2 0x2259 JUMP JUMPDEST SWAP3 SWAP2 POP POP JUMP JUMPDEST PUSH0 PUSH1 0x20 DUP3 DUP5 SUB SLT ISZERO PUSH2 0x2298 JUMPI PUSH2 0x2297 PUSH2 0x1F3A JUMP JUMPDEST JUMPDEST PUSH0 PUSH2 0x22A5 DUP5 DUP3 DUP6 ADD PUSH2 0x226F JUMP JUMPDEST SWAP2 POP POP SWAP3 SWAP2 POP POP JUMP JUMPDEST PUSH2 0x22B7 DUP2 PUSH2 0x1F42 JUMP JUMPDEST DUP3 MSTORE POP POP JUMP JUMPDEST PUSH1 0x40 DUP3 ADD PUSH0 DUP3 ADD MLOAD PUSH2 0x22D1 PUSH0 DUP6 ADD DUP3 PUSH2 0x22AE JUMP JUMPDEST POP PUSH1 0x20 DUP3 ADD MLOAD PUSH2 0x22E4 PUSH1 0x20 DUP6 ADD DUP3 PUSH2 0x22AE JUMP JUMPDEST POP POP POP POP JUMP JUMPDEST PUSH0 PUSH1 0x40 DUP3 ADD SWAP1 POP PUSH2 0x22FD PUSH0 DUP4 ADD DUP5 PUSH2 0x22BD JUMP JUMPDEST SWAP3 SWAP2 POP POP JUMP JUMPDEST PUSH0 DUP2 MLOAD SWAP1 POP SWAP2 SWAP1 POP JUMP JUMPDEST PUSH0 DUP3 DUP3 MSTORE PUSH1 0x20 DUP3 ADD SWAP1 POP SWAP3 SWAP2 POP POP JUMP JUMPDEST DUP3 DUP2 DUP4 MCOPY PUSH0 DUP4 DUP4 ADD MSTORE POP POP POP JUMP JUMPDEST PUSH0 PUSH2 0x2335 DUP3 PUSH2 0x2303 JUMP JUMPDEST PUSH2 0x233F DUP2 DUP6 PUSH2 0x230D JUMP JUMPDEST SWAP4 POP PUSH2 0x234F DUP2 DUP6 PUSH1 0x20 DUP7 ADD PUSH2 0x231D JUMP JUMPDEST PUSH2 0x2358 DUP2 PUSH2 0x1FA8 JUMP JUMPDEST DUP5 ADD SWAP2 POP POP SWAP3 SWAP2 POP POP JUMP JUMPDEST PUSH0 DUP2 SWAP1 POP SWAP2 SWAP1 POP JUMP JUMPDEST PUSH2 0x2375 DUP2 PUSH2 0x2363 JUMP JUMPDEST DUP3 MSTORE POP POP JUMP JUMPDEST PUSH0 PUSH1 0xE0 DUP4 ADD PUSH0 DUP4 ADD MLOAD PUSH2 0x2390 PUSH0 DUP7 ADD DUP3 PUSH2 0x21AB JUMP JUMPDEST POP PUSH1 0x20 DUP4 ADD MLOAD DUP5 DUP3 SUB PUSH1 0x20 DUP7 ADD MSTORE PUSH2 0x23A8 DUP3 DUP3 PUSH2 0x232B JUMP JUMPDEST SWAP2 POP POP PUSH1 0x40 DUP4 ADD MLOAD DUP5 DUP3 SUB PUSH1 0x40 DUP7 ADD MSTORE PUSH2 0x23C2 DUP3 DUP3 PUSH2 0x232B JUMP JUMPDEST SWAP2 POP POP PUSH1 0x60 DUP4 ADD MLOAD PUSH2 0x23D7 PUSH1 0x60 DUP7 ADD DUP3 PUSH2 0x22AE JUMP JUMPDEST POP PUSH1 0x80 DUP4 ADD MLOAD PUSH2 0x23EA PUSH1 0x80 DUP7 ADD DUP3 PUSH2 0x22AE JUMP JUMPDEST POP PUSH1 0xA0 DUP4 ADD MLOAD PUSH2 0x23FD PUSH1 0xA0 DUP7 ADD DUP3 PUSH2 0x22AE JUMP JUMPDEST POP PUSH1 0xC0 DUP4 ADD MLOAD PUSH2 0x2410 PUSH1 0xC0 DUP7 ADD DUP3 PUSH2 0x236C JUMP JUMPDEST POP DUP1 SWAP2 POP POP SWAP3 SWAP2 POP POP JUMP JUMPDEST PUSH0 PUSH1 0x20 DUP3 ADD SWAP1 POP DUP2 DUP2 SUB PUSH0 DUP4 ADD MSTORE PUSH2 0x2433 DUP2 DUP5 PUSH2 0x237B JUMP JUMPDEST SWAP1 POP SWAP3 SWAP2 POP POP JUMP JUMPDEST PUSH2 0x2444 DUP2 PUSH2 0x1F42 JUMP JUMPDEST DUP3 MSTORE POP POP JUMP JUMPDEST PUSH0 PUSH1 0x20 DUP3 ADD SWAP1 POP PUSH2 0x245D PUSH0 DUP4 ADD DUP5 PUSH2 0x243B JUMP JUMPDEST SWAP3 SWAP2 POP POP JUMP JUMPDEST PUSH2 0x246C DUP2 PUSH2 0x219A JUMP JUMPDEST DUP3 MSTORE POP POP JUMP JUMPDEST PUSH0 DUP3 DUP3 MSTORE PUSH1 0x20 DUP3 ADD SWAP1 POP SWAP3 SWAP2 POP POP JUMP JUMPDEST PUSH0 PUSH2 0x248C DUP3 PUSH2 0x2303 JUMP JUMPDEST PUSH2 0x2496 DUP2 DUP6 PUSH2 0x2472 JUMP JUMPDEST SWAP4 POP PUSH2 0x24A6 DUP2 DUP6 PUSH1 0x20 DUP7 ADD PUSH2 0x231D JUMP JUMPDEST PUSH2 0x24AF DUP2 PUSH2 0x1FA8 JUMP JUMPDEST DUP5 ADD SWAP2 POP POP SWAP3 SWAP2 POP POP JUMP JUMPDEST PUSH2 0x24C3 DUP2 PUSH2 0x2363 JUMP JUMPDEST DUP3 MSTORE POP POP JUMP JUMPDEST PUSH0 PUSH1 0xE0 DUP3 ADD SWAP1 POP PUSH2 0x24DC PUSH0 DUP4 ADD DUP11 PUSH2 0x2463 JUMP JUMPDEST DUP2 DUP2 SUB PUSH1 0x20 DUP4 ADD MSTORE PUSH2 0x24EE DUP2 DUP10 PUSH2 0x2482 JUMP JUMPDEST SWAP1 POP DUP2 DUP2 SUB PUSH1 0x40 DUP4 ADD MSTORE PUSH2 0x2502 DUP2 DUP9 PUSH2 0x2482 JUMP JUMPDEST SWAP1 POP PUSH2 0x2511 PUSH1 0x60 DUP4 ADD DUP8 PUSH2 0x243B JUMP JUMPDEST PUSH2 0x251E PUSH1 0x80 DUP4 ADD DUP7 PUSH2 0x243B JUMP JUMPDEST PUSH2 0x252B PUSH1 0xA0 DUP4 ADD DUP6 PUSH2 0x243B JUMP JUMPDEST PUSH2 0x2538 PUSH1 0xC0 DUP4 ADD DUP5 PUSH2 0x24BA JUMP JUMPDEST SWAP9 SWAP8 POP POP POP POP POP POP POP POP JUMP JUMPDEST PUSH0 DUP2 MLOAD SWAP1 POP SWAP2 SWAP1 POP JUMP JUMPDEST PUSH0 DUP3 DUP3 MSTORE PUSH1 0x20 DUP3 ADD SWAP1 POP SWAP3 SWAP2 POP POP JUMP JUMPDEST PUSH0 DUP2 SWAP1 POP PUSH1 0x20 DUP3 ADD SWAP1 POP SWAP2 SWAP1 POP JUMP JUMPDEST PUSH0 PUSH1 0xE0 DUP4 ADD PUSH0 DUP4 ADD MLOAD PUSH2 0x2582 PUSH0 DUP7 ADD DUP3 PUSH2 0x21AB JUMP JUMPDEST POP PUSH1 0x20 DUP4 ADD MLOAD DUP5 DUP3 SUB PUSH1 0x20 DUP7 ADD MSTORE PUSH2 0x259A DUP3 DUP3 PUSH2 0x232B JUMP JUMPDEST SWAP2 POP POP PUSH1 0x40 DUP4 ADD MLOAD DUP5 DUP3 SUB PUSH1 0x40 DUP7 ADD MSTORE PUSH2 0x25B4 DUP3 DUP3 PUSH2 0x232B JUMP JUMPDEST SWAP2 POP POP PUSH1 0x60 DUP4 ADD MLOAD PUSH2 0x25C9 PUSH1 0x60 DUP7 ADD DUP3 PUSH2 0x22AE JUMP JUMPDEST POP PUSH1 0x80 DUP4 ADD MLOAD PUSH2 0x25DC PUSH1 0x80 DUP7 ADD DUP3 PUSH2 0x22AE JUMP JUMPDEST POP PUSH1 0xA0 DUP4 ADD MLOAD PUSH2 0x25EF PUSH1 0xA0 DUP7 ADD DUP3 PUSH2 0x22AE JUMP JUMPDEST POP PUSH1 0xC0 DUP4 ADD MLOAD PUSH2 0x2602 PUSH1 0xC0 DUP7 ADD DUP3 PUSH2 0x236C JUMP JUMPDEST POP DUP1 SWAP2 POP POP SWAP3 SWAP2 POP POP JUMP JUMPDEST PUSH0 PUSH2 0x2618 DUP4 DUP4 PUSH2 0x256D JUMP JUMPDEST SWAP1 POP SWAP3 SWAP2 POP POP JUMP JUMPDEST PUSH0 PUSH1 0x20 DUP3 ADD SWAP1 POP SWAP2 SWAP1 POP JUMP JUMPDEST PUSH0 PUSH2 0x2636 DUP3 PUSH2 0x2544 JUMP JUMPDEST PUSH2 0x2640 DUP2 DUP6 PUSH2 0x254E JUMP JUMPDEST SWAP4 POP DUP4 PUSH1 0x20 DUP3 MUL DUP6 ADD PUSH2 0x2652 DUP6 PUSH2 0x255E JUMP JUMPDEST DUP1 PUSH0 JUMPDEST DUP6 DUP2 LT ISZERO PUSH2 0x268D JUMPI DUP5 DUP5 SUB DUP10 MSTORE DUP2 MLOAD PUSH2 0x266E DUP6 DUP3 PUSH2 0x260D JUMP JUMPDEST SWAP5 POP PUSH2 0x2679 DUP4 PUSH2 0x2620 JUMP JUMPDEST SWAP3 POP PUSH1 0x20 DUP11 ADD SWAP10 POP POP PUSH1 0x1 DUP2 ADD SWAP1 POP PUSH2 0x2655 JUMP JUMPDEST POP DUP3 SWAP8 POP DUP8 SWAP6 POP POP POP POP POP POP SWAP3 SWAP2 POP POP JUMP JUMPDEST PUSH0 PUSH1 0x20 DUP3 ADD SWAP1 POP DUP2 DUP2 SUB PUSH0 DUP4 ADD MSTORE PUSH2 0x26B7 DUP2 DUP5 PUSH2 0x262C JUMP JUMPDEST SWAP1 POP SWAP3 SWAP2 POP POP JUMP JUMPDEST PUSH32 0x566F74696E6720706572696F642068617320656E646564000000000000000000 PUSH0 DUP3 ADD MSTORE POP JUMP JUMPDEST PUSH0 PUSH2 0x26F3 PUSH1 0x17 DUP4 PUSH2 0x2472 JUMP JUMPDEST SWAP2 POP PUSH2 0x26FE DUP3 PUSH2 0x26BF JUMP JUMPDEST PUSH1 0x20 DUP3 ADD SWAP1 POP SWAP2 SWAP1 POP JUMP JUMPDEST PUSH0 PUSH1 0x20 DUP3 ADD SWAP1 POP DUP2 DUP2 SUB PUSH0 DUP4 ADD MSTORE PUSH2 0x2720 DUP2 PUSH2 0x26E7 JUMP JUMPDEST SWAP1 POP SWAP2 SWAP1 POP JUMP JUMPDEST PUSH32 0x596F7520616C726561647920766F746564000000000000000000000000000000 PUSH0 DUP3 ADD MSTORE POP JUMP JUMPDEST PUSH0 PUSH2 0x275B PUSH1 0x11 DUP4 PUSH2 0x2472 JUMP JUMPDEST SWAP2 POP PUSH2 0x2766 DUP3 PUSH2 0x2727 JUMP JUMPDEST PUSH1 0x20 DUP3 ADD SWAP1 POP SWAP2 SWAP1 POP JUMP JUMPDEST PUSH0 PUSH1 0x20 DUP3 ADD SWAP1 POP DUP2 DUP2 SUB PUSH0 DUP4 ADD MSTORE PUSH2 0x2788 DUP2 PUSH2 0x274F JUMP JUMPDEST SWAP1 POP SWAP2 SWAP1 POP JUMP JUMPDEST PUSH0 PUSH1 0x40 DUP3 ADD SWAP1 POP PUSH2 0x27A2 PUSH0 DUP4 ADD DUP6 PUSH2 0x2463 JUMP JUMPDEST PUSH2 0x27AF PUSH1 0x20 DUP4 ADD DUP5 PUSH2 0x243B JUMP JUMPDEST SWAP4 SWAP3 POP POP POP JUMP JUMPDEST PUSH32 0x496E737566696369656E7420666F756E64732100000000000000000000000000 PUSH0 DUP3 ADD MSTORE POP JUMP JUMPDEST PUSH0 PUSH2 0x27EA PUSH1 0x13 DUP4 PUSH2 0x2472 JUMP JUMPDEST SWAP2 POP PUSH2 0x27F5 DUP3 PUSH2 0x27B6 JUMP JUMPDEST PUSH1 0x20 DUP3 ADD SWAP1 POP SWAP2 SWAP1 POP JUMP JUMPDEST PUSH0 PUSH1 0x20 DUP3 ADD SWAP1 POP DUP2 DUP2 SUB PUSH0 DUP4 ADD MSTORE PUSH2 0x2817 DUP2 PUSH2 0x27DE JUMP JUMPDEST SWAP1 POP SWAP2 SWAP1 POP JUMP JUMPDEST PUSH32 0x496E76616C6964206665652076616C7565000000000000000000000000000000 PUSH0 DUP3 ADD MSTORE POP JUMP JUMPDEST PUSH0 PUSH2 0x2852 PUSH1 0x11 DUP4 PUSH2 0x2472 JUMP JUMPDEST SWAP2 POP PUSH2 0x285D DUP3 PUSH2 0x281E JUMP JUMPDEST PUSH1 0x20 DUP3 ADD SWAP1 POP SWAP2 SWAP1 POP JUMP JUMPDEST PUSH0 PUSH1 0x20 DUP3 ADD SWAP1 POP DUP2 DUP2 SUB PUSH0 DUP4 ADD MSTORE PUSH2 0x287F DUP2 PUSH2 0x2846 JUMP JUMPDEST SWAP1 POP SWAP2 SWAP1 POP JUMP JUMPDEST PUSH0 DUP3 DUP3 MSTORE PUSH1 0x20 DUP3 ADD SWAP1 POP SWAP3 SWAP2 POP POP JUMP JUMPDEST PUSH0 PUSH2 0x28A0 DUP3 PUSH2 0x2303 JUMP JUMPDEST PUSH2 0x28AA DUP2 DUP6 PUSH2 0x2886 JUMP JUMPDEST SWAP4 POP PUSH2 0x28BA DUP2 DUP6 PUSH1 0x20 DUP7 ADD PUSH2 0x231D JUMP JUMPDEST PUSH2 0x28C3 DUP2 PUSH2 0x1FA8 JUMP JUMPDEST DUP5 ADD SWAP2 POP POP SWAP3 SWAP2 POP POP JUMP JUMPDEST PUSH2 0x28D7 DUP2 PUSH2 0x1F42 JUMP JUMPDEST DUP3 MSTORE POP POP JUMP JUMPDEST PUSH0 PUSH1 0x80 DUP3 ADD SWAP1 POP DUP2 DUP2 SUB PUSH0 DUP4 ADD MSTORE PUSH2 0x28F5 DUP2 DUP8 PUSH2 0x2896 JUMP JUMPDEST SWAP1 POP DUP2 DUP2 SUB PUSH1 0x20 DUP4 ADD MSTORE PUSH2 0x2909 DUP2 DUP7 PUSH2 0x2896 JUMP JUMPDEST SWAP1 POP PUSH2 0x2918 PUSH1 0x40 DUP4 ADD DUP6 PUSH2 0x28CE JUMP JUMPDEST PUSH2 0x2925 PUSH1 0x60 DUP4 ADD DUP5 PUSH2 0x28CE JUMP JUMPDEST SWAP6 SWAP5 POP POP POP POP POP JUMP JUMPDEST PUSH0 PUSH2 0x2940 PUSH2 0x293B DUP5 PUSH2 0x2030 JUMP JUMPDEST PUSH2 0x2016 JUMP JUMPDEST SWAP1 POP DUP3 DUP2 MSTORE PUSH1 0x20 DUP2 ADD DUP5 DUP5 DUP5 ADD GT ISZERO PUSH2 0x295C JUMPI PUSH2 0x295B PUSH2 0x1FA4 JUMP JUMPDEST JUMPDEST PUSH2 0x2967 DUP5 DUP3 DUP6 PUSH2 0x231D JUMP JUMPDEST POP SWAP4 SWAP3 POP POP POP JUMP JUMPDEST PUSH0 DUP3 PUSH1 0x1F DUP4 ADD SLT PUSH2 0x2983 JUMPI PUSH2 0x2982 PUSH2 0x1FA0 JUMP JUMPDEST JUMPDEST DUP2 MLOAD PUSH2 0x2993 DUP5 DUP3 PUSH1 0x20 DUP7 ADD PUSH2 0x292E JUMP JUMPDEST SWAP2 POP POP SWAP3 SWAP2 POP POP JUMP JUMPDEST PUSH0 PUSH1 0x20 DUP3 DUP5 SUB SLT ISZERO PUSH2 0x29B1 JUMPI PUSH2 0x29B0 PUSH2 0x1F3A JUMP JUMPDEST JUMPDEST PUSH0 DUP3 ADD MLOAD PUSH8 0xFFFFFFFFFFFFFFFF DUP2 GT ISZERO PUSH2 0x29CE JUMPI PUSH2 0x29CD PUSH2 0x1F3E JUMP JUMPDEST JUMPDEST PUSH2 0x29DA DUP5 DUP3 DUP6 ADD PUSH2 0x296F JUMP JUMPDEST SWAP2 POP POP SWAP3 SWAP2 POP POP JUMP JUMPDEST PUSH0 PUSH1 0x20 DUP3 ADD SWAP1 POP DUP2 DUP2 SUB PUSH0 DUP4 ADD MSTORE PUSH2 0x29FB DUP2 DUP5 PUSH2 0x2896 JUMP JUMPDEST SWAP1 POP SWAP3 SWAP2 POP POP JUMP JUMPDEST PUSH2 0x2A0C DUP2 PUSH2 0x2363 JUMP JUMPDEST DUP2 EQ PUSH2 0x2A16 JUMPI PUSH0 DUP1 REVERT JUMPDEST POP JUMP JUMPDEST PUSH0 DUP2 MLOAD SWAP1 POP PUSH2 0x2A27 DUP2 PUSH2 0x2A03 JUMP JUMPDEST SWAP3 SWAP2 POP POP JUMP JUMPDEST PUSH0 PUSH1 0x20 DUP3 DUP5 SUB SLT ISZERO PUSH2 0x2A42 JUMPI PUSH2 0x2A41 PUSH2 0x1F3A JUMP JUMPDEST JUMPDEST PUSH0 PUSH2 0x2A4F DUP5 DUP3 DUP6 ADD PUSH2 0x2A19 JUMP JUMPDEST SWAP2 POP POP SWAP3 SWAP2 POP POP JUMP JUMPDEST PUSH32 0x4E487B7100000000000000000000000000000000000000000000000000000000 PUSH0 MSTORE PUSH1 0x22 PUSH1 0x4 MSTORE PUSH1 0x24 PUSH0 REVERT JUMPDEST PUSH0 PUSH1 0x2 DUP3 DIV SWAP1 POP PUSH1 0x1 DUP3 AND DUP1 PUSH2 0x2A9C JUMPI PUSH1 0x7F DUP3 AND SWAP2 POP JUMPDEST PUSH1 0x20 DUP3 LT DUP2 SUB PUSH2 0x2AAF JUMPI PUSH2 0x2AAE PUSH2 0x2A58 JUMP JUMPDEST JUMPDEST POP SWAP2 SWAP1 POP JUMP JUMPDEST PUSH0 DUP2 SWAP1 POP DUP2 PUSH0 MSTORE PUSH1 0x20 PUSH0 KECCAK256 SWAP1 POP SWAP2 SWAP1 POP JUMP JUMPDEST PUSH0 PUSH1 0x20 PUSH1 0x1F DUP4 ADD DIV SWAP1 POP SWAP2 SWAP1 POP JUMP JUMPDEST PUSH0 DUP3 DUP3 SHL SWAP1 POP SWAP3 SWAP2 POP POP JUMP JUMPDEST PUSH0 PUSH1 0x8 DUP4 MUL PUSH2 0x2B11 PUSH32 0xFFFFFFFFFFFFFFFFFFFFFFFFFFFFFFFFFFFFFFFFFFFFFFFFFFFFFFFFFFFFFFFF DUP3 PUSH2 0x2AD6 JUMP JUMPDEST PUSH2 0x2B1B DUP7 DUP4 PUSH2 0x2AD6 JUMP JUMPDEST SWAP6 POP DUP1 NOT DUP5 AND SWAP4 POP DUP1 DUP7 AND DUP5 OR SWAP3 POP POP POP SWAP4 SWAP3 POP POP POP JUMP JUMPDEST PUSH0 DUP2 SWAP1 POP SWAP2 SWAP1 POP JUMP JUMPDEST PUSH0 PUSH2 0x2B56 PUSH2 0x2B51 PUSH2 0x2B4C DUP5 PUSH2 0x1F42 JUMP JUMPDEST PUSH2 0x2B33 JUMP JUMPDEST PUSH2 0x1F42 JUMP JUMPDEST SWAP1 POP SWAP2 SWAP1 POP JUMP JUMPDEST PUSH0 DUP2 SWAP1 POP SWAP2 SWAP1 POP JUMP JUMPDEST PUSH2 0x2B6F DUP4 PUSH2 0x2B3C JUMP JUMPDEST PUSH2 0x2B83 PUSH2 0x2B7B DUP3 PUSH2 0x2B5D JUMP JUMPDEST DUP5 DUP5 SLOAD PUSH2 0x2AE2 JUMP JUMPDEST DUP3 SSTORE POP POP POP POP JUMP JUMPDEST PUSH0 SWAP1 JUMP JUMPDEST PUSH2 0x2B97 PUSH2 0x2B8B JUMP JUMPDEST PUSH2 0x2BA2 DUP2 DUP5 DUP5 PUSH2 0x2B66 JUMP JUMPDEST POP POP POP JUMP JUMPDEST JUMPDEST DUP2 DUP2 LT ISZERO PUSH2 0x2BC5 JUMPI PUSH2 0x2BBA PUSH0 DUP3 PUSH2 0x2B8F JUMP JUMPDEST PUSH1 0x1 DUP2 ADD SWAP1 POP PUSH2 0x2BA8 JUMP JUMPDEST POP POP JUMP JUMPDEST PUSH1 0x1F DUP3 GT ISZERO PUSH2 0x2C0A JUMPI PUSH2 0x2BDB DUP2 PUSH2 0x2AB5 JUMP JUMPDEST PUSH2 0x2BE4 DUP5 PUSH2 0x2AC7 JUMP JUMPDEST DUP2 ADD PUSH1 0x20 DUP6 LT ISZERO PUSH2 0x2BF3 JUMPI DUP2 SWAP1 POP JUMPDEST PUSH2 0x2C07 PUSH2 0x2BFF DUP6 PUSH2 0x2AC7 JUMP JUMPDEST DUP4 ADD DUP3 PUSH2 0x2BA7 JUMP JUMPDEST POP POP JUMPDEST POP POP POP JUMP JUMPDEST PUSH0 DUP3 DUP3 SHR SWAP1 POP SWAP3 SWAP2 POP POP JUMP JUMPDEST PUSH0 PUSH2 0x2C2A PUSH0 NOT DUP5 PUSH1 0x8 MUL PUSH2 0x2C0F JUMP JUMPDEST NOT DUP1 DUP4 AND SWAP2 POP POP SWAP3 SWAP2 POP POP JUMP JUMPDEST PUSH0 PUSH2 0x2C42 DUP4 DUP4 PUSH2 0x2C1B JUMP JUMPDEST SWAP2 POP DUP3 PUSH1 0x2 MUL DUP3 OR SWAP1 POP SWAP3 SWAP2 POP POP JUMP JUMPDEST PUSH2 0x2C5B DUP3 PUSH2 0x2303 JUMP JUMPDEST PUSH8 0xFFFFFFFFFFFFFFFF DUP2 GT ISZERO PUSH2 0x2C74 JUMPI PUSH2 0x2C73 PUSH2 0x1FB8 JUMP JUMPDEST JUMPDEST PUSH2 0x2C7E DUP3 SLOAD PUSH2 0x2A85 JUMP JUMPDEST PUSH2 0x2C89 DUP3 DUP3 DUP6 PUSH2 0x2BC9 JUMP JUMPDEST PUSH0 PUSH1 0x20 SWAP1 POP PUSH1 0x1F DUP4 GT PUSH1 0x1 DUP2 EQ PUSH2 0x2CBA JUMPI PUSH0 DUP5 ISZERO PUSH2 0x2CA8 JUMPI DUP3 DUP8 ADD MLOAD SWAP1 POP JUMPDEST PUSH2 0x2CB2 DUP6 DUP3 PUSH2 0x2C37 JUMP JUMPDEST DUP7 SSTORE POP PUSH2 0x2D19 JUMP JUMPDEST PUSH1 0x1F NOT DUP5 AND PUSH2 0x2CC8 DUP7 PUSH2 0x2AB5 JUMP JUMPDEST PUSH0 JUMPDEST DUP3 DUP2 LT ISZERO PUSH2 0x2CEF JUMPI DUP5 DUP10 ADD MLOAD DUP3 SSTORE PUSH1 0x1 DUP3 ADD SWAP2 POP PUSH1 0x20 DUP6 ADD SWAP5 POP PUSH1 0x20 DUP2 ADD SWAP1 POP PUSH2 0x2CCA JUMP JUMPDEST DUP7 DUP4 LT ISZERO PUSH2 0x2D0C JUMPI DUP5 DUP10 ADD MLOAD PUSH2 0x2D08 PUSH1 0x1F DUP10 AND DUP3 PUSH2 0x2C1B JUMP JUMPDEST DUP4 SSTORE POP JUMPDEST PUSH1 0x1 PUSH1 0x2 DUP9 MUL ADD DUP9 SSTORE POP POP POP JUMPDEST POP POP POP POP POP POP JUMP JUMPDEST PUSH0 DUP2 SWAP1 POP SWAP2 SWAP1 POP JUMP JUMPDEST PUSH0 PUSH2 0x2D44 PUSH2 0x2D3F PUSH2 0x2D3A DUP5 PUSH2 0x2D21 JUMP JUMPDEST PUSH2 0x2B33 JUMP JUMPDEST PUSH2 0x1F42 JUMP JUMPDEST SWAP1 POP SWAP2 SWAP1 POP JUMP JUMPDEST PUSH2 0x2D54 DUP2 PUSH2 0x2D2A JUMP JUMPDEST DUP3 MSTORE POP POP JUMP JUMPDEST PUSH0 PUSH1 0xA0 DUP3 ADD SWAP1 POP DUP2 DUP2 SUB PUSH0 DUP4 ADD MSTORE PUSH2 0x2D72 DUP2 DUP9 PUSH2 0x2482 JUMP JUMPDEST SWAP1 POP DUP2 DUP2 SUB PUSH1 0x20 DUP4 ADD MSTORE PUSH2 0x2D86 DUP2 DUP8 PUSH2 0x2482 JUMP JUMPDEST SWAP1 POP PUSH2 0x2D95 PUSH1 0x40 DUP4 ADD DUP7 PUSH2 0x243B JUMP JUMPDEST PUSH2 0x2DA2 PUSH1 0x60 DUP4 ADD DUP6 PUSH2 0x2D4B JUMP JUMPDEST PUSH2 0x2DAF PUSH1 0x80 DUP4 ADD DUP5 PUSH2 0x243B JUMP JUMPDEST SWAP7 SWAP6 POP POP POP POP POP POP JUMP JUMPDEST PUSH32 0x596F7520686176656E277420766F746564207965740000000000000000000000 PUSH0 DUP3 ADD MSTORE POP JUMP JUMPDEST PUSH0 PUSH2 0x2DED PUSH1 0x15 DUP4 PUSH2 0x2472 JUMP JUMPDEST SWAP2 POP PUSH2 0x2DF8 DUP3 PUSH2 0x2DB9 JUMP JUMPDEST PUSH1 0x20 DUP3 ADD SWAP1 POP SWAP2 SWAP1 POP JUMP JUMPDEST PUSH0 PUSH1 0x20 DUP3 ADD SWAP1 POP DUP2 DUP2 SUB PUSH0 DUP4 ADD MSTORE PUSH2 0x2E1A DUP2 PUSH2 0x2DE1 JUMP JUMPDEST SWAP1 POP SWAP2 SWAP1 POP JUMP JUMPDEST PUSH0 DUP2 SLOAD SWAP1 POP SWAP2 SWAP1 POP JUMP JUMPDEST PUSH0 DUP3 DUP3 MSTORE PUSH1 0x20 DUP3 ADD SWAP1 POP SWAP3 SWAP2 POP POP JUMP JUMPDEST PUSH0 DUP2 SWAP1 POP DUP2 PUSH0 MSTORE PUSH1 0x20 PUSH0 KECCAK256 SWAP1 POP SWAP2 SWAP1 POP JUMP JUMPDEST PUSH2 0x2E56 DUP2 PUSH2 0x219A JUMP JUMPDEST DUP3 MSTORE POP POP JUMP JUMPDEST PUSH0 PUSH2 0x2E67 DUP4 DUP4 PUSH2 0x2E4D JUMP JUMPDEST PUSH1 0x20 DUP4 ADD SWAP1 POP SWAP3 SWAP2 POP POP JUMP JUMPDEST PUSH0 DUP2 PUSH0 SHR SWAP1 POP SWAP2 SWAP1 POP JUMP JUMPDEST PUSH0 PUSH20 0xFFFFFFFFFFFFFFFFFFFFFFFFFFFFFFFFFFFFFFFF DUP3 AND SWAP1 POP SWAP2 SWAP1 POP JUMP JUMPDEST PUSH0 PUSH2 0x2EAF PUSH2 0x2EAA DUP4 PUSH2 0x2E73 JUMP JUMPDEST PUSH2 0x2E7E JUMP JUMPDEST SWAP1 POP SWAP2 SWAP1 POP JUMP JUMPDEST PUSH0 PUSH2 0x2EC1 DUP3 SLOAD PUSH2 0x2E9D JUMP JUMPDEST SWAP1 POP SWAP2 SWAP1 POP JUMP JUMPDEST PUSH0 PUSH1 0x1 DUP3 ADD SWAP1 POP SWAP2 SWAP1 POP JUMP JUMPDEST PUSH0 PUSH2 0x2EDE DUP3 PUSH2 0x2E21 JUMP JUMPDEST PUSH2 0x2EE8 DUP2 DUP6 PUSH2 0x2E2B JUMP JUMPDEST SWAP4 POP PUSH2 0x2EF3 DUP4 PUSH2 0x2E3B JUMP JUMPDEST DUP1 PUSH0 JUMPDEST DUP4 DUP2 LT ISZERO PUSH2 0x2F2A JUMPI PUSH2 0x2F07 DUP3 PUSH2 0x2EB6 JUMP JUMPDEST PUSH2 0x2F11 DUP9 DUP3 PUSH2 0x2E5C JUMP JUMPDEST SWAP8 POP PUSH2 0x2F1C DUP4 PUSH2 0x2EC8 JUMP JUMPDEST SWAP3 POP POP PUSH1 0x1 DUP2 ADD SWAP1 POP PUSH2 0x2EF6 JUMP JUMPDEST POP DUP6 SWAP4 POP POP POP POP SWAP3 SWAP2 POP POP JUMP JUMPDEST PUSH2 0x2F40 DUP2 PUSH2 0x219A JUMP JUMPDEST DUP3 MSTORE POP POP JUMP JUMPDEST PUSH0 PUSH1 0x40 DUP3 ADD SWAP1 POP DUP2 DUP2 SUB PUSH0 DUP4 ADD MSTORE PUSH2 0x2F5E DUP2 DUP6 PUSH2 0x2ED4 JUMP JUMPDEST SWAP1 POP PUSH2 0x2F6D PUSH1 0x20 DUP4 ADD DUP5 PUSH2 0x2F37 JUMP JUMPDEST SWAP4 SWAP3 POP POP POP JUMP JUMPDEST PUSH0 DUP2 MLOAD SWAP1 POP PUSH2 0x2F82 DUP2 PUSH2 0x1F4B JUMP JUMPDEST SWAP3 SWAP2 POP POP JUMP JUMPDEST PUSH0 PUSH1 0x20 DUP3 DUP5 SUB SLT ISZERO PUSH2 0x2F9D JUMPI PUSH2 0x2F9C PUSH2 0x1F3A JUMP JUMPDEST JUMPDEST PUSH0 PUSH2 0x2FAA DUP5 DUP3 DUP6 ADD PUSH2 0x2F74 JUMP JUMPDEST SWAP2 POP POP SWAP3 SWAP2 POP POP JUMP JUMPDEST PUSH0 PUSH1 0x40 DUP3 ADD SWAP1 POP DUP2 DUP2 SUB PUSH0 DUP4 ADD MSTORE PUSH2 0x2FCB DUP2 DUP6 PUSH2 0x2ED4 JUMP JUMPDEST SWAP1 POP PUSH2 0x2FDA PUSH1 0x20 DUP4 ADD DUP5 PUSH2 0x28CE JUMP JUMPDEST SWAP4 SWAP3 POP POP POP JUMP JUMPDEST PUSH0 PUSH8 0xFFFFFFFFFFFFFFFF DUP3 GT ISZERO PUSH2 0x2FFB JUMPI PUSH2 0x2FFA PUSH2 0x1FB8 JUMP JUMPDEST JUMPDEST PUSH1 0x20 DUP3 MUL SWAP1 POP PUSH1 0x20 DUP2 ADD SWAP1 POP SWAP2 SWAP1 POP JUMP JUMPDEST PUSH0 DUP1 REVERT JUMPDEST PUSH0 DUP2 MLOAD SWAP1 POP PUSH2 0x301E DUP2 PUSH2 0x2259 JUMP JUMPDEST SWAP3 SWAP2 POP POP JUMP JUMPDEST PUSH0 PUSH2 0x3036 PUSH2 0x3031 DUP5 PUSH2 0x2FE1 JUMP JUMPDEST PUSH2 0x2016 JUMP JUMPDEST SWAP1 POP DUP1 DUP4 DUP3 MSTORE PUSH1 0x20 DUP3 ADD SWAP1 POP PUSH1 0x20 DUP5 MUL DUP4 ADD DUP6 DUP2 GT ISZERO PUSH2 0x3059 JUMPI PUSH2 0x3058 PUSH2 0x300C JUMP JUMPDEST JUMPDEST DUP4 JUMPDEST DUP2 DUP2 LT ISZERO PUSH2 0x3082 JUMPI DUP1 PUSH2 0x306E DUP9 DUP3 PUSH2 0x3010 JUMP JUMPDEST DUP5 MSTORE PUSH1 0x20 DUP5 ADD SWAP4 POP POP PUSH1 0x20 DUP2 ADD SWAP1 POP PUSH2 0x305B JUMP JUMPDEST POP POP POP SWAP4 SWAP3 POP POP POP JUMP JUMPDEST PUSH0 DUP3 PUSH1 0x1F DUP4 ADD SLT PUSH2 0x30A0 JUMPI PUSH2 0x309F PUSH2 0x1FA0 JUMP JUMPDEST JUMPDEST DUP2 MLOAD PUSH2 0x30B0 DUP5 DUP3 PUSH1 0x20 DUP7 ADD PUSH2 0x3024 JUMP JUMPDEST SWAP2 POP POP SWAP3 SWAP2 POP POP JUMP JUMPDEST PUSH0 PUSH1 0x20 DUP3 DUP5 SUB SLT ISZERO PUSH2 0x30CE JUMPI PUSH2 0x30CD PUSH2 0x1F3A JUMP JUMPDEST JUMPDEST PUSH0 DUP3 ADD MLOAD PUSH8 0xFFFFFFFFFFFFFFFF DUP2 GT ISZERO PUSH2 0x30EB JUMPI PUSH2 0x30EA PUSH2 0x1F3E JUMP JUMPDEST JUMPDEST PUSH2 0x30F7 DUP5 DUP3 DUP6 ADD PUSH2 0x308C JUMP JUMPDEST SWAP2 POP POP SWAP3 SWAP2 POP POP JUMP JUMPDEST PUSH32 0x4F6E6C7920746865206F776E65722063616E2061636365732074686973206675 PUSH0 DUP3 ADD MSTORE PUSH32 0x6E6374696F6E0000000000000000000000000000000000000000000000000000 PUSH1 0x20 DUP3 ADD MSTORE POP JUMP JUMPDEST PUSH0 PUSH2 0x315A PUSH1 0x26 DUP4 PUSH2 0x2472 JUMP JUMPDEST SWAP2 POP PUSH2 0x3165 DUP3 PUSH2 0x3100 JUMP JUMPDEST PUSH1 0x40 DUP3 ADD SWAP1 POP SWAP2 SWAP1 POP JUMP JUMPDEST PUSH0 PUSH1 0x20 DUP3 ADD SWAP1 POP DUP2 DUP2 SUB PUSH0 DUP4 ADD MSTORE PUSH2 0x3187 DUP2 PUSH2 0x314E JUMP JUMPDEST SWAP1 POP SWAP2 SWAP1 POP JUMP JUMPDEST PUSH0 DUP2 SLOAD SWAP1 POP SWAP2 SWAP1 POP JUMP JUMPDEST PUSH0 DUP3 DUP3 MSTORE PUSH1 0x20 DUP3 ADD SWAP1 POP SWAP3 SWAP2 POP POP JUMP JUMPDEST PUSH0 DUP2 SWAP1 POP DUP2 PUSH0 MSTORE PUSH1 0x20 PUSH0 KECCAK256 SWAP1 POP SWAP2 SWAP1 POP JUMP JUMPDEST PUSH0 DUP3 DUP3 MSTORE PUSH1 0x20 DUP3 ADD SWAP1 POP SWAP3 SWAP2 POP POP JUMP JUMPDEST PUSH0 DUP2 SLOAD PUSH2 0x31D6 DUP2 PUSH2 0x2A85 JUMP JUMPDEST PUSH2 0x31E0 DUP2 DUP7 PUSH2 0x31BA JUMP JUMPDEST SWAP5 POP PUSH1 0x1 DUP3 AND PUSH0 DUP2 EQ PUSH2 0x31FA JUMPI PUSH1 0x1 DUP2 EQ PUSH2 0x3210 JUMPI PUSH2 0x3242 JUMP JUMPDEST PUSH1 0xFF NOT DUP4 AND DUP7 MSTORE DUP2 ISZERO ISZERO PUSH1 0x20 MUL DUP7 ADD SWAP4 POP PUSH2 0x3242 JUMP JUMPDEST PUSH2 0x3219 DUP6 PUSH2 0x2AB5 JUMP JUMPDEST PUSH0 JUMPDEST DUP4 DUP2 LT ISZERO PUSH2 0x323A JUMPI DUP2 SLOAD DUP2 DUP10 ADD MSTORE PUSH1 0x1 DUP3 ADD SWAP2 POP PUSH1 0x20 DUP2 ADD SWAP1 POP PUSH2 0x321B JUMP JUMPDEST DUP1 DUP9 ADD SWAP6 POP POP POP JUMPDEST POP POP POP SWAP3 SWAP2 POP POP JUMP JUMPDEST PUSH0 DUP2 SWAP1 POP SWAP2 SWAP1 POP JUMP JUMPDEST PUSH0 PUSH2 0x3266 PUSH2 0x3261 DUP4 PUSH2 0x2E73 JUMP JUMPDEST PUSH2 0x324B JUMP JUMPDEST SWAP1 POP SWAP2 SWAP1 POP JUMP JUMPDEST PUSH2 0x3276 DUP2 PUSH2 0x1F42 JUMP JUMPDEST DUP3 MSTORE POP POP JUMP JUMPDEST PUSH0 DUP2 SWAP1 POP SWAP2 SWAP1 POP JUMP JUMPDEST PUSH0 PUSH2 0x3297 PUSH2 0x3292 DUP4 PUSH2 0x2E73 JUMP JUMPDEST PUSH2 0x327C JUMP JUMPDEST SWAP1 POP SWAP2 SWAP1 POP JUMP JUMPDEST PUSH2 0x32A7 DUP2 PUSH2 0x2363 JUMP JUMPDEST DUP3 MSTORE POP POP JUMP JUMPDEST PUSH0 PUSH1 0xE0 DUP4 ADD PUSH0 DUP1 DUP5 ADD SLOAD SWAP1 POP PUSH2 0x32C2 DUP2 PUSH2 0x2E9D JUMP JUMPDEST PUSH2 0x32CE PUSH0 DUP8 ADD DUP3 PUSH2 0x2E4D JUMP JUMPDEST POP PUSH1 0x1 DUP5 ADD DUP6 DUP4 SUB PUSH1 0x20 DUP8 ADD MSTORE PUSH2 0x32E5 DUP4 DUP3 PUSH2 0x31CA JUMP JUMPDEST SWAP3 POP POP PUSH1 0x2 DUP5 ADD DUP6 DUP4 SUB PUSH1 0x40 DUP8 ADD MSTORE PUSH2 0x32FE DUP4 DUP3 PUSH2 0x31CA JUMP JUMPDEST SWAP3 POP POP PUSH1 0x3 DUP5 ADD SLOAD SWAP1 POP PUSH2 0x3311 DUP2 PUSH2 0x3254 JUMP JUMPDEST PUSH2 0x331E PUSH1 0x60 DUP8 ADD DUP3 PUSH2 0x326D JUMP JUMPDEST POP PUSH1 0x4 DUP5 ADD SLOAD SWAP1 POP PUSH2 0x332F DUP2 PUSH2 0x3254 JUMP JUMPDEST PUSH2 0x333C PUSH1 0x80 DUP8 ADD DUP3 PUSH2 0x326D JUMP JUMPDEST POP PUSH1 0x5 DUP5 ADD SLOAD SWAP1 POP PUSH2 0x334D DUP2 PUSH2 0x3254 JUMP JUMPDEST PUSH2 0x335A PUSH1 0xA0 DUP8 ADD DUP3 PUSH2 0x326D JUMP JUMPDEST POP PUSH1 0x6 DUP5 ADD SLOAD SWAP1 POP PUSH2 0x336B DUP2 PUSH2 0x3285 JUMP JUMPDEST PUSH2 0x3378 PUSH1 0xC0 DUP8 ADD DUP3 PUSH2 0x329E JUMP JUMPDEST POP DUP2 SWAP3 POP POP POP SWAP3 SWAP2 POP POP JUMP JUMPDEST PUSH0 PUSH2 0x338F DUP4 DUP4 PUSH2 0x32AD JUMP JUMPDEST SWAP1 POP SWAP3 SWAP2 POP POP JUMP JUMPDEST PUSH0 PUSH1 0x7 DUP3 ADD SWAP1 POP SWAP2 SWAP1 POP JUMP JUMPDEST PUSH0 PUSH2 0x33AD DUP3 PUSH2 0x318E JUMP JUMPDEST PUSH2 0x33B7 DUP2 DUP6 PUSH2 0x3198 JUMP JUMPDEST SWAP4 POP DUP4 PUSH1 0x20 DUP3 MUL DUP6 ADD PUSH2 0x33C9 DUP6 PUSH2 0x31A8 JUMP JUMPDEST DUP1 PUSH0 JUMPDEST DUP6 DUP2 LT ISZERO PUSH2 0x3403 JUMPI DUP5 DUP5 SUB DUP10 MSTORE DUP2 PUSH2 0x33E4 DUP6 DUP3 PUSH2 0x3384 JUMP JUMPDEST SWAP5 POP PUSH2 0x33EF DUP4 PUSH2 0x3397 JUMP JUMPDEST SWAP3 POP PUSH1 0x20 DUP11 ADD SWAP10 POP POP PUSH1 0x1 DUP2 ADD SWAP1 POP PUSH2 0x33CC JUMP JUMPDEST POP DUP3 SWAP8 POP DUP8 SWAP6 POP POP POP POP POP POP SWAP3 SWAP2 POP POP JUMP JUMPDEST PUSH0 PUSH1 0x20 DUP3 ADD SWAP1 POP DUP2 DUP2 SUB PUSH0 DUP4 ADD MSTORE PUSH2 0x342D DUP2 DUP5 PUSH2 0x33A3 JUMP JUMPDEST SWAP1 POP SWAP3 SWAP2 POP POP JUMP JUMPDEST PUSH32 0x4E487B7100000000000000000000000000000000000000000000000000000000 PUSH0 MSTORE PUSH1 0x32 PUSH1 0x4 MSTORE PUSH1 0x24 PUSH0 REVERT JUMPDEST PUSH0 DUP2 SLOAD SWAP1 POP PUSH2 0x3470 DUP2 PUSH2 0x2A85 JUMP JUMPDEST SWAP1 POP SWAP2 SWAP1 POP JUMP JUMPDEST DUP2 DUP2 SUB PUSH2 0x3485 JUMPI POP POP PUSH2 0x355A JUMP JUMPDEST PUSH2 0x348E DUP3 PUSH2 0x3462 JUMP JUMPDEST PUSH8 0xFFFFFFFFFFFFFFFF DUP2 GT ISZERO PUSH2 0x34A7 JUMPI PUSH2 0x34A6 PUSH2 0x1FB8 JUMP JUMPDEST JUMPDEST PUSH2 0x34B1 DUP3 SLOAD PUSH2 0x2A85 JUMP JUMPDEST PUSH2 0x34BC DUP3 DUP3 DUP6 PUSH2 0x2BC9 JUMP JUMPDEST PUSH0 PUSH1 0x1F DUP4 GT PUSH1 0x1 DUP2 EQ PUSH2 0x34E9 JUMPI PUSH0 DUP5 ISZERO PUSH2 0x34D7 JUMPI DUP3 DUP8 ADD SLOAD SWAP1 POP JUMPDEST PUSH2 0x34E1 DUP6 DUP3 PUSH2 0x2C37 JUMP JUMPDEST DUP7 SSTORE POP PUSH2 0x3553 JUMP JUMPDEST PUSH1 0x1F NOT DUP5 AND PUSH2 0x34F7 DUP8 PUSH2 0x2AB5 JUMP JUMPDEST SWAP7 POP PUSH2 0x3502 DUP7 PUSH2 0x2AB5 JUMP JUMPDEST PUSH0 JUMPDEST DUP3 DUP2 LT ISZERO PUSH2 0x3529 JUMPI DUP5 DUP10 ADD SLOAD DUP3 SSTORE PUSH1 0x1 DUP3 ADD SWAP2 POP PUSH1 0x1 DUP6 ADD SWAP5 POP PUSH1 0x20 DUP2 ADD SWAP1 POP PUSH2 0x3504 JUMP JUMPDEST DUP7 DUP4 LT ISZERO PUSH2 0x3546 JUMPI DUP5 DUP10 ADD SLOAD PUSH2 0x3542 PUSH1 0x1F DUP10 AND DUP3 PUSH2 0x2C1B JUMP JUMPDEST DUP4 SSTORE POP JUMPDEST PUSH1 0x1 PUSH1 0x2 DUP9 MUL ADD DUP9 SSTORE POP POP POP JUMPDEST POP POP POP POP POP POP JUMPDEST JUMP JUMPDEST PUSH32 0x4E487B7100000000000000000000000000000000000000000000000000000000 PUSH0 MSTORE PUSH1 0x11 PUSH1 0x4 MSTORE PUSH1 0x24 PUSH0 REVERT JUMPDEST PUSH0 PUSH2 0x3593 DUP3 PUSH2 0x1F42 JUMP JUMPDEST SWAP2 POP PUSH2 0x359E DUP4 PUSH2 0x1F42 JUMP JUMPDEST SWAP3 POP DUP3 DUP3 ADD SWAP1 POP DUP1 DUP3 GT ISZERO PUSH2 0x35B6 JUMPI PUSH2 0x35B5 PUSH2 0x355C JUMP JUMPDEST JUMPDEST SWAP3 SWAP2 POP POP JUMP JUMPDEST PUSH0 PUSH1 0x40 DUP3 ADD SWAP1 POP DUP2 DUP2 SUB PUSH0 DUP4 ADD MSTORE PUSH2 0x35D4 DUP2 DUP6 PUSH2 0x33A3 JUMP JUMPDEST SWAP1 POP PUSH2 0x35E3 PUSH1 0x20 DUP4 ADD DUP5 PUSH2 0x28CE JUMP JUMPDEST SWAP4 SWAP3 POP POP POP JUMP JUMPDEST PUSH0 PUSH2 0x35F4 DUP3 PUSH2 0x1F42 JUMP JUMPDEST SWAP2 POP PUSH32 0xFFFFFFFFFFFFFFFFFFFFFFFFFFFFFFFFFFFFFFFFFFFFFFFFFFFFFFFFFFFFFFFF DUP3 SUB PUSH2 0x3626 JUMPI PUSH2 0x3625 PUSH2 0x355C JUMP JUMPDEST JUMPDEST PUSH1 0x1 DUP3 ADD SWAP1 POP SWAP2 SWAP1 POP JUMP JUMPDEST PUSH0 PUSH1 0x40 DUP3 ADD SWAP1 POP PUSH2 0x3644 PUSH0 DUP4 ADD DUP6 PUSH2 0x243B JUMP JUMPDEST PUSH2 0x3651 PUSH1 0x20 DUP4 ADD DUP5 PUSH2 0x243B JUMP JUMPDEST SWAP4 SWAP3 POP POP POP JUMP JUMPDEST PUSH32 0x4E487B7100000000000000000000000000000000000000000000000000000000 PUSH0 MSTORE PUSH1 0x12 PUSH1 0x4 MSTORE PUSH1 0x24 PUSH0 REVERT JUMPDEST PUSH0 PUSH2 0x368F DUP3 PUSH2 0x1F42 JUMP JUMPDEST SWAP2 POP PUSH2 0x369A DUP4 PUSH2 0x1F42 JUMP JUMPDEST SWAP3 POP DUP3 PUSH2 0x36AA JUMPI PUSH2 0x36A9 PUSH2 0x3658 JUMP JUMPDEST JUMPDEST DUP3 DUP3 MOD SWAP1 POP SWAP3 SWAP2 POP POP JUMP JUMPDEST PUSH0 DUP2 SWAP1 POP SWAP2 SWAP1 POP JUMP JUMPDEST PUSH0 DUP2 SWAP1 POP SWAP2 SWAP1 POP JUMP JUMPDEST PUSH0 PUSH2 0x36E1 PUSH2 0x36DC PUSH2 0x36D7 DUP5 PUSH2 0x36B5 JUMP JUMPDEST PUSH2 0x2B33 JUMP JUMPDEST PUSH2 0x36BE JUMP JUMPDEST SWAP1 POP SWAP2 SWAP1 POP JUMP JUMPDEST PUSH2 0x36F1 DUP2 PUSH2 0x36C7 JUMP JUMPDEST DUP3 MSTORE POP POP JUMP JUMPDEST PUSH0 PUSH1 0x40 DUP3 ADD SWAP1 POP PUSH2 0x370A PUSH0 DUP4 ADD DUP6 PUSH2 0x243B JUMP JUMPDEST PUSH2 0x3717 PUSH1 0x20 DUP4 ADD DUP5 PUSH2 0x36E8 JUMP JUMPDEST SWAP4 SWAP3 POP POP POP JUMP JUMPDEST PUSH0 DUP2 ISZERO ISZERO SWAP1 POP SWAP2 SWAP1 POP JUMP JUMPDEST PUSH2 0x3732 DUP2 PUSH2 0x371E JUMP JUMPDEST DUP2 EQ PUSH2 0x373C JUMPI PUSH0 DUP1 REVERT JUMPDEST POP JUMP JUMPDEST PUSH0 DUP2 MLOAD SWAP1 POP PUSH2 0x374D DUP2 PUSH2 0x3729 JUMP JUMPDEST SWAP3 SWAP2 POP POP JUMP JUMPDEST PUSH0 PUSH1 0x20 DUP3 DUP5 SUB SLT ISZERO PUSH2 0x3768 JUMPI PUSH2 0x3767 PUSH2 0x1F3A JUMP JUMPDEST JUMPDEST PUSH0 PUSH2 0x3775 DUP5 DUP3 DUP6 ADD PUSH2 0x373F JUMP JUMPDEST SWAP2 POP POP SWAP3 SWAP2 POP POP JUMP JUMPDEST PUSH32 0x50726F706F73656C20646F6573206E6F74206578697374000000000000000000 PUSH0 DUP3 ADD MSTORE POP JUMP JUMPDEST PUSH0 PUSH2 0x37B2 PUSH1 0x17 DUP4 PUSH2 0x2472 JUMP JUMPDEST SWAP2 POP PUSH2 0x37BD DUP3 PUSH2 0x377E JUMP JUMPDEST PUSH1 0x20 DUP3 ADD SWAP1 POP SWAP2 SWAP1 POP JUMP JUMPDEST PUSH0 PUSH1 0x20 DUP3 ADD SWAP1 POP DUP2 DUP2 SUB PUSH0 DUP4 ADD MSTORE PUSH2 0x37DF DUP2 PUSH2 0x37A6 JUMP JUMPDEST SWAP1 POP SWAP2 SWAP1 POP JUMP JUMPDEST PUSH0 PUSH2 0x37F0 DUP3 PUSH2 0x1F42 JUMP JUMPDEST SWAP2 POP PUSH0 DUP3 SUB PUSH2 0x3802 JUMPI PUSH2 0x3801 PUSH2 0x355C JUMP JUMPDEST JUMPDEST PUSH1 0x1 DUP3 SUB SWAP1 POP SWAP2 SWAP1 POP JUMP JUMPDEST PUSH0 PUSH2 0x3817 DUP3 PUSH2 0x1F42 JUMP JUMPDEST SWAP2 POP PUSH2 0x3822 DUP4 PUSH2 0x1F42 JUMP JUMPDEST SWAP3 POP DUP3 DUP3 SUB SWAP1 POP DUP2 DUP2 GT ISZERO PUSH2 0x383A JUMPI PUSH2 0x3839 PUSH2 0x355C JUMP JUMPDEST JUMPDEST SWAP3 SWAP2 POP POP JUMP JUMPDEST PUSH32 0x4E487B7100000000000000000000000000000000000000000000000000000000 PUSH0 MSTORE PUSH1 0x31 PUSH1 0x4 MSTORE PUSH1 0x24 PUSH0 REVERT INVALID LOG2 PUSH5 0x6970667358 0x22 SLT KECCAK256 PUSH20 0x48C6BD12FEE9A2D20D589762B8F539149B8D4936 RETURNDATACOPY BASEFEE DUP13 PUSH25 0x717C634A40B1F464736F6C6343000819003300000000000000 "
		},
		"gasEstimates": {
			"creation": {
				"codeDepositCost": "2899800",
				"executionCost": "infinite",
				"totalCost": "infinite"
			},
			"external": {
				"getFee()": "2498",
				"getLastWinningProposal()": "infinite",
				"getLatestPrice()": "infinite",
				"getPeriodInterval()": "infinite",
				"getVotes()": "infinite",
				"getWinningPoposel()": "infinite",
				"lastWinningProposal()": "infinite",
				"listProposels()": "infinite",
				"makeTransfer(address)": "infinite",
				"resetPeriod()": "infinite",
				"setFee(uint256)": "24773",
				"setProposel(string,string)": "infinite",
				"unvote()": "infinite",
				"vote(uint256)": "infinite"
			},
			"internal": {
				"decreaseVotes(uint256)": "infinite",
				"getNexId()": "24371",
				"increaseVotes(uint256)": "infinite",
				"resetProposels()": "infinite",
				"resetVotes()": "infinite"
			}
		},
		"methodIdentifiers": {
			"getFee()": "ced72f87",
			"getLastWinningProposal()": "76f90e8e",
			"getLatestPrice()": "8e15f473",
			"getPeriodInterval()": "52505453",
			"getVotes()": "0dc96015",
			"getWinningPoposel()": "ffeb78b7",
			"lastWinningProposal()": "90ab1d8e",
			"listProposels()": "94964edf",
			"makeTransfer(address)": "2d5cea8e",
			"resetPeriod()": "944c1d97",
			"setFee(uint256)": "69fe0e2d",
			"setProposel(string,string)": "06db5c06",
			"unvote()": "3174b689",
			"vote(uint256)": "0121b93f"
		}
	},
	"abi": [
		{
			"inputs": [
				{
					"internalType": "address",
					"name": "_priceConsumerAddress",
					"type": "address"
				}
			],
			"stateMutability": "nonpayable",
			"type": "constructor"
		},
		{
			"anonymous": false,
			"inputs": [
				{
					"indexed": false,
					"internalType": "uint256",
					"name": "proposalId",
					"type": "uint256"
				},
				{
					"indexed": false,
					"internalType": "uint256",
					"name": "voteCount",
					"type": "uint256"
				}
			],
			"name": "ProposalThresholdReached",
			"type": "event"
		},
		{
			"anonymous": false,
			"inputs": [
				{
					"indexed": false,
					"internalType": "string",
					"name": "name",
					"type": "string"
				},
				{
					"indexed": false,
					"internalType": "string",
					"name": "url",
					"type": "string"
				},
				{
					"indexed": false,
					"internalType": "uint256",
					"name": "timestamp",
					"type": "uint256"
				},
				{
					"indexed": false,
					"internalType": "uint256",
					"name": "votes",
					"type": "uint256"
				},
				{
					"indexed": false,
					"internalType": "uint256",
					"name": "id",
					"type": "uint256"
				}
			],
			"name": "ProposelAdded",
			"type": "event"
		},
		{
			"anonymous": false,
			"inputs": [
				{
					"indexed": false,
					"internalType": "uint256",
					"name": "proposel_id",
					"type": "uint256"
				}
			],
			"name": "RemovedProposel",
			"type": "event"
		},
		{
			"anonymous": false,
			"inputs": [
				{
					"indexed": false,
					"internalType": "uint256",
					"name": "proposalId",
					"type": "uint256"
				},
				{
					"indexed": false,
					"internalType": "int256",
					"name": "change",
					"type": "int256"
				}
			],
			"name": "SignificantVoteChange",
			"type": "event"
		},
		{
			"anonymous": false,
			"inputs": [
				{
					"indexed": false,
					"internalType": "address",
					"name": "voter",
					"type": "address"
				},
				{
					"indexed": false,
					"internalType": "uint256",
					"name": "proposel_id",
					"type": "uint256"
				}
			],
			"name": "VoteCasted",
			"type": "event"
		},
		{
			"anonymous": false,
			"inputs": [
				{
					"indexed": false,
					"internalType": "address",
					"name": "voter",
					"type": "address"
				},
				{
					"indexed": false,
					"internalType": "uint256",
					"name": "proposel_id",
					"type": "uint256"
				}
			],
			"name": "VoteUncasted",
			"type": "event"
		},
		{
			"inputs": [],
			"name": "getFee",
			"outputs": [
				{
					"internalType": "uint256",
					"name": "",
					"type": "uint256"
				}
			],
			"stateMutability": "view",
			"type": "function"
		},
		{
			"inputs": [],
			"name": "getLastWinningProposal",
			"outputs": [
				{
					"components": [
						{
							"internalType": "address",
							"name": "owner",
							"type": "address"
						},
						{
							"internalType": "string",
							"name": "name",
							"type": "string"
						},
						{
							"internalType": "string",
							"name": "url",
							"type": "string"
						},
						{
							"internalType": "uint256",
							"name": "timestamp",
							"type": "uint256"
						},
						{
							"internalType": "uint256",
							"name": "votes",
							"type": "uint256"
						},
						{
							"internalType": "uint256",
							"name": "id",
							"type": "uint256"
						},
						{
							"internalType": "bytes32",
							"name": "uniqueHash",
							"type": "bytes32"
						}
					],
					"internalType": "struct Proposel",
					"name": "",
					"type": "tuple"
				}
			],
			"stateMutability": "view",
			"type": "function"
		},
		{
			"inputs": [],
			"name": "getLatestPrice",
			"outputs": [
				{
					"internalType": "uint256",
					"name": "",
					"type": "uint256"
				}
			],
			"stateMutability": "view",
			"type": "function"
		},
		{
			"inputs": [],
			"name": "getPeriodInterval",
			"outputs": [
				{
					"components": [
						{
							"internalType": "uint256",
							"name": "periodStart",
							"type": "uint256"
						},
						{
							"internalType": "uint256",
							"name": "periodEnd",
							"type": "uint256"
						}
					],
					"internalType": "struct PeriodInterval",
					"name": "",
					"type": "tuple"
				}
			],
			"stateMutability": "view",
			"type": "function"
		},
		{
			"inputs": [],
			"name": "getVotes",
			"outputs": [
				{
					"internalType": "address[]",
					"name": "",
					"type": "address[]"
				}
			],
			"stateMutability": "view",
			"type": "function"
		},
		{
			"inputs": [],
			"name": "getWinningPoposel",
			"outputs": [
				{
					"components": [
						{
							"internalType": "address",
							"name": "owner",
							"type": "address"
						},
						{
							"internalType": "string",
							"name": "name",
							"type": "string"
						},
						{
							"internalType": "string",
							"name": "url",
							"type": "string"
						},
						{
							"internalType": "uint256",
							"name": "timestamp",
							"type": "uint256"
						},
						{
							"internalType": "uint256",
							"name": "votes",
							"type": "uint256"
						},
						{
							"internalType": "uint256",
							"name": "id",
							"type": "uint256"
						},
						{
							"internalType": "bytes32",
							"name": "uniqueHash",
							"type": "bytes32"
						}
					],
					"internalType": "struct Proposel",
					"name": "",
					"type": "tuple"
				}
			],
			"stateMutability": "view",
			"type": "function"
		},
		{
			"inputs": [],
			"name": "lastWinningProposal",
			"outputs": [
				{
					"internalType": "address",
					"name": "owner",
					"type": "address"
				},
				{
					"internalType": "string",
					"name": "name",
					"type": "string"
				},
				{
					"internalType": "string",
					"name": "url",
					"type": "string"
				},
				{
					"internalType": "uint256",
					"name": "timestamp",
					"type": "uint256"
				},
				{
					"internalType": "uint256",
					"name": "votes",
					"type": "uint256"
				},
				{
					"internalType": "uint256",
					"name": "id",
					"type": "uint256"
				},
				{
					"internalType": "bytes32",
					"name": "uniqueHash",
					"type": "bytes32"
				}
			],
			"stateMutability": "view",
			"type": "function"
		},
		{
			"inputs": [],
			"name": "listProposels",
			"outputs": [
				{
					"components": [
						{
							"internalType": "address",
							"name": "owner",
							"type": "address"
						},
						{
							"internalType": "string",
							"name": "name",
							"type": "string"
						},
						{
							"internalType": "string",
							"name": "url",
							"type": "string"
						},
						{
							"internalType": "uint256",
							"name": "timestamp",
							"type": "uint256"
						},
						{
							"internalType": "uint256",
							"name": "votes",
							"type": "uint256"
						},
						{
							"internalType": "uint256",
							"name": "id",
							"type": "uint256"
						},
						{
							"internalType": "bytes32",
							"name": "uniqueHash",
							"type": "bytes32"
						}
					],
					"internalType": "struct Proposel[]",
					"name": "",
					"type": "tuple[]"
				}
			],
			"stateMutability": "view",
			"type": "function"
		},
		{
			"inputs": [
				{
					"internalType": "address",
					"name": "to",
					"type": "address"
				}
			],
			"name": "makeTransfer",
			"outputs": [],
			"stateMutability": "payable",
			"type": "function"
		},
		{
			"inputs": [],
			"name": "resetPeriod",
			"outputs": [],
			"stateMutability": "nonpayable",
			"type": "function"
		},
		{
			"inputs": [
				{
					"internalType": "uint256",
					"name": "newFee",
					"type": "uint256"
				}
			],
			"name": "setFee",
			"outputs": [],
			"stateMutability": "nonpayable",
			"type": "function"
		},
		{
			"inputs": [
				{
					"internalType": "string",
					"name": "name",
					"type": "string"
				},
				{
					"internalType": "string",
					"name": "url",
					"type": "string"
				}
			],
			"name": "setProposel",
			"outputs": [],
			"stateMutability": "payable",
			"type": "function"
		},
		{
			"inputs": [],
			"name": "unvote",
			"outputs": [],
			"stateMutability": "nonpayable",
			"type": "function"
		},
		{
			"inputs": [
				{
					"internalType": "uint256",
					"name": "proposel_id",
					"type": "uint256"
				}
			],
			"name": "vote",
			"outputs": [],
			"stateMutability": "nonpayable",
			"type": "function"
		}
	]
}