{
	"data": {
		"bytecode": {
			"linkReferences": {},
			"object": "6080604052348015600e575f80fd5b5073694aa1769357215de4fac081bf1f309adc3253065f806101000a81548173ffffffffffffffffffffffffffffffffffffffff021916908373ffffffffffffffffffffffffffffffffffffffff1602179055506102d08061006f5f395ff3fe608060405234801561000f575f80fd5b5060043610610029575f3560e01c80638e15f4731461002d575b5f80fd5b61003561004b565b604051610042919061010d565b60405180910390f35b5f805f8054906101000a900473ffffffffffffffffffffffffffffffffffffffff1673ffffffffffffffffffffffffffffffffffffffff1663feaf968c6040518163ffffffff1660e01b815260040160a060405180830381865afa1580156100b5573d5f803e3d5ffd5b505050506040513d601f19601f820116820180604052508101906100d991906101c6565b5050509150506305f5e100816100ef919061026a565b91505090565b5f819050919050565b610107816100f5565b82525050565b5f6020820190506101205f8301846100fe565b92915050565b5f80fd5b5f69ffffffffffffffffffff82169050919050565b6101488161012a565b8114610152575f80fd5b50565b5f815190506101638161013f565b92915050565b5f819050919050565b61017b81610169565b8114610185575f80fd5b50565b5f8151905061019681610172565b92915050565b6101a5816100f5565b81146101af575f80fd5b50565b5f815190506101c08161019c565b92915050565b5f805f805f60a086880312156101df576101de610126565b5b5f6101ec88828901610155565b95505060206101fd88828901610188565b945050604061020e888289016101b2565b935050606061021f888289016101b2565b925050608061023088828901610155565b9150509295509295909350565b7f4e487b71000000000000000000000000000000000000000000000000000000005f52601260045260245ffd5b5f610274826100f5565b915061027f836100f5565b92508261028f5761028e61023d565b5b82820490509291505056fea2646970667358221220937b86fc574388cbd44f2cbe7cc6d01c6bae0e19aa73426c76e6ea7c84e6cea164736f6c63430008190033",
			"opcodes": "PUSH1 0x80 PUSH1 0x40 MSTORE CALLVALUE DUP1 ISZERO PUSH1 0xE JUMPI PUSH0 DUP1 REVERT JUMPDEST POP PUSH20 0x694AA1769357215DE4FAC081BF1F309ADC325306 PUSH0 DUP1 PUSH2 0x100 EXP DUP2 SLOAD DUP2 PUSH20 0xFFFFFFFFFFFFFFFFFFFFFFFFFFFFFFFFFFFFFFFF MUL NOT AND SWAP1 DUP4 PUSH20 0xFFFFFFFFFFFFFFFFFFFFFFFFFFFFFFFFFFFFFFFF AND MUL OR SWAP1 SSTORE POP PUSH2 0x2D0 DUP1 PUSH2 0x6F PUSH0 CODECOPY PUSH0 RETURN INVALID PUSH1 0x80 PUSH1 0x40 MSTORE CALLVALUE DUP1 ISZERO PUSH2 0xF JUMPI PUSH0 DUP1 REVERT JUMPDEST POP PUSH1 0x4 CALLDATASIZE LT PUSH2 0x29 JUMPI PUSH0 CALLDATALOAD PUSH1 0xE0 SHR DUP1 PUSH4 0x8E15F473 EQ PUSH2 0x2D JUMPI JUMPDEST PUSH0 DUP1 REVERT JUMPDEST PUSH2 0x35 PUSH2 0x4B JUMP JUMPDEST PUSH1 0x40 MLOAD PUSH2 0x42 SWAP2 SWAP1 PUSH2 0x10D JUMP JUMPDEST PUSH1 0x40 MLOAD DUP1 SWAP2 SUB SWAP1 RETURN JUMPDEST PUSH0 DUP1 PUSH0 DUP1 SLOAD SWAP1 PUSH2 0x100 EXP SWAP1 DIV PUSH20 0xFFFFFFFFFFFFFFFFFFFFFFFFFFFFFFFFFFFFFFFF AND PUSH20 0xFFFFFFFFFFFFFFFFFFFFFFFFFFFFFFFFFFFFFFFF AND PUSH4 0xFEAF968C PUSH1 0x40 MLOAD DUP2 PUSH4 0xFFFFFFFF AND PUSH1 0xE0 SHL DUP2 MSTORE PUSH1 0x4 ADD PUSH1 0xA0 PUSH1 0x40 MLOAD DUP1 DUP4 SUB DUP2 DUP7 GAS STATICCALL ISZERO DUP1 ISZERO PUSH2 0xB5 JUMPI RETURNDATASIZE PUSH0 DUP1 RETURNDATACOPY RETURNDATASIZE PUSH0 REVERT JUMPDEST POP POP POP POP PUSH1 0x40 MLOAD RETURNDATASIZE PUSH1 0x1F NOT PUSH1 0x1F DUP3 ADD AND DUP3 ADD DUP1 PUSH1 0x40 MSTORE POP DUP2 ADD SWAP1 PUSH2 0xD9 SWAP2 SWAP1 PUSH2 0x1C6 JUMP JUMPDEST POP POP POP SWAP2 POP POP PUSH4 0x5F5E100 DUP2 PUSH2 0xEF SWAP2 SWAP1 PUSH2 0x26A JUMP JUMPDEST SWAP2 POP POP SWAP1 JUMP JUMPDEST PUSH0 DUP2 SWAP1 POP SWAP2 SWAP1 POP JUMP JUMPDEST PUSH2 0x107 DUP2 PUSH2 0xF5 JUMP JUMPDEST DUP3 MSTORE POP POP JUMP JUMPDEST PUSH0 PUSH1 0x20 DUP3 ADD SWAP1 POP PUSH2 0x120 PUSH0 DUP4 ADD DUP5 PUSH2 0xFE JUMP JUMPDEST SWAP3 SWAP2 POP POP JUMP JUMPDEST PUSH0 DUP1 REVERT JUMPDEST PUSH0 PUSH10 0xFFFFFFFFFFFFFFFFFFFF DUP3 AND SWAP1 POP SWAP2 SWAP1 POP JUMP JUMPDEST PUSH2 0x148 DUP2 PUSH2 0x12A JUMP JUMPDEST DUP2 EQ PUSH2 0x152 JUMPI PUSH0 DUP1 REVERT JUMPDEST POP JUMP JUMPDEST PUSH0 DUP2 MLOAD SWAP1 POP PUSH2 0x163 DUP2 PUSH2 0x13F JUMP JUMPDEST SWAP3 SWAP2 POP POP JUMP JUMPDEST PUSH0 DUP2 SWAP1 POP SWAP2 SWAP1 POP JUMP JUMPDEST PUSH2 0x17B DUP2 PUSH2 0x169 JUMP JUMPDEST DUP2 EQ PUSH2 0x185 JUMPI PUSH0 DUP1 REVERT JUMPDEST POP JUMP JUMPDEST PUSH0 DUP2 MLOAD SWAP1 POP PUSH2 0x196 DUP2 PUSH2 0x172 JUMP JUMPDEST SWAP3 SWAP2 POP POP JUMP JUMPDEST PUSH2 0x1A5 DUP2 PUSH2 0xF5 JUMP JUMPDEST DUP2 EQ PUSH2 0x1AF JUMPI PUSH0 DUP1 REVERT JUMPDEST POP JUMP JUMPDEST PUSH0 DUP2 MLOAD SWAP1 POP PUSH2 0x1C0 DUP2 PUSH2 0x19C JUMP JUMPDEST SWAP3 SWAP2 POP POP JUMP JUMPDEST PUSH0 DUP1 PUSH0 DUP1 PUSH0 PUSH1 0xA0 DUP7 DUP9 SUB SLT ISZERO PUSH2 0x1DF JUMPI PUSH2 0x1DE PUSH2 0x126 JUMP JUMPDEST JUMPDEST PUSH0 PUSH2 0x1EC DUP9 DUP3 DUP10 ADD PUSH2 0x155 JUMP JUMPDEST SWAP6 POP POP PUSH1 0x20 PUSH2 0x1FD DUP9 DUP3 DUP10 ADD PUSH2 0x188 JUMP JUMPDEST SWAP5 POP POP PUSH1 0x40 PUSH2 0x20E DUP9 DUP3 DUP10 ADD PUSH2 0x1B2 JUMP JUMPDEST SWAP4 POP POP PUSH1 0x60 PUSH2 0x21F DUP9 DUP3 DUP10 ADD PUSH2 0x1B2 JUMP JUMPDEST SWAP3 POP POP PUSH1 0x80 PUSH2 0x230 DUP9 DUP3 DUP10 ADD PUSH2 0x155 JUMP JUMPDEST SWAP2 POP POP SWAP3 SWAP6 POP SWAP3 SWAP6 SWAP1 SWAP4 POP JUMP JUMPDEST PUSH32 0x4E487B7100000000000000000000000000000000000000000000000000000000 PUSH0 MSTORE PUSH1 0x12 PUSH1 0x4 MSTORE PUSH1 0x24 PUSH0 REVERT JUMPDEST PUSH0 PUSH2 0x274 DUP3 PUSH2 0xF5 JUMP JUMPDEST SWAP2 POP PUSH2 0x27F DUP4 PUSH2 0xF5 JUMP JUMPDEST SWAP3 POP DUP3 PUSH2 0x28F JUMPI PUSH2 0x28E PUSH2 0x23D JUMP JUMPDEST JUMPDEST DUP3 DUP3 DIV SWAP1 POP SWAP3 SWAP2 POP POP JUMP INVALID LOG2 PUSH5 0x6970667358 0x22 SLT KECCAK256 SWAP4 PUSH28 0x86FC574388CBD44F2CBE7CC6D01C6BAE0E19AA73426C76E6EA7C84E6 0xCE LOG1 PUSH5 0x736F6C6343 STOP ADDMOD NOT STOP CALLER "
		},
		"gasEstimates": {
			"creation": {
				"codeDepositCost": "144000",
				"executionCost": "24454",
				"totalCost": "168454"
			},
			"external": {
				"getLatestPrice()": "infinite"
			}
		},
		"methodIdentifiers": {
			"getLatestPrice()": "8e15f473"
		}
	},
	"abi": [
		{
			"inputs": [],
			"stateMutability": "nonpayable",
			"type": "constructor"
		},
		{
			"inputs": [],
			"name": "getLatestPrice",
			"outputs": [
				{
					"internalType": "uint256",
					"name": "",
					"type": "uint256"
				}
			],
			"stateMutability": "view",
			"type": "function"
		}
	]
}