{
	"data": {
		"bytecode": {
			"linkReferences": {},
			"object": "61160a61004d600b8282823980515f1a6073146041577f4e487b71000000000000000000000000000000000000000000000000000000005f525f60045260245ffd5b305f52607381538281f3fe73000000000000000000000000000000000000000030146080604052600436106100a6575f3560e01c80636900a3ae1161006f5780636900a3ae1461019a578063c514e045146101ca578063ebb596ce146101fa578063f3516c621461022a578063f608ab781461025a576100a6565b80628f863f146100aa5780631c07c87f146100da5780634cde53711461010a5780635a8d46251461013a578063614945381461016a575b5f80fd5b6100c460048036038101906100bf9190610c8e565b61028a565b6040516100d19190610cf7565b60405180910390f35b6100f460048036038101906100ef9190610dd0565b6102df565b6040516101019190610cf7565b60405180910390f35b610124600480360381019061011f9190610e2a565b61035c565b6040516101319190610cf7565b60405180910390f35b610154600480360381019061014f9190610e71565b6103d0565b6040516101619190610f82565b60405180910390f35b610184600480360381019061017f9190610fa2565b61047f565b6040516101919190610ff8565b60405180910390f35b6101b460048036038101906101af9190611011565b6104ae565b6040516101c1919061109c565b60405180910390f35b6101e460048036038101906101df9190610e2a565b610607565b6040516101f1919061127d565b60405180910390f35b610214600480360381019061020f9190610c8e565b6106d4565b60405161022191906112b7565b60405180910390f35b610244600480360381019061023f91906112d0565b61072a565b6040516102519190610f82565b60405180910390f35b610274600480360381019061026f9190611317565b61081b565b604051610281919061109c565b60405180910390f35b5f805f90505b83518110156102d457828482815181106102ad576102ac6113b3565b5b602002602001015160a00151036102c757809150506102d9565b8080600101915050610290565b505f90505b92915050565b5f805f90505b8351811015610351578273ffffffffffffffffffffffffffffffffffffffff16848281518110610318576103176113b3565b5b602002602001015173ffffffffffffffffffffffffffffffffffffffff16036103445780915050610356565b80806001019150506102e5565b505f90505b92915050565b5f805f90505f805b84518110156103c55782858281518110610381576103806113b3565b5b60200260200101516080015111156103b8578481815181106103a6576103a56113b3565b5b60200260200101516080015192508091505b8080600101915050610364565b508092505050919050565b60605f8290505b600184516103e5919061140d565b81101561046d57836001826103fa9190611440565b8151811061040b5761040a6113b3565b5b6020026020010151848281518110610426576104256113b3565b5b602002602001019073ffffffffffffffffffffffffffffffffffffffff16908173ffffffffffffffffffffffffffffffffffffffff168152505080806001019150506103d7565b506104778361072a565b905092915050565b5f8160405160200161049191906114ad565b604051602081830303815290604052805190602001209050919050565b60605f82036104f4576040518060400160405280600181526020017f30000000000000000000000000000000000000000000000000000000000000008152509050610602565b5f8290505f5b5f821461052357808061050c906114c3565b915050600a8261051c9190611537565b91506104fa565b5f8167ffffffffffffffff81111561053e5761053d6108d3565b5b6040519080825280601f01601f1916602001820160405280156105705781602001600182028036833780820191505090505b5090505b5f85146105fb57600182610588919061140d565b9150600a856105979190611567565b60306105a39190611440565b60f81b8183815181106105b9576105b86113b3565b5b60200101907effffffffffffffffffffffffffffffffffffffffffffffffffffffffffffff191690815f1a905350600a856105f49190611537565b9450610574565b8093505050505b919050565b60605f60018351610618919061140d565b67ffffffffffffffff811115610631576106306108d3565b5b60405190808252806020026020018201604052801561066a57816020015b61065761085d565b81526020019060019003908161064f5790505b5090505f5b6001845161067d919061140d565b8110156106ca57838181518110610697576106966113b3565b5b60200260200101518282815181106106b2576106b16113b3565b5b6020026020010181905250808060010191505061066f565b5080915050919050565b5f805f90505b835181101561071f57828482815181106106f7576106f66113b3565b5b602002602001015160a0015103610712576001915050610724565b80806001019150506106da565b505f90505b92915050565b60605f6001835161073b919061140d565b67ffffffffffffffff811115610754576107536108d3565b5b6040519080825280602002602001820160405280156107825781602001602082028036833780820191505090505b5090505f5b60018451610795919061140d565b811015610811578381815181106107af576107ae6113b3565b5b60200260200101518282815181106107ca576107c96113b3565b5b602002602001019073ffffffffffffffffffffffffffffffffffffffff16908173ffffffffffffffffffffffffffffffffffffffff16815250508080600101915050610787565b5080915050919050565b60608484610828856104ae565b610831856104ae565b6040516020016108449493929190611597565b6040516020818303038152906040529050949350505050565b6040518060e001604052805f73ffffffffffffffffffffffffffffffffffffffff16815260200160608152602001606081526020015f81526020015f81526020015f81526020015f80191681525090565b5f604051905090565b5f80fd5b5f80fd5b5f80fd5b5f601f19601f8301169050919050565b7f4e487b71000000000000000000000000000000000000000000000000000000005f52604160045260245ffd5b610909826108c3565b810181811067ffffffffffffffff82111715610928576109276108d3565b5b80604052505050565b5f61093a6108ae565b90506109468282610900565b919050565b5f67ffffffffffffffff821115610965576109646108d3565b5b602082029050602081019050919050565b5f80fd5b5f80fd5b5f80fd5b5f73ffffffffffffffffffffffffffffffffffffffff82169050919050565b5f6109ab82610982565b9050919050565b6109bb816109a1565b81146109c5575f80fd5b50565b5f813590506109d6816109b2565b92915050565b5f80fd5b5f67ffffffffffffffff8211156109fa576109f96108d3565b5b610a03826108c3565b9050602081019050919050565b828183375f83830152505050565b5f610a30610a2b846109e0565b610931565b905082815260208101848484011115610a4c57610a4b6109dc565b5b610a57848285610a10565b509392505050565b5f82601f830112610a7357610a726108bf565b5b8135610a83848260208601610a1e565b91505092915050565b5f819050919050565b610a9e81610a8c565b8114610aa8575f80fd5b50565b5f81359050610ab981610a95565b92915050565b5f819050919050565b610ad181610abf565b8114610adb575f80fd5b50565b5f81359050610aec81610ac8565b92915050565b5f60e08284031215610b0757610b0661097a565b5b610b1160e0610931565b90505f610b20848285016109c8565b5f83015250602082013567ffffffffffffffff811115610b4357610b4261097e565b5b610b4f84828501610a5f565b602083015250604082013567ffffffffffffffff811115610b7357610b7261097e565b5b610b7f84828501610a5f565b6040830152506060610b9384828501610aab565b6060830152506080610ba784828501610aab565b60808301525060a0610bbb84828501610aab565b60a08301525060c0610bcf84828501610ade565b60c08301525092915050565b5f610bed610be88461094b565b610931565b90508083825260208201905060208402830185811115610c1057610c0f610976565b5b835b81811015610c5757803567ffffffffffffffff811115610c3557610c346108bf565b5b808601610c428982610af2565b85526020850194505050602081019050610c12565b5050509392505050565b5f82601f830112610c7557610c746108bf565b5b8135610c85848260208601610bdb565b91505092915050565b5f8060408385031215610ca457610ca36108b7565b5b5f83013567ffffffffffffffff811115610cc157610cc06108bb565b5b610ccd85828601610c61565b9250506020610cde85828601610aab565b9150509250929050565b610cf181610a8c565b82525050565b5f602082019050610d0a5f830184610ce8565b92915050565b5f67ffffffffffffffff821115610d2a57610d296108d3565b5b602082029050602081019050919050565b5f610d4d610d4884610d10565b610931565b90508083825260208201905060208402830185811115610d7057610d6f610976565b5b835b81811015610d995780610d8588826109c8565b845260208401935050602081019050610d72565b5050509392505050565b5f82601f830112610db757610db66108bf565b5b8135610dc7848260208601610d3b565b91505092915050565b5f8060408385031215610de657610de56108b7565b5b5f83013567ffffffffffffffff811115610e0357610e026108bb565b5b610e0f85828601610da3565b9250506020610e20858286016109c8565b9150509250929050565b5f60208284031215610e3f57610e3e6108b7565b5b5f82013567ffffffffffffffff811115610e5c57610e5b6108bb565b5b610e6884828501610c61565b91505092915050565b5f8060408385031215610e8757610e866108b7565b5b5f83013567ffffffffffffffff811115610ea457610ea36108bb565b5b610eb085828601610da3565b9250506020610ec185828601610aab565b9150509250929050565b5f81519050919050565b5f82825260208201905092915050565b5f819050602082019050919050565b610efd816109a1565b82525050565b5f610f0e8383610ef4565b60208301905092915050565b5f602082019050919050565b5f610f3082610ecb565b610f3a8185610ed5565b9350610f4583610ee5565b805f5b83811015610f75578151610f5c8882610f03565b9750610f6783610f1a565b925050600181019050610f48565b5085935050505092915050565b5f6020820190508181035f830152610f9a8184610f26565b905092915050565b5f60208284031215610fb757610fb66108b7565b5b5f82013567ffffffffffffffff811115610fd457610fd36108bb565b5b610fe084828501610a5f565b91505092915050565b610ff281610abf565b82525050565b5f60208201905061100b5f830184610fe9565b92915050565b5f60208284031215611026576110256108b7565b5b5f61103384828501610aab565b91505092915050565b5f81519050919050565b5f82825260208201905092915050565b8281835e5f83830152505050565b5f61106e8261103c565b6110788185611046565b9350611088818560208601611056565b611091816108c3565b840191505092915050565b5f6020820190508181035f8301526110b48184611064565b905092915050565b5f81519050919050565b5f82825260208201905092915050565b5f819050602082019050919050565b5f82825260208201905092915050565b5f6110ff8261103c565b61110981856110e5565b9350611119818560208601611056565b611122816108c3565b840191505092915050565b61113681610a8c565b82525050565b61114581610abf565b82525050565b5f60e083015f8301516111605f860182610ef4565b506020830151848203602086015261117882826110f5565b9150506040830151848203604086015261119282826110f5565b91505060608301516111a7606086018261112d565b5060808301516111ba608086018261112d565b5060a08301516111cd60a086018261112d565b5060c08301516111e060c086018261113c565b508091505092915050565b5f6111f6838361114b565b905092915050565b5f602082019050919050565b5f611214826110bc565b61121e81856110c6565b935083602082028501611230856110d6565b805f5b8581101561126b578484038952815161124c85826111eb565b9450611257836111fe565b925060208a01995050600181019050611233565b50829750879550505050505092915050565b5f6020820190508181035f830152611295818461120a565b905092915050565b5f8115159050919050565b6112b18161129d565b82525050565b5f6020820190506112ca5f8301846112a8565b92915050565b5f602082840312156112e5576112e46108b7565b5b5f82013567ffffffffffffffff811115611302576113016108bb565b5b61130e84828501610da3565b91505092915050565b5f805f806080858703121561132f5761132e6108b7565b5b5f85013567ffffffffffffffff81111561134c5761134b6108bb565b5b61135887828801610a5f565b945050602085013567ffffffffffffffff811115611379576113786108bb565b5b61138587828801610a5f565b935050604061139687828801610aab565b92505060606113a787828801610aab565b91505092959194509250565b7f4e487b71000000000000000000000000000000000000000000000000000000005f52603260045260245ffd5b7f4e487b71000000000000000000000000000000000000000000000000000000005f52601160045260245ffd5b5f61141782610a8c565b915061142283610a8c565b925082820390508181111561143a576114396113e0565b5b92915050565b5f61144a82610a8c565b915061145583610a8c565b925082820190508082111561146d5761146c6113e0565b5b92915050565b5f81905092915050565b5f6114878261103c565b6114918185611473565b93506114a1818560208601611056565b80840191505092915050565b5f6114b8828461147d565b915081905092915050565b5f6114cd82610a8c565b91507fffffffffffffffffffffffffffffffffffffffffffffffffffffffffffffffff82036114ff576114fe6113e0565b5b600182019050919050565b7f4e487b71000000000000000000000000000000000000000000000000000000005f52601260045260245ffd5b5f61154182610a8c565b915061154c83610a8c565b92508261155c5761155b61150a565b5b828204905092915050565b5f61157182610a8c565b915061157c83610a8c565b92508261158c5761158b61150a565b5b828206905092915050565b5f6115a2828761147d565b91506115ae828661147d565b91506115ba828561147d565b91506115c6828461147d565b91508190509594505050505056fea2646970667358221220b31ffb176903c12b97db20642fc13594155c2c676467b4db6028b812488126e264736f6c63430008190033",
			"opcodes": "PUSH2 0x160A PUSH2 0x4D PUSH1 0xB DUP3 DUP3 DUP3 CODECOPY DUP1 MLOAD PUSH0 BYTE PUSH1 0x73 EQ PUSH1 0x41 JUMPI PUSH32 0x4E487B7100000000000000000000000000000000000000000000000000000000 PUSH0 MSTORE PUSH0 PUSH1 0x4 MSTORE PUSH1 0x24 PUSH0 REVERT JUMPDEST ADDRESS PUSH0 MSTORE PUSH1 0x73 DUP2 MSTORE8 DUP3 DUP2 RETURN INVALID PUSH20 0x0 ADDRESS EQ PUSH1 0x80 PUSH1 0x40 MSTORE PUSH1 0x4 CALLDATASIZE LT PUSH2 0xA6 JUMPI PUSH0 CALLDATALOAD PUSH1 0xE0 SHR DUP1 PUSH4 0x6900A3AE GT PUSH2 0x6F JUMPI DUP1 PUSH4 0x6900A3AE EQ PUSH2 0x19A JUMPI DUP1 PUSH4 0xC514E045 EQ PUSH2 0x1CA JUMPI DUP1 PUSH4 0xEBB596CE EQ PUSH2 0x1FA JUMPI DUP1 PUSH4 0xF3516C62 EQ PUSH2 0x22A JUMPI DUP1 PUSH4 0xF608AB78 EQ PUSH2 0x25A JUMPI PUSH2 0xA6 JUMP JUMPDEST DUP1 PUSH3 0x8F863F EQ PUSH2 0xAA JUMPI DUP1 PUSH4 0x1C07C87F EQ PUSH2 0xDA JUMPI DUP1 PUSH4 0x4CDE5371 EQ PUSH2 0x10A JUMPI DUP1 PUSH4 0x5A8D4625 EQ PUSH2 0x13A JUMPI DUP1 PUSH4 0x61494538 EQ PUSH2 0x16A JUMPI JUMPDEST PUSH0 DUP1 REVERT JUMPDEST PUSH2 0xC4 PUSH1 0x4 DUP1 CALLDATASIZE SUB DUP2 ADD SWAP1 PUSH2 0xBF SWAP2 SWAP1 PUSH2 0xC8E JUMP JUMPDEST PUSH2 0x28A JUMP JUMPDEST PUSH1 0x40 MLOAD PUSH2 0xD1 SWAP2 SWAP1 PUSH2 0xCF7 JUMP JUMPDEST PUSH1 0x40 MLOAD DUP1 SWAP2 SUB SWAP1 RETURN JUMPDEST PUSH2 0xF4 PUSH1 0x4 DUP1 CALLDATASIZE SUB DUP2 ADD SWAP1 PUSH2 0xEF SWAP2 SWAP1 PUSH2 0xDD0 JUMP JUMPDEST PUSH2 0x2DF JUMP JUMPDEST PUSH1 0x40 MLOAD PUSH2 0x101 SWAP2 SWAP1 PUSH2 0xCF7 JUMP JUMPDEST PUSH1 0x40 MLOAD DUP1 SWAP2 SUB SWAP1 RETURN JUMPDEST PUSH2 0x124 PUSH1 0x4 DUP1 CALLDATASIZE SUB DUP2 ADD SWAP1 PUSH2 0x11F SWAP2 SWAP1 PUSH2 0xE2A JUMP JUMPDEST PUSH2 0x35C JUMP JUMPDEST PUSH1 0x40 MLOAD PUSH2 0x131 SWAP2 SWAP1 PUSH2 0xCF7 JUMP JUMPDEST PUSH1 0x40 MLOAD DUP1 SWAP2 SUB SWAP1 RETURN JUMPDEST PUSH2 0x154 PUSH1 0x4 DUP1 CALLDATASIZE SUB DUP2 ADD SWAP1 PUSH2 0x14F SWAP2 SWAP1 PUSH2 0xE71 JUMP JUMPDEST PUSH2 0x3D0 JUMP JUMPDEST PUSH1 0x40 MLOAD PUSH2 0x161 SWAP2 SWAP1 PUSH2 0xF82 JUMP JUMPDEST PUSH1 0x40 MLOAD DUP1 SWAP2 SUB SWAP1 RETURN JUMPDEST PUSH2 0x184 PUSH1 0x4 DUP1 CALLDATASIZE SUB DUP2 ADD SWAP1 PUSH2 0x17F SWAP2 SWAP1 PUSH2 0xFA2 JUMP JUMPDEST PUSH2 0x47F JUMP JUMPDEST PUSH1 0x40 MLOAD PUSH2 0x191 SWAP2 SWAP1 PUSH2 0xFF8 JUMP JUMPDEST PUSH1 0x40 MLOAD DUP1 SWAP2 SUB SWAP1 RETURN JUMPDEST PUSH2 0x1B4 PUSH1 0x4 DUP1 CALLDATASIZE SUB DUP2 ADD SWAP1 PUSH2 0x1AF SWAP2 SWAP1 PUSH2 0x1011 JUMP JUMPDEST PUSH2 0x4AE JUMP JUMPDEST PUSH1 0x40 MLOAD PUSH2 0x1C1 SWAP2 SWAP1 PUSH2 0x109C JUMP JUMPDEST PUSH1 0x40 MLOAD DUP1 SWAP2 SUB SWAP1 RETURN JUMPDEST PUSH2 0x1E4 PUSH1 0x4 DUP1 CALLDATASIZE SUB DUP2 ADD SWAP1 PUSH2 0x1DF SWAP2 SWAP1 PUSH2 0xE2A JUMP JUMPDEST PUSH2 0x607 JUMP JUMPDEST PUSH1 0x40 MLOAD PUSH2 0x1F1 SWAP2 SWAP1 PUSH2 0x127D JUMP JUMPDEST PUSH1 0x40 MLOAD DUP1 SWAP2 SUB SWAP1 RETURN JUMPDEST PUSH2 0x214 PUSH1 0x4 DUP1 CALLDATASIZE SUB DUP2 ADD SWAP1 PUSH2 0x20F SWAP2 SWAP1 PUSH2 0xC8E JUMP JUMPDEST PUSH2 0x6D4 JUMP JUMPDEST PUSH1 0x40 MLOAD PUSH2 0x221 SWAP2 SWAP1 PUSH2 0x12B7 JUMP JUMPDEST PUSH1 0x40 MLOAD DUP1 SWAP2 SUB SWAP1 RETURN JUMPDEST PUSH2 0x244 PUSH1 0x4 DUP1 CALLDATASIZE SUB DUP2 ADD SWAP1 PUSH2 0x23F SWAP2 SWAP1 PUSH2 0x12D0 JUMP JUMPDEST PUSH2 0x72A JUMP JUMPDEST PUSH1 0x40 MLOAD PUSH2 0x251 SWAP2 SWAP1 PUSH2 0xF82 JUMP JUMPDEST PUSH1 0x40 MLOAD DUP1 SWAP2 SUB SWAP1 RETURN JUMPDEST PUSH2 0x274 PUSH1 0x4 DUP1 CALLDATASIZE SUB DUP2 ADD SWAP1 PUSH2 0x26F SWAP2 SWAP1 PUSH2 0x1317 JUMP JUMPDEST PUSH2 0x81B JUMP JUMPDEST PUSH1 0x40 MLOAD PUSH2 0x281 SWAP2 SWAP1 PUSH2 0x109C JUMP JUMPDEST PUSH1 0x40 MLOAD DUP1 SWAP2 SUB SWAP1 RETURN JUMPDEST PUSH0 DUP1 PUSH0 SWAP1 POP JUMPDEST DUP4 MLOAD DUP2 LT ISZERO PUSH2 0x2D4 JUMPI DUP3 DUP5 DUP3 DUP2 MLOAD DUP2 LT PUSH2 0x2AD JUMPI PUSH2 0x2AC PUSH2 0x13B3 JUMP JUMPDEST JUMPDEST PUSH1 0x20 MUL PUSH1 0x20 ADD ADD MLOAD PUSH1 0xA0 ADD MLOAD SUB PUSH2 0x2C7 JUMPI DUP1 SWAP2 POP POP PUSH2 0x2D9 JUMP JUMPDEST DUP1 DUP1 PUSH1 0x1 ADD SWAP2 POP POP PUSH2 0x290 JUMP JUMPDEST POP PUSH0 SWAP1 POP JUMPDEST SWAP3 SWAP2 POP POP JUMP JUMPDEST PUSH0 DUP1 PUSH0 SWAP1 POP JUMPDEST DUP4 MLOAD DUP2 LT ISZERO PUSH2 0x351 JUMPI DUP3 PUSH20 0xFFFFFFFFFFFFFFFFFFFFFFFFFFFFFFFFFFFFFFFF AND DUP5 DUP3 DUP2 MLOAD DUP2 LT PUSH2 0x318 JUMPI PUSH2 0x317 PUSH2 0x13B3 JUMP JUMPDEST JUMPDEST PUSH1 0x20 MUL PUSH1 0x20 ADD ADD MLOAD PUSH20 0xFFFFFFFFFFFFFFFFFFFFFFFFFFFFFFFFFFFFFFFF AND SUB PUSH2 0x344 JUMPI DUP1 SWAP2 POP POP PUSH2 0x356 JUMP JUMPDEST DUP1 DUP1 PUSH1 0x1 ADD SWAP2 POP POP PUSH2 0x2E5 JUMP JUMPDEST POP PUSH0 SWAP1 POP JUMPDEST SWAP3 SWAP2 POP POP JUMP JUMPDEST PUSH0 DUP1 PUSH0 SWAP1 POP PUSH0 DUP1 JUMPDEST DUP5 MLOAD DUP2 LT ISZERO PUSH2 0x3C5 JUMPI DUP3 DUP6 DUP3 DUP2 MLOAD DUP2 LT PUSH2 0x381 JUMPI PUSH2 0x380 PUSH2 0x13B3 JUMP JUMPDEST JUMPDEST PUSH1 0x20 MUL PUSH1 0x20 ADD ADD MLOAD PUSH1 0x80 ADD MLOAD GT ISZERO PUSH2 0x3B8 JUMPI DUP5 DUP2 DUP2 MLOAD DUP2 LT PUSH2 0x3A6 JUMPI PUSH2 0x3A5 PUSH2 0x13B3 JUMP JUMPDEST JUMPDEST PUSH1 0x20 MUL PUSH1 0x20 ADD ADD MLOAD PUSH1 0x80 ADD MLOAD SWAP3 POP DUP1 SWAP2 POP JUMPDEST DUP1 DUP1 PUSH1 0x1 ADD SWAP2 POP POP PUSH2 0x364 JUMP JUMPDEST POP DUP1 SWAP3 POP POP POP SWAP2 SWAP1 POP JUMP JUMPDEST PUSH1 0x60 PUSH0 DUP3 SWAP1 POP JUMPDEST PUSH1 0x1 DUP5 MLOAD PUSH2 0x3E5 SWAP2 SWAP1 PUSH2 0x140D JUMP JUMPDEST DUP2 LT ISZERO PUSH2 0x46D JUMPI DUP4 PUSH1 0x1 DUP3 PUSH2 0x3FA SWAP2 SWAP1 PUSH2 0x1440 JUMP JUMPDEST DUP2 MLOAD DUP2 LT PUSH2 0x40B JUMPI PUSH2 0x40A PUSH2 0x13B3 JUMP JUMPDEST JUMPDEST PUSH1 0x20 MUL PUSH1 0x20 ADD ADD MLOAD DUP5 DUP3 DUP2 MLOAD DUP2 LT PUSH2 0x426 JUMPI PUSH2 0x425 PUSH2 0x13B3 JUMP JUMPDEST JUMPDEST PUSH1 0x20 MUL PUSH1 0x20 ADD ADD SWAP1 PUSH20 0xFFFFFFFFFFFFFFFFFFFFFFFFFFFFFFFFFFFFFFFF AND SWAP1 DUP2 PUSH20 0xFFFFFFFFFFFFFFFFFFFFFFFFFFFFFFFFFFFFFFFF AND DUP2 MSTORE POP POP DUP1 DUP1 PUSH1 0x1 ADD SWAP2 POP POP PUSH2 0x3D7 JUMP JUMPDEST POP PUSH2 0x477 DUP4 PUSH2 0x72A JUMP JUMPDEST SWAP1 POP SWAP3 SWAP2 POP POP JUMP JUMPDEST PUSH0 DUP2 PUSH1 0x40 MLOAD PUSH1 0x20 ADD PUSH2 0x491 SWAP2 SWAP1 PUSH2 0x14AD JUMP JUMPDEST PUSH1 0x40 MLOAD PUSH1 0x20 DUP2 DUP4 SUB SUB DUP2 MSTORE SWAP1 PUSH1 0x40 MSTORE DUP1 MLOAD SWAP1 PUSH1 0x20 ADD KECCAK256 SWAP1 POP SWAP2 SWAP1 POP JUMP JUMPDEST PUSH1 0x60 PUSH0 DUP3 SUB PUSH2 0x4F4 JUMPI PUSH1 0x40 MLOAD DUP1 PUSH1 0x40 ADD PUSH1 0x40 MSTORE DUP1 PUSH1 0x1 DUP2 MSTORE PUSH1 0x20 ADD PUSH32 0x3000000000000000000000000000000000000000000000000000000000000000 DUP2 MSTORE POP SWAP1 POP PUSH2 0x602 JUMP JUMPDEST PUSH0 DUP3 SWAP1 POP PUSH0 JUMPDEST PUSH0 DUP3 EQ PUSH2 0x523 JUMPI DUP1 DUP1 PUSH2 0x50C SWAP1 PUSH2 0x14C3 JUMP JUMPDEST SWAP2 POP POP PUSH1 0xA DUP3 PUSH2 0x51C SWAP2 SWAP1 PUSH2 0x1537 JUMP JUMPDEST SWAP2 POP PUSH2 0x4FA JUMP JUMPDEST PUSH0 DUP2 PUSH8 0xFFFFFFFFFFFFFFFF DUP2 GT ISZERO PUSH2 0x53E JUMPI PUSH2 0x53D PUSH2 0x8D3 JUMP JUMPDEST JUMPDEST PUSH1 0x40 MLOAD SWAP1 DUP1 DUP3 MSTORE DUP1 PUSH1 0x1F ADD PUSH1 0x1F NOT AND PUSH1 0x20 ADD DUP3 ADD PUSH1 0x40 MSTORE DUP1 ISZERO PUSH2 0x570 JUMPI DUP2 PUSH1 0x20 ADD PUSH1 0x1 DUP3 MUL DUP1 CALLDATASIZE DUP4 CALLDATACOPY DUP1 DUP3 ADD SWAP2 POP POP SWAP1 POP JUMPDEST POP SWAP1 POP JUMPDEST PUSH0 DUP6 EQ PUSH2 0x5FB JUMPI PUSH1 0x1 DUP3 PUSH2 0x588 SWAP2 SWAP1 PUSH2 0x140D JUMP JUMPDEST SWAP2 POP PUSH1 0xA DUP6 PUSH2 0x597 SWAP2 SWAP1 PUSH2 0x1567 JUMP JUMPDEST PUSH1 0x30 PUSH2 0x5A3 SWAP2 SWAP1 PUSH2 0x1440 JUMP JUMPDEST PUSH1 0xF8 SHL DUP2 DUP4 DUP2 MLOAD DUP2 LT PUSH2 0x5B9 JUMPI PUSH2 0x5B8 PUSH2 0x13B3 JUMP JUMPDEST JUMPDEST PUSH1 0x20 ADD ADD SWAP1 PUSH31 0xFFFFFFFFFFFFFFFFFFFFFFFFFFFFFFFFFFFFFFFFFFFFFFFFFFFFFFFFFFFFFF NOT AND SWAP1 DUP2 PUSH0 BYTE SWAP1 MSTORE8 POP PUSH1 0xA DUP6 PUSH2 0x5F4 SWAP2 SWAP1 PUSH2 0x1537 JUMP JUMPDEST SWAP5 POP PUSH2 0x574 JUMP JUMPDEST DUP1 SWAP4 POP POP POP POP JUMPDEST SWAP2 SWAP1 POP JUMP JUMPDEST PUSH1 0x60 PUSH0 PUSH1 0x1 DUP4 MLOAD PUSH2 0x618 SWAP2 SWAP1 PUSH2 0x140D JUMP JUMPDEST PUSH8 0xFFFFFFFFFFFFFFFF DUP2 GT ISZERO PUSH2 0x631 JUMPI PUSH2 0x630 PUSH2 0x8D3 JUMP JUMPDEST JUMPDEST PUSH1 0x40 MLOAD SWAP1 DUP1 DUP3 MSTORE DUP1 PUSH1 0x20 MUL PUSH1 0x20 ADD DUP3 ADD PUSH1 0x40 MSTORE DUP1 ISZERO PUSH2 0x66A JUMPI DUP2 PUSH1 0x20 ADD JUMPDEST PUSH2 0x657 PUSH2 0x85D JUMP JUMPDEST DUP2 MSTORE PUSH1 0x20 ADD SWAP1 PUSH1 0x1 SWAP1 SUB SWAP1 DUP2 PUSH2 0x64F JUMPI SWAP1 POP JUMPDEST POP SWAP1 POP PUSH0 JUMPDEST PUSH1 0x1 DUP5 MLOAD PUSH2 0x67D SWAP2 SWAP1 PUSH2 0x140D JUMP JUMPDEST DUP2 LT ISZERO PUSH2 0x6CA JUMPI DUP4 DUP2 DUP2 MLOAD DUP2 LT PUSH2 0x697 JUMPI PUSH2 0x696 PUSH2 0x13B3 JUMP JUMPDEST JUMPDEST PUSH1 0x20 MUL PUSH1 0x20 ADD ADD MLOAD DUP3 DUP3 DUP2 MLOAD DUP2 LT PUSH2 0x6B2 JUMPI PUSH2 0x6B1 PUSH2 0x13B3 JUMP JUMPDEST JUMPDEST PUSH1 0x20 MUL PUSH1 0x20 ADD ADD DUP2 SWAP1 MSTORE POP DUP1 DUP1 PUSH1 0x1 ADD SWAP2 POP POP PUSH2 0x66F JUMP JUMPDEST POP DUP1 SWAP2 POP POP SWAP2 SWAP1 POP JUMP JUMPDEST PUSH0 DUP1 PUSH0 SWAP1 POP JUMPDEST DUP4 MLOAD DUP2 LT ISZERO PUSH2 0x71F JUMPI DUP3 DUP5 DUP3 DUP2 MLOAD DUP2 LT PUSH2 0x6F7 JUMPI PUSH2 0x6F6 PUSH2 0x13B3 JUMP JUMPDEST JUMPDEST PUSH1 0x20 MUL PUSH1 0x20 ADD ADD MLOAD PUSH1 0xA0 ADD MLOAD SUB PUSH2 0x712 JUMPI PUSH1 0x1 SWAP2 POP POP PUSH2 0x724 JUMP JUMPDEST DUP1 DUP1 PUSH1 0x1 ADD SWAP2 POP POP PUSH2 0x6DA JUMP JUMPDEST POP PUSH0 SWAP1 POP JUMPDEST SWAP3 SWAP2 POP POP JUMP JUMPDEST PUSH1 0x60 PUSH0 PUSH1 0x1 DUP4 MLOAD PUSH2 0x73B SWAP2 SWAP1 PUSH2 0x140D JUMP JUMPDEST PUSH8 0xFFFFFFFFFFFFFFFF DUP2 GT ISZERO PUSH2 0x754 JUMPI PUSH2 0x753 PUSH2 0x8D3 JUMP JUMPDEST JUMPDEST PUSH1 0x40 MLOAD SWAP1 DUP1 DUP3 MSTORE DUP1 PUSH1 0x20 MUL PUSH1 0x20 ADD DUP3 ADD PUSH1 0x40 MSTORE DUP1 ISZERO PUSH2 0x782 JUMPI DUP2 PUSH1 0x20 ADD PUSH1 0x20 DUP3 MUL DUP1 CALLDATASIZE DUP4 CALLDATACOPY DUP1 DUP3 ADD SWAP2 POP POP SWAP1 POP JUMPDEST POP SWAP1 POP PUSH0 JUMPDEST PUSH1 0x1 DUP5 MLOAD PUSH2 0x795 SWAP2 SWAP1 PUSH2 0x140D JUMP JUMPDEST DUP2 LT ISZERO PUSH2 0x811 JUMPI DUP4 DUP2 DUP2 MLOAD DUP2 LT PUSH2 0x7AF JUMPI PUSH2 0x7AE PUSH2 0x13B3 JUMP JUMPDEST JUMPDEST PUSH1 0x20 MUL PUSH1 0x20 ADD ADD MLOAD DUP3 DUP3 DUP2 MLOAD DUP2 LT PUSH2 0x7CA JUMPI PUSH2 0x7C9 PUSH2 0x13B3 JUMP JUMPDEST JUMPDEST PUSH1 0x20 MUL PUSH1 0x20 ADD ADD SWAP1 PUSH20 0xFFFFFFFFFFFFFFFFFFFFFFFFFFFFFFFFFFFFFFFF AND SWAP1 DUP2 PUSH20 0xFFFFFFFFFFFFFFFFFFFFFFFFFFFFFFFFFFFFFFFF AND DUP2 MSTORE POP POP DUP1 DUP1 PUSH1 0x1 ADD SWAP2 POP POP PUSH2 0x787 JUMP JUMPDEST POP DUP1 SWAP2 POP POP SWAP2 SWAP1 POP JUMP JUMPDEST PUSH1 0x60 DUP5 DUP5 PUSH2 0x828 DUP6 PUSH2 0x4AE JUMP JUMPDEST PUSH2 0x831 DUP6 PUSH2 0x4AE JUMP JUMPDEST PUSH1 0x40 MLOAD PUSH1 0x20 ADD PUSH2 0x844 SWAP5 SWAP4 SWAP3 SWAP2 SWAP1 PUSH2 0x1597 JUMP JUMPDEST PUSH1 0x40 MLOAD PUSH1 0x20 DUP2 DUP4 SUB SUB DUP2 MSTORE SWAP1 PUSH1 0x40 MSTORE SWAP1 POP SWAP5 SWAP4 POP POP POP POP JUMP JUMPDEST PUSH1 0x40 MLOAD DUP1 PUSH1 0xE0 ADD PUSH1 0x40 MSTORE DUP1 PUSH0 PUSH20 0xFFFFFFFFFFFFFFFFFFFFFFFFFFFFFFFFFFFFFFFF AND DUP2 MSTORE PUSH1 0x20 ADD PUSH1 0x60 DUP2 MSTORE PUSH1 0x20 ADD PUSH1 0x60 DUP2 MSTORE PUSH1 0x20 ADD PUSH0 DUP2 MSTORE PUSH1 0x20 ADD PUSH0 DUP2 MSTORE PUSH1 0x20 ADD PUSH0 DUP2 MSTORE PUSH1 0x20 ADD PUSH0 DUP1 NOT AND DUP2 MSTORE POP SWAP1 JUMP JUMPDEST PUSH0 PUSH1 0x40 MLOAD SWAP1 POP SWAP1 JUMP JUMPDEST PUSH0 DUP1 REVERT JUMPDEST PUSH0 DUP1 REVERT JUMPDEST PUSH0 DUP1 REVERT JUMPDEST PUSH0 PUSH1 0x1F NOT PUSH1 0x1F DUP4 ADD AND SWAP1 POP SWAP2 SWAP1 POP JUMP JUMPDEST PUSH32 0x4E487B7100000000000000000000000000000000000000000000000000000000 PUSH0 MSTORE PUSH1 0x41 PUSH1 0x4 MSTORE PUSH1 0x24 PUSH0 REVERT JUMPDEST PUSH2 0x909 DUP3 PUSH2 0x8C3 JUMP JUMPDEST DUP2 ADD DUP2 DUP2 LT PUSH8 0xFFFFFFFFFFFFFFFF DUP3 GT OR ISZERO PUSH2 0x928 JUMPI PUSH2 0x927 PUSH2 0x8D3 JUMP JUMPDEST JUMPDEST DUP1 PUSH1 0x40 MSTORE POP POP POP JUMP JUMPDEST PUSH0 PUSH2 0x93A PUSH2 0x8AE JUMP JUMPDEST SWAP1 POP PUSH2 0x946 DUP3 DUP3 PUSH2 0x900 JUMP JUMPDEST SWAP2 SWAP1 POP JUMP JUMPDEST PUSH0 PUSH8 0xFFFFFFFFFFFFFFFF DUP3 GT ISZERO PUSH2 0x965 JUMPI PUSH2 0x964 PUSH2 0x8D3 JUMP JUMPDEST JUMPDEST PUSH1 0x20 DUP3 MUL SWAP1 POP PUSH1 0x20 DUP2 ADD SWAP1 POP SWAP2 SWAP1 POP JUMP JUMPDEST PUSH0 DUP1 REVERT JUMPDEST PUSH0 DUP1 REVERT JUMPDEST PUSH0 DUP1 REVERT JUMPDEST PUSH0 PUSH20 0xFFFFFFFFFFFFFFFFFFFFFFFFFFFFFFFFFFFFFFFF DUP3 AND SWAP1 POP SWAP2 SWAP1 POP JUMP JUMPDEST PUSH0 PUSH2 0x9AB DUP3 PUSH2 0x982 JUMP JUMPDEST SWAP1 POP SWAP2 SWAP1 POP JUMP JUMPDEST PUSH2 0x9BB DUP2 PUSH2 0x9A1 JUMP JUMPDEST DUP2 EQ PUSH2 0x9C5 JUMPI PUSH0 DUP1 REVERT JUMPDEST POP JUMP JUMPDEST PUSH0 DUP2 CALLDATALOAD SWAP1 POP PUSH2 0x9D6 DUP2 PUSH2 0x9B2 JUMP JUMPDEST SWAP3 SWAP2 POP POP JUMP JUMPDEST PUSH0 DUP1 REVERT JUMPDEST PUSH0 PUSH8 0xFFFFFFFFFFFFFFFF DUP3 GT ISZERO PUSH2 0x9FA JUMPI PUSH2 0x9F9 PUSH2 0x8D3 JUMP JUMPDEST JUMPDEST PUSH2 0xA03 DUP3 PUSH2 0x8C3 JUMP JUMPDEST SWAP1 POP PUSH1 0x20 DUP2 ADD SWAP1 POP SWAP2 SWAP1 POP JUMP JUMPDEST DUP3 DUP2 DUP4 CALLDATACOPY PUSH0 DUP4 DUP4 ADD MSTORE POP POP POP JUMP JUMPDEST PUSH0 PUSH2 0xA30 PUSH2 0xA2B DUP5 PUSH2 0x9E0 JUMP JUMPDEST PUSH2 0x931 JUMP JUMPDEST SWAP1 POP DUP3 DUP2 MSTORE PUSH1 0x20 DUP2 ADD DUP5 DUP5 DUP5 ADD GT ISZERO PUSH2 0xA4C JUMPI PUSH2 0xA4B PUSH2 0x9DC JUMP JUMPDEST JUMPDEST PUSH2 0xA57 DUP5 DUP3 DUP6 PUSH2 0xA10 JUMP JUMPDEST POP SWAP4 SWAP3 POP POP POP JUMP JUMPDEST PUSH0 DUP3 PUSH1 0x1F DUP4 ADD SLT PUSH2 0xA73 JUMPI PUSH2 0xA72 PUSH2 0x8BF JUMP JUMPDEST JUMPDEST DUP2 CALLDATALOAD PUSH2 0xA83 DUP5 DUP3 PUSH1 0x20 DUP7 ADD PUSH2 0xA1E JUMP JUMPDEST SWAP2 POP POP SWAP3 SWAP2 POP POP JUMP JUMPDEST PUSH0 DUP2 SWAP1 POP SWAP2 SWAP1 POP JUMP JUMPDEST PUSH2 0xA9E DUP2 PUSH2 0xA8C JUMP JUMPDEST DUP2 EQ PUSH2 0xAA8 JUMPI PUSH0 DUP1 REVERT JUMPDEST POP JUMP JUMPDEST PUSH0 DUP2 CALLDATALOAD SWAP1 POP PUSH2 0xAB9 DUP2 PUSH2 0xA95 JUMP JUMPDEST SWAP3 SWAP2 POP POP JUMP JUMPDEST PUSH0 DUP2 SWAP1 POP SWAP2 SWAP1 POP JUMP JUMPDEST PUSH2 0xAD1 DUP2 PUSH2 0xABF JUMP JUMPDEST DUP2 EQ PUSH2 0xADB JUMPI PUSH0 DUP1 REVERT JUMPDEST POP JUMP JUMPDEST PUSH0 DUP2 CALLDATALOAD SWAP1 POP PUSH2 0xAEC DUP2 PUSH2 0xAC8 JUMP JUMPDEST SWAP3 SWAP2 POP POP JUMP JUMPDEST PUSH0 PUSH1 0xE0 DUP3 DUP5 SUB SLT ISZERO PUSH2 0xB07 JUMPI PUSH2 0xB06 PUSH2 0x97A JUMP JUMPDEST JUMPDEST PUSH2 0xB11 PUSH1 0xE0 PUSH2 0x931 JUMP JUMPDEST SWAP1 POP PUSH0 PUSH2 0xB20 DUP5 DUP3 DUP6 ADD PUSH2 0x9C8 JUMP JUMPDEST PUSH0 DUP4 ADD MSTORE POP PUSH1 0x20 DUP3 ADD CALLDATALOAD PUSH8 0xFFFFFFFFFFFFFFFF DUP2 GT ISZERO PUSH2 0xB43 JUMPI PUSH2 0xB42 PUSH2 0x97E JUMP JUMPDEST JUMPDEST PUSH2 0xB4F DUP5 DUP3 DUP6 ADD PUSH2 0xA5F JUMP JUMPDEST PUSH1 0x20 DUP4 ADD MSTORE POP PUSH1 0x40 DUP3 ADD CALLDATALOAD PUSH8 0xFFFFFFFFFFFFFFFF DUP2 GT ISZERO PUSH2 0xB73 JUMPI PUSH2 0xB72 PUSH2 0x97E JUMP JUMPDEST JUMPDEST PUSH2 0xB7F DUP5 DUP3 DUP6 ADD PUSH2 0xA5F JUMP JUMPDEST PUSH1 0x40 DUP4 ADD MSTORE POP PUSH1 0x60 PUSH2 0xB93 DUP5 DUP3 DUP6 ADD PUSH2 0xAAB JUMP JUMPDEST PUSH1 0x60 DUP4 ADD MSTORE POP PUSH1 0x80 PUSH2 0xBA7 DUP5 DUP3 DUP6 ADD PUSH2 0xAAB JUMP JUMPDEST PUSH1 0x80 DUP4 ADD MSTORE POP PUSH1 0xA0 PUSH2 0xBBB DUP5 DUP3 DUP6 ADD PUSH2 0xAAB JUMP JUMPDEST PUSH1 0xA0 DUP4 ADD MSTORE POP PUSH1 0xC0 PUSH2 0xBCF DUP5 DUP3 DUP6 ADD PUSH2 0xADE JUMP JUMPDEST PUSH1 0xC0 DUP4 ADD MSTORE POP SWAP3 SWAP2 POP POP JUMP JUMPDEST PUSH0 PUSH2 0xBED PUSH2 0xBE8 DUP5 PUSH2 0x94B JUMP JUMPDEST PUSH2 0x931 JUMP JUMPDEST SWAP1 POP DUP1 DUP4 DUP3 MSTORE PUSH1 0x20 DUP3 ADD SWAP1 POP PUSH1 0x20 DUP5 MUL DUP4 ADD DUP6 DUP2 GT ISZERO PUSH2 0xC10 JUMPI PUSH2 0xC0F PUSH2 0x976 JUMP JUMPDEST JUMPDEST DUP4 JUMPDEST DUP2 DUP2 LT ISZERO PUSH2 0xC57 JUMPI DUP1 CALLDATALOAD PUSH8 0xFFFFFFFFFFFFFFFF DUP2 GT ISZERO PUSH2 0xC35 JUMPI PUSH2 0xC34 PUSH2 0x8BF JUMP JUMPDEST JUMPDEST DUP1 DUP7 ADD PUSH2 0xC42 DUP10 DUP3 PUSH2 0xAF2 JUMP JUMPDEST DUP6 MSTORE PUSH1 0x20 DUP6 ADD SWAP5 POP POP POP PUSH1 0x20 DUP2 ADD SWAP1 POP PUSH2 0xC12 JUMP JUMPDEST POP POP POP SWAP4 SWAP3 POP POP POP JUMP JUMPDEST PUSH0 DUP3 PUSH1 0x1F DUP4 ADD SLT PUSH2 0xC75 JUMPI PUSH2 0xC74 PUSH2 0x8BF JUMP JUMPDEST JUMPDEST DUP2 CALLDATALOAD PUSH2 0xC85 DUP5 DUP3 PUSH1 0x20 DUP7 ADD PUSH2 0xBDB JUMP JUMPDEST SWAP2 POP POP SWAP3 SWAP2 POP POP JUMP JUMPDEST PUSH0 DUP1 PUSH1 0x40 DUP4 DUP6 SUB SLT ISZERO PUSH2 0xCA4 JUMPI PUSH2 0xCA3 PUSH2 0x8B7 JUMP JUMPDEST JUMPDEST PUSH0 DUP4 ADD CALLDATALOAD PUSH8 0xFFFFFFFFFFFFFFFF DUP2 GT ISZERO PUSH2 0xCC1 JUMPI PUSH2 0xCC0 PUSH2 0x8BB JUMP JUMPDEST JUMPDEST PUSH2 0xCCD DUP6 DUP3 DUP7 ADD PUSH2 0xC61 JUMP JUMPDEST SWAP3 POP POP PUSH1 0x20 PUSH2 0xCDE DUP6 DUP3 DUP7 ADD PUSH2 0xAAB JUMP JUMPDEST SWAP2 POP POP SWAP3 POP SWAP3 SWAP1 POP JUMP JUMPDEST PUSH2 0xCF1 DUP2 PUSH2 0xA8C JUMP JUMPDEST DUP3 MSTORE POP POP JUMP JUMPDEST PUSH0 PUSH1 0x20 DUP3 ADD SWAP1 POP PUSH2 0xD0A PUSH0 DUP4 ADD DUP5 PUSH2 0xCE8 JUMP JUMPDEST SWAP3 SWAP2 POP POP JUMP JUMPDEST PUSH0 PUSH8 0xFFFFFFFFFFFFFFFF DUP3 GT ISZERO PUSH2 0xD2A JUMPI PUSH2 0xD29 PUSH2 0x8D3 JUMP JUMPDEST JUMPDEST PUSH1 0x20 DUP3 MUL SWAP1 POP PUSH1 0x20 DUP2 ADD SWAP1 POP SWAP2 SWAP1 POP JUMP JUMPDEST PUSH0 PUSH2 0xD4D PUSH2 0xD48 DUP5 PUSH2 0xD10 JUMP JUMPDEST PUSH2 0x931 JUMP JUMPDEST SWAP1 POP DUP1 DUP4 DUP3 MSTORE PUSH1 0x20 DUP3 ADD SWAP1 POP PUSH1 0x20 DUP5 MUL DUP4 ADD DUP6 DUP2 GT ISZERO PUSH2 0xD70 JUMPI PUSH2 0xD6F PUSH2 0x976 JUMP JUMPDEST JUMPDEST DUP4 JUMPDEST DUP2 DUP2 LT ISZERO PUSH2 0xD99 JUMPI DUP1 PUSH2 0xD85 DUP9 DUP3 PUSH2 0x9C8 JUMP JUMPDEST DUP5 MSTORE PUSH1 0x20 DUP5 ADD SWAP4 POP POP PUSH1 0x20 DUP2 ADD SWAP1 POP PUSH2 0xD72 JUMP JUMPDEST POP POP POP SWAP4 SWAP3 POP POP POP JUMP JUMPDEST PUSH0 DUP3 PUSH1 0x1F DUP4 ADD SLT PUSH2 0xDB7 JUMPI PUSH2 0xDB6 PUSH2 0x8BF JUMP JUMPDEST JUMPDEST DUP2 CALLDATALOAD PUSH2 0xDC7 DUP5 DUP3 PUSH1 0x20 DUP7 ADD PUSH2 0xD3B JUMP JUMPDEST SWAP2 POP POP SWAP3 SWAP2 POP POP JUMP JUMPDEST PUSH0 DUP1 PUSH1 0x40 DUP4 DUP6 SUB SLT ISZERO PUSH2 0xDE6 JUMPI PUSH2 0xDE5 PUSH2 0x8B7 JUMP JUMPDEST JUMPDEST PUSH0 DUP4 ADD CALLDATALOAD PUSH8 0xFFFFFFFFFFFFFFFF DUP2 GT ISZERO PUSH2 0xE03 JUMPI PUSH2 0xE02 PUSH2 0x8BB JUMP JUMPDEST JUMPDEST PUSH2 0xE0F DUP6 DUP3 DUP7 ADD PUSH2 0xDA3 JUMP JUMPDEST SWAP3 POP POP PUSH1 0x20 PUSH2 0xE20 DUP6 DUP3 DUP7 ADD PUSH2 0x9C8 JUMP JUMPDEST SWAP2 POP POP SWAP3 POP SWAP3 SWAP1 POP JUMP JUMPDEST PUSH0 PUSH1 0x20 DUP3 DUP5 SUB SLT ISZERO PUSH2 0xE3F JUMPI PUSH2 0xE3E PUSH2 0x8B7 JUMP JUMPDEST JUMPDEST PUSH0 DUP3 ADD CALLDATALOAD PUSH8 0xFFFFFFFFFFFFFFFF DUP2 GT ISZERO PUSH2 0xE5C JUMPI PUSH2 0xE5B PUSH2 0x8BB JUMP JUMPDEST JUMPDEST PUSH2 0xE68 DUP5 DUP3 DUP6 ADD PUSH2 0xC61 JUMP JUMPDEST SWAP2 POP POP SWAP3 SWAP2 POP POP JUMP JUMPDEST PUSH0 DUP1 PUSH1 0x40 DUP4 DUP6 SUB SLT ISZERO PUSH2 0xE87 JUMPI PUSH2 0xE86 PUSH2 0x8B7 JUMP JUMPDEST JUMPDEST PUSH0 DUP4 ADD CALLDATALOAD PUSH8 0xFFFFFFFFFFFFFFFF DUP2 GT ISZERO PUSH2 0xEA4 JUMPI PUSH2 0xEA3 PUSH2 0x8BB JUMP JUMPDEST JUMPDEST PUSH2 0xEB0 DUP6 DUP3 DUP7 ADD PUSH2 0xDA3 JUMP JUMPDEST SWAP3 POP POP PUSH1 0x20 PUSH2 0xEC1 DUP6 DUP3 DUP7 ADD PUSH2 0xAAB JUMP JUMPDEST SWAP2 POP POP SWAP3 POP SWAP3 SWAP1 POP JUMP JUMPDEST PUSH0 DUP2 MLOAD SWAP1 POP SWAP2 SWAP1 POP JUMP JUMPDEST PUSH0 DUP3 DUP3 MSTORE PUSH1 0x20 DUP3 ADD SWAP1 POP SWAP3 SWAP2 POP POP JUMP JUMPDEST PUSH0 DUP2 SWAP1 POP PUSH1 0x20 DUP3 ADD SWAP1 POP SWAP2 SWAP1 POP JUMP JUMPDEST PUSH2 0xEFD DUP2 PUSH2 0x9A1 JUMP JUMPDEST DUP3 MSTORE POP POP JUMP JUMPDEST PUSH0 PUSH2 0xF0E DUP4 DUP4 PUSH2 0xEF4 JUMP JUMPDEST PUSH1 0x20 DUP4 ADD SWAP1 POP SWAP3 SWAP2 POP POP JUMP JUMPDEST PUSH0 PUSH1 0x20 DUP3 ADD SWAP1 POP SWAP2 SWAP1 POP JUMP JUMPDEST PUSH0 PUSH2 0xF30 DUP3 PUSH2 0xECB JUMP JUMPDEST PUSH2 0xF3A DUP2 DUP6 PUSH2 0xED5 JUMP JUMPDEST SWAP4 POP PUSH2 0xF45 DUP4 PUSH2 0xEE5 JUMP JUMPDEST DUP1 PUSH0 JUMPDEST DUP4 DUP2 LT ISZERO PUSH2 0xF75 JUMPI DUP2 MLOAD PUSH2 0xF5C DUP9 DUP3 PUSH2 0xF03 JUMP JUMPDEST SWAP8 POP PUSH2 0xF67 DUP4 PUSH2 0xF1A JUMP JUMPDEST SWAP3 POP POP PUSH1 0x1 DUP2 ADD SWAP1 POP PUSH2 0xF48 JUMP JUMPDEST POP DUP6 SWAP4 POP POP POP POP SWAP3 SWAP2 POP POP JUMP JUMPDEST PUSH0 PUSH1 0x20 DUP3 ADD SWAP1 POP DUP2 DUP2 SUB PUSH0 DUP4 ADD MSTORE PUSH2 0xF9A DUP2 DUP5 PUSH2 0xF26 JUMP JUMPDEST SWAP1 POP SWAP3 SWAP2 POP POP JUMP JUMPDEST PUSH0 PUSH1 0x20 DUP3 DUP5 SUB SLT ISZERO PUSH2 0xFB7 JUMPI PUSH2 0xFB6 PUSH2 0x8B7 JUMP JUMPDEST JUMPDEST PUSH0 DUP3 ADD CALLDATALOAD PUSH8 0xFFFFFFFFFFFFFFFF DUP2 GT ISZERO PUSH2 0xFD4 JUMPI PUSH2 0xFD3 PUSH2 0x8BB JUMP JUMPDEST JUMPDEST PUSH2 0xFE0 DUP5 DUP3 DUP6 ADD PUSH2 0xA5F JUMP JUMPDEST SWAP2 POP POP SWAP3 SWAP2 POP POP JUMP JUMPDEST PUSH2 0xFF2 DUP2 PUSH2 0xABF JUMP JUMPDEST DUP3 MSTORE POP POP JUMP JUMPDEST PUSH0 PUSH1 0x20 DUP3 ADD SWAP1 POP PUSH2 0x100B PUSH0 DUP4 ADD DUP5 PUSH2 0xFE9 JUMP JUMPDEST SWAP3 SWAP2 POP POP JUMP JUMPDEST PUSH0 PUSH1 0x20 DUP3 DUP5 SUB SLT ISZERO PUSH2 0x1026 JUMPI PUSH2 0x1025 PUSH2 0x8B7 JUMP JUMPDEST JUMPDEST PUSH0 PUSH2 0x1033 DUP5 DUP3 DUP6 ADD PUSH2 0xAAB JUMP JUMPDEST SWAP2 POP POP SWAP3 SWAP2 POP POP JUMP JUMPDEST PUSH0 DUP2 MLOAD SWAP1 POP SWAP2 SWAP1 POP JUMP JUMPDEST PUSH0 DUP3 DUP3 MSTORE PUSH1 0x20 DUP3 ADD SWAP1 POP SWAP3 SWAP2 POP POP JUMP JUMPDEST DUP3 DUP2 DUP4 MCOPY PUSH0 DUP4 DUP4 ADD MSTORE POP POP POP JUMP JUMPDEST PUSH0 PUSH2 0x106E DUP3 PUSH2 0x103C JUMP JUMPDEST PUSH2 0x1078 DUP2 DUP6 PUSH2 0x1046 JUMP JUMPDEST SWAP4 POP PUSH2 0x1088 DUP2 DUP6 PUSH1 0x20 DUP7 ADD PUSH2 0x1056 JUMP JUMPDEST PUSH2 0x1091 DUP2 PUSH2 0x8C3 JUMP JUMPDEST DUP5 ADD SWAP2 POP POP SWAP3 SWAP2 POP POP JUMP JUMPDEST PUSH0 PUSH1 0x20 DUP3 ADD SWAP1 POP DUP2 DUP2 SUB PUSH0 DUP4 ADD MSTORE PUSH2 0x10B4 DUP2 DUP5 PUSH2 0x1064 JUMP JUMPDEST SWAP1 POP SWAP3 SWAP2 POP POP JUMP JUMPDEST PUSH0 DUP2 MLOAD SWAP1 POP SWAP2 SWAP1 POP JUMP JUMPDEST PUSH0 DUP3 DUP3 MSTORE PUSH1 0x20 DUP3 ADD SWAP1 POP SWAP3 SWAP2 POP POP JUMP JUMPDEST PUSH0 DUP2 SWAP1 POP PUSH1 0x20 DUP3 ADD SWAP1 POP SWAP2 SWAP1 POP JUMP JUMPDEST PUSH0 DUP3 DUP3 MSTORE PUSH1 0x20 DUP3 ADD SWAP1 POP SWAP3 SWAP2 POP POP JUMP JUMPDEST PUSH0 PUSH2 0x10FF DUP3 PUSH2 0x103C JUMP JUMPDEST PUSH2 0x1109 DUP2 DUP6 PUSH2 0x10E5 JUMP JUMPDEST SWAP4 POP PUSH2 0x1119 DUP2 DUP6 PUSH1 0x20 DUP7 ADD PUSH2 0x1056 JUMP JUMPDEST PUSH2 0x1122 DUP2 PUSH2 0x8C3 JUMP JUMPDEST DUP5 ADD SWAP2 POP POP SWAP3 SWAP2 POP POP JUMP JUMPDEST PUSH2 0x1136 DUP2 PUSH2 0xA8C JUMP JUMPDEST DUP3 MSTORE POP POP JUMP JUMPDEST PUSH2 0x1145 DUP2 PUSH2 0xABF JUMP JUMPDEST DUP3 MSTORE POP POP JUMP JUMPDEST PUSH0 PUSH1 0xE0 DUP4 ADD PUSH0 DUP4 ADD MLOAD PUSH2 0x1160 PUSH0 DUP7 ADD DUP3 PUSH2 0xEF4 JUMP JUMPDEST POP PUSH1 0x20 DUP4 ADD MLOAD DUP5 DUP3 SUB PUSH1 0x20 DUP7 ADD MSTORE PUSH2 0x1178 DUP3 DUP3 PUSH2 0x10F5 JUMP JUMPDEST SWAP2 POP POP PUSH1 0x40 DUP4 ADD MLOAD DUP5 DUP3 SUB PUSH1 0x40 DUP7 ADD MSTORE PUSH2 0x1192 DUP3 DUP3 PUSH2 0x10F5 JUMP JUMPDEST SWAP2 POP POP PUSH1 0x60 DUP4 ADD MLOAD PUSH2 0x11A7 PUSH1 0x60 DUP7 ADD DUP3 PUSH2 0x112D JUMP JUMPDEST POP PUSH1 0x80 DUP4 ADD MLOAD PUSH2 0x11BA PUSH1 0x80 DUP7 ADD DUP3 PUSH2 0x112D JUMP JUMPDEST POP PUSH1 0xA0 DUP4 ADD MLOAD PUSH2 0x11CD PUSH1 0xA0 DUP7 ADD DUP3 PUSH2 0x112D JUMP JUMPDEST POP PUSH1 0xC0 DUP4 ADD MLOAD PUSH2 0x11E0 PUSH1 0xC0 DUP7 ADD DUP3 PUSH2 0x113C JUMP JUMPDEST POP DUP1 SWAP2 POP POP SWAP3 SWAP2 POP POP JUMP JUMPDEST PUSH0 PUSH2 0x11F6 DUP4 DUP4 PUSH2 0x114B JUMP JUMPDEST SWAP1 POP SWAP3 SWAP2 POP POP JUMP JUMPDEST PUSH0 PUSH1 0x20 DUP3 ADD SWAP1 POP SWAP2 SWAP1 POP JUMP JUMPDEST PUSH0 PUSH2 0x1214 DUP3 PUSH2 0x10BC JUMP JUMPDEST PUSH2 0x121E DUP2 DUP6 PUSH2 0x10C6 JUMP JUMPDEST SWAP4 POP DUP4 PUSH1 0x20 DUP3 MUL DUP6 ADD PUSH2 0x1230 DUP6 PUSH2 0x10D6 JUMP JUMPDEST DUP1 PUSH0 JUMPDEST DUP6 DUP2 LT ISZERO PUSH2 0x126B JUMPI DUP5 DUP5 SUB DUP10 MSTORE DUP2 MLOAD PUSH2 0x124C DUP6 DUP3 PUSH2 0x11EB JUMP JUMPDEST SWAP5 POP PUSH2 0x1257 DUP4 PUSH2 0x11FE JUMP JUMPDEST SWAP3 POP PUSH1 0x20 DUP11 ADD SWAP10 POP POP PUSH1 0x1 DUP2 ADD SWAP1 POP PUSH2 0x1233 JUMP JUMPDEST POP DUP3 SWAP8 POP DUP8 SWAP6 POP POP POP POP POP POP SWAP3 SWAP2 POP POP JUMP JUMPDEST PUSH0 PUSH1 0x20 DUP3 ADD SWAP1 POP DUP2 DUP2 SUB PUSH0 DUP4 ADD MSTORE PUSH2 0x1295 DUP2 DUP5 PUSH2 0x120A JUMP JUMPDEST SWAP1 POP SWAP3 SWAP2 POP POP JUMP JUMPDEST PUSH0 DUP2 ISZERO ISZERO SWAP1 POP SWAP2 SWAP1 POP JUMP JUMPDEST PUSH2 0x12B1 DUP2 PUSH2 0x129D JUMP JUMPDEST DUP3 MSTORE POP POP JUMP JUMPDEST PUSH0 PUSH1 0x20 DUP3 ADD SWAP1 POP PUSH2 0x12CA PUSH0 DUP4 ADD DUP5 PUSH2 0x12A8 JUMP JUMPDEST SWAP3 SWAP2 POP POP JUMP JUMPDEST PUSH0 PUSH1 0x20 DUP3 DUP5 SUB SLT ISZERO PUSH2 0x12E5 JUMPI PUSH2 0x12E4 PUSH2 0x8B7 JUMP JUMPDEST JUMPDEST PUSH0 DUP3 ADD CALLDATALOAD PUSH8 0xFFFFFFFFFFFFFFFF DUP2 GT ISZERO PUSH2 0x1302 JUMPI PUSH2 0x1301 PUSH2 0x8BB JUMP JUMPDEST JUMPDEST PUSH2 0x130E DUP5 DUP3 DUP6 ADD PUSH2 0xDA3 JUMP JUMPDEST SWAP2 POP POP SWAP3 SWAP2 POP POP JUMP JUMPDEST PUSH0 DUP1 PUSH0 DUP1 PUSH1 0x80 DUP6 DUP8 SUB SLT ISZERO PUSH2 0x132F JUMPI PUSH2 0x132E PUSH2 0x8B7 JUMP JUMPDEST JUMPDEST PUSH0 DUP6 ADD CALLDATALOAD PUSH8 0xFFFFFFFFFFFFFFFF DUP2 GT ISZERO PUSH2 0x134C JUMPI PUSH2 0x134B PUSH2 0x8BB JUMP JUMPDEST JUMPDEST PUSH2 0x1358 DUP8 DUP3 DUP9 ADD PUSH2 0xA5F JUMP JUMPDEST SWAP5 POP POP PUSH1 0x20 DUP6 ADD CALLDATALOAD PUSH8 0xFFFFFFFFFFFFFFFF DUP2 GT ISZERO PUSH2 0x1379 JUMPI PUSH2 0x1378 PUSH2 0x8BB JUMP JUMPDEST JUMPDEST PUSH2 0x1385 DUP8 DUP3 DUP9 ADD PUSH2 0xA5F JUMP JUMPDEST SWAP4 POP POP PUSH1 0x40 PUSH2 0x1396 DUP8 DUP3 DUP9 ADD PUSH2 0xAAB JUMP JUMPDEST SWAP3 POP POP PUSH1 0x60 PUSH2 0x13A7 DUP8 DUP3 DUP9 ADD PUSH2 0xAAB JUMP JUMPDEST SWAP2 POP POP SWAP3 SWAP6 SWAP2 SWAP5 POP SWAP3 POP JUMP JUMPDEST PUSH32 0x4E487B7100000000000000000000000000000000000000000000000000000000 PUSH0 MSTORE PUSH1 0x32 PUSH1 0x4 MSTORE PUSH1 0x24 PUSH0 REVERT JUMPDEST PUSH32 0x4E487B7100000000000000000000000000000000000000000000000000000000 PUSH0 MSTORE PUSH1 0x11 PUSH1 0x4 MSTORE PUSH1 0x24 PUSH0 REVERT JUMPDEST PUSH0 PUSH2 0x1417 DUP3 PUSH2 0xA8C JUMP JUMPDEST SWAP2 POP PUSH2 0x1422 DUP4 PUSH2 0xA8C JUMP JUMPDEST SWAP3 POP DUP3 DUP3 SUB SWAP1 POP DUP2 DUP2 GT ISZERO PUSH2 0x143A JUMPI PUSH2 0x1439 PUSH2 0x13E0 JUMP JUMPDEST JUMPDEST SWAP3 SWAP2 POP POP JUMP JUMPDEST PUSH0 PUSH2 0x144A DUP3 PUSH2 0xA8C JUMP JUMPDEST SWAP2 POP PUSH2 0x1455 DUP4 PUSH2 0xA8C JUMP JUMPDEST SWAP3 POP DUP3 DUP3 ADD SWAP1 POP DUP1 DUP3 GT ISZERO PUSH2 0x146D JUMPI PUSH2 0x146C PUSH2 0x13E0 JUMP JUMPDEST JUMPDEST SWAP3 SWAP2 POP POP JUMP JUMPDEST PUSH0 DUP2 SWAP1 POP SWAP3 SWAP2 POP POP JUMP JUMPDEST PUSH0 PUSH2 0x1487 DUP3 PUSH2 0x103C JUMP JUMPDEST PUSH2 0x1491 DUP2 DUP6 PUSH2 0x1473 JUMP JUMPDEST SWAP4 POP PUSH2 0x14A1 DUP2 DUP6 PUSH1 0x20 DUP7 ADD PUSH2 0x1056 JUMP JUMPDEST DUP1 DUP5 ADD SWAP2 POP POP SWAP3 SWAP2 POP POP JUMP JUMPDEST PUSH0 PUSH2 0x14B8 DUP3 DUP5 PUSH2 0x147D JUMP JUMPDEST SWAP2 POP DUP2 SWAP1 POP SWAP3 SWAP2 POP POP JUMP JUMPDEST PUSH0 PUSH2 0x14CD DUP3 PUSH2 0xA8C JUMP JUMPDEST SWAP2 POP PUSH32 0xFFFFFFFFFFFFFFFFFFFFFFFFFFFFFFFFFFFFFFFFFFFFFFFFFFFFFFFFFFFFFFFF DUP3 SUB PUSH2 0x14FF JUMPI PUSH2 0x14FE PUSH2 0x13E0 JUMP JUMPDEST JUMPDEST PUSH1 0x1 DUP3 ADD SWAP1 POP SWAP2 SWAP1 POP JUMP JUMPDEST PUSH32 0x4E487B7100000000000000000000000000000000000000000000000000000000 PUSH0 MSTORE PUSH1 0x12 PUSH1 0x4 MSTORE PUSH1 0x24 PUSH0 REVERT JUMPDEST PUSH0 PUSH2 0x1541 DUP3 PUSH2 0xA8C JUMP JUMPDEST SWAP2 POP PUSH2 0x154C DUP4 PUSH2 0xA8C JUMP JUMPDEST SWAP3 POP DUP3 PUSH2 0x155C JUMPI PUSH2 0x155B PUSH2 0x150A JUMP JUMPDEST JUMPDEST DUP3 DUP3 DIV SWAP1 POP SWAP3 SWAP2 POP POP JUMP JUMPDEST PUSH0 PUSH2 0x1571 DUP3 PUSH2 0xA8C JUMP JUMPDEST SWAP2 POP PUSH2 0x157C DUP4 PUSH2 0xA8C JUMP JUMPDEST SWAP3 POP DUP3 PUSH2 0x158C JUMPI PUSH2 0x158B PUSH2 0x150A JUMP JUMPDEST JUMPDEST DUP3 DUP3 MOD SWAP1 POP SWAP3 SWAP2 POP POP JUMP JUMPDEST PUSH0 PUSH2 0x15A2 DUP3 DUP8 PUSH2 0x147D JUMP JUMPDEST SWAP2 POP PUSH2 0x15AE DUP3 DUP7 PUSH2 0x147D JUMP JUMPDEST SWAP2 POP PUSH2 0x15BA DUP3 DUP6 PUSH2 0x147D JUMP JUMPDEST SWAP2 POP PUSH2 0x15C6 DUP3 DUP5 PUSH2 0x147D JUMP JUMPDEST SWAP2 POP DUP2 SWAP1 POP SWAP6 SWAP5 POP POP POP POP POP JUMP INVALID LOG2 PUSH5 0x6970667358 0x22 SLT KECCAK256 0xB3 0x1F 0xFB OR PUSH10 0x3C12B97DB20642FC135 SWAP5 ISZERO TLOAD 0x2C PUSH8 0x6467B4DB6028B812 BASEFEE DUP2 0x26 0xE2 PUSH5 0x736F6C6343 STOP ADDMOD NOT STOP CALLER "
		},
		"gasEstimates": {
			"creation": {
				"codeDepositCost": "1128400",
				"executionCost": "1197",
				"totalCost": "1129597"
			},
			"external": {
				"checkIndex(Proposel[],uint256)": "infinite",
				"combineElemnets(string,string,uint256,uint256)": "infinite",
				"getIndex(address[],address)": "infinite",
				"getIndexInList(Proposel[],uint256)": "infinite",
				"getIndexWithMaxVotes(Proposel[])": "infinite",
				"gethash(string)": "infinite",
				"pop(address[])": "infinite",
				"popPorposel(Proposel[])": "infinite",
				"removeElement(address[],uint256)": "infinite",
				"toString(uint256)": "infinite"
			}
		},
		"methodIdentifiers": {
			"checkIndex(Proposel[],uint256)": "ebb596ce",
			"combineElemnets(string,string,uint256,uint256)": "f608ab78",
			"getIndex(address[],address)": "1c07c87f",
			"getIndexInList(Proposel[],uint256)": "008f863f",
			"getIndexWithMaxVotes(Proposel[])": "4cde5371",
			"gethash(string)": "61494538",
			"pop(address[])": "f3516c62",
			"popPorposel(Proposel[])": "c514e045",
			"removeElement(address[],uint256)": "5a8d4625",
			"toString(uint256)": "6900a3ae"
		}
	},
	"abi": [
		{
			"inputs": [
				{
					"components": [
						{
							"internalType": "address",
							"name": "owner",
							"type": "address"
						},
						{
							"internalType": "string",
							"name": "name",
							"type": "string"
						},
						{
							"internalType": "string",
							"name": "url",
							"type": "string"
						},
						{
							"internalType": "uint256",
							"name": "timestamp",
							"type": "uint256"
						},
						{
							"internalType": "uint256",
							"name": "votes",
							"type": "uint256"
						},
						{
							"internalType": "uint256",
							"name": "id",
							"type": "uint256"
						},
						{
							"internalType": "bytes32",
							"name": "uniqueHash",
							"type": "bytes32"
						}
					],
					"internalType": "struct Proposel[]",
					"name": "proposels",
					"type": "tuple[]"
				},
				{
					"internalType": "uint256",
					"name": "proposelId",
					"type": "uint256"
				}
			],
			"name": "checkIndex",
			"outputs": [
				{
					"internalType": "bool",
					"name": "",
					"type": "bool"
				}
			],
			"stateMutability": "pure",
			"type": "function"
		},
		{
			"inputs": [
				{
					"internalType": "string",
					"name": "a",
					"type": "string"
				},
				{
					"internalType": "string",
					"name": "b",
					"type": "string"
				},
				{
					"internalType": "uint256",
					"name": "number1",
					"type": "uint256"
				},
				{
					"internalType": "uint256",
					"name": "number2",
					"type": "uint256"
				}
			],
			"name": "combineElemnets",
			"outputs": [
				{
					"internalType": "string",
					"name": "",
					"type": "string"
				}
			],
			"stateMutability": "pure",
			"type": "function"
		},
		{
			"inputs": [
				{
					"internalType": "address[]",
					"name": "keys",
					"type": "address[]"
				},
				{
					"internalType": "address",
					"name": "key",
					"type": "address"
				}
			],
			"name": "getIndex",
			"outputs": [
				{
					"internalType": "uint256",
					"name": "",
					"type": "uint256"
				}
			],
			"stateMutability": "pure",
			"type": "function"
		},
		{
			"inputs": [
				{
					"components": [
						{
							"internalType": "address",
							"name": "owner",
							"type": "address"
						},
						{
							"internalType": "string",
							"name": "name",
							"type": "string"
						},
						{
							"internalType": "string",
							"name": "url",
							"type": "string"
						},
						{
							"internalType": "uint256",
							"name": "timestamp",
							"type": "uint256"
						},
						{
							"internalType": "uint256",
							"name": "votes",
							"type": "uint256"
						},
						{
							"internalType": "uint256",
							"name": "id",
							"type": "uint256"
						},
						{
							"internalType": "bytes32",
							"name": "uniqueHash",
							"type": "bytes32"
						}
					],
					"internalType": "struct Proposel[]",
					"name": "proposels",
					"type": "tuple[]"
				},
				{
					"internalType": "uint256",
					"name": "id",
					"type": "uint256"
				}
			],
			"name": "getIndexInList",
			"outputs": [
				{
					"internalType": "uint256",
					"name": "",
					"type": "uint256"
				}
			],
			"stateMutability": "pure",
			"type": "function"
		},
		{
			"inputs": [
				{
					"components": [
						{
							"internalType": "address",
							"name": "owner",
							"type": "address"
						},
						{
							"internalType": "string",
							"name": "name",
							"type": "string"
						},
						{
							"internalType": "string",
							"name": "url",
							"type": "string"
						},
						{
							"internalType": "uint256",
							"name": "timestamp",
							"type": "uint256"
						},
						{
							"internalType": "uint256",
							"name": "votes",
							"type": "uint256"
						},
						{
							"internalType": "uint256",
							"name": "id",
							"type": "uint256"
						},
						{
							"internalType": "bytes32",
							"name": "uniqueHash",
							"type": "bytes32"
						}
					],
					"internalType": "struct Proposel[]",
					"name": "proposels",
					"type": "tuple[]"
				}
			],
			"name": "getIndexWithMaxVotes",
			"outputs": [
				{
					"internalType": "uint256",
					"name": "",
					"type": "uint256"
				}
			],
			"stateMutability": "pure",
			"type": "function"
		},
		{
			"inputs": [
				{
					"internalType": "string",
					"name": "str",
					"type": "string"
				}
			],
			"name": "gethash",
			"outputs": [
				{
					"internalType": "bytes32",
					"name": "",
					"type": "bytes32"
				}
			],
			"stateMutability": "pure",
			"type": "function"
		},
		{
			"inputs": [
				{
					"internalType": "address[]",
					"name": "array",
					"type": "address[]"
				}
			],
			"name": "pop",
			"outputs": [
				{
					"internalType": "address[]",
					"name": "",
					"type": "address[]"
				}
			],
			"stateMutability": "pure",
			"type": "function"
		},
		{
			"inputs": [
				{
					"components": [
						{
							"internalType": "address",
							"name": "owner",
							"type": "address"
						},
						{
							"internalType": "string",
							"name": "name",
							"type": "string"
						},
						{
							"internalType": "string",
							"name": "url",
							"type": "string"
						},
						{
							"internalType": "uint256",
							"name": "timestamp",
							"type": "uint256"
						},
						{
							"internalType": "uint256",
							"name": "votes",
							"type": "uint256"
						},
						{
							"internalType": "uint256",
							"name": "id",
							"type": "uint256"
						},
						{
							"internalType": "bytes32",
							"name": "uniqueHash",
							"type": "bytes32"
						}
					],
					"internalType": "struct Proposel[]",
					"name": "array",
					"type": "tuple[]"
				}
			],
			"name": "popPorposel",
			"outputs": [
				{
					"components": [
						{
							"internalType": "address",
							"name": "owner",
							"type": "address"
						},
						{
							"internalType": "string",
							"name": "name",
							"type": "string"
						},
						{
							"internalType": "string",
							"name": "url",
							"type": "string"
						},
						{
							"internalType": "uint256",
							"name": "timestamp",
							"type": "uint256"
						},
						{
							"internalType": "uint256",
							"name": "votes",
							"type": "uint256"
						},
						{
							"internalType": "uint256",
							"name": "id",
							"type": "uint256"
						},
						{
							"internalType": "bytes32",
							"name": "uniqueHash",
							"type": "bytes32"
						}
					],
					"internalType": "struct Proposel[]",
					"name": "",
					"type": "tuple[]"
				}
			],
			"stateMutability": "pure",
			"type": "function"
		},
		{
			"inputs": [
				{
					"internalType": "address[]",
					"name": "array",
					"type": "address[]"
				},
				{
					"internalType": "uint256",
					"name": "index",
					"type": "uint256"
				}
			],
			"name": "removeElement",
			"outputs": [
				{
					"internalType": "address[]",
					"name": "",
					"type": "address[]"
				}
			],
			"stateMutability": "pure",
			"type": "function"
		},
		{
			"inputs": [
				{
					"internalType": "uint256",
					"name": "value",
					"type": "uint256"
				}
			],
			"name": "toString",
			"outputs": [
				{
					"internalType": "string",
					"name": "",
					"type": "string"
				}
			],
			"stateMutability": "pure",
			"type": "function"
		}
	]
}