{
  "contractName": "AudienceEngagementTool",
  "abi": [
    {
      "inputs": [
        {
          "internalType": "address",
          "name": "IProposelContractAddress",
          "type": "address"
        }
      ],
      "stateMutability": "nonpayable",
      "type": "constructor"
    },
    {
      "inputs": [],
      "name": "InvalidInitialization",
      "type": "error"
    },
    {
      "inputs": [],
      "name": "NotInitializing",
      "type": "error"
    },
    {
      "inputs": [
        {
          "internalType": "address",
          "name": "owner",
          "type": "address"
        }
      ],
      "name": "OwnableInvalidOwner",
      "type": "error"
    },
    {
      "inputs": [
        {
          "internalType": "address",
          "name": "account",
          "type": "address"
        }
      ],
      "name": "OwnableUnauthorizedAccount",
      "type": "error"
    },
    {
      "anonymous": false,
      "inputs": [
        {
          "indexed": false,
          "internalType": "uint64",
          "name": "version",
          "type": "uint64"
        }
      ],
      "name": "Initialized",
      "type": "event"
    },
    {
      "anonymous": false,
      "inputs": [
        {
          "indexed": true,
          "internalType": "address",
          "name": "previousOwner",
          "type": "address"
        },
        {
          "indexed": true,
          "internalType": "address",
          "name": "newOwner",
          "type": "address"
        }
      ],
      "name": "OwnershipTransferred",
      "type": "event"
    },
    {
      "anonymous": false,
      "inputs": [
        {
          "indexed": false,
          "internalType": "string",
          "name": "name",
          "type": "string"
        },
        {
          "indexed": false,
          "internalType": "string",
          "name": "url",
          "type": "string"
        },
        {
          "indexed": false,
          "internalType": "uint256",
          "name": "timestamp",
          "type": "uint256"
        },
        {
          "indexed": false,
          "internalType": "uint256",
          "name": "votes",
          "type": "uint256"
        },
        {
          "indexed": false,
          "internalType": "uint256",
          "name": "id",
          "type": "uint256"
        }
      ],
      "name": "ProposelAdded",
      "type": "event"
    },
    {
      "anonymous": false,
      "inputs": [
        {
          "indexed": false,
          "internalType": "uint256",
          "name": "proposel_id",
          "type": "uint256"
        }
      ],
      "name": "RemovedProposel",
      "type": "event"
    },
    {
      "anonymous": false,
      "inputs": [
        {
          "indexed": false,
          "internalType": "address",
          "name": "voter",
          "type": "address"
        },
        {
          "indexed": false,
          "internalType": "uint256",
          "name": "proposel_id",
          "type": "uint256"
        }
      ],
      "name": "VoteCasted",
      "type": "event"
    },
    {
      "anonymous": false,
      "inputs": [
        {
          "indexed": false,
          "internalType": "address",
          "name": "voter",
          "type": "address"
        },
        {
          "indexed": false,
          "internalType": "uint256",
          "name": "proposel_id",
          "type": "uint256"
        }
      ],
      "name": "VoteUncasted",
      "type": "event"
    },
    {
      "inputs": [],
      "name": "owner",
      "outputs": [
        {
          "internalType": "address",
          "name": "",
          "type": "address"
        }
      ],
      "stateMutability": "view",
      "type": "function"
    },
    {
      "inputs": [],
      "name": "renounceOwnership",
      "outputs": [],
      "stateMutability": "nonpayable",
      "type": "function"
    },
    {
      "inputs": [
        {
          "internalType": "address",
          "name": "newOwner",
          "type": "address"
        }
      ],
      "name": "transferOwnership",
      "outputs": [],
      "stateMutability": "nonpayable",
      "type": "function"
    },
    {
      "inputs": [
        {
          "internalType": "address",
          "name": "IProposelContractAddress",
          "type": "address"
        }
      ],
      "name": "setProposelContractAddress",
      "outputs": [],
      "stateMutability": "nonpayable",
      "type": "function"
    },
    {
      "inputs": [],
      "name": "resetPeriod",
      "outputs": [],
      "stateMutability": "nonpayable",
      "type": "function"
    },
    {
      "inputs": [
        {
          "internalType": "uint256",
          "name": "newFee",
          "type": "uint256"
        }
      ],
      "name": "setFee",
      "outputs": [],
      "stateMutability": "nonpayable",
      "type": "function"
    },
    {
      "inputs": [],
      "name": "getPeriodInterval",
      "outputs": [
        {
          "components": [
            {
              "internalType": "uint256",
              "name": "periodStart",
              "type": "uint256"
            },
            {
              "internalType": "uint256",
              "name": "periodEnd",
              "type": "uint256"
            }
          ],
          "internalType": "struct PeriodInterval",
          "name": "",
          "type": "tuple"
        }
      ],
      "stateMutability": "view",
      "type": "function"
    },
    {
      "inputs": [
        {
          "internalType": "string",
          "name": "name",
          "type": "string"
        },
        {
          "internalType": "string",
          "name": "url",
          "type": "string"
        }
      ],
      "name": "setProposel",
      "outputs": [],
      "stateMutability": "payable",
      "type": "function"
    },
    {
      "inputs": [
        {
          "internalType": "uint256",
          "name": "proposelId",
          "type": "uint256"
        }
      ],
      "name": "vote",
      "outputs": [],
      "stateMutability": "nonpayable",
      "type": "function"
    },
    {
      "inputs": [],
      "name": "unvote",
      "outputs": [],
      "stateMutability": "nonpayable",
      "type": "function"
    },
    {
      "inputs": [],
      "name": "listProposels",
      "outputs": [
        {
          "components": [
            {
              "internalType": "address",
              "name": "owner",
              "type": "address"
            },
            {
              "internalType": "string",
              "name": "name",
              "type": "string"
            },
            {
              "internalType": "string",
              "name": "url",
              "type": "string"
            },
            {
              "internalType": "uint256",
              "name": "timestamp",
              "type": "uint256"
            },
            {
              "internalType": "uint256",
              "name": "votes",
              "type": "uint256"
            },
            {
              "internalType": "uint256",
              "name": "id",
              "type": "uint256"
            },
            {
              "internalType": "bytes32",
              "name": "uniqueHash",
              "type": "bytes32"
            }
          ],
          "internalType": "struct Proposel[]",
          "name": "",
          "type": "tuple[]"
        }
      ],
      "stateMutability": "view",
      "type": "function"
    },
    {
      "inputs": [],
      "name": "getWinningPoposel",
      "outputs": [
        {
          "components": [
            {
              "internalType": "address",
              "name": "owner",
              "type": "address"
            },
            {
              "internalType": "string",
              "name": "name",
              "type": "string"
            },
            {
              "internalType": "string",
              "name": "url",
              "type": "string"
            },
            {
              "internalType": "uint256",
              "name": "timestamp",
              "type": "uint256"
            },
            {
              "internalType": "uint256",
              "name": "votes",
              "type": "uint256"
            },
            {
              "internalType": "uint256",
              "name": "id",
              "type": "uint256"
            },
            {
              "internalType": "bytes32",
              "name": "uniqueHash",
              "type": "bytes32"
            }
          ],
          "internalType": "struct Proposel",
          "name": "",
          "type": "tuple"
        }
      ],
      "stateMutability": "view",
      "type": "function"
    },
    {
      "inputs": [
        {
          "internalType": "address",
          "name": "to",
          "type": "address"
        }
      ],
      "name": "makeTransfer",
      "outputs": [],
      "stateMutability": "payable",
      "type": "function"
    },
    {
      "inputs": [],
      "name": "getVotes",
      "outputs": [
        {
          "internalType": "address[]",
          "name": "",
          "type": "address[]"
        }
      ],
      "stateMutability": "view",
      "type": "function"
    }
  ],
  "bytecode": "0x608060405234801562000010575f80fd5b506040516200250e3803806200250e833981810160405281019062000036919062000250565b335f73ffffffffffffffffffffffffffffffffffffffff168173ffffffffffffffffffffffffffffffffffffffff1603620000aa575f6040517f1e4fbdf7000000000000000000000000000000000000000000000000000000008152600401620000a1919062000291565b60405180910390fd5b620000bb816200012a60201b60201c565b508060055f6101000a81548173ffffffffffffffffffffffffffffffffffffffff021916908373ffffffffffffffffffffffffffffffffffffffff1602179055504260038190555061012c600354620001159190620002e2565b6004819055506001600681905550506200031c565b5f805f9054906101000a900473ffffffffffffffffffffffffffffffffffffffff169050815f806101000a81548173ffffffffffffffffffffffffffffffffffffffff021916908373ffffffffffffffffffffffffffffffffffffffff1602179055508173ffffffffffffffffffffffffffffffffffffffff168173ffffffffffffffffffffffffffffffffffffffff167f8be0079c531659141344cd1fd0a4f28419497f9722a3daafe3b4186f6b6457e060405160405180910390a35050565b5f80fd5b5f73ffffffffffffffffffffffffffffffffffffffff82169050919050565b5f6200021a82620001ef565b9050919050565b6200022c816200020e565b811462000237575f80fd5b50565b5f815190506200024a8162000221565b92915050565b5f60208284031215620002685762000267620001eb565b5b5f62000277848285016200023a565b91505092915050565b6200028b816200020e565b82525050565b5f602082019050620002a65f83018462000280565b92915050565b5f819050919050565b7f4e487b71000000000000000000000000000000000000000000000000000000005f52601160045260245ffd5b5f620002ee82620002ac565b9150620002fb83620002ac565b9250828201905080821115620003165762000315620002b5565b5b92915050565b6121e4806200032a5f395ff3fe6080604052600436106100dc575f3560e01c806369fe0e2d1161007e578063944c1d9711610058578063944c1d971461023a57806394964edf14610250578063f2fde38b1461027a578063ffeb78b7146102a2576100dc565b806369fe0e2d146101d2578063715018a6146101fa5780638da5cb5b14610210576100dc565b806326732549116100ba578063267325491461014e5780632d5cea8e146101765780633174b6891461019257806352505453146101a8576100dc565b80630121b93f146100e057806306db5c06146101085780630dc9601514610124575b5f80fd5b3480156100eb575f80fd5b5061010660048036038101906101019190611110565b6102cc565b005b610122600480360381019061011d919061119c565b6104f4565b005b34801561012f575f80fd5b50610138610689565b6040516101459190611301565b60405180910390f35b348015610159575f80fd5b50610174600480360381019061016f919061134b565b610714565b005b610190600480360381019061018b919061134b565b61075f565b005b34801561019d575f80fd5b506101a66107a6565b005b3480156101b3575f80fd5b506101bc610ab9565b6040516101c991906113b2565b60405180910390f35b3480156101dd575f80fd5b506101f860048036038101906101f39190611110565b610adf565b005b348015610205575f80fd5b5061020e610af1565b005b34801561021b575f80fd5b50610224610b04565b60405161023191906113da565b60405180910390f35b348015610245575f80fd5b5061024e610b2b565b005b34801561025b575f80fd5b50610264610bed565b60405161027191906115f0565b60405180910390f35b348015610285575f80fd5b506102a0600480360381019061029b919061134b565b610c85565b005b3480156102ad575f80fd5b506102b6610d09565b6040516102c391906116b0565b60405180910390f35b6004544210610310576040517f08c379a00000000000000000000000000000000000000000000000000000000081526004016103079061172a565b60405180910390fd5b5f60015f3373ffffffffffffffffffffffffffffffffffffffff1673ffffffffffffffffffffffffffffffffffffffff1681526020019081526020015f20541461038f576040517f08c379a000000000000000000000000000000000000000000000000000000000815260040161038690611792565b60405180910390fd5b8060015f3373ffffffffffffffffffffffffffffffffffffffff1673ffffffffffffffffffffffffffffffffffffffff1681526020019081526020015f2081905550600233908060018154018082558091505060019003905f5260205f20015f9091909190916101000a81548173ffffffffffffffffffffffffffffffffffffffff021916908373ffffffffffffffffffffffffffffffffffffffff16021790555060055f9054906101000a900473ffffffffffffffffffffffffffffffffffffffff1673ffffffffffffffffffffffffffffffffffffffff1663ef46a75d826040518263ffffffff1660e01b815260040161048b91906117bf565b5f604051808303815f87803b1580156104a2575f80fd5b505af11580156104b4573d5f803e3d5ffd5b505050507fd0e6c39f2e086dc49f1524b47725526a56945cd1ff661f37976f1725a1e5698633826040516104e99291906117d8565b60405180910390a150565b600654803373ffffffffffffffffffffffffffffffffffffffff163111610550576040517f08c379a000000000000000000000000000000000000000000000000000000000815260040161054790611849565b60405180910390fd5b6006543414610594576040517f08c379a000000000000000000000000000000000000000000000000000000000815260040161058b906118b1565b60405180910390fd5b5f60055f9054906101000a900473ffffffffffffffffffffffffffffffffffffffff1673ffffffffffffffffffffffffffffffffffffffff16636f7789a1878787876040518563ffffffff1660e01b81526004016105f59493929190611909565b5f604051808303815f875af1158015610610573d5f803e3d5ffd5b505050506040513d5f823e3d601f19601f820116820180604052508101906106389190611b9f565b90507f918f010187dacfa7074bf61710aff7a8ba31fcd11aef11d9cf1f8293f1acba6f86868686425f8760a001516040516106799796959493929190611c28565b60405180910390a1505050505050565b6060600280548060200260200160405190810160405280929190818152602001828054801561070a57602002820191905f5260205f20905b815f9054906101000a900473ffffffffffffffffffffffffffffffffffffffff1673ffffffffffffffffffffffffffffffffffffffff16815260200190600101908083116106c1575b5050505050905090565b61071c610da7565b8060055f6101000a81548173ffffffffffffffffffffffffffffffffffffffff021916908373ffffffffffffffffffffffffffffffffffffffff16021790555050565b8073ffffffffffffffffffffffffffffffffffffffff166108fc3490811502906040515f60405180830381858888f193505050501580156107a2573d5f803e3d5ffd5b5050565b60045442106107ea576040517f08c379a00000000000000000000000000000000000000000000000000000000081526004016107e19061172a565b60405180910390fd5b5f60015f3373ffffffffffffffffffffffffffffffffffffffff1673ffffffffffffffffffffffffffffffffffffffff1681526020019081526020015f205403610869576040517f08c379a000000000000000000000000000000000000000000000000000000000815260040161086090611cd5565b60405180910390fd5b5f60015f3373ffffffffffffffffffffffffffffffffffffffff1673ffffffffffffffffffffffffffffffffffffffff1681526020019081526020015f205490505f60015f3373ffffffffffffffffffffffffffffffffffffffff1673ffffffffffffffffffffffffffffffffffffffff1681526020019081526020015f208190555060055f9054906101000a900473ffffffffffffffffffffffffffffffffffffffff1673ffffffffffffffffffffffffffffffffffffffff16639b757a2c826040518263ffffffff1660e01b815260040161094691906117bf565b5f604051808303815f87803b15801561095d575f80fd5b505af115801561096f573d5f803e3d5ffd5b5050505073__UtilLibrary___________________________635a8d4625600273__UtilLibrary___________________________631c07c87f6002336040518363ffffffff1660e01b81526004016109c9929190611e18565b602060405180830381865af41580156109e4573d5f803e3d5ffd5b505050506040513d601f19601f82011682018060405250810190610a089190611e46565b6040518363ffffffff1660e01b8152600401610a25929190611e80565b5f60405180830381865af4158015610a3f573d5f803e3d5ffd5b505050506040513d5f823e3d601f19601f82011682018060405250810190610a679190611f6e565b60029080519060200190610a7c929190610fa3565b507f1e4ba8038df092a6a9cc2400d85e4bcdabae0834fcad0ee391a8dff246ef42543382604051610aae9291906117d8565b60405180910390a150565b610ac161102a565b60405180604001604052806003548152602001600454815250905090565b610ae7610da7565b8060068190555050565b610af9610da7565b610b025f610e2e565b565b5f805f9054906101000a900473ffffffffffffffffffffffffffffffffffffffff16905090565b610b33610da7565b4260038190555061012c600354610b4a9190611fe2565b600481905550610b58610eef565b60055f9054906101000a900473ffffffffffffffffffffffffffffffffffffffff1673ffffffffffffffffffffffffffffffffffffffff16637cdbf25c6040518163ffffffff1660e01b81526004015f604051808303815f875af1158015610bc2573d5f803e3d5ffd5b505050506040513d5f823e3d601f19601f82011682018060405250810190610bea9190611b9f565b50565b606060055f9054906101000a900473ffffffffffffffffffffffffffffffffffffffff1673ffffffffffffffffffffffffffffffffffffffff166394964edf6040518163ffffffff1660e01b81526004015f60405180830381865afa158015610c58573d5f803e3d5ffd5b505050506040513d5f823e3d601f19601f82011682018060405250810190610c8091906120f3565b905090565b610c8d610da7565b5f73ffffffffffffffffffffffffffffffffffffffff168173ffffffffffffffffffffffffffffffffffffffff1603610cfd575f6040517f1e4fbdf7000000000000000000000000000000000000000000000000000000008152600401610cf491906113da565b60405180910390fd5b610d0681610e2e565b50565b610d11611042565b60055f9054906101000a900473ffffffffffffffffffffffffffffffffffffffff1673ffffffffffffffffffffffffffffffffffffffff16636c9a5fa46040518163ffffffff1660e01b81526004015f60405180830381865afa158015610d7a573d5f803e3d5ffd5b505050506040513d5f823e3d601f19601f82011682018060405250810190610da29190611b9f565b905090565b610daf610f9c565b73ffffffffffffffffffffffffffffffffffffffff16610dcd610b04565b73ffffffffffffffffffffffffffffffffffffffff1614610e2c57610df0610f9c565b6040517f118cdaa7000000000000000000000000000000000000000000000000000000008152600401610e2391906113da565b60405180910390fd5b565b5f805f9054906101000a900473ffffffffffffffffffffffffffffffffffffffff169050815f806101000a81548173ffffffffffffffffffffffffffffffffffffffff021916908373ffffffffffffffffffffffffffffffffffffffff1602179055508173ffffffffffffffffffffffffffffffffffffffff168173ffffffffffffffffffffffffffffffffffffffff167f8be0079c531659141344cd1fd0a4f28419497f9722a3daafe3b4186f6b6457e060405160405180910390a35050565b5f5b600280549050811015610f8c5760015f60028381548110610f1557610f1461213a565b5b905f5260205f20015f9054906101000a900473ffffffffffffffffffffffffffffffffffffffff1673ffffffffffffffffffffffffffffffffffffffff1673ffffffffffffffffffffffffffffffffffffffff1681526020019081526020015f205f90558080610f8490612167565b915050610ef1565b5060025f610f9a9190611093565b565b5f33905090565b828054828255905f5260205f20908101928215611019579160200282015b82811115611018578251825f6101000a81548173ffffffffffffffffffffffffffffffffffffffff021916908373ffffffffffffffffffffffffffffffffffffffff16021790555091602001919060010190610fc1565b5b50905061102691906110b1565b5090565b60405180604001604052805f81526020015f81525090565b6040518060e001604052805f73ffffffffffffffffffffffffffffffffffffffff16815260200160608152602001606081526020015f81526020015f81526020015f81526020015f80191681525090565b5080545f8255905f5260205f20908101906110ae91906110b1565b50565b5b808211156110c8575f815f9055506001016110b2565b5090565b5f604051905090565b5f80fd5b5f80fd5b5f819050919050565b6110ef816110dd565b81146110f9575f80fd5b50565b5f8135905061110a816110e6565b92915050565b5f60208284031215611125576111246110d5565b5b5f611132848285016110fc565b91505092915050565b5f80fd5b5f80fd5b5f80fd5b5f8083601f84011261115c5761115b61113b565b5b8235905067ffffffffffffffff8111156111795761117861113f565b5b60208301915083600182028301111561119557611194611143565b5b9250929050565b5f805f80604085870312156111b4576111b36110d5565b5b5f85013567ffffffffffffffff8111156111d1576111d06110d9565b5b6111dd87828801611147565b9450945050602085013567ffffffffffffffff811115611200576111ff6110d9565b5b61120c87828801611147565b925092505092959194509250565b5f81519050919050565b5f82825260208201905092915050565b5f819050602082019050919050565b5f73ffffffffffffffffffffffffffffffffffffffff82169050919050565b5f61126c82611243565b9050919050565b61127c81611262565b82525050565b5f61128d8383611273565b60208301905092915050565b5f602082019050919050565b5f6112af8261121a565b6112b98185611224565b93506112c483611234565b805f5b838110156112f45781516112db8882611282565b97506112e683611299565b9250506001810190506112c7565b5085935050505092915050565b5f6020820190508181035f83015261131981846112a5565b905092915050565b61132a81611262565b8114611334575f80fd5b50565b5f8135905061134581611321565b92915050565b5f602082840312156113605761135f6110d5565b5b5f61136d84828501611337565b91505092915050565b61137f816110dd565b82525050565b604082015f8201516113995f850182611376565b5060208201516113ac6020850182611376565b50505050565b5f6040820190506113c55f830184611385565b92915050565b6113d481611262565b82525050565b5f6020820190506113ed5f8301846113cb565b92915050565b5f81519050919050565b5f82825260208201905092915050565b5f819050602082019050919050565b5f81519050919050565b5f82825260208201905092915050565b5f5b83811015611453578082015181840152602081019050611438565b5f8484015250505050565b5f601f19601f8301169050919050565b5f6114788261141c565b6114828185611426565b9350611492818560208601611436565b61149b8161145e565b840191505092915050565b5f819050919050565b6114b8816114a6565b82525050565b5f60e083015f8301516114d35f860182611273565b50602083015184820360208601526114eb828261146e565b91505060408301518482036040860152611505828261146e565b915050606083015161151a6060860182611376565b50608083015161152d6080860182611376565b5060a083015161154060a0860182611376565b5060c083015161155360c08601826114af565b508091505092915050565b5f61156983836114be565b905092915050565b5f602082019050919050565b5f611587826113f3565b61159181856113fd565b9350836020820285016115a38561140d565b805f5b858110156115de57848403895281516115bf858261155e565b94506115ca83611571565b925060208a019950506001810190506115a6565b50829750879550505050505092915050565b5f6020820190508181035f830152611608818461157d565b905092915050565b5f60e083015f8301516116255f860182611273565b506020830151848203602086015261163d828261146e565b91505060408301518482036040860152611657828261146e565b915050606083015161166c6060860182611376565b50608083015161167f6080860182611376565b5060a083015161169260a0860182611376565b5060c08301516116a560c08601826114af565b508091505092915050565b5f6020820190508181035f8301526116c88184611610565b905092915050565b5f82825260208201905092915050565b7f566f74696e6720706572696f642068617320656e6465640000000000000000005f82015250565b5f6117146017836116d0565b915061171f826116e0565b602082019050919050565b5f6020820190508181035f83015261174181611708565b9050919050565b7f596f7520616c726561647920766f7465640000000000000000000000000000005f82015250565b5f61177c6011836116d0565b915061178782611748565b602082019050919050565b5f6020820190508181035f8301526117a981611770565b9050919050565b6117b9816110dd565b82525050565b5f6020820190506117d25f8301846117b0565b92915050565b5f6040820190506117eb5f8301856113cb565b6117f860208301846117b0565b9392505050565b7f496e737566696369656e7420666f756e647321000000000000000000000000005f82015250565b5f6118336013836116d0565b915061183e826117ff565b602082019050919050565b5f6020820190508181035f83015261186081611827565b9050919050565b7f496e76616c6964206665652076616c75650000000000000000000000000000005f82015250565b5f61189b6011836116d0565b91506118a682611867565b602082019050919050565b5f6020820190508181035f8301526118c88161188f565b9050919050565b828183375f83830152505050565b5f6118e883856116d0565b93506118f58385846118cf565b6118fe8361145e565b840190509392505050565b5f6040820190508181035f8301526119228186886118dd565b905081810360208301526119378184866118dd565b905095945050505050565b5f80fd5b7f4e487b71000000000000000000000000000000000000000000000000000000005f52604160045260245ffd5b61197c8261145e565b810181811067ffffffffffffffff8211171561199b5761199a611946565b5b80604052505050565b5f6119ad6110cc565b90506119b98282611973565b919050565b5f80fd5b5f815190506119d081611321565b92915050565b5f80fd5b5f67ffffffffffffffff8211156119f4576119f3611946565b5b6119fd8261145e565b9050602081019050919050565b5f611a1c611a17846119da565b6119a4565b905082815260208101848484011115611a3857611a376119d6565b5b611a43848285611436565b509392505050565b5f82601f830112611a5f57611a5e61113b565b5b8151611a6f848260208601611a0a565b91505092915050565b5f81519050611a86816110e6565b92915050565b611a95816114a6565b8114611a9f575f80fd5b50565b5f81519050611ab081611a8c565b92915050565b5f60e08284031215611acb57611aca611942565b5b611ad560e06119a4565b90505f611ae4848285016119c2565b5f83015250602082015167ffffffffffffffff811115611b0757611b066119be565b5b611b1384828501611a4b565b602083015250604082015167ffffffffffffffff811115611b3757611b366119be565b5b611b4384828501611a4b565b6040830152506060611b5784828501611a78565b6060830152506080611b6b84828501611a78565b60808301525060a0611b7f84828501611a78565b60a08301525060c0611b9384828501611aa2565b60c08301525092915050565b5f60208284031215611bb457611bb36110d5565b5b5f82015167ffffffffffffffff811115611bd157611bd06110d9565b5b611bdd84828501611ab6565b91505092915050565b5f819050919050565b5f819050919050565b5f611c12611c0d611c0884611be6565b611bef565b6110dd565b9050919050565b611c2281611bf8565b82525050565b5f60a0820190508181035f830152611c4181898b6118dd565b90508181036020830152611c568187896118dd565b9050611c6560408301866117b0565b611c726060830185611c19565b611c7f60808301846117b0565b98975050505050505050565b7f596f7520686176656e277420766f7465642079657400000000000000000000005f82015250565b5f611cbf6015836116d0565b9150611cca82611c8b565b602082019050919050565b5f6020820190508181035f830152611cec81611cb3565b9050919050565b5f81549050919050565b5f82825260208201905092915050565b5f819050815f5260205f209050919050565b611d2881611262565b82525050565b5f611d398383611d1f565b60208301905092915050565b5f815f1c9050919050565b5f73ffffffffffffffffffffffffffffffffffffffff82169050919050565b5f611d81611d7c83611d45565b611d50565b9050919050565b5f611d938254611d6f565b9050919050565b5f600182019050919050565b5f611db082611cf3565b611dba8185611cfd565b9350611dc583611d0d565b805f5b83811015611dfc57611dd982611d88565b611de38882611d2e565b9750611dee83611d9a565b925050600181019050611dc8565b5085935050505092915050565b611e1281611262565b82525050565b5f6040820190508181035f830152611e308185611da6565b9050611e3f6020830184611e09565b9392505050565b5f60208284031215611e5b57611e5a6110d5565b5b5f611e6884828501611a78565b91505092915050565b611e7a816110dd565b82525050565b5f6040820190508181035f830152611e988185611da6565b9050611ea76020830184611e71565b9392505050565b5f67ffffffffffffffff821115611ec857611ec7611946565b5b602082029050602081019050919050565b5f611eeb611ee684611eae565b6119a4565b90508083825260208201905060208402830185811115611f0e57611f0d611143565b5b835b81811015611f375780611f2388826119c2565b845260208401935050602081019050611f10565b5050509392505050565b5f82601f830112611f5557611f5461113b565b5b8151611f65848260208601611ed9565b91505092915050565b5f60208284031215611f8357611f826110d5565b5b5f82015167ffffffffffffffff811115611fa057611f9f6110d9565b5b611fac84828501611f41565b91505092915050565b7f4e487b71000000000000000000000000000000000000000000000000000000005f52601160045260245ffd5b5f611fec826110dd565b9150611ff7836110dd565b925082820190508082111561200f5761200e611fb5565b5b92915050565b5f67ffffffffffffffff82111561202f5761202e611946565b5b602082029050602081019050919050565b5f61205261204d84612015565b6119a4565b9050808382526020820190506020840283018581111561207557612074611143565b5b835b818110156120bc57805167ffffffffffffffff81111561209a5761209961113b565b5b8086016120a78982611ab6565b85526020850194505050602081019050612077565b5050509392505050565b5f82601f8301126120da576120d961113b565b5b81516120ea848260208601612040565b91505092915050565b5f60208284031215612108576121076110d5565b5b5f82015167ffffffffffffffff811115612125576121246110d9565b5b612131848285016120c6565b91505092915050565b7f4e487b71000000000000000000000000000000000000000000000000000000005f52603260045260245ffd5b5f612171826110dd565b91507fffffffffffffffffffffffffffffffffffffffffffffffffffffffffffffffff82036121a3576121a2611fb5565b5b60018201905091905056fea2646970667358221220a5f37a0fb065ad7c5889ca13972ef0275f42779d412d091b49602f6587dc49cf64736f6c63430008150033",
  "immutableReferences": {},
  "source": "// SPDX-License-Identifier: GPL-3.0\r\n\r\npragma solidity >=0.7.0 <0.9.0;\r\n\r\nimport \"@openzeppelin/contracts/access/Ownable.sol\";\r\nimport \"@openzeppelin/contracts-upgradeable/proxy/utils/Initializable.sol\";\r\nimport \"./Models.sol\";\r\nimport \"./LibraryAudianceEngagementTool.sol\";\r\nimport \"./Interfaces.sol\";\r\n\r\ncontract AudienceEngagementTool is Ownable, Initializable  {\r\n\r\n    mapping(address => uint) votes;\r\n    address[] keys;\r\n    uint periodStart;\r\n    uint periodEnd;\r\n\r\n    IProposelContract proposelContract;\r\n\r\n    uint internal fee;\r\n\r\n    event ProposelAdded(string name, string url, uint timestamp, uint votes, uint id);\r\n    event VoteCasted(address voter, uint proposel_id);\r\n    event VoteUncasted(address voter, uint proposel_id);\r\n    event RemovedProposel(uint proposel_id);\r\n\r\n    constructor(address IProposelContractAddress) Ownable(msg.sender){\r\n        proposelContract =  IProposelContract(IProposelContractAddress);\r\n        periodStart = block.timestamp;\r\n        periodEnd = periodStart + 300;\r\n        fee = 1;\r\n    }\r\n\r\n    modifier isVotingPeriod() {\r\n        require(block.timestamp < periodEnd, \"Voting period has ended\");\r\n        _;\r\n    }\r\n\r\n    modifier alreadyVoted() {\r\n        require(votes[msg.sender] != 0, \"You haven't voted yet\");\r\n        _;\r\n    }\r\n\r\n    modifier notVotedYet() {\r\n        require(votes[msg.sender] == 0, \"You already voted\");\r\n        _;\r\n    }\r\n\r\n    modifier hasFounds(uint value) {\r\n        require(msg.sender.balance > value, \"Insuficient founds!\");\r\n        _;\r\n    }\r\n\r\n    modifier rightFeeValue() {\r\n        require(msg.value == fee, \"Invalid fee value\");\r\n        _;\r\n    }\r\n\r\n    function setProposelContractAddress(address IProposelContractAddress) public onlyOwner{\r\n        proposelContract =  IProposelContract(IProposelContractAddress);\r\n    }\r\n\r\n    function resetVotes() private {\r\n        for (uint i = 0; i < keys.length; i++) {\r\n            delete votes[keys[i]];\r\n        }\r\n        delete keys;\r\n    }\r\n\r\n    function resetPeriod() public onlyOwner {\r\n        periodStart = block.timestamp;\r\n        periodEnd = periodStart + 300;\r\n        resetVotes();\r\n        proposelContract.removeWinningPropsel();\r\n    }\r\n\r\n    function setFee(uint newFee) public onlyOwner {\r\n        fee = newFee;\r\n    }\r\n\r\n    function getPeriodInterval() public view returns (PeriodInterval memory) {\r\n        return PeriodInterval({periodEnd: periodEnd, periodStart: periodStart});\r\n    }\r\n\r\n    function setProposel(\r\n        string calldata name,\r\n        string calldata url\r\n    ) external payable hasFounds(fee) rightFeeValue {\r\n        Proposel memory newProposel = proposelContract.addProposel(name,url);\r\n        // payable(owner).transfer(msg.value);\r\n        emit ProposelAdded(name, url, block.timestamp, 0, newProposel.id); \r\n\r\n    }\r\n\r\n    function vote(uint proposelId)  isVotingPeriod notVotedYet external {       \r\n        votes[msg.sender] = proposelId;\r\n        keys.push(msg.sender);\r\n        proposelContract.increaseVotes(proposelId);\r\n        emit VoteCasted(msg.sender, proposelId);\r\n    }\r\n\r\n    function unvote() isVotingPeriod alreadyVoted external {\r\n        uint proposelId = votes[msg.sender];\r\n        votes[msg.sender] = 0;\r\n        proposelContract.decreaseVotes(proposelId);\r\n        keys = UtilLibrary.removeElement(keys, UtilLibrary.getIndex(keys, msg.sender));\r\n        emit VoteUncasted(msg.sender, proposelId);\r\n    }\r\n\r\n    function listProposels() public view returns (Proposel[] memory) {        \r\n        return proposelContract.listProposels();\r\n    }\r\n\r\n    function getWinningPoposel() public view returns (Proposel memory) {\r\n        return proposelContract.getWinningProposel();\r\n    }\r\n\r\n    function makeTransfer(address to) payable external {\r\n        payable(to).transfer(msg.value);\r\n    }\r\n\r\n    function getVotes() view public returns(address[] memory){\r\n        return keys;\r\n    } \r\n}\r\n",
  "sourcePath": "D:\\proiect-blockChain2\\contracts\\AudienceEngagementTool.sol",
  "compiler": {
    "name": "solc",
    "version": "0.8.21+commit.d9974bed.Emscripten.clang"
  },
  "schemaVersion": "3.4.16",
  "updatedAt": "2024-05-12T12:57:36.383Z",
  "devdoc": {
    "errors": {
      "InvalidInitialization()": [
        {
          "details": "The contract is already initialized."
        }
      ],
      "NotInitializing()": [
        {
          "details": "The contract is not initializing."
        }
      ],
      "OwnableInvalidOwner(address)": [
        {
          "details": "The owner is not a valid owner account. (eg. `address(0)`)"
        }
      ],
      "OwnableUnauthorizedAccount(address)": [
        {
          "details": "The caller account is not authorized to perform an operation."
        }
      ]
    },
    "events": {
      "Initialized(uint64)": {
        "details": "Triggered when the contract has been initialized or reinitialized."
      }
    },
    "kind": "dev",
    "methods": {
      "owner()": {
        "details": "Returns the address of the current owner."
      },
      "renounceOwnership()": {
        "details": "Leaves the contract without owner. It will not be possible to call `onlyOwner` functions. Can only be called by the current owner. NOTE: Renouncing ownership will leave the contract without an owner, thereby disabling any functionality that is only available to the owner."
      },
      "transferOwnership(address)": {
        "details": "Transfers ownership of the contract to a new account (`newOwner`). Can only be called by the current owner."
      }
    },
    "version": 1
  },
  "userdoc": {
    "kind": "user",
    "methods": {},
    "version": 1
  }
}