{
  "contractName": "ProposelContract",
  "abi": [
    {
      "inputs": [],
      "stateMutability": "nonpayable",
      "type": "constructor"
    },
    {
      "inputs": [
        {
          "internalType": "address",
          "name": "owner",
          "type": "address"
        }
      ],
      "name": "OwnableInvalidOwner",
      "type": "error"
    },
    {
      "inputs": [
        {
          "internalType": "address",
          "name": "account",
          "type": "address"
        }
      ],
      "name": "OwnableUnauthorizedAccount",
      "type": "error"
    },
    {
      "anonymous": false,
      "inputs": [
        {
          "indexed": true,
          "internalType": "address",
          "name": "previousOwner",
          "type": "address"
        },
        {
          "indexed": true,
          "internalType": "address",
          "name": "newOwner",
          "type": "address"
        }
      ],
      "name": "OwnershipTransferred",
      "type": "event"
    },
    {
      "inputs": [],
      "name": "owner",
      "outputs": [
        {
          "internalType": "address",
          "name": "",
          "type": "address"
        }
      ],
      "stateMutability": "view",
      "type": "function"
    },
    {
      "inputs": [],
      "name": "renounceOwnership",
      "outputs": [],
      "stateMutability": "nonpayable",
      "type": "function"
    },
    {
      "inputs": [
        {
          "internalType": "address",
          "name": "newOwner",
          "type": "address"
        }
      ],
      "name": "transferOwnership",
      "outputs": [],
      "stateMutability": "nonpayable",
      "type": "function"
    },
    {
      "inputs": [
        {
          "internalType": "uint256",
          "name": "value",
          "type": "uint256"
        }
      ],
      "name": "toString",
      "outputs": [
        {
          "internalType": "string",
          "name": "",
          "type": "string"
        }
      ],
      "stateMutability": "pure",
      "type": "function"
    },
    {
      "inputs": [
        {
          "internalType": "string",
          "name": "a",
          "type": "string"
        },
        {
          "internalType": "string",
          "name": "b",
          "type": "string"
        },
        {
          "internalType": "uint256",
          "name": "number1",
          "type": "uint256"
        },
        {
          "internalType": "uint256",
          "name": "number2",
          "type": "uint256"
        }
      ],
      "name": "combineElemnets",
      "outputs": [
        {
          "internalType": "string",
          "name": "",
          "type": "string"
        }
      ],
      "stateMutability": "pure",
      "type": "function"
    },
    {
      "inputs": [
        {
          "internalType": "string",
          "name": "str",
          "type": "string"
        }
      ],
      "name": "gethash",
      "outputs": [
        {
          "internalType": "bytes32",
          "name": "",
          "type": "bytes32"
        }
      ],
      "stateMutability": "pure",
      "type": "function"
    },
    {
      "inputs": [
        {
          "components": [
            {
              "internalType": "address",
              "name": "owner",
              "type": "address"
            },
            {
              "internalType": "string",
              "name": "name",
              "type": "string"
            },
            {
              "internalType": "string",
              "name": "url",
              "type": "string"
            },
            {
              "internalType": "uint256",
              "name": "timestamp",
              "type": "uint256"
            },
            {
              "internalType": "uint256",
              "name": "votes",
              "type": "uint256"
            },
            {
              "internalType": "uint256",
              "name": "id",
              "type": "uint256"
            },
            {
              "internalType": "bytes32",
              "name": "uniqueHash",
              "type": "bytes32"
            }
          ],
          "internalType": "struct Proposel[]",
          "name": "proposelsList",
          "type": "tuple[]"
        },
        {
          "internalType": "uint256",
          "name": "id",
          "type": "uint256"
        }
      ],
      "name": "getIndexInList",
      "outputs": [
        {
          "internalType": "uint256",
          "name": "",
          "type": "uint256"
        }
      ],
      "stateMutability": "pure",
      "type": "function"
    },
    {
      "inputs": [
        {
          "components": [
            {
              "internalType": "address",
              "name": "owner",
              "type": "address"
            },
            {
              "internalType": "string",
              "name": "name",
              "type": "string"
            },
            {
              "internalType": "string",
              "name": "url",
              "type": "string"
            },
            {
              "internalType": "uint256",
              "name": "timestamp",
              "type": "uint256"
            },
            {
              "internalType": "uint256",
              "name": "votes",
              "type": "uint256"
            },
            {
              "internalType": "uint256",
              "name": "id",
              "type": "uint256"
            },
            {
              "internalType": "bytes32",
              "name": "uniqueHash",
              "type": "bytes32"
            }
          ],
          "internalType": "struct Proposel[]",
          "name": "proposelsList",
          "type": "tuple[]"
        }
      ],
      "name": "getIndexWithMaxVotes",
      "outputs": [
        {
          "internalType": "uint256",
          "name": "",
          "type": "uint256"
        }
      ],
      "stateMutability": "pure",
      "type": "function"
    },
    {
      "inputs": [
        {
          "components": [
            {
              "internalType": "address",
              "name": "owner",
              "type": "address"
            },
            {
              "internalType": "string",
              "name": "name",
              "type": "string"
            },
            {
              "internalType": "string",
              "name": "url",
              "type": "string"
            },
            {
              "internalType": "uint256",
              "name": "timestamp",
              "type": "uint256"
            },
            {
              "internalType": "uint256",
              "name": "votes",
              "type": "uint256"
            },
            {
              "internalType": "uint256",
              "name": "id",
              "type": "uint256"
            },
            {
              "internalType": "bytes32",
              "name": "uniqueHash",
              "type": "bytes32"
            }
          ],
          "internalType": "struct Proposel[]",
          "name": "proposelsList",
          "type": "tuple[]"
        },
        {
          "internalType": "uint256",
          "name": "proposelId",
          "type": "uint256"
        }
      ],
      "name": "checkIndex",
      "outputs": [
        {
          "internalType": "bool",
          "name": "",
          "type": "bool"
        }
      ],
      "stateMutability": "pure",
      "type": "function"
    },
    {
      "inputs": [
        {
          "internalType": "address[]",
          "name": "array",
          "type": "address[]"
        }
      ],
      "name": "pop",
      "outputs": [
        {
          "internalType": "address[]",
          "name": "",
          "type": "address[]"
        }
      ],
      "stateMutability": "pure",
      "type": "function"
    },
    {
      "inputs": [
        {
          "internalType": "address[]",
          "name": "array",
          "type": "address[]"
        },
        {
          "internalType": "uint256",
          "name": "index",
          "type": "uint256"
        }
      ],
      "name": "removeElement",
      "outputs": [
        {
          "internalType": "address[]",
          "name": "",
          "type": "address[]"
        }
      ],
      "stateMutability": "pure",
      "type": "function"
    },
    {
      "inputs": [
        {
          "internalType": "uint256",
          "name": "proposel_id",
          "type": "uint256"
        }
      ],
      "name": "increaseVotes",
      "outputs": [],
      "stateMutability": "nonpayable",
      "type": "function"
    },
    {
      "inputs": [
        {
          "internalType": "uint256",
          "name": "proposel_id",
          "type": "uint256"
        }
      ],
      "name": "decreaseVotes",
      "outputs": [],
      "stateMutability": "nonpayable",
      "type": "function"
    },
    {
      "inputs": [],
      "name": "removeWinningPropsel",
      "outputs": [
        {
          "components": [
            {
              "internalType": "address",
              "name": "owner",
              "type": "address"
            },
            {
              "internalType": "string",
              "name": "name",
              "type": "string"
            },
            {
              "internalType": "string",
              "name": "url",
              "type": "string"
            },
            {
              "internalType": "uint256",
              "name": "timestamp",
              "type": "uint256"
            },
            {
              "internalType": "uint256",
              "name": "votes",
              "type": "uint256"
            },
            {
              "internalType": "uint256",
              "name": "id",
              "type": "uint256"
            },
            {
              "internalType": "bytes32",
              "name": "uniqueHash",
              "type": "bytes32"
            }
          ],
          "internalType": "struct Proposel",
          "name": "",
          "type": "tuple"
        }
      ],
      "stateMutability": "nonpayable",
      "type": "function"
    },
    {
      "inputs": [
        {
          "internalType": "string",
          "name": "name",
          "type": "string"
        },
        {
          "internalType": "string",
          "name": "url",
          "type": "string"
        }
      ],
      "name": "addProposel",
      "outputs": [
        {
          "components": [
            {
              "internalType": "address",
              "name": "owner",
              "type": "address"
            },
            {
              "internalType": "string",
              "name": "name",
              "type": "string"
            },
            {
              "internalType": "string",
              "name": "url",
              "type": "string"
            },
            {
              "internalType": "uint256",
              "name": "timestamp",
              "type": "uint256"
            },
            {
              "internalType": "uint256",
              "name": "votes",
              "type": "uint256"
            },
            {
              "internalType": "uint256",
              "name": "id",
              "type": "uint256"
            },
            {
              "internalType": "bytes32",
              "name": "uniqueHash",
              "type": "bytes32"
            }
          ],
          "internalType": "struct Proposel",
          "name": "",
          "type": "tuple"
        }
      ],
      "stateMutability": "nonpayable",
      "type": "function"
    },
    {
      "inputs": [],
      "name": "listProposels",
      "outputs": [
        {
          "components": [
            {
              "internalType": "address",
              "name": "owner",
              "type": "address"
            },
            {
              "internalType": "string",
              "name": "name",
              "type": "string"
            },
            {
              "internalType": "string",
              "name": "url",
              "type": "string"
            },
            {
              "internalType": "uint256",
              "name": "timestamp",
              "type": "uint256"
            },
            {
              "internalType": "uint256",
              "name": "votes",
              "type": "uint256"
            },
            {
              "internalType": "uint256",
              "name": "id",
              "type": "uint256"
            },
            {
              "internalType": "bytes32",
              "name": "uniqueHash",
              "type": "bytes32"
            }
          ],
          "internalType": "struct Proposel[]",
          "name": "",
          "type": "tuple[]"
        }
      ],
      "stateMutability": "view",
      "type": "function"
    },
    {
      "inputs": [],
      "name": "getWinningProposel",
      "outputs": [
        {
          "components": [
            {
              "internalType": "address",
              "name": "owner",
              "type": "address"
            },
            {
              "internalType": "string",
              "name": "name",
              "type": "string"
            },
            {
              "internalType": "string",
              "name": "url",
              "type": "string"
            },
            {
              "internalType": "uint256",
              "name": "timestamp",
              "type": "uint256"
            },
            {
              "internalType": "uint256",
              "name": "votes",
              "type": "uint256"
            },
            {
              "internalType": "uint256",
              "name": "id",
              "type": "uint256"
            },
            {
              "internalType": "bytes32",
              "name": "uniqueHash",
              "type": "bytes32"
            }
          ],
          "internalType": "struct Proposel",
          "name": "",
          "type": "tuple"
        }
      ],
      "stateMutability": "view",
      "type": "function"
    }
  ],
  "bytecode": "0x608060405234801562000010575f80fd5b50335f73ffffffffffffffffffffffffffffffffffffffff168173ffffffffffffffffffffffffffffffffffffffff160362000085575f6040517f1e4fbdf70000000000000000000000000000000000000000000000000000000081526004016200007c9190620001a9565b60405180910390fd5b6200009681620000a560201b60201c565b506001600381905550620001c4565b5f805f9054906101000a900473ffffffffffffffffffffffffffffffffffffffff169050815f806101000a81548173ffffffffffffffffffffffffffffffffffffffff021916908373ffffffffffffffffffffffffffffffffffffffff1602179055508173ffffffffffffffffffffffffffffffffffffffff168173ffffffffffffffffffffffffffffffffffffffff167f8be0079c531659141344cd1fd0a4f28419497f9722a3daafe3b4186f6b6457e060405160405180910390a35050565b5f73ffffffffffffffffffffffffffffffffffffffff82169050919050565b5f620001918262000166565b9050919050565b620001a38162000185565b82525050565b5f602082019050620001be5f83018462000198565b92915050565b6134f680620001d25f395ff3fe608060405234801561000f575f80fd5b5060043610610109575f3560e01c80638da5cb5b116100a0578063e10a4f221161006f578063e10a4f22146102cb578063ef46a75d146102fb578063f2fde38b14610317578063f3516c6214610333578063f608ab781461036357610109565b80638da5cb5b1461024357806394964edf1461026157806399ceb06d1461027f5780639b757a2c146102af57610109565b80636c9a5fa4116100dc5780636c9a5fa4146101cd5780636f7789a1146101eb578063715018a61461021b5780637cdbf25c1461022557610109565b806344a38efe1461010d5780635a8d46251461013d578063614945381461016d5780636900a3ae1461019d575b5f80fd5b6101276004803603810190610122919061254a565b610393565b60405161013491906125be565b60405180910390f35b61015760048036038101906101529190612697565b6103ef565b60405161016491906127a8565b60405180910390f35b610187600480360381019061018291906127c8565b6104a4565b604051610194919061281e565b60405180910390f35b6101b760048036038101906101b29190612837565b6104d3565b6040516101c491906128dc565b60405180910390f35b6101d561062c565b6040516101e29190612a02565b60405180910390f35b61020560048036038101906102009190612a22565b610a44565b6040516102129190612a02565b60405180910390f35b610223610b84565b005b61022d610b97565b60405161023a9190612a02565b60405180910390f35b61024b6111bd565b6040516102589190612aa7565b60405180910390f35b6102696111e4565b6040516102769190612c1b565b60405180910390f35b6102996004803603810190610294919061254a565b6113dc565b6040516102a69190612c4a565b60405180910390f35b6102c960048036038101906102c49190612837565b611437565b005b6102e560048036038101906102e09190612c63565b6118ab565b6040516102f29190612c4a565b60405180910390f35b61031560048036038101906103109190612837565b611925565b005b610331600480360381019061032c9190612caa565b611d99565b005b61034d60048036038101906103489190612cd5565b611e1d565b60405161035a91906127a8565b60405180910390f35b61037d60048036038101906103789190612d1c565b611f14565b60405161038a91906128dc565b60405180910390f35b5f805f90505b83518110156103e457828482815181106103b6576103b5612db8565b5b602002602001015160a00151036103d15760019150506103e9565b80806103dc90612e12565b915050610399565b505f90505b92915050565b60605f8290505b600184516104049190612e59565b81101561049257836001826104199190612e8c565b8151811061042a57610429612db8565b5b602002602001015184828151811061044557610444612db8565b5b602002602001019073ffffffffffffffffffffffffffffffffffffffff16908173ffffffffffffffffffffffffffffffffffffffff1681525050808061048a90612e12565b9150506103f6565b5061049c83611e1d565b905092915050565b5f816040516020016104b69190612ef9565b604051602081830303815290604052805190602001209050919050565b60605f8203610519576040518060400160405280600181526020017f30000000000000000000000000000000000000000000000000000000000000008152509050610627565b5f8290505f5b5f821461054857808061053190612e12565b915050600a826105419190612f3c565b915061051f565b5f8167ffffffffffffffff8111156105635761056261218f565b5b6040519080825280601f01601f1916602001820160405280156105955781602001600182028036833780820191505090505b5090505b5f8514610620576001826105ad9190612e59565b9150600a856105bc9190612f6c565b60306105c89190612e8c565b60f81b8183815181106105de576105dd612db8565b5b60200101907effffffffffffffffffffffffffffffffffffffffffffffffffffffffffffff191690815f1a905350600a856106199190612f3c565b9450610599565b8093505050505b919050565b6106346120c1565b5f6002805490501161067b576040517f08c379a000000000000000000000000000000000000000000000000000000000815260040161067290612fe6565b60405180910390fd5b5f6108756002805480602002602001604051908101604052809291908181526020015f905b8282101561086c578382905f5260205f2090600702016040518060e00160405290815f82015f9054906101000a900473ffffffffffffffffffffffffffffffffffffffff1673ffffffffffffffffffffffffffffffffffffffff1673ffffffffffffffffffffffffffffffffffffffff16815260200160018201805461072590613031565b80601f016020809104026020016040519081016040528092919081815260200182805461075190613031565b801561079c5780601f106107735761010080835404028352916020019161079c565b820191905f5260205f20905b81548152906001019060200180831161077f57829003601f168201915b505050505081526020016002820180546107b590613031565b80601f01602080910402602001604051908101604052809291908181526020018280546107e190613031565b801561082c5780601f106108035761010080835404028352916020019161082c565b820191905f5260205f20905b81548152906001019060200180831161080f57829003601f168201915b50505050508152602001600382015481526020016004820154815260200160058201548152602001600682015481525050815260200190600101906106a0565b505050506118ab565b90506002818154811061088b5761088a612db8565b5b905f5260205f2090600702016040518060e00160405290815f82015f9054906101000a900473ffffffffffffffffffffffffffffffffffffffff1673ffffffffffffffffffffffffffffffffffffffff1673ffffffffffffffffffffffffffffffffffffffff16815260200160018201805461090690613031565b80601f016020809104026020016040519081016040528092919081815260200182805461093290613031565b801561097d5780601f106109545761010080835404028352916020019161097d565b820191905f5260205f20905b81548152906001019060200180831161096057829003601f168201915b5050505050815260200160028201805461099690613031565b80601f01602080910402602001604051908101604052809291908181526020018280546109c290613031565b8015610a0d5780601f106109e457610100808354040283529160200191610a0d565b820191905f5260205f20905b8154815290600101906020018083116109f057829003601f168201915b5050505050815260200160038201548152602001600482015481526020016005820154815260200160068201548152505091505090565b610a4c6120c1565b5f610a55611f56565b90505f6040518060e001604052803373ffffffffffffffffffffffffffffffffffffffff1681526020018681526020018581526020014281526020015f8152602001838152602001610ab1610aac88884288611f14565b6104a4565b8152509050600281908060018154018082558091505060019003905f5260205f2090600702015f909190919091505f820151815f015f6101000a81548173ffffffffffffffffffffffffffffffffffffffff021916908373ffffffffffffffffffffffffffffffffffffffff1602179055506020820151816001019081610b3891906131fe565b506040820151816002019081610b4e91906131fe565b50606082015181600301556080820151816004015560a0820151816005015560c082015181600601555050809250505092915050565b610b8c611f72565b610b955f611ff9565b565b610b9f6120c1565b5f60028054905011610be6576040517f08c379a0000000000000000000000000000000000000000000000000000000008152600401610bdd90612fe6565b60405180910390fd5b5f610de06002805480602002602001604051908101604052809291908181526020015f905b82821015610dd7578382905f5260205f2090600702016040518060e00160405290815f82015f9054906101000a900473ffffffffffffffffffffffffffffffffffffffff1673ffffffffffffffffffffffffffffffffffffffff1673ffffffffffffffffffffffffffffffffffffffff168152602001600182018054610c9090613031565b80601f0160208091040260200160405190810160405280929190818152602001828054610cbc90613031565b8015610d075780601f10610cde57610100808354040283529160200191610d07565b820191905f5260205f20905b815481529060010190602001808311610cea57829003601f168201915b50505050508152602001600282018054610d2090613031565b80601f0160208091040260200160405190810160405280929190818152602001828054610d4c90613031565b8015610d975780601f10610d6e57610100808354040283529160200191610d97565b820191905f5260205f20905b815481529060010190602001808311610d7a57829003601f168201915b5050505050815260200160038201548152602001600482015481526020016005820154815260200160068201548152505081526020019060010190610c0b565b505050506118ab565b90505f60028281548110610df757610df6612db8565b5b905f5260205f2090600702016040518060e00160405290815f82015f9054906101000a900473ffffffffffffffffffffffffffffffffffffffff1673ffffffffffffffffffffffffffffffffffffffff1673ffffffffffffffffffffffffffffffffffffffff168152602001600182018054610e7290613031565b80601f0160208091040260200160405190810160405280929190818152602001828054610e9e90613031565b8015610ee95780601f10610ec057610100808354040283529160200191610ee9565b820191905f5260205f20905b815481529060010190602001808311610ecc57829003601f168201915b50505050508152602001600282018054610f0290613031565b80601f0160208091040260200160405190810160405280929190818152602001828054610f2e90613031565b8015610f795780601f10610f5057610100808354040283529160200191610f79565b820191905f5260205f20905b815481529060010190602001808311610f5c57829003601f168201915b5050505050815260200160038201548152602001600482015481526020016005820154815260200160068201548152505090505f8290505b6001600280549050610fc39190612e59565b8110156110e1576002600182610fd99190612e8c565b81548110610fea57610fe9612db8565b5b905f5260205f2090600702016002828154811061100a57611009612db8565b5b905f5260205f2090600702015f82015f9054906101000a900473ffffffffffffffffffffffffffffffffffffffff16815f015f6101000a81548173ffffffffffffffffffffffffffffffffffffffff021916908373ffffffffffffffffffffffffffffffffffffffff1602179055506001820181600101908161108d91906132e2565b50600282018160020190816110a291906132e2565b506003820154816003015560048201548160040155600582015481600501556006820154816006015590505080806110d990612e12565b915050610fb1565b5060028054806110f4576110f36133c7565b5b600190038181905f5260205f2090600702015f8082015f6101000a81549073ffffffffffffffffffffffffffffffffffffffff0219169055600182015f61113b9190612112565b600282015f61114a9190612112565b600382015f9055600482015f9055600582015f9055600682015f9055505090555f5b6002805490508110156111b4575f6002828154811061118e5761118d612db8565b5b905f5260205f2090600702016004018190555080806111ac90612e12565b91505061116c565b50809250505090565b5f805f9054906101000a900473ffffffffffffffffffffffffffffffffffffffff16905090565b60606002805480602002602001604051908101604052809291908181526020015f905b828210156113d3578382905f5260205f2090600702016040518060e00160405290815f82015f9054906101000a900473ffffffffffffffffffffffffffffffffffffffff1673ffffffffffffffffffffffffffffffffffffffff1673ffffffffffffffffffffffffffffffffffffffff16815260200160018201805461128c90613031565b80601f01602080910402602001604051908101604052809291908181526020018280546112b890613031565b80156113035780601f106112da57610100808354040283529160200191611303565b820191905f5260205f20905b8154815290600101906020018083116112e657829003601f168201915b5050505050815260200160028201805461131c90613031565b80601f016020809104026020016040519081016040528092919081815260200182805461134890613031565b80156113935780601f1061136a57610100808354040283529160200191611393565b820191905f5260205f20905b81548152906001019060200180831161137657829003601f168201915b5050505050815260200160038201548152602001600482015481526020016005820154815260200160068201548152505081526020019060010190611207565b50505050905090565b5f805f90505b835181101561142c57828482815181106113ff576113fe612db8565b5b602002602001015160a00151036114195780915050611431565b808061142490612e12565b9150506113e2565b505f90505b92915050565b806116326002805480602002602001604051908101604052809291908181526020015f905b82821015611628578382905f5260205f2090600702016040518060e00160405290815f82015f9054906101000a900473ffffffffffffffffffffffffffffffffffffffff1673ffffffffffffffffffffffffffffffffffffffff1673ffffffffffffffffffffffffffffffffffffffff1681526020016001820180546114e190613031565b80601f016020809104026020016040519081016040528092919081815260200182805461150d90613031565b80156115585780601f1061152f57610100808354040283529160200191611558565b820191905f5260205f20905b81548152906001019060200180831161153b57829003601f168201915b5050505050815260200160028201805461157190613031565b80601f016020809104026020016040519081016040528092919081815260200182805461159d90613031565b80156115e85780601f106115bf576101008083540402835291602001916115e8565b820191905f5260205f20905b8154815290600101906020018083116115cb57829003601f168201915b505050505081526020016003820154815260200160048201548152602001600582015481526020016006820154815250508152602001906001019061145c565b5050505082610393565b611671576040517f08c379a00000000000000000000000000000000000000000000000000000000081526004016116689061343e565b60405180910390fd5b5f61186c6002805480602002602001604051908101604052809291908181526020015f905b82821015611862578382905f5260205f2090600702016040518060e00160405290815f82015f9054906101000a900473ffffffffffffffffffffffffffffffffffffffff1673ffffffffffffffffffffffffffffffffffffffff1673ffffffffffffffffffffffffffffffffffffffff16815260200160018201805461171b90613031565b80601f016020809104026020016040519081016040528092919081815260200182805461174790613031565b80156117925780601f1061176957610100808354040283529160200191611792565b820191905f5260205f20905b81548152906001019060200180831161177557829003601f168201915b505050505081526020016002820180546117ab90613031565b80601f01602080910402602001604051908101604052809291908181526020018280546117d790613031565b80156118225780601f106117f957610100808354040283529160200191611822565b820191905f5260205f20905b81548152906001019060200180831161180557829003601f168201915b5050505050815260200160038201548152602001600482015481526020016005820154815260200160068201548152505081526020019060010190611696565b50505050846113dc565b90506002818154811061188257611881612db8565b5b905f5260205f2090600702016004015f8154809291906118a19061345c565b9190505550505050565b5f805f90505f805b845181101561191a57828582815181106118d0576118cf612db8565b5b6020026020010151608001511115611907578481815181106118f5576118f4612db8565b5b60200260200101516080015192508091505b808061191290612e12565b9150506118b3565b508092505050919050565b80611b206002805480602002602001604051908101604052809291908181526020015f905b82821015611b16578382905f5260205f2090600702016040518060e00160405290815f82015f9054906101000a900473ffffffffffffffffffffffffffffffffffffffff1673ffffffffffffffffffffffffffffffffffffffff1673ffffffffffffffffffffffffffffffffffffffff1681526020016001820180546119cf90613031565b80601f01602080910402602001604051908101604052809291908181526020018280546119fb90613031565b8015611a465780601f10611a1d57610100808354040283529160200191611a46565b820191905f5260205f20905b815481529060010190602001808311611a2957829003601f168201915b50505050508152602001600282018054611a5f90613031565b80601f0160208091040260200160405190810160405280929190818152602001828054611a8b90613031565b8015611ad65780601f10611aad57610100808354040283529160200191611ad6565b820191905f5260205f20905b815481529060010190602001808311611ab957829003601f168201915b505050505081526020016003820154815260200160048201548152602001600582015481526020016006820154815250508152602001906001019061194a565b5050505082610393565b611b5f576040517f08c379a0000000000000000000000000000000000000000000000000000000008152600401611b569061343e565b60405180910390fd5b5f611d5a6002805480602002602001604051908101604052809291908181526020015f905b82821015611d50578382905f5260205f2090600702016040518060e00160405290815f82015f9054906101000a900473ffffffffffffffffffffffffffffffffffffffff1673ffffffffffffffffffffffffffffffffffffffff1673ffffffffffffffffffffffffffffffffffffffff168152602001600182018054611c0990613031565b80601f0160208091040260200160405190810160405280929190818152602001828054611c3590613031565b8015611c805780601f10611c5757610100808354040283529160200191611c80565b820191905f5260205f20905b815481529060010190602001808311611c6357829003601f168201915b50505050508152602001600282018054611c9990613031565b80601f0160208091040260200160405190810160405280929190818152602001828054611cc590613031565b8015611d105780601f10611ce757610100808354040283529160200191611d10565b820191905f5260205f20905b815481529060010190602001808311611cf357829003601f168201915b5050505050815260200160038201548152602001600482015481526020016005820154815260200160068201548152505081526020019060010190611b84565b50505050846113dc565b905060028181548110611d7057611d6f612db8565b5b905f5260205f2090600702016004015f815480929190611d8f90612e12565b9190505550505050565b611da1611f72565b5f73ffffffffffffffffffffffffffffffffffffffff168173ffffffffffffffffffffffffffffffffffffffff1603611e11575f6040517f1e4fbdf7000000000000000000000000000000000000000000000000000000008152600401611e089190612aa7565b60405180910390fd5b611e1a81611ff9565b50565b60605f60018351611e2e9190612e59565b67ffffffffffffffff811115611e4757611e4661218f565b5b604051908082528060200260200182016040528015611e755781602001602082028036833780820191505090505b5090505f5b60018451611e889190612e59565b811015611f0a57838181518110611ea257611ea1612db8565b5b6020026020010151828281518110611ebd57611ebc612db8565b5b602002602001019073ffffffffffffffffffffffffffffffffffffffff16908173ffffffffffffffffffffffffffffffffffffffff16815250508080611f0290612e12565b915050611e7a565b5080915050919050565b60608484611f21856104d3565b611f2a856104d3565b604051602001611f3d9493929190613483565b6040516020818303038152906040529050949350505050565b5f60035f815480929190611f6990612e12565b91905055905090565b611f7a6120ba565b73ffffffffffffffffffffffffffffffffffffffff16611f986111bd565b73ffffffffffffffffffffffffffffffffffffffff1614611ff757611fbb6120ba565b6040517f118cdaa7000000000000000000000000000000000000000000000000000000008152600401611fee9190612aa7565b60405180910390fd5b565b5f805f9054906101000a900473ffffffffffffffffffffffffffffffffffffffff169050815f806101000a81548173ffffffffffffffffffffffffffffffffffffffff021916908373ffffffffffffffffffffffffffffffffffffffff1602179055508173ffffffffffffffffffffffffffffffffffffffff168173ffffffffffffffffffffffffffffffffffffffff167f8be0079c531659141344cd1fd0a4f28419497f9722a3daafe3b4186f6b6457e060405160405180910390a35050565b5f33905090565b6040518060e001604052805f73ffffffffffffffffffffffffffffffffffffffff16815260200160608152602001606081526020015f81526020015f81526020015f81526020015f80191681525090565b50805461211e90613031565b5f825580601f1061212f575061214c565b601f0160209004905f5260205f209081019061214b919061214f565b5b50565b5b80821115612166575f815f905550600101612150565b5090565b5f604051905090565b5f80fd5b5f80fd5b5f80fd5b5f601f19601f8301169050919050565b7f4e487b71000000000000000000000000000000000000000000000000000000005f52604160045260245ffd5b6121c58261217f565b810181811067ffffffffffffffff821117156121e4576121e361218f565b5b80604052505050565b5f6121f661216a565b905061220282826121bc565b919050565b5f67ffffffffffffffff8211156122215761222061218f565b5b602082029050602081019050919050565b5f80fd5b5f80fd5b5f80fd5b5f73ffffffffffffffffffffffffffffffffffffffff82169050919050565b5f6122678261223e565b9050919050565b6122778161225d565b8114612281575f80fd5b50565b5f813590506122928161226e565b92915050565b5f80fd5b5f67ffffffffffffffff8211156122b6576122b561218f565b5b6122bf8261217f565b9050602081019050919050565b828183375f83830152505050565b5f6122ec6122e78461229c565b6121ed565b90508281526020810184848401111561230857612307612298565b5b6123138482856122cc565b509392505050565b5f82601f83011261232f5761232e61217b565b5b813561233f8482602086016122da565b91505092915050565b5f819050919050565b61235a81612348565b8114612364575f80fd5b50565b5f8135905061237581612351565b92915050565b5f819050919050565b61238d8161237b565b8114612397575f80fd5b50565b5f813590506123a881612384565b92915050565b5f60e082840312156123c3576123c2612236565b5b6123cd60e06121ed565b90505f6123dc84828501612284565b5f83015250602082013567ffffffffffffffff8111156123ff576123fe61223a565b5b61240b8482850161231b565b602083015250604082013567ffffffffffffffff81111561242f5761242e61223a565b5b61243b8482850161231b565b604083015250606061244f84828501612367565b606083015250608061246384828501612367565b60808301525060a061247784828501612367565b60a08301525060c061248b8482850161239a565b60c08301525092915050565b5f6124a96124a484612207565b6121ed565b905080838252602082019050602084028301858111156124cc576124cb612232565b5b835b8181101561251357803567ffffffffffffffff8111156124f1576124f061217b565b5b8086016124fe89826123ae565b855260208501945050506020810190506124ce565b5050509392505050565b5f82601f8301126125315761253061217b565b5b8135612541848260208601612497565b91505092915050565b5f80604083850312156125605761255f612173565b5b5f83013567ffffffffffffffff81111561257d5761257c612177565b5b6125898582860161251d565b925050602061259a85828601612367565b9150509250929050565b5f8115159050919050565b6125b8816125a4565b82525050565b5f6020820190506125d15f8301846125af565b92915050565b5f67ffffffffffffffff8211156125f1576125f061218f565b5b602082029050602081019050919050565b5f61261461260f846125d7565b6121ed565b9050808382526020820190506020840283018581111561263757612636612232565b5b835b81811015612660578061264c8882612284565b845260208401935050602081019050612639565b5050509392505050565b5f82601f83011261267e5761267d61217b565b5b813561268e848260208601612602565b91505092915050565b5f80604083850312156126ad576126ac612173565b5b5f83013567ffffffffffffffff8111156126ca576126c9612177565b5b6126d68582860161266a565b92505060206126e785828601612367565b9150509250929050565b5f81519050919050565b5f82825260208201905092915050565b5f819050602082019050919050565b6127238161225d565b82525050565b5f612734838361271a565b60208301905092915050565b5f602082019050919050565b5f612756826126f1565b61276081856126fb565b935061276b8361270b565b805f5b8381101561279b5781516127828882612729565b975061278d83612740565b92505060018101905061276e565b5085935050505092915050565b5f6020820190508181035f8301526127c0818461274c565b905092915050565b5f602082840312156127dd576127dc612173565b5b5f82013567ffffffffffffffff8111156127fa576127f9612177565b5b6128068482850161231b565b91505092915050565b6128188161237b565b82525050565b5f6020820190506128315f83018461280f565b92915050565b5f6020828403121561284c5761284b612173565b5b5f61285984828501612367565b91505092915050565b5f81519050919050565b5f82825260208201905092915050565b5f5b8381101561289957808201518184015260208101905061287e565b5f8484015250505050565b5f6128ae82612862565b6128b8818561286c565b93506128c881856020860161287c565b6128d18161217f565b840191505092915050565b5f6020820190508181035f8301526128f481846128a4565b905092915050565b5f82825260208201905092915050565b5f61291682612862565b61292081856128fc565b935061293081856020860161287c565b6129398161217f565b840191505092915050565b61294d81612348565b82525050565b61295c8161237b565b82525050565b5f60e083015f8301516129775f86018261271a565b506020830151848203602086015261298f828261290c565b915050604083015184820360408601526129a9828261290c565b91505060608301516129be6060860182612944565b5060808301516129d16080860182612944565b5060a08301516129e460a0860182612944565b5060c08301516129f760c0860182612953565b508091505092915050565b5f6020820190508181035f830152612a1a8184612962565b905092915050565b5f8060408385031215612a3857612a37612173565b5b5f83013567ffffffffffffffff811115612a5557612a54612177565b5b612a618582860161231b565b925050602083013567ffffffffffffffff811115612a8257612a81612177565b5b612a8e8582860161231b565b9150509250929050565b612aa18161225d565b82525050565b5f602082019050612aba5f830184612a98565b92915050565b5f81519050919050565b5f82825260208201905092915050565b5f819050602082019050919050565b5f60e083015f830151612afe5f86018261271a565b5060208301518482036020860152612b16828261290c565b91505060408301518482036040860152612b30828261290c565b9150506060830151612b456060860182612944565b506080830151612b586080860182612944565b5060a0830151612b6b60a0860182612944565b5060c0830151612b7e60c0860182612953565b508091505092915050565b5f612b948383612ae9565b905092915050565b5f602082019050919050565b5f612bb282612ac0565b612bbc8185612aca565b935083602082028501612bce85612ada565b805f5b85811015612c095784840389528151612bea8582612b89565b9450612bf583612b9c565b925060208a01995050600181019050612bd1565b50829750879550505050505092915050565b5f6020820190508181035f830152612c338184612ba8565b905092915050565b612c4481612348565b82525050565b5f602082019050612c5d5f830184612c3b565b92915050565b5f60208284031215612c7857612c77612173565b5b5f82013567ffffffffffffffff811115612c9557612c94612177565b5b612ca18482850161251d565b91505092915050565b5f60208284031215612cbf57612cbe612173565b5b5f612ccc84828501612284565b91505092915050565b5f60208284031215612cea57612ce9612173565b5b5f82013567ffffffffffffffff811115612d0757612d06612177565b5b612d138482850161266a565b91505092915050565b5f805f8060808587031215612d3457612d33612173565b5b5f85013567ffffffffffffffff811115612d5157612d50612177565b5b612d5d8782880161231b565b945050602085013567ffffffffffffffff811115612d7e57612d7d612177565b5b612d8a8782880161231b565b9350506040612d9b87828801612367565b9250506060612dac87828801612367565b91505092959194509250565b7f4e487b71000000000000000000000000000000000000000000000000000000005f52603260045260245ffd5b7f4e487b71000000000000000000000000000000000000000000000000000000005f52601160045260245ffd5b5f612e1c82612348565b91507fffffffffffffffffffffffffffffffffffffffffffffffffffffffffffffffff8203612e4e57612e4d612de5565b5b600182019050919050565b5f612e6382612348565b9150612e6e83612348565b9250828203905081811115612e8657612e85612de5565b5b92915050565b5f612e9682612348565b9150612ea183612348565b9250828201905080821115612eb957612eb8612de5565b5b92915050565b5f81905092915050565b5f612ed382612862565b612edd8185612ebf565b9350612eed81856020860161287c565b80840191505092915050565b5f612f048284612ec9565b915081905092915050565b7f4e487b71000000000000000000000000000000000000000000000000000000005f52601260045260245ffd5b5f612f4682612348565b9150612f5183612348565b925082612f6157612f60612f0f565b5b828204905092915050565b5f612f7682612348565b9150612f8183612348565b925082612f9157612f90612f0f565b5b828206905092915050565b7f4e6f2070726f706f73656c7320617661696c6162656c000000000000000000005f82015250565b5f612fd060168361286c565b9150612fdb82612f9c565b602082019050919050565b5f6020820190508181035f830152612ffd81612fc4565b9050919050565b7f4e487b71000000000000000000000000000000000000000000000000000000005f52602260045260245ffd5b5f600282049050600182168061304857607f821691505b60208210810361305b5761305a613004565b5b50919050565b5f819050815f5260205f209050919050565b5f6020601f8301049050919050565b5f82821b905092915050565b5f600883026130bd7fffffffffffffffffffffffffffffffffffffffffffffffffffffffffffffffff82613082565b6130c78683613082565b95508019841693508086168417925050509392505050565b5f819050919050565b5f6131026130fd6130f884612348565b6130df565b612348565b9050919050565b5f819050919050565b61311b836130e8565b61312f61312782613109565b84845461308e565b825550505050565b5f90565b613143613137565b61314e818484613112565b505050565b5b81811015613171576131665f8261313b565b600181019050613154565b5050565b601f8211156131b65761318781613061565b61319084613073565b8101602085101561319f578190505b6131b36131ab85613073565b830182613153565b50505b505050565b5f82821c905092915050565b5f6131d65f19846008026131bb565b1980831691505092915050565b5f6131ee83836131c7565b9150826002028217905092915050565b61320782612862565b67ffffffffffffffff8111156132205761321f61218f565b5b61322a8254613031565b613235828285613175565b5f60209050601f831160018114613266575f8415613254578287015190505b61325e85826131e3565b8655506132c5565b601f19841661327486613061565b5f5b8281101561329b57848901518255600182019150602085019450602081019050613276565b868310156132b857848901516132b4601f8916826131c7565b8355505b6001600288020188555050505b505050505050565b5f815490506132db81613031565b9050919050565b8181036132f05750506133c5565b6132f9826132cd565b67ffffffffffffffff8111156133125761331161218f565b5b61331c8254613031565b613327828285613175565b5f601f831160018114613354575f8415613342578287015490505b61334c85826131e3565b8655506133be565b601f19841661336287613061565b965061336d86613061565b5f5b828110156133945784890154825560018201915060018501945060208101905061336f565b868310156133b157848901546133ad601f8916826131c7565b8355505b6001600288020188555050505b5050505050505b565b7f4e487b71000000000000000000000000000000000000000000000000000000005f52603160045260245ffd5b7f50726f706f73656c20646f6573206e6f742065786973740000000000000000005f82015250565b5f61342860178361286c565b9150613433826133f4565b602082019050919050565b5f6020820190508181035f8301526134558161341c565b9050919050565b5f61346682612348565b91505f820361347857613477612de5565b5b600182039050919050565b5f61348e8287612ec9565b915061349a8286612ec9565b91506134a68285612ec9565b91506134b28284612ec9565b91508190509594505050505056fea264697066735822122034254fe9cfbc9ad55ed849b6a10c3c4bac0e4cd47fdf946059d7ec4c10a9a28f64736f6c63430008150033",
  "immutableReferences": {},
  "source": "// SPDX-License-Identifier: GPL-3.0\r\n\r\npragma solidity >=0.7.0 <0.9.0;\r\n\r\nimport  \"./Interfaces.sol\";\r\nimport \"@openzeppelin/contracts/access/Ownable.sol\";\r\n\r\ncontract ProposelContract is  Ownable,  IProposelContract {\r\n\r\n    address[] keys;\r\n    Proposel[] proposels;\r\n    uint private idCounter;\r\n\r\n    function toString(uint256 value) public pure returns (string memory) {\r\n        if (value == 0) {\r\n            return \"0\";\r\n        }\r\n\r\n        uint256 temp = value;\r\n        uint256 digits;\r\n        while (temp != 0) {\r\n            digits++;\r\n            temp /= 10;\r\n        }\r\n        bytes memory buffer = new bytes(digits);\r\n        while (value != 0) {\r\n            digits -= 1;\r\n            buffer[digits] = bytes1(uint8(48 + uint256(value % 10)));\r\n            value /= 10;\r\n        }\r\n        return string(buffer);\r\n    }\r\n\r\n     function combineElemnets(string memory a, string memory b, uint number1, uint number2) public pure returns (string memory) {\r\n        return string(abi.encodePacked(a, b, toString(number1), toString(number2)));\r\n    }\r\n\r\n    function gethash(string memory str) public pure returns (bytes32) {\r\n        return keccak256(abi.encodePacked(str));\r\n    }\r\n\r\n\r\n    function getIndexInList(Proposel[] memory proposelsList, uint id) public pure returns (uint) {\r\n        for (uint i = 0; i < proposelsList.length; i++) {\r\n            if (proposelsList[i].id == id) {\r\n                return i;\r\n            }\r\n        }\r\n        return 0;\r\n    }\r\n\r\n    function getIndexWithMaxVotes(Proposel[] memory proposelsList) public pure returns (uint) {\r\n        uint maxVotes = 0;\r\n        uint index = 0;\r\n        for (uint i = 0; i < proposelsList.length; i++) {\r\n            if (proposelsList[i].votes > maxVotes) {\r\n                maxVotes = proposelsList[i].votes;\r\n                index = i;\r\n            }\r\n        }\r\n        return index;\r\n    }\r\n\r\n    function checkIndex(Proposel[] memory proposelsList, uint proposelId) public pure returns (bool) {\r\n        for(uint i=0; i<proposelsList.length; i++){\r\n            if(proposelsList[i].id == proposelId){\r\n                return true;\r\n            }\r\n        }\r\n        return false;\r\n    }\r\n\r\n    function pop( address[] memory array) public pure returns (address[] memory){\r\n        address[] memory newArray = new address[](array.length - 1);\r\n        for (uint i = 0; i < array.length - 1; i++) {\r\n            newArray[i] = array[i];\r\n        }\r\n        return newArray;\r\n    }\r\n\r\n    function removeElement(address[] memory array, uint256 index) public pure returns (address[] memory){\r\n        for (uint256 i = index; i < array.length - 1; i++) {\r\n            array[i] = array[i + 1];\r\n        }\r\n        return pop(array);\r\n    }\r\n\r\n\r\n    constructor() Ownable(msg.sender) {\r\n        idCounter = 1;\r\n    }\r\n\r\n    function getNexId() private returns (uint) {\r\n        return idCounter++;\r\n    }\r\n\r\n    modifier proposelIdExists(uint proposelId) {\r\n        require(checkIndex(proposels, proposelId), \"Proposel does not exist\");\r\n        _;\r\n    }\r\n\r\n    modifier atleastOneProposel(){\r\n         require(proposels.length > 0, \"No proposels availabel\");\r\n        _;\r\n    }\r\n\r\n    function increaseVotes(uint proposel_id) public proposelIdExists(proposel_id) {\r\n        uint i = getIndexInList(proposels, proposel_id);\r\n        proposels[i].votes++;  \r\n    }\r\n\r\n    function decreaseVotes(uint proposel_id) public proposelIdExists(proposel_id){\r\n        uint i = getIndexInList(proposels, proposel_id);\r\n        proposels[i].votes--;\r\n    }\r\n\r\n    function removeWinningPropsel() external atleastOneProposel() returns (Proposel memory) {\r\n\r\n        uint index = getIndexWithMaxVotes(proposels);\r\n        Proposel memory removedProposel = proposels[index];\r\n        for (uint256 i = index; i < proposels.length - 1; i++) {\r\n            proposels[i] = proposels[i + 1];\r\n        }\r\n        proposels.pop();\r\n        for (uint i = 0; i < proposels.length; i++) {\r\n            proposels[i].votes = 0;\r\n        }\r\n        return removedProposel;\r\n    }\r\n\r\n    function addProposel(\r\n        string memory name,\r\n        string memory url\r\n    ) public returns (Proposel memory)  {\r\n        uint id = getNexId();\r\n\r\n        // to do verificare daca propunerea exista deja\r\n        Proposel memory newProposel = Proposel({\r\n            name: name,\r\n            url: url,\r\n            timestamp: block.timestamp,\r\n            votes: 0,\r\n            id: id,\r\n            owner: msg.sender,\r\n            uniqueHash: gethash(combineElemnets(name, url, block.timestamp, id))\r\n        });\r\n\r\n        proposels.push(newProposel);\r\n        return newProposel;\r\n    }\r\n    \r\n    function listProposels() public view returns (Proposel[] memory) {\r\n        return proposels;\r\n    }\r\n\r\n\r\n    function getWinningProposel() public atleastOneProposel view returns (Proposel memory) {\r\n        uint index = getIndexWithMaxVotes(proposels);\r\n        return proposels[index];\r\n    }\r\n \r\n}\r\n",
  "sourcePath": "D:\\proiect-blockChain2\\contracts\\ProposelContract.sol",
  "compiler": {
    "name": "solc",
    "version": "0.8.21+commit.d9974bed.Emscripten.clang"
  },
  "schemaVersion": "3.4.16",
  "updatedAt": "2024-05-12T12:57:36.408Z",
  "devdoc": {
    "errors": {
      "OwnableInvalidOwner(address)": [
        {
          "details": "The owner is not a valid owner account. (eg. `address(0)`)"
        }
      ],
      "OwnableUnauthorizedAccount(address)": [
        {
          "details": "The caller account is not authorized to perform an operation."
        }
      ]
    },
    "kind": "dev",
    "methods": {
      "owner()": {
        "details": "Returns the address of the current owner."
      },
      "renounceOwnership()": {
        "details": "Leaves the contract without owner. It will not be possible to call `onlyOwner` functions. Can only be called by the current owner. NOTE: Renouncing ownership will leave the contract without an owner, thereby disabling any functionality that is only available to the owner."
      },
      "transferOwnership(address)": {
        "details": "Transfers ownership of the contract to a new account (`newOwner`). Can only be called by the current owner."
      }
    },
    "version": 1
  },
  "userdoc": {
    "kind": "user",
    "methods": {},
    "version": 1
  }
}