{
  "contractName": "ProposelUtilLibrary",
  "abi": [
    {
      "inputs": [
        {
          "internalType": "uint256",
          "name": "value",
          "type": "uint256"
        }
      ],
      "name": "toString",
      "outputs": [
        {
          "internalType": "string",
          "name": "",
          "type": "string"
        }
      ],
      "stateMutability": "pure",
      "type": "function"
    },
    {
      "inputs": [
        {
          "internalType": "string",
          "name": "a",
          "type": "string"
        },
        {
          "internalType": "string",
          "name": "b",
          "type": "string"
        },
        {
          "internalType": "uint256",
          "name": "number1",
          "type": "uint256"
        },
        {
          "internalType": "uint256",
          "name": "number2",
          "type": "uint256"
        }
      ],
      "name": "combineElemnets",
      "outputs": [
        {
          "internalType": "string",
          "name": "",
          "type": "string"
        }
      ],
      "stateMutability": "pure",
      "type": "function"
    },
    {
      "inputs": [
        {
          "internalType": "string",
          "name": "str",
          "type": "string"
        }
      ],
      "name": "gethash",
      "outputs": [
        {
          "internalType": "bytes32",
          "name": "",
          "type": "bytes32"
        }
      ],
      "stateMutability": "pure",
      "type": "function"
    },
    {
      "inputs": [
        {
          "internalType": "address[]",
          "name": "keys",
          "type": "address[]"
        },
        {
          "internalType": "address",
          "name": "key",
          "type": "address"
        }
      ],
      "name": "getIndex",
      "outputs": [
        {
          "internalType": "uint256",
          "name": "",
          "type": "uint256"
        }
      ],
      "stateMutability": "pure",
      "type": "function"
    },
    {
      "inputs": [
        {
          "components": [
            {
              "internalType": "address",
              "name": "owner",
              "type": "address"
            },
            {
              "internalType": "string",
              "name": "name",
              "type": "string"
            },
            {
              "internalType": "string",
              "name": "url",
              "type": "string"
            },
            {
              "internalType": "uint256",
              "name": "timestamp",
              "type": "uint256"
            },
            {
              "internalType": "uint256",
              "name": "votes",
              "type": "uint256"
            },
            {
              "internalType": "uint256",
              "name": "id",
              "type": "uint256"
            },
            {
              "internalType": "bytes32",
              "name": "uniqueHash",
              "type": "bytes32"
            }
          ],
          "internalType": "struct Proposel[]",
          "name": "proposels",
          "type": "tuple[]"
        },
        {
          "internalType": "uint256",
          "name": "id",
          "type": "uint256"
        }
      ],
      "name": "getIndexInList",
      "outputs": [
        {
          "internalType": "uint256",
          "name": "",
          "type": "uint256"
        }
      ],
      "stateMutability": "pure",
      "type": "function"
    },
    {
      "inputs": [
        {
          "components": [
            {
              "internalType": "address",
              "name": "owner",
              "type": "address"
            },
            {
              "internalType": "string",
              "name": "name",
              "type": "string"
            },
            {
              "internalType": "string",
              "name": "url",
              "type": "string"
            },
            {
              "internalType": "uint256",
              "name": "timestamp",
              "type": "uint256"
            },
            {
              "internalType": "uint256",
              "name": "votes",
              "type": "uint256"
            },
            {
              "internalType": "uint256",
              "name": "id",
              "type": "uint256"
            },
            {
              "internalType": "bytes32",
              "name": "uniqueHash",
              "type": "bytes32"
            }
          ],
          "internalType": "struct Proposel[]",
          "name": "proposels",
          "type": "tuple[]"
        }
      ],
      "name": "getIndexWithMaxVotes",
      "outputs": [
        {
          "internalType": "uint256",
          "name": "",
          "type": "uint256"
        }
      ],
      "stateMutability": "pure",
      "type": "function"
    },
    {
      "inputs": [
        {
          "components": [
            {
              "internalType": "address",
              "name": "owner",
              "type": "address"
            },
            {
              "internalType": "string",
              "name": "name",
              "type": "string"
            },
            {
              "internalType": "string",
              "name": "url",
              "type": "string"
            },
            {
              "internalType": "uint256",
              "name": "timestamp",
              "type": "uint256"
            },
            {
              "internalType": "uint256",
              "name": "votes",
              "type": "uint256"
            },
            {
              "internalType": "uint256",
              "name": "id",
              "type": "uint256"
            },
            {
              "internalType": "bytes32",
              "name": "uniqueHash",
              "type": "bytes32"
            }
          ],
          "internalType": "struct Proposel[]",
          "name": "proposels",
          "type": "tuple[]"
        },
        {
          "internalType": "uint256",
          "name": "proposelId",
          "type": "uint256"
        }
      ],
      "name": "checkIndex",
      "outputs": [
        {
          "internalType": "bool",
          "name": "",
          "type": "bool"
        }
      ],
      "stateMutability": "pure",
      "type": "function"
    },
    {
      "inputs": [
        {
          "internalType": "address[]",
          "name": "array",
          "type": "address[]"
        }
      ],
      "name": "pop",
      "outputs": [
        {
          "internalType": "address[]",
          "name": "",
          "type": "address[]"
        }
      ],
      "stateMutability": "pure",
      "type": "function"
    },
    {
      "inputs": [
        {
          "internalType": "address[]",
          "name": "array",
          "type": "address[]"
        },
        {
          "internalType": "uint256",
          "name": "index",
          "type": "uint256"
        }
      ],
      "name": "removeElement",
      "outputs": [
        {
          "internalType": "address[]",
          "name": "",
          "type": "address[]"
        }
      ],
      "stateMutability": "pure",
      "type": "function"
    }
  ],
  "bytecode": "0x61130e61004e600b8282823980515f1a607314610042577f4e487b71000000000000000000000000000000000000000000000000000000005f525f60045260245ffd5b305f52607381538281f3fe730000000000000000000000000000000000000000301460806040526004361061009b575f3560e01c8063614945381161006f578063614945381461015f5780636900a3ae1461018f578063ebb596ce146101bf578063f3516c62146101ef578063f608ab781461021f5761009b565b80628f863f1461009f5780631c07c87f146100cf5780634cde5371146100ff5780635a8d46251461012f575b5f80fd5b6100b960048036038101906100b49190610b59565b61024f565b6040516100c69190610bc2565b60405180910390f35b6100e960048036038101906100e49190610c9b565b6102aa565b6040516100f69190610bc2565b60405180910390f35b61011960048036038101906101149190610cf5565b61032d565b6040516101269190610bc2565b60405180910390f35b61014960048036038101906101449190610d3c565b6103a7565b6040516101569190610e4d565b60405180910390f35b61017960048036038101906101749190610e6d565b61045c565b6040516101869190610ec3565b60405180910390f35b6101a960048036038101906101a49190610edc565b61048b565b6040516101b69190610f81565b60405180910390f35b6101d960048036038101906101d49190610b59565b6105e4565b6040516101e69190610fbb565b60405180910390f35b61020960048036038101906102049190610fd4565b610640565b6040516102169190610e4d565b60405180910390f35b6102396004803603810190610234919061101b565b610737565b6040516102469190610f81565b60405180910390f35b5f805f90505b835181101561029f5782848281518110610272576102716110b7565b5b602002602001015160a001510361028c57809150506102a4565b808061029790611111565b915050610255565b505f90505b92915050565b5f805f90505b8351811015610322578273ffffffffffffffffffffffffffffffffffffffff168482815181106102e3576102e26110b7565b5b602002602001015173ffffffffffffffffffffffffffffffffffffffff160361030f5780915050610327565b808061031a90611111565b9150506102b0565b505f90505b92915050565b5f805f90505f805b845181101561039c5782858281518110610352576103516110b7565b5b602002602001015160800151111561038957848181518110610377576103766110b7565b5b60200260200101516080015192508091505b808061039490611111565b915050610335565b508092505050919050565b60605f8290505b600184516103bc9190611158565b81101561044a57836001826103d1919061118b565b815181106103e2576103e16110b7565b5b60200260200101518482815181106103fd576103fc6110b7565b5b602002602001019073ffffffffffffffffffffffffffffffffffffffff16908173ffffffffffffffffffffffffffffffffffffffff1681525050808061044290611111565b9150506103ae565b5061045483610640565b905092915050565b5f8160405160200161046e91906111f8565b604051602081830303815290604052805190602001209050919050565b60605f82036104d1576040518060400160405280600181526020017f300000000000000000000000000000000000000000000000000000000000000081525090506105df565b5f8290505f5b5f82146105005780806104e990611111565b915050600a826104f9919061123b565b91506104d7565b5f8167ffffffffffffffff81111561051b5761051a61079e565b5b6040519080825280601f01601f19166020018201604052801561054d5781602001600182028036833780820191505090505b5090505b5f85146105d8576001826105659190611158565b9150600a85610574919061126b565b6030610580919061118b565b60f81b818381518110610596576105956110b7565b5b60200101907effffffffffffffffffffffffffffffffffffffffffffffffffffffffffffff191690815f1a905350600a856105d1919061123b565b9450610551565b8093505050505b919050565b5f805f90505b83518110156106355782848281518110610607576106066110b7565b5b602002602001015160a001510361062257600191505061063a565b808061062d90611111565b9150506105ea565b505f90505b92915050565b60605f600183516106519190611158565b67ffffffffffffffff81111561066a5761066961079e565b5b6040519080825280602002602001820160405280156106985781602001602082028036833780820191505090505b5090505f5b600184516106ab9190611158565b81101561072d578381815181106106c5576106c46110b7565b5b60200260200101518282815181106106e0576106df6110b7565b5b602002602001019073ffffffffffffffffffffffffffffffffffffffff16908173ffffffffffffffffffffffffffffffffffffffff1681525050808061072590611111565b91505061069d565b5080915050919050565b606084846107448561048b565b61074d8561048b565b604051602001610760949392919061129b565b6040516020818303038152906040529050949350505050565b5f604051905090565b5f80fd5b5f80fd5b5f80fd5b5f601f19601f8301169050919050565b7f4e487b71000000000000000000000000000000000000000000000000000000005f52604160045260245ffd5b6107d48261078e565b810181811067ffffffffffffffff821117156107f3576107f261079e565b5b80604052505050565b5f610805610779565b905061081182826107cb565b919050565b5f67ffffffffffffffff8211156108305761082f61079e565b5b602082029050602081019050919050565b5f80fd5b5f80fd5b5f80fd5b5f73ffffffffffffffffffffffffffffffffffffffff82169050919050565b5f6108768261084d565b9050919050565b6108868161086c565b8114610890575f80fd5b50565b5f813590506108a18161087d565b92915050565b5f80fd5b5f67ffffffffffffffff8211156108c5576108c461079e565b5b6108ce8261078e565b9050602081019050919050565b828183375f83830152505050565b5f6108fb6108f6846108ab565b6107fc565b905082815260208101848484011115610917576109166108a7565b5b6109228482856108db565b509392505050565b5f82601f83011261093e5761093d61078a565b5b813561094e8482602086016108e9565b91505092915050565b5f819050919050565b61096981610957565b8114610973575f80fd5b50565b5f8135905061098481610960565b92915050565b5f819050919050565b61099c8161098a565b81146109a6575f80fd5b50565b5f813590506109b781610993565b92915050565b5f60e082840312156109d2576109d1610845565b5b6109dc60e06107fc565b90505f6109eb84828501610893565b5f83015250602082013567ffffffffffffffff811115610a0e57610a0d610849565b5b610a1a8482850161092a565b602083015250604082013567ffffffffffffffff811115610a3e57610a3d610849565b5b610a4a8482850161092a565b6040830152506060610a5e84828501610976565b6060830152506080610a7284828501610976565b60808301525060a0610a8684828501610976565b60a08301525060c0610a9a848285016109a9565b60c08301525092915050565b5f610ab8610ab384610816565b6107fc565b90508083825260208201905060208402830185811115610adb57610ada610841565b5b835b81811015610b2257803567ffffffffffffffff811115610b0057610aff61078a565b5b808601610b0d89826109bd565b85526020850194505050602081019050610add565b5050509392505050565b5f82601f830112610b4057610b3f61078a565b5b8135610b50848260208601610aa6565b91505092915050565b5f8060408385031215610b6f57610b6e610782565b5b5f83013567ffffffffffffffff811115610b8c57610b8b610786565b5b610b9885828601610b2c565b9250506020610ba985828601610976565b9150509250929050565b610bbc81610957565b82525050565b5f602082019050610bd55f830184610bb3565b92915050565b5f67ffffffffffffffff821115610bf557610bf461079e565b5b602082029050602081019050919050565b5f610c18610c1384610bdb565b6107fc565b90508083825260208201905060208402830185811115610c3b57610c3a610841565b5b835b81811015610c645780610c508882610893565b845260208401935050602081019050610c3d565b5050509392505050565b5f82601f830112610c8257610c8161078a565b5b8135610c92848260208601610c06565b91505092915050565b5f8060408385031215610cb157610cb0610782565b5b5f83013567ffffffffffffffff811115610cce57610ccd610786565b5b610cda85828601610c6e565b9250506020610ceb85828601610893565b9150509250929050565b5f60208284031215610d0a57610d09610782565b5b5f82013567ffffffffffffffff811115610d2757610d26610786565b5b610d3384828501610b2c565b91505092915050565b5f8060408385031215610d5257610d51610782565b5b5f83013567ffffffffffffffff811115610d6f57610d6e610786565b5b610d7b85828601610c6e565b9250506020610d8c85828601610976565b9150509250929050565b5f81519050919050565b5f82825260208201905092915050565b5f819050602082019050919050565b610dc88161086c565b82525050565b5f610dd98383610dbf565b60208301905092915050565b5f602082019050919050565b5f610dfb82610d96565b610e058185610da0565b9350610e1083610db0565b805f5b83811015610e40578151610e278882610dce565b9750610e3283610de5565b925050600181019050610e13565b5085935050505092915050565b5f6020820190508181035f830152610e658184610df1565b905092915050565b5f60208284031215610e8257610e81610782565b5b5f82013567ffffffffffffffff811115610e9f57610e9e610786565b5b610eab8482850161092a565b91505092915050565b610ebd8161098a565b82525050565b5f602082019050610ed65f830184610eb4565b92915050565b5f60208284031215610ef157610ef0610782565b5b5f610efe84828501610976565b91505092915050565b5f81519050919050565b5f82825260208201905092915050565b5f5b83811015610f3e578082015181840152602081019050610f23565b5f8484015250505050565b5f610f5382610f07565b610f5d8185610f11565b9350610f6d818560208601610f21565b610f768161078e565b840191505092915050565b5f6020820190508181035f830152610f998184610f49565b905092915050565b5f8115159050919050565b610fb581610fa1565b82525050565b5f602082019050610fce5f830184610fac565b92915050565b5f60208284031215610fe957610fe8610782565b5b5f82013567ffffffffffffffff81111561100657611005610786565b5b61101284828501610c6e565b91505092915050565b5f805f806080858703121561103357611032610782565b5b5f85013567ffffffffffffffff8111156110505761104f610786565b5b61105c8782880161092a565b945050602085013567ffffffffffffffff81111561107d5761107c610786565b5b6110898782880161092a565b935050604061109a87828801610976565b92505060606110ab87828801610976565b91505092959194509250565b7f4e487b71000000000000000000000000000000000000000000000000000000005f52603260045260245ffd5b7f4e487b71000000000000000000000000000000000000000000000000000000005f52601160045260245ffd5b5f61111b82610957565b91507fffffffffffffffffffffffffffffffffffffffffffffffffffffffffffffffff820361114d5761114c6110e4565b5b600182019050919050565b5f61116282610957565b915061116d83610957565b9250828203905081811115611185576111846110e4565b5b92915050565b5f61119582610957565b91506111a083610957565b92508282019050808211156111b8576111b76110e4565b5b92915050565b5f81905092915050565b5f6111d282610f07565b6111dc81856111be565b93506111ec818560208601610f21565b80840191505092915050565b5f61120382846111c8565b915081905092915050565b7f4e487b71000000000000000000000000000000000000000000000000000000005f52601260045260245ffd5b5f61124582610957565b915061125083610957565b9250826112605761125f61120e565b5b828204905092915050565b5f61127582610957565b915061128083610957565b9250826112905761128f61120e565b5b828206905092915050565b5f6112a682876111c8565b91506112b282866111c8565b91506112be82856111c8565b91506112ca82846111c8565b91508190509594505050505056fea2646970667358221220c987ba1db3e7c9b4d2fa4e5c46d80e89756804a28a374b2374d3a6d161cfa4c564736f6c63430008150033",
  "immutableReferences": {},
  "source": "// SPDX-License-Identifier: GPL-3.0\r\n\r\npragma solidity >=0.7.0 <0.9.0;\r\n\r\nlibrary ProposelUtilLibrary {\r\n    \r\n    function toString(uint256 value) public pure returns (string memory) {\r\n        if (value == 0) {\r\n            return \"0\";\r\n        }\r\n\r\n        uint256 temp = value;\r\n        uint256 digits;\r\n        while (temp != 0) {\r\n            digits++;\r\n            temp /= 10;\r\n        }\r\n        bytes memory buffer = new bytes(digits);\r\n        while (value != 0) {\r\n            digits -= 1;\r\n            buffer[digits] = bytes1(uint8(48 + uint256(value % 10)));\r\n            value /= 10;\r\n        }\r\n        return string(buffer);\r\n    }\r\n\r\n     function combineElemnets(string memory a, string memory b, uint number1, uint number2) public pure returns (string memory) {\r\n        return string(abi.encodePacked(a, b, toString(number1), toString(number2)));\r\n    }\r\n\r\n    function gethash(string memory str) public pure returns (bytes32) {\r\n        return keccak256(abi.encodePacked(str));\r\n    }\r\n\r\n    function getIndex(address[] memory keys, address key)public pure returns (uint) {\r\n        for (uint i = 0; i < keys.length; i++) {\r\n            if (keys[i] == key) {\r\n                return i;\r\n            }\r\n        }\r\n        return 0;\r\n    }\r\n\r\n    function getIndexInList(Proposel[] memory proposels, uint id) public pure returns (uint) {\r\n        for (uint i = 0; i < proposels.length; i++) {\r\n            if (proposels[i].id == id) {\r\n                return i;\r\n            }\r\n        }\r\n        return 0;\r\n    }\r\n\r\n    function getIndexWithMaxVotes(Proposel[] memory proposels) public pure returns (uint) {\r\n        uint maxVotes = 0;\r\n        uint index = 0;\r\n        for (uint i = 0; i < proposels.length; i++) {\r\n            if (proposels[i].votes > maxVotes) {\r\n                maxVotes = proposels[i].votes;\r\n                index = i;\r\n            }\r\n        }\r\n        return index;\r\n    }\r\n\r\n    function checkIndex(Proposel[] memory proposels, uint proposelId) public pure returns (bool) {\r\n        for(uint i=0; i<proposels.length; i++){\r\n            if(proposels[i].id == proposelId){\r\n                return true;\r\n            }\r\n        }\r\n        return false;\r\n    }\r\n\r\n    function pop( address[] memory array) public pure returns (address[] memory){\r\n        address[] memory newArray = new address[](array.length - 1);\r\n        for (uint i = 0; i < array.length - 1; i++) {\r\n            newArray[i] = array[i];\r\n        }\r\n        return newArray;\r\n    }\r\n\r\n    function removeElement(address[] memory array, uint256 index) public pure returns (address[] memory){\r\n        for (uint256 i = index; i < array.length - 1; i++) {\r\n            array[i] = array[i + 1];\r\n        }\r\n        return pop(array);\r\n    }\r\n}\r\n\r\nimport  \"./Interfaces.sol\";\r\nimport \"@openzeppelin/contracts/access/Ownable.sol\";\r\n\r\ncontract ProposelContract is  Ownable,  IProposelContract {\r\n\r\n    address[] keys;\r\n    Proposel[] proposels;\r\n    uint private idCounter;\r\n\r\n    constructor() Ownable(msg.sender) {\r\n        idCounter = 1;\r\n    }\r\n\r\n    function getNexId() private returns (uint) {\r\n        return idCounter++;\r\n    }\r\n\r\n    modifier proposelIdExists(uint proposelId) {\r\n        require(ProposelUtilLibrary.checkIndex(proposels, proposelId), \"Proposel does not exist\");\r\n        _;\r\n    }\r\n\r\n    modifier atleastOneProposel(){\r\n         require(proposels.length > 0, \"No proposels availabel\");\r\n        _;\r\n    }\r\n\r\n    function increaseVotes(uint proposel_id) public proposelIdExists(proposel_id) {\r\n        uint i = ProposelUtilLibrary.getIndexInList(proposels, proposel_id);\r\n        proposels[i].votes++;  \r\n    }\r\n\r\n    function decreaseVotes(uint proposel_id) public proposelIdExists(proposel_id){\r\n        uint i = ProposelUtilLibrary.getIndexInList(proposels, proposel_id);\r\n        proposels[i].votes--;\r\n    }\r\n\r\n    function removeWinningPropsel() external atleastOneProposel() returns (Proposel memory) {\r\n\r\n        uint index = ProposelUtilLibrary.getIndexWithMaxVotes(proposels);\r\n        Proposel memory removedProposel = proposels[index];\r\n        for (uint256 i = index; i < proposels.length - 1; i++) {\r\n            proposels[i] = proposels[i + 1];\r\n        }\r\n        proposels.pop();\r\n        for (uint i = 0; i < proposels.length; i++) {\r\n            proposels[i].votes = 0;\r\n        }\r\n        return removedProposel;\r\n    }\r\n\r\n    function addProposel(\r\n        string memory name,\r\n        string memory url\r\n    ) public returns (Proposel memory)  {\r\n        uint id = getNexId();\r\n\r\n        // to do verificare daca propunerea exista deja\r\n        Proposel memory newProposel = Proposel({\r\n            name: name,\r\n            url: url,\r\n            timestamp: block.timestamp,\r\n            votes: 0,\r\n            id: id,\r\n            owner: msg.sender,\r\n            uniqueHash: ProposelUtilLibrary.gethash(ProposelUtilLibrary.combineElemnets(name, url, block.timestamp, id))\r\n        });\r\n\r\n        proposels.push(newProposel);\r\n        return newProposel;\r\n    }\r\n    \r\n    function listProposels() public view returns (Proposel[] memory) {\r\n        return proposels;\r\n    }\r\n\r\n\r\n    function getWinningProposel() public atleastOneProposel view returns (Proposel memory) {\r\n        uint index = ProposelUtilLibrary.getIndexWithMaxVotes(proposels);\r\n        return proposels[index];\r\n    }\r\n \r\n}\r\n",
  "sourcePath": "D:\\proiect-blockChain2\\contracts\\ProposelContract.sol",
  "compiler": {
    "name": "solc",
    "version": "0.8.21+commit.d9974bed.Emscripten.clang"
  },
  "schemaVersion": "3.4.16",
  "updatedAt": "2024-05-12T12:49:50.240Z",
  "devdoc": {
    "kind": "dev",
    "methods": {},
    "version": 1
  },
  "userdoc": {
    "kind": "user",
    "methods": {},
    "version": 1
  }
}