{
  "contractName": "UtilLibrary",
  "abi": [
    {
      "inputs": [
        {
          "internalType": "address[]",
          "name": "keys",
          "type": "address[]"
        },
        {
          "internalType": "address",
          "name": "key",
          "type": "address"
        }
      ],
      "name": "getIndex",
      "outputs": [
        {
          "internalType": "uint256",
          "name": "",
          "type": "uint256"
        }
      ],
      "stateMutability": "pure",
      "type": "function"
    },
    {
      "inputs": [
        {
          "internalType": "address[]",
          "name": "array",
          "type": "address[]"
        }
      ],
      "name": "pop",
      "outputs": [
        {
          "internalType": "address[]",
          "name": "",
          "type": "address[]"
        }
      ],
      "stateMutability": "pure",
      "type": "function"
    },
    {
      "inputs": [
        {
          "internalType": "address[]",
          "name": "array",
          "type": "address[]"
        },
        {
          "internalType": "uint256",
          "name": "index",
          "type": "uint256"
        }
      ],
      "name": "removeElement",
      "outputs": [
        {
          "internalType": "address[]",
          "name": "",
          "type": "address[]"
        }
      ],
      "stateMutability": "pure",
      "type": "function"
    }
  ],
  "bytecode": "0x61083261004e600b8282823980515f1a607314610042577f4e487b71000000000000000000000000000000000000000000000000000000005f525f60045260245ffd5b305f52607381538281f3fe730000000000000000000000000000000000000000301460806040526004361061004a575f3560e01c80631c07c87f1461004e5780635a8d46251461007e578063f3516c62146100ae575b5f80fd5b610068600480360381019061006391906104c8565b6100de565b604051610075919061053a565b60405180910390f35b6100986004803603810190610093919061057d565b610161565b6040516100a5919061068e565b60405180910390f35b6100c860048036038101906100c391906106ae565b610216565b6040516100d5919061068e565b60405180910390f35b5f805f90505b8351811015610156578273ffffffffffffffffffffffffffffffffffffffff16848281518110610117576101166106f5565b5b602002602001015173ffffffffffffffffffffffffffffffffffffffff1603610143578091505061015b565b808061014e9061074f565b9150506100e4565b505f90505b92915050565b60605f8290505b600184516101769190610796565b811015610204578360018261018b91906107c9565b8151811061019c5761019b6106f5565b5b60200260200101518482815181106101b7576101b66106f5565b5b602002602001019073ffffffffffffffffffffffffffffffffffffffff16908173ffffffffffffffffffffffffffffffffffffffff168152505080806101fc9061074f565b915050610168565b5061020e83610216565b905092915050565b60605f600183516102279190610796565b67ffffffffffffffff8111156102405761023f610332565b5b60405190808252806020026020018201604052801561026e5781602001602082028036833780820191505090505b5090505f5b600184516102819190610796565b8110156103035783818151811061029b5761029a6106f5565b5b60200260200101518282815181106102b6576102b56106f5565b5b602002602001019073ffffffffffffffffffffffffffffffffffffffff16908173ffffffffffffffffffffffffffffffffffffffff168152505080806102fb9061074f565b915050610273565b5080915050919050565b5f604051905090565b5f80fd5b5f80fd5b5f80fd5b5f601f19601f8301169050919050565b7f4e487b71000000000000000000000000000000000000000000000000000000005f52604160045260245ffd5b61036882610322565b810181811067ffffffffffffffff8211171561038757610386610332565b5b80604052505050565b5f61039961030d565b90506103a5828261035f565b919050565b5f67ffffffffffffffff8211156103c4576103c3610332565b5b602082029050602081019050919050565b5f80fd5b5f73ffffffffffffffffffffffffffffffffffffffff82169050919050565b5f610402826103d9565b9050919050565b610412816103f8565b811461041c575f80fd5b50565b5f8135905061042d81610409565b92915050565b5f610445610440846103aa565b610390565b90508083825260208201905060208402830185811115610468576104676103d5565b5b835b81811015610491578061047d888261041f565b84526020840193505060208101905061046a565b5050509392505050565b5f82601f8301126104af576104ae61031e565b5b81356104bf848260208601610433565b91505092915050565b5f80604083850312156104de576104dd610316565b5b5f83013567ffffffffffffffff8111156104fb576104fa61031a565b5b6105078582860161049b565b92505060206105188582860161041f565b9150509250929050565b5f819050919050565b61053481610522565b82525050565b5f60208201905061054d5f83018461052b565b92915050565b61055c81610522565b8114610566575f80fd5b50565b5f8135905061057781610553565b92915050565b5f806040838503121561059357610592610316565b5b5f83013567ffffffffffffffff8111156105b0576105af61031a565b5b6105bc8582860161049b565b92505060206105cd85828601610569565b9150509250929050565b5f81519050919050565b5f82825260208201905092915050565b5f819050602082019050919050565b610609816103f8565b82525050565b5f61061a8383610600565b60208301905092915050565b5f602082019050919050565b5f61063c826105d7565b61064681856105e1565b9350610651836105f1565b805f5b83811015610681578151610668888261060f565b975061067383610626565b925050600181019050610654565b5085935050505092915050565b5f6020820190508181035f8301526106a68184610632565b905092915050565b5f602082840312156106c3576106c2610316565b5b5f82013567ffffffffffffffff8111156106e0576106df61031a565b5b6106ec8482850161049b565b91505092915050565b7f4e487b71000000000000000000000000000000000000000000000000000000005f52603260045260245ffd5b7f4e487b71000000000000000000000000000000000000000000000000000000005f52601160045260245ffd5b5f61075982610522565b91507fffffffffffffffffffffffffffffffffffffffffffffffffffffffffffffffff820361078b5761078a610722565b5b600182019050919050565b5f6107a082610522565b91506107ab83610522565b92508282039050818111156107c3576107c2610722565b5b92915050565b5f6107d382610522565b91506107de83610522565b92508282019050808211156107f6576107f5610722565b5b9291505056fea26469706673582212206d3954b9ca3856294bf2e68ff9eb6a0dae63db11563ab3fc83a5582fc022998964736f6c63430008150033",
  "immutableReferences": {},
  "source": "// SPDX-License-Identifier: GPL-3.0\r\npragma solidity >=0.7.0 <0.9.0;\r\n\r\nlibrary UtilLibrary {\r\n    \r\n    function getIndex(address[] memory keys, address key)public pure returns (uint) {\r\n        for (uint i = 0; i < keys.length; i++) {\r\n            if (keys[i] == key) {\r\n                return i;\r\n            }\r\n        }\r\n        return 0;\r\n    }\r\n\r\n    function pop( address[] memory array) public pure returns (address[] memory){\r\n        address[] memory newArray = new address[](array.length - 1);\r\n        for (uint i = 0; i < array.length - 1; i++) {\r\n            newArray[i] = array[i];\r\n        }\r\n        return newArray;\r\n    }\r\n\r\n    function removeElement(address[] memory array, uint256 index) public pure returns (address[] memory){\r\n        for (uint256 i = index; i < array.length - 1; i++) {\r\n            array[i] = array[i + 1];\r\n        }\r\n        return pop(array);\r\n    }\r\n}\r\n\r\ncontract LibraryAudianceEngagementTool {\r\n    \r\n}",
  "sourcePath": "D:\\proiect-blockChain2\\contracts\\LibraryAudianceEngagementTool.sol",
  "compiler": {
    "name": "solc",
    "version": "0.8.21+commit.d9974bed.Emscripten.clang"
  },
  "schemaVersion": "3.4.16",
  "updatedAt": "2024-05-12T12:57:36.397Z",
  "devdoc": {
    "kind": "dev",
    "methods": {},
    "version": 1
  },
  "userdoc": {
    "kind": "user",
    "methods": {},
    "version": 1
  }
}