{
	"data": {
		"bytecode": {
			"linkReferences": {
				"contracts/final/LibraryAudianceEngagementTool.sol": {
					"UtilLibrary": [
						{
							"length": 20,
							"start": 3661
						},
						{
							"length": 20,
							"start": 3689
						}
					]
				}
			},
			"object": "608060405234801561000f575f80fd5b50604051613186380380613186833981810160405281019061003191906102d0565b335f73ffffffffffffffffffffffffffffffffffffffff168173ffffffffffffffffffffffffffffffffffffffff16036100a2575f6040517f1e4fbdf7000000000000000000000000000000000000000000000000000000008152600401610099919061030a565b60405180910390fd5b6100b1816101b160201b60201c565b5073694aa1769357215de4fac081bf1f309adc325306600e5f6101000a81548173ffffffffffffffffffffffffffffffffffffffff021916908373ffffffffffffffffffffffffffffffffffffffff16021790555080600c5f6101000a81548173ffffffffffffffffffffffffffffffffffffffff021916908373ffffffffffffffffffffffffffffffffffffffff1602179055504260038190555061012c60035461015d9190610359565b6004819055506001600f8190555033600d5f6101000a81548173ffffffffffffffffffffffffffffffffffffffff021916908373ffffffffffffffffffffffffffffffffffffffff1602179055505061038c565b5f805f9054906101000a900473ffffffffffffffffffffffffffffffffffffffff169050815f806101000a81548173ffffffffffffffffffffffffffffffffffffffff021916908373ffffffffffffffffffffffffffffffffffffffff1602179055508173ffffffffffffffffffffffffffffffffffffffff168173ffffffffffffffffffffffffffffffffffffffff167f8be0079c531659141344cd1fd0a4f28419497f9722a3daafe3b4186f6b6457e060405160405180910390a35050565b5f80fd5b5f73ffffffffffffffffffffffffffffffffffffffff82169050919050565b5f61029f82610276565b9050919050565b6102af81610295565b81146102b9575f80fd5b50565b5f815190506102ca816102a6565b92915050565b5f602082840312156102e5576102e4610272565b5b5f6102f2848285016102bc565b91505092915050565b61030481610295565b82525050565b5f60208201905061031d5f8301846102fb565b92915050565b5f819050919050565b7f4e487b71000000000000000000000000000000000000000000000000000000005f52601160045260245ffd5b5f61036382610323565b915061036e83610323565b92508282019050808211156103865761038561032c565b5b92915050565b612ded806103995f395ff3fe608060405260043610610108575f3560e01c806376f90e8e11610094578063944c1d9711610063578063944c1d97146102ea57806394964edf14610300578063ced72f871461032a578063f2fde38b14610354578063ffeb78b71461037c57610108565b806376f90e8e1461023c5780638da5cb5b146102665780638e15f4731461029057806390ab1d8e146102ba57610108565b80632d5cea8e116100db5780632d5cea8e146101a25780633174b689146101be57806352505453146101d457806369fe0e2d146101fe578063715018a61461022657610108565b80630121b93f1461010c57806306db5c06146101345780630dc9601514610150578063267325491461017a575b5f80fd5b348015610117575f80fd5b50610132600480360381019061012d9190611811565b6103a6565b005b61014e6004803603810190610149919061189d565b6105ce565b005b34801561015b575f80fd5b506101646107c8565b6040516101719190611a02565b60405180910390f35b348015610185575f80fd5b506101a0600480360381019061019b9190611a4c565b610853565b005b6101bc60048036038101906101b79190611a4c565b61089e565b005b3480156101c9575f80fd5b506101d26108e5565b005b3480156101df575f80fd5b506101e8610bf8565b6040516101f59190611ab3565b60405180910390f35b348015610209575f80fd5b50610224600480360381019061021f9190611811565b610c1e565b005b348015610231575f80fd5b5061023a610c30565b005b348015610247575f80fd5b50610250610c43565b60405161025d9190611bf4565b60405180910390f35b348015610271575f80fd5b5061027a610df9565b6040516102879190611c23565b60405180910390f35b34801561029b575f80fd5b506102a4610e20565b6040516102b19190611c4b565b60405180910390f35b3480156102c5575f80fd5b506102ce610ecc565b6040516102e19796959493929190611cbb565b60405180910390f35b3480156102f5575f80fd5b506102fe611026565b005b34801561030b575f80fd5b506103146112eb565b6040516103219190611e91565b60405180910390f35b348015610335575f80fd5b5061033e611383565b60405161034b9190611c4b565b60405180910390f35b34801561035f575f80fd5b5061037a60048036038101906103759190611a4c565b61138c565b005b348015610387575f80fd5b50610390611410565b60405161039d9190611bf4565b60405180910390f35b60045442106103ea576040517f08c379a00000000000000000000000000000000000000000000000000000000081526004016103e190611efb565b60405180910390fd5b5f60015f3373ffffffffffffffffffffffffffffffffffffffff1673ffffffffffffffffffffffffffffffffffffffff1681526020019081526020015f205414610469576040517f08c379a000000000000000000000000000000000000000000000000000000000815260040161046090611f63565b60405180910390fd5b8060015f3373ffffffffffffffffffffffffffffffffffffffff1673ffffffffffffffffffffffffffffffffffffffff1681526020019081526020015f2081905550600233908060018154018082558091505060019003905f5260205f20015f9091909190916101000a81548173ffffffffffffffffffffffffffffffffffffffff021916908373ffffffffffffffffffffffffffffffffffffffff160217905550600c5f9054906101000a900473ffffffffffffffffffffffffffffffffffffffff1673ffffffffffffffffffffffffffffffffffffffff1663ef46a75d826040518263ffffffff1660e01b81526004016105659190611c4b565b5f604051808303815f87803b15801561057c575f80fd5b505af115801561058e573d5f803e3d5ffd5b505050507fd0e6c39f2e086dc49f1524b47725526a56945cd1ff661f37976f1725a1e5698633826040516105c3929190611f81565b60405180910390a150565b600f54803373ffffffffffffffffffffffffffffffffffffffff16311161062a576040517f08c379a000000000000000000000000000000000000000000000000000000000815260040161062190611ff2565b60405180910390fd5b600f54341461066e576040517f08c379a00000000000000000000000000000000000000000000000000000000081526004016106659061205a565b60405180910390fd5b5f600c5f9054906101000a900473ffffffffffffffffffffffffffffffffffffffff1673ffffffffffffffffffffffffffffffffffffffff16636f7789a1878787876040518563ffffffff1660e01b81526004016106cf94939291906120b2565b5f604051808303815f875af11580156106ea573d5f803e3d5ffd5b505050506040513d5f823e3d601f19601f820116820180604052508101906107129190612348565b9050600d5f9054906101000a900473ffffffffffffffffffffffffffffffffffffffff1673ffffffffffffffffffffffffffffffffffffffff166108fc3490811502906040515f60405180830381858888f19350505050158015610778573d5f803e3d5ffd5b507f918f010187dacfa7074bf61710aff7a8ba31fcd11aef11d9cf1f8293f1acba6f86868686425f8760a001516040516107b897969594939291906123d1565b60405180910390a1505050505050565b6060600280548060200260200160405190810160405280929190818152602001828054801561084957602002820191905f5260205f20905b815f9054906101000a900473ffffffffffffffffffffffffffffffffffffffff1673ffffffffffffffffffffffffffffffffffffffff1681526020019060010190808311610800575b5050505050905090565b61085b6114ae565b80600c5f6101000a81548173ffffffffffffffffffffffffffffffffffffffff021916908373ffffffffffffffffffffffffffffffffffffffff16021790555050565b8073ffffffffffffffffffffffffffffffffffffffff166108fc3490811502906040515f60405180830381858888f193505050501580156108e1573d5f803e3d5ffd5b5050565b6004544210610929576040517f08c379a000000000000000000000000000000000000000000000000000000000815260040161092090611efb565b60405180910390fd5b5f60015f3373ffffffffffffffffffffffffffffffffffffffff1673ffffffffffffffffffffffffffffffffffffffff1681526020019081526020015f2054036109a8576040517f08c379a000000000000000000000000000000000000000000000000000000000815260040161099f9061247e565b60405180910390fd5b5f60015f3373ffffffffffffffffffffffffffffffffffffffff1673ffffffffffffffffffffffffffffffffffffffff1681526020019081526020015f205490505f60015f3373ffffffffffffffffffffffffffffffffffffffff1673ffffffffffffffffffffffffffffffffffffffff1681526020019081526020015f2081905550600c5f9054906101000a900473ffffffffffffffffffffffffffffffffffffffff1673ffffffffffffffffffffffffffffffffffffffff16639b757a2c826040518263ffffffff1660e01b8152600401610a859190611c4b565b5f604051808303815f87803b158015610a9c575f80fd5b505af1158015610aae573d5f803e3d5ffd5b5050505073__$fcb0696918cf04c85a2a89fbad55c583e7$__635a8d4625600273__$fcb0696918cf04c85a2a89fbad55c583e7$__631c07c87f6002336040518363ffffffff1660e01b8152600401610b089291906125c1565b602060405180830381865af4158015610b23573d5f803e3d5ffd5b505050506040513d601f19601f82011682018060405250810190610b4791906125ef565b6040518363ffffffff1660e01b8152600401610b64929190612629565b5f60405180830381865af4158015610b7e573d5f803e3d5ffd5b505050506040513d5f823e3d601f19601f82011682018060405250810190610ba69190612717565b60029080519060200190610bbb9291906116a4565b507f1e4ba8038df092a6a9cc2400d85e4bcdabae0834fcad0ee391a8dff246ef42543382604051610bed929190611f81565b60405180910390a150565b610c0061172b565b60405180604001604052806003548152602001600454815250905090565b610c266114ae565b80600f8190555050565b610c386114ae565b610c415f611535565b565b610c4b611743565b60056040518060e00160405290815f82015f9054906101000a900473ffffffffffffffffffffffffffffffffffffffff1673ffffffffffffffffffffffffffffffffffffffff1673ffffffffffffffffffffffffffffffffffffffff168152602001600182018054610cbc9061278b565b80601f0160208091040260200160405190810160405280929190818152602001828054610ce89061278b565b8015610d335780601f10610d0a57610100808354040283529160200191610d33565b820191905f5260205f20905b815481529060010190602001808311610d1657829003601f168201915b50505050508152602001600282018054610d4c9061278b565b80601f0160208091040260200160405190810160405280929190818152602001828054610d789061278b565b8015610dc35780601f10610d9a57610100808354040283529160200191610dc3565b820191905f5260205f20905b815481529060010190602001808311610da657829003601f168201915b50505050508152602001600382015481526020016004820154815260200160058201548152602001600682015481525050905090565b5f805f9054906101000a900473ffffffffffffffffffffffffffffffffffffffff16905090565b5f80600e5f9054906101000a900473ffffffffffffffffffffffffffffffffffffffff1673ffffffffffffffffffffffffffffffffffffffff1663feaf968c6040518163ffffffff1660e01b815260040160a060405180830381865afa158015610e8c573d5f803e3d5ffd5b505050506040513d601f19601f82011682018060405250810190610eb0919061282d565b5050509150506305f5e10081610ec691906128fe565b91505090565b6005805f015f9054906101000a900473ffffffffffffffffffffffffffffffffffffffff1690806001018054610f019061278b565b80601f0160208091040260200160405190810160405280929190818152602001828054610f2d9061278b565b8015610f785780601f10610f4f57610100808354040283529160200191610f78565b820191905f5260205f20905b815481529060010190602001808311610f5b57829003601f168201915b505050505090806002018054610f8d9061278b565b80601f0160208091040260200160405190810160405280929190818152602001828054610fb99061278b565b80156110045780601f10610fdb57610100808354040283529160200191611004565b820191905f5260205f20905b815481529060010190602001808311610fe757829003601f168201915b5050505050908060030154908060040154908060050154908060060154905087565b61102e6114ae565b4260038190555061012c600354611045919061292e565b6004819055506110536115f6565b5f600c5f9054906101000a900473ffffffffffffffffffffffffffffffffffffffff1673ffffffffffffffffffffffffffffffffffffffff166394964edf6040518163ffffffff1660e01b81526004015f60405180830381865afa1580156110bd573d5f803e3d5ffd5b505050506040513d5f823e3d601f19601f820116820180604052508101906110e59190612a3f565b5111156112ae57600c5f9054906101000a900473ffffffffffffffffffffffffffffffffffffffff1673ffffffffffffffffffffffffffffffffffffffff16636c9a5fa46040518163ffffffff1660e01b81526004015f60405180830381865afa158015611155573d5f803e3d5ffd5b505050506040513d5f823e3d601f19601f8201168201806040525081019061117d9190612348565b60055f820151815f015f6101000a81548173ffffffffffffffffffffffffffffffffffffffff021916908373ffffffffffffffffffffffffffffffffffffffff16021790555060208201518160010190816111d89190612c1a565b5060408201518160020190816111ee9190612c1a565b50606082015181600301556080820151816004015560a0820151816005015560c08201518160060155905050600c5f9054906101000a900473ffffffffffffffffffffffffffffffffffffffff1673ffffffffffffffffffffffffffffffffffffffff16637cdbf25c6040518163ffffffff1660e01b81526004015f604051808303815f875af1158015611284573d5f803e3d5ffd5b505050506040513d5f823e3d601f19601f820116820180604052508101906112ac9190612348565b505b7feb6c47cd02f1e621f31fb6401e4d5b6d34724fe0dddfc7b4871b7cd1aa424fed60056002016040516112e19190612d6a565b60405180910390a1565b6060600c5f9054906101000a900473ffffffffffffffffffffffffffffffffffffffff1673ffffffffffffffffffffffffffffffffffffffff166394964edf6040518163ffffffff1660e01b81526004015f60405180830381865afa158015611356573d5f803e3d5ffd5b505050506040513d5f823e3d601f19601f8201168201806040525081019061137e9190612a3f565b905090565b5f600f54905090565b6113946114ae565b5f73ffffffffffffffffffffffffffffffffffffffff168173ffffffffffffffffffffffffffffffffffffffff1603611404575f6040517f1e4fbdf70000000000000000000000000000000000000000000000000000000081526004016113fb9190611c23565b60405180910390fd5b61140d81611535565b50565b611418611743565b600c5f9054906101000a900473ffffffffffffffffffffffffffffffffffffffff1673ffffffffffffffffffffffffffffffffffffffff16636c9a5fa46040518163ffffffff1660e01b81526004015f60405180830381865afa158015611481573d5f803e3d5ffd5b505050506040513d5f823e3d601f19601f820116820180604052508101906114a99190612348565b905090565b6114b661169d565b73ffffffffffffffffffffffffffffffffffffffff166114d4610df9565b73ffffffffffffffffffffffffffffffffffffffff1614611533576114f761169d565b6040517f118cdaa700000000000000000000000000000000000000000000000000000000815260040161152a9190611c23565b60405180910390fd5b565b5f805f9054906101000a900473ffffffffffffffffffffffffffffffffffffffff169050815f806101000a81548173ffffffffffffffffffffffffffffffffffffffff021916908373ffffffffffffffffffffffffffffffffffffffff1602179055508173ffffffffffffffffffffffffffffffffffffffff168173ffffffffffffffffffffffffffffffffffffffff167f8be0079c531659141344cd1fd0a4f28419497f9722a3daafe3b4186f6b6457e060405160405180910390a35050565b5f5b60028054905081101561168d5760015f6002838154811061161c5761161b612d8a565b5b905f5260205f20015f9054906101000a900473ffffffffffffffffffffffffffffffffffffffff1673ffffffffffffffffffffffffffffffffffffffff1673ffffffffffffffffffffffffffffffffffffffff1681526020019081526020015f205f905580806001019150506115f8565b5060025f61169b9190611794565b565b5f33905090565b828054828255905f5260205f2090810192821561171a579160200282015b82811115611719578251825f6101000a81548173ffffffffffffffffffffffffffffffffffffffff021916908373ffffffffffffffffffffffffffffffffffffffff160217905550916020019190600101906116c2565b5b50905061172791906117b2565b5090565b60405180604001604052805f81526020015f81525090565b6040518060e001604052805f73ffffffffffffffffffffffffffffffffffffffff16815260200160608152602001606081526020015f81526020015f81526020015f81526020015f80191681525090565b5080545f8255905f5260205f20908101906117af91906117b2565b50565b5b808211156117c9575f815f9055506001016117b3565b5090565b5f604051905090565b5f80fd5b5f80fd5b5f819050919050565b6117f0816117de565b81146117fa575f80fd5b50565b5f8135905061180b816117e7565b92915050565b5f60208284031215611826576118256117d6565b5b5f611833848285016117fd565b91505092915050565b5f80fd5b5f80fd5b5f80fd5b5f8083601f84011261185d5761185c61183c565b5b8235905067ffffffffffffffff81111561187a57611879611840565b5b60208301915083600182028301111561189657611895611844565b5b9250929050565b5f805f80604085870312156118b5576118b46117d6565b5b5f85013567ffffffffffffffff8111156118d2576118d16117da565b5b6118de87828801611848565b9450945050602085013567ffffffffffffffff811115611901576119006117da565b5b61190d87828801611848565b925092505092959194509250565b5f81519050919050565b5f82825260208201905092915050565b5f819050602082019050919050565b5f73ffffffffffffffffffffffffffffffffffffffff82169050919050565b5f61196d82611944565b9050919050565b61197d81611963565b82525050565b5f61198e8383611974565b60208301905092915050565b5f602082019050919050565b5f6119b08261191b565b6119ba8185611925565b93506119c583611935565b805f5b838110156119f55781516119dc8882611983565b97506119e78361199a565b9250506001810190506119c8565b5085935050505092915050565b5f6020820190508181035f830152611a1a81846119a6565b905092915050565b611a2b81611963565b8114611a35575f80fd5b50565b5f81359050611a4681611a22565b92915050565b5f60208284031215611a6157611a606117d6565b5b5f611a6e84828501611a38565b91505092915050565b611a80816117de565b82525050565b604082015f820151611a9a5f850182611a77565b506020820151611aad6020850182611a77565b50505050565b5f604082019050611ac65f830184611a86565b92915050565b5f81519050919050565b5f82825260208201905092915050565b8281835e5f83830152505050565b5f601f19601f8301169050919050565b5f611b0e82611acc565b611b188185611ad6565b9350611b28818560208601611ae6565b611b3181611af4565b840191505092915050565b5f819050919050565b611b4e81611b3c565b82525050565b5f60e083015f830151611b695f860182611974565b5060208301518482036020860152611b818282611b04565b91505060408301518482036040860152611b9b8282611b04565b9150506060830151611bb06060860182611a77565b506080830151611bc36080860182611a77565b5060a0830151611bd660a0860182611a77565b5060c0830151611be960c0860182611b45565b508091505092915050565b5f6020820190508181035f830152611c0c8184611b54565b905092915050565b611c1d81611963565b82525050565b5f602082019050611c365f830184611c14565b92915050565b611c45816117de565b82525050565b5f602082019050611c5e5f830184611c3c565b92915050565b5f82825260208201905092915050565b5f611c7e82611acc565b611c888185611c64565b9350611c98818560208601611ae6565b611ca181611af4565b840191505092915050565b611cb581611b3c565b82525050565b5f60e082019050611cce5f83018a611c14565b8181036020830152611ce08189611c74565b90508181036040830152611cf48188611c74565b9050611d036060830187611c3c565b611d106080830186611c3c565b611d1d60a0830185611c3c565b611d2a60c0830184611cac565b98975050505050505050565b5f81519050919050565b5f82825260208201905092915050565b5f819050602082019050919050565b5f60e083015f830151611d745f860182611974565b5060208301518482036020860152611d8c8282611b04565b91505060408301518482036040860152611da68282611b04565b9150506060830151611dbb6060860182611a77565b506080830151611dce6080860182611a77565b5060a0830151611de160a0860182611a77565b5060c0830151611df460c0860182611b45565b508091505092915050565b5f611e0a8383611d5f565b905092915050565b5f602082019050919050565b5f611e2882611d36565b611e328185611d40565b935083602082028501611e4485611d50565b805f5b85811015611e7f5784840389528151611e608582611dff565b9450611e6b83611e12565b925060208a01995050600181019050611e47565b50829750879550505050505092915050565b5f6020820190508181035f830152611ea98184611e1e565b905092915050565b7f566f74696e6720706572696f642068617320656e6465640000000000000000005f82015250565b5f611ee5601783611c64565b9150611ef082611eb1565b602082019050919050565b5f6020820190508181035f830152611f1281611ed9565b9050919050565b7f596f7520616c726561647920766f7465640000000000000000000000000000005f82015250565b5f611f4d601183611c64565b9150611f5882611f19565b602082019050919050565b5f6020820190508181035f830152611f7a81611f41565b9050919050565b5f604082019050611f945f830185611c14565b611fa16020830184611c3c565b9392505050565b7f496e737566696369656e7420666f756e647321000000000000000000000000005f82015250565b5f611fdc601383611c64565b9150611fe782611fa8565b602082019050919050565b5f6020820190508181035f83015261200981611fd0565b9050919050565b7f496e76616c6964206665652076616c75650000000000000000000000000000005f82015250565b5f612044601183611c64565b915061204f82612010565b602082019050919050565b5f6020820190508181035f83015261207181612038565b9050919050565b828183375f83830152505050565b5f6120918385611c64565b935061209e838584612078565b6120a783611af4565b840190509392505050565b5f6040820190508181035f8301526120cb818688612086565b905081810360208301526120e0818486612086565b905095945050505050565b5f80fd5b7f4e487b71000000000000000000000000000000000000000000000000000000005f52604160045260245ffd5b61212582611af4565b810181811067ffffffffffffffff82111715612144576121436120ef565b5b80604052505050565b5f6121566117cd565b9050612162828261211c565b919050565b5f80fd5b5f8151905061217981611a22565b92915050565b5f80fd5b5f67ffffffffffffffff82111561219d5761219c6120ef565b5b6121a682611af4565b9050602081019050919050565b5f6121c56121c084612183565b61214d565b9050828152602081018484840111156121e1576121e061217f565b5b6121ec848285611ae6565b509392505050565b5f82601f8301126122085761220761183c565b5b81516122188482602086016121b3565b91505092915050565b5f8151905061222f816117e7565b92915050565b61223e81611b3c565b8114612248575f80fd5b50565b5f8151905061225981612235565b92915050565b5f60e08284031215612274576122736120eb565b5b61227e60e061214d565b90505f61228d8482850161216b565b5f83015250602082015167ffffffffffffffff8111156122b0576122af612167565b5b6122bc848285016121f4565b602083015250604082015167ffffffffffffffff8111156122e0576122df612167565b5b6122ec848285016121f4565b604083015250606061230084828501612221565b606083015250608061231484828501612221565b60808301525060a061232884828501612221565b60a08301525060c061233c8482850161224b565b60c08301525092915050565b5f6020828403121561235d5761235c6117d6565b5b5f82015167ffffffffffffffff81111561237a576123796117da565b5b6123868482850161225f565b91505092915050565b5f819050919050565b5f819050919050565b5f6123bb6123b66123b18461238f565b612398565b6117de565b9050919050565b6123cb816123a1565b82525050565b5f60a0820190508181035f8301526123ea81898b612086565b905081810360208301526123ff818789612086565b905061240e6040830186611c3c565b61241b60608301856123c2565b6124286080830184611c3c565b98975050505050505050565b7f596f7520686176656e277420766f7465642079657400000000000000000000005f82015250565b5f612468601583611c64565b915061247382612434565b602082019050919050565b5f6020820190508181035f8301526124958161245c565b9050919050565b5f81549050919050565b5f82825260208201905092915050565b5f819050815f5260205f209050919050565b6124d181611963565b82525050565b5f6124e283836124c8565b60208301905092915050565b5f815f1c9050919050565b5f73ffffffffffffffffffffffffffffffffffffffff82169050919050565b5f61252a612525836124ee565b6124f9565b9050919050565b5f61253c8254612518565b9050919050565b5f600182019050919050565b5f6125598261249c565b61256381856124a6565b935061256e836124b6565b805f5b838110156125a55761258282612531565b61258c88826124d7565b975061259783612543565b925050600181019050612571565b5085935050505092915050565b6125bb81611963565b82525050565b5f6040820190508181035f8301526125d9818561254f565b90506125e860208301846125b2565b9392505050565b5f60208284031215612604576126036117d6565b5b5f61261184828501612221565b91505092915050565b612623816117de565b82525050565b5f6040820190508181035f830152612641818561254f565b9050612650602083018461261a565b9392505050565b5f67ffffffffffffffff821115612671576126706120ef565b5b602082029050602081019050919050565b5f61269461268f84612657565b61214d565b905080838252602082019050602084028301858111156126b7576126b6611844565b5b835b818110156126e057806126cc888261216b565b8452602084019350506020810190506126b9565b5050509392505050565b5f82601f8301126126fe576126fd61183c565b5b815161270e848260208601612682565b91505092915050565b5f6020828403121561272c5761272b6117d6565b5b5f82015167ffffffffffffffff811115612749576127486117da565b5b612755848285016126ea565b91505092915050565b7f4e487b71000000000000000000000000000000000000000000000000000000005f52602260045260245ffd5b5f60028204905060018216806127a257607f821691505b6020821081036127b5576127b461275e565b5b50919050565b5f69ffffffffffffffffffff82169050919050565b6127d9816127bb565b81146127e3575f80fd5b50565b5f815190506127f4816127d0565b92915050565b5f819050919050565b61280c816127fa565b8114612816575f80fd5b50565b5f8151905061282781612803565b92915050565b5f805f805f60a08688031215612846576128456117d6565b5b5f612853888289016127e6565b955050602061286488828901612819565b945050604061287588828901612221565b935050606061288688828901612221565b9250506080612897888289016127e6565b9150509295509295909350565b7f4e487b71000000000000000000000000000000000000000000000000000000005f52601260045260245ffd5b7f4e487b71000000000000000000000000000000000000000000000000000000005f52601160045260245ffd5b5f612908826117de565b9150612913836117de565b925082612923576129226128a4565b5b828204905092915050565b5f612938826117de565b9150612943836117de565b925082820190508082111561295b5761295a6128d1565b5b92915050565b5f67ffffffffffffffff82111561297b5761297a6120ef565b5b602082029050602081019050919050565b5f61299e61299984612961565b61214d565b905080838252602082019050602084028301858111156129c1576129c0611844565b5b835b81811015612a0857805167ffffffffffffffff8111156129e6576129e561183c565b5b8086016129f3898261225f565b855260208501945050506020810190506129c3565b5050509392505050565b5f82601f830112612a2657612a2561183c565b5b8151612a3684826020860161298c565b91505092915050565b5f60208284031215612a5457612a536117d6565b5b5f82015167ffffffffffffffff811115612a7157612a706117da565b5b612a7d84828501612a12565b91505092915050565b5f819050815f5260205f209050919050565b5f6020601f8301049050919050565b5f82821b905092915050565b5f60088302612ae27fffffffffffffffffffffffffffffffffffffffffffffffffffffffffffffffff82612aa7565b612aec8683612aa7565b95508019841693508086168417925050509392505050565b5f612b1e612b19612b14846117de565b612398565b6117de565b9050919050565b5f819050919050565b612b3783612b04565b612b4b612b4382612b25565b848454612ab3565b825550505050565b5f90565b612b5f612b53565b612b6a818484612b2e565b505050565b5b81811015612b8d57612b825f82612b57565b600181019050612b70565b5050565b601f821115612bd257612ba381612a86565b612bac84612a98565b81016020851015612bbb578190505b612bcf612bc785612a98565b830182612b6f565b50505b505050565b5f82821c905092915050565b5f612bf25f1984600802612bd7565b1980831691505092915050565b5f612c0a8383612be3565b9150826002028217905092915050565b612c2382611acc565b67ffffffffffffffff811115612c3c57612c3b6120ef565b5b612c46825461278b565b612c51828285612b91565b5f60209050601f831160018114612c82575f8415612c70578287015190505b612c7a8582612bff565b865550612ce1565b601f198416612c9086612a86565b5f5b82811015612cb757848901518255600182019150602085019450602081019050612c92565b86831015612cd45784890151612cd0601f891682612be3565b8355505b6001600288020188555050505b505050505050565b5f8154612cf58161278b565b612cff8186611c64565b9450600182165f8114612d195760018114612d2f57612d61565b60ff198316865281151560200286019350612d61565b612d3885612a86565b5f5b83811015612d5957815481890152600182019150602081019050612d3a565b808801955050505b50505092915050565b5f6020820190508181035f830152612d828184612ce9565b905092915050565b7f4e487b71000000000000000000000000000000000000000000000000000000005f52603260045260245ffdfea2646970667358221220b33c3b7b3fc0ba3385ea6fee35fcef3fda78ddd64ead5040b91e773cfe046b7464736f6c63430008190033",
			"opcodes": "PUSH1 0x80 PUSH1 0x40 MSTORE CALLVALUE DUP1 ISZERO PUSH2 0xF JUMPI PUSH0 DUP1 REVERT JUMPDEST POP PUSH1 0x40 MLOAD PUSH2 0x3186 CODESIZE SUB DUP1 PUSH2 0x3186 DUP4 CODECOPY DUP2 DUP2 ADD PUSH1 0x40 MSTORE DUP2 ADD SWAP1 PUSH2 0x31 SWAP2 SWAP1 PUSH2 0x2D0 JUMP JUMPDEST CALLER PUSH0 PUSH20 0xFFFFFFFFFFFFFFFFFFFFFFFFFFFFFFFFFFFFFFFF AND DUP2 PUSH20 0xFFFFFFFFFFFFFFFFFFFFFFFFFFFFFFFFFFFFFFFF AND SUB PUSH2 0xA2 JUMPI PUSH0 PUSH1 0x40 MLOAD PUSH32 0x1E4FBDF700000000000000000000000000000000000000000000000000000000 DUP2 MSTORE PUSH1 0x4 ADD PUSH2 0x99 SWAP2 SWAP1 PUSH2 0x30A JUMP JUMPDEST PUSH1 0x40 MLOAD DUP1 SWAP2 SUB SWAP1 REVERT JUMPDEST PUSH2 0xB1 DUP2 PUSH2 0x1B1 PUSH1 0x20 SHL PUSH1 0x20 SHR JUMP JUMPDEST POP PUSH20 0x694AA1769357215DE4FAC081BF1F309ADC325306 PUSH1 0xE PUSH0 PUSH2 0x100 EXP DUP2 SLOAD DUP2 PUSH20 0xFFFFFFFFFFFFFFFFFFFFFFFFFFFFFFFFFFFFFFFF MUL NOT AND SWAP1 DUP4 PUSH20 0xFFFFFFFFFFFFFFFFFFFFFFFFFFFFFFFFFFFFFFFF AND MUL OR SWAP1 SSTORE POP DUP1 PUSH1 0xC PUSH0 PUSH2 0x100 EXP DUP2 SLOAD DUP2 PUSH20 0xFFFFFFFFFFFFFFFFFFFFFFFFFFFFFFFFFFFFFFFF MUL NOT AND SWAP1 DUP4 PUSH20 0xFFFFFFFFFFFFFFFFFFFFFFFFFFFFFFFFFFFFFFFF AND MUL OR SWAP1 SSTORE POP TIMESTAMP PUSH1 0x3 DUP2 SWAP1 SSTORE POP PUSH2 0x12C PUSH1 0x3 SLOAD PUSH2 0x15D SWAP2 SWAP1 PUSH2 0x359 JUMP JUMPDEST PUSH1 0x4 DUP2 SWAP1 SSTORE POP PUSH1 0x1 PUSH1 0xF DUP2 SWAP1 SSTORE POP CALLER PUSH1 0xD PUSH0 PUSH2 0x100 EXP DUP2 SLOAD DUP2 PUSH20 0xFFFFFFFFFFFFFFFFFFFFFFFFFFFFFFFFFFFFFFFF MUL NOT AND SWAP1 DUP4 PUSH20 0xFFFFFFFFFFFFFFFFFFFFFFFFFFFFFFFFFFFFFFFF AND MUL OR SWAP1 SSTORE POP POP PUSH2 0x38C JUMP JUMPDEST PUSH0 DUP1 PUSH0 SWAP1 SLOAD SWAP1 PUSH2 0x100 EXP SWAP1 DIV PUSH20 0xFFFFFFFFFFFFFFFFFFFFFFFFFFFFFFFFFFFFFFFF AND SWAP1 POP DUP2 PUSH0 DUP1 PUSH2 0x100 EXP DUP2 SLOAD DUP2 PUSH20 0xFFFFFFFFFFFFFFFFFFFFFFFFFFFFFFFFFFFFFFFF MUL NOT AND SWAP1 DUP4 PUSH20 0xFFFFFFFFFFFFFFFFFFFFFFFFFFFFFFFFFFFFFFFF AND MUL OR SWAP1 SSTORE POP DUP2 PUSH20 0xFFFFFFFFFFFFFFFFFFFFFFFFFFFFFFFFFFFFFFFF AND DUP2 PUSH20 0xFFFFFFFFFFFFFFFFFFFFFFFFFFFFFFFFFFFFFFFF AND PUSH32 0x8BE0079C531659141344CD1FD0A4F28419497F9722A3DAAFE3B4186F6B6457E0 PUSH1 0x40 MLOAD PUSH1 0x40 MLOAD DUP1 SWAP2 SUB SWAP1 LOG3 POP POP JUMP JUMPDEST PUSH0 DUP1 REVERT JUMPDEST PUSH0 PUSH20 0xFFFFFFFFFFFFFFFFFFFFFFFFFFFFFFFFFFFFFFFF DUP3 AND SWAP1 POP SWAP2 SWAP1 POP JUMP JUMPDEST PUSH0 PUSH2 0x29F DUP3 PUSH2 0x276 JUMP JUMPDEST SWAP1 POP SWAP2 SWAP1 POP JUMP JUMPDEST PUSH2 0x2AF DUP2 PUSH2 0x295 JUMP JUMPDEST DUP2 EQ PUSH2 0x2B9 JUMPI PUSH0 DUP1 REVERT JUMPDEST POP JUMP JUMPDEST PUSH0 DUP2 MLOAD SWAP1 POP PUSH2 0x2CA DUP2 PUSH2 0x2A6 JUMP JUMPDEST SWAP3 SWAP2 POP POP JUMP JUMPDEST PUSH0 PUSH1 0x20 DUP3 DUP5 SUB SLT ISZERO PUSH2 0x2E5 JUMPI PUSH2 0x2E4 PUSH2 0x272 JUMP JUMPDEST JUMPDEST PUSH0 PUSH2 0x2F2 DUP5 DUP3 DUP6 ADD PUSH2 0x2BC JUMP JUMPDEST SWAP2 POP POP SWAP3 SWAP2 POP POP JUMP JUMPDEST PUSH2 0x304 DUP2 PUSH2 0x295 JUMP JUMPDEST DUP3 MSTORE POP POP JUMP JUMPDEST PUSH0 PUSH1 0x20 DUP3 ADD SWAP1 POP PUSH2 0x31D PUSH0 DUP4 ADD DUP5 PUSH2 0x2FB JUMP JUMPDEST SWAP3 SWAP2 POP POP JUMP JUMPDEST PUSH0 DUP2 SWAP1 POP SWAP2 SWAP1 POP JUMP JUMPDEST PUSH32 0x4E487B7100000000000000000000000000000000000000000000000000000000 PUSH0 MSTORE PUSH1 0x11 PUSH1 0x4 MSTORE PUSH1 0x24 PUSH0 REVERT JUMPDEST PUSH0 PUSH2 0x363 DUP3 PUSH2 0x323 JUMP JUMPDEST SWAP2 POP PUSH2 0x36E DUP4 PUSH2 0x323 JUMP JUMPDEST SWAP3 POP DUP3 DUP3 ADD SWAP1 POP DUP1 DUP3 GT ISZERO PUSH2 0x386 JUMPI PUSH2 0x385 PUSH2 0x32C JUMP JUMPDEST JUMPDEST SWAP3 SWAP2 POP POP JUMP JUMPDEST PUSH2 0x2DED DUP1 PUSH2 0x399 PUSH0 CODECOPY PUSH0 RETURN INVALID PUSH1 0x80 PUSH1 0x40 MSTORE PUSH1 0x4 CALLDATASIZE LT PUSH2 0x108 JUMPI PUSH0 CALLDATALOAD PUSH1 0xE0 SHR DUP1 PUSH4 0x76F90E8E GT PUSH2 0x94 JUMPI DUP1 PUSH4 0x944C1D97 GT PUSH2 0x63 JUMPI DUP1 PUSH4 0x944C1D97 EQ PUSH2 0x2EA JUMPI DUP1 PUSH4 0x94964EDF EQ PUSH2 0x300 JUMPI DUP1 PUSH4 0xCED72F87 EQ PUSH2 0x32A JUMPI DUP1 PUSH4 0xF2FDE38B EQ PUSH2 0x354 JUMPI DUP1 PUSH4 0xFFEB78B7 EQ PUSH2 0x37C JUMPI PUSH2 0x108 JUMP JUMPDEST DUP1 PUSH4 0x76F90E8E EQ PUSH2 0x23C JUMPI DUP1 PUSH4 0x8DA5CB5B EQ PUSH2 0x266 JUMPI DUP1 PUSH4 0x8E15F473 EQ PUSH2 0x290 JUMPI DUP1 PUSH4 0x90AB1D8E EQ PUSH2 0x2BA JUMPI PUSH2 0x108 JUMP JUMPDEST DUP1 PUSH4 0x2D5CEA8E GT PUSH2 0xDB JUMPI DUP1 PUSH4 0x2D5CEA8E EQ PUSH2 0x1A2 JUMPI DUP1 PUSH4 0x3174B689 EQ PUSH2 0x1BE JUMPI DUP1 PUSH4 0x52505453 EQ PUSH2 0x1D4 JUMPI DUP1 PUSH4 0x69FE0E2D EQ PUSH2 0x1FE JUMPI DUP1 PUSH4 0x715018A6 EQ PUSH2 0x226 JUMPI PUSH2 0x108 JUMP JUMPDEST DUP1 PUSH4 0x121B93F EQ PUSH2 0x10C JUMPI DUP1 PUSH4 0x6DB5C06 EQ PUSH2 0x134 JUMPI DUP1 PUSH4 0xDC96015 EQ PUSH2 0x150 JUMPI DUP1 PUSH4 0x26732549 EQ PUSH2 0x17A JUMPI JUMPDEST PUSH0 DUP1 REVERT JUMPDEST CALLVALUE DUP1 ISZERO PUSH2 0x117 JUMPI PUSH0 DUP1 REVERT JUMPDEST POP PUSH2 0x132 PUSH1 0x4 DUP1 CALLDATASIZE SUB DUP2 ADD SWAP1 PUSH2 0x12D SWAP2 SWAP1 PUSH2 0x1811 JUMP JUMPDEST PUSH2 0x3A6 JUMP JUMPDEST STOP JUMPDEST PUSH2 0x14E PUSH1 0x4 DUP1 CALLDATASIZE SUB DUP2 ADD SWAP1 PUSH2 0x149 SWAP2 SWAP1 PUSH2 0x189D JUMP JUMPDEST PUSH2 0x5CE JUMP JUMPDEST STOP JUMPDEST CALLVALUE DUP1 ISZERO PUSH2 0x15B JUMPI PUSH0 DUP1 REVERT JUMPDEST POP PUSH2 0x164 PUSH2 0x7C8 JUMP JUMPDEST PUSH1 0x40 MLOAD PUSH2 0x171 SWAP2 SWAP1 PUSH2 0x1A02 JUMP JUMPDEST PUSH1 0x40 MLOAD DUP1 SWAP2 SUB SWAP1 RETURN JUMPDEST CALLVALUE DUP1 ISZERO PUSH2 0x185 JUMPI PUSH0 DUP1 REVERT JUMPDEST POP PUSH2 0x1A0 PUSH1 0x4 DUP1 CALLDATASIZE SUB DUP2 ADD SWAP1 PUSH2 0x19B SWAP2 SWAP1 PUSH2 0x1A4C JUMP JUMPDEST PUSH2 0x853 JUMP JUMPDEST STOP JUMPDEST PUSH2 0x1BC PUSH1 0x4 DUP1 CALLDATASIZE SUB DUP2 ADD SWAP1 PUSH2 0x1B7 SWAP2 SWAP1 PUSH2 0x1A4C JUMP JUMPDEST PUSH2 0x89E JUMP JUMPDEST STOP JUMPDEST CALLVALUE DUP1 ISZERO PUSH2 0x1C9 JUMPI PUSH0 DUP1 REVERT JUMPDEST POP PUSH2 0x1D2 PUSH2 0x8E5 JUMP JUMPDEST STOP JUMPDEST CALLVALUE DUP1 ISZERO PUSH2 0x1DF JUMPI PUSH0 DUP1 REVERT JUMPDEST POP PUSH2 0x1E8 PUSH2 0xBF8 JUMP JUMPDEST PUSH1 0x40 MLOAD PUSH2 0x1F5 SWAP2 SWAP1 PUSH2 0x1AB3 JUMP JUMPDEST PUSH1 0x40 MLOAD DUP1 SWAP2 SUB SWAP1 RETURN JUMPDEST CALLVALUE DUP1 ISZERO PUSH2 0x209 JUMPI PUSH0 DUP1 REVERT JUMPDEST POP PUSH2 0x224 PUSH1 0x4 DUP1 CALLDATASIZE SUB DUP2 ADD SWAP1 PUSH2 0x21F SWAP2 SWAP1 PUSH2 0x1811 JUMP JUMPDEST PUSH2 0xC1E JUMP JUMPDEST STOP JUMPDEST CALLVALUE DUP1 ISZERO PUSH2 0x231 JUMPI PUSH0 DUP1 REVERT JUMPDEST POP PUSH2 0x23A PUSH2 0xC30 JUMP JUMPDEST STOP JUMPDEST CALLVALUE DUP1 ISZERO PUSH2 0x247 JUMPI PUSH0 DUP1 REVERT JUMPDEST POP PUSH2 0x250 PUSH2 0xC43 JUMP JUMPDEST PUSH1 0x40 MLOAD PUSH2 0x25D SWAP2 SWAP1 PUSH2 0x1BF4 JUMP JUMPDEST PUSH1 0x40 MLOAD DUP1 SWAP2 SUB SWAP1 RETURN JUMPDEST CALLVALUE DUP1 ISZERO PUSH2 0x271 JUMPI PUSH0 DUP1 REVERT JUMPDEST POP PUSH2 0x27A PUSH2 0xDF9 JUMP JUMPDEST PUSH1 0x40 MLOAD PUSH2 0x287 SWAP2 SWAP1 PUSH2 0x1C23 JUMP JUMPDEST PUSH1 0x40 MLOAD DUP1 SWAP2 SUB SWAP1 RETURN JUMPDEST CALLVALUE DUP1 ISZERO PUSH2 0x29B JUMPI PUSH0 DUP1 REVERT JUMPDEST POP PUSH2 0x2A4 PUSH2 0xE20 JUMP JUMPDEST PUSH1 0x40 MLOAD PUSH2 0x2B1 SWAP2 SWAP1 PUSH2 0x1C4B JUMP JUMPDEST PUSH1 0x40 MLOAD DUP1 SWAP2 SUB SWAP1 RETURN JUMPDEST CALLVALUE DUP1 ISZERO PUSH2 0x2C5 JUMPI PUSH0 DUP1 REVERT JUMPDEST POP PUSH2 0x2CE PUSH2 0xECC JUMP JUMPDEST PUSH1 0x40 MLOAD PUSH2 0x2E1 SWAP8 SWAP7 SWAP6 SWAP5 SWAP4 SWAP3 SWAP2 SWAP1 PUSH2 0x1CBB JUMP JUMPDEST PUSH1 0x40 MLOAD DUP1 SWAP2 SUB SWAP1 RETURN JUMPDEST CALLVALUE DUP1 ISZERO PUSH2 0x2F5 JUMPI PUSH0 DUP1 REVERT JUMPDEST POP PUSH2 0x2FE PUSH2 0x1026 JUMP JUMPDEST STOP JUMPDEST CALLVALUE DUP1 ISZERO PUSH2 0x30B JUMPI PUSH0 DUP1 REVERT JUMPDEST POP PUSH2 0x314 PUSH2 0x12EB JUMP JUMPDEST PUSH1 0x40 MLOAD PUSH2 0x321 SWAP2 SWAP1 PUSH2 0x1E91 JUMP JUMPDEST PUSH1 0x40 MLOAD DUP1 SWAP2 SUB SWAP1 RETURN JUMPDEST CALLVALUE DUP1 ISZERO PUSH2 0x335 JUMPI PUSH0 DUP1 REVERT JUMPDEST POP PUSH2 0x33E PUSH2 0x1383 JUMP JUMPDEST PUSH1 0x40 MLOAD PUSH2 0x34B SWAP2 SWAP1 PUSH2 0x1C4B JUMP JUMPDEST PUSH1 0x40 MLOAD DUP1 SWAP2 SUB SWAP1 RETURN JUMPDEST CALLVALUE DUP1 ISZERO PUSH2 0x35F JUMPI PUSH0 DUP1 REVERT JUMPDEST POP PUSH2 0x37A PUSH1 0x4 DUP1 CALLDATASIZE SUB DUP2 ADD SWAP1 PUSH2 0x375 SWAP2 SWAP1 PUSH2 0x1A4C JUMP JUMPDEST PUSH2 0x138C JUMP JUMPDEST STOP JUMPDEST CALLVALUE DUP1 ISZERO PUSH2 0x387 JUMPI PUSH0 DUP1 REVERT JUMPDEST POP PUSH2 0x390 PUSH2 0x1410 JUMP JUMPDEST PUSH1 0x40 MLOAD PUSH2 0x39D SWAP2 SWAP1 PUSH2 0x1BF4 JUMP JUMPDEST PUSH1 0x40 MLOAD DUP1 SWAP2 SUB SWAP1 RETURN JUMPDEST PUSH1 0x4 SLOAD TIMESTAMP LT PUSH2 0x3EA JUMPI PUSH1 0x40 MLOAD PUSH32 0x8C379A000000000000000000000000000000000000000000000000000000000 DUP2 MSTORE PUSH1 0x4 ADD PUSH2 0x3E1 SWAP1 PUSH2 0x1EFB JUMP JUMPDEST PUSH1 0x40 MLOAD DUP1 SWAP2 SUB SWAP1 REVERT JUMPDEST PUSH0 PUSH1 0x1 PUSH0 CALLER PUSH20 0xFFFFFFFFFFFFFFFFFFFFFFFFFFFFFFFFFFFFFFFF AND PUSH20 0xFFFFFFFFFFFFFFFFFFFFFFFFFFFFFFFFFFFFFFFF AND DUP2 MSTORE PUSH1 0x20 ADD SWAP1 DUP2 MSTORE PUSH1 0x20 ADD PUSH0 KECCAK256 SLOAD EQ PUSH2 0x469 JUMPI PUSH1 0x40 MLOAD PUSH32 0x8C379A000000000000000000000000000000000000000000000000000000000 DUP2 MSTORE PUSH1 0x4 ADD PUSH2 0x460 SWAP1 PUSH2 0x1F63 JUMP JUMPDEST PUSH1 0x40 MLOAD DUP1 SWAP2 SUB SWAP1 REVERT JUMPDEST DUP1 PUSH1 0x1 PUSH0 CALLER PUSH20 0xFFFFFFFFFFFFFFFFFFFFFFFFFFFFFFFFFFFFFFFF AND PUSH20 0xFFFFFFFFFFFFFFFFFFFFFFFFFFFFFFFFFFFFFFFF AND DUP2 MSTORE PUSH1 0x20 ADD SWAP1 DUP2 MSTORE PUSH1 0x20 ADD PUSH0 KECCAK256 DUP2 SWAP1 SSTORE POP PUSH1 0x2 CALLER SWAP1 DUP1 PUSH1 0x1 DUP2 SLOAD ADD DUP1 DUP3 SSTORE DUP1 SWAP2 POP POP PUSH1 0x1 SWAP1 SUB SWAP1 PUSH0 MSTORE PUSH1 0x20 PUSH0 KECCAK256 ADD PUSH0 SWAP1 SWAP2 SWAP1 SWAP2 SWAP1 SWAP2 PUSH2 0x100 EXP DUP2 SLOAD DUP2 PUSH20 0xFFFFFFFFFFFFFFFFFFFFFFFFFFFFFFFFFFFFFFFF MUL NOT AND SWAP1 DUP4 PUSH20 0xFFFFFFFFFFFFFFFFFFFFFFFFFFFFFFFFFFFFFFFF AND MUL OR SWAP1 SSTORE POP PUSH1 0xC PUSH0 SWAP1 SLOAD SWAP1 PUSH2 0x100 EXP SWAP1 DIV PUSH20 0xFFFFFFFFFFFFFFFFFFFFFFFFFFFFFFFFFFFFFFFF AND PUSH20 0xFFFFFFFFFFFFFFFFFFFFFFFFFFFFFFFFFFFFFFFF AND PUSH4 0xEF46A75D DUP3 PUSH1 0x40 MLOAD DUP3 PUSH4 0xFFFFFFFF AND PUSH1 0xE0 SHL DUP2 MSTORE PUSH1 0x4 ADD PUSH2 0x565 SWAP2 SWAP1 PUSH2 0x1C4B JUMP JUMPDEST PUSH0 PUSH1 0x40 MLOAD DUP1 DUP4 SUB DUP2 PUSH0 DUP8 DUP1 EXTCODESIZE ISZERO DUP1 ISZERO PUSH2 0x57C JUMPI PUSH0 DUP1 REVERT JUMPDEST POP GAS CALL ISZERO DUP1 ISZERO PUSH2 0x58E JUMPI RETURNDATASIZE PUSH0 DUP1 RETURNDATACOPY RETURNDATASIZE PUSH0 REVERT JUMPDEST POP POP POP POP PUSH32 0xD0E6C39F2E086DC49F1524B47725526A56945CD1FF661F37976F1725A1E56986 CALLER DUP3 PUSH1 0x40 MLOAD PUSH2 0x5C3 SWAP3 SWAP2 SWAP1 PUSH2 0x1F81 JUMP JUMPDEST PUSH1 0x40 MLOAD DUP1 SWAP2 SUB SWAP1 LOG1 POP JUMP JUMPDEST PUSH1 0xF SLOAD DUP1 CALLER PUSH20 0xFFFFFFFFFFFFFFFFFFFFFFFFFFFFFFFFFFFFFFFF AND BALANCE GT PUSH2 0x62A JUMPI PUSH1 0x40 MLOAD PUSH32 0x8C379A000000000000000000000000000000000000000000000000000000000 DUP2 MSTORE PUSH1 0x4 ADD PUSH2 0x621 SWAP1 PUSH2 0x1FF2 JUMP JUMPDEST PUSH1 0x40 MLOAD DUP1 SWAP2 SUB SWAP1 REVERT JUMPDEST PUSH1 0xF SLOAD CALLVALUE EQ PUSH2 0x66E JUMPI PUSH1 0x40 MLOAD PUSH32 0x8C379A000000000000000000000000000000000000000000000000000000000 DUP2 MSTORE PUSH1 0x4 ADD PUSH2 0x665 SWAP1 PUSH2 0x205A JUMP JUMPDEST PUSH1 0x40 MLOAD DUP1 SWAP2 SUB SWAP1 REVERT JUMPDEST PUSH0 PUSH1 0xC PUSH0 SWAP1 SLOAD SWAP1 PUSH2 0x100 EXP SWAP1 DIV PUSH20 0xFFFFFFFFFFFFFFFFFFFFFFFFFFFFFFFFFFFFFFFF AND PUSH20 0xFFFFFFFFFFFFFFFFFFFFFFFFFFFFFFFFFFFFFFFF AND PUSH4 0x6F7789A1 DUP8 DUP8 DUP8 DUP8 PUSH1 0x40 MLOAD DUP6 PUSH4 0xFFFFFFFF AND PUSH1 0xE0 SHL DUP2 MSTORE PUSH1 0x4 ADD PUSH2 0x6CF SWAP5 SWAP4 SWAP3 SWAP2 SWAP1 PUSH2 0x20B2 JUMP JUMPDEST PUSH0 PUSH1 0x40 MLOAD DUP1 DUP4 SUB DUP2 PUSH0 DUP8 GAS CALL ISZERO DUP1 ISZERO PUSH2 0x6EA JUMPI RETURNDATASIZE PUSH0 DUP1 RETURNDATACOPY RETURNDATASIZE PUSH0 REVERT JUMPDEST POP POP POP POP PUSH1 0x40 MLOAD RETURNDATASIZE PUSH0 DUP3 RETURNDATACOPY RETURNDATASIZE PUSH1 0x1F NOT PUSH1 0x1F DUP3 ADD AND DUP3 ADD DUP1 PUSH1 0x40 MSTORE POP DUP2 ADD SWAP1 PUSH2 0x712 SWAP2 SWAP1 PUSH2 0x2348 JUMP JUMPDEST SWAP1 POP PUSH1 0xD PUSH0 SWAP1 SLOAD SWAP1 PUSH2 0x100 EXP SWAP1 DIV PUSH20 0xFFFFFFFFFFFFFFFFFFFFFFFFFFFFFFFFFFFFFFFF AND PUSH20 0xFFFFFFFFFFFFFFFFFFFFFFFFFFFFFFFFFFFFFFFF AND PUSH2 0x8FC CALLVALUE SWAP1 DUP2 ISZERO MUL SWAP1 PUSH1 0x40 MLOAD PUSH0 PUSH1 0x40 MLOAD DUP1 DUP4 SUB DUP2 DUP6 DUP9 DUP9 CALL SWAP4 POP POP POP POP ISZERO DUP1 ISZERO PUSH2 0x778 JUMPI RETURNDATASIZE PUSH0 DUP1 RETURNDATACOPY RETURNDATASIZE PUSH0 REVERT JUMPDEST POP PUSH32 0x918F010187DACFA7074BF61710AFF7A8BA31FCD11AEF11D9CF1F8293F1ACBA6F DUP7 DUP7 DUP7 DUP7 TIMESTAMP PUSH0 DUP8 PUSH1 0xA0 ADD MLOAD PUSH1 0x40 MLOAD PUSH2 0x7B8 SWAP8 SWAP7 SWAP6 SWAP5 SWAP4 SWAP3 SWAP2 SWAP1 PUSH2 0x23D1 JUMP JUMPDEST PUSH1 0x40 MLOAD DUP1 SWAP2 SUB SWAP1 LOG1 POP POP POP POP POP POP JUMP JUMPDEST PUSH1 0x60 PUSH1 0x2 DUP1 SLOAD DUP1 PUSH1 0x20 MUL PUSH1 0x20 ADD PUSH1 0x40 MLOAD SWAP1 DUP2 ADD PUSH1 0x40 MSTORE DUP1 SWAP3 SWAP2 SWAP1 DUP2 DUP2 MSTORE PUSH1 0x20 ADD DUP3 DUP1 SLOAD DUP1 ISZERO PUSH2 0x849 JUMPI PUSH1 0x20 MUL DUP3 ADD SWAP2 SWAP1 PUSH0 MSTORE PUSH1 0x20 PUSH0 KECCAK256 SWAP1 JUMPDEST DUP2 PUSH0 SWAP1 SLOAD SWAP1 PUSH2 0x100 EXP SWAP1 DIV PUSH20 0xFFFFFFFFFFFFFFFFFFFFFFFFFFFFFFFFFFFFFFFF AND PUSH20 0xFFFFFFFFFFFFFFFFFFFFFFFFFFFFFFFFFFFFFFFF AND DUP2 MSTORE PUSH1 0x20 ADD SWAP1 PUSH1 0x1 ADD SWAP1 DUP1 DUP4 GT PUSH2 0x800 JUMPI JUMPDEST POP POP POP POP POP SWAP1 POP SWAP1 JUMP JUMPDEST PUSH2 0x85B PUSH2 0x14AE JUMP JUMPDEST DUP1 PUSH1 0xC PUSH0 PUSH2 0x100 EXP DUP2 SLOAD DUP2 PUSH20 0xFFFFFFFFFFFFFFFFFFFFFFFFFFFFFFFFFFFFFFFF MUL NOT AND SWAP1 DUP4 PUSH20 0xFFFFFFFFFFFFFFFFFFFFFFFFFFFFFFFFFFFFFFFF AND MUL OR SWAP1 SSTORE POP POP JUMP JUMPDEST DUP1 PUSH20 0xFFFFFFFFFFFFFFFFFFFFFFFFFFFFFFFFFFFFFFFF AND PUSH2 0x8FC CALLVALUE SWAP1 DUP2 ISZERO MUL SWAP1 PUSH1 0x40 MLOAD PUSH0 PUSH1 0x40 MLOAD DUP1 DUP4 SUB DUP2 DUP6 DUP9 DUP9 CALL SWAP4 POP POP POP POP ISZERO DUP1 ISZERO PUSH2 0x8E1 JUMPI RETURNDATASIZE PUSH0 DUP1 RETURNDATACOPY RETURNDATASIZE PUSH0 REVERT JUMPDEST POP POP JUMP JUMPDEST PUSH1 0x4 SLOAD TIMESTAMP LT PUSH2 0x929 JUMPI PUSH1 0x40 MLOAD PUSH32 0x8C379A000000000000000000000000000000000000000000000000000000000 DUP2 MSTORE PUSH1 0x4 ADD PUSH2 0x920 SWAP1 PUSH2 0x1EFB JUMP JUMPDEST PUSH1 0x40 MLOAD DUP1 SWAP2 SUB SWAP1 REVERT JUMPDEST PUSH0 PUSH1 0x1 PUSH0 CALLER PUSH20 0xFFFFFFFFFFFFFFFFFFFFFFFFFFFFFFFFFFFFFFFF AND PUSH20 0xFFFFFFFFFFFFFFFFFFFFFFFFFFFFFFFFFFFFFFFF AND DUP2 MSTORE PUSH1 0x20 ADD SWAP1 DUP2 MSTORE PUSH1 0x20 ADD PUSH0 KECCAK256 SLOAD SUB PUSH2 0x9A8 JUMPI PUSH1 0x40 MLOAD PUSH32 0x8C379A000000000000000000000000000000000000000000000000000000000 DUP2 MSTORE PUSH1 0x4 ADD PUSH2 0x99F SWAP1 PUSH2 0x247E JUMP JUMPDEST PUSH1 0x40 MLOAD DUP1 SWAP2 SUB SWAP1 REVERT JUMPDEST PUSH0 PUSH1 0x1 PUSH0 CALLER PUSH20 0xFFFFFFFFFFFFFFFFFFFFFFFFFFFFFFFFFFFFFFFF AND PUSH20 0xFFFFFFFFFFFFFFFFFFFFFFFFFFFFFFFFFFFFFFFF AND DUP2 MSTORE PUSH1 0x20 ADD SWAP1 DUP2 MSTORE PUSH1 0x20 ADD PUSH0 KECCAK256 SLOAD SWAP1 POP PUSH0 PUSH1 0x1 PUSH0 CALLER PUSH20 0xFFFFFFFFFFFFFFFFFFFFFFFFFFFFFFFFFFFFFFFF AND PUSH20 0xFFFFFFFFFFFFFFFFFFFFFFFFFFFFFFFFFFFFFFFF AND DUP2 MSTORE PUSH1 0x20 ADD SWAP1 DUP2 MSTORE PUSH1 0x20 ADD PUSH0 KECCAK256 DUP2 SWAP1 SSTORE POP PUSH1 0xC PUSH0 SWAP1 SLOAD SWAP1 PUSH2 0x100 EXP SWAP1 DIV PUSH20 0xFFFFFFFFFFFFFFFFFFFFFFFFFFFFFFFFFFFFFFFF AND PUSH20 0xFFFFFFFFFFFFFFFFFFFFFFFFFFFFFFFFFFFFFFFF AND PUSH4 0x9B757A2C DUP3 PUSH1 0x40 MLOAD DUP3 PUSH4 0xFFFFFFFF AND PUSH1 0xE0 SHL DUP2 MSTORE PUSH1 0x4 ADD PUSH2 0xA85 SWAP2 SWAP1 PUSH2 0x1C4B JUMP JUMPDEST PUSH0 PUSH1 0x40 MLOAD DUP1 DUP4 SUB DUP2 PUSH0 DUP8 DUP1 EXTCODESIZE ISZERO DUP1 ISZERO PUSH2 0xA9C JUMPI PUSH0 DUP1 REVERT JUMPDEST POP GAS CALL ISZERO DUP1 ISZERO PUSH2 0xAAE JUMPI RETURNDATASIZE PUSH0 DUP1 RETURNDATACOPY RETURNDATASIZE PUSH0 REVERT JUMPDEST POP POP POP POP PUSH20 0x0 PUSH4 0x5A8D4625 PUSH1 0x2 PUSH20 0x0 PUSH4 0x1C07C87F PUSH1 0x2 CALLER PUSH1 0x40 MLOAD DUP4 PUSH4 0xFFFFFFFF AND PUSH1 0xE0 SHL DUP2 MSTORE PUSH1 0x4 ADD PUSH2 0xB08 SWAP3 SWAP2 SWAP1 PUSH2 0x25C1 JUMP JUMPDEST PUSH1 0x20 PUSH1 0x40 MLOAD DUP1 DUP4 SUB DUP2 DUP7 GAS DELEGATECALL ISZERO DUP1 ISZERO PUSH2 0xB23 JUMPI RETURNDATASIZE PUSH0 DUP1 RETURNDATACOPY RETURNDATASIZE PUSH0 REVERT JUMPDEST POP POP POP POP PUSH1 0x40 MLOAD RETURNDATASIZE PUSH1 0x1F NOT PUSH1 0x1F DUP3 ADD AND DUP3 ADD DUP1 PUSH1 0x40 MSTORE POP DUP2 ADD SWAP1 PUSH2 0xB47 SWAP2 SWAP1 PUSH2 0x25EF JUMP JUMPDEST PUSH1 0x40 MLOAD DUP4 PUSH4 0xFFFFFFFF AND PUSH1 0xE0 SHL DUP2 MSTORE PUSH1 0x4 ADD PUSH2 0xB64 SWAP3 SWAP2 SWAP1 PUSH2 0x2629 JUMP JUMPDEST PUSH0 PUSH1 0x40 MLOAD DUP1 DUP4 SUB DUP2 DUP7 GAS DELEGATECALL ISZERO DUP1 ISZERO PUSH2 0xB7E JUMPI RETURNDATASIZE PUSH0 DUP1 RETURNDATACOPY RETURNDATASIZE PUSH0 REVERT JUMPDEST POP POP POP POP PUSH1 0x40 MLOAD RETURNDATASIZE PUSH0 DUP3 RETURNDATACOPY RETURNDATASIZE PUSH1 0x1F NOT PUSH1 0x1F DUP3 ADD AND DUP3 ADD DUP1 PUSH1 0x40 MSTORE POP DUP2 ADD SWAP1 PUSH2 0xBA6 SWAP2 SWAP1 PUSH2 0x2717 JUMP JUMPDEST PUSH1 0x2 SWAP1 DUP1 MLOAD SWAP1 PUSH1 0x20 ADD SWAP1 PUSH2 0xBBB SWAP3 SWAP2 SWAP1 PUSH2 0x16A4 JUMP JUMPDEST POP PUSH32 0x1E4BA8038DF092A6A9CC2400D85E4BCDABAE0834FCAD0EE391A8DFF246EF4254 CALLER DUP3 PUSH1 0x40 MLOAD PUSH2 0xBED SWAP3 SWAP2 SWAP1 PUSH2 0x1F81 JUMP JUMPDEST PUSH1 0x40 MLOAD DUP1 SWAP2 SUB SWAP1 LOG1 POP JUMP JUMPDEST PUSH2 0xC00 PUSH2 0x172B JUMP JUMPDEST PUSH1 0x40 MLOAD DUP1 PUSH1 0x40 ADD PUSH1 0x40 MSTORE DUP1 PUSH1 0x3 SLOAD DUP2 MSTORE PUSH1 0x20 ADD PUSH1 0x4 SLOAD DUP2 MSTORE POP SWAP1 POP SWAP1 JUMP JUMPDEST PUSH2 0xC26 PUSH2 0x14AE JUMP JUMPDEST DUP1 PUSH1 0xF DUP2 SWAP1 SSTORE POP POP JUMP JUMPDEST PUSH2 0xC38 PUSH2 0x14AE JUMP JUMPDEST PUSH2 0xC41 PUSH0 PUSH2 0x1535 JUMP JUMPDEST JUMP JUMPDEST PUSH2 0xC4B PUSH2 0x1743 JUMP JUMPDEST PUSH1 0x5 PUSH1 0x40 MLOAD DUP1 PUSH1 0xE0 ADD PUSH1 0x40 MSTORE SWAP1 DUP2 PUSH0 DUP3 ADD PUSH0 SWAP1 SLOAD SWAP1 PUSH2 0x100 EXP SWAP1 DIV PUSH20 0xFFFFFFFFFFFFFFFFFFFFFFFFFFFFFFFFFFFFFFFF AND PUSH20 0xFFFFFFFFFFFFFFFFFFFFFFFFFFFFFFFFFFFFFFFF AND PUSH20 0xFFFFFFFFFFFFFFFFFFFFFFFFFFFFFFFFFFFFFFFF AND DUP2 MSTORE PUSH1 0x20 ADD PUSH1 0x1 DUP3 ADD DUP1 SLOAD PUSH2 0xCBC SWAP1 PUSH2 0x278B JUMP JUMPDEST DUP1 PUSH1 0x1F ADD PUSH1 0x20 DUP1 SWAP2 DIV MUL PUSH1 0x20 ADD PUSH1 0x40 MLOAD SWAP1 DUP2 ADD PUSH1 0x40 MSTORE DUP1 SWAP3 SWAP2 SWAP1 DUP2 DUP2 MSTORE PUSH1 0x20 ADD DUP3 DUP1 SLOAD PUSH2 0xCE8 SWAP1 PUSH2 0x278B JUMP JUMPDEST DUP1 ISZERO PUSH2 0xD33 JUMPI DUP1 PUSH1 0x1F LT PUSH2 0xD0A JUMPI PUSH2 0x100 DUP1 DUP4 SLOAD DIV MUL DUP4 MSTORE SWAP2 PUSH1 0x20 ADD SWAP2 PUSH2 0xD33 JUMP JUMPDEST DUP3 ADD SWAP2 SWAP1 PUSH0 MSTORE PUSH1 0x20 PUSH0 KECCAK256 SWAP1 JUMPDEST DUP2 SLOAD DUP2 MSTORE SWAP1 PUSH1 0x1 ADD SWAP1 PUSH1 0x20 ADD DUP1 DUP4 GT PUSH2 0xD16 JUMPI DUP3 SWAP1 SUB PUSH1 0x1F AND DUP3 ADD SWAP2 JUMPDEST POP POP POP POP POP DUP2 MSTORE PUSH1 0x20 ADD PUSH1 0x2 DUP3 ADD DUP1 SLOAD PUSH2 0xD4C SWAP1 PUSH2 0x278B JUMP JUMPDEST DUP1 PUSH1 0x1F ADD PUSH1 0x20 DUP1 SWAP2 DIV MUL PUSH1 0x20 ADD PUSH1 0x40 MLOAD SWAP1 DUP2 ADD PUSH1 0x40 MSTORE DUP1 SWAP3 SWAP2 SWAP1 DUP2 DUP2 MSTORE PUSH1 0x20 ADD DUP3 DUP1 SLOAD PUSH2 0xD78 SWAP1 PUSH2 0x278B JUMP JUMPDEST DUP1 ISZERO PUSH2 0xDC3 JUMPI DUP1 PUSH1 0x1F LT PUSH2 0xD9A JUMPI PUSH2 0x100 DUP1 DUP4 SLOAD DIV MUL DUP4 MSTORE SWAP2 PUSH1 0x20 ADD SWAP2 PUSH2 0xDC3 JUMP JUMPDEST DUP3 ADD SWAP2 SWAP1 PUSH0 MSTORE PUSH1 0x20 PUSH0 KECCAK256 SWAP1 JUMPDEST DUP2 SLOAD DUP2 MSTORE SWAP1 PUSH1 0x1 ADD SWAP1 PUSH1 0x20 ADD DUP1 DUP4 GT PUSH2 0xDA6 JUMPI DUP3 SWAP1 SUB PUSH1 0x1F AND DUP3 ADD SWAP2 JUMPDEST POP POP POP POP POP DUP2 MSTORE PUSH1 0x20 ADD PUSH1 0x3 DUP3 ADD SLOAD DUP2 MSTORE PUSH1 0x20 ADD PUSH1 0x4 DUP3 ADD SLOAD DUP2 MSTORE PUSH1 0x20 ADD PUSH1 0x5 DUP3 ADD SLOAD DUP2 MSTORE PUSH1 0x20 ADD PUSH1 0x6 DUP3 ADD SLOAD DUP2 MSTORE POP POP SWAP1 POP SWAP1 JUMP JUMPDEST PUSH0 DUP1 PUSH0 SWAP1 SLOAD SWAP1 PUSH2 0x100 EXP SWAP1 DIV PUSH20 0xFFFFFFFFFFFFFFFFFFFFFFFFFFFFFFFFFFFFFFFF AND SWAP1 POP SWAP1 JUMP JUMPDEST PUSH0 DUP1 PUSH1 0xE PUSH0 SWAP1 SLOAD SWAP1 PUSH2 0x100 EXP SWAP1 DIV PUSH20 0xFFFFFFFFFFFFFFFFFFFFFFFFFFFFFFFFFFFFFFFF AND PUSH20 0xFFFFFFFFFFFFFFFFFFFFFFFFFFFFFFFFFFFFFFFF AND PUSH4 0xFEAF968C PUSH1 0x40 MLOAD DUP2 PUSH4 0xFFFFFFFF AND PUSH1 0xE0 SHL DUP2 MSTORE PUSH1 0x4 ADD PUSH1 0xA0 PUSH1 0x40 MLOAD DUP1 DUP4 SUB DUP2 DUP7 GAS STATICCALL ISZERO DUP1 ISZERO PUSH2 0xE8C JUMPI RETURNDATASIZE PUSH0 DUP1 RETURNDATACOPY RETURNDATASIZE PUSH0 REVERT JUMPDEST POP POP POP POP PUSH1 0x40 MLOAD RETURNDATASIZE PUSH1 0x1F NOT PUSH1 0x1F DUP3 ADD AND DUP3 ADD DUP1 PUSH1 0x40 MSTORE POP DUP2 ADD SWAP1 PUSH2 0xEB0 SWAP2 SWAP1 PUSH2 0x282D JUMP JUMPDEST POP POP POP SWAP2 POP POP PUSH4 0x5F5E100 DUP2 PUSH2 0xEC6 SWAP2 SWAP1 PUSH2 0x28FE JUMP JUMPDEST SWAP2 POP POP SWAP1 JUMP JUMPDEST PUSH1 0x5 DUP1 PUSH0 ADD PUSH0 SWAP1 SLOAD SWAP1 PUSH2 0x100 EXP SWAP1 DIV PUSH20 0xFFFFFFFFFFFFFFFFFFFFFFFFFFFFFFFFFFFFFFFF AND SWAP1 DUP1 PUSH1 0x1 ADD DUP1 SLOAD PUSH2 0xF01 SWAP1 PUSH2 0x278B JUMP JUMPDEST DUP1 PUSH1 0x1F ADD PUSH1 0x20 DUP1 SWAP2 DIV MUL PUSH1 0x20 ADD PUSH1 0x40 MLOAD SWAP1 DUP2 ADD PUSH1 0x40 MSTORE DUP1 SWAP3 SWAP2 SWAP1 DUP2 DUP2 MSTORE PUSH1 0x20 ADD DUP3 DUP1 SLOAD PUSH2 0xF2D SWAP1 PUSH2 0x278B JUMP JUMPDEST DUP1 ISZERO PUSH2 0xF78 JUMPI DUP1 PUSH1 0x1F LT PUSH2 0xF4F JUMPI PUSH2 0x100 DUP1 DUP4 SLOAD DIV MUL DUP4 MSTORE SWAP2 PUSH1 0x20 ADD SWAP2 PUSH2 0xF78 JUMP JUMPDEST DUP3 ADD SWAP2 SWAP1 PUSH0 MSTORE PUSH1 0x20 PUSH0 KECCAK256 SWAP1 JUMPDEST DUP2 SLOAD DUP2 MSTORE SWAP1 PUSH1 0x1 ADD SWAP1 PUSH1 0x20 ADD DUP1 DUP4 GT PUSH2 0xF5B JUMPI DUP3 SWAP1 SUB PUSH1 0x1F AND DUP3 ADD SWAP2 JUMPDEST POP POP POP POP POP SWAP1 DUP1 PUSH1 0x2 ADD DUP1 SLOAD PUSH2 0xF8D SWAP1 PUSH2 0x278B JUMP JUMPDEST DUP1 PUSH1 0x1F ADD PUSH1 0x20 DUP1 SWAP2 DIV MUL PUSH1 0x20 ADD PUSH1 0x40 MLOAD SWAP1 DUP2 ADD PUSH1 0x40 MSTORE DUP1 SWAP3 SWAP2 SWAP1 DUP2 DUP2 MSTORE PUSH1 0x20 ADD DUP3 DUP1 SLOAD PUSH2 0xFB9 SWAP1 PUSH2 0x278B JUMP JUMPDEST DUP1 ISZERO PUSH2 0x1004 JUMPI DUP1 PUSH1 0x1F LT PUSH2 0xFDB JUMPI PUSH2 0x100 DUP1 DUP4 SLOAD DIV MUL DUP4 MSTORE SWAP2 PUSH1 0x20 ADD SWAP2 PUSH2 0x1004 JUMP JUMPDEST DUP3 ADD SWAP2 SWAP1 PUSH0 MSTORE PUSH1 0x20 PUSH0 KECCAK256 SWAP1 JUMPDEST DUP2 SLOAD DUP2 MSTORE SWAP1 PUSH1 0x1 ADD SWAP1 PUSH1 0x20 ADD DUP1 DUP4 GT PUSH2 0xFE7 JUMPI DUP3 SWAP1 SUB PUSH1 0x1F AND DUP3 ADD SWAP2 JUMPDEST POP POP POP POP POP SWAP1 DUP1 PUSH1 0x3 ADD SLOAD SWAP1 DUP1 PUSH1 0x4 ADD SLOAD SWAP1 DUP1 PUSH1 0x5 ADD SLOAD SWAP1 DUP1 PUSH1 0x6 ADD SLOAD SWAP1 POP DUP8 JUMP JUMPDEST PUSH2 0x102E PUSH2 0x14AE JUMP JUMPDEST TIMESTAMP PUSH1 0x3 DUP2 SWAP1 SSTORE POP PUSH2 0x12C PUSH1 0x3 SLOAD PUSH2 0x1045 SWAP2 SWAP1 PUSH2 0x292E JUMP JUMPDEST PUSH1 0x4 DUP2 SWAP1 SSTORE POP PUSH2 0x1053 PUSH2 0x15F6 JUMP JUMPDEST PUSH0 PUSH1 0xC PUSH0 SWAP1 SLOAD SWAP1 PUSH2 0x100 EXP SWAP1 DIV PUSH20 0xFFFFFFFFFFFFFFFFFFFFFFFFFFFFFFFFFFFFFFFF AND PUSH20 0xFFFFFFFFFFFFFFFFFFFFFFFFFFFFFFFFFFFFFFFF AND PUSH4 0x94964EDF PUSH1 0x40 MLOAD DUP2 PUSH4 0xFFFFFFFF AND PUSH1 0xE0 SHL DUP2 MSTORE PUSH1 0x4 ADD PUSH0 PUSH1 0x40 MLOAD DUP1 DUP4 SUB DUP2 DUP7 GAS STATICCALL ISZERO DUP1 ISZERO PUSH2 0x10BD JUMPI RETURNDATASIZE PUSH0 DUP1 RETURNDATACOPY RETURNDATASIZE PUSH0 REVERT JUMPDEST POP POP POP POP PUSH1 0x40 MLOAD RETURNDATASIZE PUSH0 DUP3 RETURNDATACOPY RETURNDATASIZE PUSH1 0x1F NOT PUSH1 0x1F DUP3 ADD AND DUP3 ADD DUP1 PUSH1 0x40 MSTORE POP DUP2 ADD SWAP1 PUSH2 0x10E5 SWAP2 SWAP1 PUSH2 0x2A3F JUMP JUMPDEST MLOAD GT ISZERO PUSH2 0x12AE JUMPI PUSH1 0xC PUSH0 SWAP1 SLOAD SWAP1 PUSH2 0x100 EXP SWAP1 DIV PUSH20 0xFFFFFFFFFFFFFFFFFFFFFFFFFFFFFFFFFFFFFFFF AND PUSH20 0xFFFFFFFFFFFFFFFFFFFFFFFFFFFFFFFFFFFFFFFF AND PUSH4 0x6C9A5FA4 PUSH1 0x40 MLOAD DUP2 PUSH4 0xFFFFFFFF AND PUSH1 0xE0 SHL DUP2 MSTORE PUSH1 0x4 ADD PUSH0 PUSH1 0x40 MLOAD DUP1 DUP4 SUB DUP2 DUP7 GAS STATICCALL ISZERO DUP1 ISZERO PUSH2 0x1155 JUMPI RETURNDATASIZE PUSH0 DUP1 RETURNDATACOPY RETURNDATASIZE PUSH0 REVERT JUMPDEST POP POP POP POP PUSH1 0x40 MLOAD RETURNDATASIZE PUSH0 DUP3 RETURNDATACOPY RETURNDATASIZE PUSH1 0x1F NOT PUSH1 0x1F DUP3 ADD AND DUP3 ADD DUP1 PUSH1 0x40 MSTORE POP DUP2 ADD SWAP1 PUSH2 0x117D SWAP2 SWAP1 PUSH2 0x2348 JUMP JUMPDEST PUSH1 0x5 PUSH0 DUP3 ADD MLOAD DUP2 PUSH0 ADD PUSH0 PUSH2 0x100 EXP DUP2 SLOAD DUP2 PUSH20 0xFFFFFFFFFFFFFFFFFFFFFFFFFFFFFFFFFFFFFFFF MUL NOT AND SWAP1 DUP4 PUSH20 0xFFFFFFFFFFFFFFFFFFFFFFFFFFFFFFFFFFFFFFFF AND MUL OR SWAP1 SSTORE POP PUSH1 0x20 DUP3 ADD MLOAD DUP2 PUSH1 0x1 ADD SWAP1 DUP2 PUSH2 0x11D8 SWAP2 SWAP1 PUSH2 0x2C1A JUMP JUMPDEST POP PUSH1 0x40 DUP3 ADD MLOAD DUP2 PUSH1 0x2 ADD SWAP1 DUP2 PUSH2 0x11EE SWAP2 SWAP1 PUSH2 0x2C1A JUMP JUMPDEST POP PUSH1 0x60 DUP3 ADD MLOAD DUP2 PUSH1 0x3 ADD SSTORE PUSH1 0x80 DUP3 ADD MLOAD DUP2 PUSH1 0x4 ADD SSTORE PUSH1 0xA0 DUP3 ADD MLOAD DUP2 PUSH1 0x5 ADD SSTORE PUSH1 0xC0 DUP3 ADD MLOAD DUP2 PUSH1 0x6 ADD SSTORE SWAP1 POP POP PUSH1 0xC PUSH0 SWAP1 SLOAD SWAP1 PUSH2 0x100 EXP SWAP1 DIV PUSH20 0xFFFFFFFFFFFFFFFFFFFFFFFFFFFFFFFFFFFFFFFF AND PUSH20 0xFFFFFFFFFFFFFFFFFFFFFFFFFFFFFFFFFFFFFFFF AND PUSH4 0x7CDBF25C PUSH1 0x40 MLOAD DUP2 PUSH4 0xFFFFFFFF AND PUSH1 0xE0 SHL DUP2 MSTORE PUSH1 0x4 ADD PUSH0 PUSH1 0x40 MLOAD DUP1 DUP4 SUB DUP2 PUSH0 DUP8 GAS CALL ISZERO DUP1 ISZERO PUSH2 0x1284 JUMPI RETURNDATASIZE PUSH0 DUP1 RETURNDATACOPY RETURNDATASIZE PUSH0 REVERT JUMPDEST POP POP POP POP PUSH1 0x40 MLOAD RETURNDATASIZE PUSH0 DUP3 RETURNDATACOPY RETURNDATASIZE PUSH1 0x1F NOT PUSH1 0x1F DUP3 ADD AND DUP3 ADD DUP1 PUSH1 0x40 MSTORE POP DUP2 ADD SWAP1 PUSH2 0x12AC SWAP2 SWAP1 PUSH2 0x2348 JUMP JUMPDEST POP JUMPDEST PUSH32 0xEB6C47CD02F1E621F31FB6401E4D5B6D34724FE0DDDFC7B4871B7CD1AA424FED PUSH1 0x5 PUSH1 0x2 ADD PUSH1 0x40 MLOAD PUSH2 0x12E1 SWAP2 SWAP1 PUSH2 0x2D6A JUMP JUMPDEST PUSH1 0x40 MLOAD DUP1 SWAP2 SUB SWAP1 LOG1 JUMP JUMPDEST PUSH1 0x60 PUSH1 0xC PUSH0 SWAP1 SLOAD SWAP1 PUSH2 0x100 EXP SWAP1 DIV PUSH20 0xFFFFFFFFFFFFFFFFFFFFFFFFFFFFFFFFFFFFFFFF AND PUSH20 0xFFFFFFFFFFFFFFFFFFFFFFFFFFFFFFFFFFFFFFFF AND PUSH4 0x94964EDF PUSH1 0x40 MLOAD DUP2 PUSH4 0xFFFFFFFF AND PUSH1 0xE0 SHL DUP2 MSTORE PUSH1 0x4 ADD PUSH0 PUSH1 0x40 MLOAD DUP1 DUP4 SUB DUP2 DUP7 GAS STATICCALL ISZERO DUP1 ISZERO PUSH2 0x1356 JUMPI RETURNDATASIZE PUSH0 DUP1 RETURNDATACOPY RETURNDATASIZE PUSH0 REVERT JUMPDEST POP POP POP POP PUSH1 0x40 MLOAD RETURNDATASIZE PUSH0 DUP3 RETURNDATACOPY RETURNDATASIZE PUSH1 0x1F NOT PUSH1 0x1F DUP3 ADD AND DUP3 ADD DUP1 PUSH1 0x40 MSTORE POP DUP2 ADD SWAP1 PUSH2 0x137E SWAP2 SWAP1 PUSH2 0x2A3F JUMP JUMPDEST SWAP1 POP SWAP1 JUMP JUMPDEST PUSH0 PUSH1 0xF SLOAD SWAP1 POP SWAP1 JUMP JUMPDEST PUSH2 0x1394 PUSH2 0x14AE JUMP JUMPDEST PUSH0 PUSH20 0xFFFFFFFFFFFFFFFFFFFFFFFFFFFFFFFFFFFFFFFF AND DUP2 PUSH20 0xFFFFFFFFFFFFFFFFFFFFFFFFFFFFFFFFFFFFFFFF AND SUB PUSH2 0x1404 JUMPI PUSH0 PUSH1 0x40 MLOAD PUSH32 0x1E4FBDF700000000000000000000000000000000000000000000000000000000 DUP2 MSTORE PUSH1 0x4 ADD PUSH2 0x13FB SWAP2 SWAP1 PUSH2 0x1C23 JUMP JUMPDEST PUSH1 0x40 MLOAD DUP1 SWAP2 SUB SWAP1 REVERT JUMPDEST PUSH2 0x140D DUP2 PUSH2 0x1535 JUMP JUMPDEST POP JUMP JUMPDEST PUSH2 0x1418 PUSH2 0x1743 JUMP JUMPDEST PUSH1 0xC PUSH0 SWAP1 SLOAD SWAP1 PUSH2 0x100 EXP SWAP1 DIV PUSH20 0xFFFFFFFFFFFFFFFFFFFFFFFFFFFFFFFFFFFFFFFF AND PUSH20 0xFFFFFFFFFFFFFFFFFFFFFFFFFFFFFFFFFFFFFFFF AND PUSH4 0x6C9A5FA4 PUSH1 0x40 MLOAD DUP2 PUSH4 0xFFFFFFFF AND PUSH1 0xE0 SHL DUP2 MSTORE PUSH1 0x4 ADD PUSH0 PUSH1 0x40 MLOAD DUP1 DUP4 SUB DUP2 DUP7 GAS STATICCALL ISZERO DUP1 ISZERO PUSH2 0x1481 JUMPI RETURNDATASIZE PUSH0 DUP1 RETURNDATACOPY RETURNDATASIZE PUSH0 REVERT JUMPDEST POP POP POP POP PUSH1 0x40 MLOAD RETURNDATASIZE PUSH0 DUP3 RETURNDATACOPY RETURNDATASIZE PUSH1 0x1F NOT PUSH1 0x1F DUP3 ADD AND DUP3 ADD DUP1 PUSH1 0x40 MSTORE POP DUP2 ADD SWAP1 PUSH2 0x14A9 SWAP2 SWAP1 PUSH2 0x2348 JUMP JUMPDEST SWAP1 POP SWAP1 JUMP JUMPDEST PUSH2 0x14B6 PUSH2 0x169D JUMP JUMPDEST PUSH20 0xFFFFFFFFFFFFFFFFFFFFFFFFFFFFFFFFFFFFFFFF AND PUSH2 0x14D4 PUSH2 0xDF9 JUMP JUMPDEST PUSH20 0xFFFFFFFFFFFFFFFFFFFFFFFFFFFFFFFFFFFFFFFF AND EQ PUSH2 0x1533 JUMPI PUSH2 0x14F7 PUSH2 0x169D JUMP JUMPDEST PUSH1 0x40 MLOAD PUSH32 0x118CDAA700000000000000000000000000000000000000000000000000000000 DUP2 MSTORE PUSH1 0x4 ADD PUSH2 0x152A SWAP2 SWAP1 PUSH2 0x1C23 JUMP JUMPDEST PUSH1 0x40 MLOAD DUP1 SWAP2 SUB SWAP1 REVERT JUMPDEST JUMP JUMPDEST PUSH0 DUP1 PUSH0 SWAP1 SLOAD SWAP1 PUSH2 0x100 EXP SWAP1 DIV PUSH20 0xFFFFFFFFFFFFFFFFFFFFFFFFFFFFFFFFFFFFFFFF AND SWAP1 POP DUP2 PUSH0 DUP1 PUSH2 0x100 EXP DUP2 SLOAD DUP2 PUSH20 0xFFFFFFFFFFFFFFFFFFFFFFFFFFFFFFFFFFFFFFFF MUL NOT AND SWAP1 DUP4 PUSH20 0xFFFFFFFFFFFFFFFFFFFFFFFFFFFFFFFFFFFFFFFF AND MUL OR SWAP1 SSTORE POP DUP2 PUSH20 0xFFFFFFFFFFFFFFFFFFFFFFFFFFFFFFFFFFFFFFFF AND DUP2 PUSH20 0xFFFFFFFFFFFFFFFFFFFFFFFFFFFFFFFFFFFFFFFF AND PUSH32 0x8BE0079C531659141344CD1FD0A4F28419497F9722A3DAAFE3B4186F6B6457E0 PUSH1 0x40 MLOAD PUSH1 0x40 MLOAD DUP1 SWAP2 SUB SWAP1 LOG3 POP POP JUMP JUMPDEST PUSH0 JUMPDEST PUSH1 0x2 DUP1 SLOAD SWAP1 POP DUP2 LT ISZERO PUSH2 0x168D JUMPI PUSH1 0x1 PUSH0 PUSH1 0x2 DUP4 DUP2 SLOAD DUP2 LT PUSH2 0x161C JUMPI PUSH2 0x161B PUSH2 0x2D8A JUMP JUMPDEST JUMPDEST SWAP1 PUSH0 MSTORE PUSH1 0x20 PUSH0 KECCAK256 ADD PUSH0 SWAP1 SLOAD SWAP1 PUSH2 0x100 EXP SWAP1 DIV PUSH20 0xFFFFFFFFFFFFFFFFFFFFFFFFFFFFFFFFFFFFFFFF AND PUSH20 0xFFFFFFFFFFFFFFFFFFFFFFFFFFFFFFFFFFFFFFFF AND PUSH20 0xFFFFFFFFFFFFFFFFFFFFFFFFFFFFFFFFFFFFFFFF AND DUP2 MSTORE PUSH1 0x20 ADD SWAP1 DUP2 MSTORE PUSH1 0x20 ADD PUSH0 KECCAK256 PUSH0 SWAP1 SSTORE DUP1 DUP1 PUSH1 0x1 ADD SWAP2 POP POP PUSH2 0x15F8 JUMP JUMPDEST POP PUSH1 0x2 PUSH0 PUSH2 0x169B SWAP2 SWAP1 PUSH2 0x1794 JUMP JUMPDEST JUMP JUMPDEST PUSH0 CALLER SWAP1 POP SWAP1 JUMP JUMPDEST DUP3 DUP1 SLOAD DUP3 DUP3 SSTORE SWAP1 PUSH0 MSTORE PUSH1 0x20 PUSH0 KECCAK256 SWAP1 DUP2 ADD SWAP3 DUP3 ISZERO PUSH2 0x171A JUMPI SWAP2 PUSH1 0x20 MUL DUP3 ADD JUMPDEST DUP3 DUP2 GT ISZERO PUSH2 0x1719 JUMPI DUP3 MLOAD DUP3 PUSH0 PUSH2 0x100 EXP DUP2 SLOAD DUP2 PUSH20 0xFFFFFFFFFFFFFFFFFFFFFFFFFFFFFFFFFFFFFFFF MUL NOT AND SWAP1 DUP4 PUSH20 0xFFFFFFFFFFFFFFFFFFFFFFFFFFFFFFFFFFFFFFFF AND MUL OR SWAP1 SSTORE POP SWAP2 PUSH1 0x20 ADD SWAP2 SWAP1 PUSH1 0x1 ADD SWAP1 PUSH2 0x16C2 JUMP JUMPDEST JUMPDEST POP SWAP1 POP PUSH2 0x1727 SWAP2 SWAP1 PUSH2 0x17B2 JUMP JUMPDEST POP SWAP1 JUMP JUMPDEST PUSH1 0x40 MLOAD DUP1 PUSH1 0x40 ADD PUSH1 0x40 MSTORE DUP1 PUSH0 DUP2 MSTORE PUSH1 0x20 ADD PUSH0 DUP2 MSTORE POP SWAP1 JUMP JUMPDEST PUSH1 0x40 MLOAD DUP1 PUSH1 0xE0 ADD PUSH1 0x40 MSTORE DUP1 PUSH0 PUSH20 0xFFFFFFFFFFFFFFFFFFFFFFFFFFFFFFFFFFFFFFFF AND DUP2 MSTORE PUSH1 0x20 ADD PUSH1 0x60 DUP2 MSTORE PUSH1 0x20 ADD PUSH1 0x60 DUP2 MSTORE PUSH1 0x20 ADD PUSH0 DUP2 MSTORE PUSH1 0x20 ADD PUSH0 DUP2 MSTORE PUSH1 0x20 ADD PUSH0 DUP2 MSTORE PUSH1 0x20 ADD PUSH0 DUP1 NOT AND DUP2 MSTORE POP SWAP1 JUMP JUMPDEST POP DUP1 SLOAD PUSH0 DUP3 SSTORE SWAP1 PUSH0 MSTORE PUSH1 0x20 PUSH0 KECCAK256 SWAP1 DUP2 ADD SWAP1 PUSH2 0x17AF SWAP2 SWAP1 PUSH2 0x17B2 JUMP JUMPDEST POP JUMP JUMPDEST JUMPDEST DUP1 DUP3 GT ISZERO PUSH2 0x17C9 JUMPI PUSH0 DUP2 PUSH0 SWAP1 SSTORE POP PUSH1 0x1 ADD PUSH2 0x17B3 JUMP JUMPDEST POP SWAP1 JUMP JUMPDEST PUSH0 PUSH1 0x40 MLOAD SWAP1 POP SWAP1 JUMP JUMPDEST PUSH0 DUP1 REVERT JUMPDEST PUSH0 DUP1 REVERT JUMPDEST PUSH0 DUP2 SWAP1 POP SWAP2 SWAP1 POP JUMP JUMPDEST PUSH2 0x17F0 DUP2 PUSH2 0x17DE JUMP JUMPDEST DUP2 EQ PUSH2 0x17FA JUMPI PUSH0 DUP1 REVERT JUMPDEST POP JUMP JUMPDEST PUSH0 DUP2 CALLDATALOAD SWAP1 POP PUSH2 0x180B DUP2 PUSH2 0x17E7 JUMP JUMPDEST SWAP3 SWAP2 POP POP JUMP JUMPDEST PUSH0 PUSH1 0x20 DUP3 DUP5 SUB SLT ISZERO PUSH2 0x1826 JUMPI PUSH2 0x1825 PUSH2 0x17D6 JUMP JUMPDEST JUMPDEST PUSH0 PUSH2 0x1833 DUP5 DUP3 DUP6 ADD PUSH2 0x17FD JUMP JUMPDEST SWAP2 POP POP SWAP3 SWAP2 POP POP JUMP JUMPDEST PUSH0 DUP1 REVERT JUMPDEST PUSH0 DUP1 REVERT JUMPDEST PUSH0 DUP1 REVERT JUMPDEST PUSH0 DUP1 DUP4 PUSH1 0x1F DUP5 ADD SLT PUSH2 0x185D JUMPI PUSH2 0x185C PUSH2 0x183C JUMP JUMPDEST JUMPDEST DUP3 CALLDATALOAD SWAP1 POP PUSH8 0xFFFFFFFFFFFFFFFF DUP2 GT ISZERO PUSH2 0x187A JUMPI PUSH2 0x1879 PUSH2 0x1840 JUMP JUMPDEST JUMPDEST PUSH1 0x20 DUP4 ADD SWAP2 POP DUP4 PUSH1 0x1 DUP3 MUL DUP4 ADD GT ISZERO PUSH2 0x1896 JUMPI PUSH2 0x1895 PUSH2 0x1844 JUMP JUMPDEST JUMPDEST SWAP3 POP SWAP3 SWAP1 POP JUMP JUMPDEST PUSH0 DUP1 PUSH0 DUP1 PUSH1 0x40 DUP6 DUP8 SUB SLT ISZERO PUSH2 0x18B5 JUMPI PUSH2 0x18B4 PUSH2 0x17D6 JUMP JUMPDEST JUMPDEST PUSH0 DUP6 ADD CALLDATALOAD PUSH8 0xFFFFFFFFFFFFFFFF DUP2 GT ISZERO PUSH2 0x18D2 JUMPI PUSH2 0x18D1 PUSH2 0x17DA JUMP JUMPDEST JUMPDEST PUSH2 0x18DE DUP8 DUP3 DUP9 ADD PUSH2 0x1848 JUMP JUMPDEST SWAP5 POP SWAP5 POP POP PUSH1 0x20 DUP6 ADD CALLDATALOAD PUSH8 0xFFFFFFFFFFFFFFFF DUP2 GT ISZERO PUSH2 0x1901 JUMPI PUSH2 0x1900 PUSH2 0x17DA JUMP JUMPDEST JUMPDEST PUSH2 0x190D DUP8 DUP3 DUP9 ADD PUSH2 0x1848 JUMP JUMPDEST SWAP3 POP SWAP3 POP POP SWAP3 SWAP6 SWAP2 SWAP5 POP SWAP3 POP JUMP JUMPDEST PUSH0 DUP2 MLOAD SWAP1 POP SWAP2 SWAP1 POP JUMP JUMPDEST PUSH0 DUP3 DUP3 MSTORE PUSH1 0x20 DUP3 ADD SWAP1 POP SWAP3 SWAP2 POP POP JUMP JUMPDEST PUSH0 DUP2 SWAP1 POP PUSH1 0x20 DUP3 ADD SWAP1 POP SWAP2 SWAP1 POP JUMP JUMPDEST PUSH0 PUSH20 0xFFFFFFFFFFFFFFFFFFFFFFFFFFFFFFFFFFFFFFFF DUP3 AND SWAP1 POP SWAP2 SWAP1 POP JUMP JUMPDEST PUSH0 PUSH2 0x196D DUP3 PUSH2 0x1944 JUMP JUMPDEST SWAP1 POP SWAP2 SWAP1 POP JUMP JUMPDEST PUSH2 0x197D DUP2 PUSH2 0x1963 JUMP JUMPDEST DUP3 MSTORE POP POP JUMP JUMPDEST PUSH0 PUSH2 0x198E DUP4 DUP4 PUSH2 0x1974 JUMP JUMPDEST PUSH1 0x20 DUP4 ADD SWAP1 POP SWAP3 SWAP2 POP POP JUMP JUMPDEST PUSH0 PUSH1 0x20 DUP3 ADD SWAP1 POP SWAP2 SWAP1 POP JUMP JUMPDEST PUSH0 PUSH2 0x19B0 DUP3 PUSH2 0x191B JUMP JUMPDEST PUSH2 0x19BA DUP2 DUP6 PUSH2 0x1925 JUMP JUMPDEST SWAP4 POP PUSH2 0x19C5 DUP4 PUSH2 0x1935 JUMP JUMPDEST DUP1 PUSH0 JUMPDEST DUP4 DUP2 LT ISZERO PUSH2 0x19F5 JUMPI DUP2 MLOAD PUSH2 0x19DC DUP9 DUP3 PUSH2 0x1983 JUMP JUMPDEST SWAP8 POP PUSH2 0x19E7 DUP4 PUSH2 0x199A JUMP JUMPDEST SWAP3 POP POP PUSH1 0x1 DUP2 ADD SWAP1 POP PUSH2 0x19C8 JUMP JUMPDEST POP DUP6 SWAP4 POP POP POP POP SWAP3 SWAP2 POP POP JUMP JUMPDEST PUSH0 PUSH1 0x20 DUP3 ADD SWAP1 POP DUP2 DUP2 SUB PUSH0 DUP4 ADD MSTORE PUSH2 0x1A1A DUP2 DUP5 PUSH2 0x19A6 JUMP JUMPDEST SWAP1 POP SWAP3 SWAP2 POP POP JUMP JUMPDEST PUSH2 0x1A2B DUP2 PUSH2 0x1963 JUMP JUMPDEST DUP2 EQ PUSH2 0x1A35 JUMPI PUSH0 DUP1 REVERT JUMPDEST POP JUMP JUMPDEST PUSH0 DUP2 CALLDATALOAD SWAP1 POP PUSH2 0x1A46 DUP2 PUSH2 0x1A22 JUMP JUMPDEST SWAP3 SWAP2 POP POP JUMP JUMPDEST PUSH0 PUSH1 0x20 DUP3 DUP5 SUB SLT ISZERO PUSH2 0x1A61 JUMPI PUSH2 0x1A60 PUSH2 0x17D6 JUMP JUMPDEST JUMPDEST PUSH0 PUSH2 0x1A6E DUP5 DUP3 DUP6 ADD PUSH2 0x1A38 JUMP JUMPDEST SWAP2 POP POP SWAP3 SWAP2 POP POP JUMP JUMPDEST PUSH2 0x1A80 DUP2 PUSH2 0x17DE JUMP JUMPDEST DUP3 MSTORE POP POP JUMP JUMPDEST PUSH1 0x40 DUP3 ADD PUSH0 DUP3 ADD MLOAD PUSH2 0x1A9A PUSH0 DUP6 ADD DUP3 PUSH2 0x1A77 JUMP JUMPDEST POP PUSH1 0x20 DUP3 ADD MLOAD PUSH2 0x1AAD PUSH1 0x20 DUP6 ADD DUP3 PUSH2 0x1A77 JUMP JUMPDEST POP POP POP POP JUMP JUMPDEST PUSH0 PUSH1 0x40 DUP3 ADD SWAP1 POP PUSH2 0x1AC6 PUSH0 DUP4 ADD DUP5 PUSH2 0x1A86 JUMP JUMPDEST SWAP3 SWAP2 POP POP JUMP JUMPDEST PUSH0 DUP2 MLOAD SWAP1 POP SWAP2 SWAP1 POP JUMP JUMPDEST PUSH0 DUP3 DUP3 MSTORE PUSH1 0x20 DUP3 ADD SWAP1 POP SWAP3 SWAP2 POP POP JUMP JUMPDEST DUP3 DUP2 DUP4 MCOPY PUSH0 DUP4 DUP4 ADD MSTORE POP POP POP JUMP JUMPDEST PUSH0 PUSH1 0x1F NOT PUSH1 0x1F DUP4 ADD AND SWAP1 POP SWAP2 SWAP1 POP JUMP JUMPDEST PUSH0 PUSH2 0x1B0E DUP3 PUSH2 0x1ACC JUMP JUMPDEST PUSH2 0x1B18 DUP2 DUP6 PUSH2 0x1AD6 JUMP JUMPDEST SWAP4 POP PUSH2 0x1B28 DUP2 DUP6 PUSH1 0x20 DUP7 ADD PUSH2 0x1AE6 JUMP JUMPDEST PUSH2 0x1B31 DUP2 PUSH2 0x1AF4 JUMP JUMPDEST DUP5 ADD SWAP2 POP POP SWAP3 SWAP2 POP POP JUMP JUMPDEST PUSH0 DUP2 SWAP1 POP SWAP2 SWAP1 POP JUMP JUMPDEST PUSH2 0x1B4E DUP2 PUSH2 0x1B3C JUMP JUMPDEST DUP3 MSTORE POP POP JUMP JUMPDEST PUSH0 PUSH1 0xE0 DUP4 ADD PUSH0 DUP4 ADD MLOAD PUSH2 0x1B69 PUSH0 DUP7 ADD DUP3 PUSH2 0x1974 JUMP JUMPDEST POP PUSH1 0x20 DUP4 ADD MLOAD DUP5 DUP3 SUB PUSH1 0x20 DUP7 ADD MSTORE PUSH2 0x1B81 DUP3 DUP3 PUSH2 0x1B04 JUMP JUMPDEST SWAP2 POP POP PUSH1 0x40 DUP4 ADD MLOAD DUP5 DUP3 SUB PUSH1 0x40 DUP7 ADD MSTORE PUSH2 0x1B9B DUP3 DUP3 PUSH2 0x1B04 JUMP JUMPDEST SWAP2 POP POP PUSH1 0x60 DUP4 ADD MLOAD PUSH2 0x1BB0 PUSH1 0x60 DUP7 ADD DUP3 PUSH2 0x1A77 JUMP JUMPDEST POP PUSH1 0x80 DUP4 ADD MLOAD PUSH2 0x1BC3 PUSH1 0x80 DUP7 ADD DUP3 PUSH2 0x1A77 JUMP JUMPDEST POP PUSH1 0xA0 DUP4 ADD MLOAD PUSH2 0x1BD6 PUSH1 0xA0 DUP7 ADD DUP3 PUSH2 0x1A77 JUMP JUMPDEST POP PUSH1 0xC0 DUP4 ADD MLOAD PUSH2 0x1BE9 PUSH1 0xC0 DUP7 ADD DUP3 PUSH2 0x1B45 JUMP JUMPDEST POP DUP1 SWAP2 POP POP SWAP3 SWAP2 POP POP JUMP JUMPDEST PUSH0 PUSH1 0x20 DUP3 ADD SWAP1 POP DUP2 DUP2 SUB PUSH0 DUP4 ADD MSTORE PUSH2 0x1C0C DUP2 DUP5 PUSH2 0x1B54 JUMP JUMPDEST SWAP1 POP SWAP3 SWAP2 POP POP JUMP JUMPDEST PUSH2 0x1C1D DUP2 PUSH2 0x1963 JUMP JUMPDEST DUP3 MSTORE POP POP JUMP JUMPDEST PUSH0 PUSH1 0x20 DUP3 ADD SWAP1 POP PUSH2 0x1C36 PUSH0 DUP4 ADD DUP5 PUSH2 0x1C14 JUMP JUMPDEST SWAP3 SWAP2 POP POP JUMP JUMPDEST PUSH2 0x1C45 DUP2 PUSH2 0x17DE JUMP JUMPDEST DUP3 MSTORE POP POP JUMP JUMPDEST PUSH0 PUSH1 0x20 DUP3 ADD SWAP1 POP PUSH2 0x1C5E PUSH0 DUP4 ADD DUP5 PUSH2 0x1C3C JUMP JUMPDEST SWAP3 SWAP2 POP POP JUMP JUMPDEST PUSH0 DUP3 DUP3 MSTORE PUSH1 0x20 DUP3 ADD SWAP1 POP SWAP3 SWAP2 POP POP JUMP JUMPDEST PUSH0 PUSH2 0x1C7E DUP3 PUSH2 0x1ACC JUMP JUMPDEST PUSH2 0x1C88 DUP2 DUP6 PUSH2 0x1C64 JUMP JUMPDEST SWAP4 POP PUSH2 0x1C98 DUP2 DUP6 PUSH1 0x20 DUP7 ADD PUSH2 0x1AE6 JUMP JUMPDEST PUSH2 0x1CA1 DUP2 PUSH2 0x1AF4 JUMP JUMPDEST DUP5 ADD SWAP2 POP POP SWAP3 SWAP2 POP POP JUMP JUMPDEST PUSH2 0x1CB5 DUP2 PUSH2 0x1B3C JUMP JUMPDEST DUP3 MSTORE POP POP JUMP JUMPDEST PUSH0 PUSH1 0xE0 DUP3 ADD SWAP1 POP PUSH2 0x1CCE PUSH0 DUP4 ADD DUP11 PUSH2 0x1C14 JUMP JUMPDEST DUP2 DUP2 SUB PUSH1 0x20 DUP4 ADD MSTORE PUSH2 0x1CE0 DUP2 DUP10 PUSH2 0x1C74 JUMP JUMPDEST SWAP1 POP DUP2 DUP2 SUB PUSH1 0x40 DUP4 ADD MSTORE PUSH2 0x1CF4 DUP2 DUP9 PUSH2 0x1C74 JUMP JUMPDEST SWAP1 POP PUSH2 0x1D03 PUSH1 0x60 DUP4 ADD DUP8 PUSH2 0x1C3C JUMP JUMPDEST PUSH2 0x1D10 PUSH1 0x80 DUP4 ADD DUP7 PUSH2 0x1C3C JUMP JUMPDEST PUSH2 0x1D1D PUSH1 0xA0 DUP4 ADD DUP6 PUSH2 0x1C3C JUMP JUMPDEST PUSH2 0x1D2A PUSH1 0xC0 DUP4 ADD DUP5 PUSH2 0x1CAC JUMP JUMPDEST SWAP9 SWAP8 POP POP POP POP POP POP POP POP JUMP JUMPDEST PUSH0 DUP2 MLOAD SWAP1 POP SWAP2 SWAP1 POP JUMP JUMPDEST PUSH0 DUP3 DUP3 MSTORE PUSH1 0x20 DUP3 ADD SWAP1 POP SWAP3 SWAP2 POP POP JUMP JUMPDEST PUSH0 DUP2 SWAP1 POP PUSH1 0x20 DUP3 ADD SWAP1 POP SWAP2 SWAP1 POP JUMP JUMPDEST PUSH0 PUSH1 0xE0 DUP4 ADD PUSH0 DUP4 ADD MLOAD PUSH2 0x1D74 PUSH0 DUP7 ADD DUP3 PUSH2 0x1974 JUMP JUMPDEST POP PUSH1 0x20 DUP4 ADD MLOAD DUP5 DUP3 SUB PUSH1 0x20 DUP7 ADD MSTORE PUSH2 0x1D8C DUP3 DUP3 PUSH2 0x1B04 JUMP JUMPDEST SWAP2 POP POP PUSH1 0x40 DUP4 ADD MLOAD DUP5 DUP3 SUB PUSH1 0x40 DUP7 ADD MSTORE PUSH2 0x1DA6 DUP3 DUP3 PUSH2 0x1B04 JUMP JUMPDEST SWAP2 POP POP PUSH1 0x60 DUP4 ADD MLOAD PUSH2 0x1DBB PUSH1 0x60 DUP7 ADD DUP3 PUSH2 0x1A77 JUMP JUMPDEST POP PUSH1 0x80 DUP4 ADD MLOAD PUSH2 0x1DCE PUSH1 0x80 DUP7 ADD DUP3 PUSH2 0x1A77 JUMP JUMPDEST POP PUSH1 0xA0 DUP4 ADD MLOAD PUSH2 0x1DE1 PUSH1 0xA0 DUP7 ADD DUP3 PUSH2 0x1A77 JUMP JUMPDEST POP PUSH1 0xC0 DUP4 ADD MLOAD PUSH2 0x1DF4 PUSH1 0xC0 DUP7 ADD DUP3 PUSH2 0x1B45 JUMP JUMPDEST POP DUP1 SWAP2 POP POP SWAP3 SWAP2 POP POP JUMP JUMPDEST PUSH0 PUSH2 0x1E0A DUP4 DUP4 PUSH2 0x1D5F JUMP JUMPDEST SWAP1 POP SWAP3 SWAP2 POP POP JUMP JUMPDEST PUSH0 PUSH1 0x20 DUP3 ADD SWAP1 POP SWAP2 SWAP1 POP JUMP JUMPDEST PUSH0 PUSH2 0x1E28 DUP3 PUSH2 0x1D36 JUMP JUMPDEST PUSH2 0x1E32 DUP2 DUP6 PUSH2 0x1D40 JUMP JUMPDEST SWAP4 POP DUP4 PUSH1 0x20 DUP3 MUL DUP6 ADD PUSH2 0x1E44 DUP6 PUSH2 0x1D50 JUMP JUMPDEST DUP1 PUSH0 JUMPDEST DUP6 DUP2 LT ISZERO PUSH2 0x1E7F JUMPI DUP5 DUP5 SUB DUP10 MSTORE DUP2 MLOAD PUSH2 0x1E60 DUP6 DUP3 PUSH2 0x1DFF JUMP JUMPDEST SWAP5 POP PUSH2 0x1E6B DUP4 PUSH2 0x1E12 JUMP JUMPDEST SWAP3 POP PUSH1 0x20 DUP11 ADD SWAP10 POP POP PUSH1 0x1 DUP2 ADD SWAP1 POP PUSH2 0x1E47 JUMP JUMPDEST POP DUP3 SWAP8 POP DUP8 SWAP6 POP POP POP POP POP POP SWAP3 SWAP2 POP POP JUMP JUMPDEST PUSH0 PUSH1 0x20 DUP3 ADD SWAP1 POP DUP2 DUP2 SUB PUSH0 DUP4 ADD MSTORE PUSH2 0x1EA9 DUP2 DUP5 PUSH2 0x1E1E JUMP JUMPDEST SWAP1 POP SWAP3 SWAP2 POP POP JUMP JUMPDEST PUSH32 0x566F74696E6720706572696F642068617320656E646564000000000000000000 PUSH0 DUP3 ADD MSTORE POP JUMP JUMPDEST PUSH0 PUSH2 0x1EE5 PUSH1 0x17 DUP4 PUSH2 0x1C64 JUMP JUMPDEST SWAP2 POP PUSH2 0x1EF0 DUP3 PUSH2 0x1EB1 JUMP JUMPDEST PUSH1 0x20 DUP3 ADD SWAP1 POP SWAP2 SWAP1 POP JUMP JUMPDEST PUSH0 PUSH1 0x20 DUP3 ADD SWAP1 POP DUP2 DUP2 SUB PUSH0 DUP4 ADD MSTORE PUSH2 0x1F12 DUP2 PUSH2 0x1ED9 JUMP JUMPDEST SWAP1 POP SWAP2 SWAP1 POP JUMP JUMPDEST PUSH32 0x596F7520616C726561647920766F746564000000000000000000000000000000 PUSH0 DUP3 ADD MSTORE POP JUMP JUMPDEST PUSH0 PUSH2 0x1F4D PUSH1 0x11 DUP4 PUSH2 0x1C64 JUMP JUMPDEST SWAP2 POP PUSH2 0x1F58 DUP3 PUSH2 0x1F19 JUMP JUMPDEST PUSH1 0x20 DUP3 ADD SWAP1 POP SWAP2 SWAP1 POP JUMP JUMPDEST PUSH0 PUSH1 0x20 DUP3 ADD SWAP1 POP DUP2 DUP2 SUB PUSH0 DUP4 ADD MSTORE PUSH2 0x1F7A DUP2 PUSH2 0x1F41 JUMP JUMPDEST SWAP1 POP SWAP2 SWAP1 POP JUMP JUMPDEST PUSH0 PUSH1 0x40 DUP3 ADD SWAP1 POP PUSH2 0x1F94 PUSH0 DUP4 ADD DUP6 PUSH2 0x1C14 JUMP JUMPDEST PUSH2 0x1FA1 PUSH1 0x20 DUP4 ADD DUP5 PUSH2 0x1C3C JUMP JUMPDEST SWAP4 SWAP3 POP POP POP JUMP JUMPDEST PUSH32 0x496E737566696369656E7420666F756E64732100000000000000000000000000 PUSH0 DUP3 ADD MSTORE POP JUMP JUMPDEST PUSH0 PUSH2 0x1FDC PUSH1 0x13 DUP4 PUSH2 0x1C64 JUMP JUMPDEST SWAP2 POP PUSH2 0x1FE7 DUP3 PUSH2 0x1FA8 JUMP JUMPDEST PUSH1 0x20 DUP3 ADD SWAP1 POP SWAP2 SWAP1 POP JUMP JUMPDEST PUSH0 PUSH1 0x20 DUP3 ADD SWAP1 POP DUP2 DUP2 SUB PUSH0 DUP4 ADD MSTORE PUSH2 0x2009 DUP2 PUSH2 0x1FD0 JUMP JUMPDEST SWAP1 POP SWAP2 SWAP1 POP JUMP JUMPDEST PUSH32 0x496E76616C6964206665652076616C7565000000000000000000000000000000 PUSH0 DUP3 ADD MSTORE POP JUMP JUMPDEST PUSH0 PUSH2 0x2044 PUSH1 0x11 DUP4 PUSH2 0x1C64 JUMP JUMPDEST SWAP2 POP PUSH2 0x204F DUP3 PUSH2 0x2010 JUMP JUMPDEST PUSH1 0x20 DUP3 ADD SWAP1 POP SWAP2 SWAP1 POP JUMP JUMPDEST PUSH0 PUSH1 0x20 DUP3 ADD SWAP1 POP DUP2 DUP2 SUB PUSH0 DUP4 ADD MSTORE PUSH2 0x2071 DUP2 PUSH2 0x2038 JUMP JUMPDEST SWAP1 POP SWAP2 SWAP1 POP JUMP JUMPDEST DUP3 DUP2 DUP4 CALLDATACOPY PUSH0 DUP4 DUP4 ADD MSTORE POP POP POP JUMP JUMPDEST PUSH0 PUSH2 0x2091 DUP4 DUP6 PUSH2 0x1C64 JUMP JUMPDEST SWAP4 POP PUSH2 0x209E DUP4 DUP6 DUP5 PUSH2 0x2078 JUMP JUMPDEST PUSH2 0x20A7 DUP4 PUSH2 0x1AF4 JUMP JUMPDEST DUP5 ADD SWAP1 POP SWAP4 SWAP3 POP POP POP JUMP JUMPDEST PUSH0 PUSH1 0x40 DUP3 ADD SWAP1 POP DUP2 DUP2 SUB PUSH0 DUP4 ADD MSTORE PUSH2 0x20CB DUP2 DUP7 DUP9 PUSH2 0x2086 JUMP JUMPDEST SWAP1 POP DUP2 DUP2 SUB PUSH1 0x20 DUP4 ADD MSTORE PUSH2 0x20E0 DUP2 DUP5 DUP7 PUSH2 0x2086 JUMP JUMPDEST SWAP1 POP SWAP6 SWAP5 POP POP POP POP POP JUMP JUMPDEST PUSH0 DUP1 REVERT JUMPDEST PUSH32 0x4E487B7100000000000000000000000000000000000000000000000000000000 PUSH0 MSTORE PUSH1 0x41 PUSH1 0x4 MSTORE PUSH1 0x24 PUSH0 REVERT JUMPDEST PUSH2 0x2125 DUP3 PUSH2 0x1AF4 JUMP JUMPDEST DUP2 ADD DUP2 DUP2 LT PUSH8 0xFFFFFFFFFFFFFFFF DUP3 GT OR ISZERO PUSH2 0x2144 JUMPI PUSH2 0x2143 PUSH2 0x20EF JUMP JUMPDEST JUMPDEST DUP1 PUSH1 0x40 MSTORE POP POP POP JUMP JUMPDEST PUSH0 PUSH2 0x2156 PUSH2 0x17CD JUMP JUMPDEST SWAP1 POP PUSH2 0x2162 DUP3 DUP3 PUSH2 0x211C JUMP JUMPDEST SWAP2 SWAP1 POP JUMP JUMPDEST PUSH0 DUP1 REVERT JUMPDEST PUSH0 DUP2 MLOAD SWAP1 POP PUSH2 0x2179 DUP2 PUSH2 0x1A22 JUMP JUMPDEST SWAP3 SWAP2 POP POP JUMP JUMPDEST PUSH0 DUP1 REVERT JUMPDEST PUSH0 PUSH8 0xFFFFFFFFFFFFFFFF DUP3 GT ISZERO PUSH2 0x219D JUMPI PUSH2 0x219C PUSH2 0x20EF JUMP JUMPDEST JUMPDEST PUSH2 0x21A6 DUP3 PUSH2 0x1AF4 JUMP JUMPDEST SWAP1 POP PUSH1 0x20 DUP2 ADD SWAP1 POP SWAP2 SWAP1 POP JUMP JUMPDEST PUSH0 PUSH2 0x21C5 PUSH2 0x21C0 DUP5 PUSH2 0x2183 JUMP JUMPDEST PUSH2 0x214D JUMP JUMPDEST SWAP1 POP DUP3 DUP2 MSTORE PUSH1 0x20 DUP2 ADD DUP5 DUP5 DUP5 ADD GT ISZERO PUSH2 0x21E1 JUMPI PUSH2 0x21E0 PUSH2 0x217F JUMP JUMPDEST JUMPDEST PUSH2 0x21EC DUP5 DUP3 DUP6 PUSH2 0x1AE6 JUMP JUMPDEST POP SWAP4 SWAP3 POP POP POP JUMP JUMPDEST PUSH0 DUP3 PUSH1 0x1F DUP4 ADD SLT PUSH2 0x2208 JUMPI PUSH2 0x2207 PUSH2 0x183C JUMP JUMPDEST JUMPDEST DUP2 MLOAD PUSH2 0x2218 DUP5 DUP3 PUSH1 0x20 DUP7 ADD PUSH2 0x21B3 JUMP JUMPDEST SWAP2 POP POP SWAP3 SWAP2 POP POP JUMP JUMPDEST PUSH0 DUP2 MLOAD SWAP1 POP PUSH2 0x222F DUP2 PUSH2 0x17E7 JUMP JUMPDEST SWAP3 SWAP2 POP POP JUMP JUMPDEST PUSH2 0x223E DUP2 PUSH2 0x1B3C JUMP JUMPDEST DUP2 EQ PUSH2 0x2248 JUMPI PUSH0 DUP1 REVERT JUMPDEST POP JUMP JUMPDEST PUSH0 DUP2 MLOAD SWAP1 POP PUSH2 0x2259 DUP2 PUSH2 0x2235 JUMP JUMPDEST SWAP3 SWAP2 POP POP JUMP JUMPDEST PUSH0 PUSH1 0xE0 DUP3 DUP5 SUB SLT ISZERO PUSH2 0x2274 JUMPI PUSH2 0x2273 PUSH2 0x20EB JUMP JUMPDEST JUMPDEST PUSH2 0x227E PUSH1 0xE0 PUSH2 0x214D JUMP JUMPDEST SWAP1 POP PUSH0 PUSH2 0x228D DUP5 DUP3 DUP6 ADD PUSH2 0x216B JUMP JUMPDEST PUSH0 DUP4 ADD MSTORE POP PUSH1 0x20 DUP3 ADD MLOAD PUSH8 0xFFFFFFFFFFFFFFFF DUP2 GT ISZERO PUSH2 0x22B0 JUMPI PUSH2 0x22AF PUSH2 0x2167 JUMP JUMPDEST JUMPDEST PUSH2 0x22BC DUP5 DUP3 DUP6 ADD PUSH2 0x21F4 JUMP JUMPDEST PUSH1 0x20 DUP4 ADD MSTORE POP PUSH1 0x40 DUP3 ADD MLOAD PUSH8 0xFFFFFFFFFFFFFFFF DUP2 GT ISZERO PUSH2 0x22E0 JUMPI PUSH2 0x22DF PUSH2 0x2167 JUMP JUMPDEST JUMPDEST PUSH2 0x22EC DUP5 DUP3 DUP6 ADD PUSH2 0x21F4 JUMP JUMPDEST PUSH1 0x40 DUP4 ADD MSTORE POP PUSH1 0x60 PUSH2 0x2300 DUP5 DUP3 DUP6 ADD PUSH2 0x2221 JUMP JUMPDEST PUSH1 0x60 DUP4 ADD MSTORE POP PUSH1 0x80 PUSH2 0x2314 DUP5 DUP3 DUP6 ADD PUSH2 0x2221 JUMP JUMPDEST PUSH1 0x80 DUP4 ADD MSTORE POP PUSH1 0xA0 PUSH2 0x2328 DUP5 DUP3 DUP6 ADD PUSH2 0x2221 JUMP JUMPDEST PUSH1 0xA0 DUP4 ADD MSTORE POP PUSH1 0xC0 PUSH2 0x233C DUP5 DUP3 DUP6 ADD PUSH2 0x224B JUMP JUMPDEST PUSH1 0xC0 DUP4 ADD MSTORE POP SWAP3 SWAP2 POP POP JUMP JUMPDEST PUSH0 PUSH1 0x20 DUP3 DUP5 SUB SLT ISZERO PUSH2 0x235D JUMPI PUSH2 0x235C PUSH2 0x17D6 JUMP JUMPDEST JUMPDEST PUSH0 DUP3 ADD MLOAD PUSH8 0xFFFFFFFFFFFFFFFF DUP2 GT ISZERO PUSH2 0x237A JUMPI PUSH2 0x2379 PUSH2 0x17DA JUMP JUMPDEST JUMPDEST PUSH2 0x2386 DUP5 DUP3 DUP6 ADD PUSH2 0x225F JUMP JUMPDEST SWAP2 POP POP SWAP3 SWAP2 POP POP JUMP JUMPDEST PUSH0 DUP2 SWAP1 POP SWAP2 SWAP1 POP JUMP JUMPDEST PUSH0 DUP2 SWAP1 POP SWAP2 SWAP1 POP JUMP JUMPDEST PUSH0 PUSH2 0x23BB PUSH2 0x23B6 PUSH2 0x23B1 DUP5 PUSH2 0x238F JUMP JUMPDEST PUSH2 0x2398 JUMP JUMPDEST PUSH2 0x17DE JUMP JUMPDEST SWAP1 POP SWAP2 SWAP1 POP JUMP JUMPDEST PUSH2 0x23CB DUP2 PUSH2 0x23A1 JUMP JUMPDEST DUP3 MSTORE POP POP JUMP JUMPDEST PUSH0 PUSH1 0xA0 DUP3 ADD SWAP1 POP DUP2 DUP2 SUB PUSH0 DUP4 ADD MSTORE PUSH2 0x23EA DUP2 DUP10 DUP12 PUSH2 0x2086 JUMP JUMPDEST SWAP1 POP DUP2 DUP2 SUB PUSH1 0x20 DUP4 ADD MSTORE PUSH2 0x23FF DUP2 DUP8 DUP10 PUSH2 0x2086 JUMP JUMPDEST SWAP1 POP PUSH2 0x240E PUSH1 0x40 DUP4 ADD DUP7 PUSH2 0x1C3C JUMP JUMPDEST PUSH2 0x241B PUSH1 0x60 DUP4 ADD DUP6 PUSH2 0x23C2 JUMP JUMPDEST PUSH2 0x2428 PUSH1 0x80 DUP4 ADD DUP5 PUSH2 0x1C3C JUMP JUMPDEST SWAP9 SWAP8 POP POP POP POP POP POP POP POP JUMP JUMPDEST PUSH32 0x596F7520686176656E277420766F746564207965740000000000000000000000 PUSH0 DUP3 ADD MSTORE POP JUMP JUMPDEST PUSH0 PUSH2 0x2468 PUSH1 0x15 DUP4 PUSH2 0x1C64 JUMP JUMPDEST SWAP2 POP PUSH2 0x2473 DUP3 PUSH2 0x2434 JUMP JUMPDEST PUSH1 0x20 DUP3 ADD SWAP1 POP SWAP2 SWAP1 POP JUMP JUMPDEST PUSH0 PUSH1 0x20 DUP3 ADD SWAP1 POP DUP2 DUP2 SUB PUSH0 DUP4 ADD MSTORE PUSH2 0x2495 DUP2 PUSH2 0x245C JUMP JUMPDEST SWAP1 POP SWAP2 SWAP1 POP JUMP JUMPDEST PUSH0 DUP2 SLOAD SWAP1 POP SWAP2 SWAP1 POP JUMP JUMPDEST PUSH0 DUP3 DUP3 MSTORE PUSH1 0x20 DUP3 ADD SWAP1 POP SWAP3 SWAP2 POP POP JUMP JUMPDEST PUSH0 DUP2 SWAP1 POP DUP2 PUSH0 MSTORE PUSH1 0x20 PUSH0 KECCAK256 SWAP1 POP SWAP2 SWAP1 POP JUMP JUMPDEST PUSH2 0x24D1 DUP2 PUSH2 0x1963 JUMP JUMPDEST DUP3 MSTORE POP POP JUMP JUMPDEST PUSH0 PUSH2 0x24E2 DUP4 DUP4 PUSH2 0x24C8 JUMP JUMPDEST PUSH1 0x20 DUP4 ADD SWAP1 POP SWAP3 SWAP2 POP POP JUMP JUMPDEST PUSH0 DUP2 PUSH0 SHR SWAP1 POP SWAP2 SWAP1 POP JUMP JUMPDEST PUSH0 PUSH20 0xFFFFFFFFFFFFFFFFFFFFFFFFFFFFFFFFFFFFFFFF DUP3 AND SWAP1 POP SWAP2 SWAP1 POP JUMP JUMPDEST PUSH0 PUSH2 0x252A PUSH2 0x2525 DUP4 PUSH2 0x24EE JUMP JUMPDEST PUSH2 0x24F9 JUMP JUMPDEST SWAP1 POP SWAP2 SWAP1 POP JUMP JUMPDEST PUSH0 PUSH2 0x253C DUP3 SLOAD PUSH2 0x2518 JUMP JUMPDEST SWAP1 POP SWAP2 SWAP1 POP JUMP JUMPDEST PUSH0 PUSH1 0x1 DUP3 ADD SWAP1 POP SWAP2 SWAP1 POP JUMP JUMPDEST PUSH0 PUSH2 0x2559 DUP3 PUSH2 0x249C JUMP JUMPDEST PUSH2 0x2563 DUP2 DUP6 PUSH2 0x24A6 JUMP JUMPDEST SWAP4 POP PUSH2 0x256E DUP4 PUSH2 0x24B6 JUMP JUMPDEST DUP1 PUSH0 JUMPDEST DUP4 DUP2 LT ISZERO PUSH2 0x25A5 JUMPI PUSH2 0x2582 DUP3 PUSH2 0x2531 JUMP JUMPDEST PUSH2 0x258C DUP9 DUP3 PUSH2 0x24D7 JUMP JUMPDEST SWAP8 POP PUSH2 0x2597 DUP4 PUSH2 0x2543 JUMP JUMPDEST SWAP3 POP POP PUSH1 0x1 DUP2 ADD SWAP1 POP PUSH2 0x2571 JUMP JUMPDEST POP DUP6 SWAP4 POP POP POP POP SWAP3 SWAP2 POP POP JUMP JUMPDEST PUSH2 0x25BB DUP2 PUSH2 0x1963 JUMP JUMPDEST DUP3 MSTORE POP POP JUMP JUMPDEST PUSH0 PUSH1 0x40 DUP3 ADD SWAP1 POP DUP2 DUP2 SUB PUSH0 DUP4 ADD MSTORE PUSH2 0x25D9 DUP2 DUP6 PUSH2 0x254F JUMP JUMPDEST SWAP1 POP PUSH2 0x25E8 PUSH1 0x20 DUP4 ADD DUP5 PUSH2 0x25B2 JUMP JUMPDEST SWAP4 SWAP3 POP POP POP JUMP JUMPDEST PUSH0 PUSH1 0x20 DUP3 DUP5 SUB SLT ISZERO PUSH2 0x2604 JUMPI PUSH2 0x2603 PUSH2 0x17D6 JUMP JUMPDEST JUMPDEST PUSH0 PUSH2 0x2611 DUP5 DUP3 DUP6 ADD PUSH2 0x2221 JUMP JUMPDEST SWAP2 POP POP SWAP3 SWAP2 POP POP JUMP JUMPDEST PUSH2 0x2623 DUP2 PUSH2 0x17DE JUMP JUMPDEST DUP3 MSTORE POP POP JUMP JUMPDEST PUSH0 PUSH1 0x40 DUP3 ADD SWAP1 POP DUP2 DUP2 SUB PUSH0 DUP4 ADD MSTORE PUSH2 0x2641 DUP2 DUP6 PUSH2 0x254F JUMP JUMPDEST SWAP1 POP PUSH2 0x2650 PUSH1 0x20 DUP4 ADD DUP5 PUSH2 0x261A JUMP JUMPDEST SWAP4 SWAP3 POP POP POP JUMP JUMPDEST PUSH0 PUSH8 0xFFFFFFFFFFFFFFFF DUP3 GT ISZERO PUSH2 0x2671 JUMPI PUSH2 0x2670 PUSH2 0x20EF JUMP JUMPDEST JUMPDEST PUSH1 0x20 DUP3 MUL SWAP1 POP PUSH1 0x20 DUP2 ADD SWAP1 POP SWAP2 SWAP1 POP JUMP JUMPDEST PUSH0 PUSH2 0x2694 PUSH2 0x268F DUP5 PUSH2 0x2657 JUMP JUMPDEST PUSH2 0x214D JUMP JUMPDEST SWAP1 POP DUP1 DUP4 DUP3 MSTORE PUSH1 0x20 DUP3 ADD SWAP1 POP PUSH1 0x20 DUP5 MUL DUP4 ADD DUP6 DUP2 GT ISZERO PUSH2 0x26B7 JUMPI PUSH2 0x26B6 PUSH2 0x1844 JUMP JUMPDEST JUMPDEST DUP4 JUMPDEST DUP2 DUP2 LT ISZERO PUSH2 0x26E0 JUMPI DUP1 PUSH2 0x26CC DUP9 DUP3 PUSH2 0x216B JUMP JUMPDEST DUP5 MSTORE PUSH1 0x20 DUP5 ADD SWAP4 POP POP PUSH1 0x20 DUP2 ADD SWAP1 POP PUSH2 0x26B9 JUMP JUMPDEST POP POP POP SWAP4 SWAP3 POP POP POP JUMP JUMPDEST PUSH0 DUP3 PUSH1 0x1F DUP4 ADD SLT PUSH2 0x26FE JUMPI PUSH2 0x26FD PUSH2 0x183C JUMP JUMPDEST JUMPDEST DUP2 MLOAD PUSH2 0x270E DUP5 DUP3 PUSH1 0x20 DUP7 ADD PUSH2 0x2682 JUMP JUMPDEST SWAP2 POP POP SWAP3 SWAP2 POP POP JUMP JUMPDEST PUSH0 PUSH1 0x20 DUP3 DUP5 SUB SLT ISZERO PUSH2 0x272C JUMPI PUSH2 0x272B PUSH2 0x17D6 JUMP JUMPDEST JUMPDEST PUSH0 DUP3 ADD MLOAD PUSH8 0xFFFFFFFFFFFFFFFF DUP2 GT ISZERO PUSH2 0x2749 JUMPI PUSH2 0x2748 PUSH2 0x17DA JUMP JUMPDEST JUMPDEST PUSH2 0x2755 DUP5 DUP3 DUP6 ADD PUSH2 0x26EA JUMP JUMPDEST SWAP2 POP POP SWAP3 SWAP2 POP POP JUMP JUMPDEST PUSH32 0x4E487B7100000000000000000000000000000000000000000000000000000000 PUSH0 MSTORE PUSH1 0x22 PUSH1 0x4 MSTORE PUSH1 0x24 PUSH0 REVERT JUMPDEST PUSH0 PUSH1 0x2 DUP3 DIV SWAP1 POP PUSH1 0x1 DUP3 AND DUP1 PUSH2 0x27A2 JUMPI PUSH1 0x7F DUP3 AND SWAP2 POP JUMPDEST PUSH1 0x20 DUP3 LT DUP2 SUB PUSH2 0x27B5 JUMPI PUSH2 0x27B4 PUSH2 0x275E JUMP JUMPDEST JUMPDEST POP SWAP2 SWAP1 POP JUMP JUMPDEST PUSH0 PUSH10 0xFFFFFFFFFFFFFFFFFFFF DUP3 AND SWAP1 POP SWAP2 SWAP1 POP JUMP JUMPDEST PUSH2 0x27D9 DUP2 PUSH2 0x27BB JUMP JUMPDEST DUP2 EQ PUSH2 0x27E3 JUMPI PUSH0 DUP1 REVERT JUMPDEST POP JUMP JUMPDEST PUSH0 DUP2 MLOAD SWAP1 POP PUSH2 0x27F4 DUP2 PUSH2 0x27D0 JUMP JUMPDEST SWAP3 SWAP2 POP POP JUMP JUMPDEST PUSH0 DUP2 SWAP1 POP SWAP2 SWAP1 POP JUMP JUMPDEST PUSH2 0x280C DUP2 PUSH2 0x27FA JUMP JUMPDEST DUP2 EQ PUSH2 0x2816 JUMPI PUSH0 DUP1 REVERT JUMPDEST POP JUMP JUMPDEST PUSH0 DUP2 MLOAD SWAP1 POP PUSH2 0x2827 DUP2 PUSH2 0x2803 JUMP JUMPDEST SWAP3 SWAP2 POP POP JUMP JUMPDEST PUSH0 DUP1 PUSH0 DUP1 PUSH0 PUSH1 0xA0 DUP7 DUP9 SUB SLT ISZERO PUSH2 0x2846 JUMPI PUSH2 0x2845 PUSH2 0x17D6 JUMP JUMPDEST JUMPDEST PUSH0 PUSH2 0x2853 DUP9 DUP3 DUP10 ADD PUSH2 0x27E6 JUMP JUMPDEST SWAP6 POP POP PUSH1 0x20 PUSH2 0x2864 DUP9 DUP3 DUP10 ADD PUSH2 0x2819 JUMP JUMPDEST SWAP5 POP POP PUSH1 0x40 PUSH2 0x2875 DUP9 DUP3 DUP10 ADD PUSH2 0x2221 JUMP JUMPDEST SWAP4 POP POP PUSH1 0x60 PUSH2 0x2886 DUP9 DUP3 DUP10 ADD PUSH2 0x2221 JUMP JUMPDEST SWAP3 POP POP PUSH1 0x80 PUSH2 0x2897 DUP9 DUP3 DUP10 ADD PUSH2 0x27E6 JUMP JUMPDEST SWAP2 POP POP SWAP3 SWAP6 POP SWAP3 SWAP6 SWAP1 SWAP4 POP JUMP JUMPDEST PUSH32 0x4E487B7100000000000000000000000000000000000000000000000000000000 PUSH0 MSTORE PUSH1 0x12 PUSH1 0x4 MSTORE PUSH1 0x24 PUSH0 REVERT JUMPDEST PUSH32 0x4E487B7100000000000000000000000000000000000000000000000000000000 PUSH0 MSTORE PUSH1 0x11 PUSH1 0x4 MSTORE PUSH1 0x24 PUSH0 REVERT JUMPDEST PUSH0 PUSH2 0x2908 DUP3 PUSH2 0x17DE JUMP JUMPDEST SWAP2 POP PUSH2 0x2913 DUP4 PUSH2 0x17DE JUMP JUMPDEST SWAP3 POP DUP3 PUSH2 0x2923 JUMPI PUSH2 0x2922 PUSH2 0x28A4 JUMP JUMPDEST JUMPDEST DUP3 DUP3 DIV SWAP1 POP SWAP3 SWAP2 POP POP JUMP JUMPDEST PUSH0 PUSH2 0x2938 DUP3 PUSH2 0x17DE JUMP JUMPDEST SWAP2 POP PUSH2 0x2943 DUP4 PUSH2 0x17DE JUMP JUMPDEST SWAP3 POP DUP3 DUP3 ADD SWAP1 POP DUP1 DUP3 GT ISZERO PUSH2 0x295B JUMPI PUSH2 0x295A PUSH2 0x28D1 JUMP JUMPDEST JUMPDEST SWAP3 SWAP2 POP POP JUMP JUMPDEST PUSH0 PUSH8 0xFFFFFFFFFFFFFFFF DUP3 GT ISZERO PUSH2 0x297B JUMPI PUSH2 0x297A PUSH2 0x20EF JUMP JUMPDEST JUMPDEST PUSH1 0x20 DUP3 MUL SWAP1 POP PUSH1 0x20 DUP2 ADD SWAP1 POP SWAP2 SWAP1 POP JUMP JUMPDEST PUSH0 PUSH2 0x299E PUSH2 0x2999 DUP5 PUSH2 0x2961 JUMP JUMPDEST PUSH2 0x214D JUMP JUMPDEST SWAP1 POP DUP1 DUP4 DUP3 MSTORE PUSH1 0x20 DUP3 ADD SWAP1 POP PUSH1 0x20 DUP5 MUL DUP4 ADD DUP6 DUP2 GT ISZERO PUSH2 0x29C1 JUMPI PUSH2 0x29C0 PUSH2 0x1844 JUMP JUMPDEST JUMPDEST DUP4 JUMPDEST DUP2 DUP2 LT ISZERO PUSH2 0x2A08 JUMPI DUP1 MLOAD PUSH8 0xFFFFFFFFFFFFFFFF DUP2 GT ISZERO PUSH2 0x29E6 JUMPI PUSH2 0x29E5 PUSH2 0x183C JUMP JUMPDEST JUMPDEST DUP1 DUP7 ADD PUSH2 0x29F3 DUP10 DUP3 PUSH2 0x225F JUMP JUMPDEST DUP6 MSTORE PUSH1 0x20 DUP6 ADD SWAP5 POP POP POP PUSH1 0x20 DUP2 ADD SWAP1 POP PUSH2 0x29C3 JUMP JUMPDEST POP POP POP SWAP4 SWAP3 POP POP POP JUMP JUMPDEST PUSH0 DUP3 PUSH1 0x1F DUP4 ADD SLT PUSH2 0x2A26 JUMPI PUSH2 0x2A25 PUSH2 0x183C JUMP JUMPDEST JUMPDEST DUP2 MLOAD PUSH2 0x2A36 DUP5 DUP3 PUSH1 0x20 DUP7 ADD PUSH2 0x298C JUMP JUMPDEST SWAP2 POP POP SWAP3 SWAP2 POP POP JUMP JUMPDEST PUSH0 PUSH1 0x20 DUP3 DUP5 SUB SLT ISZERO PUSH2 0x2A54 JUMPI PUSH2 0x2A53 PUSH2 0x17D6 JUMP JUMPDEST JUMPDEST PUSH0 DUP3 ADD MLOAD PUSH8 0xFFFFFFFFFFFFFFFF DUP2 GT ISZERO PUSH2 0x2A71 JUMPI PUSH2 0x2A70 PUSH2 0x17DA JUMP JUMPDEST JUMPDEST PUSH2 0x2A7D DUP5 DUP3 DUP6 ADD PUSH2 0x2A12 JUMP JUMPDEST SWAP2 POP POP SWAP3 SWAP2 POP POP JUMP JUMPDEST PUSH0 DUP2 SWAP1 POP DUP2 PUSH0 MSTORE PUSH1 0x20 PUSH0 KECCAK256 SWAP1 POP SWAP2 SWAP1 POP JUMP JUMPDEST PUSH0 PUSH1 0x20 PUSH1 0x1F DUP4 ADD DIV SWAP1 POP SWAP2 SWAP1 POP JUMP JUMPDEST PUSH0 DUP3 DUP3 SHL SWAP1 POP SWAP3 SWAP2 POP POP JUMP JUMPDEST PUSH0 PUSH1 0x8 DUP4 MUL PUSH2 0x2AE2 PUSH32 0xFFFFFFFFFFFFFFFFFFFFFFFFFFFFFFFFFFFFFFFFFFFFFFFFFFFFFFFFFFFFFFFF DUP3 PUSH2 0x2AA7 JUMP JUMPDEST PUSH2 0x2AEC DUP7 DUP4 PUSH2 0x2AA7 JUMP JUMPDEST SWAP6 POP DUP1 NOT DUP5 AND SWAP4 POP DUP1 DUP7 AND DUP5 OR SWAP3 POP POP POP SWAP4 SWAP3 POP POP POP JUMP JUMPDEST PUSH0 PUSH2 0x2B1E PUSH2 0x2B19 PUSH2 0x2B14 DUP5 PUSH2 0x17DE JUMP JUMPDEST PUSH2 0x2398 JUMP JUMPDEST PUSH2 0x17DE JUMP JUMPDEST SWAP1 POP SWAP2 SWAP1 POP JUMP JUMPDEST PUSH0 DUP2 SWAP1 POP SWAP2 SWAP1 POP JUMP JUMPDEST PUSH2 0x2B37 DUP4 PUSH2 0x2B04 JUMP JUMPDEST PUSH2 0x2B4B PUSH2 0x2B43 DUP3 PUSH2 0x2B25 JUMP JUMPDEST DUP5 DUP5 SLOAD PUSH2 0x2AB3 JUMP JUMPDEST DUP3 SSTORE POP POP POP POP JUMP JUMPDEST PUSH0 SWAP1 JUMP JUMPDEST PUSH2 0x2B5F PUSH2 0x2B53 JUMP JUMPDEST PUSH2 0x2B6A DUP2 DUP5 DUP5 PUSH2 0x2B2E JUMP JUMPDEST POP POP POP JUMP JUMPDEST JUMPDEST DUP2 DUP2 LT ISZERO PUSH2 0x2B8D JUMPI PUSH2 0x2B82 PUSH0 DUP3 PUSH2 0x2B57 JUMP JUMPDEST PUSH1 0x1 DUP2 ADD SWAP1 POP PUSH2 0x2B70 JUMP JUMPDEST POP POP JUMP JUMPDEST PUSH1 0x1F DUP3 GT ISZERO PUSH2 0x2BD2 JUMPI PUSH2 0x2BA3 DUP2 PUSH2 0x2A86 JUMP JUMPDEST PUSH2 0x2BAC DUP5 PUSH2 0x2A98 JUMP JUMPDEST DUP2 ADD PUSH1 0x20 DUP6 LT ISZERO PUSH2 0x2BBB JUMPI DUP2 SWAP1 POP JUMPDEST PUSH2 0x2BCF PUSH2 0x2BC7 DUP6 PUSH2 0x2A98 JUMP JUMPDEST DUP4 ADD DUP3 PUSH2 0x2B6F JUMP JUMPDEST POP POP JUMPDEST POP POP POP JUMP JUMPDEST PUSH0 DUP3 DUP3 SHR SWAP1 POP SWAP3 SWAP2 POP POP JUMP JUMPDEST PUSH0 PUSH2 0x2BF2 PUSH0 NOT DUP5 PUSH1 0x8 MUL PUSH2 0x2BD7 JUMP JUMPDEST NOT DUP1 DUP4 AND SWAP2 POP POP SWAP3 SWAP2 POP POP JUMP JUMPDEST PUSH0 PUSH2 0x2C0A DUP4 DUP4 PUSH2 0x2BE3 JUMP JUMPDEST SWAP2 POP DUP3 PUSH1 0x2 MUL DUP3 OR SWAP1 POP SWAP3 SWAP2 POP POP JUMP JUMPDEST PUSH2 0x2C23 DUP3 PUSH2 0x1ACC JUMP JUMPDEST PUSH8 0xFFFFFFFFFFFFFFFF DUP2 GT ISZERO PUSH2 0x2C3C JUMPI PUSH2 0x2C3B PUSH2 0x20EF JUMP JUMPDEST JUMPDEST PUSH2 0x2C46 DUP3 SLOAD PUSH2 0x278B JUMP JUMPDEST PUSH2 0x2C51 DUP3 DUP3 DUP6 PUSH2 0x2B91 JUMP JUMPDEST PUSH0 PUSH1 0x20 SWAP1 POP PUSH1 0x1F DUP4 GT PUSH1 0x1 DUP2 EQ PUSH2 0x2C82 JUMPI PUSH0 DUP5 ISZERO PUSH2 0x2C70 JUMPI DUP3 DUP8 ADD MLOAD SWAP1 POP JUMPDEST PUSH2 0x2C7A DUP6 DUP3 PUSH2 0x2BFF JUMP JUMPDEST DUP7 SSTORE POP PUSH2 0x2CE1 JUMP JUMPDEST PUSH1 0x1F NOT DUP5 AND PUSH2 0x2C90 DUP7 PUSH2 0x2A86 JUMP JUMPDEST PUSH0 JUMPDEST DUP3 DUP2 LT ISZERO PUSH2 0x2CB7 JUMPI DUP5 DUP10 ADD MLOAD DUP3 SSTORE PUSH1 0x1 DUP3 ADD SWAP2 POP PUSH1 0x20 DUP6 ADD SWAP5 POP PUSH1 0x20 DUP2 ADD SWAP1 POP PUSH2 0x2C92 JUMP JUMPDEST DUP7 DUP4 LT ISZERO PUSH2 0x2CD4 JUMPI DUP5 DUP10 ADD MLOAD PUSH2 0x2CD0 PUSH1 0x1F DUP10 AND DUP3 PUSH2 0x2BE3 JUMP JUMPDEST DUP4 SSTORE POP JUMPDEST PUSH1 0x1 PUSH1 0x2 DUP9 MUL ADD DUP9 SSTORE POP POP POP JUMPDEST POP POP POP POP POP POP JUMP JUMPDEST PUSH0 DUP2 SLOAD PUSH2 0x2CF5 DUP2 PUSH2 0x278B JUMP JUMPDEST PUSH2 0x2CFF DUP2 DUP7 PUSH2 0x1C64 JUMP JUMPDEST SWAP5 POP PUSH1 0x1 DUP3 AND PUSH0 DUP2 EQ PUSH2 0x2D19 JUMPI PUSH1 0x1 DUP2 EQ PUSH2 0x2D2F JUMPI PUSH2 0x2D61 JUMP JUMPDEST PUSH1 0xFF NOT DUP4 AND DUP7 MSTORE DUP2 ISZERO ISZERO PUSH1 0x20 MUL DUP7 ADD SWAP4 POP PUSH2 0x2D61 JUMP JUMPDEST PUSH2 0x2D38 DUP6 PUSH2 0x2A86 JUMP JUMPDEST PUSH0 JUMPDEST DUP4 DUP2 LT ISZERO PUSH2 0x2D59 JUMPI DUP2 SLOAD DUP2 DUP10 ADD MSTORE PUSH1 0x1 DUP3 ADD SWAP2 POP PUSH1 0x20 DUP2 ADD SWAP1 POP PUSH2 0x2D3A JUMP JUMPDEST DUP1 DUP9 ADD SWAP6 POP POP POP JUMPDEST POP POP POP SWAP3 SWAP2 POP POP JUMP JUMPDEST PUSH0 PUSH1 0x20 DUP3 ADD SWAP1 POP DUP2 DUP2 SUB PUSH0 DUP4 ADD MSTORE PUSH2 0x2D82 DUP2 DUP5 PUSH2 0x2CE9 JUMP JUMPDEST SWAP1 POP SWAP3 SWAP2 POP POP JUMP JUMPDEST PUSH32 0x4E487B7100000000000000000000000000000000000000000000000000000000 PUSH0 MSTORE PUSH1 0x32 PUSH1 0x4 MSTORE PUSH1 0x24 PUSH0 REVERT INVALID LOG2 PUSH5 0x6970667358 0x22 SLT KECCAK256 0xB3 EXTCODECOPY EXTCODESIZE PUSH28 0x3FC0BA3385EA6FEE35FCEF3FDA78DDD64EAD5040B91E773CFE046B74 PUSH5 0x736F6C6343 STOP ADDMOD NOT STOP CALLER "
		},
		"gasEstimates": {
			"creation": {
				"codeDepositCost": "2351400",
				"executionCost": "infinite",
				"totalCost": "infinite"
			},
			"external": {
				"getFee()": "2498",
				"getLastWinningProposal()": "infinite",
				"getLatestPrice()": "infinite",
				"getPeriodInterval()": "infinite",
				"getVotes()": "infinite",
				"getWinningPoposel()": "infinite",
				"lastWinningProposal()": "infinite",
				"listProposels()": "infinite",
				"makeTransfer(address)": "infinite",
				"owner()": "2560",
				"renounceOwnership()": "infinite",
				"resetPeriod()": "infinite",
				"setFee(uint256)": "infinite",
				"setProposel(string,string)": "infinite",
				"setProposelContractAddress(address)": "infinite",
				"transferOwnership(address)": "infinite",
				"unvote()": "infinite",
				"vote(uint256)": "infinite"
			},
			"internal": {
				"resetVotes()": "infinite"
			}
		},
		"methodIdentifiers": {
			"getFee()": "ced72f87",
			"getLastWinningProposal()": "76f90e8e",
			"getLatestPrice()": "8e15f473",
			"getPeriodInterval()": "52505453",
			"getVotes()": "0dc96015",
			"getWinningPoposel()": "ffeb78b7",
			"lastWinningProposal()": "90ab1d8e",
			"listProposels()": "94964edf",
			"makeTransfer(address)": "2d5cea8e",
			"owner()": "8da5cb5b",
			"renounceOwnership()": "715018a6",
			"resetPeriod()": "944c1d97",
			"setFee(uint256)": "69fe0e2d",
			"setProposel(string,string)": "06db5c06",
			"setProposelContractAddress(address)": "26732549",
			"transferOwnership(address)": "f2fde38b",
			"unvote()": "3174b689",
			"vote(uint256)": "0121b93f"
		}
	},
	"abi": [
		{
			"inputs": [
				{
					"internalType": "address",
					"name": "IProposelContractAddress",
					"type": "address"
				}
			],
			"stateMutability": "nonpayable",
			"type": "constructor"
		},
		{
			"inputs": [],
			"name": "InvalidInitialization",
			"type": "error"
		},
		{
			"inputs": [],
			"name": "NotInitializing",
			"type": "error"
		},
		{
			"inputs": [
				{
					"internalType": "address",
					"name": "owner",
					"type": "address"
				}
			],
			"name": "OwnableInvalidOwner",
			"type": "error"
		},
		{
			"inputs": [
				{
					"internalType": "address",
					"name": "account",
					"type": "address"
				}
			],
			"name": "OwnableUnauthorizedAccount",
			"type": "error"
		},
		{
			"anonymous": false,
			"inputs": [
				{
					"indexed": false,
					"internalType": "uint64",
					"name": "version",
					"type": "uint64"
				}
			],
			"name": "Initialized",
			"type": "event"
		},
		{
			"anonymous": false,
			"inputs": [
				{
					"indexed": true,
					"internalType": "address",
					"name": "previousOwner",
					"type": "address"
				},
				{
					"indexed": true,
					"internalType": "address",
					"name": "newOwner",
					"type": "address"
				}
			],
			"name": "OwnershipTransferred",
			"type": "event"
		},
		{
			"anonymous": false,
			"inputs": [
				{
					"indexed": false,
					"internalType": "string",
					"name": "name",
					"type": "string"
				},
				{
					"indexed": false,
					"internalType": "string",
					"name": "url",
					"type": "string"
				},
				{
					"indexed": false,
					"internalType": "uint256",
					"name": "timestamp",
					"type": "uint256"
				},
				{
					"indexed": false,
					"internalType": "uint256",
					"name": "votes",
					"type": "uint256"
				},
				{
					"indexed": false,
					"internalType": "uint256",
					"name": "id",
					"type": "uint256"
				}
			],
			"name": "ProposelAdded",
			"type": "event"
		},
		{
			"anonymous": false,
			"inputs": [
				{
					"indexed": false,
					"internalType": "uint256",
					"name": "proposel_id",
					"type": "uint256"
				}
			],
			"name": "RemovedProposel",
			"type": "event"
		},
		{
			"anonymous": false,
			"inputs": [
				{
					"indexed": false,
					"internalType": "string",
					"name": "url",
					"type": "string"
				}
			],
			"name": "ResetPeriod",
			"type": "event"
		},
		{
			"anonymous": false,
			"inputs": [
				{
					"indexed": false,
					"internalType": "address",
					"name": "voter",
					"type": "address"
				},
				{
					"indexed": false,
					"internalType": "uint256",
					"name": "proposel_id",
					"type": "uint256"
				}
			],
			"name": "VoteCasted",
			"type": "event"
		},
		{
			"anonymous": false,
			"inputs": [
				{
					"indexed": false,
					"internalType": "address",
					"name": "voter",
					"type": "address"
				},
				{
					"indexed": false,
					"internalType": "uint256",
					"name": "proposel_id",
					"type": "uint256"
				}
			],
			"name": "VoteUncasted",
			"type": "event"
		},
		{
			"inputs": [],
			"name": "getFee",
			"outputs": [
				{
					"internalType": "uint256",
					"name": "",
					"type": "uint256"
				}
			],
			"stateMutability": "view",
			"type": "function"
		},
		{
			"inputs": [],
			"name": "getLastWinningProposal",
			"outputs": [
				{
					"components": [
						{
							"internalType": "address",
							"name": "owner",
							"type": "address"
						},
						{
							"internalType": "string",
							"name": "name",
							"type": "string"
						},
						{
							"internalType": "string",
							"name": "url",
							"type": "string"
						},
						{
							"internalType": "uint256",
							"name": "timestamp",
							"type": "uint256"
						},
						{
							"internalType": "uint256",
							"name": "votes",
							"type": "uint256"
						},
						{
							"internalType": "uint256",
							"name": "id",
							"type": "uint256"
						},
						{
							"internalType": "bytes32",
							"name": "uniqueHash",
							"type": "bytes32"
						}
					],
					"internalType": "struct Proposel",
					"name": "",
					"type": "tuple"
				}
			],
			"stateMutability": "view",
			"type": "function"
		},
		{
			"inputs": [],
			"name": "getLatestPrice",
			"outputs": [
				{
					"internalType": "uint256",
					"name": "",
					"type": "uint256"
				}
			],
			"stateMutability": "view",
			"type": "function"
		},
		{
			"inputs": [],
			"name": "getPeriodInterval",
			"outputs": [
				{
					"components": [
						{
							"internalType": "uint256",
							"name": "periodStart",
							"type": "uint256"
						},
						{
							"internalType": "uint256",
							"name": "periodEnd",
							"type": "uint256"
						}
					],
					"internalType": "struct PeriodInterval",
					"name": "",
					"type": "tuple"
				}
			],
			"stateMutability": "view",
			"type": "function"
		},
		{
			"inputs": [],
			"name": "getVotes",
			"outputs": [
				{
					"internalType": "address[]",
					"name": "",
					"type": "address[]"
				}
			],
			"stateMutability": "view",
			"type": "function"
		},
		{
			"inputs": [],
			"name": "getWinningPoposel",
			"outputs": [
				{
					"components": [
						{
							"internalType": "address",
							"name": "owner",
							"type": "address"
						},
						{
							"internalType": "string",
							"name": "name",
							"type": "string"
						},
						{
							"internalType": "string",
							"name": "url",
							"type": "string"
						},
						{
							"internalType": "uint256",
							"name": "timestamp",
							"type": "uint256"
						},
						{
							"internalType": "uint256",
							"name": "votes",
							"type": "uint256"
						},
						{
							"internalType": "uint256",
							"name": "id",
							"type": "uint256"
						},
						{
							"internalType": "bytes32",
							"name": "uniqueHash",
							"type": "bytes32"
						}
					],
					"internalType": "struct Proposel",
					"name": "",
					"type": "tuple"
				}
			],
			"stateMutability": "view",
			"type": "function"
		},
		{
			"inputs": [],
			"name": "lastWinningProposal",
			"outputs": [
				{
					"internalType": "address",
					"name": "owner",
					"type": "address"
				},
				{
					"internalType": "string",
					"name": "name",
					"type": "string"
				},
				{
					"internalType": "string",
					"name": "url",
					"type": "string"
				},
				{
					"internalType": "uint256",
					"name": "timestamp",
					"type": "uint256"
				},
				{
					"internalType": "uint256",
					"name": "votes",
					"type": "uint256"
				},
				{
					"internalType": "uint256",
					"name": "id",
					"type": "uint256"
				},
				{
					"internalType": "bytes32",
					"name": "uniqueHash",
					"type": "bytes32"
				}
			],
			"stateMutability": "view",
			"type": "function"
		},
		{
			"inputs": [],
			"name": "listProposels",
			"outputs": [
				{
					"components": [
						{
							"internalType": "address",
							"name": "owner",
							"type": "address"
						},
						{
							"internalType": "string",
							"name": "name",
							"type": "string"
						},
						{
							"internalType": "string",
							"name": "url",
							"type": "string"
						},
						{
							"internalType": "uint256",
							"name": "timestamp",
							"type": "uint256"
						},
						{
							"internalType": "uint256",
							"name": "votes",
							"type": "uint256"
						},
						{
							"internalType": "uint256",
							"name": "id",
							"type": "uint256"
						},
						{
							"internalType": "bytes32",
							"name": "uniqueHash",
							"type": "bytes32"
						}
					],
					"internalType": "struct Proposel[]",
					"name": "",
					"type": "tuple[]"
				}
			],
			"stateMutability": "view",
			"type": "function"
		},
		{
			"inputs": [
				{
					"internalType": "address",
					"name": "to",
					"type": "address"
				}
			],
			"name": "makeTransfer",
			"outputs": [],
			"stateMutability": "payable",
			"type": "function"
		},
		{
			"inputs": [],
			"name": "owner",
			"outputs": [
				{
					"internalType": "address",
					"name": "",
					"type": "address"
				}
			],
			"stateMutability": "view",
			"type": "function"
		},
		{
			"inputs": [],
			"name": "renounceOwnership",
			"outputs": [],
			"stateMutability": "nonpayable",
			"type": "function"
		},
		{
			"inputs": [],
			"name": "resetPeriod",
			"outputs": [],
			"stateMutability": "nonpayable",
			"type": "function"
		},
		{
			"inputs": [
				{
					"internalType": "uint256",
					"name": "newFee",
					"type": "uint256"
				}
			],
			"name": "setFee",
			"outputs": [],
			"stateMutability": "nonpayable",
			"type": "function"
		},
		{
			"inputs": [
				{
					"internalType": "string",
					"name": "name",
					"type": "string"
				},
				{
					"internalType": "string",
					"name": "url",
					"type": "string"
				}
			],
			"name": "setProposel",
			"outputs": [],
			"stateMutability": "payable",
			"type": "function"
		},
		{
			"inputs": [
				{
					"internalType": "address",
					"name": "IProposelContractAddress",
					"type": "address"
				}
			],
			"name": "setProposelContractAddress",
			"outputs": [],
			"stateMutability": "nonpayable",
			"type": "function"
		},
		{
			"inputs": [
				{
					"internalType": "address",
					"name": "newOwner",
					"type": "address"
				}
			],
			"name": "transferOwnership",
			"outputs": [],
			"stateMutability": "nonpayable",
			"type": "function"
		},
		{
			"inputs": [],
			"name": "unvote",
			"outputs": [],
			"stateMutability": "nonpayable",
			"type": "function"
		},
		{
			"inputs": [
				{
					"internalType": "uint256",
					"name": "proposelId",
					"type": "uint256"
				}
			],
			"name": "vote",
			"outputs": [],
			"stateMutability": "nonpayable",
			"type": "function"
		}
	]
}