{
	"data": {
		"bytecode": {
			"linkReferences": {},
			"object": "6112d061004d600b8282823980515f1a6073146041577f4e487b71000000000000000000000000000000000000000000000000000000005f525f60045260245ffd5b305f52607381538281f3fe730000000000000000000000000000000000000000301460806040526004361061009b575f3560e01c8063614945381161006f578063614945381461015f5780636900a3ae1461018f578063ebb596ce146101bf578063f3516c62146101ef578063f608ab781461021f5761009b565b80628f863f1461009f5780631c07c87f146100cf5780634cde5371146100ff5780635a8d46251461012f575b5f80fd5b6100b960048036038101906100b49190610b35565b61024f565b6040516100c69190610b9e565b60405180910390f35b6100e960048036038101906100e49190610c77565b6102a4565b6040516100f69190610b9e565b60405180910390f35b61011960048036038101906101149190610cd1565b610321565b6040516101269190610b9e565b60405180910390f35b61014960048036038101906101449190610d18565b610395565b6040516101569190610e29565b60405180910390f35b61017960048036038101906101749190610e49565b610444565b6040516101869190610e9f565b60405180910390f35b6101a960048036038101906101a49190610eb8565b610473565b6040516101b69190610f43565b60405180910390f35b6101d960048036038101906101d49190610b35565b6105cc565b6040516101e69190610f7d565b60405180910390f35b61020960048036038101906102049190610f96565b610622565b6040516102169190610e29565b60405180910390f35b61023960048036038101906102349190610fdd565b610713565b6040516102469190610f43565b60405180910390f35b5f805f90505b8351811015610299578284828151811061027257610271611079565b5b602002602001015160a001510361028c578091505061029e565b8080600101915050610255565b505f90505b92915050565b5f805f90505b8351811015610316578273ffffffffffffffffffffffffffffffffffffffff168482815181106102dd576102dc611079565b5b602002602001015173ffffffffffffffffffffffffffffffffffffffff1603610309578091505061031b565b80806001019150506102aa565b505f90505b92915050565b5f805f90505f805b845181101561038a578285828151811061034657610345611079565b5b602002602001015160800151111561037d5784818151811061036b5761036a611079565b5b60200260200101516080015192508091505b8080600101915050610329565b508092505050919050565b60605f8290505b600184516103aa91906110d3565b81101561043257836001826103bf9190611106565b815181106103d0576103cf611079565b5b60200260200101518482815181106103eb576103ea611079565b5b602002602001019073ffffffffffffffffffffffffffffffffffffffff16908173ffffffffffffffffffffffffffffffffffffffff1681525050808060010191505061039c565b5061043c83610622565b905092915050565b5f816040516020016104569190611173565b604051602081830303815290604052805190602001209050919050565b60605f82036104b9576040518060400160405280600181526020017f300000000000000000000000000000000000000000000000000000000000000081525090506105c7565b5f8290505f5b5f82146104e85780806104d190611189565b915050600a826104e191906111fd565b91506104bf565b5f8167ffffffffffffffff8111156105035761050261077a565b5b6040519080825280601f01601f1916602001820160405280156105355781602001600182028036833780820191505090505b5090505b5f85146105c05760018261054d91906110d3565b9150600a8561055c919061122d565b60306105689190611106565b60f81b81838151811061057e5761057d611079565b5b60200101907effffffffffffffffffffffffffffffffffffffffffffffffffffffffffffff191690815f1a905350600a856105b991906111fd565b9450610539565b8093505050505b919050565b5f805f90505b835181101561061757828482815181106105ef576105ee611079565b5b602002602001015160a001510361060a57600191505061061c565b80806001019150506105d2565b505f90505b92915050565b60605f6001835161063391906110d3565b67ffffffffffffffff81111561064c5761064b61077a565b5b60405190808252806020026020018201604052801561067a5781602001602082028036833780820191505090505b5090505f5b6001845161068d91906110d3565b811015610709578381815181106106a7576106a6611079565b5b60200260200101518282815181106106c2576106c1611079565b5b602002602001019073ffffffffffffffffffffffffffffffffffffffff16908173ffffffffffffffffffffffffffffffffffffffff1681525050808060010191505061067f565b5080915050919050565b6060848461072085610473565b61072985610473565b60405160200161073c949392919061125d565b6040516020818303038152906040529050949350505050565b5f604051905090565b5f80fd5b5f80fd5b5f80fd5b5f601f19601f8301169050919050565b7f4e487b71000000000000000000000000000000000000000000000000000000005f52604160045260245ffd5b6107b08261076a565b810181811067ffffffffffffffff821117156107cf576107ce61077a565b5b80604052505050565b5f6107e1610755565b90506107ed82826107a7565b919050565b5f67ffffffffffffffff82111561080c5761080b61077a565b5b602082029050602081019050919050565b5f80fd5b5f80fd5b5f80fd5b5f73ffffffffffffffffffffffffffffffffffffffff82169050919050565b5f61085282610829565b9050919050565b61086281610848565b811461086c575f80fd5b50565b5f8135905061087d81610859565b92915050565b5f80fd5b5f67ffffffffffffffff8211156108a1576108a061077a565b5b6108aa8261076a565b9050602081019050919050565b828183375f83830152505050565b5f6108d76108d284610887565b6107d8565b9050828152602081018484840111156108f3576108f2610883565b5b6108fe8482856108b7565b509392505050565b5f82601f83011261091a57610919610766565b5b813561092a8482602086016108c5565b91505092915050565b5f819050919050565b61094581610933565b811461094f575f80fd5b50565b5f813590506109608161093c565b92915050565b5f819050919050565b61097881610966565b8114610982575f80fd5b50565b5f813590506109938161096f565b92915050565b5f60e082840312156109ae576109ad610821565b5b6109b860e06107d8565b90505f6109c78482850161086f565b5f83015250602082013567ffffffffffffffff8111156109ea576109e9610825565b5b6109f684828501610906565b602083015250604082013567ffffffffffffffff811115610a1a57610a19610825565b5b610a2684828501610906565b6040830152506060610a3a84828501610952565b6060830152506080610a4e84828501610952565b60808301525060a0610a6284828501610952565b60a08301525060c0610a7684828501610985565b60c08301525092915050565b5f610a94610a8f846107f2565b6107d8565b90508083825260208201905060208402830185811115610ab757610ab661081d565b5b835b81811015610afe57803567ffffffffffffffff811115610adc57610adb610766565b5b808601610ae98982610999565b85526020850194505050602081019050610ab9565b5050509392505050565b5f82601f830112610b1c57610b1b610766565b5b8135610b2c848260208601610a82565b91505092915050565b5f8060408385031215610b4b57610b4a61075e565b5b5f83013567ffffffffffffffff811115610b6857610b67610762565b5b610b7485828601610b08565b9250506020610b8585828601610952565b9150509250929050565b610b9881610933565b82525050565b5f602082019050610bb15f830184610b8f565b92915050565b5f67ffffffffffffffff821115610bd157610bd061077a565b5b602082029050602081019050919050565b5f610bf4610bef84610bb7565b6107d8565b90508083825260208201905060208402830185811115610c1757610c1661081d565b5b835b81811015610c405780610c2c888261086f565b845260208401935050602081019050610c19565b5050509392505050565b5f82601f830112610c5e57610c5d610766565b5b8135610c6e848260208601610be2565b91505092915050565b5f8060408385031215610c8d57610c8c61075e565b5b5f83013567ffffffffffffffff811115610caa57610ca9610762565b5b610cb685828601610c4a565b9250506020610cc78582860161086f565b9150509250929050565b5f60208284031215610ce657610ce561075e565b5b5f82013567ffffffffffffffff811115610d0357610d02610762565b5b610d0f84828501610b08565b91505092915050565b5f8060408385031215610d2e57610d2d61075e565b5b5f83013567ffffffffffffffff811115610d4b57610d4a610762565b5b610d5785828601610c4a565b9250506020610d6885828601610952565b9150509250929050565b5f81519050919050565b5f82825260208201905092915050565b5f819050602082019050919050565b610da481610848565b82525050565b5f610db58383610d9b565b60208301905092915050565b5f602082019050919050565b5f610dd782610d72565b610de18185610d7c565b9350610dec83610d8c565b805f5b83811015610e1c578151610e038882610daa565b9750610e0e83610dc1565b925050600181019050610def565b5085935050505092915050565b5f6020820190508181035f830152610e418184610dcd565b905092915050565b5f60208284031215610e5e57610e5d61075e565b5b5f82013567ffffffffffffffff811115610e7b57610e7a610762565b5b610e8784828501610906565b91505092915050565b610e9981610966565b82525050565b5f602082019050610eb25f830184610e90565b92915050565b5f60208284031215610ecd57610ecc61075e565b5b5f610eda84828501610952565b91505092915050565b5f81519050919050565b5f82825260208201905092915050565b8281835e5f83830152505050565b5f610f1582610ee3565b610f1f8185610eed565b9350610f2f818560208601610efd565b610f388161076a565b840191505092915050565b5f6020820190508181035f830152610f5b8184610f0b565b905092915050565b5f8115159050919050565b610f7781610f63565b82525050565b5f602082019050610f905f830184610f6e565b92915050565b5f60208284031215610fab57610faa61075e565b5b5f82013567ffffffffffffffff811115610fc857610fc7610762565b5b610fd484828501610c4a565b91505092915050565b5f805f8060808587031215610ff557610ff461075e565b5b5f85013567ffffffffffffffff81111561101257611011610762565b5b61101e87828801610906565b945050602085013567ffffffffffffffff81111561103f5761103e610762565b5b61104b87828801610906565b935050604061105c87828801610952565b925050606061106d87828801610952565b91505092959194509250565b7f4e487b71000000000000000000000000000000000000000000000000000000005f52603260045260245ffd5b7f4e487b71000000000000000000000000000000000000000000000000000000005f52601160045260245ffd5b5f6110dd82610933565b91506110e883610933565b9250828203905081811115611100576110ff6110a6565b5b92915050565b5f61111082610933565b915061111b83610933565b9250828201905080821115611133576111326110a6565b5b92915050565b5f81905092915050565b5f61114d82610ee3565b6111578185611139565b9350611167818560208601610efd565b80840191505092915050565b5f61117e8284611143565b915081905092915050565b5f61119382610933565b91507fffffffffffffffffffffffffffffffffffffffffffffffffffffffffffffffff82036111c5576111c46110a6565b5b600182019050919050565b7f4e487b71000000000000000000000000000000000000000000000000000000005f52601260045260245ffd5b5f61120782610933565b915061121283610933565b925082611222576112216111d0565b5b828204905092915050565b5f61123782610933565b915061124283610933565b925082611252576112516111d0565b5b828206905092915050565b5f6112688287611143565b91506112748286611143565b91506112808285611143565b915061128c8284611143565b91508190509594505050505056fea2646970667358221220160240d47cf9c7694e774e53f5b34d83379a254c713b4e165c68a2eeaccaa4a664736f6c63430008190033",
			"opcodes": "PUSH2 0x12D0 PUSH2 0x4D PUSH1 0xB DUP3 DUP3 DUP3 CODECOPY DUP1 MLOAD PUSH0 BYTE PUSH1 0x73 EQ PUSH1 0x41 JUMPI PUSH32 0x4E487B7100000000000000000000000000000000000000000000000000000000 PUSH0 MSTORE PUSH0 PUSH1 0x4 MSTORE PUSH1 0x24 PUSH0 REVERT JUMPDEST ADDRESS PUSH0 MSTORE PUSH1 0x73 DUP2 MSTORE8 DUP3 DUP2 RETURN INVALID PUSH20 0x0 ADDRESS EQ PUSH1 0x80 PUSH1 0x40 MSTORE PUSH1 0x4 CALLDATASIZE LT PUSH2 0x9B JUMPI PUSH0 CALLDATALOAD PUSH1 0xE0 SHR DUP1 PUSH4 0x61494538 GT PUSH2 0x6F JUMPI DUP1 PUSH4 0x61494538 EQ PUSH2 0x15F JUMPI DUP1 PUSH4 0x6900A3AE EQ PUSH2 0x18F JUMPI DUP1 PUSH4 0xEBB596CE EQ PUSH2 0x1BF JUMPI DUP1 PUSH4 0xF3516C62 EQ PUSH2 0x1EF JUMPI DUP1 PUSH4 0xF608AB78 EQ PUSH2 0x21F JUMPI PUSH2 0x9B JUMP JUMPDEST DUP1 PUSH3 0x8F863F EQ PUSH2 0x9F JUMPI DUP1 PUSH4 0x1C07C87F EQ PUSH2 0xCF JUMPI DUP1 PUSH4 0x4CDE5371 EQ PUSH2 0xFF JUMPI DUP1 PUSH4 0x5A8D4625 EQ PUSH2 0x12F JUMPI JUMPDEST PUSH0 DUP1 REVERT JUMPDEST PUSH2 0xB9 PUSH1 0x4 DUP1 CALLDATASIZE SUB DUP2 ADD SWAP1 PUSH2 0xB4 SWAP2 SWAP1 PUSH2 0xB35 JUMP JUMPDEST PUSH2 0x24F JUMP JUMPDEST PUSH1 0x40 MLOAD PUSH2 0xC6 SWAP2 SWAP1 PUSH2 0xB9E JUMP JUMPDEST PUSH1 0x40 MLOAD DUP1 SWAP2 SUB SWAP1 RETURN JUMPDEST PUSH2 0xE9 PUSH1 0x4 DUP1 CALLDATASIZE SUB DUP2 ADD SWAP1 PUSH2 0xE4 SWAP2 SWAP1 PUSH2 0xC77 JUMP JUMPDEST PUSH2 0x2A4 JUMP JUMPDEST PUSH1 0x40 MLOAD PUSH2 0xF6 SWAP2 SWAP1 PUSH2 0xB9E JUMP JUMPDEST PUSH1 0x40 MLOAD DUP1 SWAP2 SUB SWAP1 RETURN JUMPDEST PUSH2 0x119 PUSH1 0x4 DUP1 CALLDATASIZE SUB DUP2 ADD SWAP1 PUSH2 0x114 SWAP2 SWAP1 PUSH2 0xCD1 JUMP JUMPDEST PUSH2 0x321 JUMP JUMPDEST PUSH1 0x40 MLOAD PUSH2 0x126 SWAP2 SWAP1 PUSH2 0xB9E JUMP JUMPDEST PUSH1 0x40 MLOAD DUP1 SWAP2 SUB SWAP1 RETURN JUMPDEST PUSH2 0x149 PUSH1 0x4 DUP1 CALLDATASIZE SUB DUP2 ADD SWAP1 PUSH2 0x144 SWAP2 SWAP1 PUSH2 0xD18 JUMP JUMPDEST PUSH2 0x395 JUMP JUMPDEST PUSH1 0x40 MLOAD PUSH2 0x156 SWAP2 SWAP1 PUSH2 0xE29 JUMP JUMPDEST PUSH1 0x40 MLOAD DUP1 SWAP2 SUB SWAP1 RETURN JUMPDEST PUSH2 0x179 PUSH1 0x4 DUP1 CALLDATASIZE SUB DUP2 ADD SWAP1 PUSH2 0x174 SWAP2 SWAP1 PUSH2 0xE49 JUMP JUMPDEST PUSH2 0x444 JUMP JUMPDEST PUSH1 0x40 MLOAD PUSH2 0x186 SWAP2 SWAP1 PUSH2 0xE9F JUMP JUMPDEST PUSH1 0x40 MLOAD DUP1 SWAP2 SUB SWAP1 RETURN JUMPDEST PUSH2 0x1A9 PUSH1 0x4 DUP1 CALLDATASIZE SUB DUP2 ADD SWAP1 PUSH2 0x1A4 SWAP2 SWAP1 PUSH2 0xEB8 JUMP JUMPDEST PUSH2 0x473 JUMP JUMPDEST PUSH1 0x40 MLOAD PUSH2 0x1B6 SWAP2 SWAP1 PUSH2 0xF43 JUMP JUMPDEST PUSH1 0x40 MLOAD DUP1 SWAP2 SUB SWAP1 RETURN JUMPDEST PUSH2 0x1D9 PUSH1 0x4 DUP1 CALLDATASIZE SUB DUP2 ADD SWAP1 PUSH2 0x1D4 SWAP2 SWAP1 PUSH2 0xB35 JUMP JUMPDEST PUSH2 0x5CC JUMP JUMPDEST PUSH1 0x40 MLOAD PUSH2 0x1E6 SWAP2 SWAP1 PUSH2 0xF7D JUMP JUMPDEST PUSH1 0x40 MLOAD DUP1 SWAP2 SUB SWAP1 RETURN JUMPDEST PUSH2 0x209 PUSH1 0x4 DUP1 CALLDATASIZE SUB DUP2 ADD SWAP1 PUSH2 0x204 SWAP2 SWAP1 PUSH2 0xF96 JUMP JUMPDEST PUSH2 0x622 JUMP JUMPDEST PUSH1 0x40 MLOAD PUSH2 0x216 SWAP2 SWAP1 PUSH2 0xE29 JUMP JUMPDEST PUSH1 0x40 MLOAD DUP1 SWAP2 SUB SWAP1 RETURN JUMPDEST PUSH2 0x239 PUSH1 0x4 DUP1 CALLDATASIZE SUB DUP2 ADD SWAP1 PUSH2 0x234 SWAP2 SWAP1 PUSH2 0xFDD JUMP JUMPDEST PUSH2 0x713 JUMP JUMPDEST PUSH1 0x40 MLOAD PUSH2 0x246 SWAP2 SWAP1 PUSH2 0xF43 JUMP JUMPDEST PUSH1 0x40 MLOAD DUP1 SWAP2 SUB SWAP1 RETURN JUMPDEST PUSH0 DUP1 PUSH0 SWAP1 POP JUMPDEST DUP4 MLOAD DUP2 LT ISZERO PUSH2 0x299 JUMPI DUP3 DUP5 DUP3 DUP2 MLOAD DUP2 LT PUSH2 0x272 JUMPI PUSH2 0x271 PUSH2 0x1079 JUMP JUMPDEST JUMPDEST PUSH1 0x20 MUL PUSH1 0x20 ADD ADD MLOAD PUSH1 0xA0 ADD MLOAD SUB PUSH2 0x28C JUMPI DUP1 SWAP2 POP POP PUSH2 0x29E JUMP JUMPDEST DUP1 DUP1 PUSH1 0x1 ADD SWAP2 POP POP PUSH2 0x255 JUMP JUMPDEST POP PUSH0 SWAP1 POP JUMPDEST SWAP3 SWAP2 POP POP JUMP JUMPDEST PUSH0 DUP1 PUSH0 SWAP1 POP JUMPDEST DUP4 MLOAD DUP2 LT ISZERO PUSH2 0x316 JUMPI DUP3 PUSH20 0xFFFFFFFFFFFFFFFFFFFFFFFFFFFFFFFFFFFFFFFF AND DUP5 DUP3 DUP2 MLOAD DUP2 LT PUSH2 0x2DD JUMPI PUSH2 0x2DC PUSH2 0x1079 JUMP JUMPDEST JUMPDEST PUSH1 0x20 MUL PUSH1 0x20 ADD ADD MLOAD PUSH20 0xFFFFFFFFFFFFFFFFFFFFFFFFFFFFFFFFFFFFFFFF AND SUB PUSH2 0x309 JUMPI DUP1 SWAP2 POP POP PUSH2 0x31B JUMP JUMPDEST DUP1 DUP1 PUSH1 0x1 ADD SWAP2 POP POP PUSH2 0x2AA JUMP JUMPDEST POP PUSH0 SWAP1 POP JUMPDEST SWAP3 SWAP2 POP POP JUMP JUMPDEST PUSH0 DUP1 PUSH0 SWAP1 POP PUSH0 DUP1 JUMPDEST DUP5 MLOAD DUP2 LT ISZERO PUSH2 0x38A JUMPI DUP3 DUP6 DUP3 DUP2 MLOAD DUP2 LT PUSH2 0x346 JUMPI PUSH2 0x345 PUSH2 0x1079 JUMP JUMPDEST JUMPDEST PUSH1 0x20 MUL PUSH1 0x20 ADD ADD MLOAD PUSH1 0x80 ADD MLOAD GT ISZERO PUSH2 0x37D JUMPI DUP5 DUP2 DUP2 MLOAD DUP2 LT PUSH2 0x36B JUMPI PUSH2 0x36A PUSH2 0x1079 JUMP JUMPDEST JUMPDEST PUSH1 0x20 MUL PUSH1 0x20 ADD ADD MLOAD PUSH1 0x80 ADD MLOAD SWAP3 POP DUP1 SWAP2 POP JUMPDEST DUP1 DUP1 PUSH1 0x1 ADD SWAP2 POP POP PUSH2 0x329 JUMP JUMPDEST POP DUP1 SWAP3 POP POP POP SWAP2 SWAP1 POP JUMP JUMPDEST PUSH1 0x60 PUSH0 DUP3 SWAP1 POP JUMPDEST PUSH1 0x1 DUP5 MLOAD PUSH2 0x3AA SWAP2 SWAP1 PUSH2 0x10D3 JUMP JUMPDEST DUP2 LT ISZERO PUSH2 0x432 JUMPI DUP4 PUSH1 0x1 DUP3 PUSH2 0x3BF SWAP2 SWAP1 PUSH2 0x1106 JUMP JUMPDEST DUP2 MLOAD DUP2 LT PUSH2 0x3D0 JUMPI PUSH2 0x3CF PUSH2 0x1079 JUMP JUMPDEST JUMPDEST PUSH1 0x20 MUL PUSH1 0x20 ADD ADD MLOAD DUP5 DUP3 DUP2 MLOAD DUP2 LT PUSH2 0x3EB JUMPI PUSH2 0x3EA PUSH2 0x1079 JUMP JUMPDEST JUMPDEST PUSH1 0x20 MUL PUSH1 0x20 ADD ADD SWAP1 PUSH20 0xFFFFFFFFFFFFFFFFFFFFFFFFFFFFFFFFFFFFFFFF AND SWAP1 DUP2 PUSH20 0xFFFFFFFFFFFFFFFFFFFFFFFFFFFFFFFFFFFFFFFF AND DUP2 MSTORE POP POP DUP1 DUP1 PUSH1 0x1 ADD SWAP2 POP POP PUSH2 0x39C JUMP JUMPDEST POP PUSH2 0x43C DUP4 PUSH2 0x622 JUMP JUMPDEST SWAP1 POP SWAP3 SWAP2 POP POP JUMP JUMPDEST PUSH0 DUP2 PUSH1 0x40 MLOAD PUSH1 0x20 ADD PUSH2 0x456 SWAP2 SWAP1 PUSH2 0x1173 JUMP JUMPDEST PUSH1 0x40 MLOAD PUSH1 0x20 DUP2 DUP4 SUB SUB DUP2 MSTORE SWAP1 PUSH1 0x40 MSTORE DUP1 MLOAD SWAP1 PUSH1 0x20 ADD KECCAK256 SWAP1 POP SWAP2 SWAP1 POP JUMP JUMPDEST PUSH1 0x60 PUSH0 DUP3 SUB PUSH2 0x4B9 JUMPI PUSH1 0x40 MLOAD DUP1 PUSH1 0x40 ADD PUSH1 0x40 MSTORE DUP1 PUSH1 0x1 DUP2 MSTORE PUSH1 0x20 ADD PUSH32 0x3000000000000000000000000000000000000000000000000000000000000000 DUP2 MSTORE POP SWAP1 POP PUSH2 0x5C7 JUMP JUMPDEST PUSH0 DUP3 SWAP1 POP PUSH0 JUMPDEST PUSH0 DUP3 EQ PUSH2 0x4E8 JUMPI DUP1 DUP1 PUSH2 0x4D1 SWAP1 PUSH2 0x1189 JUMP JUMPDEST SWAP2 POP POP PUSH1 0xA DUP3 PUSH2 0x4E1 SWAP2 SWAP1 PUSH2 0x11FD JUMP JUMPDEST SWAP2 POP PUSH2 0x4BF JUMP JUMPDEST PUSH0 DUP2 PUSH8 0xFFFFFFFFFFFFFFFF DUP2 GT ISZERO PUSH2 0x503 JUMPI PUSH2 0x502 PUSH2 0x77A JUMP JUMPDEST JUMPDEST PUSH1 0x40 MLOAD SWAP1 DUP1 DUP3 MSTORE DUP1 PUSH1 0x1F ADD PUSH1 0x1F NOT AND PUSH1 0x20 ADD DUP3 ADD PUSH1 0x40 MSTORE DUP1 ISZERO PUSH2 0x535 JUMPI DUP2 PUSH1 0x20 ADD PUSH1 0x1 DUP3 MUL DUP1 CALLDATASIZE DUP4 CALLDATACOPY DUP1 DUP3 ADD SWAP2 POP POP SWAP1 POP JUMPDEST POP SWAP1 POP JUMPDEST PUSH0 DUP6 EQ PUSH2 0x5C0 JUMPI PUSH1 0x1 DUP3 PUSH2 0x54D SWAP2 SWAP1 PUSH2 0x10D3 JUMP JUMPDEST SWAP2 POP PUSH1 0xA DUP6 PUSH2 0x55C SWAP2 SWAP1 PUSH2 0x122D JUMP JUMPDEST PUSH1 0x30 PUSH2 0x568 SWAP2 SWAP1 PUSH2 0x1106 JUMP JUMPDEST PUSH1 0xF8 SHL DUP2 DUP4 DUP2 MLOAD DUP2 LT PUSH2 0x57E JUMPI PUSH2 0x57D PUSH2 0x1079 JUMP JUMPDEST JUMPDEST PUSH1 0x20 ADD ADD SWAP1 PUSH31 0xFFFFFFFFFFFFFFFFFFFFFFFFFFFFFFFFFFFFFFFFFFFFFFFFFFFFFFFFFFFFFF NOT AND SWAP1 DUP2 PUSH0 BYTE SWAP1 MSTORE8 POP PUSH1 0xA DUP6 PUSH2 0x5B9 SWAP2 SWAP1 PUSH2 0x11FD JUMP JUMPDEST SWAP5 POP PUSH2 0x539 JUMP JUMPDEST DUP1 SWAP4 POP POP POP POP JUMPDEST SWAP2 SWAP1 POP JUMP JUMPDEST PUSH0 DUP1 PUSH0 SWAP1 POP JUMPDEST DUP4 MLOAD DUP2 LT ISZERO PUSH2 0x617 JUMPI DUP3 DUP5 DUP3 DUP2 MLOAD DUP2 LT PUSH2 0x5EF JUMPI PUSH2 0x5EE PUSH2 0x1079 JUMP JUMPDEST JUMPDEST PUSH1 0x20 MUL PUSH1 0x20 ADD ADD MLOAD PUSH1 0xA0 ADD MLOAD SUB PUSH2 0x60A JUMPI PUSH1 0x1 SWAP2 POP POP PUSH2 0x61C JUMP JUMPDEST DUP1 DUP1 PUSH1 0x1 ADD SWAP2 POP POP PUSH2 0x5D2 JUMP JUMPDEST POP PUSH0 SWAP1 POP JUMPDEST SWAP3 SWAP2 POP POP JUMP JUMPDEST PUSH1 0x60 PUSH0 PUSH1 0x1 DUP4 MLOAD PUSH2 0x633 SWAP2 SWAP1 PUSH2 0x10D3 JUMP JUMPDEST PUSH8 0xFFFFFFFFFFFFFFFF DUP2 GT ISZERO PUSH2 0x64C JUMPI PUSH2 0x64B PUSH2 0x77A JUMP JUMPDEST JUMPDEST PUSH1 0x40 MLOAD SWAP1 DUP1 DUP3 MSTORE DUP1 PUSH1 0x20 MUL PUSH1 0x20 ADD DUP3 ADD PUSH1 0x40 MSTORE DUP1 ISZERO PUSH2 0x67A JUMPI DUP2 PUSH1 0x20 ADD PUSH1 0x20 DUP3 MUL DUP1 CALLDATASIZE DUP4 CALLDATACOPY DUP1 DUP3 ADD SWAP2 POP POP SWAP1 POP JUMPDEST POP SWAP1 POP PUSH0 JUMPDEST PUSH1 0x1 DUP5 MLOAD PUSH2 0x68D SWAP2 SWAP1 PUSH2 0x10D3 JUMP JUMPDEST DUP2 LT ISZERO PUSH2 0x709 JUMPI DUP4 DUP2 DUP2 MLOAD DUP2 LT PUSH2 0x6A7 JUMPI PUSH2 0x6A6 PUSH2 0x1079 JUMP JUMPDEST JUMPDEST PUSH1 0x20 MUL PUSH1 0x20 ADD ADD MLOAD DUP3 DUP3 DUP2 MLOAD DUP2 LT PUSH2 0x6C2 JUMPI PUSH2 0x6C1 PUSH2 0x1079 JUMP JUMPDEST JUMPDEST PUSH1 0x20 MUL PUSH1 0x20 ADD ADD SWAP1 PUSH20 0xFFFFFFFFFFFFFFFFFFFFFFFFFFFFFFFFFFFFFFFF AND SWAP1 DUP2 PUSH20 0xFFFFFFFFFFFFFFFFFFFFFFFFFFFFFFFFFFFFFFFF AND DUP2 MSTORE POP POP DUP1 DUP1 PUSH1 0x1 ADD SWAP2 POP POP PUSH2 0x67F JUMP JUMPDEST POP DUP1 SWAP2 POP POP SWAP2 SWAP1 POP JUMP JUMPDEST PUSH1 0x60 DUP5 DUP5 PUSH2 0x720 DUP6 PUSH2 0x473 JUMP JUMPDEST PUSH2 0x729 DUP6 PUSH2 0x473 JUMP JUMPDEST PUSH1 0x40 MLOAD PUSH1 0x20 ADD PUSH2 0x73C SWAP5 SWAP4 SWAP3 SWAP2 SWAP1 PUSH2 0x125D JUMP JUMPDEST PUSH1 0x40 MLOAD PUSH1 0x20 DUP2 DUP4 SUB SUB DUP2 MSTORE SWAP1 PUSH1 0x40 MSTORE SWAP1 POP SWAP5 SWAP4 POP POP POP POP JUMP JUMPDEST PUSH0 PUSH1 0x40 MLOAD SWAP1 POP SWAP1 JUMP JUMPDEST PUSH0 DUP1 REVERT JUMPDEST PUSH0 DUP1 REVERT JUMPDEST PUSH0 DUP1 REVERT JUMPDEST PUSH0 PUSH1 0x1F NOT PUSH1 0x1F DUP4 ADD AND SWAP1 POP SWAP2 SWAP1 POP JUMP JUMPDEST PUSH32 0x4E487B7100000000000000000000000000000000000000000000000000000000 PUSH0 MSTORE PUSH1 0x41 PUSH1 0x4 MSTORE PUSH1 0x24 PUSH0 REVERT JUMPDEST PUSH2 0x7B0 DUP3 PUSH2 0x76A JUMP JUMPDEST DUP2 ADD DUP2 DUP2 LT PUSH8 0xFFFFFFFFFFFFFFFF DUP3 GT OR ISZERO PUSH2 0x7CF JUMPI PUSH2 0x7CE PUSH2 0x77A JUMP JUMPDEST JUMPDEST DUP1 PUSH1 0x40 MSTORE POP POP POP JUMP JUMPDEST PUSH0 PUSH2 0x7E1 PUSH2 0x755 JUMP JUMPDEST SWAP1 POP PUSH2 0x7ED DUP3 DUP3 PUSH2 0x7A7 JUMP JUMPDEST SWAP2 SWAP1 POP JUMP JUMPDEST PUSH0 PUSH8 0xFFFFFFFFFFFFFFFF DUP3 GT ISZERO PUSH2 0x80C JUMPI PUSH2 0x80B PUSH2 0x77A JUMP JUMPDEST JUMPDEST PUSH1 0x20 DUP3 MUL SWAP1 POP PUSH1 0x20 DUP2 ADD SWAP1 POP SWAP2 SWAP1 POP JUMP JUMPDEST PUSH0 DUP1 REVERT JUMPDEST PUSH0 DUP1 REVERT JUMPDEST PUSH0 DUP1 REVERT JUMPDEST PUSH0 PUSH20 0xFFFFFFFFFFFFFFFFFFFFFFFFFFFFFFFFFFFFFFFF DUP3 AND SWAP1 POP SWAP2 SWAP1 POP JUMP JUMPDEST PUSH0 PUSH2 0x852 DUP3 PUSH2 0x829 JUMP JUMPDEST SWAP1 POP SWAP2 SWAP1 POP JUMP JUMPDEST PUSH2 0x862 DUP2 PUSH2 0x848 JUMP JUMPDEST DUP2 EQ PUSH2 0x86C JUMPI PUSH0 DUP1 REVERT JUMPDEST POP JUMP JUMPDEST PUSH0 DUP2 CALLDATALOAD SWAP1 POP PUSH2 0x87D DUP2 PUSH2 0x859 JUMP JUMPDEST SWAP3 SWAP2 POP POP JUMP JUMPDEST PUSH0 DUP1 REVERT JUMPDEST PUSH0 PUSH8 0xFFFFFFFFFFFFFFFF DUP3 GT ISZERO PUSH2 0x8A1 JUMPI PUSH2 0x8A0 PUSH2 0x77A JUMP JUMPDEST JUMPDEST PUSH2 0x8AA DUP3 PUSH2 0x76A JUMP JUMPDEST SWAP1 POP PUSH1 0x20 DUP2 ADD SWAP1 POP SWAP2 SWAP1 POP JUMP JUMPDEST DUP3 DUP2 DUP4 CALLDATACOPY PUSH0 DUP4 DUP4 ADD MSTORE POP POP POP JUMP JUMPDEST PUSH0 PUSH2 0x8D7 PUSH2 0x8D2 DUP5 PUSH2 0x887 JUMP JUMPDEST PUSH2 0x7D8 JUMP JUMPDEST SWAP1 POP DUP3 DUP2 MSTORE PUSH1 0x20 DUP2 ADD DUP5 DUP5 DUP5 ADD GT ISZERO PUSH2 0x8F3 JUMPI PUSH2 0x8F2 PUSH2 0x883 JUMP JUMPDEST JUMPDEST PUSH2 0x8FE DUP5 DUP3 DUP6 PUSH2 0x8B7 JUMP JUMPDEST POP SWAP4 SWAP3 POP POP POP JUMP JUMPDEST PUSH0 DUP3 PUSH1 0x1F DUP4 ADD SLT PUSH2 0x91A JUMPI PUSH2 0x919 PUSH2 0x766 JUMP JUMPDEST JUMPDEST DUP2 CALLDATALOAD PUSH2 0x92A DUP5 DUP3 PUSH1 0x20 DUP7 ADD PUSH2 0x8C5 JUMP JUMPDEST SWAP2 POP POP SWAP3 SWAP2 POP POP JUMP JUMPDEST PUSH0 DUP2 SWAP1 POP SWAP2 SWAP1 POP JUMP JUMPDEST PUSH2 0x945 DUP2 PUSH2 0x933 JUMP JUMPDEST DUP2 EQ PUSH2 0x94F JUMPI PUSH0 DUP1 REVERT JUMPDEST POP JUMP JUMPDEST PUSH0 DUP2 CALLDATALOAD SWAP1 POP PUSH2 0x960 DUP2 PUSH2 0x93C JUMP JUMPDEST SWAP3 SWAP2 POP POP JUMP JUMPDEST PUSH0 DUP2 SWAP1 POP SWAP2 SWAP1 POP JUMP JUMPDEST PUSH2 0x978 DUP2 PUSH2 0x966 JUMP JUMPDEST DUP2 EQ PUSH2 0x982 JUMPI PUSH0 DUP1 REVERT JUMPDEST POP JUMP JUMPDEST PUSH0 DUP2 CALLDATALOAD SWAP1 POP PUSH2 0x993 DUP2 PUSH2 0x96F JUMP JUMPDEST SWAP3 SWAP2 POP POP JUMP JUMPDEST PUSH0 PUSH1 0xE0 DUP3 DUP5 SUB SLT ISZERO PUSH2 0x9AE JUMPI PUSH2 0x9AD PUSH2 0x821 JUMP JUMPDEST JUMPDEST PUSH2 0x9B8 PUSH1 0xE0 PUSH2 0x7D8 JUMP JUMPDEST SWAP1 POP PUSH0 PUSH2 0x9C7 DUP5 DUP3 DUP6 ADD PUSH2 0x86F JUMP JUMPDEST PUSH0 DUP4 ADD MSTORE POP PUSH1 0x20 DUP3 ADD CALLDATALOAD PUSH8 0xFFFFFFFFFFFFFFFF DUP2 GT ISZERO PUSH2 0x9EA JUMPI PUSH2 0x9E9 PUSH2 0x825 JUMP JUMPDEST JUMPDEST PUSH2 0x9F6 DUP5 DUP3 DUP6 ADD PUSH2 0x906 JUMP JUMPDEST PUSH1 0x20 DUP4 ADD MSTORE POP PUSH1 0x40 DUP3 ADD CALLDATALOAD PUSH8 0xFFFFFFFFFFFFFFFF DUP2 GT ISZERO PUSH2 0xA1A JUMPI PUSH2 0xA19 PUSH2 0x825 JUMP JUMPDEST JUMPDEST PUSH2 0xA26 DUP5 DUP3 DUP6 ADD PUSH2 0x906 JUMP JUMPDEST PUSH1 0x40 DUP4 ADD MSTORE POP PUSH1 0x60 PUSH2 0xA3A DUP5 DUP3 DUP6 ADD PUSH2 0x952 JUMP JUMPDEST PUSH1 0x60 DUP4 ADD MSTORE POP PUSH1 0x80 PUSH2 0xA4E DUP5 DUP3 DUP6 ADD PUSH2 0x952 JUMP JUMPDEST PUSH1 0x80 DUP4 ADD MSTORE POP PUSH1 0xA0 PUSH2 0xA62 DUP5 DUP3 DUP6 ADD PUSH2 0x952 JUMP JUMPDEST PUSH1 0xA0 DUP4 ADD MSTORE POP PUSH1 0xC0 PUSH2 0xA76 DUP5 DUP3 DUP6 ADD PUSH2 0x985 JUMP JUMPDEST PUSH1 0xC0 DUP4 ADD MSTORE POP SWAP3 SWAP2 POP POP JUMP JUMPDEST PUSH0 PUSH2 0xA94 PUSH2 0xA8F DUP5 PUSH2 0x7F2 JUMP JUMPDEST PUSH2 0x7D8 JUMP JUMPDEST SWAP1 POP DUP1 DUP4 DUP3 MSTORE PUSH1 0x20 DUP3 ADD SWAP1 POP PUSH1 0x20 DUP5 MUL DUP4 ADD DUP6 DUP2 GT ISZERO PUSH2 0xAB7 JUMPI PUSH2 0xAB6 PUSH2 0x81D JUMP JUMPDEST JUMPDEST DUP4 JUMPDEST DUP2 DUP2 LT ISZERO PUSH2 0xAFE JUMPI DUP1 CALLDATALOAD PUSH8 0xFFFFFFFFFFFFFFFF DUP2 GT ISZERO PUSH2 0xADC JUMPI PUSH2 0xADB PUSH2 0x766 JUMP JUMPDEST JUMPDEST DUP1 DUP7 ADD PUSH2 0xAE9 DUP10 DUP3 PUSH2 0x999 JUMP JUMPDEST DUP6 MSTORE PUSH1 0x20 DUP6 ADD SWAP5 POP POP POP PUSH1 0x20 DUP2 ADD SWAP1 POP PUSH2 0xAB9 JUMP JUMPDEST POP POP POP SWAP4 SWAP3 POP POP POP JUMP JUMPDEST PUSH0 DUP3 PUSH1 0x1F DUP4 ADD SLT PUSH2 0xB1C JUMPI PUSH2 0xB1B PUSH2 0x766 JUMP JUMPDEST JUMPDEST DUP2 CALLDATALOAD PUSH2 0xB2C DUP5 DUP3 PUSH1 0x20 DUP7 ADD PUSH2 0xA82 JUMP JUMPDEST SWAP2 POP POP SWAP3 SWAP2 POP POP JUMP JUMPDEST PUSH0 DUP1 PUSH1 0x40 DUP4 DUP6 SUB SLT ISZERO PUSH2 0xB4B JUMPI PUSH2 0xB4A PUSH2 0x75E JUMP JUMPDEST JUMPDEST PUSH0 DUP4 ADD CALLDATALOAD PUSH8 0xFFFFFFFFFFFFFFFF DUP2 GT ISZERO PUSH2 0xB68 JUMPI PUSH2 0xB67 PUSH2 0x762 JUMP JUMPDEST JUMPDEST PUSH2 0xB74 DUP6 DUP3 DUP7 ADD PUSH2 0xB08 JUMP JUMPDEST SWAP3 POP POP PUSH1 0x20 PUSH2 0xB85 DUP6 DUP3 DUP7 ADD PUSH2 0x952 JUMP JUMPDEST SWAP2 POP POP SWAP3 POP SWAP3 SWAP1 POP JUMP JUMPDEST PUSH2 0xB98 DUP2 PUSH2 0x933 JUMP JUMPDEST DUP3 MSTORE POP POP JUMP JUMPDEST PUSH0 PUSH1 0x20 DUP3 ADD SWAP1 POP PUSH2 0xBB1 PUSH0 DUP4 ADD DUP5 PUSH2 0xB8F JUMP JUMPDEST SWAP3 SWAP2 POP POP JUMP JUMPDEST PUSH0 PUSH8 0xFFFFFFFFFFFFFFFF DUP3 GT ISZERO PUSH2 0xBD1 JUMPI PUSH2 0xBD0 PUSH2 0x77A JUMP JUMPDEST JUMPDEST PUSH1 0x20 DUP3 MUL SWAP1 POP PUSH1 0x20 DUP2 ADD SWAP1 POP SWAP2 SWAP1 POP JUMP JUMPDEST PUSH0 PUSH2 0xBF4 PUSH2 0xBEF DUP5 PUSH2 0xBB7 JUMP JUMPDEST PUSH2 0x7D8 JUMP JUMPDEST SWAP1 POP DUP1 DUP4 DUP3 MSTORE PUSH1 0x20 DUP3 ADD SWAP1 POP PUSH1 0x20 DUP5 MUL DUP4 ADD DUP6 DUP2 GT ISZERO PUSH2 0xC17 JUMPI PUSH2 0xC16 PUSH2 0x81D JUMP JUMPDEST JUMPDEST DUP4 JUMPDEST DUP2 DUP2 LT ISZERO PUSH2 0xC40 JUMPI DUP1 PUSH2 0xC2C DUP9 DUP3 PUSH2 0x86F JUMP JUMPDEST DUP5 MSTORE PUSH1 0x20 DUP5 ADD SWAP4 POP POP PUSH1 0x20 DUP2 ADD SWAP1 POP PUSH2 0xC19 JUMP JUMPDEST POP POP POP SWAP4 SWAP3 POP POP POP JUMP JUMPDEST PUSH0 DUP3 PUSH1 0x1F DUP4 ADD SLT PUSH2 0xC5E JUMPI PUSH2 0xC5D PUSH2 0x766 JUMP JUMPDEST JUMPDEST DUP2 CALLDATALOAD PUSH2 0xC6E DUP5 DUP3 PUSH1 0x20 DUP7 ADD PUSH2 0xBE2 JUMP JUMPDEST SWAP2 POP POP SWAP3 SWAP2 POP POP JUMP JUMPDEST PUSH0 DUP1 PUSH1 0x40 DUP4 DUP6 SUB SLT ISZERO PUSH2 0xC8D JUMPI PUSH2 0xC8C PUSH2 0x75E JUMP JUMPDEST JUMPDEST PUSH0 DUP4 ADD CALLDATALOAD PUSH8 0xFFFFFFFFFFFFFFFF DUP2 GT ISZERO PUSH2 0xCAA JUMPI PUSH2 0xCA9 PUSH2 0x762 JUMP JUMPDEST JUMPDEST PUSH2 0xCB6 DUP6 DUP3 DUP7 ADD PUSH2 0xC4A JUMP JUMPDEST SWAP3 POP POP PUSH1 0x20 PUSH2 0xCC7 DUP6 DUP3 DUP7 ADD PUSH2 0x86F JUMP JUMPDEST SWAP2 POP POP SWAP3 POP SWAP3 SWAP1 POP JUMP JUMPDEST PUSH0 PUSH1 0x20 DUP3 DUP5 SUB SLT ISZERO PUSH2 0xCE6 JUMPI PUSH2 0xCE5 PUSH2 0x75E JUMP JUMPDEST JUMPDEST PUSH0 DUP3 ADD CALLDATALOAD PUSH8 0xFFFFFFFFFFFFFFFF DUP2 GT ISZERO PUSH2 0xD03 JUMPI PUSH2 0xD02 PUSH2 0x762 JUMP JUMPDEST JUMPDEST PUSH2 0xD0F DUP5 DUP3 DUP6 ADD PUSH2 0xB08 JUMP JUMPDEST SWAP2 POP POP SWAP3 SWAP2 POP POP JUMP JUMPDEST PUSH0 DUP1 PUSH1 0x40 DUP4 DUP6 SUB SLT ISZERO PUSH2 0xD2E JUMPI PUSH2 0xD2D PUSH2 0x75E JUMP JUMPDEST JUMPDEST PUSH0 DUP4 ADD CALLDATALOAD PUSH8 0xFFFFFFFFFFFFFFFF DUP2 GT ISZERO PUSH2 0xD4B JUMPI PUSH2 0xD4A PUSH2 0x762 JUMP JUMPDEST JUMPDEST PUSH2 0xD57 DUP6 DUP3 DUP7 ADD PUSH2 0xC4A JUMP JUMPDEST SWAP3 POP POP PUSH1 0x20 PUSH2 0xD68 DUP6 DUP3 DUP7 ADD PUSH2 0x952 JUMP JUMPDEST SWAP2 POP POP SWAP3 POP SWAP3 SWAP1 POP JUMP JUMPDEST PUSH0 DUP2 MLOAD SWAP1 POP SWAP2 SWAP1 POP JUMP JUMPDEST PUSH0 DUP3 DUP3 MSTORE PUSH1 0x20 DUP3 ADD SWAP1 POP SWAP3 SWAP2 POP POP JUMP JUMPDEST PUSH0 DUP2 SWAP1 POP PUSH1 0x20 DUP3 ADD SWAP1 POP SWAP2 SWAP1 POP JUMP JUMPDEST PUSH2 0xDA4 DUP2 PUSH2 0x848 JUMP JUMPDEST DUP3 MSTORE POP POP JUMP JUMPDEST PUSH0 PUSH2 0xDB5 DUP4 DUP4 PUSH2 0xD9B JUMP JUMPDEST PUSH1 0x20 DUP4 ADD SWAP1 POP SWAP3 SWAP2 POP POP JUMP JUMPDEST PUSH0 PUSH1 0x20 DUP3 ADD SWAP1 POP SWAP2 SWAP1 POP JUMP JUMPDEST PUSH0 PUSH2 0xDD7 DUP3 PUSH2 0xD72 JUMP JUMPDEST PUSH2 0xDE1 DUP2 DUP6 PUSH2 0xD7C JUMP JUMPDEST SWAP4 POP PUSH2 0xDEC DUP4 PUSH2 0xD8C JUMP JUMPDEST DUP1 PUSH0 JUMPDEST DUP4 DUP2 LT ISZERO PUSH2 0xE1C JUMPI DUP2 MLOAD PUSH2 0xE03 DUP9 DUP3 PUSH2 0xDAA JUMP JUMPDEST SWAP8 POP PUSH2 0xE0E DUP4 PUSH2 0xDC1 JUMP JUMPDEST SWAP3 POP POP PUSH1 0x1 DUP2 ADD SWAP1 POP PUSH2 0xDEF JUMP JUMPDEST POP DUP6 SWAP4 POP POP POP POP SWAP3 SWAP2 POP POP JUMP JUMPDEST PUSH0 PUSH1 0x20 DUP3 ADD SWAP1 POP DUP2 DUP2 SUB PUSH0 DUP4 ADD MSTORE PUSH2 0xE41 DUP2 DUP5 PUSH2 0xDCD JUMP JUMPDEST SWAP1 POP SWAP3 SWAP2 POP POP JUMP JUMPDEST PUSH0 PUSH1 0x20 DUP3 DUP5 SUB SLT ISZERO PUSH2 0xE5E JUMPI PUSH2 0xE5D PUSH2 0x75E JUMP JUMPDEST JUMPDEST PUSH0 DUP3 ADD CALLDATALOAD PUSH8 0xFFFFFFFFFFFFFFFF DUP2 GT ISZERO PUSH2 0xE7B JUMPI PUSH2 0xE7A PUSH2 0x762 JUMP JUMPDEST JUMPDEST PUSH2 0xE87 DUP5 DUP3 DUP6 ADD PUSH2 0x906 JUMP JUMPDEST SWAP2 POP POP SWAP3 SWAP2 POP POP JUMP JUMPDEST PUSH2 0xE99 DUP2 PUSH2 0x966 JUMP JUMPDEST DUP3 MSTORE POP POP JUMP JUMPDEST PUSH0 PUSH1 0x20 DUP3 ADD SWAP1 POP PUSH2 0xEB2 PUSH0 DUP4 ADD DUP5 PUSH2 0xE90 JUMP JUMPDEST SWAP3 SWAP2 POP POP JUMP JUMPDEST PUSH0 PUSH1 0x20 DUP3 DUP5 SUB SLT ISZERO PUSH2 0xECD JUMPI PUSH2 0xECC PUSH2 0x75E JUMP JUMPDEST JUMPDEST PUSH0 PUSH2 0xEDA DUP5 DUP3 DUP6 ADD PUSH2 0x952 JUMP JUMPDEST SWAP2 POP POP SWAP3 SWAP2 POP POP JUMP JUMPDEST PUSH0 DUP2 MLOAD SWAP1 POP SWAP2 SWAP1 POP JUMP JUMPDEST PUSH0 DUP3 DUP3 MSTORE PUSH1 0x20 DUP3 ADD SWAP1 POP SWAP3 SWAP2 POP POP JUMP JUMPDEST DUP3 DUP2 DUP4 MCOPY PUSH0 DUP4 DUP4 ADD MSTORE POP POP POP JUMP JUMPDEST PUSH0 PUSH2 0xF15 DUP3 PUSH2 0xEE3 JUMP JUMPDEST PUSH2 0xF1F DUP2 DUP6 PUSH2 0xEED JUMP JUMPDEST SWAP4 POP PUSH2 0xF2F DUP2 DUP6 PUSH1 0x20 DUP7 ADD PUSH2 0xEFD JUMP JUMPDEST PUSH2 0xF38 DUP2 PUSH2 0x76A JUMP JUMPDEST DUP5 ADD SWAP2 POP POP SWAP3 SWAP2 POP POP JUMP JUMPDEST PUSH0 PUSH1 0x20 DUP3 ADD SWAP1 POP DUP2 DUP2 SUB PUSH0 DUP4 ADD MSTORE PUSH2 0xF5B DUP2 DUP5 PUSH2 0xF0B JUMP JUMPDEST SWAP1 POP SWAP3 SWAP2 POP POP JUMP JUMPDEST PUSH0 DUP2 ISZERO ISZERO SWAP1 POP SWAP2 SWAP1 POP JUMP JUMPDEST PUSH2 0xF77 DUP2 PUSH2 0xF63 JUMP JUMPDEST DUP3 MSTORE POP POP JUMP JUMPDEST PUSH0 PUSH1 0x20 DUP3 ADD SWAP1 POP PUSH2 0xF90 PUSH0 DUP4 ADD DUP5 PUSH2 0xF6E JUMP JUMPDEST SWAP3 SWAP2 POP POP JUMP JUMPDEST PUSH0 PUSH1 0x20 DUP3 DUP5 SUB SLT ISZERO PUSH2 0xFAB JUMPI PUSH2 0xFAA PUSH2 0x75E JUMP JUMPDEST JUMPDEST PUSH0 DUP3 ADD CALLDATALOAD PUSH8 0xFFFFFFFFFFFFFFFF DUP2 GT ISZERO PUSH2 0xFC8 JUMPI PUSH2 0xFC7 PUSH2 0x762 JUMP JUMPDEST JUMPDEST PUSH2 0xFD4 DUP5 DUP3 DUP6 ADD PUSH2 0xC4A JUMP JUMPDEST SWAP2 POP POP SWAP3 SWAP2 POP POP JUMP JUMPDEST PUSH0 DUP1 PUSH0 DUP1 PUSH1 0x80 DUP6 DUP8 SUB SLT ISZERO PUSH2 0xFF5 JUMPI PUSH2 0xFF4 PUSH2 0x75E JUMP JUMPDEST JUMPDEST PUSH0 DUP6 ADD CALLDATALOAD PUSH8 0xFFFFFFFFFFFFFFFF DUP2 GT ISZERO PUSH2 0x1012 JUMPI PUSH2 0x1011 PUSH2 0x762 JUMP JUMPDEST JUMPDEST PUSH2 0x101E DUP8 DUP3 DUP9 ADD PUSH2 0x906 JUMP JUMPDEST SWAP5 POP POP PUSH1 0x20 DUP6 ADD CALLDATALOAD PUSH8 0xFFFFFFFFFFFFFFFF DUP2 GT ISZERO PUSH2 0x103F JUMPI PUSH2 0x103E PUSH2 0x762 JUMP JUMPDEST JUMPDEST PUSH2 0x104B DUP8 DUP3 DUP9 ADD PUSH2 0x906 JUMP JUMPDEST SWAP4 POP POP PUSH1 0x40 PUSH2 0x105C DUP8 DUP3 DUP9 ADD PUSH2 0x952 JUMP JUMPDEST SWAP3 POP POP PUSH1 0x60 PUSH2 0x106D DUP8 DUP3 DUP9 ADD PUSH2 0x952 JUMP JUMPDEST SWAP2 POP POP SWAP3 SWAP6 SWAP2 SWAP5 POP SWAP3 POP JUMP JUMPDEST PUSH32 0x4E487B7100000000000000000000000000000000000000000000000000000000 PUSH0 MSTORE PUSH1 0x32 PUSH1 0x4 MSTORE PUSH1 0x24 PUSH0 REVERT JUMPDEST PUSH32 0x4E487B7100000000000000000000000000000000000000000000000000000000 PUSH0 MSTORE PUSH1 0x11 PUSH1 0x4 MSTORE PUSH1 0x24 PUSH0 REVERT JUMPDEST PUSH0 PUSH2 0x10DD DUP3 PUSH2 0x933 JUMP JUMPDEST SWAP2 POP PUSH2 0x10E8 DUP4 PUSH2 0x933 JUMP JUMPDEST SWAP3 POP DUP3 DUP3 SUB SWAP1 POP DUP2 DUP2 GT ISZERO PUSH2 0x1100 JUMPI PUSH2 0x10FF PUSH2 0x10A6 JUMP JUMPDEST JUMPDEST SWAP3 SWAP2 POP POP JUMP JUMPDEST PUSH0 PUSH2 0x1110 DUP3 PUSH2 0x933 JUMP JUMPDEST SWAP2 POP PUSH2 0x111B DUP4 PUSH2 0x933 JUMP JUMPDEST SWAP3 POP DUP3 DUP3 ADD SWAP1 POP DUP1 DUP3 GT ISZERO PUSH2 0x1133 JUMPI PUSH2 0x1132 PUSH2 0x10A6 JUMP JUMPDEST JUMPDEST SWAP3 SWAP2 POP POP JUMP JUMPDEST PUSH0 DUP2 SWAP1 POP SWAP3 SWAP2 POP POP JUMP JUMPDEST PUSH0 PUSH2 0x114D DUP3 PUSH2 0xEE3 JUMP JUMPDEST PUSH2 0x1157 DUP2 DUP6 PUSH2 0x1139 JUMP JUMPDEST SWAP4 POP PUSH2 0x1167 DUP2 DUP6 PUSH1 0x20 DUP7 ADD PUSH2 0xEFD JUMP JUMPDEST DUP1 DUP5 ADD SWAP2 POP POP SWAP3 SWAP2 POP POP JUMP JUMPDEST PUSH0 PUSH2 0x117E DUP3 DUP5 PUSH2 0x1143 JUMP JUMPDEST SWAP2 POP DUP2 SWAP1 POP SWAP3 SWAP2 POP POP JUMP JUMPDEST PUSH0 PUSH2 0x1193 DUP3 PUSH2 0x933 JUMP JUMPDEST SWAP2 POP PUSH32 0xFFFFFFFFFFFFFFFFFFFFFFFFFFFFFFFFFFFFFFFFFFFFFFFFFFFFFFFFFFFFFFFF DUP3 SUB PUSH2 0x11C5 JUMPI PUSH2 0x11C4 PUSH2 0x10A6 JUMP JUMPDEST JUMPDEST PUSH1 0x1 DUP3 ADD SWAP1 POP SWAP2 SWAP1 POP JUMP JUMPDEST PUSH32 0x4E487B7100000000000000000000000000000000000000000000000000000000 PUSH0 MSTORE PUSH1 0x12 PUSH1 0x4 MSTORE PUSH1 0x24 PUSH0 REVERT JUMPDEST PUSH0 PUSH2 0x1207 DUP3 PUSH2 0x933 JUMP JUMPDEST SWAP2 POP PUSH2 0x1212 DUP4 PUSH2 0x933 JUMP JUMPDEST SWAP3 POP DUP3 PUSH2 0x1222 JUMPI PUSH2 0x1221 PUSH2 0x11D0 JUMP JUMPDEST JUMPDEST DUP3 DUP3 DIV SWAP1 POP SWAP3 SWAP2 POP POP JUMP JUMPDEST PUSH0 PUSH2 0x1237 DUP3 PUSH2 0x933 JUMP JUMPDEST SWAP2 POP PUSH2 0x1242 DUP4 PUSH2 0x933 JUMP JUMPDEST SWAP3 POP DUP3 PUSH2 0x1252 JUMPI PUSH2 0x1251 PUSH2 0x11D0 JUMP JUMPDEST JUMPDEST DUP3 DUP3 MOD SWAP1 POP SWAP3 SWAP2 POP POP JUMP JUMPDEST PUSH0 PUSH2 0x1268 DUP3 DUP8 PUSH2 0x1143 JUMP JUMPDEST SWAP2 POP PUSH2 0x1274 DUP3 DUP7 PUSH2 0x1143 JUMP JUMPDEST SWAP2 POP PUSH2 0x1280 DUP3 DUP6 PUSH2 0x1143 JUMP JUMPDEST SWAP2 POP PUSH2 0x128C DUP3 DUP5 PUSH2 0x1143 JUMP JUMPDEST SWAP2 POP DUP2 SWAP1 POP SWAP6 SWAP5 POP POP POP POP POP JUMP INVALID LOG2 PUSH5 0x6970667358 0x22 SLT KECCAK256 AND MUL BLOCKHASH 0xD4 PUSH29 0xF9C7694E774E53F5B34D83379A254C713B4E165C68A2EEACCAA4A66473 PUSH16 0x6C634300081900330000000000000000 "
		},
		"gasEstimates": {
			"creation": {
				"codeDepositCost": "963200",
				"executionCost": "1024",
				"totalCost": "964224"
			},
			"external": {
				"checkIndex(Proposel[],uint256)": "infinite",
				"combineElemnets(string,string,uint256,uint256)": "infinite",
				"getIndex(address[],address)": "infinite",
				"getIndexInList(Proposel[],uint256)": "infinite",
				"getIndexWithMaxVotes(Proposel[])": "infinite",
				"gethash(string)": "infinite",
				"pop(address[])": "infinite",
				"removeElement(address[],uint256)": "infinite",
				"toString(uint256)": "infinite"
			}
		},
		"methodIdentifiers": {
			"checkIndex(Proposel[],uint256)": "ebb596ce",
			"combineElemnets(string,string,uint256,uint256)": "f608ab78",
			"getIndex(address[],address)": "1c07c87f",
			"getIndexInList(Proposel[],uint256)": "008f863f",
			"getIndexWithMaxVotes(Proposel[])": "4cde5371",
			"gethash(string)": "61494538",
			"pop(address[])": "f3516c62",
			"removeElement(address[],uint256)": "5a8d4625",
			"toString(uint256)": "6900a3ae"
		}
	},
	"abi": [
		{
			"inputs": [
				{
					"components": [
						{
							"internalType": "address",
							"name": "owner",
							"type": "address"
						},
						{
							"internalType": "string",
							"name": "name",
							"type": "string"
						},
						{
							"internalType": "string",
							"name": "url",
							"type": "string"
						},
						{
							"internalType": "uint256",
							"name": "timestamp",
							"type": "uint256"
						},
						{
							"internalType": "uint256",
							"name": "votes",
							"type": "uint256"
						},
						{
							"internalType": "uint256",
							"name": "id",
							"type": "uint256"
						},
						{
							"internalType": "bytes32",
							"name": "uniqueHash",
							"type": "bytes32"
						}
					],
					"internalType": "struct Proposel[]",
					"name": "proposels",
					"type": "tuple[]"
				},
				{
					"internalType": "uint256",
					"name": "proposelId",
					"type": "uint256"
				}
			],
			"name": "checkIndex",
			"outputs": [
				{
					"internalType": "bool",
					"name": "",
					"type": "bool"
				}
			],
			"stateMutability": "pure",
			"type": "function"
		},
		{
			"inputs": [
				{
					"internalType": "string",
					"name": "a",
					"type": "string"
				},
				{
					"internalType": "string",
					"name": "b",
					"type": "string"
				},
				{
					"internalType": "uint256",
					"name": "number1",
					"type": "uint256"
				},
				{
					"internalType": "uint256",
					"name": "number2",
					"type": "uint256"
				}
			],
			"name": "combineElemnets",
			"outputs": [
				{
					"internalType": "string",
					"name": "",
					"type": "string"
				}
			],
			"stateMutability": "pure",
			"type": "function"
		},
		{
			"inputs": [
				{
					"internalType": "address[]",
					"name": "keys",
					"type": "address[]"
				},
				{
					"internalType": "address",
					"name": "key",
					"type": "address"
				}
			],
			"name": "getIndex",
			"outputs": [
				{
					"internalType": "uint256",
					"name": "",
					"type": "uint256"
				}
			],
			"stateMutability": "pure",
			"type": "function"
		},
		{
			"inputs": [
				{
					"components": [
						{
							"internalType": "address",
							"name": "owner",
							"type": "address"
						},
						{
							"internalType": "string",
							"name": "name",
							"type": "string"
						},
						{
							"internalType": "string",
							"name": "url",
							"type": "string"
						},
						{
							"internalType": "uint256",
							"name": "timestamp",
							"type": "uint256"
						},
						{
							"internalType": "uint256",
							"name": "votes",
							"type": "uint256"
						},
						{
							"internalType": "uint256",
							"name": "id",
							"type": "uint256"
						},
						{
							"internalType": "bytes32",
							"name": "uniqueHash",
							"type": "bytes32"
						}
					],
					"internalType": "struct Proposel[]",
					"name": "proposels",
					"type": "tuple[]"
				},
				{
					"internalType": "uint256",
					"name": "id",
					"type": "uint256"
				}
			],
			"name": "getIndexInList",
			"outputs": [
				{
					"internalType": "uint256",
					"name": "",
					"type": "uint256"
				}
			],
			"stateMutability": "pure",
			"type": "function"
		},
		{
			"inputs": [
				{
					"components": [
						{
							"internalType": "address",
							"name": "owner",
							"type": "address"
						},
						{
							"internalType": "string",
							"name": "name",
							"type": "string"
						},
						{
							"internalType": "string",
							"name": "url",
							"type": "string"
						},
						{
							"internalType": "uint256",
							"name": "timestamp",
							"type": "uint256"
						},
						{
							"internalType": "uint256",
							"name": "votes",
							"type": "uint256"
						},
						{
							"internalType": "uint256",
							"name": "id",
							"type": "uint256"
						},
						{
							"internalType": "bytes32",
							"name": "uniqueHash",
							"type": "bytes32"
						}
					],
					"internalType": "struct Proposel[]",
					"name": "proposels",
					"type": "tuple[]"
				}
			],
			"name": "getIndexWithMaxVotes",
			"outputs": [
				{
					"internalType": "uint256",
					"name": "",
					"type": "uint256"
				}
			],
			"stateMutability": "pure",
			"type": "function"
		},
		{
			"inputs": [
				{
					"internalType": "string",
					"name": "str",
					"type": "string"
				}
			],
			"name": "gethash",
			"outputs": [
				{
					"internalType": "bytes32",
					"name": "",
					"type": "bytes32"
				}
			],
			"stateMutability": "pure",
			"type": "function"
		},
		{
			"inputs": [
				{
					"internalType": "address[]",
					"name": "array",
					"type": "address[]"
				}
			],
			"name": "pop",
			"outputs": [
				{
					"internalType": "address[]",
					"name": "",
					"type": "address[]"
				}
			],
			"stateMutability": "pure",
			"type": "function"
		},
		{
			"inputs": [
				{
					"internalType": "address[]",
					"name": "array",
					"type": "address[]"
				},
				{
					"internalType": "uint256",
					"name": "index",
					"type": "uint256"
				}
			],
			"name": "removeElement",
			"outputs": [
				{
					"internalType": "address[]",
					"name": "",
					"type": "address[]"
				}
			],
			"stateMutability": "pure",
			"type": "function"
		},
		{
			"inputs": [
				{
					"internalType": "uint256",
					"name": "value",
					"type": "uint256"
				}
			],
			"name": "toString",
			"outputs": [
				{
					"internalType": "string",
					"name": "",
					"type": "string"
				}
			],
			"stateMutability": "pure",
			"type": "function"
		}
	]
}